:100000000C94F9020C9431030C9431030C943103D9
:100010000C9431030C9431030C9431030C94310390
:100020000C9431030C9431030C949A2A0C946C2B8D
:100030000C9486250C9431030C9431030C943103F9
:100040000C9431030C9431030C9431030C94310360
:100050000C9431030C942B260C9431030C94310333
:100060000C9431030C9431030C9431030C94310340
:100070000C9431030C9431030C9431030C94310330
:100080000C9431030C9431030C9431030C94310320
:100090000C9431030C9431030C9431030C94310310
:1000A0000C9431030C9431030C943103070B070BB0
:1000B000330B330B940BB20BA10CA10CB70B2D0C13
:1000C0003E0C3E0CC220C520CA20D120D620DB2009
:1000D000E020E520EA20EF20F420F920FC20FC209D
:1000E000FC20FC20FC20FC20FC20FC20FC208221A9
:1000F000F4218A21542158218E215B2191219C21B8
:100100006621EA216A21A0216E21A421CE2172213B
:10011000A821D8217821AE21B8215F219521622123
:1001200098217D21B321C421E421E621502186219B
:10013000FD2199239F238D239323A523AB23B12353
:10014000D42BFB2BF32CFB2BF32C472C6A2CF32CFE
:10015000C12CD02C290014001A000800150017002B
:100160001C0018000C00120013002E002B000400CD
:100170001600070009000A000B000D000E000F001A
:1001800000002800E1001D001B000600190005000A
:10019000110010003600000037004C00E000E300C2
:1001A000E2002C41000000002C420000000038005A
:1001B0002D002D0201004A0052004D002F0030009A
:1001C0000100010024023102417E010001005000C3
:1001D00051004F00260227020100010034003300C5
:1001E00000002A0001001D011B0106011901010088
:1001F00001000100010000000100010001000100F8
:1002000001000100000000002C430000000001007C
:100210000100010001001E001F002000210022003B
:1002200023002400250026002700010027002100CC
:10023000220023000100010001000100340033000E
:1002400000002A0001002400250026000100010012
:100250000100010001000000010001000100010097
:1002600001002C430000000001000000000001001C
:10027000010001005F7ED100CD00D2003A003B00BA
:100280003C000100010028782778007C0100CF00A5
:10029000CE00D0003D003E003F00010024782378CE
:1002A0000000007E0100D900D300DA0040004100C8
:1002B000420043004400000045000100010001002D
:1002C0000100010000000000010000000000597E54
:1002D0005A7E2078000101010101010101010202A1
:1002E00002020202020202030303030303030304E4
:1002F00004040404040405050505050606060606AF
:10030000070707070708080808090909090A0A0A68
:100310000B0B0B0C0C0C0D0D0D0E0E0E0F0F0F100A
:100320001011111112121313141415151616171794
:10033000181819191A1A1B1B1C1D1D1E1E1F202000
:10034000212222232424252626272829292A2B2C4A
:100350002D2D2E2F30313232333435363738393A6D
:100360003B3C3D3E3F404142434445464748494A65
:100370004C4D4E4F50515354555658595A5B5D5E33
:100380005F616264656668696B6C6D6F70727375CE
:1003900077787A7B7D7E8082838587888A8C8E8F32
:1003A00091939596989A9C9EA0A2A3A5A7A9ABAD60
:1003B000AFB1B3B5B7BABCBEC0C2C4C6C9CBCDCF4E
:1003C000D1D4D6D8DBDDDFE2E4E7E9EBEEF0F3F5FC
:1003D000F8FAFDFF00000000000000002A2B2800B2
:1003E00000000000000000000000000000000029E4
:1003F000000000002C1E3420212224342627252E24
:10040000362D3738271E1F2021222324252633335B
:10041000362E37381F0405060708090A0B0C0D0E87
:100420000F101112131415161718191A1B1C1D2F53
:100430003130232D350405060708090A0B0C0D0E73
:100440000F101112131415161718191A1B1C1D2F33
:100450003130354C000000000000000000000000BA
:10046000000000000000000000000000000000008C
:1004700000000000000000007E0F00D4FFFFFFC757
:10048000000000780C034600650062003400300074
:1004900000001203660065006200720065006500DE
:1004A0007A00650000000403090409023B00020110
:1004B00000A0FA0904000001030101000921110153
:1004C000000122440007058103080001090401001E
:1004D000010300000009211101000122B6000705F7
:1004E000820320000112010002000000086469423A
:1004F0000000010102000105010902A101850209B4
:1005000001A10005091901290815002501950875A3
:100510000181020501093009311581257F95027598
:1005200008810609381581257F9501750881060522
:100530000C0A38021581257F950175088106C0C017
:1005400005010980A101850319012AB700150126BB
:10055000B700950175108100C0050C0901A1018546
:100560000419012AA002150126A002950175108127
:1005700000C005010906A1018506050719E029E764
:10058000150025019508750181020507190029EF5D
:100590001500250195F0750181020508190129054D
:1005A000950575019102950175039101C005010939
:1005B00006A101050719E029E71500250195087531
:1005C0000181029501750881010507190029FF15B0
:1005D0000026FF0095067508810005081901290508
:1005E000150025019505750191029501750391018D
:1005F000C00011241FBECFEFDAE0DEBFCDBF04B6CE
:1006000003FE18C080912C0590912D05A0912E0518
:10061000B0912F058730904BA740B04B59F4109202
:100620002C0510922D0510922E0510922F05E0E05A
:10063000F8E3099512E0A0E0B1E0E0E1F2E602C0E3
:1006400005900D92AE35B107D9F725E0AEE5B2E0E1
:1006500001C01D92AC32B207E1F70E9441180C9420
:1006600006310C940000CF930E94E911C82F0E941C
:10067000FF11C82B0E9412128C2BCF910895CF939B
:10068000C82F0E9408128C2F0E9428128C2F0E94C3
:10069000F211CF910895A5E0B0E0E1E5F3E00C940C
:1006A000773091E0811190E0998321E0982F91714A
:1006B00009F420E02A8321E0982F947409F420E0C3
:1006C0002B8321E0982F987809F420E02C83827204
:1006D00061E009F460E029813A814B815C8170E03E
:1006E00080E090E02596E2E00C9493308F359E47B1
:1006F00081F4FB018581882369F0909123039F5F3A
:10070000917897FF03C091509E6F9F5F9093230352
:10071000089580E00895A0E0B0E0E1E9F3E00C94F2
:10072000713020912003309121032115310511F4FE
:10073000C0E023C06A01D62F7C01C9010E94DA07FC
:100740008C010097A9F3FC018081882389F3F601CD
:10075000C581CC2369F38FEF0E943F03C7010E943C
:100760005D0880912003909121030E945D08C801DB
:100770000E94DA228D2F0E94F9118C2FCDB7DEB79F
:10078000E8E00C948D300F931F93CF93DF93E091AB
:100790002003F0912103309709F456C0DA01062FA7
:1007A00011964C91119750E02C9130E015966C9178
:1007B000662381F16CE0649FE001659FD00D1124F8
:1007C000C20FD31FCC0FDD1FCC0FDD1FC05ADD4F72
:1007D0002881211139C0109122031123B1F121E0A8
:1007E0002883FA83E983E770FF2701C0220FEA9587
:1007F000EAF72B830E945D088FEF0E943F038981F7
:100800009A810E944608802F0E94F9118B810E94D4
:10081000BA0A1BC08CE0849FE001859FD00D112493
:10082000C20FD31FCC0FDD1FCC0FDD1FC05ADD4F11
:100830001881112351F0188289819A810E945D08E4
:100840008B810E94C10A01C010E0812FDF91CF91FE
:100850001F910F9108958F929F92BF92CF92DF9236
:10086000EF92FF920F931F93CF93DF9300D000D0AE
:100870001F92CDB7DEB77C016B010E947603811118
:1008800057C0970130522115304328F4F601968164
:10089000907F09F44EC010922203F0922103E0925F
:1008A00020030E943303B82E0E944B0329833A830E
:1008B0004B835C836D8380912003909121030E9480
:1008C000FE064C01009721F09093210380932003B2
:1008D00000912303002E000C110B29813A814B81DA
:1008E0005C816D8180912003909121030E94BF075C
:1008F0009C01009721F09093210380932003892885
:1009000031F491E0232B09F490E0892F01C081E0BC
:10091000817080932203A6016B2DC7010E948B0377
:10092000811107C0A6016B2DC7010E94C30301C03E
:1009300080E00F900F900F900F900F90DF91CF916C
:100940001F910F91FF90EF90DF90CF90BF909F90FD
:100950008F9008954F925F926F927F928F929F92A5
:10096000AF92BF92CF92DF92EF92FF92CF93DF933D
:10097000CDB7DEB728970FB6F894DEBF0FBECDBF58
:10098000E62EF42E682F70E080E090E00E94362E74
:1009900020E030E04FE753E40E94932D4B015C01CF
:1009A0006E2D70E080E090E00E94362E20E030E076
:1009B0004FE753E40E94932D2B013C016F2D70E013
:1009C00080E090E00E94362E20E030E04FE753E4D4
:1009D0000E94932D6D837E838F8398879B01AC014A
:1009E000C301B2010E94712E9B01AC01C501B4018B
:1009F0000E94712E6B017C012D813E814F815885B3
:100A0000C301B2010E94902E9B01AC01C501B4014B
:100A10000E94902E9B01AC01C701B6010E94212DBE
:100A200069837A838B839C8320E030E0A9010E9454
:100A30008E2D882309F461C0A7019601C501B40178
:100A40000E948E2D811115C02D813E814F815885C8
:100A5000C301B2010E94212D29813A814B815C8121
:100A60000E94932D20E030E040EC50E40E94BA2E2A
:100A70003BC0A7019601C301B2010E948E2D8111D6
:100A800013C0A50194016D817E818F8198850E949C
:100A9000212D29813A814B815C810E94932D20E098
:100AA00030E040E050E41AC0A70196016D817E81DC
:100AB0008F8198850E948E2D811113C0A301920110
:100AC000C501B4010E94212D29813A814B815C81AD
:100AD0000E94932D20E030E040E850E40E94222D57
:100AE00003C060E070E0CB0120E030E040E752E47A
:100AF0000E948B2F4B015C0103C0812C912C54016F
:100B000020E030E0A901C701B6010E948E2D8823A4
:100B100059F0A701960169817A818B819C810E949D
:100B2000932D2B013C0103C0412C512C320120E0BC
:100B300030E04FE753E4C501B4010E948B2F20E061
:100B400030E044EB53E40E94932D0E94052EA62E24
:100B500020E030E04FE753E4C301B2010E948B2F45
:100B60000E94052EB62E20E030E04FE753E4C70187
:100B7000B6010E948B2F0E94052E862FB501289664
:100B80000FB6F894DEBF0FBECDBFDF91CF91FF90BF
:100B9000EF90DF90CF90BF90AF909F908F907F901D
:100BA0006F905F904F900895809327036093260382
:100BB000409325030E94AA04962F672F482F892F60
:100BC00090E00E94BD1F089580E40E9437200E949B
:100BD0006B1F0E94591F80912803882311F083E026
:100BE00001C082E00E94881F80E00E94A10D83E086
:100BF0000E94A10D08958091AE01882391F080910B
:100C00002803882321F020E040E060E006C0209126
:100C10002503409126036091270388E190E00E941C
:100C20002F1C81E00895823059F0833031F08130FB
:100C300059F44AE46FEF83E011C040E06FE60AC068
:100C40004FEF6BE385E00AC0809123034FEF8130C3
:100C500019F46FEF8FEF02C060E088E80E94D405BE
:100C600008950F931F93CF938C010E945F09C82FA3
:100C700080912403C81729F08C2F0E941306C0937B
:100C80002403C801CF911F910F91089580E00E9425
:100C900013060E94E40580E00E94A10D0895CF9301
:100CA000FB01C581CC23D9F09C0129553E47223058
:100CB000310560F489359E4759F49091280381E00D
:100CC0008927809328030E94E40509C0C0E007C07B
:100CD0009091AE0181E089278093AE01F4CF8C2FF3
:100CE000CF910895FB012581AC014B7F823E910598
:100CF00019F42093290305C0433E510511F42093B4
:100D00002A03403E510511F420932B03309129030F
:100D1000222399F031112AC020912A03211126C0E3
:100D200020912B038B9721F5222311F181E00E9462
:100D3000A10D81E080932C030895311109C08091A9
:100D40002A03811105C090912B0381E0892702C0FD
:100D500080E090E020912C03222351F080FF08C016
:100D600080E00E94A10D10922C0308958B97F1F260
:100D700008950E94460608959C019D7F8C329144FF
:100D800051F02C3282E4380731F081E021153C47E4
:100D900019F080E0089581E00895EF92FF920F939B
:100DA0001F93CF938C017B010E94BC06C82F811139
:100DB00010C0B701C8010E947206B701C8010E94A5
:100DC0004F06811106C0B701C8010E942B04C1E083
:100DD000C8278C2FCF911F910F91FF90EF9008950E
:100DE0008C3222E4920739F09D7F8C32914419F0C5
:100DF00088EC90E008958DE790E00895A5E0B0E0DC
:100E0000E4E0F7E00C94773029833A838932910546
:100E100041F44111A5C0662309F4ABC085E390E01D
:100E2000AAC08832910531F4662309F4A2C08AE28F
:100E300090E0A1C081152EE7920709F494C02A81A1
:100E40008433910549F4611191C08981882309F4A3
:100E500090C084E392E08FC08D3232E0930731F48A
:100E6000662309F486C08DE292E085C08E3291053A
:100E700031F4662309F47DC08EE290E07CC08F32AD
:100E8000910531F4662309F474C086E392E073C0DF
:100E90008033910531F4662309F46BC087E392E057
:100EA0006AC0863232E0930731F4662309F461C0E8
:100EB0008FE292E060C0873232E0930731F466231C
:100EC00009F457C080E392E056C0843232E09307C1
:100ED00031F4662309F44DC080E49EE74CC08133B1
:100EE00032E0930731F4662309F443C08FE19EE7B3
:100EF00042C08633910529F46623D9F18EE192E050
:100F00003AC08733910529F4662399F188E392E08A
:100F100032C08833910529F4662359F181E390E0CA
:100F20002AC08A34910529F4222319F18BE490E038
:100F300022C08D34910529F42223D9F08EE490E06B
:100F40001AC08632910529F4662399F085E392E070
:100F500012C08D9771F4662361F087E590E00BC0B5
:100F60008BE290E008C088E292E105C084E390E063
:100F700002C080E090E02596E2E00C949330A5E07A
:100F8000B0E0E5ECF7E00C9475300130110561F448
:100F9000833E910531F0823E910531F48EE690E07A
:100FA00005C08DE690E002C080E090E02596E4E088
:100FB0000C9491308F312EE7920751F080342EE758
:100FC000920749F081349E4749F080ED91E0089501
:100FD0008BEC91E008958EEC91E0089581ED91E025
:100FE00008958430B0F46430A0F44C3090F490E371
:100FF000899FF00111248CE0689FE00DF11D112400
:10100000E40FF11DEE0FFF1FEC5AFE4F85919491F6
:10101000089581E090E008950E94F10708959C01F1
:101020003A9521153F4130F5BC0166277270AC013D
:10103000442754709C012227387094FF0FC090FF02
:1010400002C080E101C080E0672B09F08062452B7F
:1010500009F08064232B79F080680895892F8170CE
:10106000672B09F08260452B09F08460232B19F06F
:101070008860089580E00895CF93DF93EB010E948C
:101080000F08FE010995DF91CF910895CF93DF936B
:10109000EC01805E9109089710F0209719F46AEB33
:1010A0007AE002C06CEF7CE0CE010E943C088C2FFD
:1010B0000E940A0ADF91CF910895CF93DF93EC014C
:1010C0000E94600ACE01805E9109089710F0209777
:1010D00019F461EC7AE002C063E07DE0CE010E9489
:1010E0003C08DF91CF91089581E0089581E0089553
:1010F0000E94760808950E94780808950E94CD06FF
:10110000089508950E9481080895A6E0B0E0EBE8F4
:10111000F8E00C94763049835A839E8330913203F1
:1011200089819A81311115C03E81332359F02223E0
:1011300049F00E94710E182F682F89819A810E94B0
:101140004D0E03C00E945F0E182F69817A81812F96
:1011500004C00E94710E69817A810E94AF152696A3
:10116000E3E00C949230FC01262F40815181628192
:101170007381848195810E9485080895CF93DF93C0
:10118000EC0161E00E94B308BE010E947B08DF9180
:10119000CF910895CF93DF93EC0160E00E94B308F4
:1011A000BE010E948208DF91CF91089508950E94A8
:1011B000240D0E94D6082FEF84E39CE0215080404C
:1011C0009040E1F700C0000008950E94D7080E94F7
:1011D000512608950E94D7080E94752608950F93FE
:1011E0001F93CF93DF938C0161E00E94B308EC0161
:1011F000B8010E947E08882309F449C0B801CE01D5
:101200000E948123882309F442C0B801CE010E94C4
:101210002C218823E1F1B801CE010E94DE2288232F
:10122000B1F1B801CE010E94AB20882381F1F80111
:101230008581882341F1C3308CE7D807D1F040F491
:10124000C115FCE7DF0791F0C130DC47A1F01BC0FE
:10125000CB35ECE7DE07A9F0CC35FCE7DF0771F012
:10126000CA35DC4781F40E94E8120DC00E94E508EF
:101270000EC00E94F0120E94EA0809C00E94DE120D
:1012800002C00E94EC12C8010E94740801C080E0F4
:10129000DF91CF911F910F9108950E945E250E94CA
:1012A0002A1E0E94A20981E00E94231F08950E9425
:1012B000A60980E00E94231F0E9467250895292F18
:1012C00033272115310519F0C90148E001C040E07C
:1012D0009C0164E0369527956A95E1F72115310563
:1012E00011F04C5FC9019C013695279536952795DD
:1012F0002115310511F04E5FC9019C0136952795E6
:10130000232B09F04F5F842F0895089581E00895FD
:101310000895CF93DF93D82F0E948609C82F882382
:1013200019F08D2F0E9488098C2FDF91CF9108959D
:101330000895CF93C82F0E9485098C2F0E94890998
:10134000CF91089580E00E94990908950E94C923D1
:101350000E9499090895CF930E94C923C82F8091B4
:101360002D03C81779F0C0932D030E94F4256093D4
:101370002E0370932F0380933003909331038C2FAF
:101380000E949909CF910895ADE0B0E0EAECF9E050
:101390000C947730488759876A877B878C879D872D
:1013A00091110E940F12CE01019627E0FC011192CB
:1013B0002A95E9F726E0FE013896DC0101900D92AE
:1013C0002A95E1F72D8121110AC029813A814B81AB
:1013D0005C816D817E818F810E94531104C00E94C7
:1013E000BE088111F2CF2D96E2E00C949330FC01FF
:1013F0002481213021F4808191810E94A30E0895DF
:10140000662319F00E94D91802C00E9434190E9464
:10141000AB190895CF93882309F450C0C82F8CEFDF
:101420008C0F813AD0F46C2F8091AF019091B00174
:101430000E945E24882349F06C2F8091AF01909127
:10144000B0010E94EC240E943E126C2F8091AF01EB
:101450009091B0010E94DE240CC080E28C0F883095
:1014600058F4C77081E001C0880FCA95EAF70E945E
:10147000EC110E943E1222C0EBE5EC0FE33040F489
:10148000F0E0E65FFD4F808190E00E94FE2316C0F1
:10149000E8E5EC0FEB3150F4F0E0EE0FFF1FEC52FB
:1014A000FE4F808191810E94232408C083E38C0F2A
:1014B000833120F461E08C2F0E94000ACF910895BF
:1014C0008823A9F19CEF980F913A40F4682F8091FE
:1014D000AF019091B0010E94EC240DC090E2980FF2
:1014E000983060F4877091E001C0990F8A95EAF70F
:1014F000892F0E94F2110E943E1208959BE5980FD9
:10150000933028F480E090E00E94FE23089598E54F
:10151000980F9B3128F480E090E00E9423240895E6
:1015200093E3980F933118F460E00E94000A089545
:101530001F93CF93DF93182FEB010E940A0A209785
:1015400041F08FE99FE00197F1F700C0000021977B
:10155000F6CF812F0E94600ADF91CF911F910895ED
:10156000893319F060E070E002C060E570E00E942D
:10157000980A0895882321F00E94EC110E943E12DF
:101580000895882321F00E94F2110E943E120895CE
:10159000A0E0B0E0EEECFAE00C9471307C01162F84
:1015A000C72FFC01D581068102950F700E94E211C0
:1015B0008823E9F0DD23D9F08C2F807F803451F02F
:1015C00080E2810F883098F0011104C08C2F807E5A
:1015D000803269F08091570482FF09C082E00E9446
:1015E000B2120E94E21191E0D82ED92601C0D12C6E
:1015F000CC2EC2948FE0C8228C2D90E08C309105C7
:1016000008F09FC1FC01EA5AFF4F0C9461308C2F07
:10161000807FCF70882311F0C295C07FDD2399F0C1
:10162000CC2309F47AC180E2810F883010F01111C7
:1016300004C08C2F0E94EC1103C08C2F0E94021258
:101640000E943E126AC1812F0E94600ACC2309F4D5
:1016500078C180E2810F883038F1112329F18C2F75
:101660000E94081224C08C2F807FCF70803211F02E
:10167000C295C07F112319F0113099F13CC08091BF
:10168000570482FD17C0DD2349F0CC2329F08C2FAD
:101690000E94EC110E943E1280E040C180E00E9456
:1016A000600ACC2309F44DC18C2F0E94F2110E94D4
:1016B0003E1247C1DD2349F0002309F1013009F052
:1016C00040C18C2F0E941C123CC101113AC18C2FC9
:1016D0000E94C10A8C2F0E9428128C2F0E94851212
:1016E00030C1DD2321F0063008F02BC108C00530E1
:1016F00008F027C115C0DD2331F001110EC18C2F78
:101700000E94BA0A1EC1002359F0193309F016C10C
:10171000FFEF27EE83E0F15020408040E1F70CC15D
:101720008C2F0E94C10A0DC18C2F869586958370DF
:1017300019F0813061F005C1DD2321F0812F9C2F4C
:10174000937002C080E090E00E94FE2302C1DD237E
:1017500021F0812F9C2F937002C080E090E00E94C6
:101760002324F7C06D2F812F0E94000AF2C08C2F16
:101770008370B1F5D111E9C0412F4295469547706C
:10178000440F440F812F8F7090E09C01042E02C003
:10179000220F331F0A94E2F714FF0AC08FE090E093
:1017A00002C0880F991F4A95E2F78095909502C074
:1017B00080E090E0C695C695C370822B932BC23013
:1017C00049F058F4C13019F00E94800DBEC00E944B
:1017D000770DBBC00E94890DB8C00E94740DB5C0C2
:1017E000DD2319F08C2F817001C08695882309F4C0
:1017F000ACC0412F429546954770440F440F812F4E
:101800008F7090E09C01042E02C0220F331F0A94B7
:10181000E2F714FF0AC08FE090E002C0880F991F22
:101820004A95E2F78095909502C080E090E0C695D9
:10183000C695C370822B932BC23049F058F4C13047
:1018400019F00E94E80D81C00E94DF0D7EC00E9449
:10185000F10D7BC00E94950D78C0CF70DD2339F06B
:101860008C2F0E94AD0D812F0E94BA0A6EC0812F6D
:101870000E94C10A8C2F0E94BD0D67C0123F21F14A
:1018800028F4103F41F0113FC1F043C0133F19F15C
:10189000143F79F03EC0DD2341F0053008F051C01F
:1018A0008C2F8F710E94CF0D4CC0063008F049C0BC
:1018B000F7CF8091570482FD18C0DD2339F08C2FBB
:1018C0008F710E94AD0D3DC0DD23C9F38C2F8F7148
:1018D0000E94BD0D36C0DD2329F08C2F8F710E9430
:1018E000A10D2FC00E949C0D2CC0DD2349F0CF71AB
:1018F0008C2F0E94AD0D63E08C2F0E94941221C0AA
:1019000081E00E94B2120230E0F082E00E94B21246
:1019100018C0DD2331F0002391F2812F0E940A0AC2
:1019200010C0002399F2193349F49FEFE7EEF3E07A
:101930009150E040F040E1F700C00000812F0E948C
:10194000600A88EF8C0D843020F40E94C9230E9425
:101950009909DD2089F00E94DE1180FD0DC0F7019C
:1019600015820E94D8110E94AD0DC7010E94D90CAA
:101970000E94D8110E94BD0DCDB7DEB7E8E00C94EF
:101980008D300F931F93CF93DF93EC0168817981A2
:101990008D810E94AE0E8C010E94FA0D0E94650D91
:1019A000B801CE010E94C80ADF91CF911F910F911B
:1019B0000895CF93DF93FC0124812223D1F0EC0121
:1019C0000E94EF0881110FC00E94E211882389F064
:1019D0008D81882371F08091570482FF0AC082E0D4
:1019E0000E94B21206C0CE010E94C10CCE010E941C
:1019F000CA08DF91CF910895882321F00E94021236
:101A00000E943E120895882321F00E9408120E942D
:101A10003E12089580E090E00E94FE2380E090E076
:101A20000E9423240E940F120E943E120E94CA1993
:101A30000E94AB1908958091AF019091B0010E946E
:101A4000FA240E940A0D08950E94FC110E941B0DA9
:101A5000089592959F70963079F010F4925001C0DD
:101A60009A50923068F4803F69F018F4883E40F450
:101A700009C0843F29F406C0883E20F0813F11F060
:101A800080E0089581E00895FC012481222339F04B
:101A9000808191810E94A30E0E94290D089580E00B
:101AA0000895A6E0B0E0E7E5FDE00C9477302696D7
:101AB000E2E00C949330A7E0B0E0E1E6FDE00C94A6
:101AC00077302796E2E00C949330089508950E94B1
:101AD000660D08950E94670D08950E946A0D909307
:101AE0004E0380934D0308950E946D0D089520913B
:101AF0004D0330914E03822B932B0E946D0D089560
:101B000020914D0330914E03822393230E946D0D4B
:101B1000089520914D0330914E03822793270E9410
:101B20006D0D08950E94310608950E94920D9093C4
:101B30004C0380934B03089580E090E00E94950D44
:101B4000089521E030E0A90102C0440F551F8A9595
:101B5000E2F7CA010E94950D089521E030E002C02D
:101B6000220F331F8A95E2F780914B0390914C032B
:101B7000822B932B0E94950D089521E030E002C046
:101B8000220F331F8A95E2F72095309580914B0301
:101B900090914C03822393230E94950D089521E098
:101BA00030E002C0220F331F8A95E2F780914B0389
:101BB00090914C03822793270E94950D08952091C0
:101BC0004B0330914C03822B932B0E94950D08956B
:101BD00020914B0330914C03822393230E94950D57
:101BE000089520914B0330914C03822793270E9444
:101BF000950D08950895962F9770A1E001C0AA0F42
:101C00009A95EAF793E0769567959A95E1F7660FCE
:101C1000771F660F771FFA01E60FF71F40E050E0CD
:101C2000682F70E090819B01042E02C036952795A5
:101C30000A94E2F72170219529272A232927219345
:101C40004F5F5F4F4430510569F70895FB01782FCE
:101C5000777023E0969587952A95E1F7880F991F6D
:101C6000880F991FE80FF91F40E050E080E02191B4
:101C700030E0072E02C0369527950A94E2F72170CE
:101C80003327042E01C0220F0A94EAF7822B4F5FFC
:101C90005F4F4430510559F70895282F943070F460
:101CA0008C3060F4862F622F70E02CE0929F600DE4
:101CB000711D112443E353E00E94FB0D08959430FD
:101CC00070F48C3060F4292F90E063E373E03CE023
:101CD000239F800D911D11240E94260E089580E0FF
:101CE0000895A0E0B0E0E7E7FEE00C9470307C01DE
:101CF00000914B0310914C0380914D0390914E0342
:101D0000082B192BCFE0D0E0CC24C394D12CC601F2
:101D10000C2E02C0880F991F0A94E2F780239123AA
:101D2000892B21F4219798F7B12C07C0BC2EB7015D
:101D30008C2F0E94BB150197A9F38B2DCDB7DEB771
:101D4000E9E00C948C30CF93DF93EC010E94710E8C
:101D5000BE010E94BB15DF91CF9108951F93CF93D1
:101D6000DF93EB0190913203992321F0CB010E9484
:101D7000A30E13C0882349F0CB010E94710E182FC7
:101D8000682FCE010E944D0E04C0CB010E945F0E51
:101D9000182FBE01812F0E94BB15DF91CF911F919B
:101DA00008951F93CF93DF93C0914F0317E0809165
:101DB0005003C817A1F0D0E01C9FF0011D9FF00D4B
:101DC0001124EF5AFC4F208131814281538164817B
:101DD000758186810E945B0D2196C770E8CFDF91E7
:101DE000CF911F9108952091890330918A034091EA
:101DF0008B0350918C0360918D0370918E038091C1
:101E00008F030E945B0D089520914F039091500322
:101E100057E02917A9F030E0529FF001539FF00DD1
:101E20001124EF5AFC4F7181761306C0708178132C
:101E300003C07581741306C02F5F3F4F2770E9CF31
:101E400080E0089581E00895A0E0B0E0EAE2FFE0DC
:101E50000C94723080918F0382958F7009F052C07C
:101E600080918E03882309F44DC0C0914F0387E011
:101E7000D82E80915003C81709F444C0D0E0DC9EEE
:101E80008001DD9E100D1124F801EF5AFC4F848172
:101E90008823A9F1918180918A03981330C09081A1
:101EA0008091890398132BC08581811128C0E2801D
:101EB000F38080918B0390918C03E81AF90A60E01B
:101EC00089E893E00E94B30869E873E00E94F00695
:101ED000E816F906A0F480918F038F7080618093DB
:101EE0008F03F801E95AFC4F80818F7080618083F5
:101EF00089E893E00E94D90C0E94D10E03C021967C
:101F0000C770B7CFCDB7DEB7E7E00C948E30A4E151
:101F1000B0E0EDE8FFE00C946A308C0186E0F80157
:101F2000DE011F9601900D928A95E1F7F801748009
:101F3000E58089E8A82E83E0B82E80918D03811179
:101F40001CC0772009F44EC0EE2009F448C0C80137
:101F50000E94440DF82E882309F441C087E0F8015F
:101F6000A9E8B3E001900D928A95E1F789E893E042
:101F70000E94F7090E94240F8DC1F80150806180F2
:101F8000C280D380F0908E0380918B0390918C035C
:101F90004601881A990A60E089E893E0FF2009F475
:101FA00007C10E94B30869E873E00E94F006881632
:101FB000990608F0A6C07720A9F080918F03382FEA
:101FC000307F20918A03F8019181332371F0291722
:101FD00009F465C0C8010E94440D811169C0C8019F
:101FE0000E94D90CFF24F39459C1291316C02091E3
:101FF00089039081291311C0E1100FC08F70806197
:1020000080938F030E94F30E89E893E00E94D90C1D
:1020100080918F03F801868340C1E1103AC040E00F
:10202000662D852D0E94040F40E0662D852D0E94AF
:10203000040FE82E811131C15F86688A8F859889E7
:102040000E94A30E292F22952F70243020F49F7018
:10205000223028F009C02A50223080F014C0992381
:1020600049F0811107C013C0992321F0F80196812E
:10207000907F69F0805E883030F409C0803F38F08E
:10208000815F833020F0C8010E94D90CEF2CFE2C18
:1020900005C180918F03816080938F03FEC02091E2
:1020A0008903F8019081291395CFE11093CFBFC028
:1020B000EE2009F494CF20918F03822F82958F70A8
:1020C00090E002978CF08091890390918A03998720
:1020D0008887DB86CA8680918D038C871D862E8734
:1020E000CE0108960E94D90C87E0F801A9E8B3E078
:1020F00001900D928A95E1F70E94240F0E94F30E41
:1021000071CF80918F03982F907FB1F46C2DDA8A74
:10211000C98A452D562D7A89872D9E2D0E94510DF5
:1021200089E893E00E94D90C87E0F50111928A9525
:10213000E9F70E94F30EB1C0772009F453CF209144
:102140008A03F8019181291311C02091890390819C
:1021500029130CC0E1100AC08683C8010E94D90C63
:1021600087E0F50111928A95E9F798C0C8010E94AD
:10217000440D882309F433CFEE2009F430CF2091A9
:102180008F03822F82958F7090E002970CF4ACCF72
:102190008091890390918A039A838983DC82CB8220
:1021A00080918D038D831E822F83CE0101969ACF5D
:1021B0000E94B30869E873E00E94F0068816990649
:1021C00008F059C0772009F40DCFFE2CEE2009F459
:1021D00006CF90918A03F801818198133EC09091B7
:1021E00089038081981339C080918B0390918C036F
:1021F000C81AD90AF8ECCF16D10430F580918F03B4
:1022000080FD22C082958F70482F50E04115510506
:10221000D9F020918F03F80126834F30510541F00A
:102220008F5F982F9295907F822F8F70892B868356
:10223000C8010E94D90C87E0F801A9E8B3E0019039
:102240000D928A95E1F726C087E0F801A9E8B3E08E
:1022500001900D928A95E1F721C0C8010E94440DBA
:10226000811142CF80918F03816080938F03C801D9
:102270000E94D90C13C06C2DDA8AC98A452D562DBF
:102280007A89872D9E2D0E94510D87E0F5011192CC
:102290008A95E9F70E94F30E01C0F12C8F2D649608
:1022A000EFE00C948630AEE0B0E0E9E5F1E10C94AB
:1022B0007630288739874A875B876C877D878E874A
:1022C000CE0108960E94870F882361F06C856623F3
:1022D000A9F1288539854A855B857D858E850E9493
:1022E0005B0D2CC087E0FE013896DE01119601904F
:1022F0000D928A95E1F76C85662301F120915003D8
:1023000030E0C90101968770992740914F0350E052
:1023100084179507E1F16D8397E0929FD001939F19
:10232000B00D1124AF5ABC4FFE01319601900D92B1
:102330009A95E1F7809350030E94D10E17E08091A7
:102340004F0390915003891779F1189FC001112410
:102350008F5A9C4F0E94870F882331F1E0914F03E1
:102360001E9FF0011124EF5AFC4F208131814281E0
:1023700053816481758186810E945B0D80914F033A
:1023800090E001968770992780934F03D8CF0E94E1
:10239000240D1092500310924F03E9E8F3E087E018
:1023A000DF011D928A95E9F72E96E3E00C949230B6
:1023B0008091B00386958695869508958091B003A7
:1023C000877008959091B003977081E009F480E0E0
:1023D00008958091D40308959091D403892B80931C
:1023E000D403089580959091D40389238093D403D6
:1023F00008958093D40308951092D4030895809192
:10240000D30308959091D303892B8093D303089528
:1024100080959091D30389238093D30308951092DC
:10242000D30308958091B203089508950E94151270
:1024300008950E94161208959091B203292F28231F
:10244000821729F0982B9093B2030E9419120895D5
:102450009091B203292F282331F08095892380930E
:10246000B2030E94191208958091B203882329F0C3
:102470001092B20380E00E9419120895CF93DF9367
:10248000E091AF01F091B0018091D4038083E0919D
:10249000AF01F091B00190818091D303892B8083AB
:1024A0008091B203882381F0E091AF01F091B001F7
:1024B0009081892B80838091AF019091B0010E941F
:1024C000482481110E943412C091AF01D091B00113
:1024D00040E250E060E973E0CE010E949E30892B1B
:1024E00059F080E2FE01A0E9B3E001900D928A95D7
:1024F000E1F7CE010E94D623DF91CF9108950E948B
:10250000151208950E947F1208959091B103292F0A
:10251000282331F0809589238093B1030E94821291
:1025200008950E94151208959091570492FF11C0CA
:1025300098E0899F90011124262B2093B0030E94DC
:10254000AD0D8091B0038695869586950E94911277
:1025500008950E94AD0D08951092B00380E00E948E
:10256000911208959091B003809589238093B003D0
:10257000282F277069F4981759F09091570492FF0B
:1025800007C08695869586950E94BD0D0E94AC1267
:1025900008959091570492FB222720F9281769F09B
:1025A00080FB92F9909357048091560490915704C0
:1025B0000E94111382E00E94B21208958091570484
:1025C00082FB882780F991E089270E94C91208952B
:1025D00081E00E94C912089580E00E94C912089506
:1025E0006FEF7FEF80E090E00E940031089580E07F
:1025F00090E00E94CC3021E0863E9E4F09F020E022
:10260000822F089582E090E00E94C430089583E014
:1026100090E00E94C430089584E090E00E94CC30A5
:102620000895BC0184E090E00E9400310895AB0160
:10263000BC018FE090E00E94F4300895AB01BC0132
:1026400083E190E00E94F430089560E070E0CB01F7
:102650000E941E13089560E070E0CB010E941713E2
:102660000E9425130895A8E0B0E0E9E3F3E10C949B
:10267000773066EE7EEF80E090E00E94003160E00F
:1026800082E090E00E94E23060E083E090E00E940F
:10269000E23010924E0310924D0360E074E184E04A
:1026A00090E00E94003160E086E090E00E94E2301D
:1026B0006FEF87E090E00E94E23040E050E0BA0126
:1026C00088E090E00E94F43060E084E290E00E94B4
:1026D000E23060E087E190E00E94E23060E08CE070
:1026E00090E00E94E23060E08DE090E00E94E230F5
:1026F00019821A821B821C821D821E821F821886EA
:1027000048E050E068E170E0CE0101960E94D230CE
:1027100040E050E0BA0180E290E00E94F4300E9474
:102720002B132896E2E00C9493300E943313089503
:10273000682F8EE090E00E94E2300895A6E0B0E0BD
:10274000E4EAF3E10C9475300E94E8258C01809155
:10275000D5039091D6030817190781F019821A82C0
:102760000E94E825682F49815A81792F80E090E006
:102770000E94C4091093D6030093D5032696E4E083
:102780000C9491300E94F4256093E3037093E4036A
:102790008093E5039093E6036093DF037093E00377
:1027A0008093E1039093E203089581E0089581E02E
:1027B00008950E94D713089508950E94DC13089588
:1027C0000E94B90608950E94DC1308950E94E31345
:1027D00008950E94DC1308958BEA96E10E944E183A
:1027E0000E94E9130E94E61308950E94DD130E94DF
:1027F000DC1308950E94CA160E9498090E94EA1EDE
:1028000008950E94DF250E94A6170E94FA13E6E5AC
:10281000F4E0808180688083809156049091570411
:102820000E9411130E94E0130895A6E0B0E0EBE1CE
:10283000F4E10C946B300E94D513811103C00E9407
:102840009E1366C00E94BC1727EDE22E23E0F22EF5
:102850005701D12CF501019111915F018D2D0E943D
:10286000E81680279127D394F4E0DF1619F0892B1E
:1028700089F302C0892B19F38091E70381FD0E943F
:10288000F1160E94D913682E10E0812F0E94E816DD
:102890004C01F701A080B180A826B926A114B1048B
:1028A00071F100E0CC24C394D12CC5018C219D2171
:1028B000892BE9F077247394C4018C219D21892B05
:1028C00009F4712C662071F009831A830E94E825AF
:1028D000682F8B839C8349815A81792F81E0972DC2
:1028E0000E94C409472D602F812F0E94E61C0F5FB4
:1028F000CC0CDD1C0C30C9F6F701918280821F5F81
:10290000F2E0EF0EF11C143009F0BFCF0E94C213A9
:102910000E942A1E0E94EC190E94AB092696EEE046
:102920000C9487301F93CF93DF930E94C015EC0166
:10293000C11580E5D807E8F5C11590E4D90708F07E
:10294000A8C0C03ED10530F5CD3CD10508F094C0FB
:10295000C83AD10578F4C53AD10508F083C0C13032
:10296000D10509F47CC008F4F2C0C430D10508F0E8
:10297000F1C0EDC0C33CD10508F0E9C0C85AD0E0B1
:10298000CC0FDD1FC35FDD4F0990D881C02DCE0174
:102990009464E1C0C11580E2D80708F0CBC0C1152E
:1029A00091E0D90708F06BC0C83ED10508F4D2C049
:1029B000CEC0C03682E5D80728F5C03492E5D907E5
:1029C00008F079C0C03282E5D80708F06CC0C115A4
:1029D00092E5D90708F481C04C2F4695469580E2D0
:1029E000489FA0011124C37021E030E0C90102C05A
:1029F000880F991FCA95E2F7EA01C82BD92BCE019F
:102A00009D68A9C0C03A82E5D807B8F48C2F8F71B1
:102A1000C03892E5D90708F07BC08695869590E28C
:102A2000899F90011124C37081E090E002C0880F5B
:102A3000991FCA95E2F79A6868C0C03C82E5D8073A
:102A400008F46DC0C03E92E5D90708F080C0CF7190
:102A5000DD27DC2FCC27CE01806F906A7CC081E01F
:102A600090E079C0C55AD0E0CD5BDD4F8881C82F9A
:102A7000D0E0CE0190646FC0CE0190656CC08D2F08
:102A80000E945C16182FCE0199270E94C0151F7155
:102A90005CC0CE0199270E94C015CC27DF70D06A98
:102AA0008C2B9D2B58C0CF71D0E0DC2FCC27CE01D2
:102AB000816F906A50C08C2F8F718695869590E2B9
:102AC000899F90011124C37081E090E002C0880FBB
:102AD000991FCA95E2F79C6818C08C2F8F710E94CD
:102AE0005C1695E0D695C7959A95E1F7CF70D0E042
:102AF000DC2FCC27282F30E084FF05C084E0220F94
:102B0000331F8A95E1F7D069CE01822B932B23C026
:102B100090E0D82FCC27CE01846F906A1CC08C2FF8
:102B20008F710E945C168F7190E0D82FCC27CE0158
:102B3000906211C08D2F8F710E945C16182FCE01EC
:102B400099270E94C0151F719062912B04C080E0EC
:102B500090E001C0CE01DF91CF911F9108957430B4
:102B600038F46C3028F4462F672F0E940C08089523
:102B700080E090E008950E94AF150E94921408959D
:102B80008238910569F1B0F48133910509F475C07B
:102B900048F48932910509F467C08A32910509F435
:102BA00071C008958533910509F459C089339105A1
:102BB000B9F00895833E910589F138F4803E91057E
:102BC000D1F0823E910529F10895863E9105C9F123
:102BD000873E9105D9F1843E910509F06CC027C06C
:102BE0002091560420FD57C021FD55C02091570467
:102BF00023FD5BC008958091560480FD48C08091FC
:102C0000570480FF48C08091560484FD46C083EE7F
:102C100051C08091560482FF3CC0F5CF809156048C
:102C200082FD37C08091570480FD35C0ECCF809184
:102C3000570481FF36C08091560484FD2EC087EE74
:102C400039C08091560483FF2AC0F5CF8091560485
:102C500083FD25C08091570481FD23C0ECCF809176
:102C6000560485FD22C01FC08091560485FD1BC0FF
:102C70008091570483FF19C00AC08091560486FDD5
:102C800016C017C08091560486FD13C010C089E39A
:102C900011C082EE0FC080EE0DC080E00BC086EE4A
:102CA00009C084EE07C085E305C089E203C08AE25B
:102CB00001C081E390E008959091560492FF10C006
:102CC00041E0282F2471243009F040E031E0282F22
:102CD0002871283009F030E0431711F02CE08227EA
:102CE00093FF10C041E0282F2471243109F040E007
:102CF00031E0282F2871283109F030E0431711F016
:102D00002CE082273091570430FF10C051E0282F6B
:102D10002171213009F050E041E0282F287128303E
:102D200009F040E0541711F029E0822731FF10C06C
:102D300041E0282F2171213109F040E031E0282FB6
:102D40002871283109F030E0431711F029E082277B
:102D500094FD877E089580E008950E94F012089502
:102D60000E94BC172FEF86E791E0215080409040F1
:102D7000E1F700C000000E94BC1780E00E94E81646
:102D800080FF04C00E94AD160E94512608950E9443
:102D9000B01608950E94F712811102C00E94951387
:102DA0000E9402138093E7030E940C139093570430
:102DB000809356040E94C7160E94071390E00E9459
:102DC000740D80914B0390914C030E94920D0895D5
:102DD000E82FF0E0EE0FFF1FE05AFB4F808191815A
:102DE0000895089580EA8A95F1F7089500C008953E
:102DF0000E94F216089508950E94FB1608950E94FD
:102E0000FC1608950E94FB1608950E94021708956B
:102E1000F894E82FE295EF70F0E031A1282F2F70A1
:102E200081E090E001C0880F2A95EAF7982F9095ED
:102E3000932391A392A1892B82A3789408950F9351
:102E40001F93CF93DF93C2E5D2E089918F3F11F0BA
:102E50000E94081782E0C635D807B9F7C6E4D2E069
:102E600002E512E089918F3F11F00E9408170C17BC
:102E70001D07C1F7DF91CF911F910F910895A0E039
:102E8000B0E0E5E4F7E10C9470308C01C62FD0E09F
:102E9000CE018E5A9D4F6C01FC0190819F3F09F439
:102EA00050C0B62EF894E92FE295EF70F0E081A1C2
:102EB0009F7021E030E001C0220F9A95EAF7822B43
:102EC00081A382A12095282322A378940E94F6163C
:102ED000E6E4F2E042E552E021E030E0E12CF12CC2
:102EE00061916F3F89F0A62FA295AF70B0E09096E8
:102EF0008C9190E06F7002C0959587956A95E2F786
:102F000080FD02C0C90102C080E090E0E82AF92AF1
:102F1000220F331F4E175F0719F7F60180818F3F8D
:102F200011F00E94081761E0E114F10409F460E077
:102F30008B2D0E94F816CC0FDD1FC00FD11FF98218
:102F4000E882CDB7DEB7E9E00C948C300E941F1701
:102F500088E0E0E6F4E0DF01982F1D929A95E9F70A
:102F6000E8E5F4E0DF011D928A95E9F784E00E942C
:102F7000F7170E9405170895A8E0B0E0E2ECF7E12A
:102F80000C9474308E010F5F1F4F88E0F80111928E
:102F90008A95E9F7F12C6F2DC8010E943F17F39431
:102FA000F4E0FF12F8CF48E050E0B80188E594E083
:102FB0000E949E3021E0009709F420E0892B41F027
:102FC00088E0F801A8E5B4E001900D928A95E1F758
:102FD00044E060E674E088E594E00E94F817182F5A
:102FE0000E94FF16812F2896E5E00C9490300895FA
:102FF000EF92FF920F931F93CF93DF937C018B018E
:10300000C42F222349F081E08093EA030E94E8253F
:103010009093E9038093E8038091EA03811102C051
:1030200080E01CC08091E8039091E9030E94002693
:103030000597B0F3D0E0CC0FDD1FAE01B701C8019A
:103040000E949E30892B39F0AE01B701C8010E9461
:10305000AB3081E001C080E01092EA03CDB7DEB76B
:10306000E6E00C948F300E94EF270E9401140E942A
:10307000FC2708950E9401280E9415140E941B2815
:1030800008950E947F250E94D5270E94EC130E947C
:1030900033180E943A180E94F513FBCF90935F02F9
:1030A00080935E020895282F35EB2303C00111247D
:1030B00097FF03C08058910902C080589F4F892F05
:1030C00008958091F10380FF06C06091B60170E021
:1030D000660F771F26C081FF04C06091B60184E0AF
:1030E00005C082FF07C06091B60188E0689FB0010B
:1030F000112417C09091F0039923D1F06091B5018C
:10310000961788F72091B60188E0289F9001112436
:10311000929FA001939F500D112470E0CA010E945C
:103120000C306038710540F46115710519F406C062
:1031300068E070E0862F08958FE7089581E0089594
:103140008091F10380FF08C06091B20170E0759535
:1031500067957595679521C081FF06C06091B201A2
:1031600070E07595679519C082FF04C06091B20147
:1031700070E010C09091EF03992399F06091B10134
:103180009617A0F78091B201899FC001112470E0C9
:103190000E940C306038710540F46115710519F416
:1031A00006C061E070E0862F08958FE7089581E002
:1031B00008958D3C21F40E946118819504C08E3CD5
:1031C00029F40E9461188093F50308958F3C21F43F
:1031D0000E946118819504C0803D29F40E94611805
:1031E0008093F4030895893D19F40E94A01805C046
:1031F0008A3D31F40E94A01881958093F6030895CA
:103200008B3D21F40E94A018819504C08C3D29F4C7
:103210000E94A0188093F70308959FE2980F9830BA
:1032200078F421E030E0A90102C0440F551F9A95BF
:10323000E2F7CA019091F303892B8093F303089579
:103240008D3D21F48091F10381600BC08E3D21F40E
:103250008091F103826005C08F3D29F48091F103D4
:1032600084608093F10308958D3C39F49091F503C7
:1032700097FF35C01092F50359C08E3C29F4909108
:10328000F5031916BCF32BC09091F4038F3C29F47D
:1032900097FF25C01092F40349C0803D19F4191618
:1032A000CCF31DC09091F603893D29F41916BCF4A6
:1032B0001092F6033BC08A3D19F497FF10C0F8CF77
:1032C0008B3D39F49091F70397FF09C01092F703F3
:1032D0002DC08C3D21F49091F7031916BCF39FE2A9
:1032E000980F983080F421E030E0A90102C0440F2B
:1032F000551F9A95E2F7CA0180959091F3038923AF
:103300008093F30313C08D3D21F48091F1038E7FF0
:103310000BC08E3D21F48091F1038D7F05C08F3D60
:1033200029F48091F1038B7F8093F1038091F40362
:10333000811106C08091F503811102C01092F00343
:103340008091F603811106C08091F703811102C0BC
:103350001092EF0308950E94E8252091F4032111B3
:1033600004C02091F503222321F09093EE03809373
:10337000ED032091F603211104C02091F7032223CD
:1033800021F09093EC038093EB0382EF93E00E9493
:10339000F0230895E2EFF3E086E0DF011D928A95C5
:1033A000E9F71092F0031092EF031092F1030895E1
:1033B000FC01828181110DC0838181110AC0848149
:1033C000811107C091E08581811101C090E0892FB2
:1033D00001C081E081700895A6E0B0E0E2EFF9E17C
:1033E0000C94763086E0E2EFF3E0DE011196019076
:1033F0000D928A95E1F71092F4031092F503109262
:10340000F6031092F7038B81811104C08C8188230D
:1034100009F456C08091ED039091EE030E940026BE
:10342000AC019091F003992339F02091B70130E07D
:103430002417350758F044C02091B8018AE0289F2E
:10344000900111242417350718F03AC09F3F19F056
:103450009F5F9093F0031B81112361F00E9461181C
:10346000111614F09FEF01C091E0989F902D112448
:103470009093F4031C81112361F00E9461181116CE
:1034800014F09FEF01C091E0989F902D112490932C
:10349000F5038091F403882399F01091F50311232B
:1034A00079F00E945318811101C081E08093F403E8
:1034B000812F0E945318811101C081E08093F50390
:1034C0008D81811104C08E81882309F456C08091BA
:1034D000EB039091EC030E940026AC019091EF0366
:1034E000992339F02091B30130E02417350758F0C3
:1034F00044C02091B4018AE0289F90011124241730
:10350000350718F03AC09F3F19F09F5F9093EF0383
:103510001D81112361F00E94A018111614F09FEF75
:1035200001C091E0989F902D11249093F6031E8185
:10353000112361F00E94A018111614F09FEF01C032
:1035400091E0989F902D11249093F7038091F603BA
:10355000882399F01091F703112379F00E945318F2
:10356000811101C081E08093F603812F0E945318DE
:10357000811101C081E08093F703BE016F5F7F4F2F
:1035800082EF93E00E940C25811105C082EF93E049
:103590000E94D81981110E94AB1986E0FE01319674
:1035A000A2EFB3E001900D928A95E1F72696E3E051
:1035B0000C949230EF92FF920F931F93CF93DF936F
:1035C0008B01682F11110AC0442329F0E82FF0E085
:1035D000EC52FD4F6491762F862F75C0212F30E07D
:1035E000E82FF0E0442321F0EC52FD4FE491F0E0AD
:1035F00046E0049FC0011124CFEFD0E0BE010E943D
:10360000F82F4BEA4603C001479F900D1124800F0D
:10361000911D800F911D982F990F890FAE01421BAC
:10362000530B4E9FD0014F9FB00D5E9FB00D1124E4
:103630009B2F189FA0011124452F55278E01041B95
:10364000150B0E9FA0010F9F500D1E9F500D1124B2
:103650007E01E81AF108E29E8001E39E100DF29EC1
:10366000100D1124212F3327C21BD30BCE9F9001A5
:10367000CF9F300DDE9F300D112462307105A9F00F
:1036800048F46115710569F061307105C9F48B2F3B
:10369000752F0DC06430710581F058F066307105EA
:1036A00079F47E2F8B2F932F0DC0832F7B2F9E2F8E
:1036B00009C08E2F7B2F952F05C08E2F732F02C030
:1036C0007E2F852F692FCDB7DEB7E6E00C948F30C3
:1036D00041E00E94DA1A089520E030E0869F212D13
:1036E000969F200D311D1124C90108958F929F923C
:1036F000AF92BF92DF92EF92FF920F931F93CF93FF
:10370000DF937B01D82EBA0180E090E00E94342E36
:1037100020E030E04FE753E40E94932D4B015C0121
:103720009B01AC010E948B2FA50194010E948B2F5D
:10373000A50194010E948B2F8B01D82FC92F2DEC4E
:103740003CEC4CE45DE30E948E2D87FD10C023E32A
:1037500033E343E75FE3B8018D2F9C2F0E94862F50
:1037600018164CF400E010E0D0E8CFE304C000E00D
:1037700010E0D0E0C0E020E030E04FE753E4B801D3
:103780008D2F9C2F0E948B2F9B01AC0160E070E07D
:103790008FE793E40E94212D0E94052E262F3D2DB8
:1037A000239F212D1124822FB701DF91CF911F91EB
:1037B0000F91FF90EF90DF90BF90AF909F908F9010
:1037C00008950E94761B809508959091F803892BA7
:1037D0008093F80308950E94681B0895E8E6F4E0DA
:1037E00085E080838091C8019091C901A091CA01B0
:1037F00081839283A3838FE784838FEF858348E05F
:1038000050E068E170E0CF010E94D2301092F803DE
:10381000089580E008950F931F93CF93DF93C82FEF
:10382000D62F8A010E94091C9CE0C99FF001112437
:10383000E050FF4FED0FF11D90819F3F29F0F801FF
:10384000E80FF11D90838F5FDF91CF911F910F9152
:103850000895E0915C02F0915D0209950895E09170
:103860005802F091590209950895A0E0B0E0EBE309
:10387000FCE10C946F308C017B01FC01C08189E07C
:10388000C89FC02D1124D9E0DC0FDB3208F0DAE24A
:1038900020916C0431E0230F08F42FEF30E040E07A
:1038A00050E06FEF7FEF80E090E00E9442306901CE
:1038B000CD1708F041C0AC2EB12CF501EC57FE4FEE
:1038C0009081F80181818923A9F19091740491502C
:1038D00097FD15C0292F092E000C330BF901EC5868
:1038E000FB4F8189C813F3CF220F331FF901EC5826
:1038F000FB4F218D328D2C153D0548F701C09601F7
:1039000060916C0441E0640F08F46FEFC9010E94FC
:103910006C1BAC016091690470916A0480916B0426
:10392000F70109950E94EB1B462F282F672FC50131
:103930000E942F1CCF5FBCCF81E0DA3208F080E01C
:10394000CDB7DEB7EAE00C948B30A0E0B0E0EBEA54
:10395000FCE10C9472308C01DC018C91C9E08C9FED
:10396000C02D1124D9E0DC0FDB3208F0DAE26091DF
:10397000690470916A0480916B040E94EB1BF62E1F
:10398000E72ED82ECD1798F4EC2FF0E0DF01AC57DE
:10399000BE4F8C91D80111969C91982331F02D2D1A
:1039A0004F2D6E2DCF010E942F1CCF5FEBCF81E0FA
:1039B000DA3208F080E0CDB7DEB7E7E00C948E3065
:1039C000E0915A02F0915B0209950895CF92DF923F
:1039D000FF920F931F93CF93DF93CDB7DEB7289756
:1039E0000FB6F894DEBF0FBECDBF182F062FF42EF2
:1039F0000E94D713882309F46FC0FF2049F0AE015D
:103A00004F5F5F4F602F812F0E940B1CF82E01C06B
:103A1000F12C0F2D10E08091F9039801280F311D32
:103A2000293031056CF188E090E06C01C01AD10AB0
:103A3000B80166507C4FA6018AEF93E00E94AB303C
:103A4000B8016E5F7B4FA60182E094E00E94AB302C
:103A5000A601440F551FB801660F771F6E5E7B4F9E
:103A600082E194E00E94AB30B801665F7B4FA60113
:103A70008AE094E00E94AB3088E08F198093F903CC
:103A80001091F903DE01119640E0842F810FF416A6
:103A900009F190E05D91252F30E0BC0167507C4F2B
:103AA000F901EE0FFF1FE05DFE4F0081FB01018376
:103AB000220F331FF901E050FF4F21A9FB0121879D
:103AC000518B880F991FFC01E750FC4F128E118E0D
:103AD0004F5FDBCF8093F90328960FB6F894DEBFD3
:103AE0000FBECDBFDF91CF911F910F91FF90DF905F
:103AF000CF9008958091700490917104A091720408
:103B0000B091730488279C70AA27BB272AE0B6953A
:103B1000A795979587952A95D1F782309105A105AC
:103B2000B10571F083309105A105B10569F040E060
:103B30000197A105B10511F060E008C064E102C081
:103B400044E160E080E003C044E164E184E10E947C
:103B5000E01C0895CF93C82F8091BD018C130DC038
:103B600020916804237030E04091BE0150E081E074
:103B70002417350719F480E001C081E0817080933B
:103B8000BC0180916D049091BB01981739F080932E
:103B9000BB0140E060E080E00E94E01CC23019F40C
:103BA00066E77BE106C0C33048F0C330A1F561EEA3
:103BB0007BE18AEB91E00E94351C08C0CC23D1F058
:103BC000C13019F58AEB91E00E94A51C9091BA01D1
:103BD0009F5F9093BA01811124C082E08093B90164
:103BE0008091BC0181111DC0C1111BC083E0809375
:103BF000B90117C08091BC01882329F040E060E042
:103C000080E00E94E01C80E0E1CF8091BA018F5FEC
:103C10008093BA01E2CFCF3FC1F70E947A1D82E0C4
:103C2000E6CFCF9108950E94FB05089581E00895A5
:103C30000E94161E0895FC018081815099E0899FA1
:103C4000802D112469E0680F6B3208F06AE20E944F
:103C5000181E08954F925F926F927F928F929F925B
:103C6000AF92BF92CF92DF92EF92FF92CF9360918B
:103C700022047091230480912404909125040E94D1
:103C80000F266B017C010E94F4254B015C016093BF
:103C90002204709323048093240490932504A0911C
:103CA000F903E9EFF3E08A2F90E04FEF5FEF60E078
:103CB00070E04C195D096E097F09A91799F0218DF3
:103CC000328D2901612C712C441555056605770547
:103CD00010F4815004C02C0D3D1D328F218F9F5F49
:103CE0003296EBCF8093F90380912604811108C0AE
:103CF000C09168048C2F837019F0C695C69501C0D9
:103D0000C0E08091B9018130D9F028F0823041F1D2
:103D1000833099F151C01092BA0180927004909250
:103D20007104A0927204B092730489E2E9EFF3E0A7
:103D3000A4E7B4E001900D928A95E1F781E01AC002
:103D40008C2F0E94AA1DCC23B9F18091BA01853035
:103D500011F40E94131E8AEB91E00E941B1E2CC0DE
:103D6000C093BD018091680483708093BE010E945E
:103D7000291C83E08093B9011FC08091F803882338
:103D800051F048E050E068E170E088E694E00E947D
:103D9000D2301092F8036091700470917104809198
:103DA0007204909173040E940F26603171058105A1
:103DB000910510F01092B901CF91FF90EF90DF9034
:103DC000CF90BF90AF909F908F907F906F905F90BB
:103DD0004F900895E0915602F09157020995109284
:103DE0007404EDE8F4E08FEF9FEF8193919324E06A
:103DF000ED39F207D1F71092F903E2E1F4E08FEF29
:103E00009FEF8193919324E0E232F207D1F70E9471
:103E1000F712811104C00E9495130E94EE1B81E0ED
:103E20008093F80348E050E068E170E088E694E0B1
:103E30000E94B4301092F803809168048C7F11F4D2
:103E40000E94EE1B0895CF93C82F882391F0809194
:103E5000260481110EC00E94AA1D1092BD018091FE
:103E6000680483708093BE010E94291C83E08093C4
:103E7000B901C0932604CF910895E8E6F4E02081CB
:103E800091E0922790831092B9010E94E51B08955A
:103E900081E00E943D1F089580916804837011F4B1
:103EA0001092B901809168048C7F816080936804CE
:103EB00008950E944C1F81E00E94E51B08958091A7
:103EC0006804837011F01092B901809168048C7FAE
:103ED0008093680408950E945F1F81E00E94E51BA3
:103EE000089590916804937091F0811102C09460DC
:103EF00007C0843010F09C6003C0880F880F982B97
:103F000090936804862F1092B9010E94E51B0895D2
:103F100061E00E94711F0895682F90916804969542
:103F200096959F5F943010F4892F01C081E00E9424
:103F3000711F089581E00E948C1F0895682F909151
:103F4000680496959695915011F0892F01C083E0F1
:103F50000E94711F089581E00E949E1F0895909114
:103F60006804937049F08093690460936A044093F5
:103F70006B04822F0E94E51B089520E00E94AF1F72
:103F80000895A8E6B4E01196EC911197F0E0282F7F
:103F900013964C91139712966C91CF0108960E943C
:103FA000AF1F089581E00E94C11F0895A8E6B4E004
:103FB0001196EC911197F0E0282F13964C911397DE
:103FC00012966C91CF0108970E94AF1F089581E06F
:103FD0000E94D61F0895E8E6F4E0628120E1620FB6
:103FE00008F46FEF9181282F4381892F90E00E9480
:103FF000AF1F089581E00E94EB1F0895E8E6F4E00A
:10400000628120E1621B08F460E09181282F4381E6
:10401000892F90E00E94AF1F089581E00E94FE1F4B
:104020000895E8E6F4E0438120E1420F08F44FEF01
:104030009181282F6281892F90E00E94AF1F0895FF
:1040400081E00E9411200895E8E6F4E0438120E138
:10405000421B08F440E09181282F6281892F90E073
:104060000E94AF1F089581E00E942420089580934C
:104070006C0481E00E94E51B0895E8E6F4E02481E9
:1040800030E1230F08F42FEF24830E94E51B0895ED
:1040900081E00E943D200895E8E6F4E0248130E1CB
:1040A000231B08F420E024830E94E51B089581E08F
:1040B0000E944C200895109227040895FC01EE0FF1
:1040C000FF1FDF01A80FB91FA356BB4F11963C91EC
:1040D0001197361307C03C91341304C012963C91DB
:1040E000321759F031E0309327048E0F9F1FFC01E7
:1040F000E356FB4F6183408322830895FF920F9321
:104100001F93CF93DF93182F062FF42EC0E0D0E03B
:104110002F2D402F612FCE010E945E202196CA32A2
:10412000D105B1F7CDB7DEB7E5E00C9490308091C2
:104130002704882341F06AE270E08DE994E00E9450
:104140000121109227040895882311F0FA0101C07B
:10415000FB01099508951F93CF93DF93FB01158110
:1041600011114AC0EC010E94E9118272FE01E05275
:10417000F847E531F10520F4EE59FF4F0C9461301A
:1041800011E03AC00E94481F37C04BEA5FE16AE97C
:104190007FE104C04AE95FE16BEA7FE10E94A4206D
:1041A0002BC047EE5FE162ED7FE1F8CF42ED5FE1CA
:1041B00067EE7FE1F3CF4DE050E26AEF7FE1EECFB3
:1041C0004AEF5FE16DE070E2E9CF43E350E260E285
:1041D00070E2E4CF40E250E263E370E2DFCF47E514
:1041E00050E268E470E2DACF48E450E267E570E25A
:1041F000D5CF81E00E94881F812FDF91CF911F9141
:104200000895239A25B1277F35B138604FB7F894C8
:10421000FC01CB01880F991F680F791F6E0F7F1F5C
:10422000E617F70789F0819198E035B9000000C0E2
:1042300087FF25B9880F000000C000C000C025B965
:1042400000C09A9591F7ECCF4FBF8FE594E00197AE
:10425000F1F700C000000895CF93DF93FC01DB016C
:1042600015968C91882309F4DDC09F0130572332C5
:10427000310508F0D8C0EF010E940C139093570449
:1042800080935604FE01E150F047E232F10520F43C
:10429000E958FF4F0C946130809156048160AAC0A8
:1042A000809157048860B2C0809156048260A2C099
:1042B0008091560420C08091560488609BC08091F4
:1042C00057041EC0809157048260A0C0809156049C
:1042D000806190C08091560480628CC080915604A9
:1042E000806488C00E94240D80915604806882C03A
:1042F00080915604886084607DC0809157048260FC
:10430000816084C0809156048E7F74C08091570470
:10431000877F7CC0809156048D7F6CC0809156044D
:1043200020C080915604877F65C0809157041EC0CD
:10433000809157048D7F6AC0809156048F7E5AC049
:10434000809156048F7D56C0809156048F7B52C059
:104350000E94240D809156048F774CC080915604A2
:10436000877F8B7F47C0809157048D7F8E7F4EC0A3
:104370008091560482FB222720F991E0922790FB3E
:1043800082F990FB83F936C080915704982F90955D
:1043900091708E7F892B90FB81F938C080915604F3
:1043A00086FB222720F991E0922790FB86F922C014
:1043B0000E94240D8091560487FB222720F991E06A
:1043C000922790FB87F916C081E001C080E00E942F
:1043D00098131EC08091560484FB222720F991E097
:1043E000922790FB84F906C080915604982F9095EF
:1043F00090FB80F9809356040BC08091570483FB97
:10440000222720F991E0922790FB83F980935704AB
:1044100080915604909157040E9411130E94240D1C
:1044200080E001C081E0DF91CF910895A0E0B0E08D
:10443000ECE1F2E20C947230E82FF0E0EC52FC4F29
:10444000D490282F26952695269530E0F901EC5832
:10445000FB4F0491877010E0082E02C01595079558
:104460000A94E2F701701127F901EC59FB4FE4902F
:10447000F12C082E02C0F594E7940A94E2F791E03B
:10448000E922FF24F901EC5AFB4FC491D0E002C0AD
:10449000D595C7958A95E2F7C170DD2701151105FD
:1044A00019F081EE0E940A0AE114F10419F086EE77
:1044B0000E940A0A8D2D0E94B00AE114F10419F03D
:1044C00086EE0E94600A0115110519F081EE0E9426
:1044D000600ACD2B19F08CE20E94B00ACDB7DEB78E
:1044E000E7E00C948E30EF92FF920F931F93CF93DF
:1044F000DF93EC01162F0AE08881882309F455C068
:10450000813009F043C08981813041F47E0182E02D
:10451000E80EF11C8A810E94B00A09C0823049F479
:104520007E01E2E0EE0EF11C8A810E940A0AE70198
:104530002FC0833041F47E01F2E0EF0EF11C8A813E
:104540000E94600AF4CF843011F0219621C02A81A4
:10455000229680E090E030E0205331092A30310586
:1045600058F4089FA001099F500D1124C901840F20
:10457000951F21962881EFCF009751F0EFE9FFE0DA
:104580003197F1F700C000000197F6CF0E94162284
:104590002196812F882309F4AFCFEFE9FFE031970F
:1045A000F1F700C000008150F5CFCDB7DEB7E6E0EF
:1045B0000C948F3060E00E9473220895CF93DF93B4
:1045C00086319C4741F5EB010E94E911982F8D81BE
:1045D0002091AF013091B001882379F09A7A81E07F
:1045E00009F480E080932804911102C069E201C0BF
:1045F00065E3C9010E94DE240AC08091280481116C
:1046000002C069E201C065E3C9010E94EC240E9476
:104610003E1280E001C081E0DF91CF910895A0E0DB
:10462000B0E0E5E1F3E20C946F307C015B01C42F54
:10463000D22FFC0185818823B1F040932B040E9486
:10464000E82590932A048093290480E28C0F883017
:1046500008F052C0C77081E001C0880FCA95EAF720
:104660000E94BA0A49C080912B04481335C080913A
:10467000290490912A040E9400266C01B701C5010B
:104680000E94F006C816D90638F510E21D0FCD17A6
:10469000B9F080E28C0F883040F4C77081E001C02F
:1046A000880FCA95EAF70E94C10A183010F581E018
:1046B0009D2F977001C0880F9A95EAF70E94BA0A59
:1046C000802F0E94B00A1830B8F4D77081E001C082
:1046D000880FDA95EAF70AC080E28C0F883060F420
:1046E000C77081E001C0880FCA95EAF70E94C10A2D
:1046F00003C0802F0E94B00ACDB7DEB7EAE00C9469
:104700008B300F93FC01E851FC47E730F10590F541
:10471000CB01E756FF4F0C94613006E221EE41EEEB
:104720006AE17CE723C007E225EE45EE6BE17CE71A
:104730001DC006E221EE40EE68E17CE717C007E20B
:1047400025EE44EE69E17CE711C006E221EE42EE7F
:104750006CE17CE70BC007E225EE46EE6DE17CE7FD
:1047600005C008E221E045EE6EE17CE70E940F23E0
:1047700080E008C0FB018581882319F010922B048A
:1047800001C081E00F91089590933104809330042B
:104790000895E0913004F0913104309729F00190B0
:1047A000F081E02D0995089580E00895FC01A09125
:1047B0003004B0913104109791F08091C7018823A3
:1047C00041F08091560487FF04C08081818386E098
:1047D0008083CF011296ED91FC911397099508956E
:1047E000E0913004F0913104309739F022E0DC019F
:1047F0002C930480F581E02D09950895A3E0B0E0A5
:10480000E4E0F4E20C94773020912E0430912F04F0
:1048100028173907A1F090932F0480932E04E0917C
:104820003004F0913104309751F023E029839B83C9
:104830008A830680F781E02DCE01019609952396A3
:10484000E2E00C949330A3E0B0E0E9E2F4E20C94EF
:10485000773020912C0430912D0428173907A1F0CE
:1048600090932D0480932C04E0913004F091310456
:10487000309751F024E029839B838A830680F78157
:10488000E02DCE01019609952396E2E00C94933039
:10489000FC0132968091C701882331F08091560443
:1048A00087FF02C09EE101C096E080E0915028F0B1
:1048B00021912223D9F38F5FF9CF0895662351F117
:1048C0002091C7012223E9F02091560427FF19C047
:1048D000462F4695469546954E31E0F4677021E0A7
:1048E00030E002C0220F331F6A95E2F7FC01E40FAB
:1048F000F11D828190E02823392381E0232B69F484
:1049000009C0FC01329608962191621729F0E81738
:10491000F907D1F780E0089581E008959C01FC013A
:1049200032969FEF80E04191461789F09F3F19F43E
:10493000411101C0982F8F5F8630A9F79F3F39F052
:10494000F901E90FF11D97FDFA9562830895089525
:104950009C012A5F3F4FFC014281461301C0128235
:10496000019682179307B9F70895262F2695269565
:1049700026952E3168F4FC01E20FF11D677021E0ED
:1049800030E001C0220F6A95EAF78281282B22834A
:104990000895262F2695269526952E3170F4FC0134
:1049A000E20FF11D677021E030E001C0220F6A952F
:1049B000EAF7209582812823228308952091C70158
:1049C000222339F02091560427FF03C00E94B5240A
:1049D00008950E948E2408952091C701222339F062
:1049E0002091560427FF03C00E94C92408950E9405
:1049F000A82408952091C701FC013296222331F0AA
:104A00008091560487FF02C08EE101C086E0DF017D
:104A10001D928A95E9F70895DC01FB0111969C919E
:104A200011978181981321C012968C911297882337
:104A300019F09281891319C013968C9113978823CA
:104A400019F09381891311C015968C9115978823BD
:104A500019F09581891309C014969C91992339F016
:104A600081E02481291304C002C081E001C080E0FC
:104A70008170089508950E943A25089583E08093F7
:104A800032040E943B250895811102C081E001C0DB
:104A900082E0809332040E943B2508950E944425C1
:104AA000089581E0809332040E943B2508950E947E
:104AB0005125089508950E945A2508950E945B2566
:104AC00008950E945A2508950E945A2508950E942B
:104AD0005A250895CF930E9464250E94BC170E9416
:104AE0006125C0E08C2F0E94E816892B29F4CF5F46
:104AF000C430C1F780E001C081E0CF91089585B74F
:104B0000806885BF85B7806885BF08951F920F9222
:104B10000FB60F9211248F939F93AF93BF93809101
:104B20003304811113C080911B0590911C05A09145
:104B30001D05B0911E054196A11DB11D80931B0559
:104B400090931C05A0931D05B0931E05BF91AF91D6
:104B50009F918F910F900FBE0F901F90189580918D
:104B60002305843031F10E944D091092330420E472
:104B700088E190E00FB6F894A895809360000FBE8E
:104B80002093600083B7817F846083BF83B7816097
:104B900083BF7894889583B78E7F83BF0FB6F894D0
:104BA000A8958091600088618093600010926000F9
:104BB0000FBE08950E94240D0E945709089582E0B7
:104BC00084BD93E095BD9AEF97BD80936E000895E4
:104BD0002FB7F89480911B0590911C05A0911D059D
:104BE000B0911E052FBF08952FB7F89460911B0553
:104BF00070911C0580911D0590911E052FBF089591
:104C00009C014FB7F89480911B0590911C05A091D1
:104C10001D05B0911E054FBF821B930B0895CF92C7
:104C2000DF92EF92FF922FB7F894C0901B05D090BF
:104C30001C05E0901D05F0901E052FBFA7019601F1
:104C4000261B370B480B590BCA01B901FF90EF9097
:104C5000DF90CF90089578941F920F920FB60F9225
:104C600011248F939F93AF93BF9380911B059091D5
:104C70001C05A0911D05B0911E050196A11DB11D39
:104C800080931B0590931C05A0931D05B0931E05F2
:104C9000BF91AF919F918F910F900FBE0F901F907A
:104CA000189581E08093E00080E28093D800109214
:104CB000C9008FE19EE40197F1F700C0000087E092
:104CC00090EBDC0180932C0590932D05A0932E058D
:104CD000B0932F059CE088E10FB6F894A8958093D7
:104CE00060000FBE90936000FFCF9CE088E10FB69C
:104CF000F894A895809360000FBE90936000FFCF5A
:104D00008091540408959B01909123059430F1F40F
:104D10008F708093E9008FEF9091E800815095FDAE
:104D200006C095ED9A95F1F700008111F5CF8091BD
:104D3000E80085FF0BC0BA01C90140E050E00E94C5
:104D400093288091E8008E778093E800089543E0EF
:104D500050E0BC0182E00E948326089546E050E0C6
:104D6000BC0182E00E9483260895CF93DF93EC017B
:104D70008091C701811105C048E050E0BE0181E08B
:104D80000BC08091560487FF03C040E282E002C05E
:104D900048E081E050E0BE010E94832680E2FE01EF
:104DA000A4E3B4E001900D928A95E1F7DF91CF91F1
:104DB000089580912205811109C00E941E2A0E9437
:104DC0007B2A8091E20084608093E2000895109233
:104DD000220508950E945725089560911F0581E0DE
:104DE000611101C080E00E943E2508959091230545
:104DF00081E0943009F080E060911F050E94442515
:104E0000089542E061EC81E00E94972942E261EC62
:104E100082E00E9497299091230581E0943009F067
:104E200080E060911F050E944E2508958091250520
:104E3000833009F461C030F4813071F0823009F4BC
:104E40009BC008958A3009F487C08B3009F46CC088
:104E5000893009F0A9C020C080912405813A09F069
:104E6000A3C08091E800877F8093E80080912805A7
:104E700090912905892B21F460E284E394E003C03A
:104E800060E080E090E070E00E94D8288091E80027
:104E90008B778093E800089580912405813209F092
:104EA00083C08091280590912905029708F07CC065
:104EB0008091E800877F8093E8008091E80082FD80
:104EC00005C0809123058111F8CF6EC02091F300B9
:104ED0008091F20090E0922B029731F48091F100E2
:104EE000813011F0863021F48091F10080935404D8
:104EF0008091E8008B7754C080912405813A09F0B5
:104F000053C08091280590912905892B09F04CC048
:104F10008091E800877F8093E8008091E80080FF1F
:104F2000FCCF8091C70137C0809124058132E1F523
:104F30008091280590912905892BB1F58091E80091
:104F4000877F8093E8000E94CC298091260580937A
:104F5000C7010E94240D089580912405813221F516
:104F60008091E800877F8093E8000E94CC2980919F
:104F7000270580935504089580912405813AA1F472
:104F80008091E800877F8093E8008091E80080FFAF
:104F9000FCCF809155048093F1008091E8008E77DA
:104FA0008093E8000E94CC29089584B7877F84BF4E
:104FB0000FB6F894A8958091600088618093600096
:104FC000109260000FBE90E080E80FB6F8948093D6
:104FD0006100909361000FBE0E94512508950E94C8
:104FE0001E2A0E947B2AE2EEF0E0808184608083AA
:104FF00078940E94062D08958FEB91E00E94C423BF
:105000000895809123058530A9F48091230585308A
:1050100079F40E94AF25809121058823B1F30E9485
:105020006A25882391F30E947D280E94240DEDCFEC
:105030000E94DA25089508959A0140912A05509119
:105040002B050E9424280895492F552743305105E8
:10505000C9F060F44130510581F04230510509F04A
:1050600044C08BE390E04AEA54E043C0413251052A
:10507000E1F04232510549F138C082E190E045EE5D
:1050800054E037C099278130910549F028F0029704
:1050900061F5E4E8F4E005C0E6EAF4E002C0E2E924
:1050A000F4E0849190E0AF0124C06115710541F0F6
:1050B00061307105D1F489E090E045ED54E019C00C
:1050C00089E090E04CEB54E014C06115710541F0AB
:1050D0006130710551F486EB90E047EF54E009C070
:1050E00084E490E04DEA55E004C080E090E040E0C8
:1050F00050E0F90151834083089580E189BD82E148
:1051000089BD09B400FEFDCF8091D8008F7D8093CA
:10511000D8008091E00082608093E0008091E00000
:1051200081FDFCCF0895A0E0B0E0E9E9F8E20C943D
:105130007130EC018B017A010E94EB29811133C09F
:10514000E114F10439F0F70180819181081B190BFA
:10515000C80FD91FC12CD12C0115110519F180914F
:10516000E80085FD16C08091E8008E778093E80006
:10517000E114F10449F0F70180819181C80ED91E34
:10518000D182C08285E00FC00E94EB29882321F3E1
:105190000AC089918093F10001501109FFEFCF1AE5
:1051A000DF0ADACF80E0CDB7DEB7E8E00C948D30CF
:1051B00020912A0530912B052617370748F06115F5
:1051C000710539F42091E8002E772093E80001C0A2
:1051D000B901FC0120E06115710579F18091230589
:1051E0008823F1F18530F1F18091E80083FD3CC026
:1051F0008091E80082FD2EC08091E80080FFEBCF17
:105200002091F3008091F20090E0922B61157105DE
:1052100051F08830910538F421912093F1006150CC
:1052200071090196F3CF21E0089709F020E0809101
:10523000E8008E778093E800CECF2111CFCF0AC04F
:1052400080912305882361F0853061F08091E8002A
:1052500083FD0AC08091E80082FFF2CF80E00895CC
:1052600082E0089583E0089581E0089520912A0561
:1052700030912B052617370748F06115710539F471
:105280002091E8002E772093E80001C0B901FC01CD
:1052900020E06115710591F180912305882309F4BF
:1052A00040C0853009F43FC08091E80083FD3DC0D7
:1052B0008091E80082FD2FC08091E80080FFE9CF57
:1052C0002091F3008091F20090E0922B611571051E
:1052D00059F08830910540F424912093F1003196E3
:1052E000615071090196F2CF21E0089709F020E0A2
:1052F0008091E8008E778093E800CBCF2111CCCF4E
:105300000AC080912305882361F0853061F0809187
:10531000E80083FD0AC08091E80082FFF2CF80E0C0
:10532000089582E0089583E0089581E00895982F1C
:10533000973068F59093E900981739F07091EC0078
:105340002091ED005091F00003C0242F762F50E003
:1053500021FD02C09F5FECCF3091EB003E7F309388
:10536000EB003091ED003D7F3093ED003091EB008C
:1053700031603093EB007093EC002093ED0050937C
:10538000F0002091EE0027FDE5CF80E008958F70BA
:105390008093E90081E008958091240587FF11C082
:1053A0008091E80082FD05C0809123058111F8CF2E
:1053B00011C08091E8008B770BC080912305882372
:1053C00049F08091E80080FFF8CF8091E8008E7767
:1053D0008093E80008952091E4003091E50095E67F
:1053E0004091EC00842F817040FF23C08091E80041
:1053F00080FD1DC080912305882399F0853099F0A8
:105400008091EB0085FD11C04091E4005091E500D2
:105410002417350729F3915011F09A01E1CF84E068
:10542000089582E0089583E0089581E0089580E082
:1054300008954091E80042FFDDCF08950E948D2A33
:105440000E94952AE0EEF0E0808181608083E8EDA3
:10545000F0E080818F77808319BCA7EDB0E08C915C
:105460008E7F8C9380818F7E808310922205089599
:105470000F931F93CF93DF930E948D2A0E94952A4A
:10548000C8EDD0E088818F778883888180688883A1
:1054900088818F7D888319BC1092230510921F0587
:1054A000109221051092200500EE10E0F801808195
:1054B0008B7F808388818160888342E060E080E028
:1054C0000E949729E1EEF0E080818E7F8083E2EEFA
:1054D000F0E0808181608083808188608083F80132
:1054E00080818E7F8083888180618883DF91CF91E6
:1054F0001F910F910895E8EDF0E080818F7E808309
:10550000E7EDF0E080818160808384E082BF81E00C
:10551000809322050E94382A0895E8EDF0E080810A
:105520008E7F80831092E20008951092DA0010922C
:10553000E10008951F920F920FB60F9211242F933E
:105540003F934F935F936F937F938F939F93AF930B
:10555000BF93EF93FF938091E10082FF0BC0809196
:10556000E20082FF07C08091E1008B7F8093E10021
:105570000E94052D8091DA0080FF1FC08091D80025
:1055800080FF1BC08091DA008E7F8093DA008091CB
:10559000D90080FF0DC080E189BD82E189BD09B4D9
:1055A00000FEFDCF81E0809323050E94D92605C02F
:1055B00019BC109223050E94E7268091E10080FF2C
:1055C00019C08091E20080FF15C08091E2008E7FBB
:1055D0008093E2008091E20080618093E2008091FC
:1055E000D80080628093D80019BC85E080932305A1
:1055F0000E94ED268091E10084FF30C08091E2009E
:1056000084FF2CC080E189BD82E189BD09B400FE20
:10561000FDCF8091D8008F7D8093D8008091E100EC
:105620008F7E8093E1008091E2008F7E8093E20084
:105630008091E20081608093E20080911F058823C1
:1056400011F084E007C08091E30087FD02C081E093
:1056500001C083E0809323050E94F6268091E1003B
:1056600083FF29C08091E20083FF25C08091E10083
:10567000877F8093E10082E08093230510921F05CD
:105680008091E1008E7F8093E1008091E2008E7F27
:105690008093E2008091E20080618093E20042E02A
:1056A00060E080E00E9497298091F00088608093FC
:1056B000F0000E94EA26FF91EF91BF91AF919F9178
:1056C0008F917F916F915F914F913F912F910F90AB
:1056D0000FBE0F901F9018951F920F920FB60F924A
:1056E00011242F933F934F935F936F937F938F93E7
:1056F0009F93AF93BF93CF93DF93EF93FF93C091AB
:10570000E900CF708091EC00D82FD17080FDD0E8F7
:105710001092E9008091F000877F8093F0007894E8
:105720000E94B02B1092E9008091F0008860809375
:10573000F000CD2BCF70C093E900FF91EF91DF9186
:10574000CF91BF91AF919F918F917F916F915F9119
:105750004F913F912F910F900FBE0F901F90189572
:10576000AAE2B0E0E6EBFBE20C947630E4E2F5E08E
:105770008091F100819325E0EC32F207C9F70E9495
:1057800016278091E80083FF2EC180912405909117
:105790002505492F50E04A30510508F024C1FA018F
:1057A000E056FF4F0C946130803821F0823809F0C8
:1057B0001AC108C08091200590912105992389F094
:1057C00082600FC0809128058F70873008F00BC170
:1057D0008093E9008091EB0085FB882780F9109287
:1057E000E9009091E800977F9093E8008093F100A2
:1057F0001092F100D1C0282F2D7F09F0F4C088232A
:1058000019F0823061F0EFC080912605813009F0F7
:10581000EAC0933009F080E0809321052EC080918A
:10582000260581112AC0809128058F702FEF280F3F
:10583000263008F0D8C08093E9002091EB0020FFCB
:105840001CC0933021F48091EB00806214C09091D1
:10585000EB0090619093EB0021E030E0A90102C0E1
:10586000440F551F8A95E2F74093EA001092EA0030
:105870008091EB0088608093EB001092E9008091AA
:10588000E800877F8093E8000E94CC29ACC081119A
:10589000AAC0109126051F778091E3008078812BA4
:1058A0008093E3008091E800877F8093E8000E9466
:1058B000CC298091E80080FFFCCF8091E3008068D4
:1058C0008093E300111102C082E001C083E0809365
:1058D000230589C08058823008F085C08091260554
:1058E000909127058C3D53E0950779F583E08A83F5
:1058F0008AE289834FB7F894DE01139620E03EE0F8
:1059000051E2E32FF0E050935700E49120FF03C0F1
:10591000E295EF703F5FEF708E2F90E0EA3010F06D
:10592000C79601C0C0968D939D932F5F243149F790
:105930004FBF8091E800877F8093E8006AE270E0C3
:10594000CE0101960E94D82816C06091280570915A
:105950002905AE014F5F5F4F0E941C28BC01892BB7
:1059600009F441C09091E800977F9093E800898105
:105970009A810E9436298091E8008B778093E80015
:1059800032C0803881F58091E800877F8093E800FD
:1059900080911F058093F1008091E8008E7772CF8F
:1059A000811121C0809126059091270599270297A2
:1059B000D4F48091E800877F8093E80080912605E9
:1059C00080931F050E94CC2980911F05811106C07C
:1059D0008091E30087FD02C081E001C084E08093F4
:1059E00023050E9401278091E80083FF0AC080916F
:1059F000E800877F8093E8008091EB0080628093CD
:105A0000EB00AA96E3E00C9492300895CF93809136
:105A100023058823A1F0C091E900CF709091EC009C
:105A2000892F817090FD80E8C82B1092E900809149
:105A3000E80083FD0E94B02BCF70C093E900CF91A6
:105A400008955058BB27AA270E94392D0C944C2F3B
:105A50000E943E2F38F00E94452F20F039F49F3FDE
:105A600019F426F40C943B2F0EF4E095E7FB0C940C
:105A7000272FE92F0E945D2F58F3BA17620773078B
:105A80008407950720F079F4A6F50C947F2F0EF487
:105A9000E0950B2EBA2FA02D0B01B90190010C013E
:105AA000CA01A0011124FF27591B99F0593F50F456
:105AB000503E68F11A16F040A22F232F342F4427AE
:105AC000585FF3CF469537952795A795F0405395A6
:105AD000C9F77EF41F16BA0B620B730B840BBAF076
