:100000000C94D5020C940D030C940D030C940D0369
:100010000C940D030C940D030C940D030C940D0320
:100020000C940D030C940D030C94B12E0C94842F9E
:100030000C949A290C940D030C940D030C940D034D
:100040000C940D030C940D030C940D030C940D03F0
:100050000C940D030C94522A0C940D030C940D0374
:100060000C940D030C940D030C940D030C940D03D0
:100070000C940D030C940D030C940D030C940D03C0
:100080000C940D030C940D030C940D030C940D03B0
:100090000C940D030C940D030C940D030C940D03A0
:1000A0000C940D030C940D030C940D032900140003
:1000B0001A000800150017001C0018000C001200A0
:1000C00013002E002B0004001600070009000A0090
:1000D0000B000D000E000F0000002800067E1D0022
:1000E0001B0006001900050011001000360000007A
:1000F00037004C00E000E300E2002C41000000006B
:100100002C420000000038002D002D0201004A00A2
:1001100052004D002F003000010001002402310286
:10012000417E01000100500051004F0026022702CD
:10013000010001003300340000002A000100027EAB
:10014000037E047E057E010001000100E200000044
:100150000100010001000100010001000000000099
:100160002C430000000001000100010001001E00FE
:100170001F0020000100010001000100010001003A
:1001800001000100270021002200230001000100DE
:10019000010001003300340000002A0001002400A7
:1001A00025002600010001000100010001000000FF
:1001B000010001000100010001002C4300000000CB
:1001C0000100000000000100010001005F7ED1007D
:1001D000CD00D2003A003B003C00010001000100CC
:1001E0000100007C0100CF00CE00D0003D003E00A9
:1001F0003F000100010001000000007E0100D90065
:10020000D300DA00400041004200430004520000E5
:100210004500010001000100010001000000000094
:10022000010000000000597E5A7E20781E00060062
:100230001A000800150017003E003D003C003B007E
:100240003A0029001F0004001600070009000A00F8
:10025000000000000000000000002800E100140081
:1002600021001B00050005000000000000520000F6
:100270005200E100E000E20020002C00000000003D
:10028000017E00000000500051004F0000010101FC
:100290000101010101010202020202020202020343
:1002A0000303030303030304040404040404050513
:1002B00005050506060606060707070707080808D6
:1002C00008090909090A0A0A0B0B0B0C0C0C0D0D85
:1002D0000D0E0E0E0F0F0F1010111111121213131D
:1002E0001414151516161717181819191A1A1B1B96
:1002F0001C1D1D1E1E1F20202122222324242526F2
:1003000026272829292A2B2C2D2D2E2F3031323229
:10031000333435363738393A3B3C3D3E3F40414235
:10032000434445464748494A4C4D4E4F505153541B
:10033000555658595A5B5D5E5F61626465666869CF
:100340006B6C6D6F7072737577787A7B7D7E80824F
:10035000838587888A8C8E8F91939596989A9C9E98
:10036000A0A2A3A5A7A9ABADAFB1B3B5B7BABCBEA8
:10037000C0C2C4C6C9CBCDCFD1D4D6D8DBDDDFE275
:10038000E4E7E9EBEEF0F3F5F8FAFDFF000000001A
:10039000000000002A2B28000000000000000000E0
:1003A0000000000000000029000000002C1E342086
:1003B000212224342627252E362D3738271E1F20AC
:1003C0002122232425263333362E37381F040506F1
:1003D0000708090A0B0C0D0E0F1011121314151635
:1003E0001718191A1B1C1D2F3130232D3504050633
:1003F0000708090A0B0C0D0E0F1011121314151615
:100400001718191A1B1C1D2F3130354C0000000025
:1004100000000000000000000000000000000000DC
:1004200000000000000000000000000000000000CC
:100430007E0F00D4FFFFFFC7000000780C034600CA
:1004400065006200340030000000120366006500A1
:1004500062007200650065007A0065000000040318
:10046000090409023B00020100A0FA09040000018E
:100470000301010009211101000122440007058147
:100480000308000109040100010300000009211113
:1004900001000122B60007058203200001120100BD
:1004A0000200000008646942000001010200010529
:1004B000010902A10185020901A10005091901290B
:1004C000081500250195087501810205010930090B
:1004D000311581257F95027508810609381581251A
:1004E0007F950175088106050C0A38021581257F64
:1004F000950175088106C0C005010980A101850329
:1005000019012AB700150126B70095017510810061
:10051000C0050C0901A101850419012AA0021501D9
:1005200026A002950175108100C005010906A101F0
:100530008506050719E029E71500250195087501CD
:1005400081020507190029EF1500250195F07501B5
:10055000810205081901290595057501910295018A
:1005600075039101C005010906A101050719E029DC
:10057000E71500250195087501810295017508812F
:10058000010507190029FF150026FF0095067508CB
:10059000810005081901290515002501950575013A
:1005A0009102950175039101C00011241FBECFEF88
:1005B000DAE0DEBFCDBF04B603FE18C080910F05A0
:1005C00090911005A0911105B09112058730904BC4
:1005D000A740B04B59F410920F05109210051092DD
:1005E000110510921205E0E0F8E3099512E0A0E091
:1005F000B1E0ECEDFAE602C005900D92AE37B1071E
:10060000D9F725E0AEE7B2E001C01D92AF30B207E6
:10061000E1F70E94AA1B0C9410350C9400000E9474
:100620005915282F217191E009F490E0990F21E0EC
:10063000811120E0922B282F220F220F2470922B61
:1006400084FB222720F9220F220F220F922B21E078
:10065000382F347409F420E02295207F922B82FBFE
:10066000222720F92295220F207E922B282F2074FA
:10067000922B21E0382F387809F420E027952227A3
:100680002795922B90931003982F991F9927991FC4
:10069000990F83FB222720F9922B21E0382F327209
:1006A00009F420E0220F220F922B81FB222720F950
:1006B000220F220F220F922B85FB882780F982952B
:1006C000807F892B90911103907E892B8093110359
:1006D00080911003909111030895FC01E05EF109EF
:1006E000E830F105B0F5EE5EFA4C0C946B34809175
:1006F000100360FB82F960FB81F980931003089579
:100700008091100360FB83F9F6CF8091110360FBA9
:1007100080F9809311038091100360FB87F9EDCF7E
:100720008091110360FB81F9F4CF8091100360FB8D
:1007300085F960FB84F9E1CF8091100360FB86F9B5
:10074000F8CF8091110360FB83F960FB82F98093FD
:10075000110308958091110360FB84F9F6CF982F5F
:10076000862F992319F00E945C1508950E94621546
:1007700008950F931F93CF93DF9300E113E0F801E7
:10078000808161E082FB882780F90E94AF03F80135
:10079000808160E183FB882780F90E94AF03C1E17B
:1007A000D3E0888168E081700E94AF03888160E8AF
:1007B000869581700E94AF03F801808164E085FB1B
:1007C000882780F90E94AF03F801808160E486FBEE
:1007D000882780F90E94AF03888162E083FB882725
:1007E00080F90E94AF03888160E2829581700E9447
:1007F000AF03DF91CF911F910F910895FB018F35CA
:100800009E4789F42581222361F080911303082EED
:10081000000C990B019662E070E00E941634809300
:100820001303822F089520E0FCCFCF92DF92FF9236
:100830000F931F93CF93DF93F82E092F6B018091B5
:100840000001909101010E94490BEC01892BE9F014
:1008500088818823D1F0F6011581112369F08F2D4D
:10086000902F0E94D80B80910001909101010E946D
:10087000D80BCE010E94F526812FDF91CF911F91D9
:100880000F91FF90DF90CF90089510E0F5CFFF9289
:100890000F931F93CF93DF93F82E092FFB01218134
:1008A000C0818C2F90E0EC01CC0FDD1FC80FD91F49
:1008B00084E2289FC00DD11D1124C058DD4F18813E
:1008C0008581882331F1111131C010911203112358
:1008D000D1F081E0888380910001909101019A8399
:1008E000898360E08F2D902F0E946D0361E08981E4
:1008F0009A810E946D038F2D902F0E94D80B8981C1
:100900009A810E94C20B812FCDB7DEB7E5E00C942F
:100910009A341123C1F3188289819A810E94D80BDD
:1009200060E089819A810E946D03EDCF10E0EBCFEA
:10093000EF92FF920F931F93CF93DF938C017B0174
:100940000E94FE03C82F81116DC0C801905281150D
:10095000904328F4F7018681807F09F451C01092FA
:10096000120310930101009300010E940F03909362
:100970001103809310038FEF0E946215F7016581C8
:10098000C8010E946D036091100370911103809162
:100990000001909101010E94290AEC018F3F980704
:1009A00021F0909301018093000140911303042EE4
:1009B000000C550B609110037091110380910001A0
:1009C000909101010E94CD0A9C012F3F320721F036
:1009D0003093010120930001C223D32381E0CF3F54
:1009E000DC0709F480E080931203219679F080916E
:1009F000000190910101892B49F4C1E00E94B903E3
:100A00008C2FCDB7DEB7E6E00C949934B701C8015E
:100A10000E9415048111F1CFB701C8010E9447045B
:100A2000C82FECCFC0E0ECCF809100019091010184
:100A30000895ABE0B0E0EFE1F5E00C947134698724
:100A40004D83282F30E050E040E029833A834B83E8
:100A50005C83CA01B9010E94403220E030E04FE7D8
:100A600053E469837A838B839C8369817A818B8148
:100A70009C810E949D315B016C019985892F90E0DA
:100A8000B0E0A0E089839A83AB83BC83BC01CD0135
:100A90000E94403220E030E04FE753E469837A83DC
:100AA0008B839C8369817A818B819C810E949D319B
:100AB0003B014C013D81232F30E050E040E0298391
:100AC0003A834B835C83CA01B9010E94403220E023
:100AD00030E04FE753E469837A838B839C83698199
:100AE0007A818B819C810E949D311B012C019B018D
:100AF000AC0169827A828B829C8269817A818B8146
:100B00009C810E947B329B01AC01A982BA82CB827C
:100B1000DC8269817A818B819C810E947B328B018E
:100B20008B879A879101A20169827A828B829C824B
:100B300069817A818B819C810E949A329B01AC01F0
:100B4000A982BA82CB82DC8269817A818B819C8185
:100B50000E949A329B01AC0109831A838B858B8397
:100B60009A859C8369817A818B819C810E942B313B
:100B70007B018983998720E030E0A9016D83FE82A3
:100B80008F8398876D817E818F8198850E949831AF
:100B9000882309F433C198014B855A85AD82BE8202
:100BA000CF82D8866D817E818F8198850E94983111
:100BB0008111BBC09101A2016D827E828F829886D5
:100BC0006D817E818F8198850E942B3197014981AB
:100BD00059856D837E838F8398876D817E818F8118
:100BE00098850E949D3120E030E040EC50E46D8318
:100BF0007E838F8398876D817E818F8198850E9407
:100C0000C43220E030E040E752E46D837E838F837E
:100C100098876D817E818F8198850E9495335B01D5
:100C20006C0120E030E0A9010D831E83AB85AF830A
:100C3000BA85B8876D817E818F8198850E949831B1
:100C4000882309F4E0C098014B855A85ED82FE8225
:100C500089818F83998598876D817E818F81988521
:100C60000E949D314B017C0120E030E04FE753E4CE
:100C7000A982BA82CB82DC8269817A818B819C8154
:100C80000E94953320E030E044EB53E469837A839B
:100C90008B839C8369817A818B819C810E949D31A9
:100CA00069837A838B839C8369817A818B819C8120
:100CB0000E940F32D62E20E030E04FE753E48982C5
:100CC0009A82EB82FC8269817A818B819C810E946D
:100CD000953369837A838B839C8369817A818B8145
:100CE0009C810E940F32F62E20E030E04FE753E463
:100CF00009831A83AB85AB83BA85BC8369817A810A
:100D00008B819C810E94953369837A838B839C833A
:100D100069817A818B819C810E940F32862F6D2D93
:100D20007F2D2B96E2E10C948D3498014B855A85EA
:100D30006D827E828F8298866D817E818F8198857B
:100D40000E949831811128C09501A6012D823E8212
:100D50004F8258866D817E818F8198850E942B31CC
:100D60009701498159856D837E838F8398876D8133
:100D70007E818F8198850E949D3120E030E040E0A7
:100D800050E46D837E838F8398876D817E818F8110
:100D900098850E942C3135CF98014B855A852D823C
:100DA0003E824F8258866D817E818F8198850E9418
:100DB000983181111EC09301A401AD82BE82CF8201
:100DC000D8866D817E818F8198850E942B31970115
:100DD000498159856D837E838F8398876D817E815C
:100DE0008F8198850E949D3120E030E040E850E4FA
:100DF000C8CF60E070E080E090E003CFA12CB12C80
:100E0000C12CD12C0ECF812C912CE12CF12C2CCF8C
:100E10008093170360931603409315030E941905EE
:100E2000962F672F482F892F90E00E94C6200895A3
:100E300080E40E9431210E9474200E9462208091EF
:100E40001803882351F083E00E94922080E00E94E2
:100E50002C1183E00E942C11089582E0F5CF80913F
:100E6000B0018823B9F180913703909138030E9433
:100E7000060D843089F520E040E060E088E190E0F4
:100E80000E945A1D2091150340911603609117038B
:100E900087E290E00E945A1D2091150340911603AD
:100EA000609117038CE190E00E945A1D2091150378
:100EB00040911603609117038BE190E00E945A1D48
:100EC0002091150340911603609117038AE190E089
:100ED0000E945A1D81E008958091180320E040E0AF
:100EE00060E0811117C020911503409116036091B5
:100EF000170380911303813069F487E190E00E9429
:100F00005A1D20911503409116036091170389E142
:100F100090E0DECF88E190E0DBCF833089F040F4D1
:100F2000813089F0823099F04FEF60E088E805C0A9
:100F300045E06BE38430C1F78FEF0E940807089506
:100F400040E06FE6F9CF4AE46FEF83E0F6CF4FEF72
:100F50006BE385E0F2CF1F93CF93DF93182FD92F48
:100F60000E94060DC82F809114038C1729F08C2F36
:100F70000E948D07C0931403812F9D2FDF91CF9185
:100F80001F91089580E00E948D070E94180780E05D
:100F90000E942C110895CF939C01FB01C581CC23A5
:100FA00079F089559E470297A8F429353E4759F4B0
:100FB0008091180391E08927809318030E941807F5
:100FC0008C2FCF9108958091B00191E08927809373
:100FD000B001F4CFC0E0F4CF9C018091B101843026
:100FE00009F457C04091B2018091B30140FB81F9EF
:100FF000203E310509F44EC08091B30140FB83F9D6
:10100000233E310509F446C08091B30140FB82F9CB
:10101000223E310509F43EC09091B3019E7051E02B
:1010200009F450E08091B30150FB84F98093B3013F
:1010300040FF33C02B32310561F580FD2AC0992372
:1010400041F1909113039130E1F482FF0BC082EEE5
:1010500090E00E94D80B84E00E94621583EE90E03D
:101060000E94C20B8091B30183FF0BC083EE90E01E
:101070000E94D80B88E00E94621580EE90E00E94EA
:10108000C20B81E00E942C118091B301816080939A
:10109000B30108958093B301BFCF80FFFACF809151
:1010A00013038130B9F4223E310559F0233E310556
:1010B00089F480EE90E00E94D80B8091B301877F85
:1010C00007C083EE90E00E94D80B8091B3018B7F24
:1010D0008093B3018091B3018E7091E009F490E0A8
:1010E0008091B30190FB84F98093B30184FDD1CF4B
:1010F00080E00E942C118091B3018E7FC8CF9C01AB
:101100002C3283E4380781F050F42C3281E4380724
:1011100059F081E02C32324431F080E0089581E0D2
:1011200021153C47D1F7089581E0FDCFCF93813061
:101130009E4721F0C0E08C2FCF910895C091B2015D
:10114000C1708091BB01C0FB80F98093BB01CC23AF
:1011500089F384608093BB018091B7019091B801BD
:101160000E94232A9093BA018093B9010E94FA2920
:101170009093B8018093B7011092B4012091B90106
:101180003091BA018091B5019091B60128173907C5
:1011900090F681E08093B401CECF8091BB0182FFB5
:1011A00021C080FD20C081FF1DC08B7F8093BB01CB
:1011B0008BE290E00E94D80B89E390E00E94D80B6C
:1011C0008091BB0183FF09C089E390E00E94080C75
:1011D0008091BB01877F8093BB018091BB018D7F94
:1011E0008093BB01089581FDFDCF8091B4018111F1
:1011F00009C08BE290E00E94C20B8091BB01877F07
:101200008093BB018091B401813049F489E390E07F
:101210000E94C20B8091BB0188608093BB018091CA
:10122000BB018260DDCF0F931F93CF93DF93EC015F
:101230008091B101843041F4C430D10559F004E00B
:1012400010E0C730D10541F080E0DF91CF911F91D0
:101250000F91089507E010E08091BC019091BD01CD
:101260002091B20120FF18C0C817D90799F0009744
:1012700011F00E94D80B8091BC019091BD01909318
:10128000BF018093BE01D093BD01C093BC01CE01CC
:101290000E94C20B81E0D9CFC817D907D1F4CE0183
:1012A0000E94D80B8091BE019091BF0180179107D9
:1012B00019F4C8010E94C20B8091BE019091BF0138
:1012C0009093BD018093BC011092BF011092BE01AA
:1012D000E1CF8091BE019091BF018C179D07D1F69F
:1012E000F3CF86309E4701F50E94FA299093C401FE
:1012F0008093C3019091B2018091C00190FB80F96D
:101300008093C00180FF0BC08091C1019091C20108
:1013100001969093C2018093C10181E0089581EE0E
:1013200090E00E94D80BF9CF80E008958091C3012E
:101330009091C4010E94232A4091C00140FD11C038
:10134000853B910560F08091C1019091C201181612
:1013500019062CF401979093C2018093C10140FFBC
:1013600013C08091C1019091C201029749F480E1BC
:101370009FE00E94080C1092C2011092C1010895D2
:1013800081EE90E00E94C20B08950E94C20708956A
:101390000E94CD080E9496090895EF92FF920F9344
:1013A0001F93CF93DF93182FD92F7B0180913703A1
:1013B000909138030E94060D8093B1018091B20193
:1013C000F701958190FB80F98093B201812F9D2FC9
:1013D0000E947F08C82F811127C0B701812F9D2F40
:1013E0000E949804082F0E941405182FD92F0E94DC
:1013F0001309811119C0812F9D2F0E949608811118
:1014000013C0812F9D2F0E94710981110DC0B7015A
:10141000812F9D2F0E94CB07811106C0C1E0C027FC
:10142000812F9D2F0E94EC078C2FCDB7DEB7E6E011
:101430000C9499349C012C3282E4380721F03D7FD2
:101440002C32314419F48EE690E0089584EB90E05C
:1014500008958932910539F464FD96C072FF9AC0EF
:1014600085E390E008958832910529F472FF92C0D7
:101470008AE290E0089581152EE7920709F487C06B
:101480008433910539F472FD87C060FF83C084E323
:1014900092E008958D3222E0920719F472FF7AC02B
:1014A00008958E32910529F472FF74C082E49EE79C
:1014B00008958F32910529F472FF6CC086E392E0A3
:1014C00008958033910529F472FF64C087E392E0A8
:1014D0000895863222E0920729F472FF5BC08FE202
:1014E00092E00895873222E0920729F472FF52C0F9
:1014F00080E392E00895843222E0920729F472FF9B
:1015000049C080E49EE70895813322E0920729F4E0
:1015100072FF40C08FE19EE708958633910529F45C
:1015200072FF38C08EE192E008958733910529F467
:1015300072FF30C088E392E008958833910529F462
:1015400072FF28C081E390E008958A34910529F460
:1015500061FF20C08BE490E008958D34910529F45B
:1015600061FF18C08EE490E008958632910529F459
:1015700072FF10C085E392E008958D9759F472FFD1
:1015800009C087E590E008958BE290E0089588E235
:1015900092E108958FEF9FEF08959C01413051052E
:1015A00009F057C0833E910509F461C0B8F48F3447
:1015B000910559F150F48A349105E9F18D34910582
:1015C00009F442C08FEF9FEF08958035910541F1F6
:1015D000803E9105B9F783EE90E0089524308EE7C0
:1015E000380709F447C058F422308EE7380709F469
:1015F00044C023303E4731F78BE198E00895253011
:101600003E4701F789E198E008958091B30180FD9C
:10161000D9CF67FFD7CF72FD33C08FE494E0089530
:101620008091B30180FDCECF67FFCCCF72FD2BC080
:1016300080E594E008958091B30180FD27C067FFA5
:10164000C1CF8BE490E0089567FFBCCF8EE490E0BB
:10165000089522503E472430310508F0B3CF220FC1
:10166000331FF901EF50FE4F80819181089580EE84
:1016700090E0089586E098E008958DE198E008955F
:101680008FE496E0089580E596E0089584E198E07F
:1016900008959C012F318EE7380771F020348EE7D2
:1016A000380769F021348EE7380761F022343E476D
:1016B00061F48EEE91E0089588EE91E0089585EE54
:1016C00091E008958BEE91E0089587EE91E0089502
:1016D0008530B8F46430A8F44C3098F4E42FF0E08E
:1016E0009CE0699FE00DF11D112490E3899FE00DBE
:1016F000F11D1124EE0FFF1FE455FF4F85919491CA
:10170000089581E090E008950E94680B08959C017F
:101710009A9581159F4150F5D901AA27B170F90119
:10172000EE27F270B90166277470A901442758703A
:1017300034FF0EC080E1AB2B09F480E0EF2B09F001
:101740008062672B09F08064452B89F080680895DA
:1017500081E0AB2B09F480E0EF2B09F08260672B6E
:1017600009F08460452B19F08860089580E00895A1
:10177000CF93DF93EB010E94870BFE010995DF9168
:10178000CF910895CF93DF93EC01805E9109089784
:1017900020F06BE870E1209711F468E47EE0CE0160
:1017A0000E94B80B8C2F0E94AC0DDF91CF91089551
:1017B000CF93DF93EC010E94F40DCE01805E91097E
:1017C000089720F062E970E1209711F46FE47EE061
:1017D000CE010E94B80BDF91CF9108950F931F9314
:1017E000CF93DF938C01EB010E94C20B209741F451
:1017F000C8010E94D80BDF91CF911F910F910895DE
:101800008FE99FE00197F1F700C000002197EECF2C
:1018100070E060E08933910511F460E570E00E94AA
:10182000EE0B089581E008950E94120C089581E066
:1018300008950E94CD09089508950E941C0C0895F2
:10184000A6E0B0E0E6E2FCE00C94803449835A83E1
:101850009E8330911E0389819A8131111AC03E8185
:10186000332399F0222389F00E94FF11182F682F4B
:1018700089819A810E94DB1169817A81812F0E947E
:101880004E192696E3E00C949C340E94ED11182F1B
:10189000F3CF0E94FF1169817A81F1CFFC01262FDD
:1018A0004081518162817381848195810E94200CE5
:1018B0000895CF93DF93D82FC92F61E00E944E0C7B
:1018C0006D2F7C2F0E94140CDF91CF910895CF9340
:1018D000DF93D82FC92F60E00E944E0C6D2F7C2F14
:1018E0000E941D0CDF91CF91089581E008950E9420
:1018F000750C0895CF93C82F0E94AF108C2F0E94B3
:10190000770C2FEF84E39CE0215080409040E1F77A
:1019100000C00000CF91089581E00E947A0C0E94DF
:10192000762A089580E00E947A0C0E949A2A0895EF
:101930000F931F93CF93DF938C0161E00E944E0CB5
:10194000EC01B8010E94190C811106C080E0DF9102
:10195000CF911F910F910895B801CE010E94682781
:101960008823A1F3B801CE010E947622882371F367
:10197000B801CE010E944C22882341F3B801CE0168
:101980000E94A621882311F3F8018581882381F024
:10199000CA35FCE7DF0711F178F4C130ECE7DE0768
:1019A000D1F0C330FCE7DF07A1F0C115DC4771F0CF
:1019B000C8010E94170CCBCFCB35ECE7DE0789F0CE
:1019C000CC35DC47A9F70E946B16F2CF0E948C0C35
:1019D000BDCF0E947D160E94920CB8CF0E94751652
:1019E000E7CF0E947916E4CF0E9476290E94BB1EA1
:1019F0000E94470D81E00E94452008950E944B0DF2
:101A000080E00E9445200E947B2908959C01892F37
:101A100099270097E9F09C0188E0A90174E05695A8
:101A200047957A95E1F74115510511F08C5F9A01C0
:101A3000A90156954795569547954115510511F0C1
:101A40008E5F9A0136952795232B09F08F5F0895B5
:101A500080E0E3CF089581E008950895CF93DF9368
:101A6000D82F0E942B0DC82F882319F08D2F0E948C
:101A70002D0D8C2FDF91CF9108950895CF93C82F0E
:101A80000E942A0D8C2F0E942E0DCF91089580E088
:101A90000E943E0D08950E94B0270E943E0D0895B9
:101AA000CF930E94B027C82F809119038C1779F02B
:101AB000C09319030E94062A60931A0370931B03B4
:101AC00080931C0390931D038C2F0E943E0DCF9199
:101AD0000895ADE0B0E0EFE6FDE00C948134488776
:101AE00059876A877B878C879D8791110E947B1518
:101AF0001F8286E0FE013896DE01119601900D925C
:101B00008A95E1F78D8181110DC029813A814B8140
:101B10005C816D817E818F810E94C2142D96E2E0EE
:101B20000C949D34CE0101960E94590C8111EDCF89
:101B3000F5CFFC018481813021F4808191810E9464
:101B400031120895662329F00E94D7230E94BC24F5
:101B500008950E944324FACFCF93C82F882399F089
:101B60008CEF8C0F813A88F48C2F0E9454288823A4
:101B700029F08C2F0E94F6280E940F168C2F0E94AD
:101B8000DF280E940F16CF91089580E28C0F8830D5
:101B900048F4C77081E001C0880FCA95EAF70E9437
:101BA0005C15EFCF8BE58C0F833038F42C2F24524B
:101BB000330BC9010E94E627E6CFE8E5EC0FEB31D5
:101BC00050F4F0E0EE0FFF1FE750FE4F808191814F
:101BD0000E940C28D8CF83E38C0F8331A0F661E0FC
:101BE0008C2F0E94A20DCFCF882381F19CEF980FFC
:101BF000913A28F40E94F6280E940F16089590E268
:101C0000980F983050F4877091E001C0990F8A9531
:101C1000EAF7892F0E946215EFCF9BE5980F93306A
:101C200028F490E080E00E94E627089598E5980F58
:101C30009B3128F490E080E00E940C28089593E303
:101C4000980F933118F460E00E94A20D08951F933D
:101C5000CF93DF93182FEB010E94AC0D209739F43E
:101C6000812F0E94F40DDF91CF911F9108958FE98C
:101C70009FE00197F1F700C000002197EFCF70E0DF
:101C800060E0893311F460E570E00E94270E08954A
:101C9000882321F00E945C150E940F160895882366
:101CA00021F00E9462150E940F160895B0E0A0E096
:101CB000ECE5FEE00C9479346C01D62FC72FFC01C3
:101CC0001581068102950F700E945215E82E882317
:101CD000F9F0E12E1123E1F08C2F807F803461F048
:101CE00080E28D0F883000F18C2F807E803221F4CD
:101CF000D230D0F00023C1F080913A0482FF14C0AA
:101D000082E00E943F160E94521591E0E82EE926DB
:101D10008C2F82958F70A82EB12C8C30B0F5F501E8
:101D2000E65EFA4C0C946B34E12CF2CF0C2F0F7062
:101D3000C07F11F00295007F112399F0002359F024
:101D400080E28D0F883010F0D11107C0802F0E94E3
:101D50005C150E940F168D2F5CC0802F0E946D15A0
:101D6000F8CF8D2F0E94F40D002379F080E28D0FC3
:101D7000883010F0D11104C0802F0E94621503C07A
:101D8000802F0E9473150E940F1688E0A81AB108D0
:101D900094E0A916B10420F40E94B0270E943E0DE1
:101DA000EE2089F00E944E1580FD0DC0F6011582CF
:101DB0000E9448150E943811C6010E9468100E94B6
:101DC00048150E944811CDB7DEB7EAE00C9495346F
:101DD000FC2FFF70FF2EC07FC03219F0F29480EF0D
:101DE000F822DD2341F0D130D1F1112309F444C0B0
:101DF0000023F1F0B0CF80913A0482FD15C0112389
:101E000059F0FF2029F08F2D0E945C150E940F16BB
:101E100080E00E94AC0DB9CF80E00E94F40DFF205D
:101E200009F4B3CF8F2DA9CF112369F0011104C09C
:101E30008F2D0E94480EA9CF013009F0A6CF8F2D1B
:101E40000E949215A2CF0111A0CF8F2D0E944F0E9C
:101E50008F2D0E949E158F2D0E94821596CF1123E3
:101E600021F0063008F091CFE3CF053008F08DCF98
:101E70008F2D0E944F0E89CF0023D1F3D93349F41F
:101E80002FEF87EE93E0215080409040E1F700C0B3
:101E900000008D2F0E94F40D78CF8C2F86958695AB
:101EA000837069F0813009F070CF8D2F9C2F937073
:101EB000111102C080E090E00E940C2866CF8D2FA7
:101EC0009C2F9370111102C080E090E00E94E627E1
:101ED0005CCF612F8D2F0E94A20D57CF8C2F837066
:101EE000A9F5111152CF4D2F429546954770440FD9
:101EF000440F2D2F2F7030E0042E02C0220F331F0D
:101F00000A94E2F790E080E0D4FF09C08FE090E00F
:101F100002C0880F991F4A95E2F780959095C69563
:101F2000C695C370822B932BC23051F0C33059F049
:101F3000C13019F00E940B1128CF0E94021125CF49
:101F40000E94141122CF0E94FF101FCF86951123EB
:101F500011F08C2F8170882309F417CF4D2F4295F3
:101F600046954770440F440F2D2F2F7030E0042EFC
:101F700002C0220F331F0A94E2F790E080E0D4FF02
:101F800009C08FE090E002C0880F991F4A95E2F7E0
:101F900080959095C695C695C370822B932BC230C1
:101FA00051F0C33059F0C13019F00E947311EDCED9
:101FB0000E946A11EACE0E947C11E7CE0E94201195
:101FC000E4CECF70112329F08C2F0E9438118D2F71
:101FD00030CF8D2F0E944F0E8C2F0E944811D5CEEE
:101FE000D23F41F160F4D03FB9F0D13F81F01123ED
:101FF00009F446C00111AFCE8C2F8F711FC0D33FA3
:1020000001F1D43FA1F780913A0482FD24C08C2FC6
:102010008F71112311F312C0112341F0053008F024
:10202000B4CE8C2F8F710E945A11AFCE063008F0BB
:10203000ACCEF7CF8C2F8F711111CFCF0E943811FA
:10204000A4CE112329F08C2F8F710E942C119DCECC
:102050000E9427119ACE112349F0CF718C2F0E9434
:10206000381163E08C2F0E9421168FCE81E00E94F0
:102070003F16023008F489CE82E00E943F1685CEDA
:10208000002359F0D93309F004CFEFEFF7EE23E046
:10209000E150F0402040E1F7FACE8C2F8F719DCFB8
:1020A0000F931F93CF93DF93EC01688179818D812A
:1020B0000E943E128C010E9485110E94FE10B80100
:1020C000CE010E94560EDF91CF911F910F9108957E
:1020D000CF93DF93EC018C81882399F0CE010E948D
:1020E000980C811111C00E945215882351F08D81E6
:1020F000882339F080913A0482FF03C082E00E9475
:102100003F16DF91CF910895CE010E945010CE016D
:102110000E94670CF6CF882321F00E946D150E9463
:102120000F160895882321F00E9473150E940F1640
:10213000089590E080E00E94E62790E080E00E9411
:102140000C280E947B150E940F160E94D7240E9423
:10215000BC2408950E940D290E94991008950E94A0
:102160006A150E94AA100895282F92959F709630A4
:1021700091F060F4925F9F70923030F481E0203FE4
:1021800081F030F4283E30F080E008959A5FF3CF7C
:10219000243FD1F7089581E0283EE0F3213FA1F7E5
:1021A000F9CF0895FC018481882339F080819181E1
:1021B0000E9431120E94B410089580E00895A6E0B4
:1021C000B0E0E5EEF0E10C9481342696E2E00C9468
:1021D0009D34A7E0B0E0EFEEF0E10C948134279657
:1021E000E2E00C949D3408950E94F31008950E943B
:1021F000F41090933A0380933903089508950E9450
:10220000F71008952091390330913A03822B932BD4
:102210000E94F71008952091390330913A038223E8
:1022200093230E94F71008952091390330913A03C7
:10223000822793270E94F71008950E94AB07089504
:102240000E941D119093380380933703089590E006
:1022500080E00E942011089521E030E0A90102C031
:10226000440F551F8A95E2F7CA010E942011089574
:1022700021E030E002C0220F331F8A95E2F78091FF
:10228000370390913803822B932B0E9420110895DD
:1022900021E030E002C0220F331F8A95E2F720953B
:1022A00030958091370390913803822393230E94C5
:1022B0002011089521E030E002C0220F331F8A95DB
:1022C000E2F78091370390913803822793270E9489
:1022D000201108952091370330913803822B932BDE
:1022E0000E942011089520913703309138038223F2
:1022F00093230E94201108952091370330913803D1
:10230000822793270E942011089508959B016770EA
:1023100091E001C0990F6A95EAF763E03695279539
:102320006A95E1F7220F331F220F331FFA01E20FE4
:10233000F31F50E040E0682F70E08191DF011197BA
:102340009B01042E02C0369527950A94E2F721706E
:1023500021952827292328272C934F5F5F4F44304E
:10236000510559F708959C01982F977083E0369591
:1023700027958A95E1F7220F331F220F331FFB01A8
:10238000E20FF31F50E040E080E0219130E0092EA1
:1023900002C0369527950A94E2F721703327042E60
:1023A00001C0220F0A94EAF7822B4F5F5F4F44303F
:1023B000510559F70895282F862F943068F42C3052
:1023C00058F4622F70E02CE0929F600D711D112473
:1023D0004FE153E00E9486110895292F943068F44C
:1023E0008C3058F490E06FE173E03CE0239F800D67
:1023F000911D11240E94B311089580E00895B0E06A
:10240000A0E0E5E0F2E10C947A348C01E09037032F
:10241000F09038038091390390913A03E82AF92A21
:10242000CFE0D0E0CC24C394D12CBC2EC6010C2E1E
:1024300002C0880F991F0A94E2F78E219F21892BF1
:1024400049F4219790F7B12C8B2DCDB7DEB7E9E099
:102450000C949634B8018C2F0E945A19019789F375
:10246000F3CFCF93DF93D82FC92F0E94FF116D2F89
:102470007C2F0E945A19DF91CF9108951F93CF931B
:10248000DF93162FD72F90911E03992341F0862FAB
:10249000972F0E943112DF91CF911F9108958823C9
:1024A00081F0862F972F0E94FF11C82F682F812F50
:1024B0009D2F0E94DB11612F7D2F8C2F0E945A19B6
:1024C000EACF862F972F0E94ED11C82FF4CF1F93CC
:1024D000CF93DF93E0913B0317E080913C038E1391
:1024E00004C0DF91CF911F910895CE2FD0E01E9FA1
:1024F000F0011124E35CFC4F208131814281538142
:102500006481758186810E94E910FE013196E77031
:10251000E4CF209175033091760340917703509179
:1025200078036091790370917A0380917B030E9414
:10253000E9100895982FE0913B0340913C0357E048
:10254000E41302C080E008952E2F30E05E9FF0017A
:102550001124E35CFC4F8181681306C080819813CD
:1025600003C085818111EFCFF9013196E770E8CF83
:10257000B0E0A0E0EEEBF2E10C947C3480917B03C0
:10258000807F09F054C080917A03882309F44FC0FA
:10259000E0913B0387E0D82E80913C038E1709F42D
:1025A00046C00E2F10E0ED9DF0011124E35CFC4FBE
:1025B0008481882309F440C0D09EE001D19ED00DD3
:1025C0001124FE01E35CFC4F918180917603981306
:1025D00033C090818091750398132EC0858181113D
:1025E0002BC0E280F3808091770390917803E81A02
:1025F000F90A60E085E793E00E944E0C65E773E01E
:102600000E941A0AE816F906B8F480917B038F70CD
:10261000806180937B03CD5BDC4F88818F7080610C
:10262000888385E793E00E9468100E946712CDB707
:10263000DEB7E7E00C949834F8013196E770ACCF40
:10264000ADE0B0E0E6E2F3E10C9474348C0186E096
:10265000F801DE01189601900D928A95E1F7F801D4
:10266000F480E58085E7882E83E0982E80917903B9
:10267000811126C0F11007C0FF24F3948F2D2D96F1
:10268000EFE00C949034EE20B9F0C8010E94D21013
:10269000F82E882389F087E0F801A5E7B3E00190E0
:1026A0000D928A95E1F785E793E00E94990D0E94CB
:1026B000B8120E948912E2CFC8010E946810DCCFD4
:1026C0005080A180C280D380B0907A03809177033C
:1026D000909178033601681A790A60E085E793E003
:1026E000BB2009F4EAC00E944E0C65E773E00E942B
:1026F0001A0A6816790608F0ABC0FF2009F4BCCFAF
:1027000080917B03382F307F20917603F8019181EF
:1027100031115AC0FE2C291316C0209175039081E7
:10272000291311C0E11049C08F70806180937B0331
:102730000E94891285E793E00E94681080917B03D4
:10274000F80186839BCFE11038C06A2D852D0E9449
:102750009A126A2D852D0E949A12E82E81118ECF31
:102760005886A986888599850E943112292F22953D
:102770002F70903458F49F70223088F0992399F08C
:10278000F8019681907F79F4FE2C78CF2A5F2F7024
:10279000223068F0C8010E946810EB2CF5CF992315
:1027A00011F0882389F3805E883070F3F3CF803F87
:1027B00058F3815F833040F3EDCF80917B038160DC
:1027C00080937B03F12C5ACF291317C020917503F6
:1027D0009081291312C0E11010C08683C8010E94A5
:1027E000681087E0F801A5E7B3E001900D928A95A3
:1027F000E1F70E948912FB2C41CFC8010E94D21040
:10280000882309F459CFEE2009F456CF80917B0339
:10281000803288F020917503309176033A832983C2
:10282000DC82CB82909179039D831E828F83CE01BF
:1028300001960E94681087E0F801A5E7B3E00190D7
:102840000D928A95E1F70E94B8120E94891214CF66
:1028500080917B03982F907FB1F46C2DDB86CA8624
:10286000452D5A2D7B858F2D9E2D0E94DF1085E7EB
:1028700093E00E94681087E0F40111928A95E9F7CD
:102880000E9489129FCFFF2009F4F6CE2091760393
:10289000F80191812913B1CF2091750390812913FB
:1028A000ACCFE110AACF8683C8010E94681087E0F0
:1028B000F40111928A95E9F79ECF0E944E0C65E7CC
:1028C00073E00E941A0A6816790608F050C0FF20CB
:1028D00009F4D2CEFE2CEE2009F4EECE90917603D0
:1028E000F8018181981335C0909175038081981308
:1028F00030C08091770390917803C81AD90AFEE618
:10290000CF16D104E8F480917B0380FD19C0982F85
:10291000907FB1F0F8018683903F31F0982F907F3F
:10292000905F8F70892B8683C8010E94681087E0B2
:10293000F801A5E7B3E001900D928A95E1F7B9CED1
:1029400087E0F801A5E7B3E001900D928A95E1F7E1
:1029500095CEC8010E94D21081116DCF80917B036A
:10296000816080937B03C8010E94681087CE6C2D24
:10297000DB86CA86452D5A2D7B858F2D9E2D0E9484
:10298000DF1079CFAEE0B0E0E8ECF4E10C948034F5
:10299000288739874A875B876C877D878E87CE013A
:1029A00008960E9420138823B1F06C85662341F0BD
:1029B000288539854A855B857D858E850E94E9104D
:1029C00017E080913B0390913C0389133EC02E9603
:1029D000E3E00C949C3487E0FE013896DE0111960A
:1029E00001900D928A95E1F74C85442349F320919B
:1029F0003C0330E0C90101968770992750913B0351
:102A000058171906A1F04D8397E0929FD001939F2C
:102A1000B00D1124A35CBC4FFE01319601900D92C4
:102A20009A95E1F780933C030E946712C9CF0E94F8
:102A3000AF1010923C0310923B0387E0E5E7F3E010
:102A4000DF011D928A95E9F7BBCF819FC001112458
:102A5000835C9C4F0E942013882309F4B8CFE09137
:102A60003B031E9FF0011124E35CFC4F2081318168
:102A7000428153816481758186810E94E910809131
:102A80003B0390E001968770992780933B0399CF91
:102A90008091A40386958695869508958091A403D8
:102AA000877008959091A403977081E009F480E005
:102AB00008958091D00308959091D003982B90931E
:102AC000D0030895982F90958091D0038923809307
:102AD000D00308951092D00308959091CF03982BBE
:102AE0009093CF030895982F90958091CF038923D9
:102AF0008093CF0308951092CF03089508950E9404
:102B00007E1508959091A503292F282331F08095F3
:102B100089238093A5030E947F15089508950E943C
:102B20008E1508959091A603292F2823281729F0A0
:102B3000982B9093A6030E948F1508959091A60359
:102B4000292F282331F0809589238093A6030E94A2
:102B50008F1508958091A603882329F01092A6036B
:102B600080E00E948F150895CF93C091D00380918B
:102B7000CF03C82B8091A603882331F0C82B0E9475
:102B8000322881110E94AA158C2FCF910895CF93DE
:102B9000DF93C091C701D091C8010E94B41588830A
:102BA000C091C701D091C80148E050E06CE973E0E2
:102BB000CE010E94A834892B59F088E0FE01ACE9CF
:102BC000B3E001900D928A95E1F7CE010E94BD27F6
:102BD000DF91CF910895CF93DF93C091C501D0913C
:102BE000C6010E94B4158983C091C501D091C60168
:102BF00040E250E06CE773E0CE010E94A834892BDC
:102C000059F080E2FE01ACE7B3E001900D928A95A5
:102C1000E1F7CE010E94C827DF91CF9108958091FE
:102C2000E101882339F08091390487FF03C00E94B5
:102C3000EB1508950E94C715089508950E941D166A
:102C4000089590913A0492FF11C098E0899F9001F5
:102C50001124622B6093A4030E9438118091A40375
:102C60008695869586950E941E1608950E943811B5
:102C700008951092A40380E00E941E16089590917A
:102C8000A403809589238093A403282F277069F4D7
:102C9000891759F090913A0492FF07C0869586955E
:102CA00086950E9448110E943916089590913A0421
:102CB00092FB222720F9281769F080FB92F9909364
:102CC0003A048091390490913A040E949E1682E061
:102CD0000E943F16089580913A0482FB882780F96C
:102CE00091E089270E945616089581E00E945616A9
:102CF000089580E00E94561608956FEF7FEF90E0F0
:102D000080E00E940A35089590E080E00E94D63469
:102D10009C0181E0263E3E4F09F080E0089582E06C
:102D200090E00E94CE34089583E090E00E94CE347B
:102D3000089584E090E00E94D6340895BC0184E0B8
:102D400090E00E940A350895AB01BC018FE090E04D
:102D50000E94FE340895AB01BC0183E190E00E9423
:102D6000FE34089560E070E0CB010E94AB16089538
:102D700060E070E0CB010E94A4160E94B216089594
:102D8000A8E0B0E0E6ECF6E10C94813466EE7EEF6C
:102D900090E080E00E940A3560E082E090E00E94CE
:102DA000EC3481E090E090933A038093390361E042
:102DB00083E090E00E94EC3460E074E184E090E015
:102DC0000E940A3560E086E090E00E94EC3460E00A
:102DD00087E090E00E94EC3440E050E0BA0188E0E7
:102DE00090E00E94FE3460E084E290E00E94EC34C7
:102DF00060E087E190E00E94EC3460E08CE090E0DD
:102E00000E94EC3460E08DE090E00E94EC34198286
:102E10001A821B821C821D821E821F82188648E035
:102E200050E068E170E0CE0101960E94DC3440E0A1
:102E300050E0BA0180E290E00E94FE340E94B81691
:102E40002896E2E00C949D340E94C0160895682FE5
:102E50008EE090E00E94EC340895A6E0B0E0E3E359
:102E6000F7E10C947F340E94FA298C018091D10300
:102E70009091D2038017910781F019821A820E94E3
:102E8000FA29682F49815A81792F80E090E00E94C9
:102E9000690D1093D2030093D1032696E4E00C94BD
:102EA0009B340E94062A6093DF037093E0038093B3
:102EB000E1039093E2036093DB037093DC03809360
:102EC000DD039093DE030895089508950E9464172A
:102ED00008950E94C509089580E59AE10E94B71BF4
:102EE0000E9465170E946617089581E008950E9468
:102EF000751708950E9475170895089508950E9402
:102F00007D170E947E1708950E948416811102C0C9
:102F10000E9424170E948F168093E3030E94991643
:102F200090933A04809339040E9449220E94941697
:102F300090E00E94FF1080913703909138030E9427
:102F40001D1108950E94F1290E94081B0E948417F8
:102F50000E943D0D0E94E61FE9E3F4E08081806855
:102F600080838091390490913A040E949E160E94B9
:102F700069170895A6E0B0E0E0ECF7E10C94753431
:102F80000E94771781110CC00E942D170E94BB1E52
:102F90000E94F8240E94500D2696EEE00C94913485
:102FA0000E941E1B23ED822E23E0922E640110E06E
:102FB000F601E190F1906F01812F0E94591A1F5F75
:102FC000143009F44EC0E816F90691F38091E3033A
:102FD00081FD0E94621A0E947A17782E10E0812FDC
:102FE0000E94591A7C01F401A190B1904F018A15F9
:102FF0009B0589F1A826BF2400E0CC24C394D12CE2
:10300000C5018C219D21892BE9F066246394C701B9
:103010008C219D21892B09F4612C772071F0098383
:103020001A830E94FA29682F8B839C8349815A81D5
:10303000792F81E0962D0E94690D462D602F812FFA
:103040000E94661D0F5FCC0CDD1C0C30C9F6F4012C
:103050003297F182E0821F5F143009F60E94511707
:1030600095CFE816F90609F0B1CF8ECF1F93CF9315
:10307000DF930E945F19EC018115924508F05FC053
:10308000C11580E5D80708F0DDC0C03ED10538F590
:10309000CD3CD10508F0AEC0C83AD10580F4C53AA0
:1030A000D10508F0A4C0C130D10509F443C0CE0158
:1030B0000497813A9105F0F1D0E0C0E03BC0CE0129
:1030C000885A91094B97C0F7C85AD0E0CC0FDD1F42
:1030D000C15DDD4F0990D881C02DD4642BC0C115CE
:1030E00090E4D907F0F4C11520E2D20708F0C4C07B
:1030F000C83ED105F8F0CE019A9581159F41E0F6C2
:103100008D2F0E94011A182FCE0199270E945F1956
:10311000C12FD0E0DC2FCC27CC27DF71C82BD92BD7
:1031200009C0CE0199270E945F19CC27DF70C82BF8
:10313000D92BD06ACE01DF91CF911F910895C0386D
:1031400082E5D807B8F5C03692E5D90708F05BC02C
:10315000C03422E5D207C8F4C03282E5D80708F0AF
:103160004BC02C2F2695269590E2299F9001112483
:103170008C2F8370C1E0D0E002C0CC0FDD1F8A9598
:10318000E2F7C22BD32BDD68D5CF2C2F26952695C1
:10319000277080E2289F900111248C2F8370C1E05A
:1031A000D0E002C0CC0FDD1F8A95E2F7C22BD32BF3
:1031B000DC68C0CFC03C92E5D90760F48C2F8F71DA
:1031C000C03AD245A8F5C82FD0E0DC2FCC27C46F79
:1031D000D06AB0CFCE01805C9245809708F06CCF6A
:1031E000DC2FCC27CC27DF71C06FD06AA3CFA49788
:1031F000D064A0CFD0659ECFCF71D0E0DC2FCC279C
:10320000C16FD06A97CF2C2F26952695277080E224
:10321000289F900111248C2F8370C1E0D0E002C060
:10322000CC0FDD1F8A95E2F7C22BD32BDA6882CF51
:103230000E94011AC82FD0E0DC2FCC27CC27DF71E9
:10324000D06278CF8C2F8F710E94011A55E0D695ED
:10325000C7955A95E1F7CF70D0E0DC2FCC27282F07
:1032600030E084FF05C044E0220F331F4A95E1F7A8
:10327000C22BD32BD0695ECF8D2F8F710E94011A84
:10328000182FCE0199270E945F19C12FD0E0DC2FA3
:10329000CC27CC27DF71C82BD92BD2CF462F672F55
:1032A000743028F44C3018F40E94840B089580E0A8
:1032B00090E008950E944E190E9436180895803EAD
:1032C0009105C1F1C8F48133910509F47DC048F43A
:1032D0008932910509F46DC08A32910509F47BC0E9
:1032E000089589339105D1F082389105B9F085337D
:1032F000910509F459C00895843E9105C1F138F44F
:10330000823E910521F1833E910531F10895863E7B
:103310009105C1F1873E9105E1F1089520913904AD
:10332000237009F065C020913A0423FF14C089E29C
:1033300090E008952091390420FD43C030913A0473
:1033400030FF09C024FF4EC090E080E00895209136
:10335000390422FDF7CF08952091390422FD45C09C
:1033600030913A0430FD44C024FFF5CFEDCF2091D9
:103370003A0421FFF0CF8091390484FDE5CF87EE38
:1033800090E008952091390423FFE5CF24FDDCCFA0
:10339000F6CF2091390423FD2EC030913A0431FF3D
:1033A000E3CF84EE90E008952091390425FFD3CF38
:1033B000BECF2091390425FD21C020913A0423FF7E
:1033C000CACF89E390E0C7CF2091390426FFC3CF4D
:1033D0008AE290E008952091390426FFBCCF81E372
:1033E00090E0089583EE90E0089582EE90E00895D5
:1033F00080EE90E0089586EE90E0089585E390E0F9
:1034000008959091390492FF10C041E0282F247153
:10341000243009F040E031E0282F2871283009F0ED
:1034200030E0431711F02CE0822793FF10C041E0F9
:10343000282F2471243109F040E031E0282F287131
:10344000283109F030E0431711F02CE08227309149
:103450003A0430FF10C051E0282F2171213009F0CB
:1034600050E041E0282F2871283009F040E054173F
:1034700011F029E0822731FF10C041E0282F21718F
:10348000213109F040E031E0282F2871283109F07E
:1034900030E0431711F029E0822794FD877E0895DC
:1034A00080E0089508950E94521A08950E94C80964
:1034B0000895E82FF0E0EE0FFF1FED5BFB4F8081DA
:1034C00091810895089580EA8A95F1F7089500C0E2
:1034D00008950E94631A0895F894E82FE295EF701A
:1034E000F0E041A18F7021E030E0B90102C0660F29
:1034F000771F8A95E2F7CB01962F9095942391A39D
:1035000092A1892B82A378940895CF93DF9385E9C4
:103510000E946C1A86E60E946C1A86E30E946C1A5E
:1035200086EC0E946C1AC5E6D2E089918F3F11F0BB
:103530000E946C1A82E0C137D807B9F7DF91CF91AA
:103540000895B0E0A0E0E7EAFAE10C947A34EC01E7
:10355000B62E062F10E0C8018F589D4F7C01FC014C
:1035600020812F3F09F44CC0F894E22FE295EF70D0
:10357000F0E031A12F7081E090E001C0880F2A9522
:10358000EAF7932F982B91A392A18095892382A388
:1035900078940E94671AE5E6F2E041E050E0D12C11
:1035A000C12C21912F3F89F1A22FA295AF70B0E0DD
:1035B00090968C9190E02F7002C0959587952A95F2
:1035C000E2F780FD22C0CA01C82AD92A440F551F3C
:1035D00082E0E137F80729F7F70180818F3F11F08A
:1035E0000E946C1A61E0C114D10409F460E08B2DD3
:1035F0000E94691A000F111FC00FD11FD982C88203
:10360000CDB7DEB7E9E00C94963490E080E0DCCFF3
:103610000E94851A88E0E3E4F4E0DF01982F1D9210
:103620009A95E9F7EBE3F4E0DF011D928A95E9F75B
:1036300084E00E945A1B0E94531A0895A8E0B0E04B
:10364000E4E2FBE10C947E348E010F5F1F4F88E0B3
:10365000F80111928A95E9F7F12C6F2DC8010E94AB
:10366000A11AF394F4E0FF12F8CF48E050E0B8015B
:103670008BE394E00E94A834AC0121E0892B09F48B
:1036800020E0452B41F088E0F801ABE3B4E0019085
:103690000D928A95E1F744E063E474E08BE394E0F3
:1036A0000E945B1B182F0E94561A812F2896E5E076
:1036B0000C949A340895B0E0A0E0E1E6FBE10C94AC
:1036C0007B34D82EE92EF62ED72F042FC22F22239B
:1036D00079F081E08093E6030E94FA299093E50354
:1036E0008093E40380E0CDB7DEB7E8E00C94973434
:1036F000C090E603CC20B1F38091E4039091E50300
:103700000E94232A059770F310E0000F111FA801F3
:103710006D2D7E2D8F2D9D2F0E94A834892B41F079
:10372000A8016D2D7E2D8F2D9D2F0E94B534CC2D9F
:103730001092E6038C2FD7CF0E94082C0E94A2176C
:103740000E94152C08950E941A2C0E94BA170E94FC
:10375000342C08950E9493290E94EE2B0E946C172E
:103760000E949C1B0E94A31B0E947F17FBCF90937B
:103770007F0280937E020895B0E0A0E0E2ECFBE1DE
:103780000C947B34D62FC72F982F71110FC0442370
:1037900029F0E82FF0E0E457FD4F9491692F792F3D
:1037A000892FCDB7DEB7E8E00C949734272F30E0AF
:1037B000E82FF0E0442321F0E457FD4FE491F0E0DE
:1037C00086E0D89F700111240FEF10E0C701B80107
:1037D0000E9402348D2F90E0880F991FA5E5A69FC7
:1037E000A001A79F500D1124841B950BD82EDD0C32
:1037F000D80EC801821B930B8E9FA0018F9F500D86
:103800009E9F500D1124952FDC9EE0011124CD2F99
:10381000DD27D801AC1BBD0BED01CE9FD001CF9FA2
:10382000B00DDE9FB00D11248B2FE801CD19D10909
:103830006E01C29EE001C39ED00DD29ED00D112418
:10384000CD2FDD270C1B1D0B0E9FE0010F9FD00D10
:103850001E9FD00D11242E2F63307105D9F03CEF3F
:10386000E31633E0F30668F461307105B9F06230B5
:103870007105C1F0AFEFEA16F10448F4852F9D2FD2
:1038800006C06430710589F066307105B9F3692F9F
:10389000722F87CF9B2F8E2F252FF9CF9E2F2B2F67
:1038A000852FF5CF8D2F9E2FF7CF8E2F2D2FEFCF7A
:1038B00041E00E94BC1B08959C0190E080E0269F9F
:1038C000812D369F800D911D11240895A6E0B0E052
:1038D000ECE6FCE10C947C347B01D82ECA01B0E00C
:1038E000A0E089839A83AB83BC83BA01CD010E9497
:1038F0003E3220E030E04FE753E469837A838B83E4
:103900009C8369817A818B819C810E949D318B018E
:103910008E839D839B01AC0169831A838B839C8377
:1039200069817A818B819C810E94953398014E81B7
:103930005D8169837A838B839C8369817A818B81A2
:103940009C810E94953398014E815D8169837A83C1
:103950008B839C8369817A818B819C810E949533C2
:103960008B018E839D832DEC3CEC4CE45DE36983FD
:103970001A838B839C8369817A818B819C810E94CD
:10398000983187FD3FC023E333E343E75FE3698179
:103990007A818B819C810E949033181634F400E068
:1039A00010E0B0E8BE833FE33D8320E030E04FE726
:1039B00053E409831A838E818B839D819C83698163
:1039C0007A818B819C810E9495339B01AC0160E0E0
:1039D00070E08FE793E40E942B3169837A838B83B5
:1039E0009C8369817A818B819C810E940F32262F72
:1039F0003D2D239F212D1124B701822F2696E7E02C
:103A00000C94983400E010E01E821D82CECF0E94FC
:103A1000661C809508959091E703982B9093E70397
:103A2000089548E050E068E170E08BE494E00E9483
:103A3000DC341092E70308950E94581C0895EBE4CB
:103A4000F4E085E080838091E2019091E301A09110
:103A5000E40181839283A3838FE784838FEF85833F
:103A60000E94111D089580E008950F931F93CF9336
:103A7000DF93C82FD62F8A010E94331D9CE0C99F77
:103A8000900111242E5F3E4F2D0F311DF9019081C1
:103A90009F3F29F0F801E80FF11D90838F5FDF91C0
:103AA000CF911F910F910895E0917B02F0917C02DC
:103AB00009950895E0917702F091780209950895AB
:103AC000E0917902F0917A0209950895CF92DF9200
:103AD000FF920F931F93CF93DF93CDB7DEB7289755
:103AE0000FB6F894DEBF0FBECDBF182F062FF42EF1
:103AF0000E947517882309F44CC0FF2009F457C0B1
:103B0000AE014F5F5F4F602F812F0E94351DF82E51
:103B10000F2D10E08091E803800F912F911D0997E0
:103B20006CF188E090E06C01C01AD10AB8016751CD
:103B30007C4FA60189EE93E00E94B534B8016F5026
:103B40007C4FA60181EF93E00E94B534A601440F9B
:103B5000551FB801660F771F6F5F7B4F81E094E0C0
:103B60000E94B534B80167507C4FA60189EF93E0FD
:103B70000E94B53488E08F198093E8031091E80320
:103B8000DE01119640E0242F210FF41212C0209381
:103B9000E80328960FB6F894DEBF0FBECDBFDF91C5
:103BA000CF911F910F91FF90DF90CF900895F12C4E
:103BB000AFCF5D91852F90E030E0B90168517C4F27
:103BC000FC01EE0FFF1FEE5CFE4F0081FB01018345
:103BD000880F991FFC01EE5FFE4F81A9FB018187D1
:103BE000518B220F331FF901E851FC4F128E118EB9
:103BF0004F5FC9CF0E942F07089599E0899F802DBC
:103C00001124980F9B3208F09AE20895AF92BF9268
:103C1000DF92EF92FF920F931F93CF93DF938C016C
:103C20007B01FC0180810E94FD1DC82FD92E2091AF
:103C30004F0431E0230F08F42FEF30E050E040E074
:103C40006FEF7FEF80E090E00E944C345901D0E0AC
:103C50002C2FCD1578F081E0F9E2FD1508F480E015
:103C6000DF91CF911F910F91FF90EF90DF90BF9068
:103C7000AF900895FE01EA57FE4F8081F8019181CF
:103C8000892311F1409157044150042E000C550B2B
:103C900047FF1CC0C50160914F0421E0620F08F48A
:103CA0006FEF0E945C1CAC0160914C0470914D045C
:103CB00080914E04F70109950E941C1D462F672F25
:103CC000282FCE010E945A1D2196C2CFFA01E95A2F
:103CD000FB4F818982130AC0FA01EE0FFF1FE95AD8
:103CE000FB4F818D928D8A159B05A8F24150510999
:103CF000CFCFB0E0A0E0EFE7FEE10C947B347C0195
:103D0000FC0180810E94FD1DC82F192F60914C0479
:103D100070914D0480914E040E941C1D062FD72ED9
:103D2000C82ED0E0C11748F081E01A3208F080E0D8
:103D3000CDB7DEB7E8E00C949734FE01EA57FE4FAA
:103D40008081F7019181892331F02C2D402F6D2D39
:103D5000CE010E945A1D2196E5CF81E008950E9470
:103D6000AD1E0895FC01808181500E94FD1D692FC8
:103D70000E94AF1E08954F925F926F927F928F9232
:103D80009F92AF92BF92CF92DF92EF92FF92CF932A
:103D9000DF9300D000D0CDB7DEB7809111049091B1
:103DA0001204A0911304B091140489839A83AB8305
:103DB000BC83BC01CD010E94322A6B017C010E94B0
:103DC000062A609311047093120480931304909355
:103DD0001404A091E803E8EEF3E02A2F30E08824F1
:103DE0008A94982CA12CB12C8C189D08AE08BF0881
:103DF000A3132CC02093E80320914B04A22FA3709F
:103E0000A983AA2321F0B22FB695B695B983309134
:103E1000C901323009F4B1C060F5311140C01092CF
:103E2000CA01609353047093540480935504909393
:103E3000560489E2E8EEF3E0A7E5B4E001900D92C4
:103E40008A95E1F781E08093C90116C0418D528DBA
:103E50002A01712C612C84149504A604B70420F463
:103E600021503F5F3296C4CF4C0D5D1D528F418F64
:103E7000F8CF333009F48BC00F900F900F900F9054
:103E8000DF91CF91FF90EF90DF90CF90BF90AF90F8
:103E90009F908F907F906F905F904F90089580914A
:103EA000CD01398138133AC023704091CE0150E0E2
:103EB00081E02417150609F480E081708093CC011D
:103EC000809150049091CB01981739F08093CB01E9
:103ED00040E060E080E00E94601D89818230C9F18D
:103EE000F8F4882339F1813079F180E09091CA01AA
:103EF0009F5F9093CA01811137C082E08093C9010E
:103F00008091CC0181115DC0A981AA23F1F10E94A9
:103F1000FA1D8AEC91E00E94B21EAECF81E0CDCFB7
:103F20009981933011F78091CA010E94FD1D67E0CD
:103F30007DE115C08091CC018823C1F240E060E0B2
:103F400080E00E94601DD1CF8AEC91E00E94791E32
:103F5000CDCF8091CA010E94FD1D66E67CE18AEC0E
:103F600091E00E94061EC2CFB981BB2309F484CF21
:103F70008091C901823069F6CACF39813093CD0171
:103F800023702093CE010E94541D83E05CCF80916A
:103F9000E70381110E94111D8091530490915404F4
:103FA000A0915504B0915604BC01CD010E94322A63
:103FB000603171058105910508F45ECF1092C90149
:103FC0005BCF9981992309F457CFA1CFE091750276
:103FD000F09176020995109257048FEF9FEF90931E
:103FE000710480937004909373048093720490938F
:103FF000750480937404909377048093760490936F
:1040000079048093780490937B0480937A0490934E
:104010007D0480937C0490937F0480937E041092AF
:10402000E803909302048093010490930404809326
:1040300003049093060480930504909308048093EE
:10404000070490930A048093090490930C048093CE
:104050000B0490930E0480930D04909310048093AE
:104060000F0481E08093E70348E050E068E170E0EE
:104070008BE494E00E94BE341092E70380914B04DD
:104080008C7F11F40E941F1D08950895EBE4F4E065
:10409000908121E0922790831092C9010E940B1D0C
:1040A000089581E00E944620089580914B0483701A
:1040B00011F41092C90180914B048C7F8160809330
:1040C0004B0408950E94552081E00E940B1D089525
:1040D00080914B04837011F01092C90180914B04C0
:1040E0008C7F80934B0408950E94682081E00E9499
:1040F0000B1D0895282F862F90914B04937049F043
:10410000211108C0946090934B041092C9010E9441
:104110000B1D0895243010F09C60F5CF220F220F64
:10412000922BF1CF61E00E947A200895682F809150
:104130004B04869586958F5F843008F081E00E945D
:104140007A20089581E00E9496200895682F90912A
:104150004B04969596958FEF890F913009F483E083
:104160000E947A20089581E00E94A6200895982F49
:10417000822F20914B04237041F090934C04609364
:104180004D0440934E040E940B1D089520E00E94B0
:10419000B7200895282FEBE4F4E09181892F90E077
:1041A0004381628108960E94B720089581E00E94B1
:1041B000CA200895282FEBE4F4E0818143816281D5
:1041C0008850990B0E94B720089581E00E94DA2060
:1041D0000895282FEBE4F4E0628130E1630F08F4E6
:1041E0006FEF8181438190E00E94B720089581E0C4
:1041F0000E94E9200895282FEBE4F4E0628130E189
:10420000631B08F460E08181438190E00E94B72045
:10421000089581E00E94FB200895282FEBE4F4E04C
:10422000438130E1430F08F44FEF8181628190E0D8
:104230000E94B720089581E00E940D210895282F43
:10424000EBE4F4E0438130E1431B08F440E081817A
:10425000628190E00E94B720089581E00E941F21B2
:10426000089580934F0481E00E940B1D0895EBE4B4
:10427000F4E0248130E1230F08F42FEF24830E941F
:104280000B1D089581E00E9437210895EBE4F4E0CE
:10429000248130E1231B08F420E024830E940B1DBD
:1042A000089581E00E944621089510921504089512
:1042B000CF93DF93DC01FC01EE0FFF1FEF01CA0F6C
:1042C000DB1FC058DB4F8981861306C088818413A9
:1042D00003C08A81821751F081E080931504EA0FB0
:1042E000FB1FE058FB4F618340832283DF91CF9116
:1042F0000895FF920F931F93CF93DF93182F062FEC
:10430000F42ED0E0C0E02F2D402F612FCE010E946F
:1043100058212196CA32D105B1F7CDB7DEB7E5E015
:104320000C949A3480911504882341F06AE270E07D
:1043300080E894E00E94FD21109215040895FA018E
:10434000882311F009950895FB01FCCF1F93CF93AB
:10435000DF93EC01FB011581111110C00E9459156A
:104360008272FE01E052F847E531F10508F043C0E2
:10437000EA5DFA4C0C946B340E945120812FDF913E
:10438000CF911F91089543EB50E262EA70E20E94E0
:104390009F21F4CF42EA50E263EB70E2F8CF45EEA2
:1043A00050E266ED70E2F3CF46ED50E265EE70E26A
:1043B000EECF49E051E267EF70E2E9CF47EF50E21C
:1043C00069E071E2E4CF4DE251E26BE171E2DFCFEF
:1043D0004BE151E26DE271E2DACF41E551E262E494
:1043E00071E2D5CF42E451E261E571E2D0CF81E0E4
:1043F0000E949220C3CF11E0C1CF9C01AB01239A50
:1044000065B1677F75B17860EFB7F894CA01880F1E
:10441000991F840F951F820F931F8217930741F4F2
:10442000EFBF8FE594E00197F1F700C00000089519
:10443000D9014D919D0158E075B9000000C047FFBA
:1044400065B9440F000000C000C000C065B900C0DD
:104450005A9591F7E2CF0E947D16089580E00E9460
:10446000591A817008950E941E1B2FEF86E791E074
:10447000215080409040E1F700C000000E941E1BC8
:104480000E942E22882321F00E942B220E94762A4D
:1044900008950E9433220895CF93DF93EB01863174
:1044A0009C4711F50E9459159D81992399F08A7AAC
:1044B00091E009F490E090931604811109C089E21B
:1044C0000E94DF280E940F1680E0DF91CF910895AF
:1044D00085E3F6CF80911604811104C089E20E9421
:1044E000F628F0CF85E3FBCF81E0EFCFCF93DF93CA
:1044F000EC01FB018581882309F4D2C09E0130576D
:104500002332310508F0B2C00E94991690933A0404
:1045100080933904FE01E150F047E232F10520F4C6
:10452000E55CFA4C0C946B34809139048160809383
:10453000390493C080913A04886080933A048DC016
:10454000809139048260F3CF809139048460EFCF89
:10455000809139048860EBCF80913A048160EDCF7F
:1045600080913A048260E9CF809139048061DFCF85
:10457000809139048062DBCF809139048064D7CF89
:104580000E94AF10809139048068D1CF80913904A6
:104590008C60CDCF80913A048360CFCF8091390475
:1045A0008E7FC5CF80913A04877FC7CF8091390431
:1045B0008D7FBDCF809139048B7FB9CF8091390435
:1045C000877FB5CF80913A048E7FB7CF80913A0430
:1045D0008D7FB3CF809139048F7EA9CF809139042C
:1045E0008F7DA5CF809139048F7BA1CF0E94AF1022
:1045F000809139048F779BCF80913904837F97CF47
:1046000080913A048C7F99CF8091390482FB99275D
:1046100090F921E0922790FB82F990FB83F987CFF4
:1046200080913A04982F909591708E7F892B90FB02
:1046300081F983CF90913904892F8F7B96FF806415
:1046400076CF0E94AF1090913904892F97FB87F99C
:1046500080586DCF81E00E94271780913904909196
:104660003A040E949E160E94AF1080E0DF91CF9125
:10467000089580E0F0CF90913904892F8F7E94FFC8
:10468000806155CF90913904892F8E7F90FF816092
:104690004ECF90913A04892F877F93FF88604DCF4A
:1046A00081E0E4CF282F35EB2303C001112497FFCD
:1046B00004C080589109892F089580589F4FFBCFDF
:1046C00080911D0480FF0DC06091D40170E0660FE1
:1046D000771F6038710570F56115710569F1862FD6
:1046E000089581FF07C06091D40184E0689FB00104
:1046F0001124EFCF6091D40182FD0AC080911C0487
:104700008823A9F02091D3016091D401821710F081
:1047100088E0ECCF869FC001112433E0880F991FF9
:104720003A95E1F7622F70E00E941634D2CF68E02C
:1047300070E0D5CF8FE7089581E0089580911D0442
:1047400080FF0CC06091D00170E0759567957595FC
:1047500067956115710549F1862F089581FF06C09F
:104760006091D00170E075956795F3CF6091D001AD
:1047700082FD0BC090911B049923A1F06091CF01A1
:104780008091D001961738F0682F70E0603871057D
:1047900000F38FE70895899FC001112470E00E9403
:1047A0001634F4CF61E070E0D7CF81E008959091A6
:1047B000200420912104922B20912304922B2091FC
:1047C0002204922B31F098E090931C0491E0909396
:1047D0001B048D3C31F40E94602381958093210459
:1047E00008958E3C19F40E946023F8CF8F3C31F479
:1047F0000E9460238195809320040895803D19F4E0
:104800000E946023F8CF893D29F40E949E23809363
:10481000220408958A3D21F40E949E238195F7CFBA
:104820008B3D31F40E949E2381958093230408954B
:104830008C3D19F40E949E23F8CF9FE2980F983088
:1048400070F4815D990B21E030E001C0220F8A9560
:10485000EAF780911F04822B80931F0408958D3DF9
:1048600031F480911D04816080931D0408958E3D74
:1048700021F480911D048260F7CF8F3DB9F78091BC
:104880001D048460F1CF409120048D3C59F4809147
:10489000210487FF0DC01092210441110BC010921A
:1048A0001C0408C08E3C81F48091210418169CF3EE
:1048B000442381F08091220490912304892B09F0F4
:1048C0005AC010921B0408958F3C49F447FFF0CF63
:1048D00010922004809121048111ECCFE0CF803D23
:1048E00019F41416ACF3E4CF90912204893D29F415
:1048F0001916F4F610922204DBCF8A3D19F497FFC3
:10490000D7CFF8CF909123048B3D29F497FFD0CFD8
:1049100010922304CDCF8C3D19F41916CCF3C8CFD7
:104920009FE2980F983090F4815D990B21E030E080
:10493000B90102C0660F771F8A95E2F7CB01809517
:1049400090911F04892380931F04B2CF8D3D31F4D1
:1049500080911D048E7F80931D04AACF8E3D21F48B
:1049600080911D048D7FF7CF8F3D09F0A1CF8091FD
:104970001D048B7FF0CF08950E94FA292091200416
:1049800030912104232B21F08093190490931A0471
:104990002091220430912304232B21F080931704CB
:1049A000909318048EE194E00E94D727089586E042
:1049B000EEE1F4E0DF011D928A95E9F710921C0404
:1049C00010921B0410921D040895FC018281811134
:1049D0000DC0838181110AC08481811107C081E0EB
:1049E0009581911101C080E08170089581E0FCCF34
:1049F000A6E0B0E0EEEFF4E20C94803486E0EEE165
:104A0000F4E0DE01119601900D928A95E1F7109283
:104A100020041092210410922204109223048B810E
:104A20009C81892B89F08091190490911A040E942D
:104A3000232A9C0180911C048823C9F19091D501FF
:104A40009217130608F440C08D819E81892B91F046
:104A500080911704909118040E94232A9C01809150
:104A60001B04882309F46AC09091D10192171306A0
:104A700008F472C0BE016F5F7F4F8EE194E00E9428
:104A80002729811105C08EE194E00E94E52481115F
:104A90000E94BC2486E0FE013196AEE1B4E00190B4
:104AA0000D928A95E1F72696E3E00C949C344091B0
:104AB000D6019AE0499FA00111244217530720F61E
:104AC0008F5F80931C0402C08F3FD1F71B8111239D
:104AD00059F00E9460239FEF11160CF491E0899F1A
:104AE000802D1124809320041C81112359F00E94F1
:104AF00060239FEF11160CF491E0899F802D112403
:104B00008093210480912004882309F49DCF109183
:104B10002104112309F498CF0E945223882351F0D5
:104B200080932004812F0E945223882329F08093B0
:104B300021048ACF81E0F4CF81E0F9CF4091D20106
:104B40009AE0499FA00111244217530708F092CF21
:104B50008F5F80931B0402C08F3FD1F71D8111230B
:104B600059F00E949E239FEF11160CF491E0899F4B
:104B7000802D1124809322041E81112359F00E945C
:104B80009E239FEF11160CF491E0899F802D112434
:104B90008093230480912204882309F46BCF109121
:104BA0002304112309F466CF0E945223882351F075
:104BB00080932204812F0E945223882329F080931E
:104BC000230458CF81E0F4CF81E0F9CFB0E0A0E03A
:104BD000ECEEF5E20C947A34E82FF0E0E457FC4F69
:104BE000B490282F26952695269530E0F901E45DAE
:104BF000FB4F0491877010E0082E02C015950795B1
:104C00000A94E2F701701127F901E45EFB4FE4908A
:104C1000F12C082E02C0F594E7940A94E2F791E093
:104C2000E922FF24F901E45FFB4FC491D0E002C008
:104C3000D595C7958A95E2F7C170DD27C62ED12C90
:104C40000115110549F5E114F10431F086EE0E94D9
:104C5000AC0DC601009771F5B6018B2D0E94270E91
:104C6000C601009779F5E114F104A1F501151105CC
:104C700031F081EE0E94F40DC6010097C9F5CD2BED
:104C800031F08CE20E943F0EC114D104C9F5CDB7BA
:104C9000DEB7E9E00C94963481EE0E94AC0DC601BB
:104CA000009789F2EFE9FFE03197F1F700C00000CB
:104CB0000197F6CFEFE9FFE03197F1F700C0000070
:104CC0000197C8CFEFE9FFE03197F1F700C000008E
:104CD0000197C7CF86EE0E94F40DC601009731F20E
:104CE000EFE9FFE03197F1F700C000000197F6CF40
:104CF000EFE9FFE03197F1F700C000000197BDCF69
:104D00008FE99FE00197F1F700C0000091E0C91A18
:104D1000D108BACFEF92FF920F931F93CF93DF93F7
:104D2000EC01162F0AE08881882309F459C08130EC
:104D300009F052C08981813071F47E0182E0E80E71
:104D4000F11C8A810E943F0EE701812F90E00097BD
:104D5000D9F52196E8CF823041F47E01E2E0EE0EF3
:104D6000F11C8A810E94AC0DEFCF833041F47E01AB
:104D7000F2E0EF0EF11C8A810E94F40DE5CF843041
:104D800011F02196E2CF2A81229690E080E0AE01D8
:104D90004F5F5F4F2053330B2A30310550F000979F
:104DA000A1F2EFE9FFE03197F1F700C000000197B1
:104DB000F6CF089FB001099F700D1124C901860F1D
:104DC000971F2981EA01E3CFEFE9FFE03197F1F77F
:104DD00000C000000197BBCF612F0E94E625B9CF2C
:104DE000CDB7DEB7E6E00C94993460E00E948A26E5
:104DF0000895B0E0A0E0EFEFF6E20C9479347C0186
:104E00005B01C42FD22FFC0185818823C9F0409318
:104E100026040E94FA29909325048093240480E2BA
:104E20008C0F883040F4C77081E001C0880FCA95AC
:104E3000EAF70E94480ECDB7DEB7EAE00C9495344D
:104E400010912604141338C08091240490912504F5
:104E50000E94232A6C01B701C5010E941A0AC816D4
:104E6000D90650F5C0E2CD0F1D17C1F080E2810FC9
:104E7000883048F4177081E0012E01C0880F0A9431
:104E8000EAF70E944F0EC83048F481E09D2F9770DA
:104E900001C0880F9A95EAF70E94480E802F0E9461
:104EA0003F0EC83040F6D77081E001C0880FDA9518
:104EB000EAF70E944F0EBFCF80E28C0F883008F0D7
:104EC000BACFC77081E001C0880FCA95EAF7F1CF69
:104ED0000F93FC01CB01E851FC47E730F10590F559
:104EE000E35AFA4C0C946B3406E221EE41EE6AE18F
:104EF0007CE70E94F92680E00F91089507E225EEF5
:104F000045EE6BE17CE7F5CF06E221EE40EE68E18D
:104F10007CE7EFCF07E225EE44EE69E17CE7E9CFDD
:104F200006E221EE42EE6CE17CE7E3CF07E225EEFC
:104F300046EE6DE17CE7DDCF08E221E045EE6EE173
:104F40007CE7D7CFFB018581882319F010922604D6
:104F5000D3CF81E0D1CF90932C0480932B0408957C
:104F6000E0912B04F0912C04309729F00190F0810E
:104F7000E02D0995089580E00895E0912B04F091CB
:104F80002C04309721F00280F381E02D09950895DB
:104F9000DC01E0912B04F0912C04309739F086E08D
:104FA0008C930480F581E02DCD0109950895DC01F5
:104FB000E0912B04F0912C04309739F082E08C932F
:104FC0000680F781E02DCD0109950895A3E0B0E0BA
:104FD000ECEEF7E20C9481349C01809129049091CD
:104FE0002A0482179307A1F030932A0420932904FE
:104FF000E0912B04F0912C04309751F083E08983E9
:105000003B832A830084F185E02DCE01019609952A
:105010002396E2E00C949D34A3E0B0E0E2E1F8E2F4
:105020000C9481349C01809127049091280482176C
:105030009307A1F03093280420932704E0912B04D8
:10504000F0912C04309751F084E089833B832A83CC
:105050000084F185E02DCE01019609952396E2E0CA
:105060000C949D342091C7013091C8012E5F3F4FB1
:105070008091E101882379F08091390487FF0BC08A
:105080002091C5013091C6012E5F3F4F9EE180E027
:10509000915018F4089596E0FACFF90141919F01DB
:1050A0004423B1F38F5FF4CF882321F19091E10184
:1050B000992311F19091390497FF1EC0E82FE695CE
:1050C000E695E695803FB0F42091C5013091C60188
:1050D000E20FF32FF11D228130E0877041E050E0B4
:1050E00002C0440F551F8A95E2F72423352381E03F
:1050F000232B91F480E008952091C7013091C801DD
:10510000F9013296285F3F4F9191981721F0E217ED
:10511000F307D1F7EFCF81E008959C01FC013296AF
:105120008FEF90E04191461751F08F3F19F44111F4
:1051300001C0892F9F5F9630A9F78F3F09F408952A
:10514000280F311D87FD3A95F901628308959C016E
:10515000FC013296285F3F4F8191861303C0DF0127
:1051600011971C92E217F307B9F70895E62FE69519
:10517000E695E695603F68F4E80FF92FF11D67703A
:1051800021E030E001C0220F6A95EAF78281822B8C
:1051900082830895E62FE695E695E695603F70F4E4
:1051A000E80FF92FF11D677081E090E001C0880FD2
:1051B0006A95EAF780959281892382830895682F02
:1051C0008091E101882359F08091390487FF07C05D
:1051D0008091C5019091C6010E94B62808958091E2
:1051E000C7019091C8010E948D280895682F809171
:1051F000E101882359F08091390487FF07C080912D
:10520000C5019091C6010E94CA2808958091C701E6
:105210009091C8010E94A72808958091E1018823F8
:1052200079F08091390487FF0BC0E091C501F091BE
:10523000C60132968EE1DF011D928A95E9F7089545
:10524000E091C701F091C801329686E0F4CFDC010D
:10525000FB0111969C9111978181981322C012969F
:105260008C911297882319F0928189131AC0139692
:105270008C911397882319F09381891312C0159686
:105280008C911597882319F0958189130AC014967B
:105290009C91992321F081E02481291303C080E0AF
:1052A00001C081E08170089508950E9454290895F5
:1052B000811106C081E080932D040E945529089534
:1052C00082E0F9CF83E080932D040E945529089550
:1052D0000E945829089581E080932D040E94552949
:1052E00008950E946B290895089508950E947529D4
:1052F0000895089508950E9474290895CF930E94F7
:1053000079290E941E1B0E947A29C0E08C2F0E94DE
:10531000591A892B31F4CF5FC430C1F780E0CF91A7
:10532000089581E0FCCF85B7806885BF85B7806828
:1053300085BF08951F921FB61F9211248F939F93CC
:10534000AF93BF9380912E04811113C08091FE040E
:105350009091FF04A0910005B09101054196A11D17
:10536000B11D8093FE049093FF04A0930005B093B9
:105370000105BF91AF919F918F911F901FBE1F900C
:10538000189580910605843031F10E94F40C10923A
:105390002E0488E190E020E40FB6F894A89580935D
:1053A00060000FBE2093600083B7817F846083BF5D
:1053B00083B7816083BF7894889583B78E7F83BFDE
:1053C0000FB6F894A8958091600088618093600082
:1053D000109260000FBE08950E94AF100E94FE0C54
:1053E000089582E084BD93E095BD9AEF97BD8093C8
:1053F0006E0008952FB7F8948091FE049091FF04F9
:10540000A0910005B09101052FBF0895A4E0B0E080
:10541000ECE0FAE20C9481348FB7F8942091FE040A
:105420003091FF04409100055091010529833A8392
:105430004B835C838FBF69817A818B819C812496A9
:10544000E2E00C949D349C014FB7F8948091FE04E7
:105450009091FF04A0910005B09101054FBF821B00
:10546000930B0895A4E0B0E0E8E3FAE20C947F34F3
:10547000462F572FBC012FB7F8948091FE049091CE
:10548000FF04A0910005B09101052FBF8C019D0183
:10549000041B150B260B370BC901B8012496E4E059
:1054A0000C949B3478941F921FB61F9211248F93F3
:1054B0009F93AF93BF938091FE049091FF04A091BE
:1054C0000005B09101050196A11DB11D8093FE0458
:1054D0009093FF04A0930005B0930105BF91AF9195
:1054E0009F918F911F901FBE1F90189581E0809310
:1054F000E00080E28093D8001092C9008FE19EE422
:105500000197F1F700C0000087E090EBDC01809389
:105510000F0590931005A0931105B093120588E133
:105520009CE00FB6F894A895809360000FBE90930E
:105530006000FFCF88E19CE00FB6F894A8958093B7
:1055400060000FBE90936000FFCF809137040895F4
:10555000282FCB01BA01309106053430E1F42F70C9
:105560002093E9002FEF3091E800215035FD06C06F
:1055700035ED3A95F1F700002111F5CF2091E800C3
:1055800025FF09C050E040E00E94AD2C8091E8006A
:105590008E778093E8000895BC0143E050E082E0FC
:1055A0000E94A82A0895BC0146E050E082E00E94D3
:1055B000A82A0895BC0140E250E082E00E94A82A97
:1055C0000895CF93DF93D82FC92F48E050E0682F7C
:1055D000792F81E00E94A82A88E0ED2FFC2FAFE20E
:1055E000B4E001900D928A95E1F7DF91CF91089593
:1055F00080910505811109C00E94352E0E94922ECE
:105600008091E20084608093E20008951092050585
:1056100008950E946B2908956091020581E061114F
:1056200001C080E00E94622908959091060581E002
:10563000943009F080E0609102050E946829089585
:1056400042E061EC81E00E94B12D42E261EC82E037
:105650000E94B12D9091060581E0943009F080E020
:10566000609102050E9458290895809108058930AB
:1056700089F148F4823009F4A0C0833009F45AC09B
:10568000813041F008958A3009F487C08B3009F4E5
:105690006CC0089580910705813A09F04AC0809155
:1056A000E800877F8093E80080910B0590910C05BE
:1056B000892B61F468E08FE294E070E00E94FC2C9A
:1056C0008091E8008B778093E800089560E090E097
:1056D00080E0F3CF80910705813259F580910B0569
:1056E00090910C05029728F58091E800877F8093C0
:1056F000E8008091E80082FF18C09091F30080914B
:10570000F200029731F48091F100813011F086307F
:1057100021F48091F100809337048091E8008B7729
:105720008093E8000E94E52D04C080910605811158
:10573000E0CF089580910705813AD9F780910B0554
:1057400090910C05892BA9F78091E800877F8093C1
:10575000E8008091E80080FFFCCF8091E101809318
:10576000F1008091E8008E77DBCF809107058132D0
:1057700001F780910B0590910C05892BD1F6809152
:10578000E800877F8093E8000E94E52D809109055D
:105790008093E1010E94AF10089580910705813246
:1057A00041F68091E800877F8093E8000E94E52D14
:1057B00080910A0580933804089580910705813A05
:1057C00009F0B7CF8091E800877F8093E80080914F
:1057D000E80080FFFCCF80913804C1CF84B7877F79
:1057E00084BF0FB6F894A89580916000886180937B
:1057F0006000109260000FBE80E890E00FB6F89451
:1058000080936100909361000FBE0E9471290895FA
:105810000E94352E0E94922EE2EEF0E0808184609C
:10582000808378940E941031089587ED91E00E9462
:10583000AB27089580910605853031F480910605E7
:10584000853019F00E94EC2908950E94C1298091A9
:105850000405882399F30E947E29882379F30E9406
:10586000972C0E94AF10EACF08959A0140910D0540
:1058700050910E050E943D2C0895AC01CB01D90139
:10588000252F332723303105D1F070F42130310535
:1058900009F43EC02230310569F48BE390E022E642
:1058A00034E02D933C93089521323105E9F0223202
:1058B000310521F190E080E030E020E0F2CFCA0134
:1058C0009927413059F08230910559F0EEE5F4E026
:1058D000892B81F7849190E09F01E3CFEAE4F4E023
:1058E000F9CFECE3F4E0F6CF892BB9F06130710524
:1058F00009F789E090E02DE834E0D3CF892B91F0CF
:1059000061307105B9F686EB90E02FEA34E0C9CF3B
:1059100082E190E02DE934E0C4CF89E090E024E713
:1059200034E0BFCF84E490E025E635E0BACF80E1F3
:1059300089BD82E189BD09B400FEFDCF8091D80008
:105940008F7D8093D8008091E00082608093E0009A
:105950008091E00081FDFCCF0895AF92BF92CF927D
:10596000DF92FF920F931F93CF93DF936C01EB01B4
:105970008A010E94042EF82E811123C00115110501
:1059800039F0F80180819181C81BD90BC80ED91E4E
:10599000B12CA12C2097A9F08091E80085FD22C0B0
:1059A0008091E8008E778093E80001151105A1F041
:1059B000F80180819181A80EB91EB182A08285E094
:1059C000F82E8F2DDF91CF911F910F91FF90DF90D7
:1059D000CF90BF90AF9008950E94042E8823D1F2FB
:1059E000F82EEFCFF60181916F018093F10021979E
:1059F000FFEFAF1ABF0ACECFFC01CB0120910D05FE
:105A000030910E052617370790F0009729F4209162
:105A1000E8002E772093E80040E0009751F4411110
:105A200008C08091E80082FF31C080E00895C9017C
:105A3000F3CF209106052223A9F12530A9F1209169
:105A4000E80023FD2DC02091E80022FDEACF20913F
:105A5000E80020FFE2CF3091F3002091F2000097A0
:105A600019F02830310558F041E02830310509F0AF
:105A700040E02091E8002E772093E800CECF4191BE
:105A80004093F10001972F5F3F4FE9CF80910605CA
:105A9000882341F0853041F08091E80083FFC1CF39
:105AA00081E0089582E0089583E00895FC01CB0130
:105AB00020910D0530910E052617370790F00097BD
:105AC00029F42091E8002E772093E80040E0009729
:105AD00051F4411108C08091E80082FF32C080E09B
