:100000000C94A5020C94DD020C94DD020C94DD022C
:100010000C94DD020C94DD020C94DD020C94DD02E4
:100020000C94DD020C94DD020C94792A0C944D2B77
:100030000C946A250C94DD020C94DD020C94DD0214
:100040000C94DD020C94DD020C94DD020C94DD02B4
:100050000C94DD020C940D260C94DD020C94DD0250
:100060000C94DD020C94DD020C94DD020C94DD0294
:100070000C94DD020C94DD020C94DD020C94DD0284
:100080000C94DD020C94DD020C94DD020C94DD0274
:100090000C94DD020C94DD020C94DD020C94DD0264
:1000A0000C94DD020C94DD020C94DD022900140096
:1000B0001A000800150017001C0018000C001200A0
:1000C00013002E002B0004001600070009000A0090
:1000D0000B000D000E000F0000002800E1001D00C5
:1000E0001B0006001900050011001000360000007A
:1000F00037004C00E000E300E2002C41000000006B
:100100002C420000000038002D002D0201004A00A2
:1001100052004D002F003000010001002402310286
:10012000417E01000100500051004F0026022702CD
:10013000010001003300340000002A0001001D010D
:100140001B0106011901010001000100E20000008D
:100150000100010001000100010001000000000099
:100160002C430000000001000100010001001E00FE
:100170001F0020002100220023002400250026006B
:1001800027000100270021002200230001000100B8
:10019000010001003300340000002A0001002400A7
:1001A00025002600010001000100010001000000FF
:1001B000010001000100010001002C4300000000CB
:1001C0000100000000000100010001005F7ED1007D
:1001D000CD00D2003A003B003C00010001000100CC
:1001E0000100007C0100CF00CE00D0003D003E00A9
:1001F0003F000100010001000000007E0100D90065
:10020000D300DA00400041004200430044000000F7
:100210004500010001000100010001000000000094
:10022000010000000000597E5A7E20780001010183
:1002300001010101010102020202020202020203A3
:100240000303030303030304040404040404050573
:100250000505050606060606070707070708080836
:1002600008090909090A0A0A0B0B0B0C0C0C0D0DE5
:100270000D0E0E0E0F0F0F1010111111121213137D
:100280001414151516161717181819191A1A1B1BF6
:100290001C1D1D1E1E1F2020212222232424252652
:1002A00026272829292A2B2C2D2D2E2F303132328A
:1002B000333435363738393A3B3C3D3E3F40414296
:1002C000434445464748494A4C4D4E4F505153547C
:1002D000555658595A5B5D5E5F6162646566686930
:1002E0006B6C6D6F7072737577787A7B7D7E8082B0
:1002F000838587888A8C8E8F91939596989A9C9EF9
:10030000A0A2A3A5A7A9ABADAFB1B3B5B7BABCBE08
:10031000C0C2C4C6C9CBCDCFD1D4D6D8DBDDDFE2D5
:10032000E4E7E9EBEEF0F3F5F8FAFDFF000000007A
:10033000000000002A2B2800000000000000000040
:100340000000000000000029000000002C1E3420E6
:10035000212224342627252E362D3738271E1F200C
:100360002122232425263333362E37381F04050651
:100370000708090A0B0C0D0E0F1011121314151695
:100380001718191A1B1C1D2F3130232D3504050693
:100390000708090A0B0C0D0E0F1011121314151675
:1003A0001718191A1B1C1D2F3130354C0000000086
:1003B000000000000000000000000000000000003D
:1003C000000000000000000000000000000000002D
:1003D0007E0F00D4FFFFFFC7000000780C0346002B
:1003E0006500620034003000000012036600650002
:1003F00062007200650065007A0065000000040379
:10040000090409023B00020100A0FA0904000001EE
:1004100003010100092111010001224400070581A7
:100420000308000109040100010300000009211173
:1004300001000122B600070582032000011201001D
:100440000200000008646942000001010200010589
:10045000010902A10185020901A10005091901296B
:10046000081500250195087501810205010930096B
:10047000311581257F95027508810609381581257A
:100480007F950175088106050C0A38021581257FC4
:10049000950175088106C0C005010980A101850389
:1004A00019012AB700150126B700950175108100C2
:1004B000C0050C0901A101850419012AA00215013A
:1004C00026A002950175108100C005010906A10151
:1004D0008506050719E029E715002501950875012E
:1004E00081020507190029EF1500250195F0750116
:1004F00081020508190129059505750191029501EB
:1005000075039101C005010906A101050719E0293C
:10051000E71500250195087501810295017508818F
:10052000010507190029FF150026FF00950675082B
:10053000810005081901290515002501950575019A
:100540009102950175039101C00011241FBECFEFE8
:10055000DAE0DEBFCDBF04B603FE18C080910A0505
:1005600090910B05A0910C05B0910D058730904B33
:10057000A740B04B59F410920A0510920B05109247
:100580000C0510920D05E0E0F8E3099512E0A0E0FB
:10059000B1E0EEE5F2E602C005900D92A036B1079B
:1005A000D9F725E0A0E6B2E001C01D92AA30B2075B
:1005B000E1F70E9460180C94D9300C940000CF939E
:1005C000DF93EC010E94101291E0811190E098837A
:1005D00021E0982F917109F420E02983982F9170E0
:1005E0009A8384FB992790F99B8321E0982F947438
:1005F00009F420E02C8382FB992790F99D8386FBE8
:10060000992790F99E8321E0982F987809F420E0AB
:100610002F8383FB992790F99887982F991F992703
:10062000991F998721E0982F927209F420E02A8778
:1006300081FB992790F99B8785FB882780F98C8718
:10064000CE01DF91CF910895803E910551F46093E2
:10065000F4026093F302863E9105D9F46093F802A8
:100660000EC0843E910571F0833E910571F0873E86
:100670009105B9F0823E910571F76093F70260939E
:10068000F60208956093F502E4CF6093FA02609356
:10069000F902813E910549F46093FD026093FC02EA
:1006A00008956093FB026093F902853E910509F07D
:1006B00008956093FE02F2CF882321F0862F0E94D6
:1006C00013120895862F0E9419120895CF93DF9375
:1006D000C2EFD2E061E08A810E945C0360E18B811D
:1006E0000E945C0368E088850E945C0360E889855D
:1006F0000E945C0364E08D810E945C0360E48E8153
:100700000E945C0362E08B850E945C0360E28C8542
:100710000E945C03DF91CF9108958F359E4781F44D
:10072000FB018581882369F0909100039F5F917898
:1007300097FF03C091509E6F9F5F909300030895B1
:1007400080E00895EF92FF920F931F93CF93DF9372
:100750007C01EB0180910001909101010E94100841
:100760008C010097C9F0FC0180818823A9F0CD811C
:10077000CC2361F0C7010E949708809100019091FD
:1007800001010E949708C8010E94D0228C2FCDB78A
:10079000DEB7E6E00C946230C0E0F8CFEF92FF9253
:1007A0001F93CF93DF937C01FB012181C0818C2FAC
:1007B00090E0EC01CC0FDD1FC80FD91F84E2289F09
:1007C000C00DD11D1124CE59DD4F1881858188239C
:1007D00029F1111130C01091FF021123C1F081E005
:1007E000888380910001909101019A83898360E060
:1007F000C7010E94240361E089819A810E94240339
:10080000C7010E94970889819A810E948108812FDF
:10081000DF91CF911F91FF90EF9008951123B9F3CD
:10082000188289819A810E94970860E089819A8163
:100830000E942403ECCF10E0EACFADE0B0E0E3E2A9
:10084000F4E00C943A303C012B010E948D03182FE8
:100850008111A5C0C30190528115904328F4F20183
:100860008681807F09F48AC01092FF027092010194
:1008700060920001CE0101960E94DF028DE0FE0130
:100880003196A2EFB2E001900D928A95E1F78FEFD9
:100890000E941912F201858161E0811101C060E0BE
:1008A000C3010E942403A090F202B090F302C09012
:1008B000F402D090F502E090F602F090F702009179
:1008C000F8021091F9022091FA023091FB02409156
:1008D000FC025091FD026091FE0280910001909116
:1008E00001010E943E071C018F3F980721F0909361
:1008F00001018093000180900003082C000C9908EE
:10090000A090F202B090F302C090F402D090F502F1
:10091000E090F602F090F7020091F8021091F902CF
:100920002091FA023091FB024091FC025091FD02AD
:100930006091FE0280910001909101010E94F407F4
:100940008F3F980721F090930101809300012822A6
:10095000392281E09FEF2916390609F480E080935F
:10096000FF02EFEF2E163E0671F08091000190918C
:100970000101892B41F411E00E946603812F2D961D
:10098000E2E10C945630B201C3010E94A20381112E
:10099000F2CFB201C3010E94CE03182FEDCF10E0B9
:1009A000EDCF809100019091010108954F925F92E7
:1009B0006F927F928F929F92AF92BF92CF92DF926F
:1009C000EF92FF92CF93DF93CDB7DEB728970FB6A4
:1009D000F894DEBF0FBECDBFE62EF42E682F70E078
:1009E00090E080E00E94092E20E030E04FE753E4E1
:1009F0000E94662D4B015C016E2D70E090E080E05E
:100A00000E94092E20E030E04FE753E40E94662D5B
:100A10002B013C016F2D70E090E080E00E94092ED8
:100A200020E030E04FE753E40E94662D6D837E8323
:100A30008F8398879B01AC01C301B2010E94442EB1
:100A40009B01AC01C501B4010E94442E6B017C01E5
:100A50002D813E814F815885C301B2010E94632ED2
:100A60009B01AC01C501B4010E94632E9B01AC0146
:100A7000C701B6010E94F42C69837A838B839C831F
:100A800020E030E0A9010E94612D882309F4B3C061
:100A9000A7019601C501B4010E94612D81116FC0AB
:100AA0002D813E814F815885C301B2010E94F42CF3
:100AB00029813A814B815C810E94662D20E030E0E3
:100AC00040EC50E40E948D2E20E030E040E752E4FC
:100AD0000E945E2F4B015C0120E030E0A901C701BC
:100AE000B6010E94612D412C512C3201882351F016
:100AF000A701960169817A818B819C810E94662D74
:100B00002B013C0120E030E04FE753E4C501B40184
:100B10000E945E2F20E030E044EB53E40E94662DFB
:100B20000E94D82DA62E20E030E04FE753E4C30109
:100B3000B2010E945E2F0E94D82DB62E20E030E038
:100B40004FE753E4C701B6010E945E2F0E94D82DE3
:100B5000862FB50128960FB6F894DEBF0FBECDBF25
:100B6000DF91CF91FF90EF90DF90CF90BF90AF904B
:100B70009F908F907F906F905F904F900895A70106
:100B80009601C301B2010E94612D811115C0A5011A
:100B900094016D817E818F8198850E94F42C29813A
:100BA0003A814B815C810E94662D20E030E040E07C
:100BB00050E40E94F52C88CFA70196016D817E81BB
:100BC0008F8198850E94612D811111C0A30192012E
:100BD000C501B4010E94F42C29813A814B815C81CA
:100BE0000E94662D20E030E040E850E4E2CF60E073
:100BF00070E0CB0169CF812C912C54016DCF809393
:100C0000040360930303409302030E94D604962FCB
:100C1000672F482F892F90E00E94C61F089580E417
:100C20000E943C200E94751F0E94631F8091050353
:100C3000882351F083E00E94931F80E00E94B60D4C
:100C400083E00E94B60D089582E0F5CF8091B00157
:100C5000882389F08091050320E040E060E0811165
:100C600006C020910203409103036091040388E1D0
:100C700090E00E944C1C81E00895823071F0833036
:100C800041F0813071F44AE46FEF83E00E94FF0588
:100C9000089540E06FE68FEFF9CF4FEF6BE385E00B
:100CA000F5CF809100034FEF813011F46FEFF3CF58
:100CB00060E088E8EBCF0F931F93CF938C010E94E5
:100CC0009309C82F809101038C1729F08C2F0E9463
:100CD0003D06C0930103C801CF911F910F91089564
:100CE00080E00E943D060E940F0680E00E94B60D43
:100CF0000895CF93FB01C581CC2389F09C01295530
:100D00003E4722303105A8F489359E4759F4809139
:100D1000050391E08927809305030E940F068C2F1D
:100D2000CF9108958091B00191E089278093B0011F
:100D3000F4CFC0E0F4CFFB012581AC014B7F403EF6
:100D40005105E1F420930703823E910539F08E3678
:100D5000910531F480910003813011F42093080350
:100D600080910703811117C080910903811113C07D
:100D700080910803817080930A030895433E5105D2
:100D800039F08D36910501F730910003313041F78C
:100D900020930903D9CF81E090E0ECCF9C01FB01C7
:100DA000958180910A03811119C0809106038823DF
:100DB000C1F0911116C080E00E94B60D109206039A
:100DC00008958091060381110CC0992351F081E0B0
:100DD0000E94B60D81E08093060308952B32310501
:100DE00081F308950E94700608959C019D7F8C32C6
:100DF000914451F02C3282E4380731F081E0211522
:100E00003C4719F080E0089581E00895EF92FF9249
:100E10000F931F93CF93DF937C018B010E94F50604
:100E2000C82F811117C0B801C7010E941D04D82F17
:100E30000E94D1047C01B8010E94790681110AC088
:100E4000C1E0CD27B801C7010E949B06B801C701C8
:100E50000E94CE068C2FCDB7DEB7E6E00C94623050
:100E60008C3222E4920739F09D7F8C32914419F044
:100E700088EC90E008958DE790E00895ADE0B0E053
:100E8000E4E4F7E00C944230A982BA8289329105F9
:100E900039F4E110A3C0442391F085E390E01AC037
:100EA0008832910539F48AE290E0411113C08FEF46
:100EB0009FEF10C081152EE7920709F492C02A8196
:100EC0008433910559F4411105C08981882379F350
:100ED00084E392E02D96EAE00C945E308D3232E0AD
:100EE000930719F4442319F3F5CF8E329105D1F30A
:100EF0008F32910529F486E392E04423C1F2EACFD0
:100F00008033910529F487E392E0442381F2E2CF14
:100F1000863232E0930729F48FE292E0442339F2DB
:100F2000D9CF873232E0930731F480E392E0442353
:100F300009F4BDCFCFCF843232E0930731F480E49F
:100F40009EE7442309F4B3CFC5CF813332E0930742
:100F500031F48FE19EE7442309F4A9CFBBCF863358
:100F6000910531F48EE192E0442309F4A0CFB2CF91
:100F70008733910531F488E392E0442309F497CF55
:100F8000A9CF8833910531F481E390E0442309F43B
:100F90008ECFA0CF8A34910531F48BE490E02223E8
:100FA00009F485CF97CF8D34910531F48EE490E02C
:100FB000222309F47CCF8ECF8632910531F485E36C
:100FC00092E0442309F473CF85CF8D9709F06FCF5A
:100FD00087E590E0442309F46ACF7CCF8BE290E070
:100FE00079CF88E292E176CFADE0B0E0EAEFF7E0CA
:100FF0000C94403021E08216910479F4833E9105EF
:1010000049F0823E910549F48EE690E02D96ECE0A1
:101010000C945C308DE690E0F9CF8FEF9FEFF6CF28
:101020008F312EE7920751F080342EE7920749F076
:1010300081349E4749F483ED91E008958DEC91E071
:10104000089580ED91E0089582ED91E00895843057
:10105000B8F46430A8F44C3098F450E09CE0699FF8
:10106000400D511D1124FA0190E3899FE00DF11DFF
:101070001124EE0FFF1FE455FF4F859194910895C1
:1010800081E090E008950E94270808959C013A9518
:1010900021153F4150F5FC01EE27F170BC01662798
:1010A0007270AC01442754709C012227387094FF61
:1010B0000EC080E1EF2B09F480E0672B09F080621D
:1010C000452B09F08064232B89F08068089581E026
:1010D000EF2B09F480E0672B09F08260452B09F0C3
:1010E0008460232B19F08860089580E00895CF93E1
:1010F000DF93EB010E944608FE010995DF91CF9135
:101100000895CF93DF93EC01805E9109089720F05A
:1011100068E17DE0209711F46AED7AE0CE010E944B
:1011200077088C2F0E94390ADF91CF910895CF93D1
:10113000DF93EC010E94860ACE01805E9109089738
:1011400020F06FE17DE0209711F461EE7AE0CE01AE
:101150000E947708DF91CF91089581E008950E9461
:10116000AD08089581E008950E9406070895089546
:101170000E94B7080895A6E0B0E0E1ECF8E00C9416
:10118000493049835A839E833091100389819A8123
:1011900031111AC03E81332399F0222389F00E9435
:1011A000880E182F682F89819A810E94640E6981A8
:1011B0007A81812F0E94C4152696E3E00C94653055
:1011C0000E94760E182FF3CF0E94880E69817A81D3
:1011D000F1CFFC01262F408151816281738184818E
:1011E00095810E94BB080895CF93DF93EC0161E0E5
:1011F0000E94E908BE010E94AF08DF91CF910895D7
:10120000CF93DF93EC0160E00E94E908BE010E94E9
:10121000B808DF91CF91089508950E943C0D0E9477
:101220000C092FEF84E39CE0215080409040E1F7CF
:1012300000C0000008950E940D090E943126089503
:101240000E940D090E94552608950F931F93CF9376
:10125000DF938C0161E00E94E908EC01B8010E9473
:10126000B408811106C080E0DF91CF911F910F91EA
:101270000895B801CE010E946D238823A1F3B8011F
:10128000CE010E943121882371F3B801CE010E9462
:10129000D422882341F3B801CE010E94AE208823D6
:1012A00011F3F8018581882361F0C330FCE7DF0783
:1012B000E9F058F4C115ECE7DE07A9F0C130DC47CE
:1012C000B9F0C8010E94B208CFCFCB358CE7D80760
:1012D000A9F0CC35ECE7DE0771F0CA35DC4789F7B9
:1012E0000E940213EECF0E941B09BDCF0E940A1379
:1012F0000E942009B8CF0E94F812E3CF0E94061383
:10130000E0CF0E9446250E940A1E0E94D40981E077
:101310000E942D1F08950E94D80980E00E942D1F71
:101320000E944B250895292F332740E021153105D0
:1013300011F0C90148E09C0164E0369527956A9553
:10134000E1F72115310511F04C5FC9019C0136957B
:101350002795369527952115310511F04E5FC90166
:1013600096958795892B09F04F5F842F08950895EE
:1013700081E008950895CF93DF93D82F0E94B80994
:10138000C82F882319F08D2F0E94BA098C2FDF9166
:10139000CF9108950895CF93C82F0E94B7098C2F3D
:1013A0000E94BB09CF91089580E00E94CB09089567
:1013B0000E94B6230E94CB090895CF930E94B623C2
:1013C000C82F80910B038C1779F0C0930B030E94F8
:1013D000D62560930C0370930D0380930E039093B6
:1013E0000F038C2F0E94CB09CF910895ADE0B0E0A0
:1013F000ECEFF9E00C944A30488759876A877B877D
:101400008C879D8791110E9430121F8286E0FE0119
:101410003896DE01119601900D928A95E1F78D8143
:1014200081110DC029813A814B815C816D817E8162
:101430008F810E9463112D96E2E00C946630CE01FC
:1014400001960E94F4088111EDCFF5CFFC012481B3
:10145000213021F4808191810E94BA0E0895662383
:1014600029F00E94F7180E94CA1908950E94511984
:10147000FACFCF93C82F8823B9F08CEF8C0F813A25
:10148000A8F46C2F8091B1019091B2010E9449247F
:10149000882329F08C2F0E94F0110E9469128C2F52
:1014A0000E94E8110E946912CF91089580E28C0F8A
:1014B000883048F4C77081E001C0880FCA95EAF708
:1014C0000E941312EFCFEBE5EC0FE33040F4F0E0B5
:1014D000E45FFD4F808190E00E94EB23E5CFE8E5DB
:1014E000EC0FEB3150F4F0E0EE0FFF1FEA52FE4F2D
:1014F000808191810E941024D7CF83E38C0F8331A8
:1015000098F661E08C2F0E942F0ACECF882381F1BC
:101510009CEF980F913A28F40E94F0110E946912F2
:10152000089590E2980F983050F4877091E001C0D0
:10153000990F8A95EAF7892F0E941912EFCF9BE540
:10154000980F933028F490E080E00E94EB230895F8
:1015500098E5980F9B3128F490E080E00E941024D9
:10156000089593E3980F933118F460E00E942F0AD6
:1015700008951F93CF93DF93182FEB010E94390A30
:10158000209739F4812F0E94860ADF91CF911F9115
:1015900008958FE99FE00197F1F700C000002197BF
:1015A000EFCF70E060E0893311F460E570E00E94F5
:1015B000B90A0895882321F00E9413120E9469122B
:1015C0000895882321F00E9419120E94691208953B
:1015D000B0E0A0E0EEEEFAE00C9443306C01D62FC0
:1015E000C72FFC011581068102950F700E94091218
:1015F000E82E8823E9F0E12E1123D1F08C2F807F93
:10160000803451F080E28D0F8830F8F0011104C071
:101610008C2F807E8032C9F08091350482FF15C006
:1016200082E00E94CC120E94091291E0E82EE92685
:10163000BC2EB2949FE0B922FBE0FB15B8F1EB2D74
:10164000F0E0E552FF4C0C943430E12CF1CF0C2F3C
:101650000F70C07F11F00295007F112399F00023D5
:1016600059F080E28D0F883010F0D11107C0802F23
:101670000E9413120E9469128D2F5AC0802F0E945F
:101680002312F8CF8D2F0E94860A002379F080E282
:101690008D0F883010F0D11104C0802F0E941912D4
:1016A00003C0802F0E9429120E946912EB2DE8507E
:1016B000FF0B349720F40E94B6230E94CB09EE2042
:1016C00089F00E94051280FD0DC0F60115820E946E
:1016D000FF110E94C20DC6010E94F50C0E94FF116D
:1016E0000E94D20DCDB7DEB7E9E00C945F302C2F0D
:1016F0002F70F22EC07FC03219F0F29480EFF822E2
:10170000DD2341F0D130D1F1112309F444C000238D
:10171000F1F0B2CF8091350482FD15C0112359F04C
:10172000FF2029F08F2D0E9413120E94691280E081
:101730000E94390ABBCF80E00E94860AFF2009F48C
:10174000B5CF8F2DABCF112369F0011104C08F2DC0
:101750000E94DA0AABCF013009F0A8CF8F2D0E948A
:101760004712A4CF0111A2CF8F2D0E94E10A8F2D25
:101770000E9453128F2D0E94371298CF112321F00F
:10178000063008F093CFE3CF053008F08FCF8F2DD0
:101790000E94E10A8BCF0023D1F3D93349F43FEF04
:1017A00087EE93E0315080409040E1F700C00000A8
:1017B0008D2F0E94860A7ACF8C2F8695869583700E
:1017C00069F0813009F072CF8D2F9C2F9370111129
:1017D00002C080E090E00E94102468CF8D2F9C2FE3
:1017E0009370111102C080E090E00E94EB235ECF65
:1017F000612F8D2F0E942F0A59CF8C2F8370A1F556
:10180000111154CF4D2F429546954770440F440F08
:101810002D2F2F7030E0042E02C0220F331F0A94A8
:10182000E2F790E080E0D4FF09C08FE090E002C0D2
:10183000880F991F4A95E2F780959095C695C695B1
:10184000C370822B932BC23049F058F4C13019F089
:101850000E94950D2BCF0E948C0D28CF0E949E0DCB
:1018600025CF0E94890D22CF8695112311F08C2F50
:101870008170882309F41ACF4D2F42954695477001
:10188000440F440F2D2F2F7030E0042E02C0220F82
:10189000331F0A94E2F790E080E0D4FF09C08FE0A4
:1018A00090E002C0880F991F4A95E2F780959095C5
:1018B000C695C695C370822B932BC23049F058F45D
:1018C000C13019F00E94FD0DF1CE0E94F40DEECE54
:1018D0000E94060EEBCE0E94AA0DE8CECF70112317
:1018E00029F08C2F0E94C20D8D2F32CF8D2F0E9498
:1018F000E10A8C2F0E94D20DD9CED23F41F160F483
:10190000D03FB9F0D13F81F0112309F446C0011155
:10191000B3CE8C2F8F711FC0D33F01F1D43FA1F7FD
:101920008091350482FD24C08C2F8F71112311F317
:1019300012C0112341F0053008F0B8CE8C2F8F7102
:101940000E94E40DB3CE063008F0B0CEF7CF8C2F56
:101950008F711111CFCF0E94C20DA8CE112329F093
:101960008C2F8F710E94B60DA1CE0E94B10D9ECE1C
:10197000112349F0CF718C2F0E94C20D63E08C2F90
:101980000E94AE1293CE81E00E94CC12023008F485
:101990008DCE82E00E94CC1289CE002359F0D9333B
:1019A00009F006CFEFEFF7EE23E0E150F0402040E2
:1019B000E1F7FCCE8C2F8F719DCF0F931F93CF93A8
:1019C000DF93EC01688179818D810E94C50E8C01C5
:1019D0000E940F0E0E94880DB801CE010E94E80AF5
:1019E000DF91CF911F910F910895CF93DF93EC0179
:1019F0008C81882399F0CE010E942509811111C0A4
:101A00000E940912882351F08D81882339F080913A
:101A1000350482FF03C082E00E94CC12DF91CF9197
:101A20000895CE010E94DD0CCE010E940009F6CF80
:101A3000882321F00E9423120E94691208958823AE
:101A400021F00E9429120E946912089590E080E01E
:101A50000E94EB2390E080E00E9410240E9430124C
:101A60000E9469120E94E6190E94CA1908950E94F4
:101A7000F8110E94260D08950E9420120E94370D31
:101A8000089592959F70963091F058F4925F9F70F0
:101A9000923058F4803F19F030F4883E30F481E001
:101AA00008959A5FF4CF843FD1F380E00895883E93
:101AB000B0F3813FD1F7F3CFFC012481222339F029
:101AC000808191810E94BA0E0E94410D089580E0AC
:101AD0000895A6E0B0E0EFE6FDE00C944A302696CB
:101AE000E2E00C946630A7E0B0E0E9E7FDE00C949A
:101AF0004A302796E2E00C94663008950E947D0DEE
:101B000008950E947E0D90932C0380932B030895DB
:101B100008950E94810D089520912B0330912C038C
:101B2000822B932B0E94810D089520912B033091DD
:101B30002C03822393230E94810D089520912B036F
:101B400030912C03822793270E94810D08950E94D3
:101B50005B0608950E94A70D90932A0380932903A2
:101B6000089590E080E00E94AA0D089521E030E001
:101B7000A90102C0440F551F8A95E2F7CA010E94CD
:101B8000AA0D089521E030E002C0220F331F8A958C
:101B9000E2F78091290390912A03822B932B0E94D4
:101BA000AA0D089521E030E002C0220F331F8A956C
:101BB000E2F7209530958091290390912A038223A2
:101BC00093230E94AA0D089521E030E002C0220F65
:101BD000331F8A95E2F78091290390912A03822787
:101BE00093270E94AA0D08952091290330912A037A
:101BF000822B932B0E94AA0D0895209129033091E6
:101C00002A03822393230E94AA0D08952091290379
:101C100030912A03822793270E94AA0D08950895E0
:101C2000262F277091E001C0990F2A95EAF723E04B
:101C3000769567952A95E1F7660F771F660F771FF0
:101C4000FA01E60FF71F50E040E0682F70E0819145
:101C5000DF0111979B01042E02C0369527950A9447
:101C6000E2F7217021952827292328272C934F5FFD
:101C70005F4F4430510559F70895A82FA77023E00E
:101C8000969587952A95E1F7880F991F880F991FD8
:101C9000FB01E80FF91F50E040E080E0219130E0C7
:101CA0000A2E02C0369527950A94E2F72170332751
:101CB000042E01C0220F0A94EAF7822B4F5F5F4F78
:101CC0004430510559F70895262F943070F48C3024
:101CD00060F4682F70E08CE0989F600D711D1124F6
:101CE00041E153E0822F0E94100E0895292F943075
:101CF00068F48C3058F490E061E173E03CE0239F9D
:101D0000800D911D11240E943D0E089580E00895DC
:101D1000B0E0A0E0EEE8FEE00C9443307C010091DE
:101D2000290310912A0380912B0390912C03082BF7
:101D3000192BCFE0D0E0CC24C394D12CBC2EC6010B
:101D40000C2E02C0880F991F0A94E2F7802391237A
:101D5000892B49F4219790F7B12C8B2DCDB7DEB7A5
:101D6000E9E00C945F30B7018C2F0E94D0150197E9
:101D700089F3F3CFCF93DF93EC010E94880EBE016D
:101D80000E94D015DF91CF9108951F93CF93DF93D9
:101D9000EB0190911003992339F0CB010E94BA0E08
:101DA000DF91CF911F910895882369F0CB010E94A4
:101DB000880E182F682FCE010E94640EBE01812F5D
:101DC0000E94D015EDCFCB010E94760E182FF6CFD2
:101DD0001F93CF93DF93C0912D0317E080912E03C3
:101DE0008C1304C0DF91CF911F910895D0E01C9F08
:101DF000F0011D9FF00D1124E15DFC4F2081318128
:101E0000428153816481758186810E94730D219680
:101E1000C770E4CF20916703309168034091690354
:101E200050916A0360916B0370916C0380916D0314
:101E30000E94730D0895482F20912D0390912E0339
:101E400057E0291302C080E0089530E0529FF0016E
:101E5000539FF00D1124E15DFC4F8181681306C092
:101E60008081481303C085818111EECF2F5F3F4FE2
:101E70002770E7CFB0E0A0E0E0E4FFE00C9445304D
:101E800080916D03807F09F054C080916C0388239A
:101E900009F44FC0E0912D0387E0D82E80912E03E6
:101EA0008E1709F446C00E2F10E0ED9DF0011124AD
:101EB000E15DFC4F8481882309F440C0D09EE0019D
:101EC000D19ED00D1124FE01E15DFC4F91818091E6
:101ED0006803981333C090818091670398132EC0D4
:101EE000858181112BC0E280F380809169039091FC
:101EF0006A03E81AF90A60E087E693E00E94E908BD
:101F000067E673E00E943007E816F906B8F480919E
:101F10006D038F70806180936D03CB5CDC4F888193
:101F20008F708061888387E693E00E94F50C0E94A1
:101F3000E80ECDB7DEB7E7E00C946130F8013196DA
:101F4000E770ACCFA4E1B0E0E8EAFFE00C943D30EC
:101F50008C0186E0F801DE011F9601900D928A95B2
:101F6000E1F7F801F480E58087E6882E83E0982E7B
:101F700080916B03811126C0F11007C0FF24F394F8
:101F80008F2D6496EFE00C945930EE20B9F0C80123
:101F90000E945C0DF82E882389F087E0F801A7E6FF
:101FA000B3E001900D928A95E1F787E693E00E94F5
:101FB000260A0E943A0F0E940A0FE2CFC8010E942F
:101FC000F50CDCCF5080A180C280D380B0906C0330
:101FD0008091690390916A033601681A790A60E07A
:101FE00087E693E0BB2009F408C10E94E90867E690
:101FF00073E00E9430076816790608F0ABC0FF2036
:1020000009F4BCCF80916D03382F307F2091680395
:10201000F801918131115AC0FE2C291316C020916C
:1020200067039081291311C0E11049C08F7080614E
:1020300080936D030E940A0F87E693E00E94F50CDF
:1020400080916D03F80186839BCFE11038C06A2D23
:10205000852D0E941B0F6A2D852D0E941B0FE82ED7
:1020600081118ECF5F86A88A8F8598890E94BA0ECB
:10207000292F22952F70243058F49F70223088F039
:10208000992399F0F8019681907F79F4FE2C78CF0E
:102090002A5F2F70223068F0C8010E94F50CEB2CEB
:1020A000F5CF992311F0882389F3805E883070F38F
:1020B000F3CF803F58F3815F833070F7E7CF809193
:1020C0006D03816080936D03F12C5ACF291317C0E3
:1020D000209167039081291312C0E11010C08683FC
:1020E000C8010E94F50C87E0F801A7E6B3E0019073
:1020F0000D928A95E1F70E940A0FFB2C41CFC8018F
:102100000E945C0D882309F459CFEE2009F456CFC4
:1021100080916D03803288F02091670330916803CD
:1021200039872887DB86CA8690916B039C871D863A
:102130008E87CE0108960E94F50C87E0F801A7E68D
:10214000B3E001900D928A95E1F70E943A0F0E9448
:102150000A0F14CF80916D03982F907FB1F46C2DEE
:10216000DA8AC98A452D5A2D7A898F2D9E2D0E9493
:10217000690D87E693E00E94F50C87E0F401119267
:102180008A95E9F70E940A0F9FCFFF2009F4F6CE47
:1021900020916803F8019181291311C020916703F0
:1021A000908129130CC0E1100AC08683C8010E94E7
:1021B000F50C87E0F40111928A95E9F79ECFC801EA
:1021C0000E945C0D882309F4F9CEEE2009F4F6CEC6
:1021D00080916D03803208F4B0CF20916703309175
:1021E00068033A832983DC82CB8290916B039D83C1
:1021F0001E828F83CE0101969ECF0E94E90867E67A
:1022000073E00E9430076816790608F051C0FF207D
:1022100009F4B4CEFE2CEE2009F4D0CE90916803E0
:10222000F8018181981336C09091670380819813DB
:1022300031C08091690390916A03C81AD90AF8ECF9
:10224000CF16D104F0F490916D0390FD1AC0907FE9
:10225000C1F080916D03F8018683903F31F0982F93
:10226000907F905F8F70892B8683C8010E94F50C48
:1022700087E0F801A7E6B3E001900D928A95E1F7B7
:102280009ACE87E0F801A7E6B3E001900D928A9517
:10229000E1F776CEC8010E945C0D81114ECF80918E
:1022A0006D03816080936D03C8010E94F50C68CEB8
:1022B0006C2DDA8AC98A452D5A2D7A898F2D9E2D4B
:1022C0000E94690D5ACFAEE0B0E0E9E6F1E10C946E
:1022D0004930288739874A875B876C877D878E8757
:1022E000CE0108960E94A20F8823B1F06C85662368
:1022F00041F0288539854A855B857D858E850E94DC
:10230000730D17E080912D0390912E0389133DC02A
:102310002E96E3E00C94653087E0FE013896DE01EE
:10232000119601900D928A95E1F78C85882349F3E7
:1023300020912E0330E0C9010196877099274091C2
:102340002D034817190699F097E0929FD001939FAB
:10235000B00D1124A15DBC4FFE01319601900D928C
:102360009A95E1F780932E030E94E80ECACF0E944F
:102370003C0D10922E0310922D0387E0E7E6F3E068
:10238000DF011D928A95E9F7BCCF819FC00111241E
:10239000815D9C4F0E94A20F882309F4B9CFE09180
:1023A0002D031E9FF0011124E15DFC4F208131813E
:1023B000428153816481758186810E94730D809171
:1023C0002D0390E001968770992780932D039ACF73
:1023D000682F8091B1019091B2010E94C9240895A3
:1023E000682F8091B1019091B2010E94D724089585
:1023F0008091B1019091B2010E94E52408958091ED
:102400008E03869586958695089580918E038770B4
:10241000089590918E03977081E009F480E008950B
:102420008091B20308959091B203892B8093B203F7
:10243000089580959091B20398239093B2030895E4
:102440001092B20308959091B103892B8093B10348
:10245000089580959091B10398239093B1030895C6
:102460001092B103089508950E9433120895909137
:102470008F03292F282331F08095892380938F03A0
:102480000E943412089508950E9443120895909175
:102490009003292F2823281729F0982B9093900335
:1024A0000E944412089590919003292F282331F01F
:1024B00080958923809390030E944412089580910F
:1024C0009003882329F01092900380E00E94441228
:1024D0000895CF93DF93E091B101F091B201809123
:1024E000B2038083E091B101F091B20180819091BB
:1024F000B103892B808390919003992381F0E0911F
:10250000B101F091B2018081892B80838091B1016A
:102510009091B2010E94352481110E945F12C091F6
:10252000B101D091B20140E250E06EE673E0CE011D
:102530000E947130892B59F080E2FE01AEE6B3E0D3
:1025400001900D928A95E1F7CE010E94C323DF919D
:10255000CF91089508950E94AA120895909135048C
:1025600092FF11C098E0899F90011124622B609323
:102570008E030E94C20D80918E0386958695869566
:102580000E94AB1208950E94C20D089510928E030E
:1025900080E00E94AB12089590918E03809589236C
:1025A00080938E03282F277069F4891759F0909132
:1025B000350492FF07C08695869586950E94D20DB8
:1025C0000E94C61208959091350492FB222720F9AB
:1025D000281769F080FB92F99093350480913404B8
:1025E000909135040E942B1382E00E94CC12089532
:1025F0008091350482FB882780F991E089270E9429
:10260000E312089581E00E94E312089580E00E94A1
:10261000E31208956FEF7FEF90E080E00E94D330E7
:10262000089590E080E00E949F3021E0863E9E4F1A
:1026300009F020E0822F089582E090E00E94973018
:10264000089583E090E00E949730089584E090E040
:102650000E949F300895BC0184E090E00E94D33036
:102660000895AB01BC018FE090E00E94C73008954F
:10267000AB01BC0183E190E00E94C730089560E0A7
:1026800070E0CB010E943813089560E070E0CB0148
:102690000E9431130E943F130895A8E0B0E0E3E5E3
:1026A000F3E10C944A3066EE7EEF90E080E00E9409
:1026B000D33060E082E090E00E94B53060E083E0DB
:1026C00090E00E94B53010922C0310922B0360E032
:1026D00074E184E090E00E94D33060E086E090E016
:1026E0000E94B5306FEF87E090E00E94B53040E087
:1026F00050E0BA0188E090E00E94C73060E084E2D8
:1027000090E00E94B53060E087E190E00E94B53033
:1027100060E08CE090E00E94B53060E08DE090E0F9
:102720000E94B53019821A821B821C821D821E8271
:102730001F82188648E050E068E170E0CE01019603
:102740000E94A53040E050E0BA0180E290E00E9493
:10275000C7300E9445132896E2E00C9466300E9430
:102760004D130895682F8EE090E00E94B5300895D3
:10277000A6E0B0E0EEEBF3E10C9448300E94CA25ED
:102780008C018091B3039091B4038017910781F07D
:1027900019821A820E94CA25682F49815A81792F8D
:1027A00080E090E00E94F6091093B4030093B30315
:1027B0002696E4E00C9464300E94D6256093C10311
:1027C0007093C2038093C3039093C4036093BD03CB
:1027D0007093BE038093BF039093C0030895089540
:1027E00008950E94EF1308950E94F206089586EC62
:1027F00096E10E946D180E94F0130E94F113089553
:1028000081E008950E94001408950E940014089524
:10281000089508950E9408140E94091408950E94C2
:10282000E5160E94CA090E94C61E08950E94C1258D
:102830000E94C1170E940F14E4E3F4E080818068D5
:10284000808380913404909135040E942B130E9460
:10285000F4130895A6E0B0E0E0E3F4E10C943E3018
:102860000E94021481110CC00E94B8130E940A1E1B
:102870000E94081A0E94DD092696EEE00C945A3058
:102880000E94D71725EB822E23E0922E640110E0E0
:10289000F601E190F1906F01812F0E940B171F5FED
:1028A000143009F44EC0E816F90691F38091C5037F
:1028B00081FD0E9414170E940514682E10E0812FDC
:1028C0000E940B177C01F401A190B1904F018A1571
:1028D0009B0589F1A826BF2400E0CC24C394D12C09
:1028E000C5018C219D21892BE9F077247394C701C0
:1028F0008C219D21892B09F4712C662071F00983AC
:102900001A830E94CA25682F8B839C8349815A8130
:10291000792F81E0972D0E94F609472D602F812F96
:102920000E94061D0F5FCC0CDD1C0C30C9F6F401B3
:102930003297F182E0821F5F143009F60E94DC13A7
:1029400095CFE816F90609F0B1CF8ECF1F93CF933C
:10295000DF930E94D515EC01C11580E5D807F0F58D
:10296000C11580E4D80708F09CC0C03ED10520F511
:10297000CD3CD10508F082C0C83AD10578F4C53AFB
:10298000D10508F073C0C130D10519F1209709F1C4
:10299000C430D105F0F4D0E0C0E01BC0C33CD10589
:1029A000D0F7C85AD0E0CC0FDD1FC15FDD4F0990D2
:1029B000D881C02DD4640DC0C11580E2D80708F0BD
:1029C000D1C0C11581E0D80708F05AC0C83ED10572
:1029D00010F7CE01DF91CF911F910895C03682E5A7
:1029E000D80718F5C03482E5D80708F06BC0C032AC
:1029F00082E5D80708F05FC0C11582E5D80708F462
:102A000097C02C2F2695269580E2289F90011124AF
:102A10008C2F8370C1E0D0E002C0CC0FDD1F8A95FF
:102A2000E2F7C22BD32BDD68D4CFC03A82E5D807BA
:102A300060F4C03882E5D80708F459C0CF71D0E0FF
:102A4000DC2FCC27C46FD06AC4CFC03C82E5D80746
:102A500008F462C0C03E82E5D80708F09CCFDC2FA6
:102A6000CC27CC27DF71C06FD06AB3CFC55AD0E076
:102A7000CB5BDD4FC881D0E0D064ABCFD065A9CFB0
:102A80008D2F0E947716182FCE0199270E94D515F9
:102A9000C12FD0E0DC2FCC27CC27DF71C82BD92B5E
:102AA00098CFCE0199270E94D515CC27DF70C82B6F
:102AB000D92BD06A8ECFCF71D0E0DC2FCC27C16F5D
:102AC000D06A87CF2C2F26952695277080E2289FE5
:102AD000900111248C2F8370C1E0D0E002C0CC0F94
:102AE000DD1F8A95E2F7C22BD32BDC6872CF2C2F27
:102AF00026952695277080E2289F900111248C2F1F
:102B00008370C1E0D0E002C0CC0FDD1F8A95E2F7F0
:102B1000C22BD32BDA685DCF8C2F8F710E94771672
:102B2000C82FD0E0DC2FCC27CC27DF71D06251CF6B
:102B30008C2F8F710E94771655E0D695C7955A95C0
:102B4000E1F7CF70D0E0DC2FCC27282F30E084FFD6
:102B500005C044E0220F331F4A95E1F7C22BD32B67
:102B6000D06937CF8D2F8F710E947716182FCE0125
:102B700099270E94D515C12FD0E0DC2FCC27CC2778
:102B8000DF71C82BD92BD2CF462F743030F46C3084
:102B900020F4672F0E944308089590E080E0089594
:102BA0000E94C4150E94A614089582389105B9F1B7
:102BB000B0F48133910509F47DC048F48932910560
:102BC00009F46DC08A32910509F47BC008958533FC
:102BD000910509F45FC08933910509F10895833E99
:102BE0009105D9F138F4803E910529F1823E910595
:102BF00079F10895863E9105D9F1873E910509F452
:102C00003EC0843E910541F52091350421FF24C04A
:102C10008091340484FD19C087EE90E008952091DE
:102C20003404237009F05AC02091350423FF14C0E6
:102C300089E290E008952091340420FD38C030915D
:102C4000350430FF09C024FF43C090E080E00895C0
:102C50002091340422FDF7CF08952091340422FD01
:102C60003AC03091350430FD39C024FFF5CFEDCFA7
:102C70002091340423FFF0CF24FDE7CFCDCF209166
:102C8000340423FD2EC03091350431FFEECF84EEA5
:102C900090E008952091340425FFDECFC9CF209124
:102CA000340425FD21C02091350423FFD5CF89E3CD
:102CB00090E0D2CF2091340426FFCECF8AE290E07C
:102CC00008952091340426FFC7CF81E390E0089552
:102CD00083EE90E0089582EE90E0089580EE90E01B
:102CE000089586EE90E0089585E390E00895909130
:102CF000340492FF10C041E0282F2471243009F0E1
:102D000040E031E0282F2871283009F030E04317E7
:102D100011F02CE0822793FF10C041E0282F24718E
:102D2000243109F040E031E0282F2871283109F0E2
:102D300030E0431711F02CE082273091350430FF4A
:102D400010C051E0282F2171213009F050E041E0FE
:102D5000282F2871283009F040E0541711F029E09D
:102D6000822731FF10C041E0282F2171213109F065
:102D700040E031E0282F2871283109F030E0431776
:102D800011F029E0822794FD877E089580E0089560
:102D90000E940A1308950E94D7172FEF86E791E04B
:102DA000215080409040E1F700C000000E94D717FA
:102DB00080E00E940B1780FF04C00E94C8160E948A
:102DC000312608950E94CB1608950E941113811197
:102DD00002C00E94AF130E941C138093C5030E947F
:102DE000261390933504809334040E94E2160E94C7
:102DF000211390E00E94890D8091290390912A036C
:102E00000E94A70D089508950E940317089508953C
:102E10000E9407170895E82FF0E0EE0FFF1FE25C15
:102E2000FB4F808191810895089580EA8A95F1F79A
:102E3000089500C008950E9415170895F894E82F8A
:102E4000E295EF70F0E031A1282F2F7081E090E043
:102E500001C0880F2A95EAF7982F9095932391A3A4
:102E600092A1892B82A378940895CF93DF9385E96B
:102E70000E941E1786E60E941E1786E30E941E17F8
:102E800086EC0E941E17C8E4D2E089918F3F11F0B2
:102E90000E941E1782E0C435D807B9F7DF91CF91A1
:102EA0000895AF92BF92DF92EF92FF920F931F931C
:102EB000CF93DF938C01D62EC62FD0E0CE018C5A53
:102EC0009D4F7C01FC0120812F3F09F44DC0F894F7
:102ED000E22FE295EF70F0E031A12F7081E090E0F9
:102EE00001C0880F2A95EAF7932F982B91A392A1FE
:102EF0008095892382A378940E941917E8E4F2E070
:102F000044E552E021E030E0B12CA12C61916F3F0B
:102F1000A9F1A62FA295AF70B0E090968C9190E0A9
:102F20006F7002C0959587956A95E2F780FD26C07F
:102F3000C901A82AB92A220F331F4E175F0731F79C
:102F4000F70180818F3F11F00E941E1761E0A114EC
:102F5000B10409F460E08D2D0E941B17CC0FDD1F1A
:102F6000C00FD11FB982A882DF91CF911F910F911D
:102F7000FF90EF90DF90BF90AF90089590E080E0D9
:102F8000D8CF0E94351788E0EEE3F4E0DF01982FF8
:102F90001D929A95E9F7E6E3F4E0DF011D928A9528
:102FA000E9F784E00E9412180E9404170895A8E02F
:102FB000B0E0EDEDF7E10C9447308E010F5F1F4F4D
:102FC00088E0F80111928A95E9F7F12C6F2DC8017C
:102FD0000E945117F394F4E0FF12F8CF48E050E05C
:102FE000B80186E394E00E94713021E0009709F473
:102FF00020E0892B41F088E0F801A6E3B4E00190DD
:103000000D928A95E1F744E06EE374E086E394E084
:103010000E941318182F0E940817812F2896E5E0A8
:103020000C9463300895CF92DF92EF92FF921F933A
:10303000CF93DF936C017B01C42F222349F081E001
:103040008093C8030E94CA259093C7038093C60348
:103050001091C80311110AC010E0812FDF91CF91A8
:103060001F91FF90EF90DF90CF9008958091C6035D
:103070009091C7030E94E225059770F3D0E0CC0F32
:10308000DD1FAE01B601C7010E947130892B41F0EE
:10309000AE01B601C7010E947E301092C803DDCF99
:1030A00010E0FBCF0E94CA270E9416140E94D72767
:1030B00008950E94DC270E942A140E94F627089592
:1030C0000E9463250E94B0270E94F7130E945218A5
:1030D0000E9459180E940A14FBCF909361028093BA
:1030E00060020895282F35EB2303C001112497FFB8
:1030F00004C080589109892F089580589F4FFBCFB5
:103100008091CF0380FF0DC06091B80170E0660F21
:10311000771F6038710570F56115710569F1862FAB
:10312000089581FF07C06091B80184E0689FB001F5
:103130001124EFCF6091B80182FD0AC08091CE03C7
:103140008823A9F02091B7016091B801821710F08F
:1031500088E0ECCF869FC001112433E0880F991FCF
:103160003A95E1F7622F70E00E94DF2FD2CF68E03E
:1031700070E0D5CF8FE7089581E008958091CF0367
:1031800080FF0CC06091B40170E0759567957595EE
:1031900067956115710549F1862F089581FF06C075
:1031A0006091B40170E075956795F3CF6091B401BB
:1031B00082FD0BC09091CD039923A1F06091B301E2
:1031C0008091B401961738F0682F70E0603871056F
:1031D00000F38FE70895899FC001112470E00E94D9
:1031E000DF2FF4CF61E070E0D7CF81E008958D3C10
:1031F00031F40E94801881958093D30308958E3C0A
:1032000019F40E948018F8CF8F3C31F40E94801886
:1032100081958093D2030895803D19F40E9480180F
:10322000F8CF893D29F40E94BE188093D4030895F5
:103230008A3D21F40E94BE188195F7CF8B3D31F471
:103240000E94BE1881958093D50308958C3D19F492
:103250000E94BE18F8CF9FE2980F983070F4815DFD
:10326000990B21E030E001C0220F8A95EAF78091A6
:10327000D103822B8093D10308958D3D31F4809149
:10328000CF0381608093CF0308958E3D21F4809118
:10329000CF038260F7CF8F3DB9F78091CF03846071
:1032A000F1CF4091D2038D3C59F48091D30387FF35
:1032B0000DC01092D30341110BC01092CE0308C071
:1032C0008E3C81F48091D30318169CF3442381F043
:1032D0008091D4039091D503892B09F05AC01092A4
:1032E000CD0308958F3C49F447FFF0CF1092D203ED
:1032F0008091D3038111ECCFE0CF803D19F41416F7
:10330000ACF3E4CF9091D403893D29F41916F4F677
:103310001092D403DBCF8A3D19F497FFD7CFF8CFB3
:103320009091D5038B3D29F497FFD0CF1092D50310
:10333000CDCF8C3D19F41916CCF3C8CF9FE2980F6E
:10334000983090F4815D990B21E030E0B90102C022
:10335000660F771F8A95E2F7CB0180959091D10394
:1033600089238093D103B2CF8D3D31F48091CF0377
:103370008E7F8093CF03AACF8E3D21F48091CF031F
:103380008D7FF7CF8F3D09F0A1CF8091CF038B7F49
:10339000F0CF08950E94CA259C019091D20380919C
:1033A000D303982B21F03093CC032093CB0390913F
:1033B000D4038091D503982B21F03093CA03209336
:1033C000C90380ED93E00E94DD23089586E0E0EDDF
:1033D000F3E0DF011D928A95E9F71092CE03109277
:1033E000CD031092CF030895FC01828181110EC09C
:1033F000838181110BC08481811108C091E0858196
:10340000811101C090E0892F8170089581E0FCCF87
:10341000A6E0B0E0EEE0FAE10C94493086E0E0EDA1
:10342000F3E0DE01119601900D928A95E1F710927A
:10343000D2031092D3031092D4031092D5038B8140
:103440009C81892B89F08091CB039091CC030E94C1
:10345000E225AC019091CE039923C9F18091B90185
:103460008417150608F440C08D819E81892B91F048
:103470008091C9039091CA030E94E225AC0190910A
:10348000CD03992309F46AC08091B501841715060C
:1034900008F472C0BE016F5F7F4F80ED93E00E9421
:1034A000F724811105C080ED93E00E94F419811189
:1034B0000E94CA1986E0FE013196A0EDB3E00190AA
:1034C0000D928A95E1F72696E3E00C946530209101
:1034D000BA018AE0289F900111242417350720F6AD
:1034E0009F5F9093CE0302C09F3FD1F71B811123B2
:1034F00059F00E9480189FEF11160CF491E0899FFB
:10350000802D11248093D2031C81112359F00E9435
:1035100080189FEF11160CF491E0899F802D1124E3
:103520008093D3038091D203882309F49DCF109117
:10353000D303112309F498CF0E947218882351F005
:103540008093D203812F0E947218882329F08093E0
:10355000D3038ACF81E0F4CF81E0F9CF2091B60187
:103560008AE0289F900111242417350708F092CF94
:103570009F5F9093CD0302C09F3FD1F71D81112320
:1035800059F00E94BE189FEF11160CF491E0899F2C
:10359000802D11248093D4031E81112359F00E94A1
:1035A000BE189FEF11160CF491E0899F802D112415
:1035B0008093D5038091D403882309F46BCF1091B5
:1035C000D503112309F466CF0E947218882351F0A5
:1035D0008093D403812F0E947218882329F080934E
:1035E000D50358CF81E0F4CF81E0F9CFEF92FF927D
:1035F0000F931F93CF93DF93EB01E82FD1110EC0F0
:10360000442321F0F0E0E45DFD4FE4916E2F7E2F26
:103610008E2FCDB7DEB7E6E00C9462300D2F10E0B0
:10362000282F30E0442329F0245D3D4FF9012491F7
:1036300030E0F6E0CF9FC0011124EFEFF0E0BF01D2
:103640000E94CB2FAB018C2F90E0880F991FA5E52E
:10365000A49FB001A59F700D1124861B970B982F76
:10366000990F980FBF01601B710B629FD001639F80
:10367000B00D729FB00D11248B2F9D9FB0011124AE
:10368000672F7727EF01C61BD70BBE01629FE001B2
:10369000639FD00D729FD00D11247F01E91AF108AC
:1036A000E09EB001E19E700DF09E700D1124672F19
:1036B0007727E61BF70BE29F8001E39F100DF29F37
:1036C000100D1124E12F722F4230510599F048F46A
:1036D0004115510569F04130510581F0EB2F8D2FD7
:1036E00007C04430510569F080F046305105B1F70C
:1036F0006E2F8FCFE22F7B2F812FFACFE22F7D2FDE
:10370000F7CFEB2F822F712FF3CF7B2F822FED2F4F
:10371000EFCF41E00E94F61A089530E020E0869F46
:10372000212D969F200D311D1124C9010895CF929E
:10373000DF92EF92FF921F93CF93DF93D62FC72F85
:10374000182FBA0190E080E00E94072E20E030E0C0
:103750004FE753E40E94662D6B017C01AC019B0195
:103760000E945E2FA70196010E945E2FA70196017D
:103770000E945E2F6B017C012DEC3CEC4CE45DE380
:103780000E94612D87FD31C023E333E343E75FE30C
:10379000C701B6010E94592F181634F4C12CD12C40
:1037A00080E8E82E8FE3F82E20E030E04FE753E486
:1037B000C701B6010E945E2F9B01AC0160E070E082
:1037C0008FE793E40E94F42C0E94D82D262F219F8E
:1037D000212D1124822F6D2F7C2FDF91CF911F91EE
:1037E000FF90EF90DF90CF900895C12CD12C7601FF
:1037F000DBCF0E94971B809508959091D603892B6B
:103800008093D603089548E050E068E170E086E4D4
:1038100094E00E94A5301092D60308950E94891B5F
:103820000895E6E4F4E085E080838091CA019091F8
:10383000CB01A091CC0181839283A3838FE7848302
:103840008FEF85830E94031C089580E008950F93F5
:103850001F93CF93DF93C82FD62F8A010E94251C78
:103860009CE0C99FB00111246E5F7E4F6D0F711DEA
:10387000FB0190819F3F29F0F801E80FF11D908333
:103880008F5FDF91CF911F910F910895E0915E02BC
:10389000F0915F0209950895E0915A02F0915B0260
:1038A00009950895B0E0A0E0E8E5FCE10C94423011
:1038B0008C017B01FC01C08189E0C89FC02D1124CF
:1038C00029E0B22EBC0EAB2CFAE2FB1510F49AE202
:1038D000A92E20914A0431E0230F08F42FEF30E0A5
:1038E00050E040E06FEF7FEF80E090E00E94153005
:1038F0006901D0E02C2FCA1550F081E0F9E2FB15E8
:1039000008F480E0CDB7DEB7EAE00C945E30FE014B
:10391000EA57FE4F8081F8019181892311F140918E
:1039200052044150042E000C550B47FF1CC0C60129
:1039300060914A0421E0620F08F46FEF0E948D1B32
:10394000AC01609147047091480480914904F701EB
:1039500009950E940E1C462F282F672FCE010E942A
:103960004C1C2196C7CFFA01EE5AFB4F8189821376
:103970000AC0FA01EE0FFF1FEE5AFB4F818D928DA8
:103980008C159D05A8F241505109CFCFB0E0A0E0C1
:10399000ECECFCE10C9443307C01FC01C08189E03B
:1039A000C89FC02D112419E01C0F012F1B3208F0F5
:1039B0000AE26091470470914804809149040E9492
:1039C0000E1CD62EC72EB82ED0E0C01748F081E0CE
:1039D0001A3208F080E0CDB7DEB7E9E00C945F3032
:1039E000FE01EA57FE4F8081F7019181892331F072
:1039F0002B2D4D2D6C2DCE010E944C1C2196E5CF18
:103A0000E0915C02F0915D0209950895CF92DF92FA
:103A1000FF920F931F93CF93DF93CDB7DEB7289715
:103A20000FB6F894DEBF0FBECDBF182F062FF42EB1
:103A30000E940014882309F44CC0FF2009F457C0E9
:103A4000AE014F5F5F4F602F812F0E94271CF82E21
:103A50000F2D10E08091D703800F912F911D0997B2
:103A60006CF188E090E06C01C01AD10AB80168528C
:103A70007C4FA60188ED93E00E947E30B801605231
:103A80007C4FA60180EE93E00E947E30A601440F99
:103A9000551FB801660F771F60517C4F80EF93E090
:103AA0000E947E30B80168517C4FA60188EE93E0F9
:103AB0000E947E3088E08F198093D7031091D7033E
:103AC000DE01119640E0842F810FF41212C0809322
:103AD000D70328960FB6F894DEBF0FBECDBFDF9197
:103AE000CF911F910F91FF90DF90CF900895F12C0F
:103AF000AFCF5D91252F30E090E0BC0169527C4F43
:103B0000F901EE0FFF1FEE5CFE4F0081FB01018308
:103B1000220F331FF901EE5FFE4F21A9FB01218720
:103B2000518B880F991FFC01E952FC4F128E118EA8
:103B30004F5FC9CFCF93C82F8091BF018C1339C07D
:103B40009091460493702091C00130E081E092177B
:103B5000130609F480E081708093BE0180914B04CC
:103B60009091BD01981739F08093BD0140E060E06D
:103B700080E00E94001DC13041F1CC23E1F0C23051
:103B800049F1C33071F180E09091BC019F5F909347
:103B9000BC0181110CC082E08093BB018091BE0109
:103BA000811105C0C11103C083E08093BB01CF9197
:103BB000089581E0D0CF8091BE01882329F340E0B1
:103BC00060E080E00E94001DDECF8CEB91E00E945F
:103BD000C61CDACF67E97BE18CEB91E00E94521CB6
:103BE000D3CF69EF7BE1F8CF0E942606089581E0EC
:103BF00008950E94F71D0895FC01808199E0899F36
:103C0000802D1124682F8B3208F06AE289500E94BF
:103C1000F91D08954F925F926F927F928F929F92BB
:103C2000AF92BF92CF92DF92EF92FF92CF936091CB
:103C300000047091010480910204909103040E9499
:103C4000F1256B017C010E94D6254B015C0180921D
:103C5000000490920104A0920204B0920304A09187
:103C6000D703E7EDF3E08A2F90E04FEF5FEF60E0DE
:103C700070E04C195D096E097F09A9132AC0809371
:103C8000D70380910404C0E0811108C080914604EC
:103C9000C82FC37019F0C82FC695C6958091BB0177
:103CA000813009F440C0882339F1823009F44BC0D7
:103CB000833009F453C0CF91FF90EF90DF90CF9005
:103CC000BF90AF909F908F907F906F905F904F903C
:103CD0000895218D328D2901712C612C44155505D3
:103CE0006605770520F481509F5F3296C6CF2C0D74
:103CF0003D1D328F218FF8CF1092BC0180924E046F
:103D000090924F04A0925004B092510489E2E7EDE2
:103D1000F3E0A2E5B4E001900D928A95E1F781E02D
:103D20008093BB01C8CF8C2F0E949A1DCC2319F21F
:103D30008091BC01853011F40E94F41D8CEB91E060
:103D40000E94FC1DB8CFC093BF01809146048370D0
:103D50008093C0010E94461C83E0E2CF8091D6038D
:103D600081110E94031C60914E0470914F04809158
:103D70005004909151040E94F12560317105810534
:103D8000910508F498CF1092BB0195CFE0915802AD
:103D9000F09159020995109252048FEF9FEF909382
:103DA0006C0480936B0490936E0480936D049093E5
:103DB000700480936F0490937204809371049093C5
:103DC00074048093730490937604809375049093A5
:103DD00078048093770490937A0480937904109206
:103DE000D7039093F1038093F0039093F3038093B0
:103DF000F2039093F5038093F4039093F703809379
:103E0000F6039093F9038093F8039093FB03809358
:103E1000FA039093FD038093FC039093FF03809338
:103E2000FE030E941113811104C00E94AF130E946F
:103E3000111C81E08093D60348E050E068E170E017
:103E400086E494E00E9487301092D6038091460465
:103E50008C7F11F40E94111C0895CF93C82F8823E2
:103E600091F08091040481110EC00E949A1D10925D
:103E7000BF018091460483708093C0010E94461C5C
:103E800083E08093BB01C0930404CF910895E6E4DE
:103E9000F4E0908121E0922790831092BB010E9470
:103EA000FD1B089581E00E94471F089580914604FC
:103EB000837011F41092BB01809146048C7F816065
:103EC0008093460408950E94561F81E00E94FD1BC6
:103ED000089580914604837011F01092BB01809187
:103EE00046048C7F8093460408950E94691F81E0F8
:103EF0000E94FD1B089590914604937051F081112A
:103F000009C09460909346041092BB01862F0E94D2
:103F1000FD1B0895843010F09C60F4CF282F220FF1
:103F2000220F922BEFCF61E00E947B1F0895682F34
:103F3000909146049695969581E0890F843008F01B
:103F400081E00E947B1F089581E00E94971F0895E1
:103F5000682F90914604969596958FEF890F09F4F6
:103F600083E00E947B1F089581E00E94A81F0895AE
:103F700090914604937049F08093470460934804FD
:103F800040934904822F0E94FD1B089520E00E9467
:103F9000B81F0895A6E4B4E01196EC911197F0E0F3
:103FA000282F13964C91139712966C91CF01089677
:103FB0000E94B81F089581E00E94CA1F0895E6E498
:103FC000F4E09181282F43816281E92FE850FF0BB3
:103FD000CF010E94B81F089581E00E94DF1F08955D
:103FE000E6E4F4E0628120E1620F08F46FEF918172
:103FF000282F4381892F90E00E94B81F089581E007
:104000000E94F01F0895E6E4F4E0628120E1621B63
:1040100008F460E09181282F4381892F90E00E946D
:10402000B81F089581E00E9403200895E6E4F4E0BB
:10403000438120E1420F08F44FEF9181282F6281E4
:10404000892F90E00E94B81F089581E00E941620F9
:104050000895E6E4F4E0438120E1421B08F440E0E7
:104060009181282F6281892F90E00E94B81F0895C6
:1040700081E00E942920089580934A0481E00E94F3
:10408000FD1B0895E6E4F4E0248130E1230F08F4F9
:104090002FEF24830E94FD1B089581E00E9442209F
:1040A0000895E6E4F4E0248130E1231B08F420E0E5
:1040B00024830E94FD1B089581E00E9451200895F1
:1040C000109205040895FC01EE0FFF1FDF01A80FF9
:1040D000B91FA558BB4F11963C911197361307C0D5
:1040E0003C91341304C012963C91321751F031E0E8
:1040F00030930504E80FF91FE558FB4F61834083B7
:1041000022830895FF920F931F93CF93DF93182F6D
:10411000062FF42ED0E0C0E02F2D402F612FCE01CE
:104120000E9463202196CA32D105B1F7CDB7DEB720
:10413000E5E00C94633080910504882341F06AE245
:1041400070E08BE794E00E94052110920504089529
:10415000FA01811101C0FB01099508951F93CF93C6
:10416000DF93EC01FB011581111110C00E941012A8
:104170008272FE01E052F847E531F10508F043C0D4
:10418000E951FF4C0C9434300E94521F812FDF9173
:10419000CF911F91089544EB5FE164EA7FE10E94B3
:1041A000A820F4CF44EA5FE164EB7FE1F8CF4CEE66
:1041B0005FE16BED7FE1F3CF4BED5FE16CEE7FE113
:1041C000EECF42E150E26FEF7FE1E9CF4FEF5FE1E9
:1041D00062E170E2E4CF48E350E265E270E2DFCFF3
:1041E00045E250E268E370E2DACF4CE550E26DE47C
:1041F00070E2D5CF4DE450E26CE570E2D0CF81E0C3
:104200000E94931FC3CF11E0C1CF239A45B1477FCE
:1042100055B15860EFB7F8949B01220F331F260F5A
:10422000371F280F391F2817390741F4EFBF8FE5D3
:1042300094E00197F1F700C000000895DC016D9152
:10424000CD0178E055B9000000C067FF45B9660FA1
:10425000000000C000C000C045B900C07A9591F7C9
:10426000E2CFCF93DF93EC01FB018581882309F432
:10427000D2C09E0130572332310508F0B2C00E94EF
:1042800026139093350480933404FE01E150F047E7
:10429000E232F10520F4E450FF4C0C94343080916C
:1042A000340481608093340493C080913504886025
:1042B000809335048DC0809134048260F3CF809167
:1042C00034048460EFCF809134048860EBCF809118
:1042D00035048160EDCF809135048260E9CF809113
:1042E00034048061DFCF809134048062DBCF809121
:1042F00034048064D7CF0E943C0D809134048068E0
:10430000D1CF809134048C60CDCF8091350483600F
:10431000CFCF809134048E7FC5CF80913504877FC5
:10432000C7CF809134048D7FBDCF809134048B7FC3
:10433000B9CF80913404877FB5CF809135048E7FCB
:10434000B7CF809135048D7FB3CF809134048F7EB9
:10435000A9CF809134048F7DA5CF809134048F7BC9
:10436000A1CF0E943C0D809134048F779BCF809128
:104370003404837F97CF809135048C7F99CF8091CF
:10438000340482FB992790F921E0922790FB82F96F
:1043900090FB83F987CF80913504982F9095917089
:1043A0008E7F892B90FB81F983CF90913404892FE4
:1043B0008F7B96FF806476CF0E943C0D90913404F1
:1043C000892F97FB87F980586DCF81E00E94B21347
:1043D00080913404909135040E942B130E943C0D6F
:1043E00080E0DF91CF91089580E0F0CF9091340488
:1043F000892F8F7E94FF806155CF90913404892F4F
:104400008E7F90FF81604ECF90913504892F877FFA
:1044100093FF88604DCF81E0E4CFB0E0A0E0E3E11E
:10442000F2E20C944530E82FF0E0E45DFC4FD490CC
:10443000282F26952695269530E0F901E453FC4F68
:104440000491877010E0082E02C0159507950A9414
:10445000E2F701701127F901E454FC4FE490F12CCC
:10446000082E02C0F594E7940A94E2F791E0E9225D
:10447000FF24F901E455FC4FC491D0E002C0D5956A
:10448000C7958A95E2F7C170DD270115110519F06E
:1044900081EE0E94390AE114F10419F086EE0E94BF
:1044A000390A8D2D0E94D10AE114F10419F086EE2B
:1044B0000E94860A0115110519F081EE0E94860AF4
:1044C000CD2B19F08CE20E94D10ACDB7DEB7E7E020
:1044D0000C946130EF92FF920F931F93CF93DF9371
:1044E000EC01162F0AE08881882309F454C081303A
:1044F00009F04EC08981813099F47E0122E0E20EFC
:10450000F11C8A810E94D10AE7012196812F8150F6
:1045100050F3EFE9FFE03197F1F700C00000F7CF6B
:10452000823041F47E0182E0E80EF11C8A810E9413
:10453000390AEACF833041F47E01E2E0EE0EF11C4D
:104540008A810E94860AE0CF843011F02196DDCF67
:104550002A81229690E080E0AE014F5F5F4F2053AA
:10456000330B2A30310548F0019778F2EFE9FFE08C
:104570003197F1F700C00000F7CF089FB001099F05
:10458000700D1124C901860F971F2981EA01E4CF1C
:104590000E940D22BACFCDB7DEB7E6E00C946230B0
:1045A00060E00E946A220895CF93DF93EB01863189
:1045B0009C4711F50E9410129D81992399F08A7AE7
:1045C00091E009F490E090930604811109C089E21A
:1045D0000E94E8110E94691280E0DF91CF91089556
:1045E00085E3F6CF80910604811104C089E20E9420
:1045F000F011F0CF85E3FBCF81E0EFCFB0E0A0E09A
:10460000E4E0F3E20C9442307C015B01C42FD22F32
:10461000FC0185818823C9F0409309040E94CA25C2
:10462000909308048093070480E28C0F883040F454
:10463000C77081E001C0880FCA95EAF70E94DA0AC4
:10464000CDB7DEB7EAE00C945E3010910904141384
:1046500038C080910704909108040E94E2256C0103
:10466000B701C5010E943007C816D90650F5C0E24F
:10467000CD0F1D17C1F080E2810F883048F417700C
:1046800081E0012E01C0880F0A94EAF70E94E10A36
:10469000C83048F481E09D2F977001C0880F9A952B
:1046A000EAF70E94DA0A802F0E94D10AC83040F649
:1046B000D77081E001C0880FDA95EAF70E94E10A1D
:1046C000BFCF80E28C0F883008F0BACFC77081E08E
:1046D00001C0880FCA95EAF7F1CF0F93DB0188512B
:1046E0009C4787309105A0F5FC01E25EFE4C0C94DE
:1046F000343006E221EE41EE6AE17CE7CD010E9412
:10470000FE2280E00F91089507E225EE45EE6BE171
:104710007CE7F4CF06E221EE40EE68E17CE7EECFE5
:1047200007E225EE44EE69E17CE7E8CF06E221EE00
:1047300042EE6CE17CE7E2CF07E225EE46EE6DE16A
:104740007CE7DCCF08E221E045EE6EE17CE7D6CFE6
:1047500015968C91882319F010920904D3CF81E02B
:10476000D1CF90930F0480930E040895E0910E042E
:10477000F0910F04309729F00190F081E02D099518
:10478000089580E00895E0910E04F0910F043097B1
:1047900099F02091C901222359F02091340427FF78
:1047A00007C0DC012C9111962C93119726E02C93D5
:1047B0000280F381E02D09950895E0910E04F091B7
:1047C0000F04309739F022E0DC012C930480F5814E
:1047D000E02D09950895A3E0B0E0E1EFF3E20C9439
:1047E0004A3020910C0430910D0428173907A1F0AC
:1047F00090930D0480930C04E0910E04F0910F044B
:10480000309751F023E029839B838A830680F781C8
:10481000E02DCE01019609952396E2E00C946630D6
:10482000A3E0B0E0E6E1F4E20C944A3020910A04FF
:1048300030910B0428173907A1F090930B04809353
:104840000A04E0910E04F0910F04309751F024E037
:1048500029839B838A830680F781E02DCE01019610
:1048600009952396E2E00C946630FC013296809123
:10487000C901882321F0809134049EE187FF96E0EE
:1048800080E0915008F4089521912223D1F38F5FA5
:10489000F8CF662301F12091C9012223F1F0209184
:1048A000340427FF1AC0462F4695469546954E314B
:1048B00090F4677021E030E002C0220F331F6A9548
:1048C000E2F7840F911DFC01828190E028233923B7
:1048D00081E0232B69F480E00895FC01329608966C
:1048E0002191261721F0E817F907D1F7F4CF81E0DD
:1048F00008959C01FC0132969FEF80E0419146179C
:1049000051F09F3F19F4411101C0982F8F5F8630FD
:10491000A9F79F3F09F40895290F311D97FD3A9596
:10492000F90162830895FC013296089621912613BD
:1049300003C0DF0111971C92E817F907B9F7089532
:10494000E62FE695E695E695EE3168F4E80FF92F47
:10495000F11D677021E030E001C0220F6A95EAF78F
:104960008281822B82830895E62FE695E695E6956F
:10497000EE3170F4E80FF92FF11D677021E030E09F
:1049800001C0220F6A95EAF72095828128232283AD
:1049900008952091C901222339F02091340427FF82
:1049A00003C00E94A02408950E94792408952091B4
:1049B000C901222339F02091340427FF03C00E944B
:1049C000B42408950E9493240895FC0132968091A6
:1049D000C901882351F08091340487FF06C08EE11D
:1049E000DF011D928A95E9F7089586E0F9CFDC0191
:1049F000FB0111969C9111978181981322C0129608
:104A00008C911297882319F0928189131AC01396FA
:104A10008C911397882319F09381891312C01596EE
:104A20008C911597882319F0958189130AC01496E3
:104A30009C91992321F081E02481291303C080E017
:104A400001C081E08170089508950E942425089591
:104A5000811106C081E0809310040E9425250895ED
:104A600082E0F9CF83E0809310040E942525089509
:104A70000E942825089581E0809310040E94252536
:104A800008950E943B250895089508950E944525A4
:104A90000895089508950E9444250895CF930E9493
:104AA00049250E94D7170E944A25C0E08C2F0E94FA
:104AB0000B17892B31F4CF5FC430C1F780E0CF9161
:104AC000089581E0FCCF85B7806885BF85B7806891
:104AD00085BF08951F921FB61F9211248F939F9335
:104AE000AF93BF9380911104811113C08091F90499
:104AF0009091FA04A091FB04B091FC044196A11D91
:104B0000B11D8093F9049093FA04A093FB04B09331
:104B1000FC04BF91AF919F918F911F901FBE1F907A
:104B2000189580910105843031F10E94810910921D
:104B3000110488E190E020E40FB6F894A8958093E2
:104B400060000FBE2093600083B7817F846083BFC5
:104B500083B7816083BF7894889583B78E7F83BF46
:104B60000FB6F894A89580916000886180936000EA
:104B7000109260000FBE08950E943C0D0E948B09A8
:104B8000089582E084BD93E095BD9AEF97BD809330
:104B90006E0008952FB7F8948091F9049091FA046B
:104BA000A091FB04B091FC042FBF08952FB7F89497
:104BB0006091F9047091FA048091FB049091FC04D7
:104BC0002FBF08959C014FB7F8948091F9049091FC
:104BD000FA04A091FB04B091FC044FBF821B930B1D
:104BE0000895CF92DF92EF92FF922FB7F894C09082
:104BF000F904D090FA04E090FB04F090FC042FBF7D
:104C0000A7019601261B370B480B590BCA01B901A6
:104C1000FF90EF90DF90CF90089578941F921FB689
:104C20001F9211248F939F93AF93BF938091F904A8
:104C30009091FA04A091FB04B091FC040196A11D8F
:104C4000B11D8093F9049093FA04A093FB04B093F0
:104C5000FC04BF91AF919F918F911F901FBE1F9039
:104C6000189581E08093E00080E28093D800109254
:104C7000C9008FE19EE40197F1F700C0000087E0D2
:104C800090EBDC0180930A0590930B05A0930C0533
:104C9000B0930D0588E19CE00FB6F894A895809339
:104CA00060000FBE90936000FFCF88E19CE00FB6DC
:104CB000F894A895809360000FBE90936000FFCF9A
:104CC0008091320408959B01BA01909101059430BE
:104CD000E9F48F708093E9009FEF8091E800915094
:104CE00085FD06C085ED8A95F1F700009111F5CF9D
:104CF0008091E80085FF0AC050E040E0C9010E94B1
:104D00006D288091E8008E778093E800089543E055
:104D100050E0BC0182E00E946326089546E050E026
:104D2000BC0182E00E9463260895CF93DF93EC01DB
:104D30008091C901811111C048E050E0BE0181E0BD
:104D40000E94632680E2FE01A2E1B4E001900D9290
:104D50008A95E1F7DF91CF9108958091340487FF20
:104D600005C040E282E050E0BE01EACF48E081E0C9
:104D7000FACF80910005811109C00E94FD290E948F
:104D80005A2A8091E20084608093E2000895109294
:104D9000000508950E943B2508956091FD0481E07F
:104DA000611101C080E00E943225089590910105B3
:104DB00081E0943009F080E06091FD040E94382584
:104DC000089542E061EC81E00E94792942E261ECC1
:104DD00082E00E9479299091010581E0943009F0E8
:104DE00080E06091FD040E942825089580910305CC
:104DF000833009F461C030F48130D1F1823009F49C
:104E00009EC008958A3009F48AC08B3009F46FC0BF
:104E1000893009F050C080910205813209F04BC001
:104E20008091060590910705029708F044C0809193
:104E3000E800877F8093E8008091E80082FF37C018
:104E40009091F3008091F200029731F48091F1008B
:104E5000813011F0863021F48091F100809332048A
:104E60008091E8008B778093E8000E94AD2923C0F1
:104E700080910205813AF9F48091E800877F809360
:104E8000E8008091060590910705892B61F460E2A6
:104E900082E194E070E00E94BC288091E8008B776A
:104EA0008093E800089560E090E080E0F3CF809187
:104EB00001058111C1CF089580910205813AD9F78A
:104EC0008091060590910705892BA9F78091E8004C
:104ED000877F8093E8008091E80080FFFCCF80917D
:104EE000C9018093F1008091E8008E77BCCF80915A
:104EF0000205813201F78091060590910705892B03
:104F0000D1F68091E800877F8093E8000E94AD2968
:104F1000809104058093C9010E943C0D0895809101
:104F20000205813241F68091E800877F8093E80096
:104F30000E94AD29809105058093330408958091E6
:104F40000205813A09F0B7CF8091E800877F80930E
:104F5000E8008091E80080FFFCCF80913304C1CF4E
:104F600084B7877F84BF0FB6F894A89580916000BE
:104F7000886180936000109260000FBE80E890E02E
:104F80000FB6F89480936100909361000FBE0E9469
:104F9000412508950E94FD290E945A2AE2EEF0E080
:104FA00080818460808378940E94D92C089581EC5C
:104FB00091E00E94B123089580910105853031F47C
:104FC00080910105853019F00E94BC2508950E944A
:104FD00091258091FF04882399F30E944E25882310
:104FE00079F30E9457280E943C0DEACF08959A0158
:104FF00040910805509109050E94FF270895492F07
:1050000055274330510519F168F44130510509F431
:1050100044C04230510509F445C090E080E050E0C2
:1050200040E025C04132510549F142325105A9F70E
:1050300084E490E045E055E061157105C1F086EB30
:1050400090E04FE454E06130710589F0E6CF992794
:105050008130910581F0009729F00297F1F6ECED8F
:10506000F3E002C0EEEFF3E0849190E0AF01F901CC
:10507000518340830895EAEEF3E0F6CF89E090E0B3
:1050800044E154E06115710591F389E090E04DE24F
:1050900054E06130710559F3C0CF82E190E04DE3F7
:1050A00054E0E5CF8BE390E042E054E0E0CF80E1D4
:1050B00089BD82E189BD09B400FEFDCF8091D80091
:1050C0008F7D8093D8008091E00082608093E00023
:1050D0008091E00081FDFCCF0895AF92BF92CF9206
:1050E000DF92FF920F931F93CF93DF936C01EB013D
:1050F0008A010E94CC29F82E811123C001151105C7
:1051000039F0F80180819181C81BD90BC80ED91ED6
:10511000B12CA12C2097A9F08091E80085FD22C038
:105120008091E8008E778093E80001151105A1F0C9
:10513000F80180819181A80EB91EB182A08285E01C
:10514000F82E8F2DDF91CF911F910F91FF90DF905F
:10515000CF90BF90AF9008950E94CC298823D1F2C0
:10516000F82EEFCFF60181916F018093F100219726
:10517000FFEFAF1ABF0ACECFFC01809108059091D6
:10518000090586179707A0F06115710529F490911C
:10519000E8009E779093E80090E06115710551F466
:1051A000911108C08091E80082FF34C080E008952A
:1051B000BC01F2CF809101058823C1F18530C1F196
:1051C0008091E80083FD30C08091E80082FDEACF45
:1051D0008091E80080FFE1CF8091F3002091F20000
:1051E000382F6115710519F02830310558F091E01C
:1051F0002830310509F090E02091E8002E772093C7
:10520000E800CBCF81918093F100615071092F5F4D
:105210003F4FE7CF80910105882341F0853041F071
:105220008091E80083FFBECF81E0089582E0089579
:1052300083E00895FC018091080590910905861787
:105240009707A0F06115710529F48091E8008E7729
:105250008093E80090E06115710551F4911108C048
:105260008091E80082FF35C080E00895BC01F2CF54
:10527000809101058823C9F18530C9F18091E8004A
:1052800083FD31C08091E80082FDEACF8091E80083
:1052900080FFE1CF8091F3002091F200382F61155B
:1052A000710519F02830310558F091E028303105AA
:1052B00009F090E08091E8008E778093E800CBCFF2
:1052C00084918093F1003196615071092F5F3F4FB7
:1052D000E6CF80910105882341F0853041F080912F
:1052E000E80083FFBDCF81E0089582E0089583E068
:1052F0000895982F973028F08F708093E90081E00F
:1053000008959093E900242F762F50E0981731F0FC
:105310007091EC002091ED005091F00021FD02C051
:105320009F5FE8CF3091EB003E7F3093EB003091F0
:10533000ED003D7F3093ED003091EB003160309314
:10534000EB007093EC002093ED005093F00020915F
:10535000EE0027FDE5CF80E008958091020587FFEC
:1053600013C08091E80082FF06C08091E8008B772F
:105370008093E80004C0809101058111F2CF089567
:10538000809101058823D9F38091E80080FFF8CF50
:105390008091E8008E77ECCF2091E4003091E50019
:1053A00095E6A9012091EC00822F817020FF06C0B4
:1053B0008091E80080FF06C080E008952091E80019
:1053C00022FD1AC080910105882389F0853089F07B
:1053D0008091EB0085FD0FC02091E4003091E50045
:1053E00042175307F9F29150E1F684E0089582E004
:1053F000089583E0089581E008950E946C2A0E9438
:10540000742AE0EEF0E0808181608083E8EDF0E0D6
:1054100080818F77808319BCA7EDB0E08C918E7F5F
:105420008C9380818F7E80831092000508950F9366
:105430001F93CF93DF930E946C2A0E94742AC8EDB9
:10544000D0E088818F77888388818068888388818D
:105450008F7D888319BC109201051092FD04109273
:10546000FF041092FE0400EE10E0F80180818B7FB3
:10547000808388818160888342E060E080E00E94D0
:105480007929E1EEF0E080818E7F8083E2EEF0E02A
:10549000808181608083808188608083F801808141
:1054A0008E7F8083888180618883DF91CF911F9177
:1054B0000F910895E8EDF0E080818F7E8083E7ED25
:1054C000F0E080818160808384E082BF81E080930E
:1054D00000050E94172A0895E8EDF0E080818E7F94
:1054E00080831092E20008951092DA001092E10099
:1054F00008951F920F920FB60F9211242F933F938E
:105500004F935F936F937F938F939F93AF93BF93CB
:10551000EF93FF938091E10082FF0BC08091E20046
:1055200082FF07C08091E1008B7F8093E1000E94A1
:10553000D82C8091DA0080FF19C08091D80080FFBC
:1055400015C08091DA008E7F8093DA008091D900B7
:1055500080FF96C080E189BD82E189BD09B400FE6B
:10556000FDCF81E0809301050E94B9268091E10082
:1055700080FF19C08091E20080FF15C08091E20099
:105580008E7F8093E2008091E20080618093E20050
:105590008091D80080628093D80019BC85E0809308
:1055A00001050E94CD268091E10084FF2BC08091EF
:1055B000E20084FF27C080E189BD82E189BD89B511
:1055C000982F917080FFFBCF8091D8008F7D8093C2
:1055D000D8008091E1008F7E8093E1008091E2000D
:1055E0008F7E8093E2008091E20081608093E200F0
:1055F0008091FD04882309F449C084E0809301056B
:105600000E94D6268091E10083FF29C08091E200AC
:1056100083FF25C08091E100877F8093E10082E0D5
:10562000809301051092FD048091E1008E7F8093AC
:10563000E1008091E2008E7F8093E2008091E200A1
:1056400080618093E20042E060E080E00E9479297E
:105650008091F00088608093F0000E94CA26FF913C
:10566000EF91BF91AF919F918F917F916F915F91DA
:105670004F913F912F910F900FBE0F901F90189553
:1056800019BC109201050E94C72670CF8091E300DB
:1056900087FD93E090930105B3CF1F920F920FB651
:1056A0000F9211242F933F934F935F936F937F93A8
:1056B0008F939F93AF93BF93CF93DF93EF93FF931A
:1056C000D091E900DF708091EC00C82FC17080FD9F
:1056D000C0E81092E9008091F000877F8093F0008D
:1056E00078940E94912B1092E9008091F0008860DC
:1056F0008093F000CD2BCF70C093E900FF91EF9124
:10570000DF91CF91BF91AF919F918F917F916F91D9
:105710005F914F913F912F910F900FBE0F901F906F
:105720001895AAE2B0E0E7E9FBE20C94493082E088
:1057300095E02091F100FC012193CF01F5E08A3042
:105740009F07B9F70E94F6268091E80083FF1EC1EB
:1057500080910205909103059A3008F017C1E92F56
:10576000F0E0EB5DFE4C0C943430803899F08238D8
:1057700009F00CC1809106058F70873008F006C1D2
:105780008093E9008091EB0085FB882780F91092D7
:10579000E90006C08091FE049091FF04911182609F
:1057A0009091E800977F9093E8008093F100109229
:1057B000F1008091E8008E77E5C0882309F4D3C01A
:1057C000823009F0E3C0809104058111D6C0809138
:1057D00006058F702FEF280F263008F0D7C0809372
:1057E000E9002091EB0020FFC8C0933031F4809194
:1057F000EB0080628093EB00C0C09091EB00906161
:105800009093EB0021E030E001C0220F8A95EAF787
:105810002093EA001092EA008091EB008860EACFC2
:105820008111B4C0109104051F778091E300807846
:10583000812B8093E3008091E800877F8093E800CC
:105840000E94AD298091E80080FFFCCF8091E300A9
:1058500080688093E30082E0111183E0809301056A
:1058600095C08058823008F091C0809104059091D5
:1058700005058C3D23E09207A1F583E08A838AE247
:1058800089834FB7F894DE01139620E03EE051E2A1
:10589000E32FF0E050935700E49120FF03C0E2951E
:1058A000EF703F5FEF708E2F90E0EA30C0F0C79648
:1058B0008D939D932F5F243159F74FBF8091E8005E
:1058C000877F8093E8006AE270E0CE0101960E9433
:1058D000BC288091E8008B778093E80057C0C09681
:1058E000E7CF6091060570910705AE014F5F5F4FEE
:1058F0000E94F727BC01892B09F448C09091E80069
:10590000977F9093E80089819A810E941A29E1CFBC
:105910008038E1F58091E800877F8093E8008091EE
:10592000FD048093F10045CF811130C090910405B2
:10593000923060F58091E800877F8093E800909333
:10594000FD040E94AD298091FD04882311F084E0BC
:1059500005C08091E30087FDFACF81E080930105C7
:105960000E94E12613C080910405813079F481E022
:10597000933009F080E08093FF041092E900809159
:10598000E800877F8093E8000E94AD298091E800BD
:1059900083FF0AC08091E800877F8093E8008091B0
:1059A000EB0080628093EB00AA96E3E00C946530F4
:1059B0000895CF93809101058823A1F0C091E9005B
:1059C000CF709091EC00892F817090FD80E8C82BFA
:1059D0001092E9008091E80083FD0E94912BCF7026
:1059E000C093E900CF9108955058BB27AA270E9481
:1059F0000C2D0C941F2F0E94112F38F00E94182F8D
:105A000020F039F49F3F19F426F40C940E2F0EF475
:105A1000E095E7FB0C94FA2EE92F0E94302F58F303
:105A2000BA17620773078407950720F079F4A6F583
:105A30000C94522F0EF4E0950B2EBA2FA02D0B01D3
:105A4000B90190010C01CA01A0011124FF27591BC3
:105A500099F0593F50F4503E68F11A16F040A22FC9
:105A6000232F342F4427585FF3CF4695379527953A
:105A7000A795F0405395C9F77EF41F16BA0B620B39
:105A8000730B840BBAF09150A1F0FF0FBB1F661F80
:105A9000771F881FC2F70EC0BA0F621F731F841FC3
:105AA00048F4879577956795B795F7959E3F08F0E9
:105AB000B0CF9395880F08F09927EE0F97958795AB
:105AC00008950E94D62E08F481E008950E947A2D50
:105AD0000C941F2F0E94182F58F00E94112F40F095
