:100000000C94E3020C941B030C941B030C941B0331
:100010000C941B030C941B030C941B030C941B03E8
:100020000C941B030C941B030C940C250C94E025DE
:100030000C94561F0C941B030C941B030C941B0371
:100040000C941B030C941B030C941B030C941B03B8
:100050000C941B030C94DD1F0C941B030C941B03CA
:100060000C941B030C941B030C941B030C941B0398
:100070000C941B030C941B030C941B030C941B0388
:100080000C941B030C941B030C941B030C941B0378
:100090000C941B030C941B030C941B030C941B0368
:1000A0000C941B030C941B030C941B0329001400D9
:1000B0001A000800150017001C0018000C001200A0
:1000C00013002E002B0004001600070009000A0090
:1000D0000B000D000E000F0000002800E1001D00C5
:1000E0001B0006001900050011001000360000007A
:1000F00037004C00E000E300E2002C41000000006B
:100100002C420000000038002D002D0201004A00A2
:1001100052004D002F003000010001002402310286
:10012000417E01000100500051004F0026022702CD
:10013000010001003300340000002A0001001D010D
:100140001B0106011901010001000100E20000008D
:100150000100010001000100010001000000000099
:100160002C430000000001000100010001001E00FE
:100170001F0020002100220023002400250026006B
:1001800027000100270021002200230001000100B8
:10019000010001003300340000002A0001002400A7
:1001A00025002600010001000100010001000000FF
:1001B000010001000100010001002C4300000000CB
:1001C0000100000000000100010001005F7ED1007D
:1001D000CD00D2003A003B003C00010001000100CC
:1001E0000100007C0100CF00CE00D0003D003E00A9
:1001F0003F000100010001000000007E0100D90065
:10020000D300DA00400041004200430044000000F7
:100210004500010001000100010001000000000094
:10022000010000000000597E5A7E20784445425566
:10023000473A2064697361626C65642E0A00444524
:100240004255473A20656E61626C65642E0A000A69
:100250000025303258006C65645F7461736B3A201E
:10026000004F6E6573686F743A20616374697665D8
:100270003A2025640A000A002530313662003A200F
:100280000025303258000A722F6320303132333467
:1002900035363738394142434445460A00290A0079
:1002A0002575002F002575005D28002564002000BD
:1002B000256400200025640020002564007C0025C2
:1002C000303258006D6F7573656B6579205B6274B1
:1002D0006E7C782079207620685D287265702F61A9
:1002E000636C293A205B0000000000000000002A37
:1002F0002B280000000000000000000000000000AB
:10030000000029000000002C1E3420212224342665
:1003100027252E362D3738271E1F2021222324255E
:10032000263333362E37381F0405060708090A0B13
:100330000C0D0E0F101112131415161718191A1B85
:100340001C1D2F3130232D350405060708090A0B23
:100350000C0D0E0F101112131415161718191A1B65
:100360001C1D2F3130354C00000000000000000043
:10037000000000000000000000000000000000007D
:1003800000000000000000000000007E0F00D4FF0D
:10039000FFFFC7000000780A002530325820006BAC
:1003A0006579626F6172645F7265706F72743A2012
:1003B0000064656C5F6B65795F6269743A206361A4
:1003C0006E27742064656C3A20253032580A00612B
:1003D00064645F6B65795F6269743A2063616E275C
:1003E00074206164643A20253032580A00737573B2
:1003F00070656E64696E67206B6579626F617264A7
:100400000D0A005B575D005B535D005B525D005B56
:10041000445D005B435D000C0346006500620034F0
:100420000030000000120366006500620072006583
:100430000065007A00650000000403090409025BFE
:1004400000030100A0FA09040000010301010009F2
:100450002111010001224400070581030800010960
:10046000040100010300000009211101000122B66E
:1004700000070582032000010904020002030000B6
:100480000009211101000122220007058303200039
:10049000010705030320000112010002000000080B
:1004A000646942000001010200010631FF0974A1E4
:1004B000010975150026FF0095207508810209764F
:1004C000150026FF00952075089102C0050109025C
:1004D000A10185020901A1000509190129081500DA
:1004E0002501950875018102050109300931158141
:1004F000257F95027508810609381581257F9501AC
:1005000075088106050C0A38021581257F9501754D
:10051000088106C0C005010980A101850319012ACF
:10052000B700150126B700950175108100C0050CB4
:100530000901A101850419012AA002150126A002C2
:10054000950175108100C005010906A10185060508
:100550000719E029E71500250195087501810205B5
:1005600007190029EF1500250195F0750181020595
:1005700008190129059505750191029501750391E9
:1005800001C005010906A101050719E029E71500C9
:1005900025019508750181029501750881010507FE
:1005A000190029FF150026FF009506750881000532
:1005B0000819012905150025019505750191029578
:1005C0000175039101C011241FBECFEFDAE0DEBF39
:1005D000CDBF04B603FE18C08091700390917103E3
:1005E000A0917203B09173038730904BA740B04B3A
:1005F00059F41092700310927103109272031092CA
:100600007303E0E0F8E3099511E0A0E0B1E0E0E475
:10061000F1E502C005900D92A03BB107D9F723E0A8
:10062000A0EBB1E001C01D92A037B207E1F70E9434
:10063000AA170C945F280C940000FF93EF93E091AD
:10064000B001F091B101309709F00995EF91FF9158
:100650000895FC018591803011F0EFDFFBCF089504
:10066000FF27E0E230E247FF0CC0419597FF09C049
:10067000EDE26095709580959095611D711D811DCD
:10068000911D27FF02C0219530E350E2AA27660F93
:10069000771F881F991FAA1FA41710F0A41B63952A
:1006A0005A95A9F7AA3008F0A95FA05DAF93F3951A
:1006B000611571058105910541F7ED3211F4EF9354
:1006C000F395F21718F43F93F395FBCF8F91B5DFB5
:1006D000FA95E1F70895E991F9918591803021F03B
:1006E000853219F0AADFF9CF089520E0E8945591FA
:1006F0005532C1F3503311F4689455915A3348F48C
:10070000505390F3220F022E220F220F200D250F9F
:10071000F4CF0EF4219589919991533619F35337FB
:1007200029F1533559F1BC0188279927E8945C36A3
:1007300021F48991999168945591543639F446EF92
:100740007EF077FF0DC08FEF9FEF0AC055374AE06C
:1007500039F0583540E121F0523642E009F0089571
:10076000FF93EF937DDFEF91FF91B7CFFF93EF936F
:10077000FC0181918030B9F360DFFBCFFF93EF93F1
:1007800068DFF1CFDF93CF93CDB7DEB72596A3DF38
:10079000CF91DF910895CF93DF93EC010E94101168
:1007A00091E0811190E0988321E0982F917109F4F4
:1007B00020E02983982F91709A8384FB992790F9E0
:1007C0009B8321E0982F947409F420E02C8382FB12
:1007D000992790F99D8386FB992790F99E8321E0C4
:1007E000982F987809F420E02F8383FB992790F9BC
:1007F0009887982F991F9927991F998721E0982FFB
:10080000927209F420E02A8781FB992790F99B874F
:1008100085FB882780F98C87CE01DF91CF910895E1
:10082000803E910551F46093440260934302863EFA
:100830009105D9F4609348020EC0843E910571F091
:10084000833E910571F0873E9105B9F0823E910596
:1008500071F76093470260934602089560934502E2
:10086000E4CF60934A0260934902813E910549F4C6
:1008700060934D0260934C02089560934B02609325
:100880004902853E910509F0089560934E02F2CF2A
:10089000882321F0862F0E9413110895862F0E942D
:1008A00019110895CF93DF93C2E4D2E061E08A8109
:1008B0000E94480460E18B810E94480468E08885BA
:1008C0000E94480460E889850E94480464E08D81A4
:1008D0000E94480460E48E810E94480462E08B8597
:1008E0000E94480460E28C850E944804DF91CF9109
:1008F00008958F359E4781F4FB018581882369F037
:10090000909150029F5F917897FF03C091509E6F26
:100910009F5F90935002089580E00895EF92FF92B8
:100920000F931F93CF93DF937C01EB018091000124
:10093000909101010E94E5068C010097C9F0FC012D
:1009400080818823A9F0CD81CC2361F0C7010E946A
:100950006C0780910001909101010E946C07C80111
:100960000E94611C8C2FCDB7DEB7E6E00C94D42733
:10097000C0E0F8CFEF92FF921F93CF93DF937C01FB
:10098000FB012181C0818C2F90E0EC01CC0FDD1F99
:10099000C80FD91F84E2289FC00DD11D1124CE5449
:1009A000DE4F18818581882329F1111130C0109103
:1009B0004F021123C1F081E0888380910001909162
:1009C00001019A83898360E0C7010E94100461E0FD
:1009D00089819A810E941004C7010E946C07898155
:1009E0009A810E945607812FDF91CF911F91FF902E
:1009F000EF9008951123B9F3188289819A810E949A
:100A00006C0760E089819A810E941004ECCF10E0AD
:100A1000EACFADE0B0E0EFE0F5E00C94AC273C01AC
:100A20002B010E947904182F8111A5C0C301905297
:100A30008115904328F4F2018681807F09F48AC0F1
:100A400010924F027092010160920001CE01019656
:100A50000E94CB038DE0FE013196A2E4B2E001904A
:100A60000D928A95E1F78FEF0E941911F2018581AD
:100A700061E0811101C060E0C3010E941004A090F8
:100A80004202B0904302C0904402D0904502E090F0
:100A90004602F090470200914802109149022091CD
:100AA0004A0230914B0240914C0250914D026091AC
:100AB0004E0280910001909101010E940D061C01DF
:100AC0008F3F980721F0909301018093000180905F
:100AD0005002082C000C9908A0904202B0904302EA
:100AE000C0904402D0904502E0904602F090470248
:100AF000009148021091490220914A0230914B0224
:100B000040914C0250914D0260914E028091000143
:100B1000909101010E94C3068F3F980721F09093A6
:100B20000101809300012822392281E09FEF2916DC
:100B3000390609F480E080934F02EFEF2E163E064F
:100B400071F08091000190910101892B41F411E035
:100B50000E945204812F2D96E2E10C94C827B20125
:100B6000C3010E948E048111F2CFB201C3010E9421
:100B7000BA04182FEDCF10E0EDCF809100019091D5
:100B800001010895089580E0089580910B0381602C
:100B900080930B030E94C20508959C019D7F8C32B7
:100BA000914451F02C3282E4380731F081E0211574
:100BB0003C4719F080E0089581E00895EF92FF929C
:100BC0000F931F93CF937C018B010E94CD05C82FFB
:100BD00081110EC0B801C7010E940905F82E0E94BC
:100BE000BD05B8010E94C305811102C0C1E0CF2537
:100BF0008C2FCF911F910F91FF90EF9008958C3221
:100C000022E4920739F09D7F8C32914419F088ECF0
:100C100090E008958DE790E00895ADE0B0E0E3E165
:100C2000F6E00C94B427A982BA828932910539F48E
:100C3000E110A3C0442391F085E390E01AC088320C
:100C4000910539F48AE290E0411113C08FEF9FEFD4
:100C500010C081152EE7920709F492C02A818433CF
:100C6000910559F4411105C08981882379F384E302
:100C700092E02D96EAE00C94D0278D3232E0930773
:100C800019F4442319F3F5CF8E329105D1F38F3245
:100C9000910529F486E392E04423C1F2EACF803340
:100CA000910529F487E392E0442381F2E2CF863272
:100CB00032E0930729F48FE292E0442339F2D9CF4E
:100CC000873232E0930731F480E392E0442309F461
:100CD000BDCFCFCF843232E0930731F480E49EE77A
:100CE000442309F4B3CFC5CF813332E0930731F405
:100CF0008FE19EE7442309F4A9CFBBCF863391054A
:100D000031F48EE192E0442309F4A0CFB2CF8733CF
:100D1000910531F488E392E0442309F497CFA9CFF9
:100D20008833910531F481E390E0442309F48ECFB8
:100D3000A0CF8A34910531F48BE490E0222309F4AA
:100D400085CF97CF8D34910531F48EE490E0222346
:100D500009F47CCF8ECF8632910531F485E392E0A1
:100D6000442309F473CF85CF8D9709F06FCF87E5C2
:100D700090E0442309F46ACF7CCF8BE290E079CFF6
:100D800088E292E176CFADE0B0E0E9ECF6E00C94D9
:100D9000B22721E08216910461F4833E910591F01F
:100DA000823E910561F48EE690E02D96ECE00C9485
:100DB000CE278114910419F4823E9105B1F38FEF8F
:100DC0009FEFF3CF8DE690E0F0CF8F312EE79207C3
:100DD00051F080342EE7920749F081349E4749F460
:100DE0008BE191E0089585E191E0089588E191E03B
:100DF00008958AE191E008958430B8F46430A8F44D
:100E00004C3098F450E09CE0699F400D511D112436
:100E1000FA0190E3899FE00DF11D1124EE0FFF1FF1
:100E2000E455FF4F85919491089581E090E00895F5
:100E30000E94FC0608959C013A9521153F4150F50A
:100E4000FC01EE27F170BC0166277270AC014427EB
:100E500054709C012227387094FF0EC080E1EF2B64
:100E600009F480E0672B09F08062452B09F080646B
:100E7000232B89F08068089581E0EF2B09F480E04E
:100E8000672B09F08260452B09F08460232B19F051
:100E90008860089580E00895CF93DF93EB010E946E
:100EA0001B07FE010995DF91CF910895CF93DF9342
:100EB000EC01805E9109089720F065E17CE02097C5
:100EC00011F467ED79E0CE010E944C078C2F0E944F
:100ED0003609DF91CF910895CF93DF93EC010E9403
:100EE0008309CE01805E9109089720F06CE17CE0D7
:100EF000209711F46EED79E0CE010E944C07DF914E
:100F0000CF91089581E008950E948207089581E0BD
:100F100008950E94DE05089508950E948C070895A3
:100F2000A6E0B0E0E6E9F7E00C94BB2749835A83DA
:100F30009E833091560289819A8131111AC03E8177
:100F4000332399F0222389F00E94880D182F682FEF
:100F500089819A810E94640D69817A81812F0E9422
:100F6000D0142696E3E00C94D7270E94760D182F14
:100F7000F3CF0E94880D69817A81F1CFFC01262F81
:100F80004081518162817381848195810E949007A3
:100F90000895CF93DF93EC0161E00E94BE07BE018C
:100FA0000E948407DF91CF910895CF93DF93EC01E6
:100FB00060E00E94BE07BE010E948D07DF91CF91C5
:100FC000089508950E94390C0E94E1072FEF84E3F1
:100FD0009CE0215080409040E1F700C0000008955F
:100FE0000E94E2070E94012008950E94E2070E94E9
:100FF000252008950F931F93CF93DF938C0161E019
:101000000E94BE07EC01B8010E948907811106C049
:1010100080E0DF91CF911F910F910895B801CE012B
:101020000E94FE1C8823A1F3B801CE010E94C21ABF
:10103000882371F3B801CE010E94651C882341F317
:10104000F8018581882369F0C330FCE7DF0781F16F
:1010500060F4C130ECE7DE0769F1C0F4C115DC478C
:1010600091F0C8010E948707D4CFCB35ECE7DE07AB
:1010700039F1CC35FCE7DF0701F1CA35DC4789F7E8
:101080000E941512EECF0E94F007C2CF90910B0381
:10109000892F8E7F90FF816080930B0380FF05C0B6
:1010A0008EE392E00E942903B3CF8CE292E0FACF64
:1010B0000E941D120E94F507ABCF0E940B12D1CFE8
:1010C0000E941912CECF0E94321F0E94AF080895CD
:1010D0000E94B3080E94371F0895829590E09C01FA
:1010E000220F331F220F331F2C7C959587959595E2
:1010F00087958373282B30E0C901880F991F8A7A5E
:10110000359527952575822B0895CF93DF93D92F99
:101110000E946D08C82F8D2F0E946D089C2FDF91B3
:10112000CF910895089581E008950895CF93DF93B6
:10113000D82F0E949308C82F882319F08D2F0E9462
:1011400095088C2FDF91CF9108950895CF93C82FE4
:101150000E9492088C2F0E949608CF91089580E0FB
:101160000E94A60808950E94471D0E94A60808959F
:10117000CF930E94471DC82F809151028C1789F18F
:10118000C09351020E94C21F609352027093530297
:10119000809354029093550280910B0382FF1EC0EE
:1011A00080FF1CC086E592E00E94290380910B031A
:1011B00080FF14C01F92CF9381E592E09F938F939D
:1011C0000E94C20380910B030F900F900F900F901D
:1011D00080FF04C08FE492E00E9429038C2F0E94BC
:1011E000A608CF910895ADE0B0E0E9EFF8E00C94E7
:1011F000BC27488759876A877B878C879D87911191
:101200000E9430111F8286E0FE013896DE011196A1
:1012100001900D928A95E1F78D8181110DC0298190
:101220003A814B815C816D817E818F810E94631048
:101230002D96E2E00C94D827CE0101960E94C907B2
:101240008111EDCFF5CFFC012481213021F4808183
:1012500091810E94BA0D0895662329F00E944118D9
:101260000E94141908950E949B18FACFCF93C82F9B
:101270008823B9F08CEF8C0F813AA8F46C2F809101
:101280000201909103010E94131E882329F08C2FE4
:101290000E94F0100E9469118C2F0E94E8100E9499
:1012A0006911CF91089580E28C0F883048F4C7709F
:1012B00081E001C0880FCA95EAF70E941311EFCFB1
:1012C000EBE5EC0FE33040F4F0E0EC5AFE4F8081A8
:1012D00090E00E94B51DE5CFE8E5EC0FEB3150F44E
:1012E000F0E0EE0FFF1FE25EFE4F808191810E94D1
:1012F000DA1DD7CF83E38C0F833198F661E08C2F12
:101300000E942C09CECF882381F19CEF980F913A4F
:1013100028F40E94F0100E946911089590E2980F3D
:10132000983050F4877091E001C0990F8A95EAF7E0
:10133000892F0E941911EFCF9BE5980F933028F465
:1013400090E080E00E94B51D089598E5980F9B31CC
:1013500028F490E080E00E94DA1D089593E3980F4E
:10136000933118F460E00E942C0908951F93CF93E5
:10137000DF93182FEB010E943609209739F4812F53
:101380000E948309DF91CF911F9108958FE99FE01B
:101390000197F1F700C000002197EFCF70E060E007
:1013A000893311F460E570E00E94B609089588233E
:1013B00021F00E9413110E9469110895882321F0E1
:1013C0000E9419110E9469110895B0E0A0E0EBEEAF
:1013D000F9E00C94B5276C01D62FC72FFC011581BD
:1013E000068102950F700E940911E82E8823E9F00A
:1013F000E12E1123D1F08C2F807F803451F080E2D8
:101400008D0F8830F8F0011104C08C2F807E80325F
:10141000C9F080914E0382FF15C082E00E94CC117A
:101420000E94091191E0E82EE926BC2EB2949FE0BB
:10143000B922FBE0FB15B8F1EB2DF0E0EF59F74DC9
:101440000C94A627E12CF1CF0C2F0F70C07F11F068
:101450000295007F112399F0002359F080E28D0F4F
:10146000883010F0D11107C0802F0E9413110E9404
:1014700069118D2F5AC0802F0E942311F8CF8D2F14
:101480000E948309002379F080E28D0F883010F0EC
:10149000D11104C0802F0E94191103C0802F0E9417
:1014A00029110E946911EB2DE850FF0B349720F4AD
:1014B0000E94471D0E94A608EE2089F00E94051197
:1014C00080FD0DC0F60115820E94FF100E94C20C23
:1014D000C6010E94F20B0E94FF100E94D20CCDB7F1
:1014E000DEB7E9E00C94D1272C2F2F70F22EC07FAD
:1014F000C03219F0F29480EFF822DD2341F0D130B0
:10150000D1F1112309F444C00023F1F0B2CF80914E
:101510004E0382FD15C0112359F0FF2029F08F2DB5
:101520000E9413110E94691180E00E943609BBCF0E
:1015300080E00E948309FF2009F4B5CF8F2DABCF47
:10154000112369F0011104C08F2D0E94D709ABCF80
:10155000013009F0A8CF8F2D0E944711A4CF0111AF
:10156000A2CF8F2D0E94DE098F2D0E9453118F2D47
:101570000E94371198CF112321F0063008F093CF45
:10158000E3CF053008F08FCF8F2D0E94DE098BCF7F
:101590000023D1F3D93349F43FEF87EE93E0315084
:1015A00080409040E1F700C000008D2F0E94830929
:1015B0007ACF8C2F86958695837069F0813009F0FB
:1015C00072CF8D2F9C2F9370111102C080E090E09C
:1015D0000E94DA1D68CF8D2F9C2F9370111102C0CD
:1015E00080E090E00E94B51D5ECF612F8D2F0E949C
:1015F0002C0959CF8C2F8370A1F5111154CF4D2F89
:10160000429546954770440F440F2D2F2F7030E0C0
:10161000042E02C0220F331F0A94E2F790E080E00C
:10162000D4FF09C08FE090E002C0880F991F4A954F
:10163000E2F780959095C695C695C370822B932B43
:10164000C23049F058F4C13019F00E94920C2BCFEF
:101650000E94890C28CF0E949B0C25CF0E94860CEB
:1016600022CF8695112311F08C2F8170882309F4E5
:101670001ACF4D2F429546954770440F440F2D2F9A
:101680002F7030E0042E02C0220F331F0A94E2F7BD
:1016900090E080E0D4FF09C08FE090E002C0880FA6
:1016A000991F4A95E2F780959095C695C695C370A7
:1016B000822B932BC23049F058F4C13019F00E94AC
:1016C000FD0CF1CE0E94F40CEECE0E94060DEBCE86
:1016D0000E94AA0CE8CECF70112329F08C2F0E9413
:1016E000C20C8D2F32CF8D2F0E94DE098C2F0E94CD
:1016F000D20CD9CED23F41F160F4D03FB9F0D13F06
:1017000081F0112309F446C00111B3CE8C2F8F71E3
:101710001FC0D33F01F1D43FA1F780914E0382FD5A
:1017200024C08C2F8F71112311F312C0112341F0AB
:10173000053008F0B8CE8C2F8F710E94E40CB3CE28
:10174000063008F0B0CEF7CF8C2F8F711111CFCFAC
:101750000E94C20CA8CE112329F08C2F8F710E94F9
:10176000B60CA1CE0E94B10C9ECE112349F0CF71D0
:101770008C2F0E94C20C63E08C2F0E94AE1193CE7E
:1017800081E00E94CC11023008F48DCE82E00E94EC
:10179000CC1189CE002359F0D93309F006CFEFEFF1
:1017A000F7EE23E0E150F0402040E1F7FCCE8C2F33
:1017B0008F719DCF0F931F93CF93DF93EC016881BF
:1017C00079818D810E94C50D8C010E940F0D0E94B0
:1017D000850CB801CE010E94E509DF91CF911F91E0
:1017E0000F910895CF93DF93EC018C81882399F0BA
:1017F000CE010E94FA07811111C00E9409118823AD
:1018000051F08D81882339F080914E0382FF03C00F
:1018100082E00E94CC11DF91CF910895CE010E9409
:10182000DA0BCE010E94D507F6CF882321F00E9463
:1018300023110E9469110895882321F00E94291123
:101840000E946911089590E080E00E94B51D90E02B
:1018500080E00E94DA1D0E9430110E9469110E94EE
:10186000B2190E94141908950E94F8100E94230CC6
:1018700008950E9420110E94340C089592959F7043
:10188000963091F058F4925F9F70923058F4803FF8
:1018900019F030F4883E30F481E008959A5FF4CF77
:1018A000843FD1F380E00895883EB0F3813FD1F7C3
:1018B000F3CFFC012481222339F0808191810E94A1
:1018C000BA0D0E943E0C089580E00895A6E0B0E0B5
:1018D000ECE6FCE00C94BC272696E2E00C94D827BA
:1018E000A7E0B0E0E6E7FCE00C94BC272796E2E036
:1018F0000C94D82708950E947A0C08950E947B0CBE
:101900009093720280937102089508950E947E0C54
:1019100008952091710230917202822B932B0E94C4
:101920007E0C0895209171023091720282239323DC
:101930000E947E0C089520917102309172028227DC
:1019400093270E947E0C08950E947A0C08950E94AD
:10195000A40C08950E94A70C9093700280936F02CC
:10196000089590E080E00E94AA0C089521E030E004
:10197000A90102C0440F551F8A95E2F7CA010E94CF
:10198000AA0C089521E030E002C0220F331F8A958F
:10199000E2F780916F0290917002822B932B0E944C
:1019A000AA0C089521E030E002C0220F331F8A956F
:1019B000E2F72095309580916F029091700282231A
:1019C00093230E94AA0C089521E030E002C0220F68
:1019D000331F8A95E2F780916F02909170028227FF
:1019E00093270E94AA0C089520916F0230917002F3
:1019F000822B932B0E94AA0C089520916F023091A4
:101A00007002822393230E94AA0C089520916F02F2
:101A100030917002822793270E94AA0C089508959E
:101A2000262F277091E001C0990F2A95EAF723E04D
:101A3000769567952A95E1F7660F771F660F771FF2
:101A4000FA01E60FF71F50E040E0682F70E0819147
:101A5000DF0111979B01042E02C0369527950A9449
:101A6000E2F7217021952827292328272C934F5FFF
:101A70005F4F4430510559F70895A82FA77023E010
:101A8000969587952A95E1F7880F991F880F991FDA
:101A9000FB01E80FF91F50E040E080E0219130E0C9
:101AA0000A2E02C0369527950A94E2F72170332753
:101AB000042E01C0220F0A94EAF7822B4F5F5F4F7A
:101AC0004430510559F70895262F943070F48C3026
:101AD00060F4682F70E08CE0989F600D711D1124F8
:101AE00047E552E0822F0E94100D0895292F94306F
:101AF00068F48C3058F490E067E572E03CE0239F96
:101B0000800D911D11240E943D0D089580E00895DF
:101B1000B0E0A0E0EEE8FDE00C94B5277C01009178
:101B20006F02109170028091710290917202082BE5
:101B3000192BCFE0D0E0CC24C394D12CBC2EC6010D
:101B40000C2E02C0880F991F0A94E2F7802391237C
:101B5000892B49F4219790F7B12C8B2DCDB7DEB7A7
:101B6000E9E00C94D127B7018C2F0E94DC14019777
:101B700089F3F3CFCF93DF93EC010E94880DBE0170
:101B80000E94DC14DF91CF9108951F93CF93DF93D0
:101B9000EB0190915602992339F0CB010E94BA0DC6
:101BA000DF91CF911F910895882369F0CB010E94A6
:101BB000880D182F682FCE010E94640DBE01812F61
:101BC0000E94DC14EDCFCB010E94760D182FF6CFCA
:101BD0001F93CF93DF93C091730217E0809174023B
:101BE0008C1304C0DF91CF911F910895D0E01C9F0A
:101BF000F0011D9FF00D1124EB58FD4F2081318124
:101C0000428153816481758186810E94700C219686
:101C1000C770E4CF2091AD023091AE024091AF0287
:101C20005091B0026091B1027091B2028091B30202
:101C30000E94700C0895482F2091730290917402B5
:101C400057E0291302C080E0089530E0529FF00170
:101C5000539FF00D1124EB58FD4F8181681306C08E
:101C60008081481303C085818111EECF2F5F3F4FE4
:101C70002770E7CFB0E0A0E0E0E4FEE00C94B727E7
:101C80008091B302807F09F054C08091B202882312
:101C900009F44FC0E091730287E0D82E809174025E
:101CA0008E1709F446C00E2F10E0ED9DF0011124AF
:101CB000EB58FD4F8481882309F440C0D09EE00199
:101CC000D19ED00D1124FE01EB58FD4F91818091E2
:101CD000AE02981333C090818091AD0298132EC04C
:101CE000858181112BC0E280F3808091AF029091B9
:101CF000B002E81AF90A60E08DEA92E00E94BE079D
:101D00006DEA72E00E94FF05E816F906B8F48091CA
:101D1000B3028F7080618093B302C558DD4F888114
:101D20008F70806188838DEA92E00E94F20B0E949E
:101D3000E80DCDB7DEB7E7E00C94D327F801319674
:101D4000E770ACCFA4E1B0E0E8EAFEE00C94AF2786
:101D50008C0186E0F801DE011F9601900D928A95B4
:101D6000E1F7F801F480E5808DEA882E82E0982E74
:101D70008091B102811126C0F11007C0FF24F394B5
:101D80008F2D6496EFE00C94CB27EE20B9F0C801BC
:101D90000E94590CF82E882389F087E0F801ADEAFB
:101DA000B2E001900D928A95E1F78DEA92E00E94EF
:101DB00023090E943A0E0E940A0EE2CFC8010E9437
:101DC000F20BDCCF5080A180C280D380B090B202F1
:101DD0008091AF029091B0023601681A790A60E0F2
:101DE0008DEA92E0BB2009F408C10E94BE076DEAAB
:101DF00072E00E94FF056816790608F0ABC0FF206C
:101E000009F4BCCF8091B302382F307F2091AE020D
:101E1000F801918131115AC0FE2C291316C020916E
:101E2000AD029081291311C0E11049C08F7080610B
:101E30008093B3020E940A0E8DEA92E00E94F20B98
:101E40008091B302F80186839BCFE11038C06A2DE0
:101E5000852D0E941B0E6A2D852D0E941B0EE82EDB
:101E600081118ECF5F86A88A8F8598890E94BA0DCE
:101E7000292F22952F70243058F49F70223088F03B
:101E8000992399F0F8019681907F79F4FE2C78CF10
:101E90002A5F2F70223068F0C8010E94F20BEB2CF1
:101EA000F5CF992311F0882389F3805E883070F391
:101EB000F3CF803F58F3815F833070F7E7CF809195
:101EC000B30281608093B302F12C5ACF291317C05B
:101ED0002091AD029081291312C0E11010C08683B9
:101EE000C8010E94F20B87E0F801ADEAB2E0019070
:101EF0000D928A95E1F70E940A0EFB2C41CFC80192
:101F00000E94590C882309F459CFEE2009F456CFCA
:101F10008091B302803288F02091AD023091AE0200
:101F200039872887DB86CA869091B1029C871D86F7
:101F30008E87CE0108960E94F20B87E0F801ADEA89
:101F4000B2E001900D928A95E1F70E943A0E0E944C
:101F50000A0E14CF8091B302982F907FB1F46C2DAC
:101F6000DA8AC98A452D5A2D7A898F2D9E2D0E9495
:101F7000660C8DEA92E00E94F20B87E0F401119268
:101F80008A95E9F70E940A0E9FCFFF2009F4F6CE4A
:101F90002091AE02F8019181291311C02091AD0268
:101FA000908129130CC0E1100AC08683C8010E94E9
:101FB000F20B87E0F40111928A95E9F79ECFC801F0
:101FC0000E94590C882309F4F9CEEE2009F4F6CECC
:101FD0008091B302803208F4B0CF2091AD023091ED
:101FE000AE023A832983DC82CB829091B1029D8339
:101FF0001E828F83CE0101969ECF0E94BE076DEA9E
:1020000072E00E94FF056816790608F051C0FF20B3
:1020100009F4B4CEFE2CEE2009F4D0CE9091AE029D
:10202000F8018181981336C09091AD028081981398
:1020300031C08091AF029091B002C81AD90AF8EC71
:10204000CF16D104F0F49091B30290FD1AC0907FA6
:10205000C1F08091B302F8018683903F31F0982F50
:10206000907F905F8F70892B8683C8010E94F20B4E
:1020700087E0F801ADEAB2E001900D928A95E1F7B0
:102080009ACE87E0F801ADEAB2E001900D928A9510
:10209000E1F776CEC8010E94590C81114ECF809194
:1020A000B30281608093B302C8010E94F20B68CE34
:1020B0006C2DDA8AC98A452D5A2D7A898F2D9E2D4D
:1020C0000E94660C5ACFAEE0B0E0E9E6F0E10C9475
:1020D000BB27288739874A875B876C877D878E87F0
:1020E000CE0108960E94A20E8823B1F06C8566236B
:1020F00041F0288539854A855B857D858E850E94DE
:10210000700C17E0809173029091740289133DC0A6
:102110002E96E3E00C94D72787E0FE013896DE0187
:10212000119601900D928A95E1F78C85882349F3E9
:102130002091740230E0C90101968770992740917F
:1021400073024817190699F097E0929FD001939F68
:10215000B00D1124AB58BD4FFE01319601900D9288
:102160009A95E1F7809374020E94E80DCACF0E940D
:10217000390C109274021092730287E0EDEAF2E0DB
:10218000DF011D928A95E9F7BCCF819FC001112420
:102190008B589D4F0E94A20E882309F4B9CFE0917D
:1021A00073021E9FF0011124EB58FD4F20813181F5
:1021B000428153816481758186810E94700C809177
:1021C000730290E0019687709927809373029ACFEB
:1021D000682F80910201909103010E94B51E08951D
:1021E000682F80910201909103010E94C31E0895FF
:1021F00080910201909103010E94D11E0895809167
:10220000D40286958695869508958091D40287702C
:1022100008959091D402977081E009F480E00895C8
:102220008091F80208959091F802892B8093F8022A
:10223000089580959091F80298239093F80208955C
:102240001092F80208959091F702892B8093F7027B
:10225000089580959091F70298239093F70208953E
:102260001092F702089508950E94331108959091F5
:10227000D502292F282331F0809589238093D50218
:102280000E943411089508950E9443110895909179
:10229000D602292F2823281729F0982B9093D602AD
:1022A0000E94441108959091D602292F282331F0DD
:1022B000809589238093D6020E94441108958091CD
:1022C000D602882329F01092D60280E00E944411A1
:1022D0000895CF93DF93E0910201F0910301809183
:1022E000F8028083E0910201F091030180819091D6
:1022F000F702892B80839091D602992381F0E09197
:102300000201F09103018081892B80838091020179
:10231000909103010E94FF1D81110E945F11C091E5
:102320000201D091030140E250E064EB72E0CE0183
:102330000E94F727892B59F080E2FE01A4EBB2E05E
:1023400001900D928A95E1F7CE010E94541DDF9114
:10235000CF91089508950E94AA11089590914E0377
:1023600092FF11C098E0899F90011124622B609325
:10237000D4020E94C20C8091D402869586958695DF
:102380000E94AB1108950E94C20C08951092D402CD
:1023900080E00E94AB1108959091D402809589232A
:1023A0008093D402282F277069F4891759F09091EF
:1023B0004E0392FF07C08695869586950E94D20CA3
:1023C0000E94C6110895CF93C82F80914E0382FBBF
:1023D000992790F99C17E9F0C0FB82F980934E038E
:1023E00080914D0390914E030E943E1282E00E9424
:1023F000CC1180910B0380FF0CC01F92CF9381E61C
:1024000092E09F938F930E94C2030F900F900F90C2
:102410000F90CF91089580914E0382FB882780F919
:1024200091E089270E94E311089581E00E94E31161
:10243000089580E00E94E31108956FEF7FEF90E030
:1024400080E00E944928089590E080E00E941528CD
:1024500021E0863E9E4F09F020E0822F089582E021
:1024600090E00E940D28089583E090E00E940D28DE
:10247000089584E090E00E9415280895BC0184E04E
:1024800090E00E9449280895AB01BC018FE090E0E4
:102490000E943D280895AB01BC0183E190E00E94B9
:1024A0003D28089560E070E0CB010E944B12089532
:1024B00060E070E0CB010E9444120E945212089525
:1024C000A8E0B0E0E6E6F2E10C94BC2766EE7EEF11
:1024D00090E080E00E94492860E082E090E00E9465
:1024E0002B2860E083E090E00E942B28109272027B
:1024F0001092710260E074E184E090E00E9449284B
:1025000060E086E090E00E942B286FEF87E090E08B
:102510000E942B2840E050E0BA0188E090E00E9441
:102520003D2860E084E290E00E942B2860E087E193
:1025300090E00E942B2860E08CE090E00E942B2825
:1025400060E08DE090E00E942B2819821A821B82A5
:102550001C821D821E821F82188648E050E068E1BE
:1025600070E0CE0101960E941B2840E050E0BA01C5
:1025700080E290E00E943D280E9458122896E2E0F6
:102580000C94D8270E9460120895682F8EE090E086
:102590000E942B280895A6E0B0E0E1EDF2E10C9452
:1025A000BA270E94B61F8C018091F9029091FA021D
:1025B0008017910781F019821A820E94B61F682F36
:1025C00049815A81792F80E090E00E94F3081093AE
:1025D000FA020093F9022696E4E00C94D6270E94B2
:1025E000C21F6093070370930803809309039093BD
:1025F0000A0360930303709304038093050390938D
:1026000006030895089508950E94021308950E94F4
:10261000C50508958AED91E20E94B7170E94031341
:102620000E940413089581E008950E9413130895F1
:102630000E9413130895089508950E941B130E9489
:102640001C1308950E94EF150E94A50808950E948A
:10265000AD1F0E940B170E942213EDE4F3E080816E
:102660008068808380914D0390914E030E943E12BA
:102670000E9407130895A6E0B0E0E1E4F3E10C94B2
:10268000B0270E94151381110AC00E94CB120E942C
:10269000D4190E94B8082696EEE00C94CC270E942C
:1026A00021172BEF822E22E0922E640110E0F6011A
:1026B000E190F1906F01812F0E9415161F5F143079
:1026C00009F44BC0E816F90691F380910B0381FDE4
:1026D0000E941E160E941813782E10E06624639440
:1026E000812F0E9415167C01F401A190B1904F0139
:1026F0008A159B0561F1A826BF2400E0CC24C39471
:10270000D12CC5018C219D21892BC1F07720B1F0FE
:1027100009831A830E94B61F9C838B836D8221E0FC
:10272000C7018C219D21892B09F420E049815A8120
:102730006B817C818D81922F0E94F3080F5FCC0CFE
:10274000DD1C0C30F1F6F4013297F182E0821F5F5C
:10275000143031F60E94EF129ACFE816F90609F00C
:10276000B4CF93CF1F93CF93DF930E94E114EC017A
:10277000C11580E5D807F0F5C11580E4D80708F049
:102780009CC0C03ED10520F5CD3CD10508F082C0EB
:10279000C83AD10578F4C53AD10508F073C0C13004
:1027A000D10519F1209709F1C430D105F0F4D0E03A
:1027B000C0E01BC0C33CD105D0F7C85AD0E0CC0F55
:1027C000DD1FC95ADE4F0990D881C02DD4640DC0D9
:1027D000C11580E2D80708F0D1C0C11581E0D80743
:1027E00008F05AC0C83ED10510F7CE01DF91CF9155
:1027F0001F910895C03682E5D80718F5C03482E5E8
:10280000D80708F06BC0C03282E5D80708F05FC077
:10281000C11582E5D80708F497C02C2F2695269578
:1028200080E2289F900111248C2F8370C1E0D0E0BA
:1028300002C0CC0FDD1F8A95E2F7C22BD32BDD68D7
:10284000D4CFC03A82E5D80760F4C03882E5D80713
:1028500008F459C0CF71D0E0DC2FCC27C46FD06A08
:10286000C4CFC03C82E5D80708F462C0C03E82E510
:10287000D80708F09CCFDC2FCC27CC27DF71C06FA6
:10288000D06AB3CFC55AD0E0C357DE4FC881D0E07D
:10289000D064ABCFD065A9CF8D2F0E948315182FA0
:1028A000CE0199270E94E114C12FD0E0DC2FCC2764
:1028B000CC27DF71C82BD92B98CFCE0199270E9446
:1028C000E114CC27DF70C82BD92BD06A8ECFCF7103
:1028D000D0E0DC2FCC27C16FD06A87CF2C2F269574
:1028E0002695277080E2289F900111248C2F8370F9
:1028F000C1E0D0E002C0CC0FDD1F8A95E2F7C22B09
:10290000D32BDC6872CF2C2F26952695277080E27A
:10291000289F900111248C2F8370C1E0D0E002C069
:10292000CC0FDD1F8A95E2F7C22BD32BDA685DCF7F
:102930008C2F8F710E948315C82FD0E0DC2FCC27FD
:10294000CC27DF71D06251CF8C2F8F710E948315FD
:1029500055E0D695C7955A95E1F7CF70D0E0DC2FBA
:10296000CC27282F30E084FF05C044E0220F331F1E
:102970004A95E1F7C22BD32BD06937CF8D2F8F71BA
:102980000E948315182FCE0199270E94E114C12FB0
:10299000D0E0DC2FCC27CC27DF71C82BD92BD2CFAE
:1029A000462F743030F46C3020F4672F0E941807E3
:1029B000089590E080E008950E94D0140E94B21320
:1029C000089582389105B9F1B0F48133910509F485
:1029D0007DC048F48932910509F46DC08A329105B1
:1029E00009F47BC008958533910509F45FC08933EC
:1029F000910509F10895833E9105D9F138F4803E9F
:102A0000910529F1823E910579F10895863E91055F
:102A1000D9F1873E910509F43EC0843E910541F508
:102A200020914E0321FF24C080914D0384FD19C0E5
:102A300087EE90E0089520914D03237009F05AC06D
:102A400020914E0323FF14C089E290E00895209165
:102A50004D0320FD38C030914E0330FF09C024FFE4
:102A600043C090E080E0089520914D0322FDF7CF10
:102A7000089520914D0322FD3AC030914E0330FD60
:102A800039C024FFF5CFEDCF20914D0323FFF0CFC8
:102A900024FDE7CFCDCF20914D0323FD2EC03091F3
:102AA0004E0331FFEECF84EE90E0089520914D0368
:102AB00025FFDECFC9CF20914D0325FD21C02091F8
:102AC0004E0323FFD5CF89E390E0D2CF20914D0371
:102AD00026FFCECF8AE290E0089520914D0326FF95
:102AE000C7CF81E390E0089583EE90E0089582EEF1
:102AF00090E0089580EE90E0089586EE90E00895CD
:102B000085E390E0089590914D0392FF10C041E05D
:102B1000282F2471243009F040E031E0282F28715B
:102B2000283009F030E0431711F02CE0822793FFA2
:102B300010C041E0282F2471243109F040E031E039
:102B4000282F2871283109F030E0431711F02CE0CC
:102B5000822730914E0330FF10C051E0282F2171A1
:102B6000213009F050E041E0282F2871283009F089
:102B700040E0541711F029E0822731FF10C041E0F6
:102B8000282F2171213109F040E031E0282F2871F0
:102B9000283109F030E0431711F029E0822794FD35
:102BA000877E08950E941D1208950E9421172FEF1D
:102BB00086E791E0215080409040E1F700C000009E
:102BC0000E94211780E00E94151680FF04C00E9419
:102BD000D2150E94012008950E94D51508950E94E3
:102BE0002412811102C00E94C2120E942F128093EF
:102BF0000B030E94391290934E0380934D030E9461
:102C0000EC150E94341290E00E94860C80916F02B5
:102C1000909170020E94A70C089508950E940D16CD
:102C2000089508950E9411160895E82FF0E0EE0F20
:102C3000FF1FE95AFC4F808191810895B0E0A0E028
:102C4000E4E2F6E10C94B62786E892E00E942903BC
:102C500087E5E82E83E0F82ED0E0C0E091E8C92EA9
:102C600092E0D92E08E712E0DF93CF93DF92CF9264
:102C70000E94C2038EE792E00E942903F70181912E
:102C800091917F010E9485089F938F931F930F93CB
:102C90000E94C20386E792E00E94290321968DB725
:102CA0009EB708960FB6F8949EBF0FBE8DBFC43076
:102CB000D105D1F6CDB7DEB7E8E00C94D22780EA93
:102CC0008A95F1F7089500C008950E945F1608954F
:102CD000F894E82FE295EF70F0E031A1282F2F70E3
:102CE00081E090E001C0880F2A95EAF7982F90952F
:102CF000932391A392A1892B82A378940895CF93D3
:102D0000DF9385E90E94681686E60E94681686E3CE
:102D10000E94681686EC0E946816C0E9D1E089918D
:102D20008F3F11F00E94681681E0CC39D807B9F7BF
:102D3000DF91CF910895AF92BF92DF92EF92FF9211
:102D40000F931F93CF93DF938C01D62EC62FD0E025
:102D5000CE0184569E4F7C01FC0120812F3F09F457
:102D60004DC0F894E22FE295EF70F0E031A12F70A2
:102D700081E090E001C0880F2A95EAF7932F982B05
:102D800091A392A18095892382A378940E946316CF
:102D9000E0E9F1E04CE951E021E030E0B12CA12C78
:102DA00061916F3FA9F1A62FA295AF70B0E0909608
:102DB0008C9190E06F7002C0959587956A95E2F7C7
:102DC00080FD26C0C901A82AB92A220F331F4E1739
:102DD0005F0731F7F70180818F3F11F00E9468167D
:102DE00061E0A114B10409F460E08D2D0E94651624
:102DF000CC0FDD1FC00FD11FB982A882DF91CF9108
:102E00001F910F91FF90EF90DF90BF90AF900895CA
:102E100090E080E0D8CF0E947F1688E0E7E5F3E0FD
:102E2000DF01982F1D929A95E9F7EFE4F3E0DF01B7
:102E30001D928A95E9F784E00E945C170E940E16A5
:102E40000895A8E0B0E0E7E2F7E10C94B9278E011D
:102E50000F5F1F4F88E0F80111928A95E9F7F12C76
:102E60006F2DC8010E949B16F394F4E0FF12F8CF77
:102E700048E050E0B8018FE493E00E94F72721E09A
:102E8000009709F420E0892B41F088E0F801AFE4D5
:102E9000B3E001900D928A95E1F744E067E573E0B5
:102EA0008FE493E00E945D17182F0E941216812F65
:102EB0002896E5E00C94D5270895CF92DF92EF9203
:102EC000FF921F93CF93DF936C017B01C42F2223CA
:102ED00049F081E080930E030E94B61F90930D038A
:102EE00080930C0310910E0311110AC010E0812F82
:102EF000DF91CF911F91FF90EF90DF90CF900895D9
:102F000080910C0390910D030E94CE1F059770F3E2
:102F1000D0E0CC0FDD1FAE01B601C7010E94F7273C
:102F2000892B41F0AE01B601C7010E94042810921E
:102F30000E03DDCF10E0FBCF0E9456220E94271324
:102F40000E94632208950E9468220E943B130E94FF
:102F50008A2208950E944F1F0E943C220E940A1359
:102F60000E949C170E94A3170E941D13FBCF9093F1
:102F7000B1018093B0010895282F35EB2303C001E0
:102F8000112497FF04C080589109892F0895805813
:102F90009F4FFBCF8091150380FF0DC06091090109
:102FA00070E0660F771F6038710570F56115710567
:102FB00069F1862F089581FF07C06091090184E0BF
:102FC000689FB0011124EFCF6091090182FD0AC012
:102FD000809114038823A9F02091080160910901D0
:102FE000821710F088E0ECCF869FC001112433E0F7
:102FF000880F991F3A95E1F7622F70E00E9492279F
:10300000D2CF68E070E0D5CF8FE7089581E00895D2
:103010008091150380FF0CC06091050170E07595EB
:103020006795759567956115710549F1862F089526
:1030300081FF06C06091050170E075956795F3CF3B
:103040006091050182FD0BC0909113039923A1F0BB
:103050006091040180910501961738F0682F70E0A7
:103060006038710500F38FE70895899FC00111242E
:1030700070E00E949227F4CF61E070E0D7CF81E04A
:1030800008958D3C31F40E94CA17819580931903ED
:1030900008958E3C19F40E94CA17F8CF8F3C31F482
:1030A0000E94CA178195809318030895803D19F4F2
:1030B0000E94CA17F8CF893D29F40E94081880930E
:1030C0001A0308958A3D21F40E9408188195F7CFCC
:1030D0008B3D31F40E940818819580931B0308955D
:1030E0008C3D19F40E940818F8CF9FE2980F983091
:1030F00070F4815D990B21E030E001C0220F8A95C8
:10310000EAF780911703822B8093170308958D3D72
:1031100031F48091150381608093150308958E3DED
:1031200021F4809115038260F7CF8F3DB9F780912C
:1031300015038460F1CF409118038D3C59F48091C0
:10314000190387FF0DC01092190341110BC0109293
:10315000140308C08E3C81F48091190318169CF367
:10316000442381F080911A0390911B03892B09F06D
:103170005AC01092130308958F3C49F447FFF0CFD3
:1031800010921803809119038111ECCFE0CF803D9C
:1031900019F41416ACF3E4CF90911A03893D29F485
:1031A0001916F4F610921A03DBCF8A3D19F497FF33
:1031B000D7CFF8CF90911B038B3D29F497FFD0CF49
:1031C00010921B03CDCF8C3D19F41916CCF3C8CF48
:1031D0009FE2980F983090F4815D990B21E030E0E8
:1031E000B90102C0660F771F8A95E2F7CB0180957F
:1031F00090911703892380931703B2CF8D3D31F44B
:10320000809115038E7F80931503AACF8E3D21F404
:10321000809115038D7FF7CF8F3D09F0A1CF80916D
:1032200015038B7FF0CF089580910B0383FF7EC041
:1032300084EC92E00E942903809117031F928F93E0
:103240008FEB92E09F938F930E94C2038DEB92E0ED
:103250000E94290380911803282F082E000C330B9D
:103260003F938F938AEB92E09F938F930E94C203C8
:1032700088EB92E00E94290380911903282F082EE1
:10328000000C330B3F938F9385EB92E09F938F93CA
:103290000E94C20383EB92E00E94290380911A03EB
:1032A000282F082E000C330B3F938F9380EB92E076
:1032B0009F938F930E94C2038EEA92E00E9429039B
:1032C00080911B03282F082E000C330B3F938F9304
:1032D0008BEA92E09F938F930E94C20388EA92E068
:1032E0000E942903809114031F928F9385EA92E034
:1032F0009F938F930E94C20383EA92E00E94290366
:10330000809115031F928F9380EA92E09F938F9391
:103310000E94C2038DE992E00E9429038DB79EB7F7
:103320004C960FB6F8949EBF0FBE8DBF0E94B61F7D
:103330009C019091180380911903982B21F03093F0
:1033400012032093110390911A0380911B03982B71
:1033500021F03093100320930F0386E193E00E9445
:10336000A71D089586E0E6E1F3E0DF011D928A954E
:10337000E9F71092140310921303109215030895A5
:10338000FC01828181110EC0838181110BC0848177
:10339000811108C091E08581811101C090E0892FE1
:1033A0008170089581E0FCCFA6E0B0E0EAEDF9E19C
:1033B0000C94BB2786E0E6E1F3E0DE011196019074
:1033C0000D928A95E1F7109218031092190310924A
:1033D0001A0310921B038B819C81892B89F08091A9
:1033E0001103909112030E94CE1FAC01909114031F
:1033F0009923C9F180910A018417150608F440C089
:103400008D819E81892B91F080910F039091100303
:103410000E94CE1FAC0190911303992309F46AC056
:10342000809106018417150608F472C0BE016F5F13
:103430007F4F86E193E00E94E31E811105C086E183
:1034400093E00E94C01981110E94141986E0FE01C8
:103450003196A6E1B3E001900D928A95E1F72696A8
:10346000E3E00C94D72720910B018AE0289F90017C
:1034700011242417350720F69F5F9093140302C090
:103480009F3FD1F71B81112359F00E94CA179FEF6C
:1034900011160CF491E0899F802D1124809318035C
:1034A0001C81112359F00E94CA179FEF11160CF4CA
:1034B00091E0899F802D1124809319038091180336
:1034C000882309F49DCF10911903112309F498CF93
:1034D0000E94BC17882351F080931803812F0E940B
:1034E000BC17882329F0809319038ACF81E0F4CF99
:1034F00081E0F9CF209107018AE0289F90011124F3
:103500002417350708F092CF9F5F9093130302C0F2
:103510009F3FD1F71D81112359F00E9408189FEF9A
:1035200011160CF491E0899F802D112480931A03C9
:103530001E81112359F00E9408189FEF11160CF4F8
:1035400091E0899F802D112480931B0380911A03A1
:10355000882309F46BCF10911B03112309F466CF64
:103560000E94BC17882351F080931A03812F0E9478
:10357000BC17882329F080931B0358CF81E0F4CF38
:1035800081E0F9CFCF93DF93EC01FB0185818823A4
:1035900009F4D2C09E0130572332310508F0B2C081
:1035A0000E94391290934E0380934D03FE01E15027
:1035B000F047E232F10520F4E359F74D0C94A627C9
:1035C00080914D03816080934D0393C080914E03A1
:1035D000886080934E038DC080914D038260F3CF4D
:1035E00080914D038460EFCF80914D038860EBCFD5
:1035F00080914E038160EDCF80914E038260E9CFD0
:1036000080914D038061DFCF80914D038062DBCFDD
:1036100080914D038064D7CF0E94390C80914D0377
:103620008068D1CF80914D038C60CDCF80914E03C7
:103630008360CFCF80914D038E7FC5CF80914E03A5
:10364000877FC7CF80914D038D7FBDCF80914D0384
:103650008B7FB9CF80914D03877FB5CF80914E038B
:103660008E7FB7CF80914E038D7FB3CF80914D0376
:103670008F7EA9CF80914D038F7DA5CF80914D0383
:103680008F7BA1CF0E94390C80914D038F779BCF08
:1036900080914D03837F97CF80914E038C7F99CF8C
:1036A00080914D0382FB992790F921E0922790FBAE
:1036B00082F990FB83F987CF80914E03982F9095E4
:1036C00091708E7F892B90FB81F983CF90914D0370
:1036D000892F8F7B96FF806476CF0E94390C909162
:1036E0004D03892F97FB87F980586DCF81E00E94A9
:1036F000C51280914D0390914E030E943E120E948C
:10370000390C80E0DF91CF91089580E0F0CF909167
:103710004D03892F8F7E94FF806155CF90914D038B
:10372000892F8E7F90FF81604ECF90914E03892F1D
:10373000877F93FF88604DCF81E0E4CFB0E0A0E0C9
:10374000E4EAFBE10C94B727E82FF0E0E951FD4FE4
:10375000D490282F26952695269530E0F901E95733
:10376000FC4F0491877010E0082E02C01595079554
:103770000A94E2F701701127F901E958FC4FE4902F
:10378000F12C082E02C0F594E7940A94E2F791E038
:10379000E922FF24F901E959FC4FC491D0E002C0AD
:1037A000D595C7958A95E2F7C170DD2701151105FA
:1037B00019F081EE0E943609E114F10419F086EE49
:1037C0000E9436098D2D0E94CE09E114F10419F0F2
:1037D00086EE0E9483090115110519F081EE0E9401
:1037E0008309CD2B19F08CE20E94CE09CDB7DEB74C
:1037F000E7E00C94D327EF92FF920F931F93CF93A0
:10380000DF93EC01162F0AE08881882309F454C065
:10381000813009F04EC08981813099F47E0122E027
:10382000E20EF11C8A810E94CE09E7012196812FC8
:10383000815050F3EFE9FFE03197F1F700C000004D
:10384000F7CF823041F47E0182E0E80EF11C8A81DC
:103850000E943609EACF833041F47E01E2E0EE0EA9
:10386000F11C8A810E948309E0CF843011F02196F7
:10387000DDCF2A81229690E080E0AE014F5F5F4F5E
:103880002053330B2A30310548F0019778F2EFE9E5
:10389000FFE03197F1F700C00000F7CF089FB001BB
:1038A000099F700D1124C901860F971F2981EA0114
:1038B000E4CF0E949E1BBACFCDB7DEB7E6E00C94F2
:1038C000D42760E00E94FB1B0895CF93DF93EB01A8
:1038D00086319C4711F50E9410119D81992399F022
:1038E0008A7A91E009F490E090931C03811109C059
:1038F00089E20E94E8100E94691180E0DF91CF9177
:10390000089585E3F6CF80911C03811104C089E2FC
:103910000E94F010F0CF85E3FBCF81E0EFCFB0E065
:10392000A0E0E5E9FCE10C94B4277C015B01C42F25
:10393000D22FFC0185818823C9F040931F030E9488
:10394000B61F90931E0380931D0380E28C0F883076
:1039500040F4C77081E001C0880FCA95EAF70E9461
:10396000D709CDB7DEB7EAE00C94D02710911F033A
:10397000141338C080911D0390911E030E94CE1F26
:103980006C01B701C5010E94FF05C816D90650F5A4
:10399000C0E2CD0F1D17C1F080E2810F883048F4DE
:1039A000177081E0012E01C0880F0A94EAF70E9487
:1039B000DE09C83048F481E09D2F977001C0880F60
:1039C0009A95EAF70E94D709802F0E94CE09C83045
:1039D00040F6D77081E001C0880FDA95EAF70E94BF
:1039E000DE09BFCF80E28C0F883008F0BACFC770F5
:1039F00081E001C0880FCA95EAF7F1CF0F93DB0190
:103A000088519C4787309105A0F5FC01E157F74D9F
:103A10000C94A62706E221EE41EE6AE17CE7CD0197
:103A20000E948F1C80E00F91089507E225EE45EE7D
:103A30006BE17CE7F4CF06E221EE40EE68E17CE743
:103A4000EECF07E225EE44EE69E17CE7E8CF06E23F
:103A500021EE42EE6CE17CE7E2CF07E225EE46EE96
:103A60006DE17CE7DCCF08E221E045EE6EE17CE72A
:103A7000D6CF15968C91882319F010921F03D3CFBF
:103A800081E0D1CF90932503809324030895E091A2
:103A90002403F0912503309729F00190F081E02D67
:103AA0000995089580E00895EF92FF920F931F9378
:103AB000CF93DF93EC01E0912403F091250330973D
:103AC00009F440C080911401882341F080914D0396
:103AD00087FF04C08881898386E088830280F38120
:103AE000E02DCE01099580910B0382FF2BC080FF52
:103AF00004C08FE993E00E94290310E000E089E907
:103B0000E82E83E0F82E80910B0380FF0EC0FE01AB
:103B1000E00FF11F80811F928F93FF92EF920E941E
:103B2000C2030F900F900F900F900F5F1F4F083040
:103B3000110549F780910B0380FF04C087E993E0EA
:103B40000E942903CDB7DEB7E6E00C94D427E091BC
:103B50002403F0912503309739F022E0DC012C9307
:103B60000480F581E02D09950895A3E0B0E0EBEB2A
:103B7000FDE10C94BC2720912203309123032817E8
:103B80003907A1F09093230380932203E09124034B
:103B9000F0912503309751F023E029839B838A839A
:103BA0000680F781E02DCE01019609952396E2E08B
:103BB0000C94D827A3E0B0E0E0EEFDE10C94BC2724
:103BC000209120033091210328173907A1F0909309
:103BD000210380932003E0912403F0912503309783
:103BE00051F024E029839B838A830680F781E02DAE
:103BF000CE01019609952396E2E00C94D827FC01AA
:103C0000329680911401882321F080914D039EE12A
:103C100087FF96E080E0915008F4089521912223D7
:103C2000D1F38F5FF8CF662301F120911401222395
:103C3000F1F020914D0327FF1AC0462F4695469577
:103C400046954E3190F4677021E030E002C0220FBB
:103C5000331F6A95E2F7840F911DFC01828190E089
:103C60002823392381E0232B69F480E00895FC01A7
:103C7000329608962191261721F0E817F907D1F717
:103C8000F4CF81E008959C01FC0132969FEF80E023
:103C90004191461751F09F3F19F4411101C0982FEF
:103CA0008F5F8630A9F79F3F09F40895290F311DD2
:103CB00097FD3A95F90162830895FC0132960896C2
:103CC0002191261303C0DF0111971C92E817F90711
:103CD000B9F70895E62FE695E695E695EE3170F48E
:103CE000E80FF92FF11D677021E030E001C0220FCD
:103CF0006A95EAF78281822B8283089580910B0373
:103D000080FF0CC01F926F938FEC93E09F938F9373
:103D10000E94C2030F900F900F900F900895E62F0E
:103D2000E695E695E695EE3178F4E80FF92FF11D6A
:103D3000677021E030E001C0220F6A95EAF7209514
:103D4000828128232283089580910B0380FF0CC079
:103D50001F926F9381EB93E09F938F930E94C20316
:103D60000F900F900F900F9008952091140122232F
:103D700039F020914D0327FF03C00E946A1E089569
:103D80000E94431E089520911401222339F02091AE
:103D90004D0327FF03C00E948F1E08950E945D1EE1
:103DA0000895FC01329680911401882351F080918E
:103DB0004D0387FF06C08EE1DF011D928A95E9F76A
:103DC000089586E0F9CFDC01FB0111969C911197D3
:103DD0008181981322C012968C911297882319F032
:103DE000928189131AC013968C911397882319F026
:103DF0009381891312C015968C911597882319F019
:103E0000958189130AC014969C91992321F081E031
:103E10002481291303C080E001C081E081700895EE
:103E200008950E94101F0895811106C081E08093BB
:103E300026030E94111F089582E0F9CF83E080934A
:103E400026030E94111F08950E94141F089581E007
:103E5000809326030E94111F08950E94271F089532
:103E6000089508950E94311F0895089508950E94AD
:103E7000301F0895CF930E94351F0E9421170E9482
:103E8000361FC0E08C2F0E941516892B31F4CF5FAE
:103E9000C430C1F780E0CF91089581E0FCCF85B7B1
:103EA000806885BF85B7806885BF08951F921FB65B
:103EB0001F9211248F939F93AF93BF9380912703F9
:103EC000811113C080915F0390916003A091610301
:103ED000B09162034196A11DB11D80935F03909341
:103EE0006003A0936103B0936203BF91AF919F9170
:103EF0008F911F901FBE1F9018958091670384308B
:103F000031F10E9463081092270388E190E020E4D9
:103F10000FB6F894A895809360000FBE20936000C0
:103F200083B7817F846083BF83B7816083BF7894C8
:103F3000889583B78E7F83BF0FB6F894A89580913C
:103F40006000886180936000109260000FBE089549
:103F50000E94390C0E946808089582E084BD93E0B5
:103F600095BD9AEF97BD80936E0008952FB7F89492
:103F700080915F0390916003A0916103B09162030F
:103F80002FBF08952FB7F89460915F03709160037D
:103F900080916103909162032FBF08959C014FB7F8
:103FA000F89480915F0390916003A0916103B091B8
:103FB00062034FBF821B930B089578941F921FB624
:103FC0001F9211248F939F93AF93BF9380915F03B0
:103FD00090916003A0916103B09162030196A11DCD
:103FE000B11D80935F0390936003A0936103B0932E
:103FF0006203BF91AF919F918F911F901FBE1F9041
:10400000189581E08093E00080E28093D8001092C0
:10401000C9008FE19EE40197F1F700C0000087E03E
:1040200090EBDC018093700390937103A093720373
:10403000B093730388E19CE00FB6F894A895809341
:1040400060000FBE90936000FFCF88E19CE00FB648
:10405000F894A895809360000FBE90936000FFCF06
:1040600080914B0308959B01BA01909167039430AE
:10407000E9F48F708093E9009FEF8091E800915000
:1040800085FD06C085ED8A95F1F700009111F5CF09
:104090008091E80085FF0AC050E040E0C9010E941D
:1040A00000238091E8008E778093E800089543E034
:1040B00050E0BC0182E00E943320089546E050E0C9
:1040C000BC0182E00E9433200895CF93DF93EC017E
:1040D00080911401811111C048E050E0BE0181E0DF
:1040E0000E94332080E2FE01ABE2B3E001900D922A
:1040F0008A95E1F7DF91CF91089580914D0387FF75
:1041000005C040E282E050E0BE01EACF48E081E035
:10411000FACF83E194E00E94290380916603811124
:1041200009C00E9490240E94ED248091E2008460E6
:104130008093E20008958FE094E00E94290310929A
:10414000660308958BE094E00E9429030E94271FD4
:10415000089587E094E00E9429036091630381E061
:10416000611101C080E00E941E1F089583E094E069
:104170000E9429039091670381E0943009F080E068
:10418000609163030E94241F0895209129032F5FEB
:10419000822F62E30E948627992319F02093290336
:1041A00008951092290380912A038823F1F08091C9
:1041B00067038430C1F49091E9009F702091EC0076
:1041C000822F817020FD80E8892B93E09093E90095
:1041D0009091EB0090FF04C09091EE0097FD08C015
:1041E0008F708093E90010922A0308951092F100D5
:1041F0009091E80095FDFACF9091E80090FFF0CF04
:104200009091E8009E779093E800EACF42E061EC5D
:1042100081E00E940C2442E261EC82E00E940C24C6
:1042200042E261EC83E00E940C249091670381E0FC
:10423000943009F080E0609163030E94141F089598
:1042400080916903833009F461C030F48130D1F189
:10425000823009F49EC008958A3009F48AC08B30F8
:1042600009F46FC0893009F050C080916803813231
:1042700009F04BC080916C0390916D03029708F098
:1042800044C08091E800877F8093E8008091E80037
:1042900082FF37C09091F3008091F200029731F4D1
:1042A0008091F100813011F0863021F48091F1008D
:1042B00080934B038091E8008B778093E8000E9405
:1042C000402423C080916803813AF9F48091E8008A
:1042D000877F8093E80080916C0390916D03892B18
:1042E00061F460E28BE293E070E00E944F238091E2
:1042F000E8008B778093E800089560E090E080E02C
:10430000F3CF809167038111C1CF08958091680335
:10431000813AD9F780916C0390916D03892BA9F7AD
:104320008091E800877F8093E8008091E80080FF1B
:10433000FCCF809114018093F1008091E8008E778A
:10434000BCCF80916803813201F780916C0390911A
:104350006D03892BD1F68091E800877F8093E80078
:104360000E94402480916A03809314010E94390CBA
:10437000089580916803813241F68091E800877F3B
:104380008093E8000E94402480916B0380934C034B
:10439000089580916803813A09F0B7CF8091E800D1
:1043A000877F8093E8008091E80080FFFCCF8091B8
:1043B0004C03C1CF9FB7F89410922A039FBF9091EE
:1043C0006703943009F048C02091E9002F703091C4
:1043D000EC00932F917030FD90E8922B23E0209316
:1043E000E9002091EB0020FF34C02091EE0027FF70
:1043F00030C020912803222321F02091E80025FFDE
:1044000028C01092280326E03091E80035FF14C040
:104410008093F1008091E80085FD27C08091E8003D
:1044200080FFFCCF8091E8008E778093E8009F703A
:104430009093E90080E0089530916703343049F4A7
:104440003091EB0035FD05C0215041F481E08093AF
:1044500028039F709093E9008FEF0895EFE9FFE044
:104460003197F1F700C00000CFCF8FB7F89421E06B
:1044700020932A038FBFDBCF84B7877F84BF0FB61B
:10448000F894A895809160008861809360001092F4
:1044900060000FBE80E890E00FB6F8948093610052
:1044A000909361000FBE0E942D1F08950E949024DA
:1044B0000E94ED24E2EEF0E08081846080837894B5
:1044C0000E946B2708958CE091E00E94421D0895A0
:1044D00080916703853071F480910B0380FF04C0E5
:1044E0008DEE93E00E94290380916703853019F0D7
:1044F0000E94A81F08950E947D1F80916503882354
:1045000099F30E943A1F882379F30E94EA220E94BD
:10451000390CEACF08959A0140916E0350916F03D0
:104520000E9493220895492F55274330510521F1C8
:1045300068F44130510509F443C04230510509F493
:1045400044C090E080E050E040E026C04132510598
:1045500051F142325105A9F76330710590F7FB0123
:10456000EE0FFF1FED55FE4F4081518160567E4F8B
:10457000FB01808190E010C099278130910581F086
:10458000009729F00297E9F6E7E1F4E002C0E9E3D9
:10459000F4E0849190E0AF01F901518340830895E4
:1045A000E5E2F4E0F6CF6330710558F6660F771F49
:1045B000FB01E755FE4F4081518189E090E0ECCF4F
:1045C00082E190E048E954E0E7CF8BE590E04DE3ED
:1045D00054E0E2CF80E189BD82E189BD09B400FEEB
:1045E000FDCF8091D8008F7D8093D8008091E0002E
:1045F00082608093E0008091E00081FDFCCF08950F
:10460000AF92BF92CF92DF92FF920F931F93CF93FF
:10461000DF936C01EB018A010E945F24F82E811167
:1046200023C00115110539F0F80180819181C81B63
:10463000D90BC80ED91EB12CA12C2097A9F08091BE
:10464000E80085FD22C08091E8008E778093E80025
:1046500001151105A1F0F80180819181A80EB91E04
:10466000B182A08285E0F82E8F2DDF91CF911F912E
:104670000F91FF90DF90CF90BF90AF9008950E9470
:104680005F248823D1F2F82EEFCFF60181916F01DC
:104690008093F1002197FFEFAF1ABF0ACECFFC0144
:1046A00080916E0390916F0386179707A0F06115B4
:1046B000710529F49091E8009E779093E80090E0CE
:1046C0006115710551F4911108C08091E80082FFD5
:1046D00034C080E00895BC01F2CF80916703882345
:1046E000C1F18530C1F18091E80083FD30C0809137
:1046F000E80082FDEACF8091E80080FFE1CF809161
:10470000F3002091F200382F6115710519F028305F
:10471000310558F091E02830310509F090E0209102
:10472000E8002E772093E800CBCF81918093F100B1
:10473000615071092F5F3F4FE7CF80916703882356
:1047400041F0853041F08091E80083FFBECF81E0E9
:10475000089582E0089583E00895FC0180916E033E
:1047600090916F0386179707A0F06115710529F4E2
:104770008091E8008E778093E80090E061157105E4
:1047800051F4911108C08091E80082FF35C080E0AB
:104790000895BC01F2CF809167038823C9F1853069
:1047A000C9F18091E80083FD31C08091E80082FD6D
:1047B000EACF8091E80080FFE1CF8091F300209163
:1047C000F200382F6115710519F02830310558F0C5
:1047D00091E02830310509F090E08091E8008E7773
:1047E0008093E800CBCF84918093F10031966150A3
:1047F00071092F5F3F4FE6CF80916703882341F017
:10480000853041F08091E80083FFBDCF81E00895BD
:1048100082E0089583E00895982F973028F08F70F4
:104820008093E90081E008959093E900242F762F8A
:1048300050E0981731F07091EC002091ED0050910C
:10484000F00021FD02C09F5FE8CF3091EB003E7F7A
:104850003093EB003091ED003D7F3093ED003091CF
:10486000EB0031603093EB007093EC002093ED008F
:104870005093F0002091EE0027FDE5CF80E00895F1
:104880008091680387FF13C08091E80082FF06C013
:104890008091E8008B778093E80004C080916703E3
:1048A0008111F2CF0895809167038823D9F3809115
:1048B000E80080FFF8CF8091E8008E77ECCF209160
:1048C000E4003091E50095E6A9012091EC00822FEB
:1048D000817020FF06C08091E80080FF06C080E064
:1048E00008952091E80022FD1AC080916703882373
:1048F00089F0853089F08091EB0085FD0FC0209113
:10490000E4003091E50042175307F9F29150E1F6C7
:1049100084E0089582E0089583E0089581E0089599
:104920000E94FF240E940725E0EEF0E08081816074
:104930008083E8EDF0E080818F77808319BCA7ED5C
:10494000B0E08C918E7F8C9380818F7E80831092DB
:10495000660308950F931F93CF93DF930E94FF2464
:104960000E940725C8EDD0E088818F7788838881F1
:104970008068888388818F7D888319BC1092670343
:1049800010926303109265031092640300EE10E02E
:10499000F80180818B7F808388818160888342E0F9
:1049A00060E080E00E940C24E1EEF0E080818E7FE8
:1049B0008083E2EEF0E08081816080838081886086
:1049C0008083F80180818E7F8083888180618883E5
:1049D000DF91CF911F910F910895E8EDF0E0808174
:1049E0008F7E8083E7EDF0E080818160808384E0CA
:1049F00082BF81E0809366030E94AA240895E8EDB7
:104A0000F0E080818E7F80831092E2000895109202
:104A1000DA001092E10008951F920F920FB60F92E4
:104A200011242F933F934F935F936F937F938F93B3
:104A30009F93AF93BF93EF93FF938091E10082FF29
:104A40000BC08091E20082FF07C08091E1008B7F64
:104A50008093E1000E94C5208091DA0080FF19C098
:104A60008091D80080FF15C08091DA008E7F8093FE
:104A7000DA008091D90080FF96C080E189BD82E193
:104A800089BD09B400FEFDCF81E0809367030E94D9
:104A900089208091E10080FF19C08091E20080FFB1
:104AA00015C08091E2008E7F8093E2008091E20049
:104AB00080618093E2008091D80080628093D8006A
:104AC00019BC85E0809367030E94A9208091E100D2
:104AD00084FF2BC08091E20084FF27C080E189BD64
:104AE00082E189BD89B5982F917080FFFBCF8091BD
:104AF000D8008F7D8093D8008091E1008F7E8093D5
:104B0000E1008091E2008F7E8093E2008091E200DC
:104B100081608093E20080916303882309F449C097
:104B200084E0809367030E94B6208091E10083FFB8
:104B300029C08091E20083FF25C08091E100877F3A
:104B40008093E10082E08093670310926303809179
:104B5000E1008E7F8093E1008091E2008E7F809360
:104B6000E2008091E20080618093E20042E060E038
:104B700080E00E940C248091F00088608093F00017
:104B80000E94A220FF91EF91BF91AF919F918F91D1
:104B90007F916F915F914F913F912F910F900FBE39
:104BA0000F901F90189519BC109267030E949B20CC
:104BB00070CF8091E30087FD93E090936703B3CFBC
:104BC0001F920F920FB60F9211242F933F934F9382
:104BD0005F936F937F938F939F93AF93BF93CF9385
:104BE000DF93EF93FF93D091E900DF708091EC00A9
:104BF000C82FC17080FDC0E81092E9008091F000DC
:104C0000877F8093F00078940E9424261092E90018
:104C10008091F00088608093F000CD2BCF70C0931E
:104C2000E900FF91EF91DF91CF91BF91AF919F91FB
:104C30008F917F916F915F914F913F912F910F9045
:104C40000FBE0F901F901895AAE2B0E0EAE2F6E2DC
:104C50000C94BB2788E693E02091F100FC0121939E
:104C6000CF01F3E080379F07B9F70E9420218091A0
:104C7000E80083FF1EC180916803909169039A3018
:104C800008F017C1E92FF0E0EA56F74D0C94A6277B
:104C9000803899F0823809F00CC180916C038F70D4
:104CA000873008F006C18093E9008091EB0085FB16
:104CB000882780F91092E90006C0809164039091E2
:104CC0006503911182609091E800977F9093E800CE
:104CD0008093F1001092F1008091E8008E77E5C09A
:104CE000882309F4D3C0823009F0E3C080916A03BD
:104CF0008111D6C080916C038F702FEF280F263062
:104D000008F0D7C08093E9002091EB0020FFC8C0D5
:104D1000933031F48091EB0080628093EB00C0C04F
:104D20009091EB0090619093EB0021E030E001C0A6
:104D3000220F8A95EAF72093EA001092EA00809108
:104D4000EB008860EACF8111B4C010916A031F772D
:104D50008091E3008078812B8093E3008091E800CC
:104D6000877F8093E8000E9440248091E80080FFC4
:104D7000FCCF8091E30080688093E30082E0111112
:104D800083E08093670395C08058823008F091C01B
:104D900080916A0390916B038C3D23E09207A1F50B
:104DA00083E08A838AE289834FB7F894DE01139601
:104DB00020E03EE051E2E32FF0E050935700E49111
:104DC00020FF03C0E295EF703F5FEF708E2F90E001
:104DD000EA30C0F0C7968D939D932F5F243159F729
:104DE0004FBF8091E800877F8093E8006AE270E01F
:104DF000CE0101960E944F238091E8008B7780932B
:104E0000E80057C0C096E7CF60916C0370916D03C6
:104E1000AE014F5F5F4F0E948B22BC01892B09F4CA
:104E200048C09091E800977F9093E80089819A812B
:104E30000E94AD23E1CF8038E1F58091E800877FC3
:104E40008093E800809163038093F10045CF811146
:104E500030C090916A03923060F58091E800877FBE
:104E60008093E800909363030E9440248091630341
:104E7000882311F084E005C08091E30087FDFACF1C
:104E800081E0809367030E94062113C080916A032A
:104E9000813079F481E0933009F080E080936503FC
:104EA0001092E9008091E800877F8093E8000E94DB
:104EB00040248091E80083FF0AC08091E800877F4A
:104EC0008093E8008091EB0080628093EB00AA96CB
:104ED000E3E00C94D727CF93809167038823A1F058
:104EE000C091E900CF709091EC00892F817090FD06
:104EF00080E8C82B1092E9008091E80083FD0E94B1
:104F00002426CF70C093E900CF910895991B79E0D2
:104F100004C0991F961708F0961B881F7A95C9F749
:104F20008095089597FB072E16F4009407D077FD1F
:104F300009D00E94E32707FC05D03EF490958195A7
:104F40009F4F0895709561957F4F0895EE0FFF1F55
:104F50000590F491E02D09942F923F924F925F9229
:104F60006F927F928F929F92AF92BF92CF92DF9279
:104F7000EF92FF920F931F93CF93DF93CDB7DEB7DE
:104F8000CA1BDB0B0FB6F894DEBF0FBECDBF099472
:104F90002A88398848885F846E847D848C849B84C9
:104FA000AA84B984C884DF80EE80FD800C811B81D7
:104FB000AA81B981CE0FD11D0FB6F894DEBF0FBE06
:104FC000CDBFED010895AA1BBB1B51E107C0AA1F6D
:104FD000BB1FA617B70710F0A61BB70B881F991F9A
:104FE0005A95A9F780959095BC01CD010895FB01D4
:104FF000DC0104C08D910190801921F44150504092
:10500000C8F7881B990B0895FB01DC0102C00190D1
:105010000D9241505040D8F70895F999FECF92BDB6
:1050200081BDF89A992780B50895A8E1B0E042E0E3
:1050300050E00C945128DC01A40FB51F41505040A2
:1050400048F0CB01840F951F2E910E942C284150CF
:105050005040D0F70895262FF999FECF92BD81BD1B
:10506000F89A019700B4021639F01FBA20BD0FB6A6
:10507000F894FA9AF99A0FBE08950396272F0E9482
:105080002C280E942B28252F0E942C28242F0C949A
:105090002C280196272F0E942C280C942B28DC0109
:1050A000CB01FC01F999FECF06C0F2BDE1BDF89A33
:1050B000319600B40D9241505040B8F70895F894DD
:1050C000FFCF240A240A740A740AD90AF50A530A7B
:1050D000530AFA0A6B0B7A0B7A0B1A1B8E1B221BD4
:1050E000EC1AF01A261BF41A2A1B361B001B871B0E
:1050F000041B3A1B081B3E1B661B0C1B421B6D1B33
:10510000121B481B501BF81A2E1BFC1A321B161BB5
:105110004C1B5C1B761B851BE61A1E1B951B1B1D5F
:10512000211D0A1D151D271D2D1D331D4826702606
:10513000592770265927A326C42659271B27272716
:10514000FFFFD702280850011E0A140130206520F5
:105150005E205720017C7C002626002D3E00E200C8
:10516000E900EA00B500B600B700CD008301CC002D
:105170008A019201940121022302240225022602BF
:1051800027022A02B300B4006F0070009F01CB0118
:105190009F02A002818283E200E900EA00B500B626
:1051A00000B700CD008301CC008A01920194012157
:1051B00002230224022502260227022A02B300B497
:1051C000006F0070009F01CB019F02A002818283CB
:1051D000349796943567F0F7F6F1F4F5956636C690
:1051E00044B6228205CC04AA044F0468048104005A
:00000001FF
