:100000000C94D5020C940D030C940D030C940D0369
:100010000C940D030C940D030C940D030C940D0320
:100020000C940D030C940D030C941E2E0C94F12EC5
:100030000C9408290C940D030C940D030C940D03DF
:100040000C940D030C940D030C940D030C940D03F0
:100050000C940D030C94C0290C940D030C940D0307
:100060000C940D030C940D030C940D030C940D03D0
:100070000C940D030C940D030C940D030C940D03C0
:100080000C940D030C940D030C940D030C940D03B0
:100090000C940D030C940D030C940D030C940D03A0
:1000A0000C940D030C940D030C940D032900140003
:1000B0001A000800150017001C0018000C001200A0
:1000C00013002E002B0004001600070009000A0090
:1000D0000B000D000E000F0000002800067E1D0022
:1000E0001B0006001900050011001000360000007A
:1000F00037004C00E000E300E2002C41000000006B
:100100002C420000000038002D002D0201004A00A2
:1001100052004D002F003000010001002402310286
:10012000417E01000100500051004F0026022702CD
:10013000010001003300340000002A000100027EAB
:10014000037E047E057E010001000100E200000044
:100150000100010001000100010001000000000099
:100160002C430000000001000100010001001E00FE
:100170001F0020002100220023002400250026006B
:1001800027000100270021002200230001000100B8
:10019000010001003300340000002A0001002400A7
:1001A00025002600010001000100010001000000FF
:1001B000010001000100010001002C4300000000CB
:1001C0000100000000000100010001005F7ED1007D
:1001D000CD00D2003A003B003C00010001000100CC
:1001E0000100007C0100CF00CE00D0003D003E00A9
:1001F0003F000100010001000000007E0100D90065
:10020000D300DA00400041004200430004520000E5
:100210004500010001000100010001000000000094
:10022000010000000000597E5A7E20781E00060062
:100230001A000800150017003C0000000000000034
:10024000000029001F0004001600070009000A0032
:100250003E0000000000000000002800E100140043
:1002600021001B00050005003A00000000520000BC
:100270005200E100E000E20020002C00000000003D
:10028000017E00000000500051004F0000010101FC
:100290000101010101010202020202020202020343
:1002A0000303030303030304040404040404050513
:1002B00005050506060606060707070707080808D6
:1002C00008090909090A0A0A0B0B0B0C0C0C0D0D85
:1002D0000D0E0E0E0F0F0F1010111111121213131D
:1002E0001414151516161717181819191A1A1B1B96
:1002F0001C1D1D1E1E1F20202122222324242526F2
:1003000026272829292A2B2C2D2D2E2F3031323229
:10031000333435363738393A3B3C3D3E3F40414235
:10032000434445464748494A4C4D4E4F505153541B
:10033000555658595A5B5D5E5F61626465666869CF
:100340006B6C6D6F7072737577787A7B7D7E80824F
:10035000838587888A8C8E8F91939596989A9C9E98
:10036000A0A2A3A5A7A9ABADAFB1B3B5B7BABCBEA8
:10037000C0C2C4C6C9CBCDCFD1D4D6D8DBDDDFE275
:10038000E4E7E9EBEEF0F3F5F8FAFDFF000000001A
:10039000000000002A2B28000000000000000000E0
:1003A0000000000000000029000000002C1E342086
:1003B000212224342627252E362D3738271E1F20AC
:1003C0002122232425263333362E37381F040506F1
:1003D0000708090A0B0C0D0E0F1011121314151635
:1003E0001718191A1B1C1D2F3130232D3504050633
:1003F0000708090A0B0C0D0E0F1011121314151615
:100400001718191A1B1C1D2F3130354C0000000025
:1004100000000000000000000000000000000000DC
:1004200000000000000000000000000000000000CC
:100430007E0F00D4FFFFFFC7000000780C034600CA
:1004400065006200340030000000120366006500A1
:1004500062007200650065007A0065000000040318
:10046000090409023B00020100A0FA09040000018E
:100470000301010009211101000122440007058147
:100480000308000109040100010300000009211113
:1004900001000122B60007058203200001120100BD
:1004A0000200000008646942000001010200010529
:1004B000010902A10185020901A10005091901290B
:1004C000081500250195087501810205010930090B
:1004D000311581257F95027508810609381581251A
:1004E0007F950175088106050C0A38021581257F64
:1004F000950175088106C0C005010980A101850329
:1005000019012AB700150126B70095017510810061
:10051000C0050C0901A101850419012AA0021501D9
:1005200026A002950175108100C005010906A101F0
:100530008506050719E029E71500250195087501CD
:1005400081020507190029EF1500250195F07501B5
:10055000810205081901290595057501910295018A
:1005600075039101C005010906A101050719E029DC
:10057000E71500250195087501810295017508812F
:10058000010507190029FF150026FF0095067508CB
:10059000810005081901290515002501950575013A
:1005A0009102950175039101C00011241FBECFEF88
:1005B000DAE0DEBFCDBF04B603FE18C08091170598
:1005C00090911805A0911905B0911A058730904BAC
:1005D000A740B04B59F410921705109218051092CD
:1005E000190510921A05E0E0F8E3099512E0A0E081
:1005F000B1E0E0EEF9E602C005900D92AA37B1072E
:10060000D9F725E0AAE7B2E001C01D92A731B207F1
:10061000E1F70E946F1B0C9488340C940000CF9378
:10062000DF93EC010E94F91491E0811190E098832E
:1006300021E0982F9171911101C020E02983982F1A
:1006400091709A8384FB992790F99B8321E0982FDE
:100650009474911101C020E02C8382FB992790F9BA
:100660009D8386FB992790F99E8321E0982F9878A7
:10067000911101C020E02F8383FB992790F998877F
:10068000982F991F9927991F998721E0982F927287
:10069000911101C020E02A8781FB992790F99B875F
:1006A00085FB882780F98C87CE01DF91CF91089553
:1006B000803E910529F460930E0360930D03089525
:1006C000843E910519F460930F03F7CF833E9105A3
:1006D00029F460931403609313030895873E9105F2
:1006E00019F460931503F7CF823E910529F46093C6
:1006F0001103609310030895863E910519F46093E9
:100700001203F7CF813E910529F46093170360939C
:1007100016030895853E9105E1F760931803F7CF1E
:10072000982F862F992319F00E94FC1408950E9497
:1007300002150895CF93DF93CCE0D3E061E08A8186
:100740000E94900360E18B810E94900368E088859D
:100750000E94900360E889850E94900364E08D8187
:100760000E94900360E48E810E94900362E08B857A
:100770000E94900360E28C850E949003DF91CF91EC
:100780000895FB018F359E4781F48581882371F0A0
:1007900020911A032F5F922F917827FF03C0915069
:1007A0009E6F9F5F90931A03089580E00895CF9203
:1007B000DF92FF920F931F93CF93DF93F82E092FB1
:1007C0006B0180910001909101010E941C0BEC01D2
:1007D000892BE9F088818823D1F0F6011581112356
:1007E00069F08F2D902F0E949D0B809100019091B8
:1007F00001010E949D0BCE010E945D26812FDF9199
:10080000CF911F910F91FF90DF90CF90089510E04E
:10081000F5CF0F931F93CF93DF938C01FB012181C1
:10082000808190E0EC01CC0FDD1FC80FD91F84E25E
:10083000289FC00DD11D1124C458DD4F888195819A
:10084000992321F181112FC0809119038823C9F0C8
:1008500081E0888380910001909101019A838983CE
:1008600060E0C8010E94580361E089819A810E947A
:100870005803C8010E949D0B89819A810E94870BB1
:1008800081E0DF91CF911F910F9108958823C9F3E3
:10089000188289819A810E949D0B60E089819A81EA
:1008A0000E945803EDCF80E0ECCFADE0B0E0EBE587
:1008B000F4E00C94E2333C012B010E94C103182F99
:1008C0008111A1C0C30190528115904328F4F20117
:1008D0008681803108F492C0109219037092010150
:1008E00060920001CE0101960E940F038DE0FE018F
:1008F0003196ACE0B3E001900D928A95E1F78FEF6D
:100900000E940215F201858161E0811101C060E061
:10091000C3010E945803A0900C03B0900D03C09037
:100920000E03D0900F03E0901003F090110300919C
:100930001203109113032091140330911503409179
:100940001603509117036091180380910001909154
:1009500001010E94E7091C018F3F980721F0909345
:1009600001018093000180901A03082C000C990863
:10097000A0900C03B0900D03C0900E03D0900F0315
:10098000E0901003F09011030091120310911303F3
:1009900020911403309115034091160350911703D1
:1009A0006091180380910001909101010E949B0ABF
:1009B0009C012F3F320791F4EFEF2E163E0691F483
:1009C00010921903B201C3010E94D703811113C011
:1009D000B201C3010E940904182F0EC03093010117
:1009E0002093000181E08093190380910001909190
:1009F0000101892B39F711E00E949A03812F2D966E
:100A0000E2E10C94FE3310E0F9CF80910001909167
:100A100001010895ABE0B0E0E0E1F5E00C94E233D1
:100A200069874D83282F30E040E050E029833A83E6
:100A30004B835C83CA01B9010E94B13120E030E0F0
:100A40004FE753E469837A838B839C8369817A813E
:100A50008B819C810E940E315B016C019985892FED
:100A600090E0A0E0B0E089839A83AB83BC83BC01B3
:100A7000CD010E94B13120E030E04FE753E46983BB
:100A80007A838B839C8369817A818B819C810E948C
:100A90000E313B014C013D81232F30E040E050E01E
:100AA00029833A834B835C83CA01B9010E94B13127
:100AB00020E030E04FE753E469837A838B839C83A3
:100AC00069817A818B819C810E940E311B012C01EE
:100AD0009B01AC0169827A828B829C8269817A81D6
:100AE0008B819C810E94EC319501A60169837A83F8
:100AF0008B839C8369817A818B819C810E94EC31FC
:100B00008B018B879A879101A20169827A828B82FD
:100B10009C8269817A818B819C810E940B32950134
:100B2000A60169837A838B839C8369817A818B8117
:100B30009C810E940B329B01AC0109831A838B8537
:100B40008B839A859C8369817A818B819C810E94A9
:100B50009C307B018983998720E030E0A9016D8377
:100B6000FE828F8398876D817E818F8198850E9418
:100B70000931882309F433C198014B855A85AD8228
:100B8000BE82CF82D8866D817E818F8198850E94BA
:100B900009318111BBC09101A2016D827E828F82D9
:100BA00098866D817E818F8198850E949C30970107
:100BB000498159856D837E838F8398876D817E817E
:100BC0008F8198850E940E3120E030E040EC50E4A7
:100BD0006D837E838F8398876D817E818F819885D9
:100BE0000E94353220E030E040E752E46D837E839E
:100BF0008F8398876D817E818F8198850E940633CF
:100C00005B016C0120E030E0A9010D831E83AB8500
:100C1000AF83BA85B8876D817E818F8198850E9468
:100C20000931882309F4E0C098014B855A85ED828B
:100C3000FE8289818F83998598876D817E818F81DE
:100C400098850E940E314B017C0120E030E04FE797
:100C500053E4A982BA82CB82DC8269817A818B815A
:100C60009C810E94063320E030E044EB53E469832A
:100C70007A838B839C8369817A818B819C810E949A
:100C80000E3169837A838B839C8369817A818B811E
:100C90009C810E948031D62E20E030E04FE753E463
:100CA00089829A82EB82FC8269817A818B819C8124
:100CB0000E94063369837A838B839C8369817A815E
:100CC0008B819C810E948031F62E20E030E04FE73E
:100CD00053E409831A83AB85AB83BA85BC836981EE
:100CE0007A818B819C810E94063369837A838B830E
:100CF0009C8369817A818B819C810E948031862FBF
:100D00006D2D7F2D2B96E2E10C94FE3398014B85DF
:100D10005A856D827E828F8298866D817E818F81D9
:100D200098850E940931811128C09501A6012D8264
:100D30003E824F8258866D817E818F8198850E9488
:100D40009C309701498159856D837E838F83988775
:100D50006D817E818F8198850E940E3120E030E088
:100D600040E050E46D837E838F8398876D817E8120
:100D70008F8198850E949D3035CF98014B855A858B
:100D80002D823E824F8258866D817E818F8198852B
:100D90000E94093181111EC09301A401AD82BE825F
:100DA000CF82D8866D817E818F8198850E949C300C
:100DB0009701498159856D837E838F8398876D81E3
:100DC0007E818F8198850E940E3120E030E040E8DE
:100DD00050E4C8CF60E070E080E090E003CFA12C49
:100DE000B12CC12CD12C0ECF812C912CE12CF12CCB
:100DF0002CCF80931E0360931D0340931C030E941D
:100E00000A05962F672F482F892F90E00E948E2089
:100E1000089580E40E94F9200E9436200E94242038
:100E200080911F03882351F083E00E94592080E0C5
:100E30000E94F61083E00E94F610089582E0F5CF3C
:100E40008091B0018823B9F180913E0390913F03D6
:100E50000E94CA0C843089F520E040E060E088E11F
:100E600090E00E94181D20911C0340911D03609189
:100E70001E0387E290E00E94181D20911C03409100
:100E80001D0360911E038CE190E00E94181D2091CB
:100E90001C0340911D0360911E038BE190E00E94B2
:100EA000181D20911C0340911D0360911E038AE1CF
:100EB00090E00E94181D81E0089580911F0320E0BA
:100EC00040E060E0811106C020911C0340911D03A9
:100ED00060911E0388E190E0ECCF833091F058F4EC
:100EE000813091F08230B1F080911A034FEF813060
:100EF000A9F46FEF04C045E06BE38430A9F78FEFEE
:100F000006C040E06FE6FBCF4AE46FEF83E00E944B
:100F1000F90608954FEF6BE385E0F9CF60E088E8CC
:100F2000F6CF1F93CF93DF93182FD92F0E94CA0CAF
:100F3000C82F80911B038C1729F08C2F0E946D07FE
:100F4000C0931B03812F9D2FDF91CF911F91089597
:100F500080E00E946D070E94090780E00E94F61061
:100F60000895CF939C01FB01C581CC2379F089556D
:100F70009E470297A8F429353E4759F08091B00169
:100F800091E089278093B0010E9409078C2FCF91AF
:100F9000089580911F0391E0892780931F03F4CF68
:100FA000C0E0F4CF9C018091B101843089F180913F
:100FB000B201203E310569F5482F41709091B3018F
:100FC00040FB91F99093B30150911A0340FB93F9C0
:100FD000513089F14091B3014E7051E0411101C08F
:100FE00050E09091B30150FB94F99093B30180FFCE
:100FF00039C02B32310561F490FD0AC0442341F021
:1010000081E00E94F6108091B30181608093B3016A
:101010000895243E310559F0233E310579F0273EED
:101020003105D9F49091B30180FB93F904C09091FC
:10103000B30180FB91F99093B301CCCF9091B301B0
:1010400080FB93F99093B30190911A03913011F6BC
:101050009091B30180FB92F9EECFA9014B7F423E04
:101060005105F5CF90FFD4CF94FDD2CF80E00E9400
:10107000F6108091B3018E7FC9CF9C012C3283E49E
:10108000380779F050F42C3281E4380751F081E0D0
:101090002C32324439F080E0089581E021153C473C
:1010A000F9CF81E00895CF9381309E4721F0C0E0D1
:1010B0008C2FCF910895C091B201C1708091BB0176
:1010C000C0FB80F98093BB01CC2389F384608093BB
:1010D000BB018091B7019091B8010E949129909332
:1010E000BA018093B9010E9468299093B801809356
:1010F000B7011092B4012091B9013091BA018091E9
:10110000B5019091B6012817390790F681E08093D8
:10111000B401CECF8091BB0182FF21C080FD20C0F1
:1011200081FF1DC08B7F8093BB018BE290E00E940A
:101130009D0B89E390E00E949D0B8091BB0183FF92
:1011400009C089E390E00E94CD0B8091BB01877FAD
:101150008093BB018091BB018D7F8093BB0108957B
:1011600081FDFDCF8091B401811109C08BE290E037
:101170000E94870B8091BB01877F8093BB01809188
:10118000B401813049F489E390E00E94870B80919B
:10119000BB0188608093BB018091BB018260DDCF81
:1011A0000F931F93CF93DF93EC018091B1018430B3
:1011B00041F4C430D10539F004E010E0C730D10566
:1011C00021F080E021C007E010E08091BC01909107
:1011D000BD012091B20120FF1CC0C817D90799F0AA
:1011E000009711F00E949D0B8091BC019091BD0170
:1011F0009093BF018093BE01D093BD01C093BC0109
:10120000CE010E94870B81E0DF91CF911F910F915A
:101210000895C817D907D1F4CE010E949D0B809183
:10122000BE019091BF018017910719F4C8010E9477
:10123000870B8091BE019091BF019093BD01809377
:10124000BC011092BF011092BE01DDCF8091BE01A2
:101250009091BF018C179D07B1F6F3CF86309E4762
:1012600001F50E9468299093C4018093C301909175
:10127000B2018091C00190FB80F98093C00180FF92
:101280000BC08091C1019091C20101969093C2015F
:101290008093C10181E0089581EE90E00E949D0B52
:1012A000F9CF80E008958091C3019091C4010E941C
:1012B00091294091C00140FD11C0853B910560F02E
:1012C0008091C1019091C201181619062CF4019762
:1012D0009093C2018093C10140FF13C08091C1016E
:1012E0009091C201029749F480E19FE00E94CD0BEA
:1012F0001092C2011092C101089581EE90E00E9407
:10130000870B08950E94A80708950E948A080E94EA
:1013100053090895EF92FF920F931F93CF93DF939A
:10132000D82FC92F7B0180913E0390913F030E94EB
:10133000CA0C8093B1018091B201F701958190FBB5
:1013400080F98093B2018D2F9C2F0E943D08182FA9
:10135000811128C0B7018D2F9C2F0E945504082FA2
:101360000E940505D82FC92F0E94D00881111AC0EC
:101370008D2F9C2F0E945308811114C08D2F9C2FFC
:101380000E942E0981110EC0B7018D2F9C2F0E9443
:10139000B107811107C081E0102F18278D2F9C2FD6
:1013A0000E94D207812FCDB7DEB7E6E00C940A3455
:1013B0009C012C3282E4380739F03D7F2C323144D5
:1013C00019F084EB90E008958EE690E00895ADE08A
:1013D000B0E0EDEEF9E00C94EA33A982BA828932EA
:1013E000910549F4E110A1C085E390E0411122C0CC
:1013F0008FEF9FEF1FC02A818832910529F4442383
:10140000B9F38AE290E016C081153EE7930709F42C
:101410008FC08433910541F441110CC08981882328
:1014200039F384E392E006C08D3232E0930731F461
:101430004423F1F22D96EAE00C9406348E329105A5
:10144000B9F38F32910529F486E392E0442381F2C7
:10145000F1CF8033910529F487E392E0442341F2F0
:10146000E9CF863232E0930731F48FE292E04423F1
:1014700009F4BECFDFCF873232E0930731F480E347
:1014800092E0442309F4B4CFD5CF843232E09307FD
:1014900031F480E49EE7442309F4AACFCBCF813313
:1014A00032E0930731F48FE19EE7442309F4A0CFA3
:1014B000C1CF8633910529F48EE192E04111BACF74
:1014C00097CF8733910529F488E392E04111B2CF99
:1014D0008FCF8833910531F481E390E0442309F400
:1014E00087CFA8CF8A34910531F48BE490E0222392
:1014F00009F47ECF9FCF8D34910531F48EE490E0D6
:10150000222309F475CF96CF8632910529F485E31D
:1015100092E041118FCF6CCF8D9709F069CF87E5AD
:1015200090E0442309F464CF85CF8BE290E082CF32
:1015300088E292E17FCFADE0B0E0E1EAFAE00C941E
:10154000E8339C01BA8281E08816910409F057C003
:10155000203E310509F461C0E0F42D34310509F471
:1015600048C048F42A31310579F12A343105E1F1D6
:101570008FEF9FEF2EC02F34310579F120353105E3
:10158000B9F71123A9F3442309F453C080E596E089
:1015900020C023308EE7380709F442C058F480EEAB
:1015A00090E0233E3105A9F022303E4709F78DE156
:1015B00098E00FC024308EE73807A9F125303E4768
:1015C000B9F689E198E005C08A81882389F28AE129
:1015D00098E02D96ECE00C940434112349F2442356
:1015E00029F18FE496E0F5CF112311F28BE490E01E
:1015F000F0CF112309F4BCCF8EE490E0EACF225063
:101600003E472430310508F0B3CF220F331FF901D4
:10161000E251FE4F80819181DCCF83EE90E0D9CF03
:101620008BE198E0D6CF86E098E0D3CF8FE494E0CA
:10163000D0CF80E594E0CDCF9C012F318EE73807E5
:1016400051F020348EE7380749F021343E4749F005
:101650008AEE91E0089585EE91E0089588EE91E09C
:1016600008958BEE91E008958530B8F46430A8F4C5
:101670004C3098F4E42FF0E09CE0699FE00DF11D00
:10168000112490E3899FE00DF11D1124EE0FFF1F3F
:10169000E455FF4F85919491089581E090E008957D
:1016A0000E94340B08959C019A9581159F4118F56D
:1016B000F901EE27F270832F8170B90166277470EB
:1016C000A9014427587034FF0CC08295807FEF2B0E
:1016D00009F08062672B09F08064452B69F080680F
:1016E0000895EF2B09F08260672B09F08460452B89
:1016F00019F08860089580E00895CF93DF93EB019F
:101700000E94530BFE010995DF91CF910895CF936D
:10171000DF93EC01805E9109089720F066E570E1A7
:10172000209711F46CE07EE0CE010E947D0B8C2F9F
:101730000E94700DDF91CF910895CF93DF93EC015C
:101740000E94B80DCE01805E9109089720F06DE5EA
:1017500070E1209711F463E17EE0CE010E947D0BE1
:10176000DF91CF9108950F931F93CF93DF938C0157
:10177000EB010E94870B209741F4C8010E949D0B4A
:10178000DF91CF911F910F9108958FE99FE001970D
:10179000F1F700C000002197EECF60E070E08933E0
:1017A000910511F460E570E00E94B30B089581E0AB
:1017B00008950E94D70B089581E008950E948A0938
:1017C000089508950E94E10B0895A6E0B0E0EBEEC5
:1017D000FBE00C94F13349835A839E8330912503B7
:1017E00089819A8131111AC03E81332399F02223D5
:1017F00089F00E94C911182F682F89819A810E944F
:10180000A51169817A81812F0E94D5182696E3E07F
:101810000C940D340E94B711182FF3CF0E94C911F8
:1018200069817A81F1CFFC01262F4081518162814B
:101830007381848195810E94E50B0895CF93DF9396
:10184000D82FC92F61E00E94130C6D2F7C2F0E94AE
:10185000D90BDF91CF910895CF93DF93D82FC92F64
:1018600060E00E94130C6D2F7C2F0E94E20BDF9131
:10187000CF91089581E008950E943A0C0895CF9386
:10188000C82F0E947A108C2F0E943C0C2FEF84E30B
:101890009CE0215080409040E1F700C00000CF91D3
:1018A000089581E00E943F0C0E94E429089580E0A1
:1018B0000E943F0C0E94082A08950F931F93CF9314
:1018C000DF938C0161E00E94130CEC01B8010E94CF
:1018D000DE0B8823E1F1B801CE010E94DA268823CD
:1018E000B1F1B801CE010E941E22882381F1B80116
:1018F000CE010E94F321882351F1B801CE010E944C
:101900006E21882321F1F8018581882381F0CA3571
:10191000FCE7DF0739F178F4C130ECE7DE07F9F0D6
:10192000C330FCE7DF07C9F0C115DC4771F0C8011F
:101930000E94DC0B0DC0CB35ECE7DE07B1F0CC35F7
:10194000DC47A9F70E941016F2CF0E94510C80E0EC
:10195000DF91CF911F910F9108950E9422160E944E
:10196000570CF5CF0E941A16E2CF0E941E16DFCF49
:101970000E94E4280E94E51E0E940B0D81E00E9457
:10198000ED1F08950E940F0D80E00E94ED1F0E9440
:10199000E92808959C01892F99270097E9F09C0177
:1019A00088E0A90174E0569547957A95E1F74115CD
:1019B000510511F08C5F9A01A901569547955695EE
:1019C00047954115510511F08E5F9A01369527957F
:1019D000232B09F08F5F089580E0E3CF089581E025
:1019E00008950895CF93DF93D82F0E94EF0CC82F4E
:1019F000882319F08D2F0E94F10C8C2FDF91CF914D
:101A000008950895CF93C82F0E94EE0C8C2F0E944A
:101A1000F20CCF91089580E00E94020D08950E947B
:101A200020270E94020D0895CF930E942027C82FDF
:101A3000809120038C1779F0C09320030E947429B1
:101A400060932103709322038093230390932403D4
:101A50008C2F0E94020DCF910895ADE0B0E0E3E33A
:101A6000FDE00C94F233488759876A877B878C871F
:101A70009D8791110E941B151F8286E0FE013896FA
:101A8000DE01119601900D928A95E1F78D81811109
:101A90000DC029813A814B815C816D817E818F816E
:101AA0000E9461142D96E2E00C940E34CE01019652
:101AB0000E941E0C8111EDCFF5CFFC018481813095
:101AC00021F4808191810E94FB110895662329F001
:101AD0000E948C230E94622408950E94EA23FACF78
:101AE000CF93C82F882399F08CEF8C0F813A88F41C
:101AF0008C2F0E94C327882329F08C2F0E946828EE
:101B00000E94B3158C2F0E9451280E94B315CF91CB
:101B1000089580E28C0F883048F4C77081E001C0DE
:101B2000880FCA95EAF70E94FC14EFCF8BE58C0F63
:101B3000833038F42C2F2452330BC9010E945627CE
:101B4000E6CFE8E5EC0FEB3150F4F0E0EE0FFF1FCD
:101B5000EA50FE4F808191810E947C27D8CF83E399
:101B60008C0F8331A0F661E08C2F0E94660DCFCFE1
:101B7000882381F19CEF980F913A28F40E946828FD
:101B80000E94B315089590E2980F983050F4877032
:101B900091E001C0990F8A95EAF7892F0E940215FA
:101BA000EFCF9BE5980F933028F480E090E00E94FF
:101BB0005627089598E5980F9B3128F480E090E02F
:101BC0000E947C27089593E3980F933118F460E006
:101BD0000E94660D08951F93CF93DF93182FEB019A
:101BE0000E94700D209739F4812F0E94B80DDF916B
:101BF000CF911F9108958FE99FE00197F1F700C001
:101C000000002197EFCF60E070E0893311F460E5C8
:101C100070E00E94EB0D0895882321F00E94FC14CF
:101C20000E94B3150895882321F00E9402150E9496
:101C3000B3150895A0E0B0E0E0E2FEE00C94EC33D0
:101C40006C01D62FC72FFC011581068102950F70FC
:101C50000E94F114E82E8823F9F0E12E1123E1F01F
:101C60008C2F807F803461F080E28D0F8830F0F01F
:101C70008C2F807E803221F4D230C0F00023B1F06E
:101C80008091420482FF12C082E00E94E3150E940C
:101C9000F11491E0E82EE926EC2FE295EF70C03CBC
:101CA000B0F5F0E0E657FB4C0C94DC33E12CF4CFBC
:101CB0000C2F0F70C03110F00295007F112399F0A6
:101CC000002359F080E28D0F883010F0D11107C049
:101CD000802F0E94FC140E94B3158D2F51C0802FBD
:101CE0000E940D15F8CF8D2F0E94B80D002379F0BA
:101CF00080E28D0F883010F0D11104C0802F0E9437
:101D0000021503C0802F0E9413150E94B315EE2008
:101D100089F00E94ED1480FD0DC0F60115820E942D
:101D2000E7140E940211C6010E9433100E94E714BA
:101D30000E941211CDB7DEB7E8E00C940834FC2FF6
:101D4000FF70FF2EC07FC03219F0F29480EFF822AE
:101D5000DD2341F0D130D1F1112309F444C0002337
:101D6000F1F0BBCF8091420482FD15C0112359F0E0
:101D7000FF2029F08F2D0E94FC140E94B31580E0F3
:101D80000E94700DC4CF80E00E94B80DFF2009F4BE
:101D9000BECF8F2DB4CF112369F0011104C08F2D58
:101DA0000E940C0EB4CF013009F0B1CF8F2D0E94EC
:101DB0003315ADCF0111ABCF8F2D0E94130E8F2D98
:101DC0000E943F158F2D0E942215A1CF112321F0D3
:101DD000063008F09CCFE3CF053008F098CF8F2D68
:101DE0000E94130E94CF0023D1F3D93349F42FEF7F
:101DF00087EE93E0215080409040E1F700C0000062
:101E00008D2F0E94B80D83CF8C2F86958695837079
:101E1000882369F0813009F07ACF8D2F9C2F937041
:101E2000111102C080E090E00E947C2770CF8D2FBE
:101E30009C2F9370111102C080E090E00E94562701
:101E400066CF612F8D2F0E94660D61CF8C2F83701E
:101E5000811139C0111129C04D2F42954695477007
:101E6000440F440F2D2F2F7030E0042E02C0220F9C
:101E7000331F0A94E2F780E090E0D4FF09C08FE0BE
:101E800090E002C0880F991F4A95E2F780959095DF
:101E9000C695C695C370822B932BC23071F0C330A8
:101EA00079F0C13039F00E94D5100E9420270E949D
:101EB000020D2DCF0E94CC10F8CF0E94DE10F5CF7E
:101EC0000E94C910F2CF112361F1C0FFEECF4D2F58
:101ED000429546954770440F440F2D2F2F7030E0E8
:101EE000042E02C0220F331F0A94E2F780E090E034
:101EF000D4FF09C08FE090E002C0880F991F4A9577
:101F0000E2F780959095C695C695C370822B932B6A
:101F1000C23069F0C33071F0C13031F00E943D1120
:101F2000C4CF823010F2D3CF0E943411BECF0E94B2
:101F30004611BBCF0E94EA10B8CFCF70112339F001
:101F40008C2F0E9402118D2F0E940C0EAECF8D2F70
:101F50000E94130E8C2F0E941211A7CFD23F31F195
:101F600070F4D03FB9F0D13FB1F1112309F451C061
:101F7000002309F44BC08D2F0E94700D96CFD33FE4
:101F8000E1F0D43F21F11111F3CF011150C08C2F9A
:101F90008F71E1CF112341F0053008F086CF8C2FEF
:101FA0008F710E94241181CF0530F7CF8C2F8F7154
:101FB0001111D1CF0E94021178CF112329F08C2F5B
:101FC0008F710E94F61071CF0E94F1106ECF809138
:101FD000420482FD06C08C2F8F71112309F4BBCF00
:101FE000E9CF112349F0CF718C2F0E94021163E0D9
:101FF0008C2F0E94C51559CF81E00E94E315023055
:1020000008F453CF82E00E94E3154FCF8C2F8F71DD
:10201000D1CF002309F4BBCFD93349F4EFEFF7EE6A
:1020200023E0E150F0402040E1F700C000008D2F98
:102030000E94B80D3ACF0F931F93CF93DF93EC011B
:10204000688179818D810E9408128C010E944F1154
:102050000E94C810B801CE010E941A0EDF91CF91E4
:102060001F910F910895CF93DF93EC018C8188230A
:1020700099F0CE010E945D0C811111C00E94F114F3
:10208000882351F08D81882339F08091420482FFAA
:1020900003C082E00E94E315DF91CF910895CE0145
:1020A0000E941B10CE010E942C0CF6CF882321F039
:1020B0000E940D150E94B3150895882321F00E94F7
:1020C00013150E94B315089580E090E00E945627F2
:1020D00080E090E00E947C270E941B150E94B315AF
:1020E0000E947F240E94622408950E947F280E94FB
:1020F000641008950E940A150E9475100895282FF3
:1021000092959F70963091F060F4925F9F7092303C
:1021100030F481E0203F79F030F4283E30F080E068
:1021200008959A5FF3CF243FD1F7089581E0283EC8
:10213000E0F3213FF9CF0895FC018481882339F031
:10214000808191810E94FB110E947F10089580E0A0
:102150000895A6E0B0E0EFEAF0E10C94F2332696A1
:10216000E2E00C940E34A7E0B0E0E9EBF0E10C946F
:10217000F2332796E2E00C940E3408950E94BD10CD
:1021800008950E94BE1090934103809340030895E8
:1021900008950E94C1100895209140033091410399
:1021A000822B932B0E94C1100895209140033091FF
:1021B0004103822393230E94C1100895209140037C
:1021C00030914103822793270E94C11008950E94F5
:1021D000910708950E94E71090933F0380933E0378
:1021E000089580E090E00E94EA10089521E030E038
:1021F000A90102C0440F551F8A95E2F7CA010E9447
:10220000EA10089521E030E002C0220F331F8A95C2
:10221000E2F780913E0390913F03822B932B0E9423
:10222000EA10089521E030E002C0220F331F8A95A2
:10223000E2F72095309580913E0390913F038223F1
:1022400093230E94EA10089521E030E002C0220F9B
:10225000331F8A95E2F780913E0390913F038227D6
:1022600093270E94EA10089520913E0330913F0386
:10227000822B932B0E94EA10089520913E03309107
:102280003F03822393230E94EA10089520913E0386
:1022900030913F03822793270E94EA100895089502
:1022A0009B01677091E001C0990F6A95EAF763E0BE
:1022B000369527956A95E1F7220F331F220F331FBA
:1022C000FA01E20FF31F40E050E0682F70E08191C7
:1022D000DF0111979B01042E02C0369527950A94C1
:1022E000E2F7217021952827292328272C934F5F77
:1022F0005F4F4430510559F708959C01982F97700E
:1023000083E0369527958A95E1F7220F331F220F38
:10231000331FFB01E20FF31F40E050E080E021910A
:1023200030E0092E02C0369527950A94E2F7217015
:102330003327042E01C0220F0A94EAF7822B4F5F45
:102340005F4F4430510559F70895282F862F943058
:1023500068F42C3058F4622F70E02CE0929F600DEE
:10236000711D112446E253E00E9450110895292F57
:10237000943068F48C3058F490E066E273E03CE00E
:10238000239F800D911D11240E947D11089580E0EE
:102390000895A0E0B0E0EFECF1E10C94EB338C0198
:1023A000E0903E03F0903F03809140039091410301
:1023B000E82AF92ACFE0D0E0CC24C394D12CC6017E
:1023C0000C2E02C0880F991F0A94E2F78E219F21DC
:1023D000892B49F4219798F7B12C8B2DCDB7DEB717
:1023E000E9E00C940734BC2EB8018C2F0E94E11850
:1023F000019781F3F2CFCF93DF93D82FC92F0E949B
:10240000C9116D2F7C2F0E94E118DF91CF910895A3
:102410001F93CF93DF93162FD72F909125039923E6
:1024200041F0862F972F0E94FB11DF91CF911F91D2
:102430000895882381F0862F972F0E94C911C82FF5
:10244000682F812F9D2F0E94A511612F7D2F8C2F2A
:102450000E94E118EACF862F972F0E94B711C82F4C
:10246000F4CF0F931F93CF93E0914203C7E0809185
:1024700043038E1304C0CF911F910F9108950E2F27
:1024800010E0CE9FF0011124EC5BFC4F20813181E4
:10249000428153816481758186810E94B310F80165
:1024A0003196E770E4CF20917C0330917D03409119
:1024B0007E0350917F03609180037091810380912E
:1024C00082030E94B3100895E09142039091430368
:1024D00027E0E91302C080E00895AE2FB0E02E9F00
:1024E000F0011124EC5BFC4F3181361306C03081C2
:1024F000381303C03581341304C0FD013196E770F1
:10250000E8CF81E00895A0E0B0E0E9E8F2E10C94C2
:10251000ED3380918203803108F04BC080918103BC
:10252000882309F446C0C091420387E0D82E8091E9
:1025300043038C17F1F1EC2EF12CDC9EE001112409
:10254000FE01EC5BFC4F84818823C1F19181809175
:102550007D03981333C0908180917C0398132EC023
:10256000858181112BC00281138180917E0390911E
:102570007F03081B190B60E08CE793E00E94130CAB
:102580006CE773E00E94D80908171907B8F4809126
:1025900082038F70806180938203C65BDC4F8881E9
:1025A0008F70806188838CE793E00E9433100E94D3
:1025B0003112CDB7DEB7E7E00C940934E70121967C
:1025C000C770B5CFADE0B0E0E8EEF2E10C94E533D2
:1025D0008C0186E0F801DE01189601900D928A9533
:1025E000E1F7F80160805180F580C280D38074806B
:1025F0008CE7A82E83E0B82E8091800381111BC048
:10260000772009F405C1FF2009F44EC1C8010E94DA
:102610009C10882309F448C187E0F801D501019096
:102620000D928A95E1F7C5010E945D0D0E9483120B
:102630000E945312EDC0E090810380917E0390913F
:102640007F034601881A990A60E08CE793E0EE2048
:1026500009F4E1C00E94130C6CE773E00E94D809F2
:102660008816990608F0A4C0772009F4D1C080919B
:10267000820320917D03F8019181803108F05BC0D5
:1026800029131BC020917C039081291316C0F110DF
:102690004CC08F708061809382030E9453128CE73C
:1026A00093E00E94331080918203F8018683F12C1D
:1026B0008F2D2D96EFE00C940134F11036C040E0E0
:1026C000652D862D0E94641240E0652D862D0E94A6
:1026D0006412F82E8111EBCF888599850E94FB1139
:1026E000292F22952F70903450F49F70223080F063
:1026F000992391F0F8019681903170F4D9CF2A5F37
:102700002F70223068F0C8010E943310FE2CD0CF09
:10271000992311F0882361F2805E883048F2F3CF6C
:10272000803F30F2815F8230F9CF809182038160F7
:1027300080938203BCCF291314C020917C03908125
:1027400029130FC0F1100DC08683C8010E943310F9
:1027500087E0F801ACE7B3E001900D928A95E1F7CC
:1027600067CFC8010E949C10882309F49DC0FF20F8
:1027700009F49AC080918203803288F020917C0312
:1027800030917D033A832983DC82CB829091800350
:102790009D831E828F83CE0101960E94331087E0B5
:1027A000F801ACE7B3E001900D928A95E1F73ECFD6
:1027B000809182038031A0F4488559856A857B85A4
:1027C0008C859D850E94A9108CE793E00E943310B0
:1027D00087E0F50111928A95E9F70E94531267CFBD
:1027E0007720B1F020917D03F80191812913B9CFB1
:1027F00020917C0390812913B4CFF110B2CF86834E
:10280000C8010E94331087E0F50111928A95E9F71B
:10281000FF24F3944DCF0E94130C6CE773E00E94E9
:10282000D8098816990608F043C0772089F3FF205D
:10283000D9F190917D03F801818198132BC090917B
:102840007C038081981326C080917E0390917F0342
:10285000C81AD90AFEE6CF16D10498F480918203F3
:1028600080FD0FC0803168F0F8018683982F907F3B
:10287000903F09F46ACF982F907F905F8F70892BDB
:1028800063CF87E0F801ACE7B3E001900D928A9541
:10289000E1F7BECFC8010E949C10811180CF8091CA
:1028A0008203816080938203C8010E943310B0CFFD
:1028B000488559856A857B858C859D850E94A910F0
:1028C00087CFAEE0B0E0E7E6F4E10C94F13328877F
:1028D00039874A875B876C877D878E87CE0108960C
:1028E0000E94E2128823B1F06C85662341F02885AE
:1028F00039854A855B857D858E850E94B31017E0FA
:10290000809142039091430389133EC02E96E3E0E9
:102910000C940D3487E0FE013896DE01119601908B
:102920000D928A95E1F720914303409142038C85F3
:10293000882329F330E0C90101968770992750E078
:102940008417950799F097E0929FD001939FB00D5F
:102950001124AC5BBC4FFE01319601900D929A950B
:10296000E1F7809343030E943112C9CF0E947A108D
:10297000109243031092420387E0ECE7F3E0DF019B
:102980001D928A95E9F7BBCF189FC00111248C5B7B
:102990009C4F0E94E212882309F4B8CFE0914203D1
:1029A0001E9FF0011124EC5BFC4F2081318142819C
:1029B00053816481758186810E94B31080914203A6
:1029C00090E00196877099278093420399CF809178
:1029D000AB0386958695869508958091AB038770A5
:1029E00008959091AB03977081E0911101C080E050
:1029F00008958091D70308959091D703982B9093D1
:102A0000D7030895982F90958091D70389238093B9
:102A1000D70308951092D70308959091D603982B69
:102A20009093D6030895982F90958091D60389238B
:102A30008093D60308951092D603089508950E94B6
:102A40001E1508959091AC03292F2823222331F0DD
:102A5000809589238093AC030E941F1508950895E3
:102A60000E942F1508959091AD03292F2823281730
:102A700029F0982B9093AD030E9430150895909102
:102A8000AD03292F2823222331F0809589238093B9
:102A9000AD030E94301508958091AD03882329F07D
:102AA0001092AD0380E00E9430150895CF93DF931C
:102AB000C091D7038091D603C82BD091AD03DD23FD
:102AC00031F00E94A22781110E944C15CD2B8C2F32
:102AD000DF91CF910895CF93DF93C091C701D0913B
:102AE000C8010E9456158883C091C701D091C801C2
:102AF00048E050E063EA73E0CE010E941934892B6C
:102B000059F088E0FE01A3EAB3E001900D928A95A6
:102B1000E1F7CE010E942D27DF91CF910895CF9349
:102B2000DF93C091C501D091C6010E9456158983DB
:102B3000C091C501D091C60140E250E063E873E066
:102B4000CE010E941934892B59F080E2FE01A3E8DE
:102B5000B3E001900D928A95E1F7CE010E943827EB
:102B6000DF91CF9108958091E101882339F0809120
:102B7000410487FF03C00E948F1508950E946B15C2
:102B8000089508950E94C11508959091420492FFFE
:102B900011C098E0899F90011124622B6093AB03D0
:102BA0000E9402118091AB038695869586950E94BE
:102BB000C21508950E94021108951092AB0380E09F
:102BC0000E94C21508959091AB038095892380934C
:102BD000AB03282F277021110DC0891759F0909150
:102BE000420492FF07C08695869586950E94121131
:102BF0000E94DD1508959091420492FB222720F94E
:102C0000281769F080FB92F9909342048091410467
:102C1000909142040E94431682E00E94E3150895B9
:102C20008091420482FB882780F991E089270E94E5
:102C3000FB15089581E00E94FB15089580E00E9435
:102C4000FB1508956FEF7FEF80E090E00E948234E3
:102C5000089580E090E00E944E349C0181E0263E81
:102C60003E4F09F080E0089582E090E00E944634F3
:102C7000089583E090E00E944634089584E090E057
:102C80000E944E340895BC0184E090E00E9482349A
:102C90000895AB01BC018FE090E00E947634089566
:102CA000AB01BC0183E190E00E947634089560E0BE
:102CB00070E0CB010E945016089560E070E0CB01F7
:102CC0000E9449160E9457160895A8E0B0E0EBE66E
:102CD000F6E10C94F23366EE7EEF80E090E00E9425
:102CE000823460E082E090E00E94643481E090E011
:102CF000909341038093400361E083E090E00E9461
:102D0000643460E074E184E090E00E94823460E02A
:102D100086E090E00E9464346FEF87E090E00E94CC
:102D2000643440E050E0BA0188E090E00E947634DC
:102D300060E084E290E00E94643460E087E190E02B
:102D40000E94643460E08CE090E00E94643460E0B3
:102D50008DE090E00E94643419821A821B821C82EA
:102D60001D821E821F82188648E050E068E170E0F4
:102D7000CE0101960E94543440E050E0BA0180E256
:102D800090E00E9476340E945D162896E2E00C9452
:102D90000E340E9465160895682F8EE090E00E9420
:102DA00064340895A6E0B0E0E8EDF6E10C94F03369
:102DB0000E9468298C018091D8039091D9038017D3
:102DC000910779F019821A820E946829BC01498111
:102DD0005A8180E090E00E942D0D1093D90300935A
:102DE000D8032696E4E00C940C340E947429609376
:102DF000E6037093E7038093E8039093E9036093FD
:102E0000E2037093E3038093E4039093E503089552
:102E1000089508950E94081708950E948209089550
:102E200089ED99E10E947C1B0E9409170E940A17F4
:102E3000089581E008950E94191708950E941917B6
:102E40000895089508950E9421170E942217089559
:102E50000E94F8190E94010D0E94B81F08950E9457
:102E60005F290E94CC1A0E942817E1E4F4E08081D7
:102E70008068808380914104909142040E944316AF
:102E80000E940D170895A6E0B0E0E9E4F7E10C9484
:102E9000E6330E941B1781110CC00E94D2160E94BB
:102EA000E51E0E94A0240E94140D2696EEE00C94CC
:102EB00002340E94E21A2AED822E23E0922E64014F
:102EC00010E0F601E190F1906F01812F0E941D1A30
:102ED0001F5F143009F44BC0E816F90691F3809196
:102EE000EA0381FD0E94261A0E941E17782E10E028
:102EF000812F0E941D1A7C01F401A190B1904F0115
:102F00008A159B0571F1A826B92600E0CC24C3944C
:102F1000D12CC5018C219D21892BD1F0662463948D
:102F2000C7018C219D21892B09F4612C772059F050
:102F300009831A830E946829BC0149815A8181E072
:102F4000962D0E942D0D462D602F812F0E94241D4D
:102F50000F5FCC0CDD1C0C30E1F6F4013297F182EE
:102F6000E0821F5F143021F60E94F51698CFE81614
:102F7000F90609F0B4CF91CF1F93CF93DF930E944E
:102F8000E618EC01811522E5920708F053C081157F
:102F900040E5940708F0DDC0803E9105F8F48D3CD3
:102FA000910508F0AEC0883A910580F4853A910504
:102FB00008F099C08130910521F00497813A91057C
:102FC00050F4CE01DF91CF911F910895885A910955
:102FD0004B9708F48BC0C0E0D0E0F3CF811550E4EC
:102FE0009507F8F4C11580E2D80708F0CBC0C83EB9
:102FF000D10538F3CE019A9581159F4160F78D2F49
:103000000E948A19182FCE0199270E94E618212FB5
:1030100030E0322F2227E901CC27DF71C82BD92BD2
:10302000D0CF99270E94E618CC27DF70C82BD92B68
:10303000D06AC7CF803842E59407C8F5803652E59C
:10304000950708F067C0C03482E5D807B0F08C2F30
:1030500086958695877020E2829FC0011124C370F7
:1030600021E030E0A90102C0440F551FCA95E2F7E4
:10307000EA01C82BD92BDC68A4CFC03252E5D507B2
:1030800008F041C08C2F8695869520E2829FC00172
:103090001124C37021E030E0A90102C0440F551F84
:1030A000CA95E2F7EA01C82BD92BDD688ACF803CAC
:1030B00052E5950760F48F71C03AD24508F03FC0E1
:1030C00090E0982F8827EC01C46FD06A7ACF805C9B
:1030D0009245809708F07FCFDC2FCC27CC27DF717B
:1030E000C06FD06A6ECFA497D0646BCFC85AD0E0BF
:1030F000CC0FDD1FC45DDD4F0990D881C02DD46495
:1031000060CFD0655ECFCF71D0E0DC2FCC27C16F10
:10311000D06A57CF86958695877020E2829FC0013E
:103120001124C37021E030E0A90102C0440F551FF3
:10313000CA95E2F7EA01C82BD92BDA6842CF0E9480
:103140008A19C82FD0E0DC2FCC27CC27DF71D062C2
:1031500038CF8F710E948A1965E0D695C7956A9518
:10316000E1F7CF70D0E0DC2FCC27282F30E084FFB0
:1031700005C054E0220F331F5A95E1F7C22BD32B21
:10318000D0691FCF8D2F8F710E948A19182FCE0101
:1031900099270E94E618212F30E0322F222722277C
:1031A0003F71282B392BE901D2CF462F672F74307E
:1031B00028F44C3018F40E94500B089580E090E001
:1031C00008950E94D5180E94BC170895803E91056D
:1031D000D1F1C8F48133910509F47FC048F48932F4
:1031E000910509F46FC08A32910509F47DC00895F4
:1031F00089339105E1F082389105C9F08533910555
:1032000009F45BC00895843E9105D1F148F4823EF3
:10321000910531F1833E910541F181EE90E00895F1
:10322000863E9105C1F1873E9105E1F10895209117
:1032300041042370211165C02091420423FF14C072
:1032400089E290E008952091410420FD43C030912F
:10325000420430FF09C024FF4EC080E090E0089592
:103260002091410422FDF7CF08952091410422FDD1
:1032700045C03091420430FD44C024FFF5CFEDCF6E
:103280002091420421FFF0CF8091410484FDE5CFDD
:1032900087EE90E008952091410423FFE5CF24FDBF
:1032A000DCCFF6CF2091410423FD2EC030914204A3
:1032B00031FFE3CF84EE90E008952091410425FF93
:1032C000D3CFBECF2091410425FD21C020914204DF
:1032D00023FFCACF89E390E008952091410426FF9F
:1032E000C3CF8AE290E008952091410426FFBCCF2D
:1032F00081E390E0089583EE90E0089582EE90E0FF
:10330000089580EE90E0089586EE90E0089585E3BC
:1033100090E0AACF9091410492FF10C041E0282F85
:103320002471243009F040E031E0282F2871283042
:1033300009F030E0431711F02CE0822793FF10C012
:1033400041E0282F2471243109F040E031E0282F9A
:103350002871283109F030E0431711F02CE0822762
:103360003091420430FF10C051E0282F21712130EC
:1033700009F050E041E0282F2871283009F040E0A2
:10338000541711F029E0822731FF10C041E0282FA7
:103390002171213109F040E031E0282F28712831D6
:1033A00009F030E0431711F029E0822794FD877E71
:1033B000089580E008950E94221608950E94E21A5E
:1033C0002FEF86E791E0215080409040E1F700C068
:1033D00000000E94E21A80E00E941D1A80FF04C0D3
:1033E0000E94DB190E94E42908950E94DE190895C5
:1033F0000E942916811102C00E94C9160E9434162B
:103400008093EA030E943E16909342048093410405
:103410000E94F5190E94391690E00E94C91080910F
:103420003E0390913F030E94E710089508950E9483
:10343000161A08950E9485090895E82FF0E0EE0F0E
:10344000FF1FE55BFB4F808191810895089580EA1D
:103450008A95F1F7089500C008950E94271A0895EB
:10346000F894E82FE295EF70F0E041A18F7021E031
:1034700030E0B90102C0660F771F8A95E2F7CB01F1
:10348000962F9095942391A392A1892B82A378944F
:103490000895CF93DF9385E90E94301A86E60E9453
:1034A000301A86E30E94301A86EC0E94301AC2E677
:1034B000D2E089918F3F11F00E94301A82E0CE361F
:1034C000D807B9F7DF91CF910895A0E0B0E0EBE61F
:1034D000FAE10C94EB33EC01B62E062F10E0C80194
:1034E00082599D4F7C01FC0180818F3F09F44FC0C0
:1034F000F894E82FE295EF70F0E091A18F7021E051
:1035000030E001C0220F8A95EAF7892F822B81A330
:1035100082A12095282322A378940E942B1AE2E608
:10352000F2E041E050E0C12CD12C21912F3F89F0F5
:10353000A22FA295AF70A05EB0E08C9190E02F70AA
:1035400002C0959587952A95E2F781709A018823A4
:1035500011F020E030E0C22AD32A440F551F82E048
:10356000EE36F80711F7F70180818F3F11F00E94C6
:10357000301A61E0C114D10409F460E08B2D0E947F
:103580002D1A000F111FC00FD11FD982C882CDB7CD
:10359000DEB7E9E00C9407340E94491A88E0EBE4B6
:1035A000F4E0DF01982F1D929A95E9F7E3E4F4E047
:1035B000DF011D928A95E9F784E00E941F1B0E949B
:1035C000171A0895A8E0B0E0E8EEFAE10C94EF33A2
:1035D000FE01319688E0DF011D928A95E9F710E03F
:1035E000FE2E0F2F612F8F2D902F0E94651A1F5FC7
:1035F0001430C1F748E050E06F2D702F83E494E061
:103600000E94193421E0892B81F420E044E06BE42E
:1036100074E083E494E00E94201B182F0E941A1A81
:10362000812F2896E5E00C940B3488E0EF2DF02FE5
:10363000A3E4B4E001900D928A95E1F7E7CF0895F5
:10364000A0E0B0E0E6E2FBE10C94EC33D82EE92EEA
:10365000F62ED72F042FC22F222379F081E08093FA
:10366000ED030E9468299093EC038093EB0380E0C4
:10367000CDB7DEB7E8E00C940834C090ED03CC2061
:10368000B1F38091EB039091EC030E94912905978F
:1036900070F310E0000F111FA8016D2D7E2D8F2DEE
:1036A0009D2F0E941934892B41F0A8016D2D7E2D8C
:1036B0008F2D9D2F0E942634CC2D1092ED038C2F40
:1036C000D7CF0E94762B0E942F170E94832B08953C
:1036D0000E94882B0E9443170E94A22B08950E94EB
:1036E00001290E945C2B0E9410170E94611B0E94FE
:1036F000681B0E942317FBCF90937B0280937A0272
:103700000895A0E0B0E0E7E8FBE10C94EA33E82F8D
:1037100071110DC0442321F0F0E0E457FD4F849176
:10372000682F782FCDB7DEB7EAE00C940634262F49
:1037300030E0C72FD0E0F0E0442321F0E457FD4F04
:10374000E491F0E086E0829F7001839FF00C1124E9
:103750000FEF10E0C701B8010E947333AB01220FD5
:10376000331F65E5649FC001659F900D1124281BE0
:10377000390BC22ECC0CC20EC8018C1B9D0B8E9F28
:1037800090018F9F300D9E9F300D1124832FCC9E72
:10379000B001CD9E700D1124672F77275801A61A0E
:1037A000B70AAE9ED001AF9EB00DBE9EB00D1124E3
:1037B0007B2F5801AC18B1086501CC9E5001CD9EFD
:1037C000B00CDC9EB00C1124AB2CBB240A191B09D5
:1037D0000E9FE0010F9FD00D1E9FD00D11246E2F64
:1037E00043305105C9F09CEFE91693E0F90650F417
:1037F0004130510509F496CF4230510589F07E2FB2
:103800006D2F90CF4430510571F046305105B9F31A
:10381000632F8B2F7E2F86CF6B2F732F8E2F82CF10
:10382000732F8D2F7FCF7D2F632FF8CF41E00E9424
:10383000811B08959C0180E090E0269F812D369F9A
:10384000800D911D11240895A6E0B0E0EAE2FCE1AC
:103850000C94ED337B01D82ECA01A0E0B0E089833F
:103860009A83AB83BC83BC01CD010E94AF3120E0C1
:1038700030E04FE753E469837A838B839C836981CB
:103880007A818B819C810E940E318B018E839D8376
:103890009B01AC0169831A838B839C8369817A8144
:1038A0008B819C810E94063398014E815D816983E2
:1038B0007A838B839C8369817A818B819C810E942E
:1038C000063398014E815D8169837A838B839C8363
:1038D00069817A818B819C810E9406338B018E8362
:1038E0009D832DEC3CEC4CE45DE369831A838B8370
:1038F0009C8369817A818B819C810E94093187FD3B
:1039000013C023E333E343E75FE369817A818B816B
:103910009C810E94013318165CF400E010E0B0E8CE
:10392000BE833FE33D8304C000E010E01E821D82A1
:1039300020E030E04FE753E409831A838E818B83C4
:103940009D819C8369817A818B819C810E94063351
:103950009B01AC0160E070E08FE793E40E949C3033
:1039600069837A838B839C8369817A818B819C8133
:103970000E948031262F3D2D239F212D1124B70138
:10398000822F2696E7E00C9409340E94241C80952F
:1039900008959091EE03982B9093EE03089548E0DC
:1039A00050E068E170E083E594E00E9454341092A6
:1039B000EE0308950E94161C0895E3E5F4E085E007
:1039C00080838091E2019091E301A091E4018183E1
:1039D0009283A3838FE784838FEF85830E94CF1C1C
:1039E000089580E008950F931F93CF93DF93C82F1E
:1039F000D62F8A010E94F11C9CE0C99F90011124DE
:103A00002E5F3E4FF901ED0FF11D90819F3F29F090
:103A1000F801E80FF11D90838F5FDF91CF911F9127
:103A20000F910895E0917802F09179020995089537
:103A3000E0917402F091750209950895E091760283
:103A4000F091770209950895CF92DF92FF920F933C
:103A50001F93CF93DF93CDB7DEB728970FB6F894B7
:103A6000DEBF0FBECDBF182F062FF42E0E941917F0
:103A7000882309F44CC0FF2009F457C0AE014F5F02
:103A80005F4F602F812F0E94F31CF82E0F2D10E046
:103A90008091EF03800F912F911D09976CF188E0C1
:103AA00090E06C01C01AD10AB80160517C4FA601A8
:103AB00080EF93E00E942634B80168507C4FA60145
:103AC00088EF93E00E942634A601440F551FB801E9
:103AD000660F771F685F7B4F88E094E00E94263472
:103AE000B80160507C4FA60180E094E00E9426342B
:103AF00088E08F198093EF031091EF03DE01119698
:103B000040E0242F210FF41212C02093EF032896D7
:103B10000FB6F894DEBF0FBECDBFDF91CF911F91DE
:103B20000F91FF90DF90CF900895F12CAFCF5D9172
:103B3000852F90E030E0B90161517C4FFC01EE0F20
:103B4000FF1FEE5CFE4F0081FB010183880F991F70
:103B5000FC01EE5FFE4F81A9FB018187518BF901CA
:103B6000EE0FFF1FE151FC4F128E118E4F5FC9CF38
:103B70000E942007089599E0899F802D1124980FB5
:103B80009B3208F09AE20895A0E0B0E0EAECFDE193
:103B90000C94E9338C017B01FC0180810E94BB1DE8
:103BA000C82FB92E2091570431E0230F08F42FEFCE
:103BB00030E040E050E06FEF7FEF80E090E00E9467
:103BC000BD336901D0E0A22E9D2C2C2FCB1550F0D7
:103BD00081E0F9E2FB1508F480E0CDB7DEB7EBE059
:103BE0000C940534FE01EA57FE4F8081F801918163
:103BF0008923882319F140915F044150042E000C61
:103C0000550B47FF1DC08A2D992D6091570421E067
:103C1000620F08F46FEF0E941A1CAC01609154040B
:103C20007091550480915604F70109950E94DA1CA1
:103C3000462F672F282FCE010E94181D2196C5CF31
:103C4000FA01E15AFB4F818982130AC0FA01EE0F93
:103C5000FF1FE15AFB4F818D928D8C159D05A8F2B7
:103C600041505109CECFA0E0B0E0E9E3FEE10C9471
:103C7000EC337C01FC0180810E94BB1DC82F192FF1
:103C80006091540470915504809156040E94DA1C8E
:103C9000062FD72EC82ED0E0C11748F081E01A3287
:103CA00008F080E0CDB7DEB7E8E00C940834FE0100
:103CB000EA57FE4F8081F70191818923882331F0F3
:103CC0002C2D402F6D2DCE010E94181D2196E4CF82
:103CD000CF93C82F8091CD018C1338C0209153040D
:103CE000237030E04091CE0150E081E02417350789
:103CF00009F480E081708093CC0180915804909108
:103D0000CB01981739F08093CB0140E060E080E070
:103D10000E941E1DC230E9F1D8F4C11126C0809165
:103D2000CC018823E9F140E060E080E00E941E1DA4
:103D30008091CA018F5F8093CA0182E08093C9019C
:103D40008091CC01882389F1CF91089581E0D2CF71
:103D500065EC7CE1C330F9F08091CA018F5F8093FC
:103D6000CA0182E08093C901EFCF8AEC91E00E9402
:103D7000331E9091CA019F5F9093CA018111E4CFD5
:103D800082E08093C9018091CC018111DDCFCC23E9
:103D9000DACF64E27CE18AEC91E00E94C41DE9CFB5
:103DA0008091CA018F5F8093CA0183E0DBCF81E0FD
:103DB00008950E94D71E0895FC01808181500E94C1
:103DC000BB1D692F0E94D91E08954F925F926F927A
:103DD0007F928F929F92AF92BF92CF92DF92EF929B
:103DE000FF92CF93DF9300D000D0CDB7DEB78091A4
:103DF000180490911904A0911A04B0911B048983AE
:103E00009A83AB83BC83BC01CD010E94A0296B01C6
:103E10007C010E94742960931804709319048093A4
:103E20001A0490931B04A091EF03EFEEF3E02A2F06
:103E300030E088248A94982CA12CB12C8C189D08F1
:103E4000AE08BF08A3132FC02093EF0320911C04DA
:103E500021113CC020915304A22FA370A983AA234F
:103E600019F02695269529832091C901223009F45D
:103E700055C070F5211141C01092CA0160935B04D6
:103E800070935C0480935D0490935E0489E2EFEE8E
:103E9000F3E0AFE5B4E001900D928A95E1F781E09F
:103EA0008093C90117C0418D528D2A01612C712C5C
:103EB00084149504A604B70420F421503F5F329681
:103EC000C1CF4C0D5D1D528F418FF8CF1982CCCFE1
:103ED000233081F10F900F900F900F90DF91CF91D1
:103EE000FF90EF90DF90CF90BF90AF909F908F901A
:103EF0007F906F905F904F90089589810E94681E17
:103F0000B981BB2339F38091C901823011F40E9439
:103F1000B81D8AEC91E00E94DC1EDCCF3981309321
:103F2000CD018091530483708093CE010E94121DB5
:103F300083E0B6CF8091EE0381110E94CF1C809167
:103F40005B0490915C04A0915D04B0915E04BC019F
:103F5000CD010E94A02969837A838B839C83603181
:103F600071058105910508F4B5CF1092C901B2CF52
:103F7000E0917202F0917302099510925F0440E1A2
:103F800050E06FEF70E088E794E00E942F341092C9
:103F9000EF0340E150E06FEF70E088E094E00E94B2
:103FA0002F340E942916811104C00E94C9160E9454
:103FB000DD1C81E08093EE0348E050E068E170E0B2
:103FC00083E594E00E9436341092EE03809153040E
:103FD000843010F40E94DD1C0895CF93C82F8823ED
:103FE00091F080911C0481110EC00E94681E1092F5
:103FF000CD018091530483708093CE010E94121DE5
:1040000083E08093C901C0931C04CF910895E3E538
:10401000F4E0908121E0922790831092C9010E94E0
:10402000C91C089581E00E940720089580915304DF
:104030008370811102C01092C901809153048C7F5A
:1040400081608093530408950E94162081E00E94AD
:10405000C91C089580915304837081111092C90185
:10406000809153048C7F8093530408950E942A20EA
:1040700081E00E94C91C0895982F862F2091530437
:104080002370222389F0992381F0943080F49F7368
:10409000990F990F209153042370922B90935304FE
:1040A0001092C9010E94C91C089591E0F1CF93E0DC
:1040B000EFCF61E00E943C200895682F8091530467
:1040C000869586958F5F843008F081E00E943C20C1
:1040D000089581E00E945D200895682F9091530417
:1040E000969596958FEF890F913009F483E00E94A1
:1040F0003C20089581E00E946D200895982F822F22
:10410000209153042370222341F090935404609330
:104110005504409356040E94C91C089520E00E9453
:104120007E200895282FE3E5F4E09181892F90E027
:104130004381628108960E947E20089581E00E945A
:1041400092200895282FE3E5F4E081814381628184
:104150008850990B0E947E20089581E00E94A22041
:104160000895282FE3E5F4E0628130E1630F08F45D
:104170006FEF8181438190E00E947E20089581E06D
:104180000E94B1200895282FE3E5F4E0628130E138
:10419000631B08F460E08181438190E00E947E20EF
:1041A000089581E00E94C3200895282FE3E5F4E0FC
:1041B000438130E1430F08F44FEF8181628190E049
:1041C0000E947E20089581E00E94D5200895282F26
:1041D000E3E5F4E0438130E1431B08F440E08181F2
:1041E000628190E00E947E20089581E00E94E72095
:1041F00008958093570481E00E94C91C0895E3E567
:10420000F4E0248130E1230F08F42FEF24830E948F
:10421000C91C089581E00E94FF200895E3E5F4E0C1
:10422000248130E1231B08F420E024830E94C91C70
:10423000089581E00E940E21089510921D040895B2
:10424000CF93DF93DC01FC01EE0FFF1FEF01CA0FDC
:10425000DB1FC857DB4F8981861306C08881841312
:1042600003C08A81821751F081E080931D04EA0F18
:10427000FB1FE857FB4F618340832283DF91CF917F
:104280000895FF920F931F93CF93DF93182F062F5C
:10429000F42EC0E0D0E02F2D402F612FCE010E94E0
:1042A00020212196CA32D105B1F7CDB7DEB7E5E0BE
:1042B0000C940B3480911D04882341F06AE270E075
:1042C00088E894E00E94C52110921D040895FA0127
:1042D000882311F009950895FB01FCCF1F93CF931C
:1042E000DF93EC01FB01158111114DC00E94F914FF
:1042F0008272FE01E052F847E531F10508F043C053
:10430000EA56FB4C0C94DC330E941220812FDF9183
:10431000CF911F9108954AE750E269E670E20E944A
:104320006721F4CF49E650E26AE770E2F8CF4DEA40
:1043300050E26EE970E2F3CF4EE950E26DEA70E2CE
:10434000EECF41ED50E26FEB70E2E9CF4FEB50E280
:1043500061ED70E2E4CF45EF50E263EE70E2DFCF53
:1043600043EE50E265EF70E2DACF49E151E26AE0F4
:1043700071E2D5CF4AE051E269E171E2D0CF81E04C
:104380000E945920C3CF11E0C1CF9C01AB01239AF9
:1043900065B1677F75B17860EFB7F894CA01880F8F
:1043A000991F840F951F820F931F8217930741F463
:1043B000EFBF8FE594E00197F1F700C0000008958A
:1043C000D9014D919D0158E075B9000000C047FF2B
:1043D00065B9440F000000C000C000C065B900C04E
:1043E0005A9591F7E2CFCF93DF93EB0186319C474B
:1043F00019F50E94F9149D819923A1F08A7A91E020
:10440000811101C090E090931E04882349F085E358
:104410000E9451280E94B31580E0DF91CF9108954A
:1044200089E2F6CF80911E04882321F085E30E9463
:104430006828F0CF89E2FBCF81E0EFCFCF93DF9305
:10444000EC01FB018581882309F4D2C09E0130571D
:104450002332310508F0B2C00E943E169093420408
:1044600080934104FE01E150F047E232F10520F46F
:10447000E555FB4C0C94DC338091410481608093C2
:10448000410493C0809142048860809342048DC0AF
:10449000809141048260F3CF809141048460EFCF2A
:1044A000809141048860EBCF809142048160EDCF20
:1044B000809142048260E9CF809141048061DFCF26
:1044C000809141048062DBCF809141048064D7CF2A
:1044D0000E947A10809141048068D1CF809141047C
:1044E0008C60CDCF809142048360CFCF8091410416
:1044F0008E7FC5CF80914204877FC7CF80914104D2
:104500008D7FBDCF809141048B7FB9CF80914104D5
:10451000877FB5CF809142048E7FB7CF80914204D0
:104520008D7FB3CF809141048F7EA9CF80914104CC
:104530008F7DA5CF809141048F7BA1CF0E947A10FF
:10454000809141048F779BCF80914104837F97CFE7
:10455000809142048C7F99CF8091410482FB9927FE
:1045600090F921E0922790FB82F990FB83F987CFA5
:1045700080914204982F909591708E7F892B90FBAB
:1045800081F983CF90914104892F8F7B96FF8064BE
:1045900076CF0E947A1090914104892F97FB87F97A
:1045A00080586DCF81E00E94CC168091410490919B
:1045B00042040E9443160E947A1080E0DF91CF915E
:1045C000089580E0F0CF90914104892F8F7E94FF71
:1045D000806155CF90914104892F8E7F90FF81603B
:1045E0004ECF90914204892F877F93FF88604DCFF3
:1045F00081E0E4CF282F35EB2303C001112497FF7E
:1046000004C080589109892F089580589F4FFBCF8F
:104610008091250480FF0DC06091D40170E0660F89
:10462000771F60387105C0F561157105B9F1862FE6
:10463000089581FF07C06091D40184E0689FB001B4
:104640001124EFCF82FF04C06091D40188E0F6CF3F
:10465000809124048823E9F09091D3016091D401E2
:1046600070E0891730F093E0660F771F9A95E1F7B5
:10467000D8CF869F9001879F300D112483E0220FB1
:10468000331F8A95E1F7692F70E0C9010E948733D3
:10469000C8CF68E070E0CBCF8FE7089581E0089540
:1046A0008091250480FF0CC06091D00170E0759569
:1046B0006795759567956115710561F1862F089568
:1046C00081FF06C06091D00170E075956795F3CFCA
:1046D0006091D00170E082FD15C020912304222357
:1046E000B1F09091CF016091D00170E0291750F4A2
:1046F000269FA001279F500D1124692F70E0CA0149
:104700000E94873360387105B0F28FE7089561E049
:1047100070E0D4CF81E0089590912804209129047D
:10472000922B20912B04922B20912A04922B9923D7
:1047300031F098E09093240491E0909323048D3C11
:1047400031F40E9408238195809329040895E2E3BF
:10475000E80FE231B0F5F0E0E353FB4C0C94DC33AE
:104760000E940823F1CF0E9408238195809328049A
:1047700008950E940823FACF0E94502380932A04B0
:1047800008950E9450238195F9CF0E94502381956E
:1047900080932B0408950E945023FACF815D990BDA
:1047A00021E030E001C0220F8A95EAF780912704CA
:1047B000822B809327040895809125048160809343
:1047C00025040895809125048260F9CF8091250405
:1047D0008460F5CF409128048D3C59F480912904E0
:1047E00087FF0DC010922904442359F41092240429
:1047F00008C08E3C81F48091290418169CF3442350
:1048000081F080912A0490912B04892B811159C049
:104810001092230408958F3C41F447FFF0CF10928B
:104820002804809129048823E0CF803D19F41416D0
:10483000B4F3E5CF90912A04893D29F41916FCF6CA
:1048400010922A04DCCF8A3D19F497FFD8CFF8CF15
:1048500090912B048B3D29F497FFD1CF10922B041C
:10486000CECF8C3D19F41916CCF3C9CF9FE2980F27
:10487000983090F4815D990B21E030E0B90102C0DD
:10488000660F771F8A95E2F7CB01809590912704F8
:10489000892380932704B3CF8D3D31F48091250483
:1048A0008E7F80932504ABCF8E3D21F4809125042B
:1048B0008D7FF7CF8F3D09F0A2CF809125048B7FAC
:1048C000F0CF08950E94682920912804309129048E
:1048D000232B222321F08093210490932204209102
:1048E0002A0430912B04232B222321F080931F04D0
:1048F0009093200486E294E00E944727089586E082
:10490000E6E2F4E0DF011D928A95E9F710922404B3
:1049100010922304109225040895FC0182818111D4
:104920000DC0838181110AC08481811107C081E09B
:104930009581911101C080E08170089581E0FCCFE4
:10494000A6E0B0E0E6EAF4E20C94EF3386E0E6E2BB
:10495000F4E09E012F5F3F4FD90101900D928A959F
:10496000E1F7109228041092290410922A04109260
:104970002B048B819C81892B8901882391F0809164
:104980002104909122040E9491299C018091240489
:104990008823C9F14091D50150E04217530708F42C
:1049A0003FC08D819E81892B882399F080911F04BF
:1049B000909120040E9491299C01809123048823D6
:1049C00009F467C04091D10150E04217530708F441
:1049D0006EC0B80186E294E00E949928811105C05A
:1049E00086E294E00E948D2481110E94622486E078
:1049F000F801A6E2B4E001900D928A95E1F72696BF
:104A0000E5E00C940B344091D6019AE0499FA00157
:104A100011244217530728F68F5F8093240402C0A5
:104A20008F3FD1F7FB80FF2059F00E94082391E0CF
:104A30001F140CF09FEF899F802D11248093280470
:104A4000FC80FF2059F00E94082391E01F140CF015
:104A50009FEF899F802D1124809329048091280441
:104A6000882309F49ECFF0902904FF2009F499CF00
:104A70000E94FA22811101C081E0809328048F2DC9
:104A80000E94FA22882319F0809329048ACF81E0BA
:104A9000FBCF4091D2019AE0499FA0011124421717
:104AA000530708F096CF8F5F8093230402C08F3F97
:104AB000D1F7FD80FF2059F00E94502391E01F1490
:104AC0000CF09FEF899F802D112480932A04FE8093
:104AD000FF2059F00E94502391E01F140CF09FEF2B
:104AE000899F802D112480932B0480912A04882390
:104AF00009F46FCFF0902B04FF2009F46ACF0E94D5
:104B0000FA22811101C081E080932A048F2D0E9436
:104B1000FA22882319F080932B045BCF81E0FBCF2E
:104B2000FF920F931F93CF93DF93E82FF0E0E457AA
:104B3000FC4FF490282F26952695269530E0F90114
:104B4000E45DFB4F94918770F901E45EFB4F0491A3
:104B500010E0082E02C0159507950A94E2F701703F
:104B60001127F901E45FFB4FC491D0E0082E02C089
:104B7000D595C7950A94E2F7C170DD27E92FF0E0DB
:104B800002C0F595E7958A95E2F7E0FD10C00115A2
:104B90001105C1F48F2D0E94030ECD2B19F08CE26C
:104BA0000E94030ECDB7DEB7E5E00C940B3481EE26
:104BB0000E94700D0115110579F48F2D0E94030ECE
:104BC00081EE07C086EE0E94700D8F2D0E94030EAD
:104BD00086EE0E94B80DE1CF86EE0E94700D8F2DFB
:104BE0000E94030E86EE0E94B80DEACFEF92FF926C
:104BF0001F93CF93DF93EC01162F8881882309F44C
:104C000056C0813009F050C089818130A1F47E0105
:104C100022E0E20EF11C8A810E94030EE701219638
:104C2000812F882351F3EFE9FFE03197F1F700C0BE
:104C300000008150F6CF823041F47E0182E0E80E20
:104C4000F11C8A810E94700DE9CF833041F47E010E
:104C5000E2E0EE0EF11C8A810E94B80DDFCF8430B5
:104C600011F02196DCCF2A81229680E090E06AE064
:104C7000AE014F5F5F4F2053330B2A30310548F0B0
:104C8000019768F2EFE9FFE03197F1F700C000000B
:104C9000F7CF689FF001699FF00D1124C9018E0FB5
:104CA0009F1F2981EA01E4CF0E949025B8CFDF91B0
:104CB000CF911F91FF90EF90089560E00E94F6253C
:104CC0000895A0E0B0E0E7E6F6E20C94EA337C0158
:104CD0005B01C42FD22FFC0185818823C9F040934A
:104CE0002E040E94682990932D0480932C0480E266
:104CF0008C0F883040F4C77081E001C0880FCA95DE
:104D0000EAF70E940C0ECDB7DEB7EAE00C94063449
:104D100010912E04141342C080912C0490912D0404
:104D20000E9491296C01B701C5010E94D809C816DB
:104D3000D906A0F5C0E2CD0F1D1749F180E2810F21
:104D4000883048F4177081E0012E01C0880F0A9462
:104D5000EAF70E94130EC83020F0802F0E94030E45
:104D6000D2CF91E08D2F877001C0990F8A95EAF715
:104D7000892F0E940C0E802F0E94030ED77081E0B5
:104D800001C0880FDA95EAF70E94130EBCCF802F7E
:104D90000E94030EC83008F0B6CFF0CF80E28C0F2F
:104DA000883008F0B0CFC77081E001C0880FCA9585
:104DB000EAF7EACF0F93FC01CB01E851FC47E7305B
:104DC000F10590F5E152FB4C0C94DC3306E221EE48
:104DD00041EE6AE17CE70E94612680E00F91089530
:104DE00007E225EE45EE6BE17CE7F5CF06E221EE2A
:104DF00040EE68E17CE7EFCF07E225EE44EE69E1A3
:104E00007CE7E9CF06E221EE42EE6CE17CE7E3CFFE
:104E100007E225EE46EE6DE17CE7DDCF08E221E01A
:104E200045EE6EE17CE7D7CFFB01858181111092C1
:104E30002E0481E0D3CF90933404809333040895FB
:104E4000E0913304F0913404309729F00190F0811F
:104E5000E02D0995089580E00895E0913304F091E4
:104E60003404309721F00280F381E02D09950895F4
:104E7000DC01E0913304F0913404309739F086E09E
:104E80008C930480F581E02DCD0109950895DC0116
:104E9000E0913304F0913404309739F082E08C9340
:104EA0000680F781E02DCD0109950895A3E0B0E0DB
:104EB000ECE5F7E20C94F2339C018091310490917F
:104EC000320482179307A1F0309332042093310407
:104ED000E0913304F0913404309751F083E08983FA
:104EE0003B832A830084F185E02DCE01019609954C
:104EF0002396E2E00C940E34A3E0B0E0E2E8F7E29F
:104F00000C94F2339C0180912F049091300482170D
:104F10009307A1F03093300420932F04E0913304E1
:104F2000F0913404309751F084E089833B832A83E5
:104F30000084F185E02DCE01019609952396E2E0EB
:104F40000C940E342091C7013091C8012E5F3F4F61
:104F50008091E1018823A9F08091410487FF11C06D
:104F60002091C5013091C6012E5F3F4F9DE180E049
:104F7000F90140812F5F3F4F41118F5F9150C0F782
:104F8000089595E0F4CF882321F19091E1019923D0
:104F900011F19091410497FF1EC0982F9695969518
:104FA0009695803FB0F4E091C501F091C601E90FFC
:104FB000F11D228130E0877041E050E0BA0102C06B
:104FC000660F771F8A95E2F72623372381E0232B8C
:104FD00091F480E008952091C7013091C801F90152
:104FE0003296285F3F4F9191981721F0E217F3070F
:104FF000D1F7EFCF81E008959C01FC0132968FEF4D
:1050000090E04191461751F08F3F19F4411101C0D2
:10501000892F9F5F9630A9F78F3F09F40895280FD5
:10502000311D87FD3A95F901628308959C01FC01C9
:105030003296285F3F4F8191861303C0DF0111979D
:105040001C92E217F307B9F70895FC01862F8695A5
:1050500086958695603F60F4E80FF11D677021E04A
:1050600030E001C0220F6A95EAF78281822B8283A9
:105070000895FC01862F869586958695603F80F47D
:10508000E80FF11D677081E090E09C0102C0220FE3
:10509000331F6A95E2F7B9016095828168236283C4
:1050A0000895682F8091E101882359F0809141048F
:1050B00087FF07C08091C5019091C6010E942528F5
:1050C00008958091C7019091C8010E94FC2708951E
:1050D000682F8091E101882359F08091410487FF76
:1050E00007C08091C5019091C6010E94392808959A
:1050F0008091C7019091C8010E941628089580915F
:10510000E101882379F08091410487FF0BC0E09191
:10511000C501F091C60132968EE1DF011D928A959C
:10512000E9F70895E091C701F091C801329686E051
:10513000F4CFDC01FB0111969C91119781819813AA
:1051400022C012968C911297882319F092818913AC
:105150001AC013968C911397882319F093818913A1
:1051600012C015968C911597882319F09581891393
:105170000AC014969C91992321F081E0248129137F
:1051800003C080E001C081E08170089508950E940D
:10519000C62808958F5F809335040E94C72808951C
:1051A00083E0809335040E94C72808950E94CA288E
:1051B000089581E0809335040E94C72808950E94D5
:1051C000D9280895089508950E94E3280895089520
:1051D00008950E94E2280895CF930E94E7280E9434
:1051E000E21A0E94E828C0E08C2F0E941D1A892B29
:1051F00031F4CF5FC430C1F780E0CF91089581E0F2
:10520000FCCF85B7806885BF85B7806885BF089566
:105210001F921FB61F9211248F939F93AF93BF933A
:1052200080913604811113C0809106059091070585
:10523000A0910805B09109054196A11DB11D80936B
:10524000060590930705A0930805B0930905BF9143
:10525000AF919F918F911F901FBE1F9018958091C5
:105260000E05843031F10E94B80C1092360488E1AA
:1052700090E020E40FB6F894A895809360000FBEEC
:105280002093600083B7817F846083BF83B7816090
:1052900083BF7894889583B78E7F83BF0FB6F894C9
:1052A000A8958091600088618093600010926000F2
:1052B0000FBE08950E947A100E94C20C089582E0E9
:1052C00084BD93E095BD9AEF97BD80936E000895DD
:1052D0002FB7F8948091060590910705A0910805D5
:1052E000B09109052FBF0895A4E0B0E0EAE7F9E224
:1052F0000C94F2338FB7F89420910605309107058E
:10530000409108055091090529833A834B835C83BA
:105310008FBF69817A818B819C812496E2E00C9415
:105320000E349C014FB7F8948091060590910705C3
:10533000A0910805B09109054FBF821B930B0895FA
:10534000A4E0B0E0E6EAF9E20C94F033462F572FE0
:10535000BC012FB7F8948091060590910705A091A4
:105360000805B09109052FBF8C019D01041B150B89
:10537000260B370BC901B8012496E4E00C940C34D9
:1053800078941F921FB61F9211248F939F93AF930F
:10539000BF938091060590910705A0910805B091F3
:1053A00009050196A11DB11D80930605909307057F
:1053B000A0930805B0930905BF91AF919F918F917C
:1053C0001F901FBE1F90189581E08093E00080E23F
:1053D0008093D8001092C9008FE19EE40197F1F705
:1053E00000C0000087E090EBDC01809317059093EC
:1053F0001805A0931905B0931A0588E19CE00FB633
:10540000F894A895809360000FBE90936000FFCF42
:1054100088E19CE00FB6F894A895809360000FBED9
:1054200090936000FFCF80913F040895282FCB0117
:10543000BA0130910E053430E1F42F702093E90069
:105440002FEF3091E80035FD07C035ED3A95F1F7C3
:10545000000021502111F5CF2091E80025FF09C05F
:1054600040E050E00E941A2C8091E8008E778093F3
:10547000E8000895BC0143E050E082E00E94162A53
:105480000895BC0146E050E082E00E94162A08958B
:10549000BC0140E250E082E00E94162A0895CF93BA
:1054A000DF93D82FC92F48E050E0682F792F81E093
:1054B0000E94162A88E0ED2FFC2FA7E3B4E00190AC
:1054C0000D928A95E1F7DF91CF91089580910D05B6
:1054D000811109C00E94A22D0E94FF2D8091E2003F
:1054E00084608093E200089510920D0508950E9453
:1054F000D928089560910A0581E0611101C080E01A
:105500000E94D028089590910E0581E0943009F012
:1055100080E060910A050E94D628089542E061EC7F
:1055200081E00E941E2D42E261EC82E00E941E2D6D
:1055300090910E0581E0943009F080E060910A05B9
:105540000E94CA28089580911005893089F148F495
:10555000823009F4A0C0833009F45AC0813041F090
:1055600008958A3009F487C08B3009F46CC008951F
:1055700080910F05813A09F04AC08091E800877F49
:105580008093E8008091130590911405892B61F0B8
:1055900060E080E090E070E00E94692C8091E8007B
:1055A0008B778093E800089568E087E394E0F3CF79
:1055B00080910F05813259F5809113059091140562
:1055C000029728F58091E800877F8093E80080911A
:1055D000E80082FF18C09091F3008091F2000297DA
:1055E00031F48091F100813011F0863021F4809106
:1055F000F10080933F048091E8008B778093E8006E
:105600000E94522D04C080910E058111E0CF0895B3
:1056100080910F05813AD9F7809113059091140577
:10562000892BA9F78091E800877F8093E80080911B
:10563000E80080FFFCCF8091E1018093F100809130
:10564000E8008E77DBCF80910F05813201F78091E2
:10565000130590911405892BD1F68091E800877F7E
:105660008093E8000E94522D809111058093E10102
:105670000E947A10089580910F05813241F6809141
:10568000E800877F8093E8000E94522D80911205E8
:1056900080934004089580910F05813A09F0B7CFB7
:1056A0008091E800877F8093E8008091E80080FF88
:1056B000FCCF80914004C1CF84B7877F84BF0FB6F1
:1056C000F894A895809160008861809360001092A2
:1056D00060000FBE80E890E00FB6F8948093610000
:1056E000909361000FBE0E94DF2808950E94A22DB2
:1056F0000E94FF2DE2EEF0E0808184608083789448
:105700000E948230089587ED91E00E941B27089542
:1057100080910E05853031F480910E05853019F0A9
:105720000E945A2908950E942F2980910C058823F0
:1057300099F30E94EC28882379F30E94042C0E949C
:105740007A10EACF08959A014091150550911605F7
:105750000E94AB2B0895AC01CB01D901252F332733
:1057600023303105E1F058F421303105C9F1223000
:105770003105D9F180E090E020E030E01EC0213218
:10578000310521F122323105A9F7892BC1F16130B0
:10579000710581F786EB90E02FEA34E00EC0CA0174
:1057A0009927413069F08230910569F0EEE5F4E027
:1057B000892B01F7849190E09F012D933C930895EC
:1057C000EAE4F4E0F7CFECE3F4E0F4CF892B91F0D6
:1057D0006130710579F689E090E02DE834E0EDCF95
:1057E00082E190E02DE934E0E8CF8BE390E022E61F
:1057F00034E0E3CF89E090E024E734E0DECF84E4D6
:1058000090E025E635E0D9CF80E189BD82E189BD10
:1058100009B400FEFDCF8091D8008F7D8093D80021
:105820008091E00082608093E0008091E00081FD43
:10583000FCCF0895AF92BF92CF92DF92FF920F9369
:105840001F93CF93DF936C01EB018A010E94712DAE
:10585000F82E811123C00115110539F0F80180815E
:105860009181C81BD90BC80ED91EA12CB12C209731
:10587000A9F08091E80085FD22C08091E8008E7734
:105880008093E80001151105A1F0F8018081918154
:105890008A0D9B1D9183808385E0F82E8F2DDF91EB
:1058A000CF911F910F91FF90DF90CF90BF90AF905D
:1058B00008950E94712D8823E1F2F82EEFCFF601B2
:1058C00081916F018093F1002197FFEFAF1ABF0A1A
:1058D000CECFFC019B01809115059091160586178E
:1058E000970718F0672B61F0C90140E0009771F449
:1058F00041110CC08091E80082FF35C080E008951E
:105900008091E8008E778093E800EECF20910E051D
:105910002223A9F12530A9F12091E80023FD2DC013
:105920002091E80022FDE6CF2091E80020FFDECFA5
:105930003091F3002091F200009719F028303105E2
:1059400058F041E02830310509F040E02091E800AE
:105950002E772093E800CACF41914093F100019740
:105960002F5F3F4FE9CF80910E05882341F08530AE
:1059700041F08091E80083FFBDCF81E0089582E08F
:10598000089583E00895FC019B0180911505909195
:1059900016058617970718F0672B61F0C90140E0DC
:1059A000009771F441110CC08091E80082FF36C06D
:1059B00080E008958091E8008E778093E800EECF34
:1059C00020910E052223B1F12530B1F12091E8009C
:1059D00023FD2EC02091E80022FDE6CF2091E800B3
:1059E00020FFDECF3091F3002091F200009719F0F4
:1059F0002830310558F041E02830310509F040E009
:105A00002091E8002E772093E800CACF449140937C
:105A1000F100319601972F5F3F4FE8CF80910E053F
:105A2000882341F0853041F08091E80083FFBCCFAE
:105A300081E0089582E0089583E00895982F9730DB
:105A400028F08F708093E90081E008959093E90039
:105A5000242F762F50E0981731F07091EC002091B0
:105A6000ED005091F00021FD02C09F5FE8CF309122
:105A7000EB003E7F3093EB003091ED003D7F3093A3
:105A8000ED003091EB0031603093EB007093EC004F
:105A90002093ED005093F0002091EE0027FDE5CF1C
:105AA00080E0089580910F0587FF13C08091E80082
:105AB00082FF06C08091E8008B778093E80004C0E5
:105AC00080910E058111F2CF089580910E058823F3
:105AD000D9F38091E80080FFF8CF8091E8008E77BD
