:100000000C94F9020C9431030C9431030C943103D9
:100010000C9431030C9431030C9431030C94310390
:100020000C9431030C9431030C94882A0C945A2BB1
:100030000C9474250C9431030C9431030C9431030B
:100040000C9431030C9431030C9431030C94310360
:100050000C9431030C9419260C9431030C94310345
:100060000C9431030C9431030C9431030C94310340
:100070000C9431030C9431030C9431030C94310330
:100080000C9431030C9431030C9431030C94310320
:100090000C9431030C9431030C9431030C94310310
:1000A0000C9431030C9431030C943103F50AF50AD6
:1000B000210B210B820BA00B8F0C8F0CA50B1B0CA3
:1000C0002C0C2C0CB020B320B820BF20C420C92099
:1000D000CE20D320D820DD20E220E720EA20EA202D
:1000E000EA20EA20EA20EA20EA20EA20EA20702139
:1000F000E2217821422146217C2149217F218A2148
:100100005421D82158218E215C219221BC216021CB
:100110009621C62166219C21A6214D2183215021B3
:1001200086216B21A121B221D221D4213E2174212B
:10013000EB2187238D237B238123932399239F23E3
:10014000C22BE92BE12CE92BE12C352C582CE12C8E
:10015000AF2CBE2C290014001A000800150017004F
:100160001C0018000C00120013002E002B000400CD
:100170001600070009000A000B000D000E000F001A
:1001800000002800E1001D001B000600190005000A
:10019000110010003600000037004C00E000E300C2
:1001A000E2002C41000000002C420000000038005A
:1001B0002D002D0201004A0052004D002F0030009A
:1001C0000100010024023102417E010001005000C3
:1001D00051004F00260227020100010033003400C5
:1001E00000002A0001001D011B0106011901010088
:1001F00001000100010000000100010001000100F8
:1002000001000100000000002C430000000001007C
:100210000100010001001E001F002000210022003B
:1002200023002400250026002700010027002100CC
:10023000220023000100010001000100330034000E
:1002400000002A0001002400250026000100010012
:100250000100010001000000010001000100010097
:1002600001002C430000000001000000000001001C
:10027000010001005F7ED100CD00D2003A003B00BA
:100280003C000100010028782778007C0100CF00A5
:10029000CE00D0003D003E003F00010024782378CE
:1002A0000000007E0100D900D300DA0040004100C8
:1002B000420043004400000045000100010001002D
:1002C0000100010000000000010000000000597E54
:1002D0005A7E2078000101010101010101010202A1
:1002E00002020202020202030303030303030304E4
:1002F00004040404040405050505050606060606AF
:10030000070707070708080808090909090A0A0A68
:100310000B0B0B0C0C0C0D0D0D0E0E0E0F0F0F100A
:100320001011111112121313141415151616171794
:10033000181819191A1A1B1B1C1D1D1E1E1F202000
:10034000212222232424252626272829292A2B2C4A
:100350002D2D2E2F30313232333435363738393A6D
:100360003B3C3D3E3F404142434445464748494A65
:100370004C4D4E4F50515354555658595A5B5D5E33
:100380005F616264656668696B6C6D6F70727375CE
:1003900077787A7B7D7E8082838587888A8C8E8F32
:1003A00091939596989A9C9EA0A2A3A5A7A9ABAD60
:1003B000AFB1B3B5B7BABCBEC0C2C4C6C9CBCDCF4E
:1003C000D1D4D6D8DBDDDFE2E4E7E9EBEEF0F3F5FC
:1003D000F8FAFDFF00000000000000002A2B2800B2
:1003E00000000000000000000000000000000029E4
:1003F000000000002C1E3420212224342627252E24
:10040000362D3738271E1F2021222324252633335B
:10041000362E37381F0405060708090A0B0C0D0E87
:100420000F101112131415161718191A1B1C1D2F53
:100430003130232D350405060708090A0B0C0D0E73
:100440000F101112131415161718191A1B1C1D2F33
:100450003130354C000000000000000000000000BA
:10046000000000000000000000000000000000008C
:1004700000000000000000007E0F00D4FFFFFFC757
:10048000000000780C034600650062003400300074
:1004900000001203660065006200720065006500DE
:1004A0007A00650000000403090409023B00020110
:1004B00000A0FA0904000001030101000921110153
:1004C000000122440007058103080001090401001E
:1004D000010300000009211101000122B6000705F7
:1004E000820320000112010002000000086469423A
:1004F0000000010102000105010902A101850209B4
:1005000001A10005091901290815002501950875A3
:100510000181020501093009311581257F95027598
:1005200008810609381581257F9501750881060522
:100530000C0A38021581257F950175088106C0C017
:1005400005010980A101850319012AB700150126BB
:10055000B700950175108100C0050C0901A1018546
:100560000419012AA002150126A002950175108127
:1005700000C005010906A1018506050719E029E764
:10058000150025019508750181020507190029EF5D
:100590001500250195F0750181020508190129054D
:1005A000950575019102950175039101C005010939
:1005B00006A101050719E029E71500250195087531
:1005C0000181029501750881010507190029FF15B0
:1005D0000026FF0095067508810005081901290508
:1005E000150025019505750191029501750391018D
:1005F000C00011241FBECFEFDAE0DEBFCDBF04B6CE
:1006000003FE18C08091FC049091FD04A091FE04AB
:10061000B091FF048730904BA740B04B59F4109233
:10062000FC041092FD041092FE041092FF04E0E01E
:10063000F8E3099512E0A0E0B1E0ECEEF1E602C0CB
:1006400005900D92AE35B107D9F724E0AEE5B2E0E2
:1006500001C01D92AC3FB207E1F70E942F180C9425
:10066000F4300C940000CF930E94D711C82F0E9441
:10067000ED11C82B0E9400128C2BCF910895CF93BF
:10068000C82F0E94F6118C2F0E9416128C2F0E94E8
:10069000E011CF910895A5E0B0E0E1E5F3E00C941E
:1006A000653091E0811190E0998321E0982F91715C
:1006B00009F420E02A8321E0982F947409F420E0C3
:1006C0002B8321E0982F987809F420E02C83827204
:1006D00061E009F460E029813A814B815C8170E03E
:1006E00080E090E02596E2E00C9481308F359E47C3
:1006F00079F4FB018581882361F09091F3029F5F7B
:10070000923018F49093F30208951092F302089532
:1007100080E00895A0E0B0E0E0E9F3E00C945F3001
:100720002091F0023091F1022115310511F4C0E061
:1007300023C06A01D62F7C01C9010E94C8078C0121
:100740000097A9F3FC018081882389F3F601C58114
:10075000CC2369F38FEF0E943F03C7010E944B082F
:100760008091F0029091F1020E944B08C8010E9412
:10077000C8228D2F0E94E7118C2FCDB7DEB7E8E09D
:100780000C947B300F931F93CF93DF93A091F002D3
:10079000B091F102109709F445C0FA01062F41818A
:1007A00050E0208130E0E581B901660F771F260F08
:1007B000371FEE2319F164E2649FE001659FD00DBD
:1007C00011242C0F3D1FE901C05ADD4F2881211152
:1007D00029C01091F202112331F121E02883BA835C
:1007E000A9830E944B088FEF0E943F0389819A8161
:1007F0000E943408802F0E94E71115C084E2849F74
:10080000F001859FF00D11242E0F3F1FF901E05AD2
:10081000FD4F1081112339F01082818192810E9455
:100820004B0801C010E0812FDF91CF911F910F91F4
:1008300008958F929F92BF92CF92DF92EF92FF9294
:100840000F931F93CF93DF9300D000D01F92CDB7AB
:10085000DEB77C016B010E947603811157C09701BE
:1008600030522115304328F4F6019681907F09F427
:100870004EC01092F202F092F102E092F0020E9459
:100880003303B82E0E944B0329833A834B835C8346
:100890006D838091F0029091F1020E94EC064C0170
:1008A000009721F09093F1028093F0020091F302FF
:1008B000002E000C110B29813A814B815C816D81E6
:1008C0008091F0029091F1020E94AD079C01009787
:1008D00021F09093F1028093F002892831F491E0A5
:1008E000232B09F490E0892F01C081E0817080936F
:1008F000F202A6016B2DC7010E948A03811107C075
:10090000A6016B2DC7010E94C20301C080E00F90B9
:100910000F900F900F900F90DF91CF911F910F913B
:10092000FF90EF90DF90CF90BF909F908F900895B1
:100930004F925F926F927F928F929F92AF92BF92EF
:10094000CF92DF92EF92FF92CF93DF93CDB7DEB7D6
:1009500028970FB6F894DEBF0FBECDBFE62EF42E5B
:10096000682F70E080E090E00E94242E20E030E0CC
:100970004FE753E40E94812D4B015C016E2D70E026
:1009800080E090E00E94242E20E030E04FE753E426
:100990000E94812D2B013C016F2D70E080E090E0E2
:1009A0000E94242E20E030E04FE753E40E94812D86
:1009B0006D837E838F8398879B01AC01C301B20155
:1009C0000E945F2E9B01AC01C501B4010E945F2E05
:1009D0006B017C012D813E814F815885C301B2019D
:1009E0000E947E2E9B01AC01C501B4010E947E2EA7
:1009F0009B01AC01C701B6010E940F2D69837A8368
:100A00008B839C8320E030E0A9010E947C2D882309
:100A100009F461C0A7019601C501B4010E947C2DB3
:100A2000811115C02D813E814F815885C301B201CE
:100A30000E940F2D29813A814B815C810E94812D7A
:100A400020E030E040EC50E40E94A82E3BC0A7011B
:100A50009601C301B2010E947C2D811113C0A50132
:100A600094016D817E818F8198850E940F2D29814F
:100A70003A814B815C810E94812D20E030E040E092
:100A800050E41AC0A70196016D817E818F819885FF
:100A90000E947C2D811113C0A3019201C501B401F4
:100AA0000E940F2D29813A814B815C810E94812D0A
:100AB00020E030E040E850E40E94102D03C060E0E8
:100AC00070E0CB0120E030E040E752E40E94792F53
:100AD0004B015C0103C0812C912C540120E030E0DB
:100AE000A901C701B6010E947C2D882359F0A701F6
:100AF000960169817A818B819C810E94812D2B01D5
:100B00003C0103C0412C512C320120E030E04FE782
:100B100053E4C501B4010E94792F20E030E044EB9A
:100B200053E40E94812D0E94F32DA62E20E030E098
:100B30004FE753E4C301B2010E94792F0E94F32DC5
:100B4000B62E20E030E04FE753E4C701B6010E9423
:100B5000792F0E94F32D862FB50128960FB6F894B1
:100B6000DEBF0FBECDBFDF91CF91FF90EF90DF9042
:100B7000CF90BF90AF909F908F907F906F905F903D
:100B80004F9008958093F7026093F6024093F50228
:100B90000E949804962F672F482F892F90E00E947B
:100BA000AB1F089580E40E9425200E94591F0E94D7
:100BB000471F8091F802882311F083E001C082E092
:100BC0000E94761F80E00E948F0D83E00E948F0DAF
:100BD00008958091AE01882391F08091F8028823D6
:100BE00021F020E040E060E006C02091F502409155
:100BF000F6026091F70288E190E00E941D1C81E0FE
:100C00000895823059F0833031F0813059F44AE44C
:100C10006FEF83E011C040E06FE60AC04FEF6BE377
:100C200085E00AC08091F3024FEF813019F46FEF35
:100C30008FEF02C060E088E80E94C20508950F931C
:100C40001F93CF938C010E944D09C82F8091F4020D
:100C5000C81729F08C2F0E940106C093F402C80126
:100C6000CF911F910F91089580E00E9401060E948C
:100C7000D20580E00E948F0D0895CF93FB01C581BE
:100C8000CC23D9F09C0129553E472230310560F430
:100C900089359E4759F49091F80281E08927809325
:100CA000F8020E94D20509C0C0E007C09091AE01D1
:100CB00081E089278093AE01F4CF8C2FCF910895E6
:100CC000FB012581AC014B7F823E910519F42093F5
:100CD000F90205C0433E510511F42093FA02403E4B
:100CE000510511F42093FB023091F902222399F06F
:100CF00031112AC02091FA02211126C02091FB0255
:100D00008B9721F5222311F181E00E948F0D81E064
:100D10008093FC020895311109C08091FA0281117B
:100D200005C09091FB0281E0892702C080E090E03D
:100D30002091FC02222351F080FF08C080E00E9435
:100D40008F0D1092FC0208958B97F1F208950E9486
:100D5000340608959C019D7F8C32914451F02C32D1
:100D600082E4380731F081E021153C4719F080E03A
:100D7000089581E00895EF92FF920F931F93CF9310
:100D80008C017B010E94AA06C82F811110C0B701F7
:100D9000C8010E946006B701C8010E943D0681118A
:100DA00006C0B701C8010E941904C1E0C8278C2FF2
:100DB000CF911F910F91FF90EF9008958C3222E414
:100DC000920739F09D7F8C32914419F088EC90E0C5
:100DD00008958DE790E00895A5E0B0E0E2EFF6E039
:100DE0000C94653029833A838932910541F441118D
:100DF000A5C0662309F4ABC085E390E0AAC08832A1
:100E0000910531F4662309F4A2C08AE290E0A1C002
:100E100081152EE7920709F494C02A818433910545
:100E200049F4611191C08981882309F490C084E359
:100E300092E08FC08D3232E0930731F4662309F4DB
:100E400086C08DE292E085C08E32910531F4662332
:100E500009F47DC08EE290E07CC08F32910531F4C0
:100E6000662309F474C086E392E073C08033910571
:100E700031F4662309F46BC087E392E06AC08632DE
:100E800032E0930731F4662309F461C08FE292E007
:100E900060C0873232E0930731F4662309F457C00B
:100EA00080E392E056C0843232E0930731F4662347
:100EB00009F44DC080E49EE74CC0813332E09307D3
:100EC00031F4662309F443C08FE19EE742C08633C4
:100ED000910529F46623D9F18EE192E03AC0873377
:100EE000910529F4662399F188E392E032C08833B2
:100EF000910529F4662359F181E390E02AC08A34F0
:100F0000910529F4222319F18BE490E022C08D345D
:100F1000910529F42223D9F08EE490E01AC086329C
:100F2000910529F4662399F085E392E012C08D972C
:100F300071F4662361F087E590E00BC08BE290E0EE
:100F400008C088E292E105C084E390E002C080E03E
:100F500090E02596E2E00C948130A5E0B0E0E3EB70
:100F6000F7E00C9463300130110561F4833E910584
:100F700031F0823E910531F48EE690E005C08DE6B9
:100F800090E002C080E090E02596E4E00C947F3091
:100F90008F312EE7920751F080342EE7920749F007
:100FA00081349E4749F080ED91E008958BEC91E00B
:100FB00008958EEC91E0089581ED91E008958430DC
:100FC000B0F46430A0F44C3090F490E3899FF001C9
:100FD00011248CE0689FE00DF11D1124E40FF11D38
:100FE000EE0FFF1FEC5AFE4F85919491089581E01A
:100FF00090E008950E94DF0708959C013A9521151D
:101000003F4130F5BC0166277270AC014427547033
:101010009C012227387094FF0FC090FF02C080E12E
:1010200001C080E0672B09F08062452B09F08064E5
:10103000232B79F080680895892F8170672B09F040
:101040008260452B09F08460232B19F08860089595
:1010500080E00895CF93DF93EB010E94FD07FE012E
:101060000995DF91CF910895CF93DF93EC01805ED6
:101070009109089710F0209719F468EA7AE002C005
:101080006AEE7CE0CE010E942A088C2F0E94F809AB
:10109000DF91CF910895CF93DF93EC010E944E0A28
:1010A000CE01805E9109089710F0209719F46FEA3D
:1010B0007AE002C061EF7CE0CE010E942A08DF9155
:1010C000CF91089581E0089581E008950E94640819
:1010D00008950E94660808950E94BB060895089529
:1010E0000E946F080895A6E0B0E0E9E7F8E00C94EC
:1010F000643049835A839E833091020389819A81A7
:10110000311115C03E81332359F0222349F00E944A
:101110005F0E182F682F89819A810E943B0E03C0B1
:101120000E944D0E182F69817A81812F04C00E9480
:101130005F0E69817A810E949D152696E3E00C94EA
:101140008030FC01262F408151816281738184812E
:1011500095810E9473080895CF93DF93EC0161E0BD
:101160000E94A108BE010E946908DF91CF910895F5
:10117000CF93DF93EC0160E00E94A108BE010E94C2
:101180007008DF91CF91089508950E94120D0E947A
:10119000C4082FEF84E39CE0215080409040E1F7A9
:1011A00000C0000008950E94C5080E943F260895CF
:1011B0000E94C5080E94632608950F931F93CF9342
:1011C000DF938C0161E00E94A108EC01B8010E944C
:1011D0006C08882309F449C0B801CE010E946F232E
:1011E000882309F442C0B801CE010E941A21882345
:1011F000E1F1B801CE010E94CC228823B1F1B801FF
:10120000CE010E949920882381F1F80185818823ED
:1012100041F1C3308CE7D807D1F040F4C115FCE7A9
:10122000DF0791F0C130DC47A1F01BC0CB35ECE704
:10123000DE07A9F0CC35FCE7DF0771F0CA35DC47E3
:1012400081F40E94D6120DC00E94D3080EC00E94E5
:10125000DE120E94D80809C00E94CC1202C00E946F
:10126000DA12C8010E94620801C080E0DF91CF91CC
:101270001F910F9108950E944C250E94181E0E94F4
:10128000900981E00E94111F08950E94940980E056
:101290000E94111F0E9455250895292F33272115DB
:1012A000310519F0C90148E001C040E09C0164E04B
:1012B000369527956A95E1F72115310511F04C5FB8
:1012C000C9019C013695279536952795211531053D
:1012D00011F04E5FC9019C0136952795232B09F02B
:1012E0004F5F842F0895089581E008950895CF9366
:1012F000DF93D82F0E947409C82F882319F08D2FEF
:101300000E9476098C2FDF91CF9108950895CF9395
:10131000C82F0E9473098C2F0E947709CF910895DE
:1013200080E00E94870908950E94B7230E948709E0
:101330000895CF930E94B723C82F8091FD02C8174C
:1013400079F0C093FD020E94E2256093FE02709343
:10135000FF0280930003909301038C2F0E94870962
:10136000CF910895ADE0B0E0E8EBF9E00C94653082
:10137000488759876A877B878C879D8791110E9450
:10138000FD11CE01019627E0FC0111922A95E9F7A3
:1013900026E0FE013896DC0101900D922A95E1F7D6
:1013A0002D8121110AC029813A814B815C816D8197
:1013B0007E818F810E94411104C00E94AC0881117E
:1013C000F2CF2D96E2E00C948130FC012481213093
:1013D00021F4808191810E94910E0895662319F075
:1013E0000E94C71802C00E9422190E9499190895EC
:1013F000CF93882309F450C0C82F8CEF8C0F813A0B
:10140000D0F46C2F8091AF019091B0010E944C24D8
:10141000882349F06C2F8091AF019091B0010E9418
:10142000DA240E942C126C2F8091AF019091B001B0
:101430000E94CC240CC080E28C0F883058F4C77016
:1014400081E001C0880FCA95EAF70E94DA110E9474
:101450002C1222C0EBE5EC0FE33040F4F0E0E65F45
:10146000FD4F808190E00E94EC2316C0E8E5EC0F70
:10147000EB3150F4F0E0EE0FFF1FEC52FE4F808195
:1014800091810E94112408C083E38C0F833120F4E2
:1014900061E08C2F0E94EE09CF9108958823A9F175
:1014A0009CEF980F913A40F4682F8091AF01909192
:1014B000B0010E94DA240DC090E2980F983060F4D9
:1014C000877091E001C0990F8A95EAF7892F0E94F1
:1014D000E0110E942C1208959BE5980F933028F498
:1014E00080E090E00E94EC23089598E5980F9B31EE
:1014F00028F480E090E00E941124089593E3980F6F
:10150000933118F460E00E94EE0908951F93CF9381
:10151000DF93182FEB010E94F809209741F08FE923
:101520009FE00197F1F700C000002197F6CF812FCF
:101530000E944E0ADF91CF911F910895893319F0CF
:1015400060E070E002C060E570E00E94860A0895E5
:10155000882321F00E94DA110E942C12089588231A
:1015600021F00E94E0110E942C120895A0E0B0E04A
:10157000ECEBFAE00C945F307C01162FC72FFC01D6
:10158000D581068102950F700E94D0118823E9F061
:10159000DD23D9F08C2F807F803451F080E2810FE1
:1015A000883098F0011104C08C2F807E803269F061
:1015B0008091270482FF09C082E00E94A0120E944D
:1015C000D01191E0D82ED92601C0D12CCC2EC294B6
:1015D0008FE0C8228C2D90E08C30910508F09FC1DF
:1015E000FC01EA5AFF4F0C944F308C2F807FCF7054
:1015F000882311F0C295C07FDD2399F0CC2309F434
:101600007AC180E2810F883010F0111104C08C2F54
:101610000E94DA1103C08C2F0E94F0110E942C123C
:101620006AC1812F0E944E0ACC2309F478C180E25E
:10163000810F883038F1112329F18C2F0E94F61187
:1016400024C08C2F807FCF70803211F0C295C07F74
:10165000112319F0113099F13CC08091270482FDCB
:1016600017C0DD2349F0CC2329F08C2F0E94DA111A
:101670000E942C1280E040C180E00E944E0ACC23E0
:1016800009F44DC18C2F0E94E0110E942C1247C119
:10169000DD2349F0002309F1013009F040C18C2F0E
:1016A0000E940A123CC101113AC18C2F0E94AF0A5C
:1016B0008C2F0E9416128C2F0E94731230C1DD23D2
:1016C00021F0063008F02BC108C0053008F027C112
:1016D00015C0DD2331F001110EC18C2F0E94A80A24
:1016E0001EC1002359F0193309F016C1FFEF27EE90
:1016F00083E0F15020408040E1F70CC18C2F0E9424
:10170000AF0A0DC18C2F86958695837019F08130B4
:1017100061F005C1DD2321F0812F9C2F937002C061
:1017200080E090E00E94EC2302C1DD2321F0812FB4
:101730009C2F937002C080E090E00E941124F7C0BB
:101740006D2F812F0E94EE09F2C08C2F8370B1F5AE
:10175000D111E9C0412F429546954770440F440F7F
:10176000812F8F7090E09C01042E02C0220F331F46
:101770000A94E2F714FF0AC08FE090E002C0880FDD
:10178000991F4A95E2F78095909502C080E090E01D
:10179000C695C695C370822B932BC23049F058F47E
:1017A000C13019F00E946E0DBEC00E94650DBBC015
:1017B0000E94770DB8C00E94620DB5C0DD2319F0FC
:1017C0008C2F817001C08695882309F4ACC0412F0D
:1017D000429546954770440F440F812F8F7090E0DB
:1017E0009C01042E02C0220F331F0A94E2F714FF5B
:1017F0000AC08FE090E002C0880F991F4A95E2F777
:101800008095909502C080E090E0C695C695C37023
:10181000822B932BC23049F058F4C13019F00E944A
:10182000D60D81C00E94CD0D7EC00E94DF0D7BC011
:101830000E94830D78C0CF70DD2339F08C2F0E9479
:101840009B0D812F0E94A80A6EC0812F0E94AF0AB3
:101850008C2F0E94AB0D67C0123F21F128F4103F7E
:1018600041F0113FC1F043C0133F19F1143F79F02B
:101870003EC0DD2341F0053008F051C08C2F8F7140
:101880000E94BD0D4CC0063008F049C0F7CF8091D2
:10189000270482FD18C0DD2339F08C2F8F710E9440
:1018A0009B0D3DC0DD23C9F38C2F8F710E94AB0DC2
:1018B00036C0DD2329F08C2F8F710E948F0D2FC031
:1018C0000E948A0D2CC0DD2349F0CF718C2F0E941D
:1018D0009B0D63E08C2F0E94821221C081E00E9448
:1018E000A0120230E0F082E00E94A01218C0DD23B6
:1018F00031F0002391F2812F0E94F80910C00023DB
:1019000099F2193349F49FEFE7EEF3E09150E0408C
:10191000F040E1F700C00000812F0E944E0A88EFDE
:101920008C0D843020F40E94B7230E948709DD20AB
:1019300089F00E94CC1180FD0DC0F70115820E9434
:10194000C6110E949B0DC7010E94C70C0E94C611C0
:101950000E94AB0DCDB7DEB7E8E00C947B300F935F
:101960001F93CF93DF93EC01688179818D810E9471
:101970009C0E8C010E94E80D0E94530DB801CE010F
:101980000E94B60ADF91CF911F910F910895CF93D6
:10199000DF93FC0124812223D1F0EC010E94DD08B9
:1019A00081110FC00E94D011882389F08D81882376
:1019B00071F08091270482FF0AC082E00E94A01289
:1019C00006C0CE010E94AF0CCE010E94B808DF9184
:1019D000CF910895882321F00E94F0110E942C12CB
:1019E0000895882321F00E94F6110E942C12089578
:1019F00080E090E00E94EC2380E090E00E941124BF
:101A00000E94FD110E942C120E94B8190E9499197F
:101A100008958091AF019091B0010E94E8240E9446
:101A2000F80C08950E94EA110E94090D08959295FC
:101A30009F70963079F010F4925001C09A50923015
:101A400068F4803F69F018F4883E40F409C0843F90
:101A500029F406C0883E20F0813F11F080E008950F
:101A600081E00895FC012481222339F08081918155
:101A70000E94910E0E94170D089580E00895A6E03F
:101A8000B0E0E5E4FDE00C9465302696E2E00C94CD
:101A90008130A7E0B0E0EFE4FDE00C9465302796DC
:101AA000E2E00C948130089508950E94540D089549
:101AB0000E94550D08950E94580D90931E03809327
:101AC0001D0308950E945B0D089520911D03309120
:101AD0001E03822B932B0E945B0D089520911D0302
:101AE00030911E03822393230E945B0D0895209161
:101AF0001D0330911E03822793270E945B0D0895DA
:101B00000E941F0608950E94800D90931C038093ED
:101B10001B03089580E090E00E94830D089521E06A
:101B200030E0A90102C0440F551F8A95E2F7CA01AF
:101B30000E94830D089521E030E002C0220F331F80
:101B40008A95E2F780911B0390911C03822B932BC3
:101B50000E94830D089521E030E002C0220F331F60
:101B60008A95E2F72095309580911B0390911C0394
:101B7000822393230E94830D089521E030E002C068
:101B8000220F331F8A95E2F780911B0390911C036B
:101B9000822793270E94830D089520911B03309183
:101BA0001C03822B932B0E94830D089520911B030D
:101BB00030911C03822393230E94830D089520916A
:101BC0001B0330911C03822793270E94830D0895E5
:101BD0000895962F9770A1E001C0AA0F9A95EAF791
:101BE00093E0769567959A95E1F7660F771F660FF4
:101BF000771FFA01E60FF71F40E050E0682F70E012
:101C000090819B01042E02C0369527950A94E2F735
:101C10002170219529272A23292721934F5F5F4F80
:101C20004430510569F70895FB01782F777023E060
:101C3000969587952A95E1F7880F991F880F991F28
:101C4000E80FF91F40E050E080E0219130E0072EDE
:101C500002C0369527950A94E2F721703327042EA7
:101C600001C0220F0A94EAF7822B4F5F5F4F443086
:101C7000510559F70895282F943070F48C3060F492
:101C8000862F622F70E02CE0929F600D711D112451
:101C900043E053E00E94E90D0895943070F48C30D5
:101CA00060F4292F90E063E073E03CE0239F800D17
:101CB000911D11240E94140E089580E00895A0E063
:101CC000B0E0E5E6FEE00C945E307C0100911B0381
:101CD00010911C0380911D0390911E03082B192B5A
:101CE000CFE0D0E0CC24C394D12CC6010C2E02C08E
:101CF000880F991F0A94E2F780239123892B21F4FE
:101D0000219798F7B12C07C0BC2EB7018C2F0E94E9
:101D1000A9150197A9F38B2DCDB7DEB7E9E00C9497
:101D20007A30CF93DF93EC010E945F0EBE010E94D8
:101D3000A915DF91CF9108951F93CF93DF93EB0106
:101D400090910203992321F0CB010E94910E13C0C0
:101D5000882349F0CB010E945F0E182F682FCE0117
:101D60000E943B0E04C0CB010E944D0E182FBE01F5
:101D7000812F0E94A915DF91CF911F9108951F9384
:101D8000CF93DF93C0911F0317E080912003C81702
:101D9000A1F0D0E01C9FF0011D9FF00D1124EF5D1C
:101DA000FC4F20813181428153816481758186811C
:101DB0000E94490D2196C770E8CFDF91CF911F9106
:101DC00008952091590330915A0340915B0350913B
:101DD0005C0360915D0370915E0380915F030E94DC
:101DE000490D089520911F039091200357E0291772
:101DF000A9F030E0529FF001539FF00D1124EF5DE8
:101E0000FC4F7181761306C07081781303C0758111
:101E1000741306C02F5F3F4F2770E9CF80E008950D
:101E200081E00895A0E0B0E0E8E1FFE00C946030CC
:101E300080915F0382958F7009F052C080915E039C
:101E4000882309F44DC0C0911F0387E0D82E8091EC
:101E50002003C81709F444C0D0E0DC9E8001DD9E59
:101E6000100D1124F801EF5DFC4F84818823A9F146
:101E7000918180915A03981330C0908180915903C9
:101E800098132BC08581811128C0E280F380809156
:101E90005B0390915C03E81AF90A60E089E593E03E
:101EA0000E94A10869E573E00E94DE06E816F906C3
:101EB000A0F480915F038F70806180935F03F801CD
:101EC000E95DFC4F80818F708061808389E593E0BC
:101ED0000E94C70C0E94BF0E03C02196C770B7CFE7
:101EE000CDB7DEB7E7E00C947C30A4E1B0E0EBE7DF
:101EF000FFE00C9458308C0186E0F801DE011F965B
:101F000001900D928A95E1F7F8017480E58089E5EA
:101F1000A82E83E0B82E80915D0381111CC077202C
:101F200009F44EC0EE2009F448C0C8010E94320DE9
:101F3000F82E882309F441C087E0F801A9E5B3E051
:101F400001900D928A95E1F789E593E00E94E509F9
:101F50000E94120F8DC1F80150806180C280D38031
:101F6000F0905E0380915B0390915C034601881AB8
:101F7000990A60E089E593E0FF2009F407C10E9417
:101F8000A10869E573E00E94DE068816990608F04C
:101F9000A6C07720A9F080915F03382F307F209171
:101FA0005A03F8019181332371F0291709F465C0B0
:101FB000C8010E94320D811169C0C8010E94C70C7E
:101FC000FF24F39459C1291316C02091590390811D
:101FD000291311C0E1100FC08F70806180935F03DF
:101FE0000E94E10E89E593E00E94C70C80915F0397
:101FF000F801868340C1E1103AC040E0662D852D8E
:102000000E94F20E40E0662D852D0E94F20EE82E11
:10201000811131C15F86688A8F8598890E94910EEF
:10202000292F22952F70243020F49F70223028F021
:1020300009C02A50223080F014C0992349F0811140
:1020400007C013C0992321F0F8019681907F69F0B1
:10205000805E883030F409C0803F38F0815F833083
:1020600020F0C8010E94C70CEF2CFE2C05C1809106
:102070005F03816080935F03FEC020915903F801E4
:102080009081291395CFE11093CFBFC0EE2009F4C2
:1020900094CF20915F03822F82958F7090E00297FA
:1020A0008CF08091590390915A0399878887DB8639
:1020B000CA8680915D038C871D862E87CE01089687
:1020C0000E94C70C87E0F801A9E5B3E001900D92EA
:1020D0008A95E1F70E94120F0E94E10E71CF809164
:1020E0005F03982F907FB1F46C2DDA8AC98A452D51
:1020F000562D7A89872D9E2D0E943F0D89E593E00C
:102100000E94C70C87E0F50111928A95E9F70E94B9
:10211000E10EB1C0772009F453CF20915A03F801A2
:102120009181291311C020915903908129130CC06A
:10213000E1100AC08683C8010E94C70C87E0F50140
:1021400011928A95E9F798C0C8010E94320D882340
:1021500009F433CFEE2009F430CF20915F03822FB2
:1021600082958F7090E002970CF4ACCF8091590368
:1021700090915A039A838983DC82CB8280915D039C
:102180008D831E822F83CE0101969ACF0E94A108D3
:1021900069E573E00E94DE068816990608F059C0CA
:1021A000772009F40DCFFE2CEE2009F406CF909194
:1021B0005A03F801818198133EC0909159038081A0
:1021C000981339C080915B0390915C03C81AD90AB7
:1021D000F8ECCF16D10430F580915F0380FD22C06A
:1021E00082958F70482F50E041155105D9F020910C
:1021F0005F03F80126834F30510541F08F5F982F20
:102200009295907F822F8F70892B8683C8010E94C0
:10221000C70C87E0F801A9E5B3E001900D928A951B
:10222000E1F726C087E0F801A9E5B3E001900D923F
:102230008A95E1F721C0C8010E94320D811142CF79
:1022400080915F03816080935F03C8010E94C70C87
:1022500013C06C2DDA8AC98A452D562D7A89872DAF
:102260009E2D0E943F0D87E0F50111928A95E9F7B6
:102270000E94E10E01C0F12C8F2D6496EFE00C94CA
:102280007430AEE0B0E0E7E4F1E10C94643028870C
:1022900039874A875B876C877D878E87CE01089652
:1022A0000E94750F882361F06C856623A9F128854B
:1022B00039854A855B857D858E850E94490D2CC0B8
:1022C00087E0FE013896DE01119601900D928A9505
:1022D000E1F76C85662301F12091200330E0C9010C
:1022E00001968770992740911F0350E08417950746
:1022F000E1F16D8397E0929FD001939FB00D11247F
:10230000AF5DBC4FFE01319601900D929A95E1F7B9
:10231000809320030E94BF0E17E080911F039091CD
:102320002003891779F1189FC00111248F5D9C4FFC
:102330000E94750F882331F1E0911F031E9FF00169
:102340001124EF5DFC4F20813181428153816481F2
:10235000758186810E94490D80911F0390E001964E
:102360008770992780931F03D8CF0E94120D109277
:10237000200310921F03E9E5F3E087E0DF011D92DF
:102380008A95E9F72E96E3E00C94803080918003E3
:102390008695869586950895809180038770089527
:1023A00090918003977081E009F480E00895809116
:1023B000A40308959091A403892B8093A403089506
:1023C00080959091A40389238093A403089580931A
:1023D000A40308951092A40308958091A30308957F
:1023E0009091A303892B8093A303089580959091E6
:1023F000A30389238093A30308951092A303089550
:1024000080918203089508950E94031208950E9406
:102410000412089590918203292F2823821729F00E
:10242000982B909382030E94071208959091820343
:10243000292F282331F080958923809382030E94DD
:102440000712089580918203882329F01092820355
:1024500080E00E9407120895CF93DF93E091AF01CF
:10246000F091B0018091A4038083E091AF01F091DD
:10247000B00190818091A303892B80838091820396
:10248000882381F0E091AF01F091B0019081892B18
:1024900080838091AF019091B0010E943624811118
:1024A0000E942212C091AF01D091B00140E250E0F1
:1024B00060E673E0CE010E948C30892B59F080E2F7
:1024C000FE01A0E6B3E001900D928A95E1F7CE01FE
:1024D0000E94C423DF91CF9108950E9403120895B2
:1024E0000E946D12089590918103292F282331F0C5
:1024F00080958923809381030E94701208950E9421
:10250000031208959091270492FF11C098E0899FCB
:1025100090011124262B209380030E949B0D809113
:1025200080038695869586950E947F1208950E9465
:102530009B0D08951092800380E00E947F12089501
:10254000909180038095892380938003282F2770A2
:1025500069F4981759F09091270492FF07C0869567
:10256000869586950E94AB0D0E949A1208959091CF
:10257000270492FB222720F9281769F080FB92F9A3
:102580009093270480912604909127040E94FF12C3
:1025900082E00E94A01208958091270482FB882780
:1025A00080F991E089270E94B712089581E00E9486
:1025B000B712089580E00E94B71208956FEF7FEF81
:1025C00080E090E00E94EE30089580E090E00E946C
:1025D000BA3021E0863E9E4F09F020E0822F089518
:1025E00082E090E00E94B230089583E090E00E9483
:1025F000B230089584E090E00E94BA300895BC01A2
:1026000084E090E00E94EE300895AB01BC018FE0C1
:1026100090E00E94E2300895AB01BC0183E190E0BC
:102620000E94E230089560E070E0CB010E940C133C
:10263000089560E070E0CB010E9405130E9413131F
:102640000895A8E0B0E0E7E2F3E10C94653066EEAF
:102650007EEF80E090E00E94EE3060E082E090E06B
:102660000E94D03060E083E090E00E94D030109271
:102670001E0310921D0360E074E184E090E00E946C
:10268000EE3060E086E090E00E94D0306FEF87E0AF
:1026900090E00E94D03040E050E0BA0188E090E045
:1026A0000E94E23060E084E290E00E94D03060E07E
:1026B00087E190E00E94D03060E08CE090E00E94E2
:1026C000D03060E08DE090E00E94D03019821A8214
:1026D0001B821C821D821E821F82188648E050E0E9
:1026E00068E170E0CE0101960E94C03040E050E009
:1026F000BA0180E290E00E94E2300E94191328960D
:10270000E2E00C9481300E9421130895682F8EE03E
:1027100090E00E94D0300895A6E0B0E0E2E9F3E155
:102720000C9463300E94D6258C018091A503909172
:10273000A6030817190781F019821A820E94D6256C
:10274000682F49815A81792F80E090E00E94B20978
:102750001093A6030093A5032696E4E00C947F3023
:102760000E94E2256093B3037093B4038093B50392
:102770009093B6036093AF037093B0038093B1035B
:102780009093B203089581E0089581E008950E9436
:10279000C513089508950E94CA1308950E94A706BC
:1027A00008950E94CA1308950E94D11308950E94AB
:1027B000CA13089589E996E10E943C180E94D71334
:1027C0000E94D41308950E94CB130E94CA13089547
:1027D0000E94B8160E9486090E94D81E08950E9481
:1027E000CD250E9494170E94E813E6E2F4E0808170
:1027F0008068808380912604909127040E94FF12B4
:102800000E94CE130895A6E0B0E0E9E0F4E10C9454
:1028100059300E94C313811103C00E948C1366C0FB
:102820000E94AA1727EAE22E23E0F22E5701D12CAC
:10283000F501019111915F018D2D0E94D61680271F
:102840009127D394F4E0DF1619F0892B89F302C0A5
:10285000892B19F38091B70381FD0E94DF160E9436
:10286000C713682E10E0812F0E94D6164C01F70185
:10287000A080B180A826B926A114B10471F100E0AE
:10288000CC24C394D12CC5018C219D21892BE9F046
:1028900077247394C4018C219D21892B09F4712C18
:1028A000662071F009831A830E94D625682F8B83D6
:1028B0009C8349815A81792F81E0972D0E94B2092A
:1028C000472D602F812F0E94D41C0F5FCC0CDD1C84
:1028D0000C30C9F6F701918280821F5FF2E0EF0EA3
:1028E000F11C143009F0BFCF0E94B0130E94181ED3
:1028F0000E94DA190E9499092696EEE00C94753030
:102900001F93CF93DF930E94AE15EC01C11580E5B4
:10291000D807E8F5C11590E4D90708F0A8C0C03E73
:10292000D10530F5CD3CD10508F094C0C83AD105A9
:1029300078F4C53AD10508F083C0C130D10509F457
:102940007CC008F4F2C0C430D10508F0F1C0EDC07D
:10295000C33CD10508F0E9C0C85AD0E0CC0FDD1F58
:10296000C35FDD4F0990D881C02DCE019464E1C0D2
:10297000C11580E2D80708F0CBC0C11591E0D90796
:1029800008F06BC0C83ED10508F4D2C0CEC0C03636
:1029900082E5D80728F5C03492E5D90708F079C058
:1029A000C03282E5D80708F06CC0C11592E5D9079E
:1029B00008F481C04C2F4695469580E2489FA001BF
:1029C0001124C37021E030E0C90102C0880F991FB3
:1029D000CA95E2F7EA01C82BD92BCE019D68A9C0A0
:1029E000C03A82E5D807B8F48C2F8F71C03892E5D1
:1029F000D90708F07BC08695869590E2899F900163
:102A00001124C37081E090E002C0880F991FCA951D
:102A1000E2F79A6868C0C03C82E5D80708F46DC048
:102A2000C03E92E5D90708F080C0CF71DD27DC2FCA
:102A3000CC27CE01806F906A7CC081E090E079C0A5
:102A4000C55AD0E0CD5BDD4F8881C82FD0E0CE01E4
:102A500090646FC0CE0190656CC08D2F0E944A16A5
:102A6000182FCE0199270E94AE151F715CC0CE01B0
:102A700099270E94AE15CC27DF70D06A8C2B9D2B36
:102A800058C0CF71D0E0DC2FCC27CE01816F906A87
:102A900050C08C2F8F718695869590E2899F90010A
:102AA0001124C37081E090E002C0880F991FCA957D
:102AB000E2F79C6818C08C2F8F710E944A1695E02F
:102AC000D695C7959A95E1F7CF70D0E0DC2FCC274B
:102AD000282F30E084FF05C084E0220F331F8A9541
:102AE000E1F7D069CE01822B932B23C090E0D82F41
:102AF000CC27CE01846F906A1CC08C2F8F710E94EE
:102B00004A168F7190E0D82FCC27CE01906211C069
:102B10008D2F8F710E944A16182FCE0199270E947F
:102B2000AE151F719062912B04C080E090E001C04F
:102B3000CE01DF91CF911F910895743038F46C303D
:102B400028F4462F672F0E94FA07089580E090E04E
:102B500008950E949D150E94801408958238910561
:102B600069F1B0F48133910509F475C048F48932F4
:102B7000910509F467C08A32910509F471C008957E
:102B80008533910509F459C089339105B9F0089549
:102B9000833E910589F138F4803E9105D1F0823E63
:102BA000910529F10895863E9105C9F1873E910569
:102BB000D9F1843E910509F06CC027C0209126040C
:102BC00020FD57C021FD55C02091270423FD5BC087
:102BD00008958091260480FD48C08091270480FFDD
:102BE00048C08091260484FD46C083EE51C0809188
:102BF000260482FF3CC0F5CF8091260482FD37C0B9
:102C00008091270480FD35C0ECCF8091270481FF9F
:102C100036C08091260484FD2EC087EE39C0809195
:102C2000260483FF2AC0F5CF8091260483FD25C0AA
:102C30008091270481FD23C0ECCF8091260485FD7F
:102C400022C01FC08091260485FD1BC080912704EF
:102C500083FF19C00AC08091260486FD16C017C0E4
:102C60008091260486FD13C010C089E311C082EE56
:102C70000FC080EE0DC080E00BC086EE09C084EE70
:102C800007C085E305C089E203C08AE201C081E391
:102C900090E008959091260492FF10C041E0282F03
:102CA0002471243009F040E031E0282F28712830C9
:102CB00009F030E0431711F02CE0822793FF10C099
:102CC00041E0282F2471243109F040E031E0282F21
:102CD0002871283109F030E0431711F02CE08227E9
:102CE0003091270430FF10C051E0282F217121308E
:102CF00009F050E041E0282F2871283009F040E029
:102D0000541711F029E0822731FF10C041E0282F2D
:102D10002171213109F040E031E0282F287128315C
:102D200009F030E0431711F029E0822794FD877EF7
:102D3000089580E008950E94DE1208950E94AA1767
:102D40002FEF86E791E0215080409040E1F700C0EE
:102D500000000E94AA1780E00E94D61680FF04C0DF
:102D60000E949B160E943F2608950E949E16089579
:102D70000E94E512811102C00E9483130E94F0128A
:102D80008093B7030E94FA1290932704809326043D
:102D90000E94B5160E94F51290E00E94620D80918B
:102DA0001B0390911C030E94800D0895E82FF0E012
:102DB000EE0FFF1FE05DFB4F808191810895089524
:102DC00080EA8A95F1F7089500C008950E94E01600
:102DD000089508950E94E91608950E94EA1608953C
:102DE0000E94E91608950E94F0160895F894E82FBD
:102DF000E295EF70F0E031A1282F2F7081E090E094
:102E000001C0880F2A95EAF7982F9095932391A3F4
:102E100092A1892B82A3789408950F931F93CF9347
:102E2000DF93C2E5D2E089918F3F11F00E94F61640
:102E300082E0C635D807B9F7C6E4D2E002E512E071
:102E400089918F3F11F00E94F6160C171D07C1F7EC
:102E5000DF91CF911F910F910895A0E0B0E0E3E3DF
:102E6000F7E10C945E308C01C62FD0E0CE018E5A73
:102E70009D4F6C01FC0190819F3F09F450C0B62E1C
:102E8000F894E92FE295EF70F0E081A19F7021E0C6
:102E900030E001C0220F9A95EAF7822B81A382A12C
:102EA0002095282322A378940E94E416E6E4F2E019
:102EB00042E552E021E030E0E12CF12C61916F3FDE
:102EC00089F0A62FA295AF70B0E090968C9190E01B
:102ED0006F7002C0959587956A95E2F780FD02C0F4
:102EE000C90102C080E090E0E82AF92A220F331FCE
:102EF0004E175F0719F7F60180818F3F11F00E948E
:102F0000F61661E0E114F10409F460E08B2D0E94F3
:102F1000E616CC0FDD1FC00FD11FF982E882CDB7B6
:102F2000DEB7E9E00C947A300E940D1788E0E0E308
:102F3000F4E0DF01982F1D929A95E9F7E8E2F4E0BA
:102F4000DF011D928A95E9F784E00E94E5170E944F
:102F5000F3160895A8E0B0E0E0EBF7E10C946230DE
:102F60008E010F5F1F4F88E0F80111928A95E9F7F3
:102F7000F12C6F2DC8010E942D17F394F4E0FF127D
:102F8000F8CF48E050E0B80188E294E00E948C302D
:102F900021E0009709F420E0892B41F088E0F80156
:102FA000A8E2B4E001900D928A95E1F744E060E375
:102FB00074E088E294E00E94E617182F0E94ED1654
:102FC000812F2896E5E00C947E300895EF92FF92D1
:102FD0000F931F93CF93DF937C018B01C42F222388
:102FE00049F081E08093BA030E94D6259093B903FB
:102FF0008093B8038091BA03811102C080E01CC0A5
:103000008091B8039091B9030E94EE250597B0F323
:10301000D0E0CC0FDD1FAE01B701C8010E948C309B
:10302000892B39F0AE01B701C8010E94993081E0C7
:1030300001C080E01092BA03CDB7DEB7E6E00C9491
:103040007D300E94DD270E94EF130E94EA27089539
:103050000E94EF270E9403140E94092808950E94ED
:103060006D250E94C3270E94DA130E9421180E9436
:1030700028180E94E313FBCF90935F0280935E02B7
:103080000895282F35EB2303C001112497FF03C0B7
:103090008058910902C080589F4F892F08958091D0
:1030A000C10380FF06C06091B60170E0660F771F14
:1030B00026C081FF04C06091B60184E005C082FF94
:1030C00007C06091B60188E0689FB001112417C065
:1030D0009091C0039923D1F06091B501961788F7BC
:1030E0002091B60188E0289F90011124929FA001B1
:1030F000939F500D112470E0CA010E94FA2F60388E
:10310000710540F46115710519F406C068E070E0BE
:10311000862F08958FE7089581E008958091C10377
:1031200080FF08C06091B20170E075956795759554
:10313000679521C081FF06C06091B20170E075956E
:10314000679519C082FF04C06091B20170E010C0A1
:103150009091BF03992399F06091B1019617A0F760
:103160008091B201899FC001112470E00E94FA2F62
:103170006038710540F46115710519F406C061E00D
:1031800070E0862F08958FE7089581E008958D3CC3
:1031900021F40E944F18819504C08E3C29F40E94AE
:1031A0004F188093C50308958F3C21F40E944F1857
:1031B000819504C0803D29F40E944F188093C40378
:1031C0000895893D19F40E948E1805C08A3D31F496
:1031D0000E948E1881958093C60308958B3D21F43B
:1031E0000E948E18819504C08C3D29F40E948E188F
:1031F0008093C70308959FE2980F983078F421E0F8
:1032000030E0A90102C0440F551F9A95E2F7CA01A8
:103210009091C303892B8093C30308958D3D21F4BE
:103220008091C10381600BC08E3D21F48091C10368
:10323000826005C08F3D29F48091C1038460809332
:10324000C10308958D3C39F49091C50397FF35C0B3
:103250001092C50359C08E3C29F49091C5031916EC
:10326000BCF32BC09091C4038F3C29F497FF25C079
:103270001092C40349C0803D19F41916CCF31DC047
:103280009091C603893D29F41916BCF41092C60327
:103290003BC08A3D19F497FF10C0F8CF8B3D39F43D
:1032A0009091C70397FF09C01092C7032DC08C3DB2
:1032B00021F49091C7031916BCF39FE2980F983040
:1032C00080F421E030E0A90102C0440F551F9A9517
:1032D000E2F7CA0180959091C30389238093C303C9
:1032E00013C08D3D21F48091C1038E7F0BC08E3DB4
:1032F00021F48091C1038D7F05C08F3D29F4809119
:10330000C1038B7F8093C1038091C403811106C0E8
:103310008091C503811102C01092C0038091C60341
:10332000811106C08091C703811102C01092BF03B2
:1033300008950E94D6252091C403211104C0209134
:10334000C503222321F09093BE038093BD032091F7
:10335000C603211104C02091C703222321F09093BA
:10336000BC038093BB0382EC93E00E94DE230895AC
:10337000E2ECF3E086E0DF011D928A95E9F7109216
:10338000C0031092BF031092C1030895FC01828113
:1033900081110DC0838181110AC08481811107C010
:1033A00091E08581811101C090E0892F01C081E009
:1033B00081700895A6E0B0E0E0EEF9E10C9464308D
:1033C00086E0E2ECF3E0DE01119601900D928A9521
:1033D000E1F71092C4031092C5031092C603109235
:1033E000C7038B81811104C08C81882309F456C0E6
:1033F0008091BD039091BE030E94EE25AC01909197
:10340000C003992339F02091B70130E02417350724
:1034100058F044C02091B8018AE0289F90011124FF
:103420002417350718F03AC09F3F19F09F5F90931B
:10343000C0031B81112361F00E944F18111614F074
:103440009FEF01C091E0989F902D11249093C403A9
:103450001C81112361F00E944F18111614F09FEF88
:1034600001C091E0989F902D11249093C503809105
:10347000C403882399F01091C503112379F00E94A9
:103480004118811101C081E08093C403812F0E9403
:103490004118811101C081E08093C5038D818111A4
:1034A00004C08E81882309F456C08091BB0390919B
:1034B000BC030E94EE25AC019091BF03992339F023
:1034C0002091B30130E02417350758F044C0209113
:1034D000B4018AE0289F900111242417350718F0C1
:1034E0003AC09F3F19F09F5F9093BF031D81112346
:1034F00061F00E948E18111614F09FEF01C091E048
:10350000989F902D11249093C6031E81112361F082
:103510000E948E18111614F09FEF01C091E0989F41
:10352000902D11249093C7038091C603882399F0AE
:103530001091C703112379F00E944118811101C035
:1035400081E08093C603812F0E944118811101C040
:1035500081E08093C703BE016F5F7F4F82EC93E0F1
:103560000E94FA24811105C082EC93E00E94C619E2
:1035700081110E94991986E0FE013196A2ECB3E018
:1035800001900D928A95E1F72696E3E00C94803045
:10359000EF92FF920F931F93CF93DF938B01682FCE
:1035A00011110AC0442329F0E82FF0E0EC52FD4F3E
:1035B0006491762F862F75C0212F30E0E82FF0E040
:1035C000442321F0EC52FD4FE491F0E046E0049FEB
:1035D000C0011124CFEFD0E0BE010E94E62F4BEADC
:1035E0004603C001479F900D1124800F911D800F4D
:1035F000911D982F990F890FAE01421B530B4E9FBF
:10360000D0014F9FB00D5E9FB00D11249B2F189FCE
:10361000A0011124452F55278E01041B150B0E9F69
:10362000A0010F9F500D1E9F500D11247E01E81A1E
:10363000F108E29E8001E39E100DF29E100D112410
:10364000212F3327C21BD30BCE9F9001CF9F300D6C
:10365000DE9F300D112462307105A9F048F4611528
:10366000710569F061307105C9F48B2F752F0DC09C
:103670006430710581F058F06630710579F47E2F61
:103680008B2F932F0DC0832F7B2F9E2F09C08E2F42
:103690007B2F952F05C08E2F732F02C07E2F852F75
:1036A000692FCDB7DEB7E6E00C947D3041E00E9493
:1036B000C81A089520E030E0869F212D969F200DA6
:1036C000311D1124C90108958F929F92AF92BF922C
:1036D000DF92EF92FF920F931F93CF93DF937B01C3
:1036E000D82EBA0180E090E00E94222E20E030E047
:1036F0004FE753E40E94812D4B015C019B01AC011B
:103700000E94792FA50194010E94792FA5019401AF
:103710000E94792F8B01D82FC92F2DEC3CEC4CE463
:103720005DE30E947C2D87FD10C023E333E343E774
:103730005FE3B8018D2F9C2F0E94742F18164CF454
:1037400000E010E0D0E8CFE304C000E010E0D0E0FB
:10375000C0E020E030E04FE753E4B8018D2F9C2F0C
:103760000E94792F9B01AC0160E070E08FE793E449
:103770000E940F2D0E94F32D262F3D2D239F212DDA
:103780001124822FB701DF91CF911F910F91FF90EC
:10379000EF90DF90BF90AF909F908F9008950E9420
:1037A000641B809508959091C803892B8093C8036A
:1037B00008950E94561B0895E8E3F4E085E08083B5
:1037C0008091C8019091C901A091CA01818392831F
:1037D000A3838FE784838FEF858348E050E068E11F
:1037E00070E0CF010E94C0301092C803089580E0BD
:1037F00008950F931F93CF93DF93C82FD62F8A017D
:103800000E94F71B9CE0C99FF0011124E050FF4F7C
:10381000ED0FF11D90819F3F29F0F801E80FF11D98
:1038200090838F5FDF91CF911F910F910895E09169
:103830005C02F0915D0209950895E0915802F091C3
:10384000590209950895A0E0B0E0E9E2FCE10C948A
:103850005D308C017B01FC01C08189E0C89FC02DD7
:103860001124D9E0DC0FDB3208F0DAE220913C04CD
:1038700031E0230F08F42FEF30E040E050E06FEF2D
:103880007FEF80E090E00E9430306901CD1708F0B2
:1038900041C0AC2EB12CF501EC57FE4F9081F801E0
:1038A00081818923A9F190914404915097FD15C01D
:1038B000292F092E000C330BF901EC5BFB4F81899A
:1038C000C813F3CF220F331FF901EC5BFB4F218D9F
:1038D000328D2C153D0548F701C0960160913C04DE
:1038E00041E0640F08F46FEFC9010E945A1BAC015C
:1038F0006091390470913A0480913B04F701099575
:103900000E94D91B462F282F672FC5010E941D1C1E
:10391000CF5FBCCF81E0DA3208F080E0CDB7DEB710
:10392000EAE00C947930A0E0B0E0E9E9FCE10C9425
:1039300060308C01DC018C91C9E08C9FC02D11247A
:10394000D9E0DC0FDB3208F0DAE2609139047091E3
:103950003A0480913B040E94D91BF62EE72ED82E04
:10396000CD1798F4EC2FF0E0DF01AC57BE4F8C91EF
:10397000D80111969C91982331F02D2D4F2D6E2D4D
:10398000CF010E941D1CCF5FEBCF81E0DA3208F03F
:1039900080E0CDB7DEB7E7E00C947C30E0915A02CE
:1039A000F0915B0209950895CF92DF92FF920F93F9
:1039B0001F93CF93DF93CDB7DEB728970FB6F89458
:1039C000DEBF0FBECDBF182F062FF42E0E94C513E9
:1039D000882309F46FC0FF2049F0AE014F5F5F4FAD
:1039E000602F812F0E94F91BF82E01C0F12C0F2DA2
:1039F00010E08091C9039801280F311D293031054D
:103A00006CF188E090E06C01C01AD10AB8016653ED
:103A10007C4FA6018AEC93E00E949930B8016E5267
:103A20007C4FA60182ED93E00E949930A601440FDD
:103A3000551FB801660F771F6E517C4F82EE93E0E1
:103A40000E949930B80166527C4FA6018AED93E03E
:103A50000E94993088E08F198093C9031091C9039F
:103A6000DE01119640E0842F810FF41609F190E0F9
:103A70005D91252F30E0BC0167537C4FF901EE0FBB
:103A8000FF1FE05DFE4F0081FB010183220F331F0A
:103A9000F901E050FF4F21A9FB012187518B880FCD
:103AA000991FFC01E753FC4F128E118E4F5FDBCF45
:103AB0008093C90328960FB6F894DEBF0FBECDBF22
:103AC000DF91CF911F910F91FF90DF90CF900895DC
:103AD0008091400490914104A0914204B09143042C
:103AE00088279C70AA27BB272AE0B695A7959795AB
:103AF00087952A95D1F782309105A105B10571F01E
:103B000083309105A105B10569F040E00197A10559
:103B1000B10511F060E008C064E102C044E160E07A
:103B200080E003C044E164E184E10E94CE1C08957A
:103B3000CF93C82F8091BD018C130DC02091380404
:103B4000237030E04091BE0150E081E0241735073A
:103B500019F480E001C081E081708093BC01809104
:103B60003D049091BB01981739F08093BB0140E070
:103B700060E080E00E94CE1CC23019F464E67BE174
:103B800006C0C33048F0C330A1F56FEC7BE18AEB8F
:103B900091E00E94231C08C0CC23D1F0C13019F55C
:103BA0008AEB91E00E94931C9091BA019F5F9093E1
:103BB000BA01811124C082E08093B9018091BC01D7
:103BC00081111DC0C1111BC083E08093B90117C0D2
:103BD0008091BC01882329F040E060E080E00E94F1
:103BE000CE1C80E0E1CF8091BA018F5F8093BA0153
:103BF000E2CFCF3FC1F70E94681D82E0E6CFCF91B0
:103C000008950E94E905089581E008950E94041E28
:103C10000895FC018081815099E0899F802D1124B5
:103C200069E0680F6B3208F06AE20E94061E089590
:103C30004F925F926F927F928F929F92AF92BF92BC
:103C4000CF92DF92EF92FF92CF936091F203709147
:103C5000F3038091F4039091F5030E94FD256B011D
:103C60007C010E94E2254B015C016093F20370939A
:103C7000F3038093F4039093F503A091C903E9EC57
:103C8000F3E08A2F90E04FEF5FEF60E070E04C19B7
:103C90005D096E097F09A91799F0218D328D2901DF
:103CA000612C712C441555056605770510F481507B
:103CB00004C02C0D3D1D328F218F9F5F3296EBCFBC
:103CC0008093C9038091F603811108C0C091380424
:103CD0008C2F837019F0C695C69501C0C0E0809105
:103CE000B9018130D9F028F0823041F1833099F167
:103CF00051C01092BA018092400490924104A09267
:103D00004204B092430489E2E9ECF3E0A4E4B4E0B5
:103D100001900D928A95E1F781E01AC08C2F0E94E4
:103D2000981DCC23B9F18091BA01853011F40E941D
:103D3000011E8AEB91E00E94091E2CC0C093BD01B8
:103D40008091380483708093BE010E94171C83E029
:103D50008093B9011FC08091C803882351F048E0C7
:103D600050E068E170E088E394E00E94C030109277
:103D7000C803609140047091410480914204909185
:103D800043040E94FD25603171058105910510F005
:103D90001092B901CF91FF90EF90DF90CF90BF903C
:103DA000AF909F908F907F906F905F904F9008950D
:103DB000E0915602F0915702099510924404EDE506
:103DC000F4E08FEF9FEF8193919324E0ED36F207BB
:103DD000D1F71092C903E2EEF3E08FEF9FEF8193EA
:103DE000919323E0E23FF207D1F70E94E51281119F
:103DF00004C00E9483130E94DC1B81E08093C803EF
:103E000048E050E068E170E088E394E00E94A2306E
:103E10001092C803809138048C7F11F40E94DC1B3F
:103E20000895CF93C82F882391F08091F6038111D4
:103E30000EC00E94981D1092BD01809138048370BD
:103E40008093BE010E94171C83E08093B901C09348
:103E5000F603CF910895E8E3F4E0208191E0922702
:103E600090831092B9010E94D31B089581E00E94B3
:103E70002B1F089580913804837011F41092B901BA
:103E8000809138048C7F81608093380408950E946B
:103E90003A1F81E00E94D31B0895809138048370FB
:103EA00011F01092B901809138048C7F809338040E
:103EB00008950E944D1F81E00E94D31B08959091A8
:103EC0003804937091F0811102C0946007C084306F
:103ED00010F09C6003C0880F880F982B90933804D3
:103EE000862F1092B9010E94D31B089561E00E94B1
:103EF0005F1F0895682F90913804969596959F5F5F
:103F0000943010F4892F01C081E00E945F1F089552
:103F100081E00E947A1F0895682F90913804969549
:103F20009695915011F0892F01C083E00E945F1F88
:103F3000089581E00E948C1F089590913804937039
:103F400049F08093390460933A0440933B04822FF4
:103F50000E94D31B089520E00E949D1F0895A8E3AE
:103F6000B4E01196EC911197F0E0282F13964C9144
:103F7000139712966C91CF0108960E949D1F089589
:103F800081E00E94AF1F0895A8E3B4E01196EC9180
:103F90001197F0E0282F13964C91139712966C917D
:103FA000CF0108970E949D1F089581E00E94C41FC1
:103FB0000895E8E3F4E0628120E1620F08F46FEF16
:103FC0009181282F4381892F90E00E949D1F0895A1
:103FD00081E00E94D91F0895E8E3F4E0628120E1C6
:103FE000621B08F460E09181282F4381892F90E0C3
:103FF0000E949D1F089581E00E94EC1F0895E8E350
:10400000F4E0438120E1420F08F44FEF9181282F23
:104010006281892F90E00E949D1F089581E00E9497
:10402000FF1F0895E8E3F4E0438120E1421B08F418
:1040300040E09181282F6281892F90E00E949D1F8E
:10404000089581E00E941220089580933C0481E04D
:104050000E94D31B0895E8E3F4E0248130E1230FAC
:1040600008F42FEF24830E94D31B089581E00E945F
:104070002B200895E8E3F4E0248130E1231B08F4C9
:1040800020E024830E94D31B089581E00E943A20FF
:1040900008951092F7030895FC01EE0FFF1FDF0152
:1040A000A80FB91FA359BB4F11963C911197361316
:1040B00007C03C91341304C012963C91321759F05A
:1040C00031E03093F7038E0F9F1FFC01E359FB4F44
:1040D0006183408322830895FF920F931F93CF93B0
:1040E000DF93182F062FF42EC0E0D0E02F2D402FA5
:1040F000612FCE010E944C202196CA32D105B1F722
:10410000CDB7DEB7E5E00C947E308091F7038823CD
:1041100041F06AE270E08DE694E00E94EF20109298
:10412000F7030895882311F0FA0101C0FB010995F6
:1041300008951F93CF93DF93FB01158111114AC09E
:10414000EC010E94D7118272FE01E052F847E5317E
:10415000F10520F4EE59FF4F0C944F3011E03AC0B6
:104160000E94361F37C049E95FE168E87FE104C07B
:1041700048E85FE169E97FE10E9492202BC045EDAC
:104180005FE160EC7FE1F8CF40EC5FE165ED7FE15E
:10419000F3CF4BEF5FE168EE7FE1EECF48EE5FE1FA
:1041A0006BEF7FE1E9CF41E250E26EE070E2E4CFF5
:1041B0004EE050E261E270E2DFCF45E450E266E3B8
:1041C00070E2DACF46E350E265E470E2D5CF81E0F9
:1041D0000E94761F812FDF91CF911F910895239A1E
:1041E00025B1277F35B138604FB7F894FC01CB017A
:1041F000880F991F680F791F6E0F7F1FE617F7074B
:1042000089F0819198E035B9000000C087FF25B999
:10421000880F000000C000C000C025B900C09A95FA
:1042200091F7ECCF4FBF8FE594E00197F1F700C015
:1042300000000895CF93DF93FC01DB0115968C916C
:10424000882309F4DDC09F0130572332310508F07F
:10425000D8C0EF010E94FA1290932704809326049D
:10426000FE01E150F047E232F10520F4E958FF4F3A
:104270000C944F30809126048160AAC0809127045D
:104280008860B2C0809126048260A2C0809126041A
:1042900020C08091260488609BC0809127041EC0A6
:1042A000809127048260A0C080912604806190C024
:1042B0008091260480628CC080912604806488C02E
:1042C0000E94120D80912604806882C0809126048D
:1042D000886084607DC0809127048260816084C092
:1042E000809126048E7F74C080912704877F7CC0D4
:1042F000809126048D7F6CC08091260420C080911F
:104300002604877F65C0809127041EC08091270402
:104310008D7F6AC0809126048F7E5AC080912604CA
:104320008F7D56C0809126048F7B52C00E94120D53
:10433000809126048F774CC080912604877F8B7FE5
:1043400047C0809127048D7F8E7F4EC080912604C8
:1043500082FB222720F991E0922790FB82F990FBC3
:1043600083F936C080912704982F909591708E7FA5
:10437000892B90FB81F938C08091260486FB222787
:1043800020F991E0922790FB86F922C00E94120D3D
:104390008091260487FB222720F991E0922790FB49
:1043A00087F916C081E001C080E00E9486131EC01C
:1043B0008091260484FB222720F991E0922790FB2C
:1043C00084F906C080912604982F909590FB80F97F
:1043D000809326040BC08091270483FB222720F9B9
:1043E00091E0922790FB83F9809327048091260423
:1043F000909127040E94FF120E94120D80E001C0DC
:1044000081E0DF91CF910895A0E0B0E0EAE0F2E230
:104410000C946030E82FF0E0EC52FC4FD490282F41
:1044200026952695269530E0F901EC58FB4F04912E
:10443000877010E0082E02C0159507950A94E2F7E0
:1044400001701127F901EC59FB4FE490F12C082E73
:1044500002C0F594E7940A94E2F791E0E922FF2480
:10446000F901EC5AFB4FC491D0E002C0D595C79535
:104470008A95E2F7C170DD270115110519F081EE6B
:104480000E94F809E114F10419F086EE0E94F8097F
:104490008D2D0E949E0AE114F10419F086EE0E940F
:1044A0004E0A0115110519F081EE0E944E0ACD2B1E
:1044B00019F08CE20E949E0ACDB7DEB7E7E00C94BB
:1044C0007C30EF92FF920F931F93CF93DF93EC0119
:1044D000162F0AE08881882309F455C0813009F03D
:1044E00043C08981813041F47E0182E0E80EF11CF5
:1044F0008A810E949E0A09C0823049F47E01E2E06E
:10450000EE0EF11C8A810E94F809E7012FC083306A
:1045100041F47E01F2E0EF0EF11C8A810E944E0A06
:10452000F4CF843011F0219621C02A81229680E0B8
:1045300090E030E0205331092A30310558F4089FCB
:10454000A001099F500D1124C901840F951F2196C8
:104550002881EFCF009751F0EFE9FFE03197F1F7B5
:1045600000C000000197F6CF0E9404222196812FFF
:10457000882309F4AFCFEFE9FFE03197F1F700C0EE
:1045800000008150F5CFCDB7DEB7E6E00C947D306A
:1045900060E00E9461220895CF93DF9386319C47AB
:1045A00041F5EB010E94D711982F8D812091AF0129
:1045B0003091B001882379F09A7A81E009F480E0A3
:1045C0008093F803911102C069E201C065E3C9015B
:1045D0000E94CC240AC08091F803811102C069E2D4
:1045E00001C065E3C9010E94DA240E942C1280E018
:1045F00001C081E0DF91CF910895A0E0B0E0E3E059
:10460000F3E20C945D307C015B01C42FD22FFC01DE
:1046100085818823B1F04093FB030E94D6259093B7
:10462000FA038093F90380E28C0F883008F052C0BF
:10463000C77081E001C0880FCA95EAF70E94A80AF6
:1046400049C08091FB03481335C08091F9039091D4
:10465000FA030E94EE256C01B701C5010E94DE0637
:10466000C816D90638F510E21D0FCD17B9F080E253
:104670008C0F883040F4C77081E001C0880FCA9564
:10468000EAF70E94AF0A183010F581E09D2F97706D
:1046900001C0880F9A95EAF70E94A80A802F0E940D
:1046A0009E0A1830B8F4D77081E001C0880FDA95FF
:1046B000EAF70AC080E28C0F883060F4C77081E0AE
:1046C00001C0880FCA95EAF70E94AF0A03C0802F85
:1046D0000E949E0ACDB7DEB7EAE00C9479300F93C2
:1046E000FC01E851FC47E730F10590F5CB01E756B6
:1046F000FF4F0C944F3006E221EE41EE6AE17CE779
:1047000023C007E225EE45EE6BE17CE71DC006E223
:1047100021EE40EE68E17CE717C007E225EE44EEAB
:1047200069E17CE711C006E221EE42EE6CE17CE734
:104730000BC007E225EE46EE6DE17CE705C008E21E
:1047400021E045EE6EE17CE70E94FD2280E008C09A
:10475000FB018581882319F01092FB0301C081E0E1
:104760000F91089590930104809300040895E091BF
:104770000004F0910104309729F00190F081E02DC0
:104780000995089580E00895FC01A0910004B0917E
:104790000104109791F08091C701882341F0809126
:1047A000260487FF04C08081818386E08083CF0157
:1047B0001296ED91FC91139709950895E0910004EC
:1047C000F0910104309739F022E0DC012C93048051
:1047D000F581E02D09950895A3E0B0E0E2EFF3E262
:1047E0000C9465302091FE033091FF0328173907A0
:1047F000A1F09093FF038093FE03E0910004F091F9
:104800000104309751F023E029839B838A8306803B
:10481000F781E02DCE01019609952396E2E00C94F4
:104820008130A3E0B0E0E7E1F4E20C946530209140
:10483000FC033091FD0328173907A1F09093FD0385
:104840008093FC03E0910004F0910104309751F053
:1048500024E029839B838A830680F781E02DCE01A3
:10486000019609952396E2E00C948130FC01329682
:104870008091C701882331F08091260487FF02C010
:104880009EE101C096E080E0915028F02191222322
:10489000D9F38F5FF9CF0895662351F12091C701B5
:1048A0002223E9F02091260427FF19C0462F4695C0
:1048B000469546954E31E0F4677021E030E002C045
:1048C000220F331F6A95E2F7FC01E40FF11D82818C
:1048D00090E02823392381E0232B69F409C0FC01EF
:1048E000329608962191621729F0E817F907D1F757
:1048F00080E0089581E008959C01FC0132969FEFCD
:1049000080E04191461789F09F3F19F4411101C0A1
:10491000982F8F5F8630A9F79F3F39F0F901E90F93
:10492000F11D97FDFA956283089508959C012A5F11
:104930003F4FFC014281461301C01282019682174B
:104940009307B9F70895262F2695269526952E319B
:1049500068F4FC01E20FF11D677021E030E001C056
:10496000220F6A95EAF78281282B22830895262F49
:104970002695269526952E3170F4FC01E20FF11D47
:10498000677021E030E001C0220F6A95EAF72095B8
:1049900082812823228308952091C701222339F0A0
:1049A0002091260427FF03C00E94A32408950E949B
:1049B0007C2408952091C701222339F020912604F8
:1049C00027FF03C00E94B72408950E9496240895EB
:1049D0002091C701FC013296222331F080912604F8
:1049E00087FF02C08EE101C086E0DF011D928A953B
:1049F000E9F70895DC01FB0111969C9111978181E3
:104A0000981321C012968C911297882319F09281E5
:104A1000891319C013968C911397882319F09381E9
:104A2000891311C015968C911597882319F09581DB
:104A3000891309C014969C91992339F081E024814F
:104A4000291304C002C081E001C080E08170089594
:104A500008950E942825089583E0809302040E940F
:104A600029250895811102C081E001C082E0809370
:104A700002040E94292508950E943225089581E0AC
:104A8000809302040E94292508950E943F250895DD
:104A900008950E94482508950E94492508950E947E
:104AA000482508950E94482508950E9448250895A4
:104AB000CF930E9452250E94AA170E944F25C0E062
:104AC0008C2F0E94D616892B29F4CF5FC430C1F7F2
:104AD00080E001C081E0CF91089585B7806885BFEF
:104AE00085B7806885BF08951F920F920FB60F9209
:104AF00011248F939F93AF93BF93809103048111EF
:104B000013C08091EB049091EC04A091ED04B0915E
:104B1000EE044196A11DB11D8093EB049093EC042B
:104B2000A093ED04B093EE04BF91AF919F918F914C
:104B30000F900FBE0F901F9018958091F304843052
:104B400031F10E943B091092030420E488E190E0D7
:104B50000FB6F894A895809360000FBE2093600074
:104B600083B7817F846083BF83B7816083BF78947C
:104B7000889583B78E7F83BF0FB6F894A8958091F0
:104B80006000886180936000109260000FBE0895FD
:104B90000E94120D0E944509089582E084BD93E0B1
:104BA00095BD9AEF97BD80936E0008952FB7F89446
:104BB0008091EB049091EC04A091ED04B091EE048F
:104BC0002FBF08952FB7F8946091EB047091EC0417
:104BD0008091ED049091EE042FBF08959C014FB792
:104BE000F8948091EB049091EC04A091ED04B091C5
:104BF000EE044FBF821B930B0895CF92DF92EF928A
:104C0000FF922FB7F894C090EB04D090EC04E090A2
:104C1000ED04F090EE042FBFA7019601261B370B81
:104C2000480B590BCA01B901FF90EF90DF90CF906C
:104C3000089578941F920F920FB60F9211248F93BC
:104C40009F93AF93BF938091EB049091EC04A0915C
:104C5000ED04B091EE040196A11DB11D8093EB040B
:104C60009093EC04A093ED04B093EE04BF91AF9148
:104C70009F918F910F900FBE0F901F90189581E01C
:104C80008093E00080E28093D8001092C9008FE109
:104C90009EE40197F1F700C0000087E090EBDC0193
:104CA0008093FC049093FD04A093FE04B093FF0452
:104CB0009CE088E10FB6F894A895809360000FBE41
:104CC00090936000FFCF9CE088E10FB6F894A89520
:104CD000809360000FBE90936000FFCF809124040A
:104CE00008959B019091F3049430F1F48F708093B8
:104CF000E9008FEF9091E800815095FD06C095ED99
:104D00009A95F1F700008111F5CF8091E80085FFB9
:104D10000BC0BA01C90140E050E00E948128809197
:104D2000E8008E778093E800089543E050E0BC01EE
:104D300082E00E947126089546E050E0BC0182E0C6
:104D40000E9471260895CF93DF93EC018091C701F3
:104D5000811105C048E050E0BE0181E00BC08091A8
:104D6000260487FF03C040E282E002C048E081E001
:104D700050E0BE010E94712680E2FE01A4E0B4E092
:104D800001900D928A95E1F7DF91CF91089580917E
:104D9000F204811109C00E940C2A0E94692A8091A4
:104DA000E20084608093E20008951092F204089576
:104DB0000E94452508956091EF0481E0611101C0D2
:104DC00080E00E942C2508959091F30481E09430B6
:104DD00009F080E06091EF040E943225089542E0DE
:104DE00061EC81E00E94852942E261EC82E00E9450
:104DF00085299091F30481E0943009F080E060917E
:104E0000EF040E943C2508958091F504833009F455
:104E100061C030F4813071F0823009F49BC0089594
:104E20008A3009F487C08B3009F46CC0893009F0EE
:104E3000A9C020C08091F404813A09F0A3C08091F8
:104E4000E800877F8093E8008091F8049091F9044E
:104E5000892B21F460E284E094E003C060E080E00C
:104E600090E070E00E94C6288091E8008B778093E4
:104E7000E80008958091F404813209F083C08091A4
:104E8000F8049091F904029708F07CC08091E80042
:104E9000877F8093E8008091E80082FD05C08091C3
:104EA000F3048111F8CF6EC02091F3008091F200DD
:104EB00090E0922B029731F48091F100813011F053
:104EC000863021F48091F100809324048091E800E1
:104ED0008B7754C08091F404813A09F053C08091DB
:104EE000F8049091F904892B09F04CC08091E800F6
:104EF000877F8093E8008091E80080FFFCCF80915D
:104F0000C70137C08091F4048132E1F58091F80443
:104F10009091F904892BB1F58091E800877F809307
:104F2000E8000E94BA298091F6048093C7010E948C
:104F3000120D08958091F404813221F58091E800EA
:104F4000877F8093E8000E94BA298091F7048093BC
:104F5000250408958091F404813AA1F48091E80039
:104F6000877F8093E8008091E80080FFFCCF8091EC
:104F700025048093F1008091E8008E778093E8000B
:104F80000E94BA29089584B7877F84BF0FB6F8942A
:104F9000A895809160008861809360001092600005
:104FA0000FBE90E080E80FB6F89480936100909374
:104FB00061000FBE0E943F2508950E940C2A0E94A6
:104FC000692AE2EEF0E080818460808378940E9418
:104FD000F42C08958FEB91E00E94B2230895809104
:104FE000F3048530A9F48091F304853079F40E94AC
:104FF0009D258091F1048823B1F30E9458258823D0
:1050000091F30E946B280E94120DEDCF0E94C825DB
:10501000089508959A014091FA045091FB040E946A
:1050200012280895492F552743305105C9F060F4DF
:105030004130510581F04230510509F044C08BE305
:1050400090E04AEA54E043C041325105E1F0423277
:10505000510549F138C082E190E045EE54E037C097
:1050600099278130910549F028F0029761F5E4E82D
:10507000F4E005C0E6EAF4E002C0E2E9F4E084917D
:1050800090E0AF0124C06115710541F061307105F8
:10509000D1F489E090E045ED54E019C089E090E05A
:1050A0004CEB54E014C06115710541F0613071059D
:1050B00051F486EB90E047EF54E009C084E490E0BF
:1050C0004DEA55E004C080E090E040E050E0F90196
:1050D00051834083089580E189BD82E189BD09B48F
:1050E00000FEFDCF8091D8008F7D8093D800809105
:1050F000E00082608093E0008091E00081FDFCCFC1
:105100000895A0E0B0E0E7E8F8E20C945F30EC012D
:105110008B017A010E94D929811133C0E114F10475
:1051200039F0F70180819181081B190BC80FD91F35
:10513000C12CD12C0115110519F18091E80085FDD4
:1051400016C08091E8008E778093E800E114F104A6
:1051500049F0F70180819181C80ED91ED182C082A9
:1051600085E00FC00E94D929882321F30AC08991C4
:105170008093F10001501109FFEFCF1ADF0ADACF57
:1051800080E0CDB7DEB7E8E00C947B302091FA04E4
:105190003091FB042617370748F06115710539F483
:1051A0002091E8002E772093E80001C0B901FC01AE
:1051B00020E06115710579F18091F3048823F1F104
:1051C0008530F1F18091E80083FD3CC08091E800DA
:1051D00082FD2EC08091E80080FFEBCF2091F3008C
:1051E0008091F20090E0922B6115710551F08830AA
:1051F000910538F421912093F100615071090196D5
:10520000F3CF21E0089709F020E08091E8008E7745
:105210008093E800CECF2111CFCF0AC08091F30454
:10522000882361F0853061F08091E80083FD0AC039
:105230008091E80082FFF2CF80E0089582E0089537
:1052400083E0089581E008952091FA043091FB04F1
:105250002617370748F06115710539F42091E800E9
:105260002E772093E80001C0B901FC0120E0611510
:10527000710591F18091F304882309F440C08530D1
:1052800009F43FC08091E80083FD3DC08091E800B3
:1052900082FD2FC08091E80080FFE9CF2091F300CC
:1052A0008091F20090E0922B6115710559F08830E1
:1052B000910540F424912093F100319661507109D9
:1052C0000196F2CF21E0089709F020E08091E800F4
:1052D0008E778093E800CBCF2111CCCF0AC080918C
:1052E000F304882361F0853061F08091E80083FD4C
:1052F0000AC08091E80082FFF2CF80E0089582E04A
:10530000089583E0089581E00895982F973068F517
:105310009093E900981739F07091EC002091ED001E
:105320005091F00003C0242F762F50E021FD02C0E1
:105330009F5FECCF3091EB003E7F3093EB003091DC
:10534000ED003D7F3093ED003091EB003160309304
:10535000EB007093EC002093ED005093F00020914F
:10536000EE0027FDE5CF80E008958F708093E9007F
:1053700081E008958091F40487FF11C08091E800D6
:1053800082FD05C08091F3048111F8CF11C0809196
:10539000E8008B770BC08091F304882349F080915B
:1053A000E80080FFF8CF8091E8008E778093E800D6
:1053B00008952091E4003091E50095E64091EC00DD
:1053C000842F817040FF23C08091E80080FD1DC0C4
:1053D0008091F304882399F0853099F08091EB0057
:1053E00085FD11C04091E4005091E5002417350778
:1053F00029F3915011F09A01E1CF84E0089582E001
:10540000089583E0089581E0089580E00895409133
:10541000E80042FFDDCF08950E947B2A0E94832A84
:10542000E0EEF0E0808181608083E8EDF0E0808153
:105430008F77808319BCA7EDB0E08C918E7F8C9321
:1054400080818F7E80831092F20408950F931F93C2
:10545000CF93DF930E947B2A0E94832AC8EDD0E07D
:1054600088818F77888388818068888388818F7D11
:10547000888319BC1092F3041092EF041092F10487
:105480001092F00400EE10E0F80180818B7F8083A1
:1054900088818160888342E060E080E00E94852905
:1054A000E1EEF0E080818E7F8083E2EEF0E08081AB
:1054B00081608083808188608083F80180818E7F15
:1054C0008083888180618883DF91CF911F910F91C4
:1054D0000895E8EDF0E080818F7E8083E7EDF0E0D5
:1054E00080818160808384E082BF81E08093F204C8
:1054F0000E94262A0895E8EDF0E080818E7F808367
:105500001092E20008951092DA001092E1000895DE
:105510001F920F920FB60F9211242F933F934F9328
:105520005F936F937F938F939F93AF93BF93EF930B
:10553000FF938091E10082FF0BC08091E20082FF27
:1055400007C08091E1008B7F8093E1000E94F32CE3
:105550008091DA0080FF1FC08091D80080FF1BC0BF
:105560008091DA008E7F8093DA008091D90080FFED
:105570000DC080E189BD82E189BD09B400FEFDCF87
:1055800081E08093F3040E94C72605C019BC1092E5
:10559000F3040E94D5268091E10080FF19C080911C
:1055A000E20080FF15C08091E2008E7F8093E200D0
:1055B0008091E20080618093E2008091D800806257
:1055C0008093D80019BC85E08093F3040E94DB2609
:1055D0008091E10084FF30C08091E20084FF2CC004
:1055E00080E189BD82E189BD09B400FEFDCF8091D3
:1055F000D8008F7D8093D8008091E1008F7E8093CA
:10560000E1008091E2008F7E8093E2008091E200D1
:1056100081608093E2008091EF04882311F084E0A0
:1056200007C08091E30087FD02C081E001C083E0F4
:105630008093F3040E94E4268091E10083FF29C057
:105640008091E20083FF25C08091E100877F8093F5
:10565000E10082E08093F3041092EF048091E10076
:105660008E7F8093E1008091E2008E7F8093E20044
:105670008091E20080618093E20042E060E080E09F
:105680000E9485298091F00088608093F0000E943C
:10569000D826FF91EF91BF91AF919F918F917F910C
:1056A0006F915F914F913F912F910F900FBE0F908F
:1056B0001F9018951F920F920FB60F9211242F93DF
:1056C0003F934F935F936F937F938F939F93AF938A
:1056D000BF93CF93DF93EF93FF93C091E900CF7017
:1056E0008091EC00D82FD17080FDD0E81092E900B5
:1056F0008091F000877F8093F00078940E949E2B29
:105700001092E9008091F00088608093F000CD2B2A
:10571000CF70C093E900FF91EF91DF91CF91BF91DE
:10572000AF919F918F917F916F915F914F913F9139
:105730002F910F900FBE0F901F901895AAE2B0E026
:10574000E4EAFBE20C946430E4EFF4E08091F100D1
:10575000819324E0EC3FF207C9F70E94042780916F
:10576000E80083FF2EC18091F4049091F504492F45
:1057700050E04A30510508F024C1FA01E056FF4FCD
:105780000C944F30803821F0823809F01AC108C0DB
:105790008091F0049091F104992389F082600FC008
:1057A0008091F8048F70873008F00BC18093E90076
:1057B0008091EB0085FB882780F91092E900909199
:1057C000E800977F9093E8008093F1001092F10039
:1057D000D1C0282F2D7F09F0F4C0882319F0823022
:1057E00061F0EFC08091F604813009F0EAC0933097
:1057F00009F080E08093F1042EC08091F6048111BD
:105800002AC08091F8048F702FEF280F263008F0FF
:10581000D8C08093E9002091EB0020FF1CC093309A
:1058200021F48091EB00806214C09091EB009061B4
:105830009093EB0021E030E0A90102C0440F551F16
:105840008A95E2F74093EA001092EA008091EB001B
:1058500088608093EB001092E9008091E800877FD8
:105860008093E8000E94BA29ACC08111AAC01091AF
:10587000F6041F778091E3008078812B8093E3000A
:105880008091E800877F8093E8000E94BA29809188
:10589000E80080FFFCCF8091E30080688093E30004
:1058A000111102C082E001C083E08093F30489C03B
:1058B0008058823008F085C08091F6049091F704FA
:1058C0008C3D53E0950779F583E08A838AE28983EA
:1058D0004FB7F894DE01139620E03EE051E2E32F4B
:1058E000F0E050935700E49120FF03C0E295EF7081
:1058F0003F5FEF708E2F90E0EA3010F0C79601C046
:10590000C0968D939D932F5F243149F74FBF8091AF
:10591000E800877F8093E8006AE270E0CE0101969C
:105920000E94C62816C06091F8047091F904AE0177
:105930004F5F5F4F0E940A28BC01892B09F441C0C8
:105940009091E800977F9093E80089819A810E9466
:1059500024298091E8008B778093E80032C080385A
:1059600081F58091E800877F8093E8008091EF04C3
:105970008093F1008091E8008E7772CF811121C071
:105980008091F6049091F70499270297D4F48091BE
:10599000E800877F8093E8008091F6048093EF040D
:1059A0000E94BA298091EF04811106C08091E30022
:1059B00087FD02C081E001C084E08093F3040E946F
:1059C000EF268091E80083FF0AC08091E800877F7E
:1059D0008093E8008091EB0080628093EB00AA96B0
:1059E000E3E00C9480300895CF938091F3048823F2
:1059F000A1F0C091E900CF709091EC00892F8170E7
:105A000090FD80E8C82B1092E9008091E80083FDAA
:105A10000E949E2BCF70C093E900CF9108955058FB
:105A2000BB27AA270E94272D0C943A2F0E942C2FC7
:105A300038F00E94332F20F039F49F3F19F426F4F8
:105A40000C94292F0EF4E095E7FB0C94152FE92F09
:105A50000E944B2F58F3BA17620773078407950704
:105A600020F079F4A6F50C946D2F0EF4E0950B2E32
:105A7000BA2FA02D0B01B90190010C01CA01A001A0
:105A80001124FF27591B99F0593F50F4503E68F1FB
:105A90001A16F040A22F232F342F4427585FF3CF3C
:105AA000469537952795A795F0405395C9F77EF40D
:105AB0001F16BA0B620B730B840BBAF09150A1F056
:105AC000FF0FBB1F661F771F881FC2F70EC0BA0FDC
:105AD000621F731F841F48F4879577956795B79564
