:100000000C94A5020C94DD020C94DD020C94DD022C
:100010000C94DD020C94DD020C94DD020C94DD02E4
:100020000C94DD020C94DD020C945C290C94302AB3
:100030000C944D240C94DD020C94DD020C94DD0232
:100040000C94DD020C94DD020C94DD020C94DD02B4
:100050000C94DD020C94F0240C94DD020C94DD026F
:100060000C94DD020C94DD020C94DD020C94DD0294
:100070000C94DD020C94DD020C94DD020C94DD0284
:100080000C94DD020C94DD020C94DD020C94DD0274
:100090000C94DD020C94DD020C94DD020C94DD0264
:1000A0000C94DD020C94DD020C94DD022900140096
:1000B0001A000800150017001C0018000C001200A0
:1000C00013002E002B0004001600070009000A0090
:1000D0000B000D000E000F0000002800E1001D00C5
:1000E0001B0006001900050011001000360000007A
:1000F00037004C00E000E300E2002C41000000006B
:100100002C420000000038002D002D0201004A00A2
:1001100052004D002F003000010001002402310286
:10012000037E01000100500051004F00260227020B
:10013000010001003300340000002A0001001D010D
:100140001B0106011901010001000100010000006E
:100150000100010001000100010001000000000099
:100160002C430000000001000100010001001E00FE
:100170001F0020002100220023002400250026006B
:1001800027000100270021002200230001000100B8
:10019000010001003300340000002A0001002400A7
:1001A00025002600010001000100010001000000FF
:1001B000010001000100010001002C4300000000CB
:1001C0000100000000000100010001005F7ED1007D
:1001D000CD00D2003A003B003C00010001000100CC
:1001E00001000100597ECF00CE00D0003D003E004E
:1001F0003F000100010001000000007E5A7ED9008E
:10020000D300DA00400041004200430044000000F7
:1002100045000100207801000100010000000000FD
:1002200001000000000001000100007C000101014C
:1002300001010101010102020202020202020203A3
:100240000303030303030304040404040404050573
:100250000505050606060606070707070708080836
:1002600008090909090A0A0A0B0B0B0C0C0C0D0DE5
:100270000D0E0E0E0F0F0F1010111111121213137D
:100280001414151516161717181819191A1A1B1BF6
:100290001C1D1D1E1E1F2020212222232424252652
:1002A00026272829292A2B2C2D2D2E2F303132328A
:1002B000333435363738393A3B3C3D3E3F40414296
:1002C000434445464748494A4C4D4E4F505153547C
:1002D000555658595A5B5D5E5F6162646566686930
:1002E0006B6C6D6F7072737577787A7B7D7E8082B0
:1002F000838587888A8C8E8F91939596989A9C9EF9
:10030000A0A2A3A5A7A9ABADAFB1B3B5B7BABCBE08
:10031000C0C2C4C6C9CBCDCFD1D4D6D8DBDDDFE2D5
:10032000E4E7E9EBEEF0F3F5F8FAFDFF000000007A
:10033000000000002A2B2800000000000000000040
:100340000000000000000029000000002C1E3420E6
:10035000212224342627252E362D3738271E1F200C
:100360002122232425263333362E37381F04050651
:100370000708090A0B0C0D0E0F1011121314151695
:100380001718191A1B1C1D2F3130232D3504050693
:100390000708090A0B0C0D0E0F1011121314151675
:1003A0001718191A1B1C1D2F3130354C0000000086
:1003B000000000000000000000000000000000003D
:1003C000000000000000000000000000000000002D
:1003D0007E0F00D4FFFFFFC7000000780C0346002B
:1003E0006500620034003000000012036600650002
:1003F00062007200650065007A0065000000040379
:10040000090409023B00020100A0FA0904000001EE
:1004100003010100092111010001224400070581A7
:100420000308000109040100010300000009211173
:1004300001000122B600070582032000011201001D
:100440000200000008646942000001010200010589
:10045000010902A10185020901A10005091901296B
:10046000081500250195087501810205010930096B
:10047000311581257F95027508810609381581257A
:100480007F950175088106050C0A38021581257FC4
:10049000950175088106C0C005010980A101850389
:1004A00019012AB700150126B700950175108100C2
:1004B000C0050C0901A101850419012AA00215013A
:1004C00026A002950175108100C005010906A10151
:1004D0008506050719E029E715002501950875012E
:1004E00081020507190029EF1500250195F0750116
:1004F00081020508190129059505750191029501EB
:1005000075039101C005010906A101050719E0293C
:10051000E71500250195087501810295017508818F
:10052000010507190029FF150026FF00950675082B
:10053000810005081901290515002501950575019A
:100540009102950175039101C00011241FBECFEFE8
:10055000DAE0DEBFCDBF04B603FE18C080916904A7
:1005600090916A04A0916B04B0916C048730904B19
:10057000A740B04B59F41092690410926A0410928B
:100580006B0410926C04E0E0F8E3099512E0A0E03F
:10059000B1E0E4EBF0E602C005900D92AE35B10794
:1005A000D9F724E0AEE5B2E001C01D92A936B2074A
:1005B000E1F70E9463170C9404300C940000FC01D6
:1005C00081E0309729F091E08081811190E0892FBE
:1005D00081700895CF930E940A11C82F0E942011A4
:1005E000C82B0E9433118C2BCF910895CF93C82F25
:1005F0000E9429118C2F0E9456118C2F0E941311DA
:10060000CF9108959C01245031092A31310558F0C9
:100610002C5F310991FB882780F921153F4108F0B3
:1006200080E08170089581E00895982F917161E0D4
:1006300009F460E071E0982F947409F470E031E0FF
:10064000982F987809F430E0827291E009F490E0F4
:10065000832F0895EF92FF920F931F93CF93DF9311
:100660007C01CB01D42FF901C581C11107C0C0E0C5
:100670008C2FCDB7DEB7E6E00C948D2F0E940A07D1
:100680008C010E94DF028111F2CF81E10E94F6020B
:1006900084E40E94F60288E80E94F60282E20E9448
:1006A000F602C7010E949107C8010E94B3218D2F55
:1006B0000E941A11DDCFEF92FF921F93CF93DF9329
:1006C0007C01EB0180E0209729F10E94EA02182FBB
:1006D00081E10E94F60284E40E94F60288E80E940A
:1006E000F602812F827241F0CE010E940203811135
:1006F00003C082E20E94F602C7010E949107CE0168
:100700000E947B07812F0E941A11D0936102C0932F
:10071000600281E0DF91CF911F91FF90EF900895EB
:100720008091600290916102009741F00E949107D0
:10073000109261021092600281E0089580E00895B5
:100740008F359E47B9F4FB0185818823A1F0209164
:100750006202309163022F5F3F4F2230310528F44F
:100760003093630220936202089510926302109204
:100770006202089580E008954F925F926F927F9297
:100780009F92AF92BF92CF92DF92EF92FF920F9320
:100790001F93CF93DF93EC016B010E94A00388238A
:1007A00089F080E0DF91CF911F910F91FF90EF9042
:1007B000DF90CF90BF90AF909F907F906F905F90B1
:1007C0004F900895CE0190528115904320F4F60188
:1007D0008681807F31F30E94EA02982E0E941503E1
:1007E0002B013C01BC01A201CE010E944F067C01FD
:1007F0008C01892B09F48E012091620230916302F1
:10080000B301A201C8010E94F8065C01009709F03B
:100810008C019601492DB801CE010E942A03811155
:10082000C0CFEA28FB28EF2809F4BBCFF601858169
:10083000B801882321F0CE010E945B03B3CFCE0123
:100840000E949003AFCF4F925F926F927F928F92F0
:100850009F92AF92BF92CF92DF92EF92FF92CF938F
:10086000DF93CDB7DEB728970FB6F894DEBF0FBE83
:10087000CDBFE62EF42E682F70E090E080E00E945D
:10088000EC2C20E030E04FE753E40E94492C4B0170
:100890005C016E2D70E090E080E00E94EC2C20E086
:1008A00030E04FE753E40E94492C2B013C016F2DAF
:1008B00070E090E080E00E94EC2C20E030E04FE718
:1008C00053E40E94492C6D837E838F8398879B011C
:1008D000AC01C301B2010E94272D9B01AC01C501EF
:1008E000B4010E94272D6B017C012D813E814F8137
:1008F0005885C301B2010E94462D9B01AC01C50180
:10090000B4010E94462D9B01AC01C701B6010E94B3
:10091000D72B69837A838B839C8320E030E0A90105
:100920000E94442C882309F4B3C0A7019601C50195
:10093000B4010E94442C81116FC02D813E814F81F2
:100940005885C301B2010E94D72B29813A814B817E
:100950005C810E94492C20E030E040EC50E40E9491
:10096000702D20E030E040E752E40E943C2E4B0125
:100970005C0120E030E0A901C701B6010E94442CCF
:10098000412C512C3201882351F0A7019601698135
:100990007A818B819C810E94492C2B013C0120E0B3
:1009A00030E04FE753E4C501B4010E943C2E20E043
:1009B00030E044EB53E40E94492C0E94BB2CA62E4D
:1009C00020E030E04FE753E4C301B2010E943C2E27
:1009D0000E94BB2CB62E20E030E04FE753E4C70165
:1009E000B6010E943C2E0E94BB2C862FB501289692
:1009F0000FB6F894DEBF0FBECDBFDF91CF91FF9051
:100A0000EF90DF90CF90BF90AF909F908F907F90AE
:100A10006F905F904F900895A7019601C301B201B6
:100A20000E94442C811115C0A50194016D817E8125
:100A30008F8198850E94D72B29813A814B815C81D7
:100A40000E94492C20E030E040E050E40E94D82B86
:100A500088CFA70196016D817E818F8198850E9444
:100A6000442C811111C0A3019201C501B4010E945F
:100A7000D72B29813A814B815C810E94492C20E04F
:100A800030E040E850E4E2CF60E070E0CB0169CFB5
:100A9000812C912C54016DCF809367026093660284
:100AA000409365020E942304962F672F482F892FB9
:100AB00090E00E94A91E08958AE20E941F1F0E94D2
:100AC000581E0E94461E80916802882351F083E0E0
:100AD0000E94761E80E00E94B00C83E00E94B00C61
:100AE000089582E0F5CF8091AE01882389F080914E
:100AF000680220E040E060E0811106C020916502BC
:100B0000409166026091670288E190E00E942F1B8D
:100B100081E00895823071F0833041F0813071F4CA
:100B20004FEF6BE385E00E944C05089540E06FE6CF
:100B30008FEFF9CF4AE46FEF83E0F5CF8091620247
:100B4000909163024FEF019711F46FEFF1CF60E0E6
:100B500088E8E9CF0F931F93CF938C010E948D08F3
:100B6000C82F809164028C1729F08C2F0E948A056F
:100B7000C0936402C801CF911F910F91089580E046
:100B80000E948A050E945C0580E00E94B00C0895D6
:100B9000CF93FB01C581CC2389F09C0129553E47A9
:100BA00022303105A8F489359E4759F480916802B6
:100BB00091E08927809368020E945C058C2FCF9179
:100BC00008958091AE0191E089278093AE01F4CF22
:100BD000C0E0F4CF0F931F93CF93DF93EC018B0111
:100BE0000E940A11F8019581992379F0AB9741F49D
:100BF0008D7D31F081E00E94B00C81E0809369022C
:100C0000DF91CF911F910F91089580916902882300
:100C1000B9F39E012B7F81E0223E310509F080E08F
:100C20008170233E310531F480E00E94B00C1092B7
:100C30006902E6CF8111F8CFC03ED10509F7F4CFA4
:100C40000E94BF0508950F931F93CF93DF93EC018C
:100C50008B010E94EA05B801CE010E94C8058111EE
:100C60000BC0B801CE010E94BC0391E08927DF913F
:100C7000CF911F910F91089580E0F9CF8C3222E43B
:100C8000920751F08C3223E4920731F08C32914478
:100C900019F088EC90E008958DE790E0089589328E
:100CA000910541F451119EC0772309F49EC085E35C
:100CB00090E008958832910531F4772309F495C0C6
:100CC0008AE290E008958433910529F471118FC070
:100CD00084E392E008958D3222E0920721F4772395
:100CE00009F483C008958E32910521F4772309F425
:100CF0007CC008958F32910531F4772309F475C0D3
:100D000086E392E008958033910531F4772309F466
:100D10006CC087E392E00895863222E0920731F4B6
:100D2000772309F462C08FE292E00895873222E0CF
:100D3000920731F4772309F458C080E392E00895D4
:100D4000843222E0920731F4772309F44EC082E026
:100D50009EE70895813322E0920731F4772309F466
:100D600044C081E09EE708958633910529F47723F6
:100D7000E1F18EE192E008958733910529F477231C
:100D8000A1F188E392E008958833910529F477234F
:100D900061F181E390E008958A34910529F44423B8
:100DA00021F18BE490E008958D34910529F44423DA
:100DB000E1F08EE490E008958632910529F47723DE
:100DC000A1F085E392E008958D32910529F477230F
:100DD00061F087E590E0089581159E4731F488E23F
:100DE00092E108958BE290E0089590E080E008950C
:100DF0002130310561F4833E910531F0823E910549
:100E000031F48EE690E008958DE690E0089590E04C
:100E100080E0089581302EE7920751F082302EE76E
:100E2000920749F083309E4749F481ED91E008959F
:100E30008BEC91E008958EEC91E0089580ED91E0C7
:100E400008958430B8F46430A8F44C3098F450E03D
:100E50009CE0699F400D511D1124FA0190E3899F88
:100E6000E00DF11D1124EE0FFF1FE455FF4F85919A
:100E70009491089581E090E008950E9421070895DB
:100E80009C013A9521153F4150F5FC01EE27F17088
:100E9000BC0166277270AC01442754709C01222764
:100EA000387094FF0EC080E1EF2B09F480E0672BCF
:100EB00009F08062452B09F08064232B89F080685B
:100EC000089581E0EF2B09F480E0672B09F0826040
:100ED000452B09F08460232B19F08860089580E089
:100EE0000895CF93DF93EB010E944007FE0109951F
:100EF000DF91CF910895CF93DF93EC01805E91094C
:100F0000089720F062E17CE0209711F464ED79E02D
:100F1000CE010E9471078C2F0E943309DF91CF917F
:100F20000895CF93DF93EC010E948009CE01805E8B
:100F30009109089720F069E17CE0209711F46BEDAE
:100F400079E0CE010E947107DF91CF91089581E091
:100F500008950E94A707089581E008950E9423063E
:100F6000089508950E94B1070895A6E0B0E0EBEB64
:100F7000F7E00C94742F49835A839E8330916F025B
:100F800089819A8131111AC03E81332399F022233D
:100F900089F00E94820D182F682F89819A810E9402
:100FA0005E0D69817A81812F0E94C7142696E3E045
:100FB0000C94902F0E94700D182FF3CF0E94820D79
:100FC00069817A81F1CFFC01262F408151816281B4
:100FD0007381848195810E94B5070895CF93DF9333
:100FE000EC0161E00E94E307BE010E94A907DF91C6
:100FF000CF910895CF93DF93EC0160E00E94E30767
:10100000BE010E94B207DF91CF91089508950E941A
:10101000360C0E9406082FEF84E39CE021508040AC
:101020009040E1F700C0000008950E9407080E9468
:10103000142508950E9407080E94382508950F93EB
:101040001F93CF93DF938C0161E00E94E307EC01D3
:10105000B8010E94AE07811106C080E0DF91CF91F8
:101060001F910F910895B801CE010E94502288234C
:10107000A1F3B801CE010E941420882371F3B801B6
:10108000CE010E94B721882341F3B801CE010E940E
:10109000911F882311F3F8018581882361F0C33003
:1010A000FCE7DF07E9F058F4C115ECE7DE07A9F02B
:1010B000C130DC47B9F0C8010E94AC07CFCFCB35B7
:1010C0008CE7D807A9F0CC35ECE7DE0771F0CA351C
:1010D000DC4789F70E940512EECF0E941508BDCFAC
:1010E0000E940D120E941A08B8CF0E94FB11E3CF94
:1010F0000E940912E0CF0E9429240E94ED1C0E9448
:10110000CE0881E00E94101E08950E94D20880E05F
:101110000E94101E0E942E240895292F332740E09C
:101120002115310511F0C90148E09C0164E03695B4
:1011300027956A95E1F72115310511F04C5FC9013A
:101140009C0136952795369527952115310511F087
:101150004E5FC90196958795892B09F04F5F842FC3
:101160000895089581E008950895CF93DF93D82FCF
:101170000E94B208C82F882319F08D2F0E94B4084E
:101180008C2FDF91CF9108950895CF93C82F0E949F
:10119000B1088C2F0E94B508CF91089580E00E947D
:1011A000C50808950E9499220E94C5080895CF930A
:1011B0000E949922C82F80916A028C1779F0C093FF
:1011C0006A020E94B92460936B0270936C02809350
:1011D0006D0290936E028C2F0E94C508CF910895E6
:1011E000ADE0B0E0E6EFF8E00C94752F4887598742
:1011F0006A877B878C879D8791110E9430111F829F
:1012000086E0FE013896DE01119601900D928A95D6
:10121000E1F78D8181110DC029813A814B815C817B
:101220006D817E818F810E945D102D96E2E00C948D
:10123000912FCE0101960E94EE078111EDCFF5CFDF
:10124000FC012481213021F4808191810E94B40D20
:101250000895662329F00E94FA170E94CD18089578
:101260000E945418FACFCF93C82F8823B9F08CEF7F
:101270008C0F813AA8F46C2F8091AF019091B0014E
:101280000E942C23882329F08C2F0E94EA100E94B0
:101290006C118C2F0E94E2100E946C11CF91089566
:1012A00080E28C0F883048F4C77081E001C0880F5D
:1012B000CA95EAF70E940D11EFCFEBE5EC0FE33092
:1012C00040F4F0E0E65FFD4F808190E00E94CE2286
:1012D000E5CFE8E5EC0FEB3150F4F0E0EE0FFF1F47
:1012E000EC52FE4F808191810E94F322D7CF83E39D
:1012F0008C0F833198F661E08C2F0E942909CECFA4
:10130000882381F19CEF980F913A28F40E94EA100B
:101310000E946C11089590E2980F983050F48770F5
:1013200091E001C0990F8A95EAF7892F0E94131165
:10133000EFCF9BE5980F933028F490E080E00E9477
:10134000CE22089598E5980F9B3128F490E080E034
:101350000E94F322089593E3980F933118F460E00C
:101360000E94290908951F93CF93DF93182FEB0153
:101370000E943309209739F4812F0E948009DF9160
:10138000CF911F9108958FE99FE00197F1F700C079
:1013900000002197EFCF70E060E0893311F460E541
:1013A00070E00E94B3090895882321F00E940D1176
:1013B0000E946C110895882321F00E9413110E944D
:1013C0006C110895B0E0A0E0E8EEF9E00C946E2F07
:1013D0006C01D62FC72FFC011581068102950F7075
:1013E0000E940311E82E8823E9F0E12E1123D1F0A9
:1013F0008C2F807F803451F080E28D0F8830F8F0A0
:10140000011104C08C2F807E8032C9F0809194033A
:1014100082FF15C082E00E94CF110E94031191E06B
:10142000E82EE926BC2EB2949FE0B922FBE0FB1522
:10143000B8F1EB2DF0E0EA5FFF4C0C945F2FE12C4C
:10144000F1CF0C2F0F70C07F11F00295007F112398
:1014500099F0002359F080E28D0F883010F0D111FF
:1014600007C0802F0E940D110E946C118D2F5AC051
:10147000802F0E942311F8CF8D2F0E948009002316
:1014800079F080E28D0F883010F0D11104C0802FE8
:101490000E94131103C0802F0E9429110E946C1119
:1014A000EB2DE850FF0B349720F40E9499220E9404
:1014B000C508EE2089F00E94FF1080FD0DC0F601E6
:1014C00015820E94F9100E94BC0CC6010E94EF0B0D
:1014D0000E94F9100E94CC0CCDB7DEB7E9E00C9465
:1014E0008A2F2C2F2F70F22EC07FC03219F0F29469
:1014F00080EFF822DD2341F0D130D1F1112309F43E
:1015000044C00023F1F0B2CF8091940382FD15C056
:10151000112359F0FF2029F08F2D0E940D110E94F8
:101520006C1180E00E943309BBCF80E00E948009EB
:10153000FF2009F4B5CF8F2DABCF112369F0011136
:1015400004C08F2D0E94D409ABCF013009F0A8CF81
:101550008F2D0E944A11A4CF0111A2CF8F2D0E947E
:10156000DB098F2D0E9456118F2D0E943A1198CFC2
:10157000112321F0063008F093CFE3CF053008F0B7
:101580008FCF8F2D0E94DB098BCF0023D1F3D9336E
:1015900049F43FEF87EE93E0315080409040E1F70F
:1015A00000C000008D2F0E9480097ACF8C2F869575
:1015B0008695837069F0813009F072CF8D2F9C2F52
:1015C0009370111102C080E090E00E94F32268CF76
:1015D0008D2F9C2F9370111102C080E090E00E942B
:1015E000CE225ECF612F8D2F0E94290959CF8C2FDB
:1015F0008370A1F5111154CF4D2F42954695477038
:10160000440F440F2D2F2F7030E0042E02C0220F04
:10161000331F0A94E2F790E080E0D4FF09C08FE026
:1016200090E002C0880F991F4A95E2F78095909547
:10163000C695C695C370822B932BC23049F058F4DF
:10164000C13019F00E948F0C2BCF0E94860C28CF3E
:101650000E94980C25CF0E94830C22CF86951123DF
:1016600011F08C2F8170882309F41ACF4D2F4295E9
:1016700046954770440F440F2D2F2F7030E0042EF5
:1016800002C0220F331F0A94E2F790E080E0D4FFFB
:1016900009C08FE090E002C0880F991F4A95E2F7D9
:1016A00080959095C695C695C370822B932BC230BA
:1016B00049F058F4C13019F00E94F70CF1CE0E94A5
:1016C000EE0CEECE0E94000DEBCE0E94A40CE8CEF4
:1016D000CF70112329F08C2F0E94BC0C8D2F32CF9C
:1016E0008D2F0E94DB098C2F0E94CC0CD9CED23FCB
:1016F00041F160F4D03FB9F0D13F81F0112309F4FA
:1017000046C00111B3CE8C2F8F711FC0D33F01F1A2
:10171000D43FA1F78091940382FD24C08C2F8F7158
:10172000112311F312C0112341F0053008F0B8CE97
:101730008C2F8F710E94DE0CB3CE063008F0B0CE35
:10174000F7CF8C2F8F711111CFCF0E94BC0CA8CE78
:10175000112329F08C2F8F710E94B00CA1CE0E9412
:10176000AB0C9ECE112349F0CF718C2F0E94BC0C84
:1017700063E08C2F0E94B11193CE81E00E94CF11C3
:10178000023008F48DCE82E00E94CF1189CE002372
:1017900059F0D93309F006CFEFEFF7EE23E0E1502F
:1017A000F0402040E1F7FCCE8C2F8F719DCF0F933E
:1017B0001F93CF93DF93EC01688179818D810E9423
:1017C000BF0D8C010E94090D0E94820CB801CE0150
:1017D0000E94E209DF91CF911F910F910895CF935D
:1017E000DF93EC018C81882399F0CE010E941F08C1
:1017F000811111C00E940311882351F08D8188232B
:1018000039F08091940382FF03C082E00E94CF11DF
:10181000DF91CF910895CE010E94D70BCE010E9497
:10182000FA07F6CF882321F00E9423110E946C1141
:101830000895882321F00E9429110E946C110895B7
:1018400090E080E00E94CE2290E080E00E94F322AF
:101850000E9430110E946C110E94E9180E94CD185C
:1018600008950E94F2100E94200C08950E941D11FC
:101870000E94310C089592959F70963091F058F423
:10188000925F9F70923058F4803F19F030F4883E98
:1018900030F481E008959A5FF4CF843FD1F380E083
:1018A0000895883EB0F3813FD1F7F3CFFC01248146
:1018B000222339F0808191810E94B40D0E943B0C5B
:1018C000089580E00895A6E0B0E0E9E6FCE00C941D
:1018D000752F2696E2E00C94912FA7E0B0E0E3E7A5
:1018E000FCE00C94752F2796E2E00C94912F08955C
:1018F0000E94770C08950E94780C90938B0280933D
:101900008A02089508950E947B0C089520918A020E
:1019100030918B02822B932B0E947B0C0895209197
:101920008A0230918B02822393230E947B0C0895BC
:1019300020918A0230918B02822793270E947B0C90
:1019400008950E94AA0508950E94A10C909389020F
:1019500080938802089590E080E00E94A40C08958E
:1019600021E030E0A90102C0440F551F8A95E2F73B
:10197000CA010E94A40C089521E030E002C0220FA9
:10198000331F8A95E2F78091880290918902822B19
:10199000932B0E94A40C089521E030E002C0220F96
:1019A000331F8A95E2F720953095809188029091B7
:1019B0008902822393230E94A40C089521E030E041
:1019C00002C0220F331F8A95E2F78091880290911E
:1019D0008902822793270E94A40C089520918802EF
:1019E00030918902822B932B0E94A40C08952091A0
:1019F000880230918902822393230E94A40C0895C7
:101A00002091880230918902822793270E94A40C9A
:101A100008950895262F277091E001C0990F2A9507
:101A2000EAF723E0769567952A95E1F7660F771F29
:101A3000660F771FFA01E60FF71F50E040E0682FAE
:101A400070E08191DF0111979B01042E02C0369551
:101A500027950A94E2F72170219528272923282722
:101A60002C934F5F5F4F4430510559F70895A82FCD
:101A7000A77023E0969587952A95E1F7880F991F1F
:101A8000880F991FFB01E80FF91F50E040E080E04C
:101A9000219130E00A2E02C0369527950A94E2F78C
:101AA00021703327042E01C0220F0A94EAF7822BFB
:101AB0004F5F5F4F4430510559F70895262F9430FA
:101AC00070F48C3060F4682F70E08CE0989F600DAB
:101AD000711D112440E752E0822F0E940A0D0895E3
:101AE000292F943068F48C3058F490E060E772E06D
:101AF0003CE0239F800D911D11240E94370D089515
:101B000080E00895B0E0A0E0E8E8FDE00C946E2FDE
:101B10007C01009188021091890280918A02909143
:101B20008B02082B192BCFE0D0E0CC24C394D12C0E
:101B3000BC2EC6010C2E02C0880F991F0A94E2F732
:101B400080239123892B49F4219790F7B12C8B2D79
:101B5000CDB7DEB7E9E00C948A2FB7018C2F0E9435
:101B6000D314019789F3F3CFCF93DF93EC010E9455
:101B7000820DBE010E94D314DF91CF9108951F936F
:101B8000CF93DF93EB0190916F02992339F0CB0152
:101B90000E94B40DDF91CF911F910895882369F0C1
:101BA000CB010E94820D182F682FCE010E945E0D7E
:101BB000BE01812F0E94D314EDCFCB010E94700D86
:101BC000182FF6CF1F93CF93DF93C0918C0217E0AD
:101BD00080918D028C1304C0DF91CF911F910895E5
:101BE000D0E01C9FF0011D9FF00D1124E257FD4F26
:101BF00020813181428153816481758186810E9477
:101C00006D0C2196C770E4CF2091C6023091C702B7
:101C10004091C8025091C9026091CA027091CB02F2
:101C20008091CC020E946D0C0895482F20918C0267
:101C300090918D0257E0291302C080E0089530E0B2
:101C4000529FF001539FF00D1124E257FD4F818107
:101C5000681306C08081481303C085818111EECFCF
:101C60002F5F3F4F2770E7CFB0E0A0E0EAE3FEE050
:101C70000C94702F8091CC02807F09F054C0809129
:101C8000CB02882309F44FC0E0918C0287E0D82E64
:101C900080918D028E1709F446C00E2F10E0ED9D45
:101CA000F0011124E257FD4F8481882309F440C0DC
:101CB000D09EE001D19ED00D1124FE01E257FD4FD0
:101CC00091818091C702981333C090818091C602A0
:101CD00098132EC0858181112BC0E280F380809102
:101CE000C8029091C902E81AF90A60E086EC92E015
:101CF0000E94E30766EC72E00E943E06E816F906D1
:101D0000B8F48091CC028F7080618093CC02CC5665
:101D1000DD4F88818F708061888386EC92E00E941D
:101D2000EF0B0E94E20DCDB7DEB7E7E00C948C2FED
:101D3000F8013196E770ACCFA4E1B0E0E2EAFEE052
:101D40000C94682F8C0186E0F801DE011F9601904B
:101D50000D928A95E1F7F801F480E58086EC882EF3
:101D600082E0982E8091CA02811126C0F11007C02E
:101D7000FF24F3948F2D6496EFE00C94842FEE20D3
:101D8000B9F0C8010E94560CF82E882389F087E02C
:101D9000F801A6ECB2E001900D928A95E1F786EC8D
:101DA00092E00E9420090E94340E0E94040EE2CFAD
:101DB000C8010E94EF0BDCCF5080A180C280D3808D
:101DC000B090CB028091C8029091C9023601681A86
:101DD000790A60E086EC92E0BB2009F408C10E9419
:101DE000E30766EC72E00E943E066816790608F08A
:101DF000ABC0FF2009F4BCCF8091CC02382F307FDC
:101E00002091C702F801918131115AC0FE2C29138B
:101E100016C02091C6029081291311C0E11049C05B
:101E20008F7080618093CC020E94040E86EC92E059
:101E30000E94EF0B8091CC02F80186839BCFE110CA
:101E400038C06A2D852D0E94150E6A2D852D0E94A1
:101E5000150EE82E81118ECF5F86A88A8F8598890E
:101E60000E94B40D292F22952F70243058F49F70B2
:101E7000223088F0992399F0F8019681907F79F4C7
:101E8000FE2C78CF2A5F2F70223068F0C8010E94A4
:101E9000EF0BEB2CF5CF992311F0882389F3805EAB
:101EA000883070F3F3CF803F58F3815F833070F751
:101EB000E7CF8091CC0281608093CC02F12C5ACF85
:101EC000291317C02091C6029081291312C0E11076
:101ED00010C08683C8010E94EF0B87E0F801A6ECD2
:101EE000B2E001900D928A95E1F70E94040EFB2C5E
:101EF00041CFC8010E94560C882309F459CFEE2027
:101F000009F456CF8091CC02803288F02091C6022D
:101F10003091C70239872887DB86CA869091CA022A
:101F20009C871D868E87CE0108960E94EF0B87E066
:101F3000F801A6ECB2E001900D928A95E1F70E94BB
:101F4000340E0E94040E14CF8091CC02982F907F03
:101F5000B1F46C2DDA8AC98A452D5A2D7A898F2DD4
:101F60009E2D0E94630C86EC92E00E94EF0B87E0AE
:101F7000F40111928A95E9F70E94040E9FCFFF2089
:101F800009F4F6CE2091C702F8019181291311C0FE
:101F90002091C602908129130CC0E1100AC08683EB
:101FA000C8010E94EF0B87E0F40111928A95E9F7CE
:101FB0009ECFC8010E94560C882309F4F9CEEE206A
:101FC00009F4F6CE8091CC02803208F4B0CF209193
:101FD000C6023091C7023A832983DC82CB8290917A
:101FE000CA029D831E828F83CE0101969ECF0E94DE
:101FF000E30766EC72E00E943E066816790608F078
:1020000051C0FF2009F4B4CEFE2CEE2009F4D0CE4E
:102010009091C702F8018181981336C09091C60251
:102020008081981331C08091C8029091C902C81A6A
:10203000D90AF8ECCF16D104F0F49091CC0290FDBF
:102040001AC0907FC1F08091CC02F8018683903F46
:1020500031F0982F907F905F8F70892B8683C80115
:102060000E94EF0B87E0F801A6ECB2E001900D9220
:102070008A95E1F79ACE87E0F801A6ECB2E00190EC
:102080000D928A95E1F776CEC8010E94560C811117
:102090004ECF8091CC0281608093CC02C8010E9417
:1020A000EF0B68CE6C2DDA8AC98A452D5A2D7A89B4
:1020B0008F2D9E2D0E94630C5ACFAEE0B0E0E3E678
:1020C000F0E10C94742F288739874A875B876C87E7
:1020D0007D878E87CE0108960E949C0E8823B1F0E2
:1020E0006C85662341F0288539854A855B857D8529
:1020F0008E850E946D0C17E080918C0290918D026C
:1021000089133DC02E96E3E00C94902F87E0FE01EA
:102110003896DE01119601900D928A95E1F78C8533
:10212000882349F320918D0230E0C9010196877020
:10213000992740918C024817190699F097E0929FD1
:10214000D001939FB00D1124A257BD4FFE013196CF
:1021500001900D929A95E1F780938D020E94E20D15
:10216000CACF0E94360C10928D0210928C0287E02A
:10217000E6ECF2E0DF011D928A95E9F7BCCF819F82
:10218000C001112482579D4F0E949C0E882309F4A0
:10219000B9CFE0918C021E9FF0011124E257FD4F50
:1021A00020813181428153816481758186810E94C1
:1021B0006D0C80918C0290E0019687709927809336
:1021C0008C029ACF682F8091AF019091B0010E944C
:1021D000AC230895682F8091AF019091B0010E94C7
:1021E000BA2308958091AF019091B0010E94C82355
:1021F00008958091ED028695869586950895809143
:10220000ED02877008959091ED02977081E009F4D6
:1022100080E0089580911103089590911103892B16
:1022200080931103089580959091110398239093C2
:1022300011030895809311030895109211030895D6
:1022400080911003089590911003892B80931003BF
:10225000089580959091100398239093100308950A
:102260001092100308958091EF02089508950E943E
:10227000361108959091EE02292F282331F0809590
:1022800089238093EE020E943711089508950E94D9
:10229000461108959091EF02292F2823281729F03D
:1022A000982B9093EF020E94471108959091EF02AE
:1022B000292F282331F0809589238093EF020E94F3
:1022C000471108958091EF02882329F01092EF02C0
:1022D00080E00E9447110895CF93DF93E091AF0112
:1022E000F091B001809111038083E091AF01F091F2
:1022F000B001808190911003892B80839091EF022F
:10230000992381F0E091AF01F091B0018081892B98
:1023100080838091AF019091B0010E9418238111B8
:102320000E946211C091AF01D091B00140E250E033
:102330006DEC72E0CE010E949C2F892B59F080E257
:10234000FE01ADECB2E001900D928A95E1F7CE016D
:102350000E94A622DF91CF91089508950E94AD11A9
:1023600008959091940392FF11C098E0899F900185
:102370001124622B6093ED020E94BC0C8091ED024F
:102380008695869586950E94AE1108950E94BC0C94
:1023900008951092ED0280E00E94AE110895909190
:1023A000ED02809589238093ED02282F277069F430
:1023B000891759F09091940392FF07C086958695EE
:1023C00086950E94CC0C0E94C911089590919403A7
:1023D00092FB222720F9281769F080FB92F990934D
:1023E000940380919303909194030E942E1282E0B3
:1023F0000E94CF1108958091940382FB882780F971
:1024000091E089270E94E611089581E00E94E6117B
:10241000089580E00E94E61108956FEF7FEF90E04D
:1024200080E00E94FE2F089590E080E00E94CA2F75
:1024300021E0863E9E4F09F020E0822F089582E041
:1024400090E00E94C22F089583E090E00E94C22F86
:10245000089584E090E00E94CA2F0895BC0184E0B2
:1024600090E00E94FE2F0895AB01BC018FE090E048
:102470000E94F22F0895AB01BC0183E190E00E941D
:10248000F22F089560E070E0CB010E943B120895A6
:1024900060E070E0CB010E9434120E944212089565
:1024A000A8E0B0E0E6E5F2E10C94752F66EE7EEF71
:1024B00090E080E00E94FE2F60E082E090E00E94C9
:1024C000E02F60E083E090E00E94E02F10928B020A
:1024D00010928A0260E074E184E090E00E94FE2F96
:1024E00060E086E090E00E94E02F6FEF87E090E0F0
:1024F0000E94E02F40E050E0BA0188E090E00E94A6
:10250000F22F60E084E290E00E94E02F60E087E13B
:1025100090E00E94E02F60E08CE090E00E94E02FCD
:1025200060E08DE090E00E94E02F19821A821B8209
:102530001C821D821E821F82188648E050E068E1DE
:1025400070E0CE0101960E94D02F40E050E0BA0129
:1025500080E290E00E94F22F0E9448122896E2E06A
:102560000C94912F0E9450120895682F8EE090E0F5
:102570000E94E02F0895A6E0B0E0E1ECF2E10C94B7
:10258000732F0E94AD248C0180911203909113034C
:102590008017910781F019821A820E94AD24682F5A
:1025A00049815A81792F80E090E00E94F0081093D1
:1025B0001303009312032696E4E00C948F2F0E94DD
:1025C000B924609320037093210380932203909396
:1025D000230360931C0370931D0380931E03909349
:1025E0001F030895089508950E94F21208950E940D
:1025F0002006089589EC95E10E9470170E94F3125D
:102600000E94F412089581E008950E940313089532
:102610000E9403130895089508950E940B130E94C9
:102620000C1308950E94E8150E94C4080E94A91D79
:1026300008950E94A4240E94C4160E941213E3E984
:10264000F3E080818068808380919303909194036C
:102650000E942E120E94F7120895A6E0B0E0E3E374
:10266000F3E10C94692F0E94051381110CC00E94A4
:10267000BB120E94ED1C0E940B190E94D7082696DF
:10268000EEE00C94852F0E94DA1624E1822E23E0DE
:10269000922E640110E0F601E190F1906F01812F1C
:1026A0000E940E161F5F143009F44EC0E816F9069A
:1026B00091F38091240381FD0E9417160E94081354
:1026C000682E10E0812F0E940E167C01F401A1906B
:1026D000B1904F018A159B0589F1A826BF2400E01F
:1026E000CC24C394D12CC5018C219D21892BE9F0E8
:1026F00077247394C7018C219D21892B09F4712CB7
:10270000662071F009831A830E94AD24682F8B83A1
:102710009C8349815A81792F81E0972D0E94F0088E
:10272000472D602F812F0E94E91B0F5FCC0CDD1C11
:102730000C30C9F6F4013297F182E0821F5F143049
:1027400009F60E94DF1295CFE816F90609F0B1CF1D
:102750008ECF1F93CF93DF930E94D814EC01C11545
:1027600080E5D807F0F5C11580E4D80708F09CC0D3
:10277000C03ED10520F5CD3CD10508F082C0C83A55
:10278000D10578F4C53AD10508F073C0C130D10540
:1027900019F1209709F1C430D105F0F4D0E0C0E080
:1027A0001BC0C33CD105D0F7C85AD0E0CC0FDD1F09
:1027B000C35FDD4F0990D881C02DD4640DC0C11511
:1027C00080E2D80708F0D1C0C11581E0D80708F031
:1027D0005AC0C83ED10510F7CE01DF91CF911F91AD
:1027E0000895C03682E5D80718F5C03482E5D807C9
:1027F00008F06BC0C03282E5D80708F05FC0C11591
:1028000082E5D80708F497C02C2F2695269580E2FC
:10281000289F900111248C2F8370C1E0D0E002C06A
:10282000CC0FDD1F8A95E2F7C22BD32BDD68D4CF06
:10283000C03A82E5D80760F4C03882E5D80708F4CA
:1028400059C0CF71D0E0DC2FCC27C46FD06AC4CF81
:10285000C03C82E5D80708F462C0C03E82E5D807D4
:1028600008F09CCFDC2FCC27CC27DF71C06FD06A5B
:10287000B3CFC55AD0E0CD5BDD4FC881D0E0D06486
:10288000ABCFD065A9CF8D2F0E947A15182FCE011E
:1028900099270E94D814C12FD0E0DC2FCC27CC2759
:1028A000DF71C82BD92B98CFCE0199270E94D8145D
:1028B000CC27DF70C82BD92BD06A8ECFCF71D0E058
:1028C000DC2FCC27C16FD06A87CF2C2F2695269579
:1028D000277080E2289F900111248C2F8370C1E023
:1028E000D0E002C0CC0FDD1F8A95E2F7C22BD32BBC
:1028F000DC6872CF2C2F26952695277080E2289FC2
:10290000900111248C2F8370C1E0D0E002C0CC0F65
:10291000DD1F8A95E2F7C22BD32BDA685DCF8C2FAF
:102920008F710E947A15C82FD0E0DC2FCC27CC27DE
:10293000DF71D06251CF8C2F8F710E947A1555E0D4
:10294000D695C7955A95E1F7CF70D0E0DC2FCC270C
:10295000282F30E084FF05C044E0220F331F4A9542
:10296000E1F7C22BD32BD06937CF8D2F8F710E9407
:102970007A15182FCE0199270E94D814C12FD0E0C4
:10298000DC2FCC27CC27DF71C82BD92BD2CF462FF9
:10299000743030F46C3020F4672F0E943D070895A6
:1029A00090E080E008950E94C7140E94A913089542
:1029B00082389105B9F1B0F48133910509F47DC0F5
:1029C00048F48932910509F46DC08A32910509F401
:1029D0007BC008958533910509F45FC08933910563
:1029E00009F10895833E9105D9F138F4803E9105AF
:1029F00029F1823E910579F10895863E9105D9F13C
:102A0000873E910509F43EC0843E910541F5209131
:102A1000940321FF24C08091930384FD19C087EEA5
:102A200090E0089520919303237009F05AC02091FB
:102A3000940323FF14C089E290E00895209193034A
:102A400020FD38C03091940330FF09C024FF43C0FB
:102A500090E080E008952091930322FDF7CF089540
:102A60002091930322FD3AC03091940330FD39C088
:102A700024FFF5CFEDCF2091930323FFF0CF24FD6A
:102A8000E7CFCDCF2091930323FD2EC03091940347
:102A900031FFEECF84EE90E008952091930325FF5F
:102AA000DECFC9CF2091930325FD21C0209194034F
:102AB00023FFD5CF89E390E0D2CF2091930326FF67
:102AC000CECF8AE290E008952091930326FFC7CFEE
:102AD00081E390E0089583EE90E0089582EE90E027
:102AE000089580EE90E0089586EE90E0089585E3E5
:102AF00090E008959091930392FF10C041E0282F39
:102B00002471243009F040E031E0282F287128306A
:102B100009F030E0431711F02CE0822793FF10C03A
:102B200041E0282F2471243109F040E031E0282FC2
:102B30002871283109F030E0431711F02CE082278A
:102B40003091940330FF10C051E0282F21712130C3
:102B500009F050E041E0282F2871283009F040E0CA
:102B6000541711F029E0822731FF10C041E0282FCF
:102B70002171213109F040E031E0282F28712831FE
:102B800009F030E0431711F029E0822794FD877E99
:102B9000089580E008950E940D1208950E94DA16AB
:102BA0002FEF86E791E0215080409040E1F700C090
:102BB00000000E94DA1680E00E940E1680FF04C01A
:102BC0000E94CB150E94142508950E94CE150895E9
:102BD0000E941412811102C00E94B2120E941F12A0
:102BE000809324030E94291290939403809393036B
:102BF0000E94E5150E94241290E00E94830C8091AF
:102C00008802909189020E94A10C089508950E9463
:102C10000616089508950E940A160895E82FF0E018
:102C2000EE0FFF1FE356FC4F8081918108950895B8
:102C300080EA8A95F1F7089500C008950E94181659
:102C40000895F894E82FE295EF70F0E031A1282F75
:102C50002F7081E090E001C0880F2A95EAF7982F45
:102C60009095932391A392A1892B82A378940895A0
:102C7000CF93DF9385E90E94211686E60E942116F4
:102C800086E30E94211686EC0E942116C6E4D2E05B
:102C900089918F3F11F00E94211682E0C235D8073A
:102CA000B9F7DF91CF910895AF92BF92DF92EF9283
:102CB000FF920F931F93CF93DF938C01D62EC62FD5
:102CC000D0E0CE018E5A9D4F7C01FC0120812F3F28
:102CD00009F44DC0F894E22FE295EF70F0E031A1D5
:102CE0002F7081E090E001C0880F2A95EAF7932FBA
:102CF000982B91A392A18095892382A378940E9416
:102D00001C16E6E4F2E042E552E021E030E0B12CAE
:102D1000A12C61916F3FA9F1A62FA295AF70B0E0F1
:102D200090968C9190E06F7002C0959587956A950A
:102D3000E2F780FD26C0C901A82AB92A220F331F55
:102D40004E175F0731F7F70180818F3F11F00E9426
:102D5000211661E0A114B10409F460E08D2D0E94F8
:102D60001E16CC0FDD1FC00FD11FB982A882DF91C4
:102D7000CF911F910F91FF90EF90DF90BF90AF9098
:102D8000089590E080E0D8CF0E94381688E0EDE901
:102D9000F3E0DF01982F1D929A95E9F7E5E9F3E05A
:102DA000DF011D928A95E9F784E00E9415170E94C1
:102DB00007160895A8E0B0E0E0EEF6E10C94722F5B
:102DC0008E010F5F1F4F88E0F80111928A95E9F795
:102DD000F12C6F2DC8010E945416F394F4E0FF12F9
:102DE000F8CF48E050E0B80185E993E00E949C2FBD
:102DF00021E0009709F420E0892B41F088E0F801F8
:102E0000A5E9B3E001900D928A95E1F744E06DE900
:102E100073E085E993E00E941617182F0E940B16A5
:102E2000812F2896E5E00C948E2F0895CF92DF92A3
:102E3000EF92FF921F93CF93DF936C017B01C42F1E
:102E4000222349F081E0809327030E94AD249093D0
:102E50002603809325031091270311110AC010E067
:102E6000812FDF91CF911F91FF90EF90DF90CF9056
:102E7000089580912503909126030E94C52405970B
:102E800070F3D0E0CC0FDD1FAE01B601C7010E9488
:102E90009C2F892B41F0AE01B601C7010E94A92FDA
:102EA00010922703DDCF10E0FBCF0E94AD260E94D9
:102EB00019130E94BA2608950E94BF260E942D135E
:102EC0000E94D92608950E9446240E9493260E94BB
:102ED000FA120E9455170E945C170E940D13FBCF37
:102EE00090935F0280935E020895282F35EB2303B1
:102EF000C001112497FF04C080589109892F0895BB
:102F000080589F4FFBCF80912E0380FF0DC06091B2
:102F1000B60170E0660F771F6038710570F56115B6
:102F2000710569F1862F089581FF07C06091B60190
:102F300084E0689FB0011124EFCF6091B60182FD5B
:102F40000AC080912D038823A9F02091B5016091DA
:102F5000B601821710F088E0ECCF869FC0011124E3
:102F600033E0880F991F3A95E1F7622F70E00E94D5
:102F70000A2FD2CF68E070E0D5CF8FE7089581E0C7
:102F8000089580912E0380FF0CC06091B20170E023
:102F900075956795759567956115710549F1862F4A
:102FA000089581FF06C06091B20170E07595679544
:102FB000F3CF6091B20182FD0BC090912C03992355
:102FC000A1F06091B1018091B201961738F0682F9D
:102FD00070E06038710500F38FE70895899FC001A4
:102FE000112470E00E940A2FF4CF61E070E0D7CF87
:102FF00081E008958D3C31F40E9483178195809380
:10300000320308958E3C19F40E948317F8CF8F3C49
:1030100031F40E9483178195809331030895803D98
:1030200019F40E948317F8CF893D29F40E94C11733
:103030008093330308958A3D21F40E94C11781953E
:10304000F7CF8B3D31F40E94C117819580933403F3
:1030500008958C3D19F40E94C117F8CF9FE2980F94
:10306000983070F4815D990B21E030E001C0220FAF
:103070008A95EAF780913003822B8093300308957C
:103080008D3D31F480912E03816080932E0308954D
:103090008E3D21F480912E038260F7CF8F3DB9F7EA
:1030A00080912E038460F1CF409131038D3C59F41F
:1030B0008091320387FF0DC01092320341110BC083
:1030C00010922D0308C08E3C81F4809132031816B3
:1030D0009CF3442381F08091330390913403892B36
:1030E00009F05AC010922C0308958F3C49F447FF11
:1030F000F0CF10923103809132038111ECCFE0CFF9
:10310000803D19F41416ACF3E4CF90913303893D5C
:1031100029F41916F4F610923303DBCF8A3D19F423
:1031200097FFD7CFF8CF909134038B3D29F497FFC9
:10313000D0CF10923403CDCF8C3D19F41916CCF3B7
:10314000C8CF9FE2980F983090F4815D990B21E0F1
:1031500030E0B90102C0660F771F8A95E2F7CB0114
:10316000809590913003892380933003B2CF8D3DB9
:1031700031F480912E038E7F80932E03AACF8E3D53
:1031800021F480912E038D7FF7CF8F3D09F0A1CFE1
:1031900080912E038B7FF0CF08950E94AD249C0177
:1031A0009091310380913203982B21F030932B03BF
:1031B00020932A039091330380913403982B21F0BC
:1031C00030932903209328038FE293E00E94C022CA
:1031D000089586E0EFE2F3E0DF011D928A95E9F7BA
:1031E00010922D0310922C0310922E030895FC01CF
:1031F000828181110EC0838181110BC08481811174
:1032000008C091E08581811101C090E0892F817013
:10321000089581E0FCCFA6E0B0E0E1E1F9E10C9493
:10322000742F86E0EFE2F3E0DE01119601900D923B
:103230008A95E1F710923103109232031092330312
:10324000109234038B819C81892B89F080912A0311
:1032500090912B030E94C524AC0190912D039923DA
:10326000C9F18091B7018417150608F440C08D811B
:103270009E81892B91F080912803909129030E94CF
:10328000C524AC0190912C03992309F46AC0809164
:10329000B3018417150608F472C0BE016F5F7F4F3B
:1032A0008FE293E00E94DA23811105C08FE293E060
:1032B0000E94F71881110E94CD1886E0FE01319618
:1032C000AFE2B3E001900D928A95E1F72696E3E034
:1032D0000C94902F2091B8018AE0289F900111242E
:1032E0002417350720F69F5F90932D0302C09F3F60
:1032F000D1F71B81112359F00E9483179FEF1116FC
:103300000CF491E0899F802D1124809331031C815E
:10331000112359F00E9483179FEF11160CF491E0CE
:10332000899F802D1124809332038091310388235B
:1033300009F49DCF10913203112309F498CF0E9414
:103340007517882351F080933103812F0E947517E0
:10335000882329F0809332038ACF81E0F4CF81E083
:10336000F9CF2091B4018AE0289F900111242417FD
:10337000350708F092CF9F5F90932C0302C09F3FC8
:10338000D1F71D81112359F00E94C1179FEF11162B
:103390000CF491E0899F802D1124809333031E81CA
:1033A000112359F00E94C1179FEF11160CF491E000
:1033B000899F802D112480933403809133038823C7
:1033C00009F46BCF10913403112309F466CF0E94E6
:1033D0007517882351F080933303812F0E9475174E
:1033E000882329F08093340358CF81E0F4CF81E023
:1033F000F9CFEF92FF920F931F93CF93DF93EB01DF
:10340000E82FD1110EC0442321F0F0E0E45DFD4F20
:10341000E4916E2F7E2F8E2FCDB7DEB7E6E00C94B1
:103420008D2F0D2F10E0282F30E0442329F0245D4C
:103430003D4FF901249130E0F6E0CF9FC001112407
:10344000EFEFF0E0BF010E94F62EAB018C2F90E071
:10345000880F991FA5E5A49FB001A59F700D1124A9
:10346000861B970B982F990F980FBF01601B710B4C
:10347000629FD001639FB00D729FB00D11248B2FFE
:103480009D9FB0011124672F7727EF01C61BD70B33
:10349000BE01629FE001639FD00D729FD00D112489
:1034A0007F01E91AF108E09EB001E19E700DF09EE7
:1034B000700D1124672F7727E61BF70BE29F800121
:1034C000E39F100DF29F100D1124E12F722F423057
:1034D000510599F048F44115510569F04130510505
:1034E00081F0EB2F8D2F07C04430510569F080F03B
:1034F00046305105B1F76E2F8FCFE22F7B2F812FF2
:10350000FACFE22F7D2FF7CFEB2F822F712FF3CF42
:103510007B2F822FED2FEFCF41E00E94F919089504
:1035200030E020E0869F212D969F200D311D112433
:10353000C901089590913503892B8093350308952F
:103540001F93CF93DF93D62FC72F182FBA0190E088
:1035500080E00E94EA2C20E030E04FE753E40E9434
:10356000492C9B01AC010E943C2E9B01AC0160E008
:1035700070E080E89FE30E94D72B0E94AF2E9B0152
:10358000AC0160E070E080E89FE30E94D72B20E070
:1035900030E04FE753E40E943C2E9B01AC0160E019
:1035A00070E08FE793E40E94D72B0E94BB2C262F5C
:1035B000219F212D1124822F6D2F7C2FDF91CF9100
:1035C0001F9108950E94A01A8095089548E050E048
:1035D00068E170E085EA93E00E94D02F10923503F5
:1035E00008950E948C1A0895E5EAF3E085E080834F
:1035F0008091C8019091C901A091CA0181839283F1
:10360000A3838FE784838FEF85830E94E61A089552
:1036100080E008950F931F93CF93DF93C82FD62F89
:103620008A010E94081B9CE0C99FB00111246050D0
:103630007F4F6D0F711DFB0190819F3F29F0F801B5
:10364000E80FF11D90838F5FDF91CF911F910F9154
:103650000895E0915C02F0915D0209950895E09172
:103660005802F091590209950895B0E0A0E0EBE30B
:10367000FBE10C946D2F8C017B01FC01C08189E082
:10368000C89FC02D112429E0B22EBC0EAB2CFAE24B
:10369000FB1510F49AE2A92E2091A90331E0230F23
:1036A00008F42FEF30E050E040E06FEF7FEF80E074
:1036B00090E00E94402F6901D0E02C2FCA1550F0F5
:1036C00081E0F9E2FB1508F480E0CDB7DEB7EAE06F
:1036D0000C94892FFE01EC57FE4F8081F8019181F7
:1036E000892311F14091B1034150042E000C550B78
:1036F00047FF1CC0C6016091A90321E0620F08F4D6
:103700006FEF0E94901AAC016091A6037091A7031D
:103710008091A803F70109950E94F11A462F282FDE
:10372000672FCE010E942F1B2196C7CFFA01EF54BD
:10373000FC4F818982130AC0FA01EE0FFF1FEF547C
:10374000FC4F818D928D8C159D05A8F24150510939
:10375000CFCFB0E0A0E0EFEAFBE10C946E2F7C014C
:10376000FC01C08189E0C89FC02D112419E01C0F05
:10377000012F1B3208F00AE26091A6037091A703A3
:103780008091A8030E94F11AD62EC72EB82ED0E041
:10379000C01748F081E01A3208F080E0CDB7DEB7FC
:1037A000E9E00C948A2FFE01EC57FE4F8081F7016F
:1037B0009181892331F02B2D4D2D6C2DCE010E944E
:1037C0002F1B2196E5CFE0915A02F0915B020995FB
:1037D0000895CF92DF92FF920F931F93CF93DF93C1
:1037E000CDB7DEB728970FB6F894DEBF0FBECDBFBA
:1037F000182F062FF42E0E940313882309F44CC0BF
:10380000FF2009F457C0AE014F5F5F4F602F812F3B
:103810000E940A1BF82E0F2D10E080913603800FB6
:10382000912F911D09976CF188E090E06C01C01A0E
:10383000D10AB801695C7C4FA60187E393E00E943E
:10384000A92FB801615C7C4FA6018FE393E00E9431
:10385000A92FA601440F551FB801660F771F615BA2
:103860007C4F8FE493E00E94A92FB801695B7C4FE5
:10387000A60187E493E00E94A92F88E08F19809326
:10388000360310913603DE01119640E0842F810F3C
:10389000F41212C08093360328960FB6F894DEBF58
:1038A0000FBECDBFDF91CF911F910F91FF90DF90A1
:1038B000CF900895F12CAFCF5D91252F30E090E0AF
:1038C000BC016A5C7C4FF901EE0FFF1FE05DFE4F0B
:1038D0000081FB010183220F331FF901E050FF4FEC
:1038E00021A9FB012187518B880F991FFC01EA5CFC
:1038F000FC4F128E118E4F5FC9CFCF93C82F80918E
:10390000BD018C1339C09091A50393702091BE0125
:1039100030E081E09217130609F480E08170809313
:10392000BC018091AA039091BB01981739F0809354
:10393000BB0140E060E080E00E94E31BC13041F148
:10394000CC23E1F0C23049F1C33071F180E09091B5
:10395000BA019F5F9093BA0181110CC082E08093FD
:10396000B9018091BC01811105C0C11103C083E080
:103970008093B901CF91089581E0D0CF8091BC01AF
:10398000882329F340E060E080E00E94E31BDECF63
:103990008AEB91E00E94A91BDACF60EA7AE18AEB18
:1039A00091E00E94351BD3CF62EE7AE1F8CF0E94FE
:1039B0007305089581E008950E94DA1C0895FC01C2
:1039C000808199E0899F802D1124682F8B3208F027
:1039D0006AE289500E94DC1C08954F925F926F92B8
:1039E0007F928F929F92AF92BF92CF92DF92EF928F
:1039F000FF92CF9360915F037091600380916103A8
:103A0000909162030E94D4246B017C010E94B9242E
:103A10004B015C0180925F0390926003A09261036E
:103A2000B0926203A0913603E6E3F3E08A2F90E0C0
:103A30004FEF5FEF60E070E04C195D096E097F09A0
:103A4000A9132AC08093360380916303C0E08111DB
:103A500008C08091A503C82FC37019F0C82FC69560
:103A6000C6958091B901813009F440C0882339F1AD
:103A7000823009F44BC0833009F453C0CF91FF90DA
:103A8000EF90DF90CF90BF90AF909F908F907F90FE
:103A90006F905F904F900895218D328D2901712C88
:103AA000612C441555056605770520F481509F5F0C
:103AB0003296C6CF2C0D3D1D328F218FF8CF10923C
:103AC000BA018092AD039092AE03A092AF03B09280
:103AD000B00389E2E6E3F3E0A1EBB3E001900D92DD
:103AE0008A95E1F781E08093B901C8CF8C2F0E94BD
:103AF0007D1CCC2319F28091BA01853011F40E940B
:103B0000D71C8AEB91E00E94DF1CB8CFC093BD01A7
:103B10008091A50383708093BE010E94291B83E0DE
:103B2000E2CF8091350381110E94E61A6091AD03C6
:103B30007091AE038091AF039091B0030E94D424A2
:103B4000603171058105910508F498CF1092B90193
:103B500095CFE0915602F091570209951092B1036A
:103B60008FEF9FEF9093CB038093CA039093CD0385
:103B70008093CC039093CF038093CE039093D10393
:103B80008093D0039093D3038093D2039093D50373
:103B90008093D4039093D7038093D6039093D90353
:103BA0008093D803109236039093500380934F0371
:103BB0009093520380935103909354038093530343
:103BC0009093560380935503909358038093570323
:103BD00090935A038093590390935C0380935B0303
:103BE00090935E0380935D030E941412811104C0C0
:103BF0000E94B2120E94F41A81E08093350348E0DB
:103C000050E068E170E085EA93E00E94B22F1092E4
:103C100035038091A5038C7F11F40E94F41A089556
:103C2000CF93C82F882391F08091630381110EC038
:103C30000E947D1C1092BD018091A503837080932A
:103C4000BE010E94291B83E08093B901C0936303E6
:103C5000CF910895E5EAF3E0908121E092279083E7
:103C60001092B9010E949A1A089581E00E942A1EBA
:103C700008958091A503837011F41092B901809189
:103C8000A5038C7F81608093A50308950E94391E4F
:103C900081E00E949A1A08958091A503837011F023
:103CA0001092B9018091A5038C7F8093A50308959C
:103CB0000E944C1E81E00E949A1A08959091A503DB
:103CC000937051F0811109C094609093A5031092F4
:103CD000B901862F0E949A1A0895843010F09C60D2
:103CE000F4CF282F220F220F922BEFCF61E00E94FA
:103CF0005E1E0895682F9091A5039695969581E094
:103D0000890F843008F081E00E945E1E089581E0F2
:103D10000E947A1E0895682F9091A5039695969516
:103D20008FEF890F09F483E00E945E1E089581E001
:103D30000E948B1E08959091A503937049F0809383
:103D4000A6036093A7034093A803822F0E949A1AA8
:103D5000089520E00E949B1E0895A5EAB3E0119605
:103D6000EC911197F0E0282F13964C91139712962F
:103D70006C91CF0108960E949B1E089581E00E94DD
:103D8000AD1E0895E5EAF3E09181282F4381628119
:103D9000E92FE850FF0BCF010E949B1E089581E0A0
:103DA0000E94C21E0895E5EAF3E0628120E1620FFD
:103DB00008F46FEF9181282F4381892F90E00E94B2
:103DC0009B1E089581E00E94D31E0895E5EAF3E06A
:103DD000628120E1621B08F460E09181282F438119
:103DE000892F90E00E949B1E089581E00E94E61EAC
:103DF0000895E5EAF3E0438120E1420F08F44FEF34
:103E00009181282F6281892F90E00E949B1E089546
:103E100081E00E94F91E0895E5EAF3E0438120E184
:103E2000421B08F440E09181282F6281892F90E0A5
:103E30000E949B1E089581E00E940C1F08958093AC
:103E4000A90381E00E949A1A0895E5EAF3E024812B
:103E500030E1230F08F42FEF24830E949A1A08956B
:103E600081E00E94251F0895E5EAF3E0248130E116
:103E7000231B08F420E024830E949A1A089581E00D
:103E80000E94341F0895109264030895FC01EE0F00
:103E9000FF1FDF01A80FB91FA652BC4F11963C911E
:103EA0001197361307C03C91341304C012963C910D
:103EB000321751F031E030936403E80FF91FE652F6
:103EC000FC4F6183408322830895FF920F931F93D9
:103ED000CF93DF93182F062FF42ED0E0C0E02F2DC4
:103EE000402F612FCE010E94461F2196CA32D10574
:103EF000B1F7CDB7DEB7E5E00C948E2F8091640367
:103F0000882341F06AE270E08AED93E00E94E81FA6
:103F1000109264030895FA01811101C0FB01099513
:103F200008951F93CF93DF93EC01FB0115811111CD
:103F300010C00E940A118272FE01E052F847E5317A
:103F4000F10508F043C0EE5EFF4C0C945F2F0E9419
:103F5000351E812FDF91CF911F91089547E95EE1D2
:103F600067E87EE10E948B1FF4CF47E85EE167E9D6
:103F70007EE1F8CF4FEC5EE16EEB7EE1F3CF4EEBEE
:103F80005EE16FEC7EE1EECF45EF5EE162EE7EE159
:103F9000E9CF42EE5EE165EF7EE1E4CF4BE15FE128
:103FA00068E07FE1DFCF48E05FE16BE17FE1DACFFE
:103FB0004FE35FE160E37FE1D5CF40E35FE16FE393
:103FC0007FE1D0CF81E00E94761EC3CF11E0C1CF48
:103FD000239A45B1477F55B15860EFB7F8949B01DC
:103FE000220F331F260F371F280F391F28173907B5
:103FF00041F4EFBF8FE594E00197F1F700C00000B6
:104000000895DC016D91CD0178E055B9000000C044
:1040100067FF45B9660F000000C000C000C045B989
:1040200000C07A9591F7E2CFCF93DF93EC01FB01CB
:104030008581882309F4D2C09E013057233231058F
:1040400008F0B2C00E9429129093940380939303C6
:10405000FE01E150F047E232F10520F4E95DFF4C4A
:104060000C945F2F8091930381608093930393C09E
:10407000809194038860809394038DC08091930312
:104080008260F3CF809193038460EFCF809193039C
:104090008860EBCF809194038160EDCF8091940391
:1040A0008260E9CF809193038061DFCF8091930399
:1040B0008062DBCF809193038064D7CF0E94360C5F
:1040C000809193038068D1CF809193038C60CDCF92
:1040D000809194038360CFCF809193038E7FC5CF6F
:1040E00080919403877FC7CF809193038D7FBDCF4D
:1040F000809193038B7FB9CF80919303877FB5CF56
:10410000809194038E7FB7CF809194038D7FB3CF3E
:10411000809193038F7EA9CF809193038F7DA5CF4C
:10412000809193038F7BA1CF0E94360C80919303E3
:104130008F779BCF80919303837F97CF8091940358
:104140008C7F99CF8091930382FB992790F921E08E
:10415000922790FB82F990FB83F987CF809194039B
:10416000982F909591708E7F892B90FB81F983CF4A
:1041700090919303892F8F7B96FF806476CF0E9466
:10418000360C90919303892F97FB87F980586DCF58
:1041900081E00E94B51280919303909194030E9454
:1041A0002E120E94360C80E0DF91CF91089580E0BE
:1041B000F0CF90919303892F8F7E94FF806155CF2C
:1041C00090919303892F8E7F90FF81604ECF9091C5
:1041D0009403892F877F93FF88604DCF81E0E4CFE0
:1041E000B0E0A0E0E6EFF0E20C94702FE82FF0E0F2
:1041F000E45DFC4FD490282F26952695269530E037
:10420000F901E453FC4F0491877010E0082E02C0BE
:10421000159507950A94E2F701701127F901E45406
:10422000FC4FE490F12C082E02C0F594E7940A9418
:10423000E2F791E0E922FF24F901E455FC4FC49133
:10424000D0E002C0D595C7958A95E2F7C170DD2709
:104250000115110519F081EE0E943309E114F104F2
:1042600019F086EE0E9433098D2D0E94CB09E114CE
:10427000F10419F086EE0E9480090115110519F06C
:1042800081EE0E948009CD2B19F08CE20E94CB09AF
:10429000CDB7DEB7E7E00C948C2FEF92FF920F932F
:1042A0001F93CF93DF93EC01162F0AE088818823B8
:1042B00009F454C0813009F04EC08981813099F4ED
:1042C0007E0122E0E20EF11C8A810E94CB09E70107
:1042D0002196812F815050F3EFE9FFE03197F1F7FC
:1042E00000C00000F7CF823041F47E0182E0E80E8A
:1042F000F11C8A810E943309EACF833041F47E01A8
:10430000E2E0EE0EF11C8A810E948009E0CF843049
:1043100011F02196DDCF2A81229690E080E0AE0157
:104320004F5F5F4F2053330B2A30310548F0019720
:1043300078F2EFE9FFE03197F1F700C00000F7CF26
:10434000089FB001099F700D1124C901860F971FA6
:104350002981EA01E4CF0E94F020BACFCDB7DEB7C1
:10436000E6E00C948D2F60E00E944D210895CF93DC
:10437000DF93EB0186319C4711F50E940A119D8164
:10438000992399F08A7A91E009F490E0909365037B
:10439000811109C089E20E94E2100E946C1180E044
:1043A000DF91CF91089585E3F6CF80916503811168
:1043B00004C089E20E94EA10F0CF85E3FBCF81E0E0
:1043C000EFCFB0E0A0E0E7EEF1E20C946D2F7C01BE
:1043D0005B01C42FD22FFC0185818823C9F0409353
:1043E00068030E94AD24909367038093660380E284
:1043F0008C0F883040F4C77081E001C0880FCA95E7
:10440000EAF70E94D409CDB7DEB7EAE00C94892F11
:1044100010916803141338C080916603909167036C
:104420000E94C5246C01B701C5010E943E06C81652
:10443000D90650F5C0E2CD0F1D17C1F080E2810F03
:10444000883048F4177081E0012E01C0880F0A946B
:10445000EAF70E94DB09C83048F481E09D2F97708D
:1044600001C0880F9A95EAF70E94D409802F0E9414
:10447000CB09C83040F6D77081E001C0880FDA95CB
:10448000EAF70E94DB09BFCF80E28C0F883008F08A
:10449000BACFC77081E001C0880FCA95EAF7F1CFA3
:1044A0000F93DB0188519C4787309105A0F5FC01F3
:1044B000E75BFF4C0C945F2F06E221EE41EE6AE1D0
:1044C0007CE7CD010E94E12180E00F91089507E291
:1044D00025EE45EE6BE17CE7F4CF06E221EE40EEFF
:1044E00068E17CE7EECF07E225EE44EE69E17CE788
:1044F000E8CF06E221EE42EE6CE17CE7E2CF07E294
:1045000025EE46EE6DE17CE7DCCF08E221E045EEEA
:104510006EE17CE7D6CF15968C91882319F0109226
:104520006803D3CF81E0D1CF90936E0380936D0366
:104530000895E0916D03F0916E03309729F001909A
:10454000F081E02D0995089580E00895E0916D03D4
:10455000F0916E03309799F02091C701222359F012
:104560002091930327FF07C0DC012C9111962C9317
:10457000119726E02C930280F381E02D0995089590
:10458000E0916D03F0916E03309739F022E0DC0189
:104590002C930480F581E02D09950895A3E0B0E007
:1045A000E4EDF2E20C94752F20916B0330916C03D3
:1045B00028173907A1F090936C0380936B03E09167
:1045C0006D03F0916E03309751F023E029839B83B4
:1045D0008A830680F781E02DCE0101960995239606
:1045E000E2E00C94912FA3E0B0E0E9EFF2E20C944A
:1045F000752F2091690330916A0328173907A1F0BC
:1046000090936A0380936903E0916D03F0916E03C8
:10461000309751F024E029839B838A830680F781B9
:10462000E02DCE01019609952396E2E00C94912F9E
:10463000FC0132968091C701882321F08091930379
:104640009EE187FF96E080E0915008F40895219163
:104650002223D1F38F5FF8CF662301F12091C701A8
:104660002223F1F02091930327FF1AC0462F46958D
:10467000469546954E3190F4677021E030E002C0D7
:10468000220F331F6A95E2F7840F911DFC0182818E
:1046900090E02823392381E0232B69F480E00895FA
:1046A000FC01329608962191261721F0E817F907A8
:1046B000D1F7F4CF81E008959C01FC0132969FEF81
:1046C00080E04191461751F09F3F19F4411101C01C
:1046D000982F8F5F8630A9F79F3F09F40895290F1F
:1046E000311D97FD3A95F90162830895FC013296D8
:1046F00008962191261303C0DF0111971C92E81739
:10470000F907B9F70895E62FE695E695E695EE31B7
:1047100068F4E80FF92FF11D677021E030E001C067
:10472000220F6A95EAF78281822B82830895E62F11
:10473000E695E695E695EE3170F4E80FF92FF11D58
:10474000677021E030E001C0220F6A95EAF72095FA
:1047500082812823228308952091C701222339F0E2
:104760002091930327FF03C00E94832308950E9492
:104770005C2308952091C701222339F020919303EF
:1047800027FF03C00E94972308950E94762308956F
:10479000FC0132968091C701882351F080919303E8
:1047A00087FF06C08EE1DF011D928A95E9F7089523
:1047B00086E0F9CFDC01FB0111969C911197818174
:1047C000981322C012968C911297882319F0928127
:1047D00089131AC013968C911397882319F093812B
:1047E000891312C015968C911597882319F095811D
:1047F00089130AC014969C91992321F081E02481A9
:10480000291303C080E001C081E0817008950895FC
:104810000E9407240895811106C081E080936F03F0
:104820000E940824089582E0F9CF83E080936F030B
:104830000E94082408950E940B24089581E080932B
:104840006F030E94082408950E941E24089508956D
:1048500008950E9428240895089508950E94272409
:104860000895CF930E942C240E94DA160E942D24D2
:10487000C0E08C2F0E940E16892B31F4CF5FC4301C
:10488000C1F780E0CF91089581E0FCCF85B78068C3
:1048900085BF85B7806885BF08951F921FB61F9298
:1048A00011248F939F93AF93BF93809170038111D5
:1048B00013C08091580490915904A0915A04B0916A
:1048C0005B044196A11DB11D809358049093590437
:1048D000A0935A04B0935B04BF91AF919F918F91C5
:1048E0001F901FBE1F90189580916004843031F195
:1048F0000E947B081092700388E190E020E40FB6DC
:10490000F894A895809360000FBE2093600083B751
:10491000817F846083BF83B7816083BF78948895EB
:1049200083B78E7F83BF0FB6F894A89580916000FF
:10493000886180936000109260000FBE08950E940D
:10494000360C0E948508089582E084BD93E095BDF1
:104950009AEF97BD80936E0008952FB7F8948091D9
:10496000580490915904A0915A04B0915B042FBF50
:1049700008952FB7F894609158047091590480916C
:104980005A0490915B042FBF08959C014FB7F8948F
:104990008091580490915904A0915A04B0915B04FD
:1049A0004FBF821B930B0895CF92DF92EF92FF923D
:1049B0002FB7F894C0905804D0905904E0905A044E
:1049C000F0905B042FBFA7019601261B370B480B05
:1049D000590BCA01B901FF90EF90DF90CF90089575
:1049E00078941F921FB61F9211248F939F93AF93B9
:1049F000BF938091580490915904A0915A04B091AA
:104A00005B040196A11DB11D809358049093590435
:104A1000A0935A04B0935B04BF91AF919F918F9183
:104A20001F901FBE1F90189581E08093E00080E2E8
:104A30008093D8001092C9008FE19EE40197F1F7AE
:104A400000C0000087E090EBDC0180936904909344
:104A50006A04A0936B04B0936C0488E19CE00FB6E9
:104A6000F894A895809360000FBE90936000FFCFEC
:104A700088E19CE00FB6F894A895809360000FBE83
:104A800090936000FFCF8091910308959B01BA013C
:104A9000909160049430E9F48F708093E9009FEF67
:104AA0008091E800915085FD06C085ED8A95F1F76B
:104AB00000009111F5CF8091E80085FF0AC050E019
:104AC00040E0C9010E9450278091E8008E778093D2
:104AD000E800089543E050E0BC0182E00E944625D2
:104AE000089546E050E0BC0182E00E94462508950A
:104AF000CF93DF93EC018091C701811111C048E091
:104B000050E0BE0181E00E94462580E2FE01A1E75F
:104B1000B3E001900D928A95E1F7DF91CF9108956E
:104B20008091930387FF05C040E282E050E0BE0120
:104B3000EACF48E081E0FACF80915F04811109C09B
:104B40000E94E0280E943D298091E20084608093C9
:104B5000E200089510925F0408950E941E240895B3
:104B600060915C0481E0611101C080E00E94152425
:104B700008959091600481E0943009F080E06091A4
:104B80005C040E941B24089542E061EC81E00E94D5
:104B90005C2842E261EC82E00E945C289091600413
:104BA00081E0943009F080E060915C040E940B2465
:104BB000089580916204833009F461C030F481303B
:104BC000D1F1823009F49EC008958A3009F48AC078
:104BD0008B3009F46FC0893009F050C080916104B6
:104BE000813209F04BC08091650490916604029770
:104BF00008F044C08091E800877F8093E8008091AE
:104C0000E80082FF37C09091F3008091F200029794
:104C100031F48091F100813011F0863021F48091DF
:104C2000F100809391038091E8008B778093E800F6
:104C30000E94902823C080916104813AF9F4809108
:104C4000E800877F8093E800809165049091660476
:104C5000892B61F460E281E793E070E00E949F2776
:104C60008091E8008B778093E800089560E090E001
:104C700080E0F3CF809160048111C1CF08958091CD
:104C80006104813AD9F78091650490916604892B7B
:104C9000A9F78091E800877F8093E8008091E80081
:104CA00080FFFCCF8091C7018093F1008091E800E4
:104CB0008E77BCCF80916104813201F780916504C9
:104CC00090916604892BD1F68091E800877F8093CC
:104CD000E8000E949028809163048093C7010E949D
:104CE000360C089580916104813241F68091E8008C
:104CF000877F8093E8000E949028809164048093CD
:104D00009203089580916104813A09F0B7CF8091B0
:104D1000E800877F8093E8008091E80080FFFCCF67
:104D200080919203C1CF84B7877F84BF0FB6F89478
:104D3000A895809160008861809360001092600067
:104D40000FBE80E890E00FB6F894809361009093D6
:104D500061000FBE0E94242408950E94E0280E9452
:104D60003D29E2EEF0E080818460808378940E94A7
:104D7000BC2B08958FEB91E00E94942208958091BE
:104D80006004853031F480916004853019F00E9410
:104D90009F2408950E94742480915E04882399F3CF
:104DA0000E943124882379F30E943A270E94360C0E
:104DB000EACF08959A0140916704509168040E94D7
:104DC000E2260895492F55274330510519F168F41B
:104DD0004130510509F444C04230510509F445C041
:104DE00090E080E050E040E025C04132510549F1BB
:104DF00042325105A9F784E490E045E055E06115A1
:104E00007105C1F086EB90E04FE454E0613071052C
:104E100089F0E6CF99278130910581F0009729F03C
:104E20000297F1F6ECEDF3E002C0EEEFF3E08491CF
:104E300090E0AF01F901518340830895EAEEF3E079
:104E4000F6CF89E090E044E154E06115710591F3FB
:104E500089E090E04DE254E06130710559F3C0CF34
:104E600082E190E04DE354E0E5CF8BE390E042E057
:104E700054E0E0CF80E189BD82E189BD09B400FE44
:104E8000FDCF8091D8008F7D8093D8008091E00085
:104E900082608093E0008091E00081FDFCCF089566
:104EA000AF92BF92CF92DF92FF920F931F93CF9357
:104EB000DF936C01EB018A010E94AF28F82E81116B
:104EC00023C00115110539F0F80180819181C81BBB
:104ED000D90BC80ED91EB12CA12C2097A9F0809116
:104EE000E80085FD22C08091E8008E778093E8007D
:104EF00001151105A1F0F80180819181A80EB91E5C
:104F0000B182A08285E0F82E8F2DDF91CF911F9185
:104F10000F91FF90DF90CF90BF90AF9008950E94C7
:104F2000AF288823D1F2F82EEFCFF60181916F01DF
:104F30008093F1002197FFEFAF1ABF0ACECFFC019B
:104F4000809167049091680486179707A0F0611517
:104F5000710529F49091E8009E779093E80090E025
:104F60006115710551F4911108C08091E80082FF2C
:104F700034C080E00895BC01F2CF809160048823A2
:104F8000C1F18530C1F18091E80083FD30C080918E
:104F9000E80082FDEACF8091E80080FFE1CF8091B8
:104FA000F3002091F200382F6115710519F02830B7
:104FB000310558F091E02830310509F090E020915A
:104FC000E8002E772093E800CBCF81918093F10009
:104FD000615071092F5F3F4FE7CF809160048823B4
:104FE00041F0853041F08091E80083FFBECF81E041
:104FF000089582E0089583E00895FC01809167049C
:105000009091680486179707A0F06115710529F43F
:105010008091E8008E778093E80090E0611571053B
:1050200051F4911108C08091E80082FF35C080E002
:105030000895BC01F2CF809160048823C9F18530C6
:10504000C9F18091E80083FD31C08091E80082FDC4
:10505000EACF8091E80080FFE1CF8091F3002091BA
:10506000F200382F6115710519F02830310558F01C
:1050700091E02830310509F090E08091E8008E77CA
:105080008093E800CBCF84918093F10031966150FA
:1050900071092F5F3F4FE6CF80916004882341F074
:1050A000853041F08091E80083FFBDCF81E0089515
:1050B00082E0089583E00895982F973028F08F704C
:1050C0008093E90081E008959093E900242F762FE2
:1050D00050E0981731F07091EC002091ED00509164
:1050E000F00021FD02C09F5FE8CF3091EB003E7FD2
:1050F0003093EB003091ED003D7F3093ED00309127
:10510000EB0031603093EB007093EC002093ED00E6
:105110005093F0002091EE0027FDE5CF80E0089548
:105120008091610487FF13C08091E80082FF06C070
:105130008091E8008B778093E80004C08091600440
:105140008111F2CF0895809160048823D9F3809172
:10515000E80080FFF8CF8091E8008E77ECCF2091B7
:10516000E4003091E50095E6A9012091EC00822F42
:10517000817020FF06C08091E80080FF06C080E0BB
:1051800008952091E80022FD1AC0809160048823D0
:1051900089F0853089F08091EB0085FD0FC020916A
:1051A000E4003091E50042175307F9F29150E1F61F
:1051B00084E0089582E0089583E0089581E00895F1
:1051C0000E944F290E945729E0EEF0E08081816023
:1051D0008083E8EDF0E080818F77808319BCA7EDB4
:1051E000B0E08C918E7F8C9380818F7E8083109233
:1051F0005F0408950F931F93CF93DF930E944F296D
:105200000E945729C8EDD0E088818F7788838881F4
:105210008068888388818F7D888319BC10926004A0
:1052200010925C0410925E0410925D0400EE10E097
:10523000F80180818B7F808388818160888342E050
:1052400060E080E00E945C28E1EEF0E080818E7FEB
:105250008083E2EEF0E080818160808380818860DD
:105260008083F80180818E7F80838881806188833C
:10527000DF91CF911F910F910895E8EDF0E08081CB
:105280008F7E8083E7EDF0E080818160808384E021
:1052900082BF81E080935F040E94FA280895E8EDC0
:1052A000F0E080818E7F80831092E200089510925A
:1052B000DA001092E10008951F920F920FB60F923C
:1052C00011242F933F934F935F936F937F938F930B
:1052D0009F93AF93BF93EF93FF938091E10082FF81
:1052E0000BC08091E20082FF07C08091E1008B7FBC
:1052F0008093E1000E94BB2B8091DA0080FF19C0EF
:105300008091D80080FF15C08091DA008E7F809355
:10531000DA008091D90080FF96C080E189BD82E1EA
:1053200089BD09B400FEFDCF81E0809360040E9436
:105330009C258091E10080FF19C08091E20080FFF0
:1053400015C08091E2008E7F8093E2008091E200A0
:1053500080618093E2008091D80080628093D800C1
:1053600019BC85E0809360040E94B0258091E10023
:1053700084FF2BC08091E20084FF27C080E189BDBB
:1053800082E189BD89B5982F917080FFFBCF809114
:10539000D8008F7D8093D8008091E1008F7E80932C
:1053A000E1008091E2008F7E8093E2008091E20034
:1053B00081608093E20080915C04882309F449C0F5
:1053C00084E0809360040E94B9258091E10083FF0E
:1053D00029C08091E20083FF25C08091E100877F92
:1053E0008093E10082E08093600410925C048091DD
:1053F000E1008E7F8093E1008091E2008E7F8093B8
:10540000E2008091E20080618093E20042E060E08F
:1054100080E00E945C288091F00088608093F0001A
:105420000E94AD25FF91EF91BF91AF919F918F9118
:105430007F916F915F914F913F912F910F900FBE90
:105440000F901F90189519BC109260040E94AA2515
:1054500070CF8091E30087FD93E090936004B3CF19
:105460001F920F920FB60F9211242F933F934F93D9
:105470005F936F937F938F939F93AF93BF93CF93DC
:10548000DF93EF93FF93D091E900DF708091EC0000
:10549000C82FC17080FDC0E81092E9008091F00033
:1054A000877F8093F00078940E94742A1092E9001C
:1054B0008091F00088608093F000CD2BCF70C09376
:1054C000E900FF91EF91DF91CF91BF91AF919F9153
:1054D0008F917F916F915F914F913F912F910F909D
:1054E0000FBE0F901F901895AAE2B0E0EAE7FAE22B
:1054F0000C94742F81E694E02091F100FC0121933B
:10550000CF01F4E089369F07B9F70E94D925809131
:10551000E80083FF1EC180916104909162049A307B
:1055200008F017C1E92FF0E0E05BFF4C0C945F2F0F
:10553000803899F0823809F00CC1809165048F7031
:10554000873008F006C18093E9008091EB0085FB6D
:10555000882780F91092E90006C080915D0490913F
:105560005E04911182609091E800977F9093E8002B
:105570008093F1001092F1008091E8008E77E5C0F1
:10558000882309F4D3C0823009F0E3C0809163041A
:105590008111D6C0809165048F702FEF280F2630BF
:1055A00008F0D7C08093E9002091EB0020FFC8C02D
:1055B000933031F48091EB0080628093EB00C0C0A7
:1055C0009091EB0090619093EB0021E030E001C0FE
:1055D000220F8A95EAF72093EA001092EA00809160
:1055E000EB008860EACF8111B4C0109163041F778B
:1055F0008091E3008078812B8093E3008091E80024
:10560000877F8093E8000E9490288091E80080FFC7
:10561000FCCF8091E30080688093E30082E0111169
:1056200083E08093600495C08058823008F091C078
:1056300080916304909164048C3D23E09207A1F56E
:1056400083E08A838AE289834FB7F894DE01139658
:1056500020E03EE051E2E32FF0E050935700E49168
:1056600020FF03C0E295EF703F5FEF708E2F90E058
:10567000EA30C0F0C7968D939D932F5F243159F780
:105680004FBF8091E800877F8093E8006AE270E076
:10569000CE0101960E949F278091E8008B7780932E
:1056A000E80057C0C096E7CF60916504709166042A
:1056B000AE014F5F5F4F0E94DA26BC01892B09F4CF
:1056C00048C09091E800977F9093E80089819A8183
:1056D0000E94FD27E1CF8038E1F58091E800877FC7
:1056E0008093E80080915C048093F10045CF8111A4
:1056F00030C090916304923060F58091E800877F1C
:105700008093E80090935C040E94902880915C0450
:10571000882311F084E005C08091E30087FDFACF73
:1057200081E0809360040E94C42513C080916304CB
:10573000813079F481E0933009F080E080935E0459
:105740001092E9008091E800877F8093E8000E9432
:1057500090288091E80083FF0AC08091E800877F4D
:105760008093E8008091EB0080628093EB00AA9622
:10577000E3E00C94902F0895CF93809160048823E8
:10578000A1F0C091E900CF709091EC00892F817059
:1057900090FD80E8C82B1092E9008091E80083FD1D
:1057A0000E94742ACF70C093E900CF910895505899
:1057B000BB27AA270E94EF2B0C94022E0E94F42DE7
:1057C00038F00E94FB2D20F039F49F3F19F426F4A5
:1057D0000C94F12D0EF4E095E7FB0C94DD2DE92FF0
:1057E0000E94132E58F3BA176207730784079507B0
:1057F00020F079F4A6F50C94352E0EF4E0950B2EDE
:10580000BA2FA02D0B01B90190010C01CA01A00112
:105810001124FF27591B99F0593F50F4503E68F16D
:105820001A16F040A22F232F342F4427585FF3CFAE
:10583000469537952795A795F0405395C9F77EF47F
:105840001F16BA0B620B730B840BBAF09150A1F0C8
:10585000FF0FBB1F661F771F881FC2F70EC0BA0F4E
:10586000621F731F841F48F4879577956795B795D6
:10587000F7959E3F08F0B0CF9395880F08F09927D1
:10588000EE0F9795879508950E94B92D08F481E051
:1058900008950E945D2C0C94022E0E94FB2D58F05E
:1058A0000E94F42D40F029F45F3F29F00C94DD2D87
:1058B00051110C94362E0C94F12D0E94132E68F386
:1058C0009923B1F3552391F3951B550BBB27AA27B9
:1058D00062177307840738F09F5F5F4F220F331FF3
:1058E000441FAA1FA9F335D00E2E3AF0E0E832D0BB
:1058F00091505040E695001CCAF72BD0FE2F29D0BE
:10590000660F771F881FBB1F261737074807AB078F
:10591000B0E809F0BB0B802DBF01FF2793585F4F04
:105920003AF09E3F510578F00C94DD2D0C94362E04
:105930005F3FE4F3983ED4F3869577956795B795E6
:10594000F7959F5FC9F7880F911D9695879597F9F1
:105950000895E1E0660F771F881FBB1F621773076A
:105960008407BA0720F0621B730B840BBA0BEE1F7F
:1059700088F7E09508950E941B2E88F09F5798F0B5
:10598000B92F9927B751B0F0E1F0660F771F881F44
:10599000991F1AF0BA95C9F714C0B13091F00E945E
:1059A000352EB1E008950C94352E672F782F882777
:1059B000B85F39F0B93FCCF3869577956795B39585
:1059C000D9F73EF490958095709561957F4F8F4FF4
:1059D0009F4F0895E89409C097FB3EF490958095F9
:1059E000709561957F4F8F4F9F4F9923A9F0F92FA5
:1059F00096E9BB279395F695879577956795B79523
:105A0000F111F8CFFAF4BB0F11F460FF1BC06F5F08
:105A10007F4F8F4F9F4F16C0882311F096E911C01A
:105A2000772321F09EE8872F762F05C0662371F03B
:105A300096E8862F70E060E02AF09A95660F771F4F
:105A4000881FDAF7880F9695879597F90895990F2B
:105A5000BB0B550FAA0BE0E8FEEF16161706E8077A
:105A6000F90770F012161306E407F50760F0BA178D
:105A70003CF049F46217730784079507A7951BF458
:105A8000B901CA01BA2FB69597950895990FBB0B26
:105A9000550FAA0BE0E8FEEF16161706E807F90700
:105AA00070F012161306E407F50760F0BA1754F009
:105AB00031F42617370748075907A7951BF4B90192
:105AC000CA01BA2FB695979508950E94F42D20F03B
:105AD00019F00E94FB2D50F40C94F12D0C94362EED
