:100000000C94A5020C94DD020C94DD020C94DD022C
:100010000C94DD020C94DD020C94DD020C94DD02E4
:100020000C94DD020C94DD020C94A8290C947C2A1B
:100030000C9499240C94DD020C94DD020C94DD02E6
:100040000C94DD020C94DD020C94DD020C94DD02B4
:100050000C94DD020C943C250C94DD020C94DD0222
:100060000C94DD020C94DD020C94DD020C94DD0294
:100070000C94DD020C94DD020C94DD020C94DD0284
:100080000C94DD020C94DD020C94DD020C94DD0274
:100090000C94DD020C94DD020C94DD020C94DD0264
:1000A0000C94DD020C94DD020C94DD022900140096
:1000B0001A000800150017001C0018000C001200A0
:1000C00013002E002B0004001600070009000A0090
:1000D0000B000D000E000F0000002800E1001D00C5
:1000E0001B0006001900050011001000360000007A
:1000F00037004C00E000E300E2002C41000000006B
:100100002C420000000038002D002D0201004A00A2
:1001100052004D002F003000010001002402310286
:10012000417E01000100500051004F0026022702CD
:10013000010001003300340000002A0001001D010D
:100140001B0106011901010001000100010000006E
:100150000100010001000100010001000000000099
:100160002C430000000001000100010001001E00FE
:100170001F0020002100220023002400250026006B
:1001800027000100270021002200230001000100B8
:10019000010001003300340000002A0001002400A7
:1001A00025002600010001000100010001000000FF
:1001B000010001000100010001002C4300000000CB
:1001C0000100000000000100010001005F7ED1007D
:1001D000CD00D2003A003B003C00010001000100CC
:1001E0000100007C0100CF00CE00D0003D003E00A9
:1001F0003F000100010001000000007E0100D90065
:10020000D300DA00400041004200430044000000F7
:100210004500010001000100010001000000000094
:10022000010000000000597E5A7E20780001010183
:1002300001010101010102020202020202020203A3
:100240000303030303030304040404040404050573
:100250000505050606060606070707070708080836
:1002600008090909090A0A0A0B0B0B0C0C0C0D0DE5
:100270000D0E0E0E0F0F0F1010111111121213137D
:100280001414151516161717181819191A1A1B1BF6
:100290001C1D1D1E1E1F2020212222232424252652
:1002A00026272829292A2B2C2D2D2E2F303132328A
:1002B000333435363738393A3B3C3D3E3F40414296
:1002C000434445464748494A4C4D4E4F505153547C
:1002D000555658595A5B5D5E5F6162646566686930
:1002E0006B6C6D6F7072737577787A7B7D7E8082B0
:1002F000838587888A8C8E8F91939596989A9C9EF9
:10030000A0A2A3A5A7A9ABADAFB1B3B5B7BABCBE08
:10031000C0C2C4C6C9CBCDCFD1D4D6D8DBDDDFE2D5
:10032000E4E7E9EBEEF0F3F5F8FAFDFF000000007A
:10033000000000002A2B2800000000000000000040
:100340000000000000000029000000002C1E3420E6
:10035000212224342627252E362D3738271E1F200C
:100360002122232425263333362E37381F04050651
:100370000708090A0B0C0D0E0F1011121314151695
:100380001718191A1B1C1D2F3130232D3504050693
:100390000708090A0B0C0D0E0F1011121314151675
:1003A0001718191A1B1C1D2F3130354C0000000086
:1003B000000000000000000000000000000000003D
:1003C000000000000000000000000000000000002D
:1003D0007E0F00D4FFFFFFC7000000780C0346002B
:1003E0006500620034003000000012036600650002
:1003F00062007200650065007A0065000000040379
:10040000090409023B00020100A0FA0904000001EE
:1004100003010100092111010001224400070581A7
:100420000308000109040100010300000009211173
:1004300001000122B600070582032000011201001D
:100440000200000008646942000001010200010589
:10045000010902A10185020901A10005091901296B
:10046000081500250195087501810205010930096B
:10047000311581257F95027508810609381581257A
:100480007F950175088106050C0A38021581257FC4
:10049000950175088106C0C005010980A101850389
:1004A00019012AB700150126B700950175108100C2
:1004B000C0050C0901A101850419012AA00215013A
:1004C00026A002950175108100C005010906A10151
:1004D0008506050719E029E715002501950875012E
:1004E00081020507190029EF1500250195F0750116
:1004F00081020508190129059505750191029501EB
:1005000075039101C005010906A101050719E0293C
:10051000E71500250195087501810295017508818F
:10052000010507190029FF150026FF00950675082B
:10053000810005081901290515002501950575019A
:100540009102950175039101C00011241FBECFEFE8
:10055000DAE0DEBFCDBF04B603FE18C08091FC0414
:100560009091FD04A091FE04B091FF048730904B60
:10057000A740B04B59F41092FC041092FD04109265
:10058000FE041092FF04E0E0F8E3099512E0A0E019
:10059000B1E0ECEBF0E602C005900D92AE35B1078C
:1005A000D9F724E0AEE5B2E001C01D92AC3FB2073E
:1005B000E1F70E948F170C9408300C940000CF9341
:1005C0000E943611C82F0E944C11C82B0E945F1147
:1005D0008C2BCF910895CF93C82F0E9455118C2F4B
:1005E0000E9482118C2F0E943F11CF910895A5E0A7
:1005F000B0E0EDEFF2E00C94792F91E0811190E002
:10060000998321E0982F917109F420E02A8321E059
:10061000982F947409F420E02B8321E0982F987888
:1006200009F420E02C83827261E009F460E0298102
:100630003A814B815C8170E080E090E02596E2E0B9
:100640000C94952F8F359E4779F4FB018581882383
:1006500061F09091F3029F5F923018F49093F3024F
:1006600008951092F302089580E00895B0E0A0E0AC
:10067000ECE3F3E00C94732F7C01D62F6A01809198
:10068000F0029091F102009739F4C0E08C2FCDB7C1
:10069000DEB7E8E00C948F2F0E9436078C0100979C
:1006A000A1F3FC018081882381F3F601C581CC236D
:1006B00061F38FEF0E94EB02C7010E94BD0780919A
:1006C000F0029091F1020E94BD07C8010E94FF2133
:1006D0008D2F0E944611DACF0F931F93CF93DF9394
:1006E000062FFA014091F0025091F1024115510597
:1006F000C1F16181C0812C2F30E0E901CC0FDD1FF9
:10070000C20FD31F24E2629FC00DD11D1124C05A15
:10071000DD4F188125812223E1F0111122C01091B3
:10072000F202112381F021E028835A8349830E9439
:10073000BD078FEF0E94EB0289819A810E94A70773
:10074000802F0E944611812FDF91CF911F910F9131
:1007500008951123C1F3188289819A810E94BD07EF
:10076000F2CF10E0F0CF8F929F92BF92CF92DF92A4
:10077000EF92FF920F931F93CF93DF9300D000D09F
:100780000F92CDB7DEB77C016B010E94220381116D
:1007900063C0970130522115304328F4F601968149
:1007A000907F09F443C01092F202F092F102E092BD
:1007B000F0020E94DF02B82E0E94F70229833A83DA
:1007C0004B835C836D838091F0029091F1020E94D3
:1007D00067064C01009721F09093F1028093F0029C
:1007E0000091F302002E000C110B29813A814B81FC
:1007F0005C816D818091F0029091F1020E941B0753
:10080000009729F19093F1028093F00281E08170CA
:100810008093F202A6016B2DC7010E94360381115D
:1008200005C0A6016B2DC7010E946C030F900F90AD
:100830000F900F900F90DF91CF911F910F91FF902C
:10084000EF90DF90CF90BF909F908F90089581E0C0
:100850008928E9F680E0DBCF80E0E8CF4F925F9215
:100860006F927F928F929F92AF92BF92CF92DF92C0
:10087000EF92FF92CF93DF93CDB7DEB728970FB6F5
:10088000F894DEBF0FBECDBFE62EF42E682F70E0C9
:1008900090E080E00E94382D20E030E04FE753E404
:1008A0000E94952C4B015C016E2D70E090E080E081
:1008B0000E94382D20E030E04FE753E40E94952C51
:1008C0002B013C016F2D70E090E080E00E94382DFC
:1008D00020E030E04FE753E40E94952C6D837E8347
:1008E0008F8398879B01AC01C301B2010E94732DD5
:1008F0009B01AC01C501B4010E94732D6B017C0109
:100900002D813E814F815885C301B2010E94922DF5
:100910009B01AC01C501B4010E94922D9B01AC0169
:10092000C701B6010E94232C69837A838B839C8341
:1009300020E030E0A9010E94902C882309F4B3C084
:10094000A7019601C501B4010E94902C81116FC0CE
:100950002D813E814F815885C301B2010E94232C15
:1009600029813A814B815C810E94952C20E030E006
:1009700040EC50E40E94BC2D20E030E040E752E41F
:100980000E948D2E4B015C0120E030E0A901C701DF
:10099000B6010E94902C412C512C3201882351F039
:1009A000A701960169817A818B819C810E94952C97
:1009B0002B013C0120E030E04FE753E4C501B401D6
:1009C0000E948D2E20E030E044EB53E40E94952CF1
:1009D0000E94072DA62E20E030E04FE753E4C3012C
:1009E000B2010E948D2E0E94072DB62E20E030E02D
:1009F0004FE753E4C701B6010E948D2E0E94072DD8
:100A0000862FB50128960FB6F894DEBF0FBECDBF76
:100A1000DF91CF91FF90EF90DF90CF90BF90AF909C
:100A20009F908F907F906F905F904F900895A70157
:100A30009601C301B2010E94902C811115C0A5013D
:100A400094016D817E818F8198850E94232C29815C
:100A50003A814B815C810E94952C20E030E040E09F
:100A600050E40E94242C88CFA70196016D817E81DD
:100A70008F8198850E94902C811111C0A301920151
:100A8000C501B4010E94232C29813A814B815C81EC
:100A90000E94952C20E030E040E850E4E2CF60E096
:100AA00070E0CB0169CF812C912C54016DCF8093E4
:100AB000F7026093F6024093F5020E942E04962FEF
:100AC000672F482F892F90E00E94F51E089580E43B
:100AD0000E946B1F0E94A41E0E94921E8091F80229
:100AE000882351F083E00E94C21E80E00E94DC0C4B
:100AF00083E00E94DC0C089582E0F5CF8091AE0186
:100B0000882389F08091F80220E040E060E08111C4
:100B100006C02091F5024091F6026091F70288E14B
:100B200090E00E947B1B81E00895823071F0833059
:100B300041F0813071F44FEF60E088E80E94570582
:100B4000089540E06FE68FEFF9CF4FEF6BE385E05C
:100B5000F5CF8091F302813019F44FEF6FEFF3CFAF
:100B60004AE46FEF83E0EACF0F931F93CF938C019A
:100B70000E94B908C82F8091F4028C1729F08C2F9D
:100B80000E949505C093F402C801CF911F910F9167
:100B9000089580E00E9495050E94670580E00E940C
:100BA000DC0C0895CF93FB01C581CC2389F09C0117
:100BB00029553E4722303105A8F489359E4759F41E
:100BC0008091F80291E089278093F8020E946705DE
:100BD0008C2FCF9108958091AE0191E08927809369
:100BE000AE01F4CFC0E0F4CFFB012581AC014B7F17
:100BF000823E9105C9F42093F9023091F902222333
:100C0000F9F0311135C02091FA02211131C0209143
:100C1000FB028B9779F5222369F181E00E94DC0CBD
:100C200081E08093FC020895433E510519F420931E
:100C3000FA02E3CF403E510501F72093FB02DDCFDE
:100C4000311114C08091FA02811110C08091FB0211
:100C500091E089272091FC02222361F080FF0AC0E5
:100C600080E00E94DC0C1092FC02089580E0F2CF3C
:100C70008B9799F208950E94C90508950F931F93C9
:100C8000CF93DF93EC018B010E94F405B801CE01F4
:100C90000E94D20581110BC0B801CE010E94B3039E
:100CA00091E08927DF91CF911F910F91089580E006
:100CB000F9CF8C3222E4920739F09D7F8C32914437
:100CC00019F088EC90E008958DE790E00895A5E094
:100CD000B0E0EDE6F6E00C94792F29833A8389326F
:100CE000910539F44111A4C0662369F085E390E0D1
:100CF00015C08832910539F48AE290E061110EC086
:100D000090E080E00BC02A818433910559F4611191
:100D100005C089818823A1F384E392E02596E2E06F
:100D20000C94952F8D3232E0930719F4662341F32A
:100D3000F5CF8E329105D1F38F32910529F486E3F8
:100D400092E06623E9F2EACF8033910529F487E344
:100D500092E06623A9F2E2CF863232E0930729F4CB
:100D60008FE292E0662361F2D9CF873232E09307B7
:100D700029F480E392E0662319F2D0CF843232E086
:100D8000930731F480E49EE7662309F4B9CFC6CF18
:100D9000813332E0930731F48FE19EE7662309F453
:100DA000AFCFBCCF8633910531F48EE192E066235C
:100DB00009F4A6CFB3CF8733910531F488E392E0ED
:100DC000662309F49DCFAACF8833910531F481E3DE
:100DD00090E0662309F494CFA1CF8A34910531F4D1
:100DE0008BE490E0222309F48BCF98CF8D349105CA
:100DF00031F48EE490E0222309F482CF8FCF863243
:100E0000910531F485E392E0662309F479CF86CF2A
:100E10008D32910531F487E590E0662309F470CFB7
:100E20007DCF81159E4709F06BCF88E292E176CFA6
:100E30008BE290E073CFA5E0B0E0E1E2F7E00C9444
:100E4000772F0130110579F4833E910549F0823EF8
:100E5000910549F48EE690E02596E4E00C94932FFA
:100E60008DE690E0F9CF90E080E0F6CF8F312EE76D
:100E7000920751F080342EE7920749F081349E4763
:100E800049F481ED91E008958BEC91E008958EECAA
:100E900091E0089580ED91E008958430B8F46430D5
:100EA000A8F44C3098F450E09CE0699F400D511D2F
:100EB0001124FA0190E3899FE00DF11D1124EE0F3A
:100EC000FF1FE455FF4F85919491089581E090E0D4
:100ED00008950E944D0708959C013A9521153F41C0
:100EE00050F5FC01EE27F170BC0166277270AC0171
:100EF000442754709C012227387094FF0EC080E173
:100F0000EF2B09F480E0672B09F08062452B09F094
:100F10008064232B89F08068089581E0EF2B09F429
:100F200080E0672B09F08260452B09F08460232B59
:100F300019F08860089580E00895CF93DF93EB0166
:100F40000E946C07FE010995DF91CF910895CF9320
:100F5000DF93EC01805E9109089720F06EE37CE05E
:100F6000209711F460E07AE0CE010E949D078C2F5B
:100F70000E945F09DF91CF910895CF93DF93EC0139
:100F80000E94AC09CE01805E9109089720F065E4CB
:100F90007CE0209711F467E07AE0CE010E949D0783
:100FA000DF91CF91089581E008950E94D3070895BD
:100FB00081E008950E943E06089508950E94DD078D
:100FC0000895A6E0B0E0E7EEF7E00C94782F4983AF
:100FD0005A839E833091020389819A8131111AC00C
:100FE0003E81332399F0222389F00E94AE0D182F01
:100FF000682F89819A810E948A0D69817A81812F67
:101000000E94F3142696E3E00C94942F0E949C0D0A
:10101000182FF3CF0E94AE0D69817A81F1CFFC01C8
:10102000262F4081518162817381848195810E9444
:10103000E1070895CF93DF93EC0161E00E940F0870
:10104000BE010E94D507DF91CF910895CF93DF9322
:10105000EC0160E00E940F08BE010E94DE07DF91F4
:10106000CF91089508950E94620C0E9432082FEFDC
:1010700084E39CE0215080409040E1F700C00000F4
:1010800008950E9433080E94602508950E94330845
:101090000E94842508950F931F93CF93DF938C01B3
:1010A00061E00E940F08EC01B8010E94DA0781118B
:1010B00006C080E0DF91CF911F910F910895B80194
:1010C000CE010E949C228823A1F3B801CE010E9488
:1010D0006020882371F3B801CE010E940322882387
:1010E00041F3B801CE010E94DD1F882311F3F801FE
:1010F0008581882361F0C330FCE7DF07E9F058F40D
:10110000C115ECE7DE07A9F0C130DC47B9F0C80132
:101110000E94D807CFCFCB358CE7D807A9F0CC35C4
:10112000ECE7DE0771F0CA35DC4789F70E9431121F
:10113000EECF0E944108BDCF0E9439120E9446089E
:10114000B8CF0E942712E3CF0E943512E0CF0E9451
:1011500075240E94391D0E94FA0881E00E945C1EDD
:1011600008950E94FE0880E00E945C1E0E947A247E
:101170000895292F332740E02115310511F0C901C9
:1011800048E09C0164E0369527956A95E1F72115C2
:10119000310511F04C5FC9019C01369527953695B4
:1011A00027952115310511F04E5FC9019695879558
:1011B000892B09F04F5F842F0895089581E00895E9
:1011C0000895CF93DF93D82F0E94DE08C82F88237D
:1011D00019F08D2F0E94E0088C2FDF91CF91089598
:1011E0000895CF93C82F0E94DD088C2F0E94E1083C
:1011F000CF91089580E00E94F10808950E94E522B1
:101200000E94F1080895CF930E94E522C82F809193
:10121000FD028C1779F0C093FD020E9405256093B2
:10122000FE027093FF0280930003909301038C2FC2
:101230000E94F108CF910895ADE0B0E0E2E2F9E05C
:101240000C94792F488759876A877B878C879D877D
:1012500091110E945C111F8286E0FE013896DE012A
:10126000119601900D928A95E1F78D8181110DC043
:1012700029813A814B815C816D817E818F810E94C1
:1012800089102D96E2E00C94952FCE0101960E94D4
:101290001A088111EDCFF5CFFC012481213021F412
:1012A000808191810E94E00D0895662329F00E94BB
:1012B00026180E94F91808950E948018FACFCF933B
:1012C000C82F8823B9F08CEF8C0F813AA8F46C2FCB
:1012D0008091AF019091B0010E947823882329F07A
:1012E0008C2F0E9416110E9498118C2F0E940E11B3
:1012F0000E949811CF91089580E28C0F883048F4B5
:10130000C77081E001C0880FCA95EAF70E943911C1
:10131000EFCFEBE5EC0FE33040F4F0E0E65FFD4F9C
:10132000808190E00E941A23E5CFE8E5EC0FEB31D5
:1013300050F4F0E0EE0FFF1FEC52FE4F80819181E0
:101340000E943F23D7CF83E38C0F833198F661E06F
:101350008C2F0E945509CECF882381F19CEF980FE6
:10136000913A28F40E9416110E949811089590E273
:10137000980F983050F4877091E001C0990F8A95CA
:10138000EAF7892F0E943F11EFCF9BE5980F93302A
:1013900028F490E080E00E941A23089598E5980FC1
:1013A0009B3128F490E080E00E943F23089593E36E
:1013B000980F933118F460E00E94550908951F9327
:1013C000CF93DF93182FEB010E945F09209739F428
:1013D000812F0E94AC09DF91CF911F9108958FE971
:1013E0009FE00197F1F700C000002197EFCF70E078
:1013F00060E0893311F460E570E00E94DF09089530
:10140000882321F00E9439110E94981108958823A1
:1014100021F00E943F110E9498110895B0E0A0E0D1
:10142000E4E1FAE00C94722F6C01D62FC72FFC0177
:101430001581068102950F700E942F11E82E8823D6
:10144000E9F0E12E1123D1F08C2F807F803451F010
:1014500080E28D0F8830F8F0011104C08C2F807E5F
:101460008032C9F08091270482FF15C082E00E947B
:10147000FB110E942F1191E0E82EE926BC2EB294B8
:101480009FE0B922FBE0FB15B8F1EB2DF0E0E65F41
:10149000FF4C0C94632FE12CF1CF0C2F0F70C07F09
:1014A00011F00295007F112399F0002359F080E29A
:1014B0008D0F883010F0D11107C0802F0E94391194
:1014C0000E9498118D2F5AC0802F0E944F11F8CF83
:1014D0008D2F0E94AC09002379F080E28D0F8830B7
:1014E00010F0D11104C0802F0E943F1103C0802F43
:1014F0000E9455110E949811EB2DE850FF0B349774
:1015000020F40E94E5220E94F108EE2089F00E945A
:101510002B1180FD0DC0F60115820E9425110E943D
:10152000E80CC6010E941B0C0E9425110E94F80CB9
:10153000CDB7DEB7E9E00C948E2F2C2F2F70F22E52
:10154000C07FC03219F0F29480EFF822DD2341F021
:10155000D130D1F1112309F444C00023F1F0B2CF0E
:101560008091270482FD15C0112359F0FF2029F036
:101570008F2D0E9439110E94981180E00E945F090E
:10158000BBCF80E00E94AC09FF2009F4B5CF8F2DBE
:10159000ABCF112369F0011104C08F2D0E94000A06
:1015A000ABCF013009F0A8CF8F2D0E947611A4CFC8
:1015B0000111A2CF8F2D0E94070A8F2D0E94821148
:1015C0008F2D0E94661198CF112321F0063008F06C
:1015D00093CFE3CF053008F08FCF8F2D0E94070AFD
:1015E0008BCF0023D1F3D93349F43FEF87EE93E05B
:1015F000315080409040E1F700C000008D2F0E94E4
:10160000AC097ACF8C2F86958695837069F08130EE
:1016100009F072CF8D2F9C2F9370111102C080E0C2
:1016200090E00E943F2368CF8D2F9C2F9370111163
:1016300002C080E090E00E941A235ECF612F8D2FC0
:101640000E94550959CF8C2F8370A1F5111154CFE9
:101650004D2F429546954770440F440F2D2F2F7004
:1016600030E0042E02C0220F331F0A94E2F790E00C
:1016700080E0D4FF09C08FE090E002C0880F991F7E
:101680004A95E2F780959095C695C695C370822BD2
:10169000932BC23049F058F4C13019F00E94BB0CB2
:1016A0002BCF0E94B20C28CF0E94C40C25CF0E94E1
:1016B000AF0C22CF8695112311F08C2F81708823D7
:1016C00009F41ACF4D2F429546954770440F440FA9
:1016D0002D2F2F7030E0042E02C0220F331F0A94EA
:1016E000E2F790E080E0D4FF09C08FE090E002C014
:1016F000880F991F4A95E2F780959095C695C695F3
:10170000C370822B932BC23049F058F4C13019F0CA
:101710000E94230DF1CE0E941A0DEECE0E942C0DD8
:10172000EBCE0E94D00CE8CECF70112329F08C2F85
:101730000E94E80C8D2F32CF8D2F0E94070A8C2F2C
:101740000E94F80CD9CED23F41F160F4D03FB9F0FD
:10175000D13F81F0112309F446C00111B3CE8C2F83
:101760008F711FC0D33F01F1D43FA1F780912704AF
:1017700082FD24C08C2F8F71112311F312C011230D
:1017800041F0053008F0B8CE8C2F8F710E940A0D01
:10179000B3CE063008F0B0CEF7CF8C2F8F71111179
:1017A000CFCF0E94E80CA8CE112329F08C2F8F7187
:1017B0000E94DC0CA1CE0E94D70C9ECE112349F0D2
:1017C000CF718C2F0E94E80C63E08C2F0E94DD11FA
:1017D00093CE81E00E94FB11023008F48DCE82E0AE
:1017E0000E94FB1189CE002359F0D93309F006CFAE
:1017F000EFEFF7EE23E0E150F0402040E1F7FCCEC0
:101800008C2F8F719DCF0F931F93CF93DF93EC019C
:10181000688179818D810E94EB0D8C010E94350DCC
:101820000E94AE0CB801CE010E940E0ADF91CF914A
:101830001F910F910895CF93DF93EC018C81882342
:1018400099F0CE010E944B08811111C00E942F1106
:10185000882351F08D81882339F08091270482FFFD
:1018600003C082E00E94FB11DF91CF910895CE0169
:101870000E94030CCE010E942608F6CF882321F097
:101880000E944F110E9498110895882321F00E9410
:1018900055110E949811089590E080E00E941A234B
:1018A00090E080E00E943F230E945C110E9498110A
:1018B0000E9415190E94F91808950E941E110E9495
:1018C0004C0C08950E9449110E945D0C0895929558
:1018D0009F70963091F058F4925F9F70923058F458
:1018E000803F19F030F4883E30F481E008959A5F2B
:1018F000F4CF843FD1F380E00895883EB0F3813F78
:10190000D1F7F3CFFC012481222339F0808191812A
:101910000E94E00D0E94670C089580E00895A6E003
:10192000B0E0E5E9FCE00C94792F2696E2E00C9417
:10193000952FA7E0B0E0EFE9FCE00C94792F279613
:10194000E2E00C94952F08950E94A30C08950E9444
:10195000A40C90931E0380931D03089508950E9484
:10196000A70C089520911D0330911E03822B932B09
:101970000E94A70C089520911D0330911E0382231D
:1019800093230E94A70C089520911D0330911E03FC
:10199000822793270E94A70C08950E94B4050895FA
:1019A0000E94CD0C90931C0380931B03089590E03C
:1019B00080E00E94D00C089521E030E0A90102C02F
:1019C000440F551F8A95E2F7CA010E94D00C089572
:1019D00021E030E002C0220F331F8A95E2F78091A8
:1019E0001B0390911C03822B932B0E94D00C089513
:1019F00021E030E002C0220F331F8A95E2F72095E4
:101A0000309580911B0390911C03822393230E94A5
:101A1000D00C089521E030E002C0220F331F8A95D8
:101A2000E2F780911B0390911C03822793270E9469
:101A3000D00C089520911B0330911C03822B932B13
:101A40000E94D00C089520911B0330911C03822327
:101A500093230E94D00C089520911B0330911C0306
:101A6000822793270E94D00C08950895262F27706F
:101A700091E001C0990F2A95EAF723E076956795E2
:101A80002A95E1F7660F771F660F771FFA01E60FB9
:101A9000F71F50E040E0682F70E08191DF0111975F
:101AA0009B01042E02C0369527950A94E2F7217017
:101AB00021952827292328272C934F5F5F4F4430F7
:101AC000510559F70895A82FA77023E0969587959B
:101AD0002A95E1F7880F991F880F991FFB01E80FDE
:101AE000F91F50E040E080E0219130E00A2E02C072
:101AF000369527950A94E2F721703327042E01C00A
:101B0000220F0A94EAF7822B4F5F5F4F4430510552
:101B100059F70895262F943070F48C3060F4682FB4
:101B200070E08CE0989F600D711D112443E053E03C
:101B3000822F0E94360D0895292F943068F48C303E
:101B400058F490E063E073E03CE0239F800D911D2A
:101B500011240E94630D089580E00895B0E0A0E094
:101B6000E4EBFDE00C94722F7C0100911B031091BB
:101B70001C0380911D0390911E03082B192BCFE0AD
:101B8000D0E0CC24C394D12CBC2EC6010C2E02C0B4
:101B9000880F991F0A94E2F780239123892B49F437
:101BA000219790F7B12C8B2DCDB7DEB7E9E00C94DF
:101BB0008E2FB7018C2F0E94FF14019789F3F3CF6A
:101BC000CF93DF93EC010E94AE0DBE010E94FF1483
:101BD000DF91CF9108951F93CF93DF93EB01909105
:101BE0000203992339F0CB010E94E00DDF91CF91E0
:101BF0001F910895882369F0CB010E94AE0D182F24
:101C0000682FCE010E948A0DBE01812F0E94FF1411
:101C1000EDCFCB010E949C0D182FF6CF1F93CF93D1
:101C2000DF93C0911F0317E0809120038C1304C041
:101C3000DF91CF911F910895D0E01C9FF0011D9F6F
:101C4000F00D1124EF5DFC4F2081318142815381E1
:101C50006481758186810E94990C2196C770E4CFBA
:101C60002091590330915A0340915B0350915C03DA
:101C700060915D0370915E0380915F030E94990CF7
:101C80000895482F20911F039091200357E02913B6
:101C900002C080E0089530E0529FF001539FF00DA4
:101CA0001124EF5DFC4F8181681306C080814813C9
:101CB00003C085818111EECF2F5F3F4F2770E7CFA3
:101CC000B0E0A0E0E6E6FEE00C94742F80915F03A4
:101CD000807F09F054C080915E03882309F44FC0CF
:101CE000E0911F0387E0D82E809120038E1709F41E
:101CF00046C00E2F10E0ED9DF0011124EF5DFC4F6A
:101D00008481882309F440C0D09EE001D19ED00D8B
:101D10001124FE01EF5DFC4F918180915A039813CD
:101D200033C090818091590398132EC08581811111
:101D30002BC0E280F38080915B0390915C03E81AF2
:101D4000F90A60E089E593E00E940F0869E573E015
:101D50000E945906E816F906B8F480915F038F7067
:101D6000806180935F03C95DDC4F88818F708061E3
:101D7000888389E593E00E941B0C0E940E0ECDB76C
:101D8000DEB7E7E00C94902FF8013196E770ACCF06
:101D9000A4E1B0E0EEECFEE00C946C2F8C0186E048
:101DA000F801DE011F9601900D928A95E1F7F80186
:101DB000F480E58089E5882E83E0982E80915D038C
:101DC000811126C0F11007C0FF24F3948F2D649673
:101DD000EFE00C94882FEE20B9F0C8010E94820C2D
:101DE000F82E882389F087E0F801A9E5B3E0019097
:101DF0000D928A95E1F789E593E00E944C090E94D3
:101E0000600E0E94300EE2CFC8010E941B0CDCCF96
:101E10005080A180C280D380B0905E0380915B032C
:101E200090915C033601681A790A60E089E593E0D5
:101E3000BB2009F408C10E940F0869E573E00E9405
:101E400059066816790608F0ABC0FF2009F4BCCF2C
:101E500080915F03382F307F20915A03F8019181E0
:101E600031115AC0FE2C291316C0209159039081BC
:101E7000291311C0E11049C08F70806180935F0306
:101E80000E94300E89E593E00E941B0C80915F0355
:101E9000F80186839BCFE11038C06A2D852D0E9402
:101EA000410E6A2D852D0E94410EE82E81118ECFA4
:101EB0005F86A88A8F8598890E94E00D292F229538
:101EC0002F70243058F49F70223088F0992399F0B5
:101ED000F8019681907F79F4FE2C78CF2A5F2F70DD
:101EE000223068F0C8010E941B0CEB2CF5CF99231F
:101EF00011F0882389F3805E883070F3F3CF803F40
:101F000058F3815F833070F7E7CF80915F03816082
:101F100080935F03F12C5ACF291317C020915903E6
:101F20009081291312C0E11010C08683C8010E945D
:101F30001B0C87E0F801A9E5B3E001900D928A95AA
:101F4000E1F70E94300EFB2C41CFC8010E94820CA9
:101F5000882309F459CFEE2009F456CF80915F030E
:101F6000803288F02091590330915A0339872887AD
:101F7000DB86CA8690915D039C871D868E87CE0185
:101F800008960E941B0C87E0F801A9E5B3E00190D8
:101F90000D928A95E1F70E94600E0E94300E14CFD8
:101FA00080915F03982F907FB1F46C2DDA8AC98AF3
:101FB000452D5A2D7A898F2D9E2D0E948F0C89E5F3
:101FC00093E00E941B0C87E0F40111928A95E9F7D7
:101FD0000E94300E9FCFFF2009F4F6CE20915A03C5
:101FE000F8019181291311C020915903908129137F
:101FF0000CC0E1100AC08683C8010E941B0C87E058
:10200000F40111928A95E9F79ECFC8010E94820CD3
:10201000882309F4F9CEEE2009F4F6CE80915F030F
:10202000803208F4B0CF2091590330915A033A839B
:102030002983DC82CB8290915D039D831E828F83F6
:10204000CE0101969ECF0E940F0869E573E00E94C1
:1020500059066816790608F051C0FF2009F4B4CE7D
:10206000FE2CEE2009F4D0CE90915A03F801818124
:10207000981336C0909159038081981331C0809194
:102080005B0390915C03C81AD90AF8ECCF16D1040F
:10209000F0F490915F0390FD1AC0907FC1F08091A1
:1020A0005F03F8018683903F31F0982F907F905F17
:1020B0008F70892B8683C8010E941B0C87E0F80172
:1020C000A9E5B3E001900D928A95E1F79ACE87E0F9
:1020D000F801A9E5B3E001900D928A95E1F776CE7B
:1020E000C8010E94820C81114ECF80915F038160F4
:1020F00080935F03C8010E941B0C68CE6C2DDA8AA6
:10210000C98A452D5A2D7A898F2D9E2D0E948F0CBC
:102110005ACFAEE0B0E0EFE8F0E10C94782F2887DA
:1021200039874A875B876C877D878E87CE010896C3
:102130000E94C80E8823B1F06C85662341F0288583
:1021400039854A855B857D858E850E94990C17E0CF
:1021500080911F039091200389133DC02E96E3E0E8
:102160000C94942F87E0FE013896DE0111960190C1
:102170000D928A95E1F78C85882349F320912003FD
:1021800030E0C90101968770992740911F034817D5
:10219000190699F097E0929FD001939FB00D1124FA
:1021A000AF5DBC4FFE01319601900D929A95E1F71B
:1021B000809320030E940E0ECACF0E94620C1092E0
:1021C000200310921F0387E0E9E5F3E0DF011D9291
:1021D0008A95E9F7BCCF819FC00111248F5D9C4F88
:1021E0000E94C80E882309F4B9CFE0911F031E9FF7
:1021F000F0011124EF5DFC4F208131814281538138
:102200006481758186810E94990C80911F0390E002
:1022100001968770992780931F039ACF682F80912A
:10222000AF019091B0010E94F8230895682F80912A
:10223000AF019091B0010E94062408958091AF01F2
:102240009091B0010E941424089580918003869596
:102250008695869508958091800387700895909162
:102260008003977081E009F480E008958091A403D1
:1022700008959091A403892B8093A40308958095D9
:102280009091A40398239093A40308958093A403AA
:1022900008951092A40308958091A3030895909146
:1022A000A303892B8093A303089580959091A303A2
:1022B00098239093A30308951092A3030895809107
:1022C0008203089508950E946211089590918103F8
:1022D000292F282331F080958923809381030E9440
:1022E0006311089508950E947211089590918203D8
:1022F000292F2823281729F0982B909382030E94D6
:102300007311089590918203292F282331F080952D
:102310008923809382030E94731108958091820320
:10232000882329F01092820380E00E94731108959F
:10233000CF93DF93E091AF01F091B0018091A403BE
:102340008083E091AF01F091B00180819091A3036F
:10235000892B808390918203992381F0E091AF01D2
:10236000F091B0018081892B80838091AF019091A1
:10237000B0010E94642381110E948E11C091AF01AF
:10238000D091B00140E250E060E673E0CE010E94DF
:10239000A02F892B59F080E2FE01A0E6B3E0019066
:1023A0000D928A95E1F7CE010E94F222DF91CF9142
:1023B000089508950E94D91108959091270492FFDD
:1023C00011C098E0899F90011124622B60938003D3
:1023D0000E94E80C809180038695869586950E94E0
:1023E000DA1108950E94E80C08951092800380E0AD
:1023F0000E94DA110895909180038095892380933B
:102400008003282F277069F4891759F090912704C9
:1024100092FF07C08695869586950E94F80C0E94CB
:10242000F51108959091270492FB222720F928178F
:1024300069F080FB92F99093270480912604909193
:1024400027040E945A1282E00E94FB110895809195
:10245000270482FB882780F991E089270E941212C5
:10246000089581E00E941212089580E00E941212E5
:1024700008956FEF7FEF90E080E00E9402300895B2
:1024800090E080E00E94CE2F21E0863E9E4F09F032
:1024900020E0822F089582E090E00E94C62F0895E8
:1024A00083E090E00E94C62F089584E090E00E94AF
:1024B000CE2F0895BC0184E090E00E940230089580
:1024C000AB01BC018FE090E00E94F62F0895AB01B4
:1024D000BC0183E190E00E94F62F089560E070E077
:1024E000CB010E946712089560E070E0CB010E946A
:1024F00060120E946E120895A8E0B0E0E2E8F2E1F6
:102500000C94792F66EE7EEF90E080E00E9402301E
:1025100060E082E090E00E94E42F60E083E090E0E1
:102520000E94E42F10921E0310921D0360E074E1DC
:1025300084E090E00E94023060E086E090E00E943B
:10254000E42F6FEF87E090E00E94E42F40E050E03E
:10255000BA0188E090E00E94F62F60E084E290E00B
:102560000E94E42F60E087E190E00E94E42F60E0A9
:102570008CE090E00E94E42F60E08DE090E00E940B
:10258000E42F19821A821B821C821D821E821F82E6
:10259000188648E050E068E170E0CE0101960E94A4
:1025A000D42F40E050E0BA0180E290E00E94F62F84
:1025B0000E9474122896E2E00C94952F0E947C12DF
:1025C0000895682F8EE090E00E94E42F0895A6E021
:1025D000B0E0EDEEF2E10C94772F0E94F9248C012B
:1025E0008091A5039091A6038017910781F019822D
:1025F0001A820E94F924682F49815A81792F80E03C
:1026000090E00E941C091093A6030093A503269650
:10261000E4E00C94932F0E9405256093B30370931C
:10262000B4038093B5039093B6036093AF037093A4
:10263000B0038093B1039093B20308950895089571
:102640000E941E1308950E943B06089585EF95E1B0
:102650000E949C170E941F130E942013089581E07E
:1026600008950E942F1308950E942F13089508952E
:1026700008950E9437130E94381308950E9414167B
:102680000E94F0080E94F51D08950E94F0240E9407
:10269000F0160E943E13E6E2F4E0808180688083B9
:1026A00080912604909127040E945A120E942313BD
:1026B0000895A6E0B0E0EFE5F3E10C946D2F0E94E1
:1026C000311381110CC00E94E7120E94391D0E9433
:1026D00037190E9403092696EEE00C94892F0E9478
:1026E000061727EA822E23E0922E640110E0F601FD
:1026F000E190F1906F01812F0E943A161F5F143014
:1027000009F44EC0E816F90691F38091B70381FDF4
:102710000E9443160E943413682E10E0812F0E94FD
:102720003A167C01F401A190B1904F018A159B05E6
:1027300089F1A826BF2400E0CC24C394D12CC50184
:102740008C219D21892BE9F077247394C7018C217A
:102750009D21892B09F4712C662071F009831A835D
:102760000E94F924682F8B839C8349815A81792F99
:1027700081E0972D0E941C09472D602F812F0E9418
:10278000351C0F5FCC0CDD1C0C30C9F6F401329700
:10279000F182E0821F5F143009F60E940B1395CF7F
:1027A000E816F90609F0B1CF8ECF1F93CF93DF93D0
:1027B0000E940415EC01C11580E5D807F0F5C1159C
:1027C00080E4D80708F09CC0C03ED10520F5CD3C80
:1027D000D10508F082C0C83AD10578F4C53AD105D0
:1027E00008F073C0C130D10519F1209709F1C43048
:1027F000D105F0F4D0E0C0E01BC0C33CD105D0F758
:10280000C85AD0E0CC0FDD1FC35FDD4F0990D881DF
:10281000C02DD4640DC0C11580E2D80708F0D1C026
:10282000C11581E0D80708F05AC0C83ED10510F79D
:10283000CE01DF91CF911F910895C03682E5D80770
:1028400018F5C03482E5D80708F06BC0C03282E5C5
:10285000D80708F05FC0C11582E5D80708F497C013
:102860002C2F2695269580E2289F900111248C2FED
:102870008370C1E0D0E002C0CC0FDD1F8A95E2F783
:10288000C22BD32BDD68D4CFC03A82E5D80760F4E1
:10289000C03882E5D80708F459C0CF71D0E0DC2FEA
:1028A000CC27C46FD06AC4CFC03C82E5D80708F4F7
:1028B00062C0C03E82E5D80708F09CCFDC2FCC2751
:1028C000CC27DF71C06FD06AB3CFC55AD0E0CD5BE3
:1028D000DD4FC881D0E0D064ABCFD065A9CF8D2FBC
:1028E0000E94A615182FCE0199270E940415C12F0A
:1028F000D0E0DC2FCC27CC27DF71C82BD92B98CF89
:10290000CE0199270E940415CC27DF70C82BD92B44
:10291000D06A8ECFCF71D0E0DC2FCC27C16FD06AC8
:1029200087CF2C2F26952695277080E2289F90012F
:1029300011248C2F8370C1E0D0E002C0CC0FDD1FCA
:102940008A95E2F7C22BD32BDC6872CF2C2F269509
:102950002695277080E2289F900111248C2F837088
:10296000C1E0D0E002C0CC0FDD1F8A95E2F7C22B98
:10297000D32BDA685DCF8C2F8F710E94A615C82FDC
:10298000D0E0DC2FCC27CC27DF71D06251CF8C2F49
:102990008F710E94A61555E0D695C7955A95E1F717
:1029A000CF70D0E0DC2FCC27282F30E084FF05C08B
:1029B00044E0220F331F4A95E1F7C22BD32BD06995
:1029C00037CF8D2F8F710E94A615182FCE01992712
:1029D0000E940415C12FD0E0DC2FCC27CC27DF715B
:1029E000C82BD92BD2CF462F743030F46C3020F462
:1029F000672F0E946907089590E080E008950E9483
:102A0000F3140E94D513089582389105B9F1B0F4FA
:102A10008133910509F47DC048F48932910509F4A8
:102A20006DC08A32910509F47BC008958533910504
:102A300009F45FC08933910509F10895833E91053A
:102A4000D9F138F4803E910529F1823E910579F162
:102A50000895863E9105D9F1873E910509F43EC05F
:102A6000843E910541F52091270421FF24C08091E7
:102A7000260484FD19C087EE90E008952091260475
:102A8000237009F05AC02091270423FF14C089E263
:102A900090E008952091260420FD38C0309127044D
:102AA00030FF09C024FF43C090E080E008952091EA
:102AB000260422FDF7CF08952091260422FD3AC076
:102AC0003091270430FD39C024FFF5CFEDCF2091A0
:102AD000260423FFF0CF24FDE7CFCDCF209126049D
:102AE00023FD2EC03091270431FFEECF84EE90E01D
:102AF00008952091260425FFDECFC9CF209126041A
:102B000025FD21C02091270423FFD5CF89E390E044
:102B1000D2CF2091260426FFCECF8AE290E00895FE
:102B20002091260426FFC7CF81E390E0089583EE2D
:102B300090E0089582EE90E0089580EE90E0089590
:102B400086EE90E0089585E390E008959091260444
:102B500092FF10C041E0282F2471243009F040E09A
:102B600031E0282F2871283009F030E0431711F0A8
:102B70002CE0822793FF10C041E0282F24712431DC
:102B800009F040E031E0282F2871283109F030E0C9
:102B9000431711F02CE082273091270430FF10C03A
:102BA00051E0282F2171213009F050E041E0282F19
:102BB0002871283009F040E0541711F029E08227ED
:102BC00031FF10C041E0282F2171213109F040E090
:102BD00031E0282F2871283109F030E0431711F037
:102BE00029E0822794FD877E089580E008950E9461
:102BF000391208950E9406172FEF86E791E02150C1
:102C000080409040E1F700C000000E94061780E07D
:102C10000E943A1680FF04C00E94F7150E946025AA
:102C200008950E94FA1508950E944012811102C071
:102C30000E94DE120E944B128093B7030E9455122D
:102C400090932704809326040E9411160E9450122C
:102C500090E00E94AF0C80911B0390911C030E9496
:102C6000CD0C089508950E943216089508950E948B
:102C700036160895E82FF0E0EE0FFF1FE05DFB4FE2
:102C8000808191810895089580EA8A95F1F70895E9
:102C900000C008950E9444160895F894E82FE29524
:102CA000EF70F0E031A1282F2F7081E090E001C09B
:102CB000880F2A95EAF7982F9095932391A392A1D4
:102CC000892B82A378940895CF93DF9385E90E949E
:102CD0004D1686E60E944D1686E30E944D1686EC40
:102CE0000E944D16C6E4D2E089918F3F11F00E94F8
:102CF0004D1682E0C235D807B9F7DF91CF9108951C
:102D0000AF92BF92DF92EF92FF920F931F93CF93F8
:102D1000DF938C01D62EC62FD0E0CE018E5A9D4F68
:102D20007C01FC0120812F3F09F44DC0F894E22F73
:102D3000E295EF70F0E031A12F7081E090E001C0EA
:102D4000880F2A95EAF7932F982B91A392A180954B
:102D5000892382A378940E944816E6E4F2E042E5D3
:102D600052E021E030E0B12CA12C61916F3FA9F13C
:102D7000A62FA295AF70B0E090968C9190E06F7006
:102D800002C0959587956A95E2F780FD26C0C90136
:102D9000A82AB92A220F331F4E175F0731F7F70110
:102DA00080818F3F11F00E944D1661E0A114B104A3
:102DB00009F460E08D2D0E944A16CC0FDD1FC00F74
:102DC000D11FB982A882DF91CF911F910F91FF90FF
:102DD000EF90DF90BF90AF90089590E080E0D8CF63
:102DE0000E94641688E0E0E3F4E0DF01982F1D9272
:102DF0009A95E9F7E8E2F4E0DF011D928A95E9F798
:102E000084E00E9441170E9433160895A8E0B0E0C4
:102E1000ECE0F7E10C94762F8E010F5F1F4F88E0F6
:102E2000F80111928A95E9F7F12C6F2DC8010E94E3
:102E30008016F394F4E0FF12F8CF48E050E0B801B8
:102E400088E294E00E94A02F21E0009709F420E09E
:102E5000892B41F088E0F801A8E2B4E001900D92DE
:102E60008A95E1F744E060E374E088E294E00E9430
:102E70004217182F0E943716812F2896E5E00C94F0
:102E8000922F0895CF92DF92EF92FF921F93CF93EC
:102E9000DF936C017B01C42F222349F081E08093F2
:102EA000BA030E94F9249093B9038093B803109158
:102EB000BA0311110AC010E0812FDF91CF911F9149
:102EC000FF90EF90DF90CF9008958091B80390919C
:102ED000B9030E941125059770F3D0E0CC0FDD1FD8
:102EE000AE01B601C7010E94A02F892B41F0AE01AF
:102EF000B601C7010E94AD2F1092BA03DDCF10E0DA
:102F0000FBCF0E94F9260E9445130E9406270895D0
:102F10000E940B270E9459130E94252708950E94A2
:102F200092240E94DF260E9426130E9481170E948D
:102F300088170E943913FBCF90935F0280935E0243
:102F40000895282F35EB2303C001112497FF04C0F7
:102F500080589109892F089580589F4FFBCF809109
:102F6000C10380FF0DC06091B60170E0660F771F4E
:102F70006038710570F56115710569F1862F089546
:102F800081FF07C06091B60184E0689FB001112401
:102F9000EFCF6091B60182FD0AC08091C003882303
:102FA000A9F02091B5016091B601821710F088E078
:102FB000ECCF869FC001112433E0880F991F3A950A
:102FC000E1F7622F70E00E940E2FD2CF68E070E030
:102FD000D5CF8FE7089581E008958091C10380FFE8
:102FE0000CC06091B20170E0759567957595679515
:102FF0006115710549F1862F089581FF06C0609122
:10300000B20170E075956795F3CF6091B20182FDD2
:103010000BC09091BF039923A1F06091B101809101
:10302000B201961738F0682F70E06038710500F330
:103030008FE70895899FC001112470E00E940E2F30
:10304000F4CF61E070E0D7CF81E008958D3C31F49A
:103050000E94AF1781958093C50308958E3C19F4A3
:103060000E94AF17F8CF8F3C31F40E94AF178195C3
:103070008093C4030895803D19F40E94AF17F8CFE0
:10308000893D29F40E94ED178093C60308958A3D77
:1030900021F40E94ED178195F7CF8B3D31F40E940A
:1030A000ED1781958093C70308958C3D19F40E9414
:1030B000ED17F8CF9FE2980F983070F4815D990B6F
:1030C00021E030E001C0220F8A95EAF78091C30326
:1030D000822B8093C30308958D3D31F48091C10309
:1030E00081608093C10308958E3D21F48091C103D6
:1030F0008260F7CF8F3DB9F78091C1038460F1CF33
:103100004091C4038D3C59F48091C50387FF0DC0E5
:103110001092C50341110BC01092C00308C08E3C31
:1031200081F48091C50318169CF3442381F08091AB
:10313000C6039091C703892B09F05AC01092BF03B0
:1031400008958F3C49F447FFF0CF1092C40380915B
:10315000C5038111ECCFE0CF803D19F41416ACF318
:10316000E4CF9091C603893D29F41916F4F6109224
:10317000C603DBCF8A3D19F497FFD7CFF8CF9091E4
:10318000C7038B3D29F497FFD0CF1092C703CDCF53
:103190008C3D19F41916CCF3C8CF9FE2980F9830E4
:1031A00090F4815D990B21E030E0B90102C0660F17
:1031B000771F8A95E2F7CB0180959091C30389230D
:1031C0008093C303B2CF8D3D31F48091C1038E7FD4
:1031D0008093C103AACF8E3D21F48091C1038D7FDE
:1031E000F7CF8F3D09F0A1CF8091C1038B7FF0CF46
:1031F00008950E94F9249C019091C4038091C50315
:10320000982B21F03093BE032093BD039091C60309
:103210008091C703982B21F03093BC032093BB030C
:1032200082EC93E00E940C23089586E0E2ECF3E048
:10323000DF011D928A95E9F71092C0031092BF0337
:103240001092C1030895FC01828181110EC0838117
:1032500081110BC08481811108C091E085818111A9
:1032600001C090E0892F8170089581E0FCCFA6E035
:10327000B0E0EDE3F9E10C94782F86E0E2ECF3E0C6
:10328000DE01119601900D928A95E1F71092C40328
:103290001092C5031092C6031092C7038B819C81C4
:1032A000892B89F08091BD039091BE030E94112566
:1032B000AC019091C0039923C9F18091B7018417A3
:1032C000150608F440C08D819E81892B91F0809174
:1032D000BB039091BC030E941125AC019091BF03E8
:1032E000992309F46AC08091B3018417150608F484
:1032F00072C0BE016F5F7F4F82EC93E00E94262474
:10330000811105C082EC93E00E94231981110E9473
:10331000F91886E0FE013196A2ECB3E001900D921F
:103320008A95E1F72696E3E00C94942F2091B8015A
:103330008AE0289F900111242417350720F69F5F0B
:103340009093C00302C09F3FD1F71B81112359F016
:103350000E94AF179FEF11160CF491E0899F802D0A
:1033600011248093C4031C81112359F00E94AF17CC
:103370009FEF11160CF491E0899F802D112480930A
:10338000C5038091C403882309F49DCF1091C50320
:10339000112309F498CF0E94A117882351F080933C
:1033A000C403812F0E94A117882329F08093C503AD
:1033B0008ACF81E0F4CF81E0F9CF2091B4018AE097
:1033C000289F900111242417350708F092CF9F5FA2
:1033D0009093BF0302C09F3FD1F71D81112359F085
:1033E0000E94ED179FEF11160CF491E0899F802D3C
:1033F00011248093C6031E81112359F00E94ED17FA
:103400009FEF11160CF491E0899F802D1124809379
:10341000C7038091C603882309F46BCF1091C703BB
:10342000112309F466CF0E94A117882351F08093DD
:10343000C603812F0E94A117882329F08093C70318
:1034400058CF81E0F4CF81E0F9CFEF92FF920F9354
:103450001F93CF93DF93EB01E82FD1110EC04423CC
:1034600021F0F0E0E45DFD4FE4916E2F7E2F8E2F72
:10347000CDB7DEB7E6E00C94912F0D2F10E0282F8A
:1034800030E0442329F0245D3D4FF901249130E0E0
:10349000F6E0CF9FC0011124EFEFF0E0BF010E94E2
:1034A000FA2EAB018C2F90E0880F991FA5E5A49F01
:1034B000B001A59F700D1124861B970B982F990FB3
:1034C000980FBF01601B710B629FD001639FB00D0D
:1034D000729FB00D11248B2F9D9FB0011124672F77
:1034E0007727EF01C61BD70BBE01629FE001639FE8
:1034F000D00D729FD00D11247F01E91AF108E09ED2
:10350000B001E19E700DF09E700D1124672F77279A
:10351000E61BF70BE29F8001E39F100DF29F100D59
:103520001124E12F722F4230510599F048F44115D2
:10353000510569F04130510581F0EB2F8D2F07C007
:103540004430510569F080F046305105B1F76E2FD7
:103550008FCFE22F7B2F812FFACFE22F7D2FF7CF56
:10356000EB2F822F712FF3CF7B2F822FED2FEFCFF9
:1035700041E00E94251A089530E020E0869F212D29
:10358000969F200D311D1124C9010895CF92DF921D
:10359000EF92FF921F93CF93DF93D62FC72F182F51
:1035A000BA0190E080E00E94362D20E030E04FE745
:1035B00053E40E94952C6B017C01AC019B010E949D
:1035C0008D2EA70196010E948D2EA70196010E94C3
:1035D0008D2E6B017C012DEC3CEC4CE45DE30E94F4
:1035E000902C87FD31C023E333E343E75FE3C7015A
:1035F000B6010E94882E181634F4C12CD12C80E814
:10360000E82E8FE3F82E20E030E04FE753E4C701C7
:10361000B6010E948D2E9B01AC0160E070E08FE747
:1036200093E40E94232C0E94072D262F219F212DF9
:103630001124822F6D2F7C2FDF91CF911F91FF904E
:10364000EF90DF90CF900895C12CD12C7601DBCF85
:103650000E94C61A809508959091C803892B809383
:10366000C803089548E050E068E170E088E394E022
:103670000E94D42F1092C80308950E94B81A08958A
:10368000E8E3F4E085E080838091C8019091C9016E
:10369000A091CA0181839283A3838FE784838FEFF4
:1036A00085830E94321B089580E008950F931F9335
:1036B000CF93DF93C82FD62F8A010E94541B9CE022
:1036C000C99FB001112460507F4F6D0F711DFB0128
:1036D00090819F3F29F0F801E80FF11D90838F5FE3
:1036E000DF91CF911F910F910895E0915C02F091CD
:1036F0005D0209950895E0915802F09159020995EB
:103700000895B0E0A0E0E7E8FBE10C94712F8C0194
:103710007B01FC01C08189E0C89FC02D112429E0F4
:10372000B22EBC0EAB2CFAE2FB1510F49AE2A92ED5
:1037300020913C0431E0230F08F42FEF30E050E0FB
:1037400040E06FEF7FEF80E090E00E94442F69013E
:10375000D0E02C2FCA1550F081E0F9E2FB1508F4F7
:1037600080E0CDB7DEB7EAE00C948D2FFE01EC5778
:10377000FE4F8081F8019181892311F14091440429
:103780004150042E000C550B47FF1CC0C601609130
:103790003C0421E0620F08F46FEF0E94BC1AAC01F8
:1037A0006091390470913A0480913B04F7010995C6
:1037B0000E943D1B462F282F672FCE010E947B1BA6
:1037C0002196C7CFFA01EC5BFB4F818982130AC0B7
:1037D000FA01EE0FFF1FEC5BFB4F818D928D8C1574
:1037E0009D05A8F241505109CFCFB0E0A0E0EBEF2A
:1037F000FBE10C94722F7C01FC01C08189E0C89F21
:10380000C02D112419E01C0F012F1B3208F00AE211
:103810006091390470913A0480913B040E943D1BF1
:10382000D62EC72EB82ED0E0C01748F081E01A324D
:1038300008F080E0CDB7DEB7E9E00C948E2FFE01F2
:10384000EC57FE4F8081F7019181892331F02B2DB8
:103850004D2D6C2DCE010E947B1B2196E5CFE09172
:103860005A02F0915B0209950895CF92DF92FF9280
:103870000F931F93CF93DF93CDB7DEB728970FB683
:10388000F894DEBF0FBECDBF182F062FF42E0E9476
:103890002F13882309F44CC0FF2009F457C0AE0150
:1038A0004F5F5F4F602F812F0E94561BF82E0F2D08
:1038B00010E08091C903800F912F911D09976CF141
:1038C00088E090E06C01C01AD10AB80166537C4FC1
:1038D000A6018AEC93E00E94AD2FB8016E527C4F96
:1038E000A60182ED93E00E94AD2FA601440F551F63
:1038F000B801660F771F6E517C4F82EE93E00E94F5
:10390000AD2FB80166527C4FA6018AED93E00E946C
:10391000AD2F88E08F198093C9031091C903DE0190
:10392000119640E0842F810FF41212C08093C903D6
:1039300028960FB6F894DEBF0FBECDBFDF91CF91B2
:103940001F910F91FF90DF90CF900895F12CAFCF92
:103950005D91252F30E090E0BC0167537C4FF90169
:10396000EE0FFF1FE05DFE4F0081FB010183220F80
:10397000331FF901E050FF4F21A9FB012187518B33
:10398000880F991FFC01E753FC4F128E118E4F5F79
:10399000C9CFCF93C82F8091BD018C1339C09091AE
:1039A000380493702091BE0130E081E09217130635
:1039B00009F480E081708093BC0180913D04909176
:1039C000BB01981739F08093BB0140E060E080E0D4
:1039D0000E942F1CC13041F1CC23E1F0C23049F1EB
:1039E000C33071F180E09091BA019F5F9093BA016A
:1039F00081110CC082E08093B9018091BC018111DA
:103A000005C0C11103C083E08093B901CF9108952F
:103A100081E0D0CF8091BC01882329F340E060E0B1
:103A200080E00E942F1CDECF8AEB91E00E94F51B04
:103A3000DACF66EC7AE18AEB91E00E94811BD3CF6A
:103A400068E27BE1F8CF0E947E05089581E0089549
:103A50000E94261D0895FC01808199E0899F802D98
:103A60001124682F8B3208F06AE289500E94281DC9
:103A700008954F925F926F927F928F929F92AF9232
:103A8000BF92CF92DF92EF92FF92CF936091F203B9
:103A90007091F3038091F4039091F5030E94202527
:103AA0006B017C010E9405254B015C018092F203B1
:103AB0009092F303A092F403B092F503A091C9038E
:103AC000E9ECF3E08A2F90E04FEF5FEF60E070E009
:103AD0004C195D096E097F09A9132AC08093C90397
:103AE0008091F603C0E0811108C080913804C82F8E
:103AF000C37019F0C82FC695C6958091B901813061
:103B000009F440C0882339F1823009F44BC0833076
:103B100009F453C0CF91FF90EF90DF90CF90BF900A
:103B2000AF909F908F907F906F905F904F9008958F
:103B3000218D328D2901712C612C441555056605A6
:103B4000770520F481509F5F3296C6CF2C0D3D1D26
:103B5000328F218FF8CF1092BA0180924004909258
:103B60004104A0924204B092430489E2E9ECF3E0FC
:103B7000A4E4B4E001900D928A95E1F781E080938E
:103B8000B901C8CF8C2F0E94C91CCC2319F2809197
:103B9000BA01853011F40E94231D8AEB91E00E9446
:103BA0002B1DB8CFC093BD018091380483708093E2
:103BB000BE010E94751B83E0E2CF8091C803811192
:103BC0000E94321B60914004709141048091420434
:103BD000909143040E942025603171058105910573
:103BE00008F498CF1092B90195CFE0915602F09168
:103BF00057020995109244048FEF9FEF90935E0453
:103C000080935D049093600480935F0490936204BA
:103C1000809361049093640480936304909366049A
:103C200080936504909368048093670490936A047A
:103C30008093690490936C0480936B041092C90381
:103C40009093E3038093E2039093E5038093E4036E
:103C50009093E7038093E6039093E9038093E8034E
:103C60009093EB038093EA039093ED038093EC032E
:103C70009093EF038093EE039093F1038093F0030E
:103C80000E944012811104C00E94DE120E94401B5B
:103C900081E08093C80348E050E068E170E088E389
:103CA00094E00E94B62F1092C803809138048C7F54
:103CB00011F40E94401B0895CF93C82F882391F0E0
:103CC0008091F60381110EC00E94C91C1092BD01A3
:103CD0008091380483708093BE010E94751B83E03D
:103CE0008093B901C093F603CF910895E8E3F4E01F
:103CF000908121E0922790831092B9010E942C1BA1
:103D0000089581E00E94761E0895809138048370A2
:103D100011F41092B901809138048C7F81608093F6
:103D2000380408950E94851E81E00E942C1B08958E
:103D300080913804837011F01092B9018091380499
:103D40008C7F8093380408950E94981E81E00E9421
:103D50002C1B089590913804937051F0811109C083
:103D60009460909338041092B901862F0E942C1B06
:103D70000895843010F09C60F4CF282F220F220F7A
:103D8000922BEFCF61E00E94AA1E0895682F9091B8
:103D900038049695969581E0890F843008F081E08B
:103DA0000E94AA1E089581E00E94C61E0895682FF1
:103DB00090913804969596958FEF890F09F483E0DA
:103DC0000E94AA1E089581E00E94D71E0895909136
:103DD0003804937049F08093390460933A04409317
:103DE0003B04822F0E942C1B089520E00E94E71EB6
:103DF0000895A8E3B4E01196EC911197F0E0282F14
:103E000013964C91139712966C91CF0108960E94CD
:103E1000E71E089581E00E94F91E0895E8E3F4E0AA
:103E20009181282F43816281E92FE850FF0BCF0158
:103E30000E94E71E089581E00E940E1F0895E8E3A6
:103E4000F4E0628120E1620F08F46FEF9181282F86
:103E50004381892F90E00E94E71E089581E00E942F
:103E60001F1F0895E8E3F4E0628120E1621B08F47B
:103E700060E09181282F4381892F90E00E94E71E06
:103E8000089581E00E94321F0895E8E3F4E0438141
:103E900020E1420F08F44FEF9181282F6281892F92
:103EA00090E00E94E71E089581E00E94451F08955A
:103EB000E8E3F4E0438120E1421B08F440E0918113
:103EC000282F6281892F90E00E94E71E089581E0EB
:103ED0000E94581F089580933C0481E00E942C1B8F
:103EE0000895E8E3F4E0248130E1230F08F42FEF94
:103EF00024830E942C1B089581E00E94711F089565
:103F0000E8E3F4E0248130E1231B08F420E024837B
:103F10000E942C1B089581E00E94801F089510923A
:103F2000F7030895FC01EE0FFF1FDF01A80FB91F73
:103F3000A359BB4F11963C911197361307C03C9182
:103F4000341304C012963C91321751F031E0309393
:103F5000F703E80FF91FE359FB4F61834083228386
:103F60000895FF920F931F93CF93DF93182F062F7F
:103F7000F42ED0E0C0E02F2D402F612FCE010E9403
:103F8000921F2196CA32D105B1F7CDB7DEB7E5E071
:103F90000C94922F8091F703882341F06AE270E03D
:103FA0008DE694E00E9434201092F7030895FA0100
:103FB000811101C0FB01099508951F93CF93DF93F1
:103FC000EC01FB011581111110C00E9436118272A3
:103FD000FE01E052F847E531F10508F043C0EA5E22
:103FE000FF4C0C94632F0E94811E812FDF91CF9193
:103FF0001F91089543EE5EE163ED7EE10E94D71FBD
:10400000F4CF43ED5EE163EE7EE1F8CF4BE15FE19B
:104010006AE07FE1F3CF4AE05FE16BE17FE1EECF61
:1040200041E45FE16EE27FE1E9CF4EE25FE161E40E
:104030007FE1E4CF47E65FE164E57FE1DFCF44E580
:104040005FE167E67FE1DACF4BE85FE16CE77FE1B4
:10405000D5CF4CE75FE16BE87FE1D0CF81E00E94F4
:10406000C21EC3CF11E0C1CF239A45B1477F55B1DE
:104070005860EFB7F8949B01220F331F260F371FAC
:10408000280F391F2817390741F4EFBF8FE594E057
:104090000197F1F700C000000895DC016D91CD019A
:1040A00078E055B9000000C067FF45B9660F000011
:1040B00000C000C000C045B900C07A9591F7E2CFBA
:1040C000CF93DF93EC01FB018581882309F4D2C0F3
:1040D0009E0130572332310508F0B2C00E945512BC
:1040E0009093270480932604FE01E150F047E232CA
:1040F000F10520F4E55DFF4C0C94632F80912604BC
:1041000081608093260493C0809127048860809307
:1041100027048DC0809126048260F3CF809126040D
:104120008460EFCF809126048860EBCF80912704D4
:104130008160EDCF809127048260E9CF80912604D1
:104140008061DFCF809126048062DBCF80912604DE
:104150008064D7CF0E94620C809126048068D1CF02
:10416000809126048C60CDCF809127048360CFCFCF
:10417000809126048E7FC5CF80912704877FC7CF8B
:10418000809126048D7FBDCF809126048B7FB9CF8F
:1041900080912604877FB5CF809127048E7FB7CF8B
:1041A000809127048D7FB3CF809126048F7EA9CF85
:1041B000809126048F7DA5CF809126048F7BA1CF8F
:1041C0000E94620C809126048F779BCF80912604F9
:1041D000837F97CF809127048C7F99CF809126048D
:1041E00082FB992790F921E0922790FB82F990FBBE
:1041F00083F987CF80912704982F909591708E7FB7
:10420000892B90FB81F983CF90912604892F8F7B96
:1042100096FF806476CF0E94620C90912604892FCD
:1042200097FB87F980586DCF81E00E94E112809161
:104230002604909127040E945A120E94620C80E08A
:10424000DF91CF91089580E0F0CF90912604892FDF
:104250008F7E94FF806155CF90912604892F8E7FA9
:1042600090FF81604ECF90912704892F877F93FF25
:1042700088604DCF81E0E4CFB0E0A0E0E2E4F1E27D
:104280000C94742FE82FF0E0E45DFC4FD490282FBD
:1042900026952695269530E0F901E453FC4F0491CC
:1042A000877010E0082E02C0159507950A94E2F772
:1042B00001701127F901E454FC4FE490F12C082E11
:1042C00002C0F594E7940A94E2F791E0E922FF2412
:1042D000F901E455FC4FC491D0E002C0D595C795D3
:1042E0008A95E2F7C170DD270115110519F081EEFD
:1042F0000E945F09E114F10419F086EE0E945F0943
:104300008D2D0E94F709E114F10419F086EE0E9448
:10431000AC090115110519F081EE0E94AC09CD2BF5
:1043200019F08CE20E94F709CDB7DEB7E7E00C94F4
:10433000902FEF92FF920F931F93CF93DF93EC0197
:10434000162F0AE08881882309F454C0813009F0CF
:104350004EC08981813099F47E0122E0E20EF11C89
:104360008A810E94F709E7012196812F815050F33D
:10437000EFE9FFE03197F1F700C00000F7CF82309E
:1043800041F47E0182E0E80EF11C8A810E945F09FF
:10439000EACF833041F47E01E2E0EE0EF11C8A8127
:1043A0000E94AC09E0CF843011F02196DDCF2A8144
:1043B000229690E080E0AE014F5F5F4F2053330BB9
:1043C0002A30310548F0019778F2EFE9FFE03197A4
:1043D000F1F700C00000F7CF089FB001099F700DF2
:1043E0001124C901860F971F2981EA01E4CF0E9499
:1043F0003C21BACFCDB7DEB7E6E00C94912F60E058
:104400000E9499210895CF93DF93EB0186319C4759
:1044100011F50E9436119D81992399F08A7A91E0D5
:1044200009F490E09093F803811109C089E20E9499
:104430000E110E94981180E0DF91CF91089585E3DD
:10444000F6CF8091F803811104C089E20E94161111
:10445000F0CF85E3FBCF81E0EFCFB0E0A0E0E3E376
:10446000F2E20C94712F7C015B01C42FD22FFC016E
:1044700085818823C9F04093FB030E94F92490931F
:10448000FA038093F90380E28C0F883040F4C77000
:1044900081E001C0880FCA95EAF70E94000ACDB7F3
:1044A000DEB7EAE00C948D2F1091FB03141338C093
:1044B0008091F9039091FA030E9411256C01B701D4
:1044C000C5010E945906C816D90650F5C0E2CD0FA5
:1044D0001D17C1F080E2810F883048F4177081E029
:1044E000012E01C0880F0A94EAF70E94070AC8301B
:1044F00048F481E09D2F977001C0880F9A95EAF7E4
:104500000E94000A802F0E94F709C83040F6D77039
:1045100081E001C0880FDA95EAF70E94070ABFCF51
:1045200080E28C0F883008F0BACFC77081E001C0FC
:10453000880FCA95EAF7F1CF0F93DB0188519C47AA
:1045400087309105A0F5FC01E35BFF4C0C94632FD1
:1045500006E221EE41EE6AE17CE7CD010E942D22C8
:1045600080E00F91089507E225EE45EE6BE17CE7D0
:10457000F4CF06E221EE40EE68E17CE7EECF07E201
:1045800025EE44EE69E17CE7E8CF06E221EE42EE5B
:104590006CE17CE7E2CF07E225EE46EE6DE17CE7D9
:1045A000DCCF08E221E045EE6EE17CE7D6CF159640
:1045B0008C91882319F01092FB03D3CF81E0D1CFE7
:1045C00090930104809300040895E0910004F09119
:1045D0000104309729F00190F081E02D09950895AC
:1045E00080E00895E0910004F0910104309799F083
:1045F0002091C701222359F02091260427FF07C0EC
:10460000DC012C9111962C93119726E02C930280BB
:10461000F381E02D09950895E0910004F0910104E3
:10462000309739F022E0DC012C930480F581E02DF5
:1046300009950895A3E0B0E0E0E2F3E20C94792F4D
:104640002091FE033091FF0328173907A1F09093C2
:10465000FF038093FE03E0910004F0910104309782
:1046600051F023E029839B838A830680F781E02D24
:10467000CE01019609952396E2E00C94952FA3E0D4
:10468000B0E0E5E4F3E20C94792F2091FC03309143
:10469000FD0328173907A1F09093FD038093FC03D5
:1046A000E0910004F0910104309751F024E0298357
:1046B0009B838A830680F781E02DCE0101960995C0
:1046C0002396E2E00C94952FFC0132968091C7016D
:1046D000882321F0809126049EE187FF96E080E008
:1046E000915008F4089521912223D1F38F5FF8CFE0
:1046F000662301F12091C7012223F1F020912604C5
:1047000027FF1AC0462F4695469546954E3190F4A0
:10471000677021E030E002C0220F331F6A95E2F794
:10472000840F911DFC01828190E02823392381E0D0
:10473000232B69F480E00895FC01329608962191BC
:10474000261721F0E817F907D1F7F4CF81E0089593
:104750009C01FC0132969FEF80E04191461751F099
:104760009F3F19F4411101C0982F8F5F8630A9F740
:104770009F3F09F40895290F311D97FD3A95F901DE
:1047800062830895FC01329608962191261303C096
:10479000DF0111971C92E817F907B9F70895E62F82
:1047A000E695E695E695EE3168F4E80FF92FF11DF0
:1047B000677021E030E001C0220F6A95EAF782813C
:1047C000822B82830895E62FE695E695E695EE31F5
:1047D00070F4E80FF92FF11D677021E030E001C09F
:1047E000220F6A95EAF72095828128232283089573
:1047F0002091C701222339F02091260427FF03C00E
:104800000E94CF2308950E94A82308952091C701F4
:10481000222339F02091260427FF03C00E94E323BE
:1048200008950E94C2230895FC0132968091C70129
:10483000882351F08091260487FF06C08EE1DF01B6
:104840001D928A95E9F7089586E0F9CFDC01FB0116
:1048500011969C9111978181981322C012968C9188
:104860001297882319F0928189131AC013968C919C
:104870001397882319F09381891312C015968C9190
:104880001597882319F0958189130AC014969C9175
:10489000992321F081E02481291303C080E001C025
:1048A00081E08170089508950E9453240895811134
:1048B00006C081E0809302040E945424089582E09F
:1048C000F9CF83E0809302040E94542408950E944B
:1048D0005724089581E0809302040E94542408958F
:1048E0000E946A240895089508950E9474240895EA
:1048F000089508950E9473240895CF930E94782408
:104900000E9406170E947924C0E08C2F0E943A165C
:10491000892B31F4CF5FC430C1F780E0CF91089587
:1049200081E0FCCF85B7806885BF85B7806885BF8B
:1049300008951F921FB61F9211248F939F93AF93D8
:10494000BF9380910304811113C08091EB04909177
:10495000EC04A091ED04B091EE044196A11DB11DAF
:104960008093EB049093EC04A093ED04B093EE04D9
:10497000BF91AF919F918F911F901FBE1F9018956F
:104980008091F304843031F10E94A708109203044F
:1049900088E190E020E40FB6F894A8958093600039
:1049A0000FBE2093600083B7817F846083BF83B78D
:1049B000816083BF7894889583B78E7F83BF0FB65D
:1049C000F894A895809160008861809360001092AF
:1049D00060000FBE08950E94620C0E94B108089505
:1049E00082E084BD93E095BD9AEF97BD80936E0001
:1049F00008952FB7F8948091EB049091EC04A09166
:104A0000ED04B091EE042FBF08952FB7F894609194
:104A1000EB047091EC048091ED049091EE042FBFB3
:104A200008959C014FB7F8948091EB049091EC04A9
:104A3000A091ED04B091EE044FBF821B930B08953B
:104A4000CF92DF92EF92FF922FB7F894C090EB04D1
:104A5000D090EC04E090ED04F090EE042FBFA7019D
:104A60009601261B370B480B590BCA01B901FF9061
:104A7000EF90DF90CF90089578941F921FB61F9209
:104A800011248F939F93AF93BF938091EB049091E8
:104A9000EC04A091ED04B091EE040196A11DB11DAE
:104AA0008093EB049093EC04A093ED04B093EE0498
:104AB000BF91AF919F918F911F901FBE1F9018952E
:104AC00081E08093E00080E28093D8001092C900DA
:104AD0008FE19EE40197F1F700C0000087E090EBC2
:104AE000DC018093FC049093FD04A093FE04B0933A
:104AF000FF0488E19CE00FB6F894A89580936000CD
:104B00000FBE90936000FFCF88E19CE00FB6F89451
:104B1000A895809360000FBE90936000FFCF8091B6
:104B2000240408959B01BA019091F3049430E9F4B0
:104B30008F708093E9009FEF8091E800915085FD90
:104B400006C085ED8A95F1F700009111F5CF8091AF
:104B5000E80085FF0AC050E040E0C9010E949C27A0
:104B60008091E8008E778093E800089543E050E05C
:104B7000BC0182E00E949225089546E050E0BC010D
:104B800082E00E9492250895CF93DF93EC018091FB
:104B9000C701811111C048E050E0BE0181E00E94D0
:104BA000922580E2FE01A4E0B4E001900D928A9586
:104BB000E1F7DF91CF9108958091260487FF05C02A
:104BC00040E282E050E0BE01EACF48E081E0FACF67
:104BD0008091F204811109C00E942C290E94892928
:104BE0008091E20084608093E20008951092F204C4
:104BF00008950E946A2408956091EF0481E0611194
:104C000001C080E00E94612408959091F30481E046
:104C1000943009F080E06091EF040E9467240895C9
:104C200042E061EC81E00E94A82842E261EC82E06F
:104C30000E94A8289091F30481E0943009F080E06C
:104C40006091EF040E94572408958091F504833009
:104C500009F461C030F48130D1F1823009F49EC092
:104C600008958A3009F48AC08B3009F46FC0893006
:104C700009F050C08091F404813209F04BC080915A
:104C8000F8049091F904029708F044C08091E8007C
:104C9000877F8093E8008091E80082FF37C0909181
:104CA000F3008091F200029731F48091F10081309D
:104CB00011F0863021F48091F100809324048091DA
:104CC000E8008B778093E8000E94DC2823C0809165
:104CD000F404813AF9F48091E800877F8093E8003A
:104CE0008091F8049091F904892B61F460E284E0EA
:104CF00094E070E00E94EB278091E8008B7780932E
:104D0000E800089560E090E080E0F3CF8091F30444
:104D10008111C1CF08958091F404813AD9F780912F
:104D2000F8049091F904892BA9F78091E800877F16
:104D30008093E8008091E80080FFFCCF8091C7015C
:104D40008093F1008091E8008E77BCCF8091F404CD
:104D5000813201F78091F8049091F904892BD1F602
:104D60008091E800877F8093E8000E94DC28809192
:104D7000F6048093C7010E94620C08958091F404A8
:104D8000813241F68091E800877F8093E8000E949D
:104D9000DC288091F7048093250408958091F40421
:104DA000813A09F0B7CF8091E800877F8093E800CF
:104DB0008091E80080FFFCCF80912504C1CF84B7AB
:104DC000877F84BF0FB6F894A895809160008861B2
:104DD00080936000109260000FBE80E890E00FB6F4
:104DE000F89480936100909361000FBE0E9470243C
:104DF00008950E942C290E948929E2EEF0E080812A
:104E00008460808378940E94082C08958FEB91E051
:104E10000E94E02208958091F304853031F480915E
:104E2000F304853019F00E94EB2408950E94C024F9
:104E30008091F104882399F30E947D24882379F3DB
:104E40000E9486270E94620CEACF08959A01409141
:104E5000FA045091FB040E942E270895492F5527EC
:104E60004330510519F168F44130510509F444C04B
:104E70004230510509F445C090E080E050E040E048
:104E800025C04132510549F142325105A9F784E468
:104E900090E045E055E061157105C1F086EB90E0CA
:104EA0004FE454E06130710589F0E6CF99278130F5
:104EB000910581F0009729F00297F1F6ECEDF3E00F
:104EC00002C0EEEFF3E0849190E0AF01F90151836D
:104ED00040830895EAEEF3E0F6CF89E090E044E104
:104EE00054E06115710591F389E090E04DE254E0E2
:104EF0006130710559F3C0CF82E190E04DE354E099
:104F0000E5CF8BE390E042E054E0E0CF80E189BD63
:104F100082E189BD09B400FEFDCF8091D8008F7D6C
:104F20008093D8008091E00082608093E0008091BF
:104F3000E00081FDFCCF0895AF92BF92CF92DF9247
:104F4000FF920F931F93CF93DF936C01EB018A01C4
:104F50000E94FB28F82E811123C00115110539F09C
:104F6000F80180819181C81BD90BC80ED91EB12CC4
:104F7000A12C2097A9F08091E80085FD22C08091A6
:104F8000E8008E778093E80001151105A1F0F80183
:104F900080819181A80EB91EB182A08285E0F82E91
:104FA0008F2DDF91CF911F910F91FF90DF90CF90C8
:104FB000BF90AF9008950E94FB288823D1F2F82E6D
:104FC000EFCFF60181916F018093F1002197FFEF00
:104FD000AF1ABF0ACECFFC018091FA049091FB0476
:104FE00086179707A0F06115710529F49091E800E4
:104FF0009E779093E80090E06115710551F491114E
:1050000008C08091E80082FF34C080E00895BC01B0
:10501000F2CF8091F3048823C1F18530C1F18091F2
:10502000E80083FD30C08091E80082FDEACF8091E6
:10503000E80080FFE1CF8091F3002091F200382F4B
:105040006115710519F02830310558F091E02830CC
:10505000310509F090E02091E8002E772093E800D8
:10506000CBCF81918093F100615071092F5F3F4F49
:10507000E7CF8091F304882341F0853041F080919F
:10508000E80083FFBECF81E0089582E0089583E0C9
:105090000895FC018091FA049091FB04861797070C
:1050A000A0F06115710529F48091E8008E77809356
:1050B000E80090E06115710551F4911108C08091EC
:1050C000E80082FF35C080E00895BC01F2CF8091F6
:1050D000F3048823C9F18530C9F18091E80083FD8C
:1050E00031C08091E80082FDEACF8091E80080FF26
:1050F000E1CF8091F3002091F200382F6115710506
:1051000019F02830310558F091E02830310509F0C8
:1051100090E08091E8008E778093E800CBCF849177
:105120008093F1003196615071092F5F3F4FE6CFB8
:105130008091F304882341F0853041F08091E800AC
:1051400083FFBDCF81E0089582E0089583E0089554
:10515000982F973028F08F708093E90081E00895B0
:105160009093E900242F762F50E0981731F070913A
:10517000EC002091ED005091F00021FD02C09F5FF6
:10518000E8CF3091EB003E7F3093EB003091ED00A3
:105190003D7F3093ED003091EB0031603093EB00B8
:1051A0007093EC002093ED005093F0002091EE00FE
:1051B00027FDE5CF80E008958091F40487FF13C0B8
:1051C0008091E80082FF06C08091E8008B77809391
:1051D000E80004C08091F3048111F2CF089580911A
:1051E000F3048823D9F38091E80080FFF8CF809101
:1051F000E8008E77ECCF2091E4003091E50095E651
:10520000A9012091EC00822F817020FF06C08091BF
:10521000E80080FF06C080E008952091E80022FDAC
:105220001AC08091F304882389F0853089F0809139
:10523000EB0085FD0FC02091E4003091E50042179E
:105240005307F9F29150E1F684E0089582E0089561
:1052500083E0089581E008950E949B290E94A3297C
:10526000E0EEF0E0808181608083E8EDF0E0808115
:105270008F77808319BCA7EDB0E08C918E7F8C93E3
:1052800080818F7E80831092F20408950F931F9384
:10529000CF93DF930E949B290E94A329C8EDD0E001
:1052A00088818F77888388818068888388818F7DD3
:1052B000888319BC1092F3041092EF041092F10449
:1052C0001092F00400EE10E0F80180818B7F808363
:1052D00088818160888342E060E080E00E94A828A5
:1052E000E1EEF0E080818E7F8083E2EEF0E080816D
:1052F00081608083808188608083F80180818E7FD7
:105300008083888180618883DF91CF911F910F9185
:105310000895E8EDF0E080818F7E8083E7EDF0E096
:1053200080818160808384E082BF81E08093F20489
:105330000E9446290895E8EDF0E080818E7F808309
:105340001092E20008951092DA001092E1000895A0
:105350001F920F920FB60F9211242F933F934F93EA
:105360005F936F937F938F939F93AF93BF93EF93CD
:10537000FF938091E10082FF0BC08091E20082FFE9
:1053800007C08091E1008B7F8093E1000E94072C91
:105390008091DA0080FF19C08091D80080FF15C08D
:1053A0008091DA008E7F8093DA008091D90080FFAF
:1053B00096C080E189BD82E189BD09B400FEFDCFC0
:1053C00081E08093F3040E94E8258091E10080FF52
:1053D00019C08091E20080FF15C08091E2008E7FAD
:1053E0008093E2008091E20080618093E2008091EE
:1053F000D80080628093D80019BC85E08093F304C4
:105400000E94FC258091E10084FF2BC08091E20086
:1054100084FF27C080E189BD82E189BD89B5982FCD
:10542000917080FFFBCF8091D8008F7D8093D80052
:105430008091E1008F7E8093E1008091E2008F7E79
:105440008093E2008091E20081608093E20080918D
:10545000EF04882309F449C084E08093F3040E9498
:1054600005268091E10083FF29C08091E20083FF3F
:1054700025C08091E100877F8093E10082E08093E6
:10548000F3041092EF048091E1008E7F8093E1009D
:105490008091E2008E7F8093E2008091E200806143
:1054A0008093E20042E060E080E00E94A8288091C2
:1054B000F00088608093F0000E94F925FF91EF9141
:1054C000BF91AF919F918F917F916F915F914F911C
:1054D0003F912F910F900FBE0F901F90189519BC00
:1054E0001092F3040E94F62570CF8091E30087FDAF
:1054F00093E09093F304B3CF1F920F920FB60F92E5
:1055000011242F933F934F935F936F937F938F93C8
:105510009F93AF93BF93CF93DF93EF93FF93D0917C
:10552000E900DF708091EC00C82FC17080FDC0E8F9
:105530001092E9008091F000877F8093F0007894CA
:105540000E94C02A1092E9008091F0008860809348
:10555000F000CD2BCF70C093E900FF91EF91DF9168
:10556000CF91BF91AF919F918F917F916F915F91FB
:105570004F913F912F910F900FBE0F901F90189554
:10558000AAE2B0E0E6ECFAE20C94782F84EF94E023
:105590002091F100FC012193CF01F4E08C3F9F07A3
:1055A000B9F70E9425268091E80083FF1EC18091F3
:1055B000F4049091F5049A3008F017C1E92FF0E057
:1055C000EC5AFF4C0C94632F803899F0823809F024
:1055D0000CC18091F8048F70873008F006C1809369
:1055E000E9008091EB0085FB882780F91092E900A3
:1055F00006C08091F0049091F10491118260909125
:10560000E800977F9093E8008093F1001092F100FA
:105610008091E8008E77E5C0882309F4D3C08230FA
:1056200009F0E3C08091F6048111D6C08091F8049E
:105630008F702FEF280F263008F0D7C08093E90035
:105640002091EB0020FFC8C0933031F48091EB0033
:1056500080628093EB00C0C09091EB0090619093CA
:10566000EB0021E030E001C0220F8A95EAF7209399
:10567000EA001092EA008091EB008860EACF811185
:10568000B4C01091F6041F778091E3008078812BDD
:105690008093E3008091E800877F8093E8000E9478
:1056A000DC288091E80080FFFCCF8091E3008068D7
:1056B0008093E30082E0111183E08093F30495C0AE
:1056C0008058823008F091C08091F6049091F704E0
:1056D0008C3D23E09207A1F583E08A838AE28983E7
:1056E0004FB7F894DE01139620E03EE051E2E32F3D
:1056F000F0E050935700E49120FF03C0E295EF7073
:105700003F5FEF708E2F90E0EA30C0F0C7968D9328
:105710009D932F5F243159F74FBF8091E800877F19
:105720008093E8006AE270E0CE0101960E94EB27C8
:105730008091E8008B778093E80057C0C096E7CF50
:105740006091F8047091F904AE014F5F5F4F0E94C1
:105750002627BC01892B09F448C09091E800977F67
:105760009093E80089819A810E944928E1CF80388E
:10577000E1F58091E800877F8093E8008091EF0455
:105780008093F10045CF811130C09091F6049230A2
:1057900060F58091E800877F8093E8009093EF04A4
:1057A0000E94DC288091EF04882311F084E005C07A
:1057B0008091E30087FDFACF81E08093F3040E949B
:1057C000102613C08091F604813079F481E0933083
:1057D00009F080E08093F1041092E9008091E800E4
:1057E000877F8093E8000E94DC288091E80083FF97
:1057F0000AC08091E800877F8093E8008091EB00E9
:1058000080628093EB00AA96E3E00C94942F0895B5
:10581000CF938091F3048823A1F0C091E900CF7069
:105820009091EC00892F817090FD80E8C82B109238
:10583000E9008091E80083FD0E94C02ACF70C093E8
:10584000E900CF9108955058BB27AA270E943B2C0E
:105850000C944E2E0E94402E38F00E94472E20F0CD
:1058600039F49F3F19F426F40C943D2E0EF4E09584
:10587000E7FB0C94292EE92F0E945F2E58F3BA17EC
:10588000620773078407950720F079F4A6F50C9456
:10589000812E0EF4E0950B2EBA2FA02D0B01B9012D
:1058A00090010C01CA01A0011124FF27591B99F096
:1058B000593F50F4503E68F11A16F040A22F232FA2
:1058C000342F4427585FF3CF469537952795A795F2
:1058D000F0405395C9F77EF41F16BA0B620B730B99
:1058E000840BBAF09150A1F0FF0FBB1F661F771F0A
:1058F000881FC2F70EC0BA0F621F731F841F48F4BF
:10590000879577956795B795F7959E3F08F0B0CF47
:105910009395880F08F09927EE0F9795879508952E
:105920000E94052E08F481E008950E94A92C0C9491
:105930004E2E0E94472E58F00E94402E40F029F42F
:105940005F3F29F00C94292E51110C94822E0C9457
:105950003D2E0E945F2E68F39923B1F3552391F3F6
:10596000951B550BBB27AA2762177307840738F0CE
:105970009F5F5F4F220F331F441FAA1FA9F335D02B
:105980000E2E3AF0E0E832D091505040E695001CDF
:10599000CAF72BD0FE2F29D0660F771F881FBB1F99
:1059A000261737074807AB07B0E809F0BB0B802D77
:1059B000BF01FF2793585F4F3AF09E3F510578F0A3
:1059C0000C94292E0C94822E5F3FE4F3983ED4F37E
:1059D000869577956795B795F7959F5FC9F7880F77
:1059E000911D9695879597F90895E1E0660F771FC9
:1059F000881FBB1F621773078407BA0720F0621B5A
:105A0000730B840BBA0BEE1F88F7E09508950E9484
:105A1000672E88F09F5798F0B92F9927B751B0F0AB
:105A2000E1F0660F771F881F991F1AF0BA95C9F722
:105A300014C0B13091F00E94812EB1E008950C9411
:105A4000812E672F782F8827B85F39F0B93FCCF3C4
:105A5000869577956795B395D9F73EF4909580959F
:105A6000709561957F4F8F4F9F4F0895E89409C0BF
:105A700097FB3EF490958095709561957F4F8F4F81
:105A80009F4F9923A9F0F92F96E9BB279395F69597
:105A9000879577956795B795F111F8CFFAF4BB0F15
:105AA00011F460FF1BC06F5F7F4F8F4F9F4F16C079
:105AB000882311F096E911C0772321F09EE8872F03
:105AC000762F05C0662371F096E8862F70E060E0BF
:105AD0002AF09A95660F771F881FDAF7880F969538
