:100000000C94D5020C940D030C940D030C940D0369
:100010000C940D030C940D030C940D030C940D0320
:100020000C940D030C940D030C94F72D0C94CA2E14
:100030000C94E0280C940D030C940D030C940D0308
:100040000C940D030C940D030C940D030C940D03F0
:100050000C940D030C9498290C940D030C940D032F
:100060000C940D030C940D030C940D030C940D03D0
:100070000C940D030C940D030C940D030C940D03C0
:100080000C940D030C940D030C940D030C940D03B0
:100090000C940D030C940D030C940D030C940D03A0
:1000A0000C940D030C940D030C940D032900140003
:1000B0001A000800150017001C0018000C001200A0
:1000C00013002E002B0004001600070009000A0090
:1000D0000B000D000E000F00000028002C221D0058
:1000E0001B0006001900050011001000360000007A
:1000F00037004C00E000E300E2002C41000000006B
:100100002C420000000038002D002D0201004A00A2
:1001100052004D002F003000010001002402310286
:10012000417E01000100500051004F0026022702CD
:10013000010001003300340000002A000100027EAB
:10014000037E047E057E010001000100E200000044
:100150000100010001000100010001000000000099
:100160002C430000000001000100010001001E00FE
:100170001F0020002100220023002400250026006B
:1001800027000100270021002200230001000100B8
:10019000010001003300340000002A0001002400A7
:1001A00025002600010001000100010001000000FF
:1001B000010001000100010001002C4300000000CB
:1001C0000100000000000100010001005F7ED1007D
:1001D000CD00D2003A003B003C00010001000100CC
:1001E0000100007C0100CF00CE00D0003D003E00A9
:1001F0003F000100010001000000007E0100D90065
:10020000D300DA00400041004200430004520000E5
:100210004500010001000100010001000000000094
:10022000010000000000597E5A7E20781E00060062
:100230001A000800150017003C0000000000000034
:10024000000029001F0004001600070009000A0032
:100250003E0000000000000000002800E100140043
:1002600021001B00050005003A00000000520000BC
:100270005200E100E000E20020002C00000000003D
:10028000017E00000000500051004F0000010101FC
:100290000101010101010202020202020202020343
:1002A0000303030303030304040404040404050513
:1002B00005050506060606060707070707080808D6
:1002C00008090909090A0A0A0B0B0B0C0C0C0D0D85
:1002D0000D0E0E0E0F0F0F1010111111121213131D
:1002E0001414151516161717181819191A1A1B1B96
:1002F0001C1D1D1E1E1F20202122222324242526F2
:1003000026272829292A2B2C2D2D2E2F3031323229
:10031000333435363738393A3B3C3D3E3F40414235
:10032000434445464748494A4C4D4E4F505153541B
:10033000555658595A5B5D5E5F61626465666869CF
:100340006B6C6D6F7072737577787A7B7D7E80824F
:10035000838587888A8C8E8F91939596989A9C9E98
:10036000A0A2A3A5A7A9ABADAFB1B3B5B7BABCBEA8
:10037000C0C2C4C6C9CBCDCFD1D4D6D8DBDDDFE275
:10038000E4E7E9EBEEF0F3F5F8FAFDFF000000001A
:10039000000000002A2B28000000000000000000E0
:1003A0000000000000000029000000002C1E342086
:1003B000212224342627252E362D3738271E1F20AC
:1003C0002122232425263333362E37381F040506F1
:1003D0000708090A0B0C0D0E0F1011121314151635
:1003E0001718191A1B1C1D2F3130232D3504050633
:1003F0000708090A0B0C0D0E0F1011121314151615
:100400001718191A1B1C1D2F3130354C0000000025
:1004100000000000000000000000000000000000DC
:1004200000000000000000000000000000000000CC
:100430007E0F00D4FFFFFFC7000000780C034600CA
:1004400065006200340030000000120366006500A1
:1004500062007200650065007A0065000000040318
:10046000090409023B00020100A0FA09040000018E
:100470000301010009211101000122440007058147
:100480000308000109040100010300000009211113
:1004900001000122B60007058203200001120100BD
:1004A0000200000008646942000001010200010529
:1004B000010902A10185020901A10005091901290B
:1004C000081500250195087501810205010930090B
:1004D000311581257F95027508810609381581251A
:1004E0007F950175088106050C0A38021581257F64
:1004F000950175088106C0C005010980A101850329
:1005000019012AB700150126B70095017510810061
:10051000C0050C0901A101850419012AA0021501D9
:1005200026A002950175108100C005010906A101F0
:100530008506050719E029E71500250195087501CD
:1005400081020507190029EF1500250195F07501B5
:10055000810205081901290595057501910295018A
:1005600075039101C005010906A101050719E029DC
:10057000E71500250195087501810295017508812F
:10058000010507190029FF150026FF0095067508CB
:10059000810005081901290515002501950575013A
:1005A0009102950175039101C00011241FBECFEF88
:1005B000DAE0DEBFCDBF04B603FE18C0809114059B
:1005C00090911505A0911605B09117058730904BB5
:1005D000A740B04B59F410921405109215051092D3
:1005E000160510921705E0E0F8E3099512E0A0E087
:1005F000B1E0E8E5F9E602C005900D92A836B10732
:10060000D9F725E0A8E6B2E001C01D92A431B207F7
:10061000E1F70E94D01A0C9456340C940000CF934A
:10062000DF93EC010E947F1491E0811190E09883A8
:1006300021E0982F917109F420E02983982F91707F
:100640009A8384FB992790F99B8321E0982F9474D7
:1006500009F420E02C8382FB992790F99D8386FB87
:10066000992790F99E8321E0982F987809F420E04B
:100670002F8383FB992790F99887982F991F9927A3
:10068000991F998721E0982F927209F420E02A8718
:1006900081FB992790F99B8785FB882780F98C87B8
:1006A000CE01DF91CF9108959C01803E910551F4D8
:1006B0006093FC026093FB02263E3105D9F46093FF
:1006C00000030EC0843E910571F0833E910571F0E8
:1006D000873E9105B9F0823E910571F76093FF0264
:1006E0006093FE0208956093FD02E4CF60930203DD
:1006F00060930103213E310549F460930503609343
:10070000040308956093030360930103253E3105BC
:1007100009F0089560930603F2CF982F862F99234E
:1007200019F00E94821408950E9488140895CF93AE
:10073000DF93CAEFD2E061E08A810E948D0360E11D
:100740008B810E948D0368E088850E948D0360E89C
:1007500089850E948D0364E08D810E948D0360E491
:100760008E810E948D0362E08B850E948D0360E282
:100770008C850E948D03DF91CF910895FB018F3509
:100780009E4781F48581882371F0209108032F5FB3
:10079000922F917827FF03C091509E6F9F5F909397
:1007A0000803089580E00895CF92DF92FF920F939F
:1007B0001F93CF93DF93F82E092F6B0180910001D7
:1007C000909101010E94760AEC01892BE9F0888161
:1007D0008823D1F0F6011581112369F08F2D902F18
:1007E0000E94FE0A80910001909101010E94FE0A80
:1007F000CE010E943B26812FDF91CF911F910F9157
:10080000FF90DF90CF90089510E0F5CFFF920F9307
:100810001F93CF93DF93F82E092FFB012181C08115
:100820008C2F90E0EC01CC0FDD1FC80FD91F84E2A4
:10083000289FC00DD11D1124C659DD4F1881858117
:10084000882331F1111131C0109107031123D1F028
:1008500081E0888380910001909101019A838983CE
:1008600060E08F2D902F0E94540361E089819A816E
:100870000E9454038F2D902F0E94FE0A89819A8135
:100880000E94E80A812FCDB7DEB7E5E00C94E03393
:100890001123C1F3188289819A810E94FE0A60E0C7
:1008A00089819A810E945403EDCF10E0EBCFADE037
:1008B000B0E0EDE5F4E00C94B7333C012B010E946D
:1008C000BE03182F8111A6C0C30190528115904319
:1008D00028F4F2018681807F09F48BC0109207030F
:1008E0007092010160920001CE0101960E940F03F7
:1008F0008DE0FE013196AAEFB2E001900D928A954B
:10090000E1F78FEF0E948814F201858161E0811187
:1009100001C060E0C3010E945403A090FA02B090AD
:10092000FB02C090FC02D090FD02E090FE02F0902D
:10093000FF02009100031091010320910203309106
:1009400003034091040350910503609106038091D5
:100950000001909101010E9440091C018F3F9807FE
:1009600021F0909301018093000180900803082CEE
:10097000000C9908A090FA02B090FB02C090FC0213
:10098000D090FD02E090FE02F090FF020091000383
:10099000109101032091020330910303409104035D
:1009A000509105036091060380910001909101012F
:1009B0000E94F6099C012F3F320721F0309301017C
:1009C000209300012222332281E09FEF291639066D
:1009D00009F480E080930703EFEF2E163E0671F0D6
:1009E0008091000190910101892B41F411E00E9456
:1009F0009703812F2D96E2E10C94D333B201C3010A
:100A00000E94D4038111F2CFB201C3010E940604F7
:100A1000182FEDCF10E0EDCF8091000190910101F2
:100A20000895ABE0B0E0E7E1F5E00C94B7336987F7
:100A30004D83282F30E050E040E029833A834B83F8
:100A40005C83CA01B9010E94863120E030E04FE7A3
:100A500053E469837A838B839C8369817A818B8158
:100A60009C810E94E3305B016C019985892F90E0A5
:100A7000B0E0A0E089839A83AB83BC83BC01CD0145
:100A80000E94863120E030E04FE753E469837A83A7
:100A90008B839C8369817A818B819C810E94E33066
:100AA0003B014C013D81232F30E050E040E02983A1
:100AB0003A834B835C83CA01B9010E94863120E0EE
:100AC00030E04FE753E469837A838B839C836981A9
:100AD0007A818B819C810E94E3301B012C019B0158
:100AE000AC0169827A828B829C8269817A818B8156
:100AF0009C810E94C1319B01AC01A982BA82CB8248
:100B0000DC8269817A818B819C810E94C1318B0159
:100B10008B879A879101A20169827A828B829C825B
:100B200069817A818B819C810E94E0319B01AC01BB
:100B3000A982BA82CB82DC8269817A818B819C8195
:100B40000E94E0319B01AC0109831A838B858B8362
:100B50009A859C8369817A818B819C810E94713006
:100B60007B018983998720E030E0A9016D83FE82B3
:100B70008F8398876D817E818F8198850E94DE307A
:100B8000882309F433C198014B855A85AD82BE8212
:100B9000CF82D8866D817E818F8198850E94DE30DC
:100BA0008111BBC09101A2016D827E828F829886E5
:100BB0006D817E818F8198850E9471309701498176
:100BC00059856D837E838F8398876D817E818F8128
:100BD00098850E94E33020E030E040EC50E46D83E3
:100BE0007E838F8398876D817E818F8198850E9417
:100BF0000A3220E030E040E752E46D837E838F8349
:100C000098876D817E818F8198850E94DB325B01A0
:100C10006C0120E030E0A9010D831E83AB85AF831A
:100C2000BA85B8876D817E818F8198850E94DE307C
:100C3000882309F4E0C098014B855A85ED82FE8235
:100C400089818F83998598876D817E818F81988531
:100C50000E94E3304B017C0120E030E04FE753E499
:100C6000A982BA82CB82DC8269817A818B819C8164
:100C70000E94DB3220E030E044EB53E469837A8366
:100C80008B839C8369817A818B819C810E94E33074
:100C900069837A838B839C8369817A818B819C8130
:100CA0000E945531D62E20E030E04FE753E4898290
:100CB0009A82EB82FC8269817A818B819C810E947D
:100CC000DB3269837A838B839C8369817A818B8110
:100CD0009C810E945531F62E20E030E04FE753E42E
:100CE00009831A83AB85AB83BA85BC8369817A811A
:100CF0008B819C810E94DB3269837A838B839C8306
:100D000069817A818B819C810E945531862F6D2D5E
:100D10007F2D2B96E2E10C94D33398014B855A85B5
:100D20006D827E828F8298866D817E818F8198858B
:100D30000E94DE30811128C09501A6012D823E82DD
:100D40004F8258866D817E818F8198850E94713097
:100D50009701498159856D837E838F8398876D8143
:100D60007E818F8198850E94E33020E030E040E072
:100D700050E46D837E838F8398876D817E818F8120
:100D800098850E94723035CF98014B855A852D8207
:100D90003E824F8258866D817E818F8198850E9428
:100DA000DE3081111EC09301A401AD82BE82CF82CC
:100DB000D8866D817E818F8198850E9471309701E0
:100DC000498159856D837E838F8398876D817E816C
:100DD0008F8198850E94E33020E030E040E850E4C5
:100DE000C8CF60E070E080E090E003CFA12CB12C90
:100DF000C12CD12C0ECF812C912CE12CF12C2CCF9D
:100E000080930C0360930B0340930A030E94110527
:100E1000962F672F482F892F90E00E940C2008956D
:100E200080E40E9477200E94BA1F0E94A81F809130
:100E30000D03882351F083E00E94D81F80E00E94B8
:100E4000521083E00E945210089582E0F5CF809105
:100E5000B0018823B9F180913703909138030E9443
:100E60002C0C843089F520E040E060E088E190E0DF
:100E70000E94801C20910A0340910B0360910C0397
:100E800087E290E00E94801C20910A0340910B03AE
:100E900060910C038CE190E00E94801C20910A0379
:100EA00040910B0360910C038BE190E00E94801C49
:100EB00020910A0340910B0360910C038AE190E0BA
:100EC0000E94801C81E0089580910D0320E040E0A5
:100ED00060E0811106C020910A0340910B036091EC
:100EE0000C0388E190E0ECCF8330A1F068F481300E
:100EF000A1F08230C1F0809108034FEF6FEF813095
:100F000039F460E088E80CC045E06BE3843099F781
:100F10008FEF06C040E06FE6FBCF4AE46FEF83E05F
:100F20000E94000708954FEF6BE385E0F9CF1F9310
:100F3000CF93DF93182FD92F0E942C0CC82F8091AC
:100F400009038C1729F08C2F0E947407C0930903A2
:100F5000812F9D2FDF91CF911F91089580E00E94F6
:100F600074070E94100780E00E9452100895CF93EA
:100F70009C01FB01C581CC2379F089559E470297DE
:100F8000A8F429353E4759F480910D0391E0892753
:100F900080930D030E9410078C2FCF9108958091AC
:100FA000B00191E089278093B001F4CFC0E0F4CF85
:100FB0009C01FB0145818B7F803E910541F440936C
:100FC0001503223E310541F44093160305C0833ECC
:100FD0009105B9F74093170380911503811139C02A
:100FE00080911703811135C0809116038170809321
:100FF0001803442389F12B32310509F048C0909140
:101000001403911144C0882309F441C0809108035E
:101010008130C1F480911703882341F083EE90E082
:101020000E94FE0A80EE90E00E94E80A809116037A
:10103000882341F082EE90E00E94FE0A83EE90E069
:101040000E94E80A81E00E94521081E0809314031C
:10105000089581E090E0CACF909114039923B9F0EC
:10106000811115C080910803813061F480EE90E019
:101070000E94FE0A83EE90E00E94FE0A82EE90E05B
:101080000E94FE0A80E00E945210109214030895FC
:101090000E94AE0708959C019D7F8C32914451F0CF
:1010A0002C3282E4380731F081E021153C4719F0F9
:1010B00080E0089581E00895FB01C99739F48581A6
:1010C000811104C089E390E00E942E0B0895CF9314
:1010D000FB0181309E4721F0C0E08C2FCF91089515
:1010E000C581C0931103CC23B9F381E080930F0332
:1010F00080913A0490913B040E94692990933D04A9
:1011000080933C040E94402990933B0480933A04CE
:10111000109213031092120320913C0430913D046D
:101120008091B1019091B20128173907B0F681E0A2
:1011300090E09093130380931203CFCF80910F031D
:101140008823E9F18091100390911103911119C046
:101150008823A9F110920F038BE290E00E94FE0A0F
:1011600089E390E00E94FE0A80910E03882331F00B
:1011700089E390E00E942E0B10920E031092100350
:10118000089581111CC08091120390911303892B43
:1011900031F48BE290E00E94E80A10920E038091F5
:1011A000120390911303019739F489E390E00E94B0
:1011B000E80A81E080930E0381E080931003089594
:1011C0000E949E080895CF93FB01C0E08C329242AA
:1011D00051F4C581CC2339F08681807F39F08CE2CF
:1011E0009FE00E942E0B8C2FCF91089581EE90E00E
:1011F000F8CFEF92FF920F931F93CF93DF93F82EC8
:10120000092FD62FC72F0E944B08182F81112FC0EE
:101210006D2F7C2F8F2D902F0E945704E82E0E9457
:101220000C05F82E092F6D2F7C2F0E94B707811116
:101230001EC06D2F7C2F8F2D902F0E94670881116B
:1012400016C06D2F7C2F8F2D902F0E94E3088111E7
:101250000EC011E01E256D2F7C2F8F2D902F0E9428
:10126000D8076D2F7C2F8F2D902F0E945C08812F27
:10127000CDB7DEB7E6E00C94DF338FE690E008955B
:10128000ADE0B0E0E6E4F9E00C94BF33A982BA82A5
:101290008932910539F4E110A3C0442391F085E32C
:1012A00090E01AC08832910539F48AE290E0411149
:1012B00013C08FEF9FEF10C081152EE7920709F43E
:1012C00092C02A818433910559F4411105C0898166
:1012D000882379F384E392E02D96EAE00C94DB33E3
:1012E0008D3232E0930719F4442319F3F5CF8E328F
:1012F0009105D1F38F32910529F486E392E04423DE
:10130000C1F2EACF8033910529F487E392E04423C8
:1013100081F2E2CF863232E0930729F48FE292E045
:10132000442339F2D9CF873232E0930731F480E396
:1013300092E0442309F4BDCFCFCF843232E093074B
:1013400031F480E49EE7442309F4B3CFC5CF813361
:1013500032E0930731F48FE19EE7442309F4A9CFEB
:10136000BBCF8633910531F48EE192E0442309F43A
:10137000A0CFB2CF8733910531F488E392E04423C4
:1013800009F497CFA9CF8833910531F481E390E038
:10139000442309F48ECFA0CF8A34910531F48BE435
:1013A00090E0222309F485CF97CF8D34910531F455
:1013B0008EE490E0222309F47CCF8ECF8632910513
:1013C00031F485E392E0442309F473CF85CF8D9700
:1013D00009F06FCF87E590E0442309F46ACF7CCF12
:1013E0008BE290E079CF88E292E176CFADE0B0E099
:1013F000ECEFF9E00C94BD339C01BA8281E08816D1
:10140000910409F056C0203E310509F460C0D8F4BB
:101410002D34310509F447C048F42A31310589F1EA
:101420002A343105D9F18FEF9FEF1DC02F343105DC
:1014300071F120353105B9F71123A9F3411153C0DA
:1014400080E594E010C023308EE7380709F442C0ED
:1014500070F480EE90E0233E310529F022303E47C3
:1014600011F78DE198E02D96ECE00C94D9332430FF
:101470008EE7380791F125303E47A9F689E198E0DB
:10148000F2CF8A81882379F28AE198E0ECCF1123A8
:1014900051F2411125C08FE494E0E5CF112319F2F8
:1014A0008BE490E0E0CF112309F4BDCF8EE490E00F
:1014B000DACF22503E472430310508F0B4CF220F56
:1014C000331FF901E452FE4F80819181CCCF83EE2E
:1014D00090E0C9CF8BE198E0C6CF86E098E0C3CF1B
:1014E0008FE496E0C0CF80E596E0BDCF9C012F3120
:1014F0008EE7380751F020348EE7380749F0213461
:101500003E4749F489ED91E0089583ED91E0089517
:1015100086ED91E0089588ED91E008958530B8F466
:101520006430A8F44C3098F4E42FF0E09CE0699F1C
:10153000E00DF11D112490E3899FE00DF11D1124B0
:10154000EE0FFF1FE455FF4F85919491089581E0C0
:1015500090E008950E948E0A08959C019A95811545
:101560009F4150F5D901AA27B170F901EE27F27019
:10157000B90166277470A9014427587034FF0EC062
:1015800080E1AB2B09F480E0EF2B09F08062672B40
:1015900009F08064452B89F08068089581E0AB2BC9
:1015A00009F480E0EF2B09F08260672B09F084607A
:1015B000452B19F08860089580E00895CF93DF935C
:1015C000EB010E94AD0AFE010995DF91CF910895CC
:1015D000CF93DF93EC01805E9109089720F061EBD7
:1015E0007FE0209711F46EE67DE0CE010E94DE0AD6
:1015F0008C2F0E94D20CDF91CF910895CF93DF936F
:10160000EC010E941A0DCE01805E9109089720F02E
:1016100068EB7FE0209711F465E77DE0CE010E9442
:10162000DE0ADF91CF9108950F931F93CF93DF933D
:101630008C01EB010E94E80A209741F4C8010E9446
:10164000FE0ADF91CF911F910F9108958FE99FE0DE
:101650000197F1F700C000002197EECF70E060E045
:101660008933910511F460E570E00E94140B089530
:1016700081E008950E94380B089581E008950E944A
:10168000F908089508950E94420B0895A6E0B0E07D
:10169000ECE4FBE00C94C63349835A839E8330917B
:1016A0001E0389819A8131111AC03E81332399F03A
:1016B000222389F00E942511182F682F89819A8191
:1016C0000E94011169817A81812F0E9474182696E7
:1016D000E3E00C94E2330E941311182FF3CF0E9421
:1016E000251169817A81F1CFFC01262F408151813A
:1016F00062817381848195810E94460B0895CF9306
:10170000DF93D82FC92F61E00E94740B6D2F7C2FBF
:101710000E943A0BDF91CF910895CF93DF93D82F9A
:10172000C92F60E00E94740B6D2F7C2F0E94430B29
:10173000DF91CF91089581E008950E949B0B089559
:10174000CF93C82F0E94D50F8C2F0E949D0B2FEF97
:1017500084E39CE0215080409040E1F700C000000D
:10176000CF91089581E00E94A00B0E94BC290895AA
:1017700080E00E94A00B0E94E02908950F931F9320
:10178000CF93DF938C0161E00E94740BEC01B801F0
:101790000E943F0B811106C080E0DF91CF911F9125
:1017A0000F910895B801CE010E94AE268823A1F3BF
:1017B000B801CE010E94BC21882371F3B801CE018B
:1017C0000E949221882341F3B801CE010E94EC20AF
:1017D000882311F3F8018581882381F0CA35FCE75D
:1017E000DF0711F178F4C130ECE7DE07D1F0C33048
:1017F000FCE7DF07A1F0C115DC4771F0C8010E94CA
:101800003D0BCBCFCB35ECE7DE0789F0CC35DC47A1
:10181000A9F70E949115F2CF0E94B20BBDCF0E9492
:10182000A3150E94B80BB8CF0E949B15E7CF0E946A
:101830009F15E4CF0E94BC280E94441E0E946D0C9C
:1018400081E00E94721F08950E94710C80E00E9446
:10185000721F0E94C12808959C01892F9927009723
:10186000E9F09C0188E0A90174E0569547957A95C6
:10187000E1F74115510511F08C5F9A01A9015695C8
:101880004795569547954115510511F08E5F9A0180
:1018900036952795232B09F08F5F089580E0E3CFDD
:1018A000089581E008950895CF93DF93D82F0E9483
:1018B000510CC82F882319F08D2F0E94530C8C2FA8
:1018C000DF91CF9108950895CF93C82F0E94500CB7
:1018D0008C2F0E94540CCF91089580E00E94640CDC
:1018E00008950E94F6260E94640C0895CF930E94EA
:1018F000F626C82F809119038C1779F0C09319032D
:101900000E944C2960931A0370931B0380931C035D
:1019100090931D038C2F0E94640CCF910895ADE02D
:10192000B0E0E5E9FCE00C94C733488759876A8743
:101930007B878C879D8791110E94A1141F8286E06E
:10194000FE013896DE01119601900D928A95E1F71D
:101950008D8181110DC029813A814B815C816D811E
:101960007E818F810E94E8132D96E2E00C94E33390
:10197000CE0101960E947F0B8111EDCFF5CFFC01C6
:101980008481813021F4808191810E9457110895D2
:10199000662329F00E941D230E94022408950E94BC
:1019A0008923FACFCF93C82F882399F08CEF8C0F1F
:1019B000813A88F48C2F0E949A27882329F08C2F53
:1019C0000E943C280E9435158C2F0E9425280E94D9
:1019D0003515CF91089580E28C0F883048F4C77098
:1019E00081E001C0880FCA95EAF70E948214EFCF08
:1019F0008BE58C0F833038F42C2F2452330BC90124
:101A00000E942C27E6CFE8E5EC0FEB3150F4F0E034
:101A1000EE0FFF1FEC51FE4F808191810E945227F3
:101A2000D8CF83E38C0F8331A0F661E08C2F0E9426
:101A3000C80CCFCF882381F19CEF980F913A28F4FE
:101A40000E943C280E943515089590E2980F983026
:101A500050F4877091E001C0990F8A95EAF7892FB9
:101A60000E948814EFCF9BE5980F933028F490E004
:101A700080E00E942C27089598E5980F9B3128F468
:101A800090E080E00E945227089593E3980F9331ED
:101A900018F460E00E94C80C08951F93CF93DF9361
:101AA000182FEB010E94D20C209739F4812F0E944D
:101AB0001A0DDF91CF911F9108958FE99FE0019753
:101AC000F1F700C000002197EFCF70E060E08933AC
:101AD00011F460E570E00E944D0D0895882321F017
:101AE0000E9482140E9435150895882321F00E94D7
:101AF00088140E9435150895B0E0A0E0E2E8FDE00A
:101B00000C94BF336C01D62FC72FFC0115810681C1
:101B100002950F700E947814E82E8823F9F0E12EC8
:101B20001123E1F08C2F807F803461F080E28D0FF3
:101B3000883000F18C2F807E803221F4D230D0F0BA
:101B40000023C1F080913F0482FF14C082E00E9414
:101B500065150E94781491E0E82EE9268C2F829575
:101B60008F70A82EB12C8C30B0F5F501E85AFB4CE3
:101B70000C94B133E12CF2CF0C2F0F70C07F11F019
:101B80000295007F112399F0002359F080E28D0F18
:101B9000883010F0D11107C0802F0E9482140E945B
:101BA00035158D2F5CC0802F0E949314F8CF8D2F98
:101BB0000E941A0D002379F080E28D0F883010F01A
:101BC000D11104C0802F0E94881403C0802F0E946E
:101BD00099140E94351588E0A81AB10894E0A91656
:101BE000B10420F40E94F6260E94640CEE2089F0D5
:101BF0000E94741480FD0DC0F60115820E946E14BF
:101C00000E945E10C6010E948E0F0E946E140E94F8
:101C10006E10CDB7DEB7EAE00C94DB33FC2FFF701B
:101C2000FF2EC07FC03219F0F29480EFF822DD233E
:101C300041F0D130D1F1112309F444C00023F1F077
:101C4000B0CF80913F0482FD15C0112359F0FF20D1
:101C500029F08F2D0E9482140E94351580E00E9489
:101C6000D20CB9CF80E00E941A0DFF2009F4B3CF47
:101C70008F2DA9CF112369F0011104C08F2D0E946F
:101C80006E0DA9CF013009F0A6CF8F2D0E94B81498
:101C9000A2CF0111A0CF8F2D0E94750D8F2D0E9414
:101CA000C4148F2D0E94A81496CF112321F0063062
:101CB00008F091CFE3CF053008F08DCF8F2D0E9433
:101CC000750D89CF0023D1F3D93349F42FEF87EE77
:101CD00093E0215080409040E1F700C000008D2F3C
:101CE0000E941A0D78CF8C2F86958695837069F0A7
:101CF000813009F070CF8D2F9C2F9370111102C08D
:101D000080E090E00E94522766CF8D2F9C2F937029
:101D1000111102C080E090E00E942C275CCF612F5F
:101D20008D2F0E94C80C57CF8C2F8370A9F51111ED
:101D300052CF4D2F429546954770440F440F2D2F9B
:101D40002F7030E0042E02C0220F331F0A94E2F7F6
:101D500090E080E0D4FF09C08FE090E002C0880FDF
:101D6000991F4A95E2F780959095C695C695C370E0
:101D7000822B932BC23051F0C33059F0C13019F08F
:101D80000E94311028CF0E94281025CF0E943A10BF
:101D900022CF0E9425101FCF8695112311F08C2F82
:101DA0008170882309F417CF4D2F429546954770CF
:101DB000440F440F2D2F2F7030E0042E02C0220F4D
:101DC000331F0A94E2F790E080E0D4FF09C08FE06F
:101DD00090E002C0880F991F4A95E2F78095909590
:101DE000C695C695C370822B932BC23051F0C33079
:101DF00059F0C13019F00E949910EDCE0E94901058
:101E0000EACE0E94A210E7CE0E944610E4CECF7028
:101E1000112329F08C2F0E945E108D2F30CF8D2F33
:101E20000E94750D8C2F0E946E10D5CED23F41F1CD
:101E300060F4D03FB9F0D13F81F0112309F446C0DE
:101E40000111AFCE8C2F8F711FC0D33F01F1D43F52
:101E5000A1F780913F0482FD24C08C2F8F71112344
:101E600011F312C0112341F0053008F0B4CE8C2FCD
:101E70008F710E948010AFCE063008F0ACCEF7CF45
:101E80008C2F8F711111CFCF0E945E10A4CE112321
:101E900029F08C2F8F710E9452109DCE0E944D1000
:101EA0009ACE112349F0CF718C2F0E945E1063E00F
:101EB0008C2F0E9447158FCE81E00E94651502305D
:101EC00008F489CE82E00E94651585CE002359F082
:101ED000D93309F004CFEFEFF7EE23E0E150F04003
:101EE0002040E1F7FACE8C2F8F719DCF0F931F9377
:101EF000CF93DF93EC01688179818D810E94641119
:101F00008C010E94AB100E942410B801CE010E94E7
:101F10007C0DDF91CF911F910F910895CF93DF93A7
:101F2000EC018C81882399F0CE010E94BE0B8111B7
:101F300011C00E947814882351F08D81882339F0D4
:101F400080913F0482FF03C082E00E946515DF910B
:101F5000CF910895CE010E94760FCE010E948D0B85
:101F6000F6CF882321F00E9493140E94351508951E
:101F7000882321F00E9499140E943515089590E05D
:101F800080E00E942C2790E080E00E9452270E946F
:101F9000A1140E9435150E941D240E940224089558
:101FA0000E9453280E94BF0F08950E9490140E941F
:101FB000D00F0895282F92959F70963091F060F47D
:101FC000925F9F70923030F481E0203F81F030F4D6
:101FD000283E30F080E008959A5FF3CF243FD1F798
:101FE000089581E0283EE0F3213FA1F7F9CF08955D
:101FF000FC018481882339F0808191810E945711EE
:102000000E94DA0F089580E00895A6E0B0E0EBE0CA
:10201000F0E10C94C7332696E2E00C94E333A7E09A
:10202000B0E0E5E1F0E10C94C7332796E2E00C94D0
:10203000E33308950E94191008950E941A10909396
:102040003A0380933903089508950E941D1008955E
:102050002091390330913A03822B932B0E941D105B
:1020600008952091390330913A03822393230E94EB
:102070001D1008952091390330913A038227932748
:102080000E941D1008950E94970708950E94431012
:102090009093380380933703089590E080E00E9486
:1020A0004610089521E030E0A90102C0440F551FF9
:1020B0008A95E2F7CA010E944610089521E030E0B7
:1020C00002C0220F331F8A95E2F780913703909167
:1020D0003803822B932B0E944610089521E030E0B4
:1020E00002C0220F331F8A95E2F720953095809128
:1020F000370390913803822393230E94461008955A
:1021000021E030E002C0220F331F8A95E2F7809170
:10211000370390913803822793270E944610089531
:102120002091370330913803822B932B0E94461065
:1021300008952091370330913803822393230E941E
:102140004610089520913703309138038227932752
:102150000E944610089508959B01677091E001C0A8
:10216000990F6A95EAF763E0369527956A95E1F746
:10217000220F331F220F331FFA01E20FF31F50E02B
:1021800040E0682F70E08191DF0111979B01042EE0
:1021900002C0369527950A94E2F7217021952827E9
:1021A000292328272C934F5F5F4F4430510559F75F
:1021B00008959C01982F977083E0369527958A950E
:1021C000E1F7220F331F220F331FFB01E20FF31F32
:1021D00050E040E080E0219130E0092E02C03695C9
:1021E00027950A94E2F721703327042E01C0220FAD
:1021F0000A94EAF7822B4F5F5F4F4430510559F73D
:102200000895282F862F943068F42C3058F4622FCC
:1022100070E02CE0929F600D711D11244FE153E09E
:102220000E94AC100895292F943068F48C3058F433
:1022300090E06FE173E03CE0239F800D911D11243D
:102240000E94D910089580E00895B0E0A0E0EBE28C
:10225000F1E10C94C0338C01E0903703F090380327
:102260008091390390913A03E82AF92ACFE0D0E02F
:10227000CC24C394D12CBC2EC6010C2E02C0880FD6
:10228000991F0A94E2F78E219F21892B49F4219707
:1022900090F7B12C8B2DCDB7DEB7E9E00C94DC3391
:1022A000B8018C2F0E948018019789F3F3CFCF9348
:1022B000DF93D82FC92F0E9425116D2F7C2F0E94EC
:1022C0008018DF91CF9108951F93CF93DF93162F3E
:1022D000D72F90911E03992341F0862F972F0E94AC
:1022E0005711DF91CF911F910895882381F0862F98
:1022F000972F0E942511C82F682F812F9D2F0E9494
:102300000111612F7D2F8C2F0E948018EACF862F1C
:10231000972F0E941311C82FF4CF1F93CF93DF93F1
:10232000E0913B0317E080913C038E1304C0DF91E2
:10233000CF911F910895CE2FD0E01E9FF001112460
:10234000E35CFC4F2081318142815381648175813E
:1023500086810E940F10FE013196E770E4CF209134
:102360007503309176034091770350917803609123
:10237000790370917A0380917B030E940F10089576
:10238000982FE0913B0340913C0357E0E41302C0D7
:1023900080E008952E2F30E05E9FF0011124E35C71
:1023A000FC4F8181681306C08081981303C085812A
:1023B0008111EFCFF9013196E770E8CFB0E0A0E0EE
:1023C000E4EEF1E10C94C23380917B03807F09F04D
:1023D00054C080917A03882309F44FC0E0913B03F5
:1023E00087E0D82E80913C038E1709F446C00E2F4B
:1023F00010E0ED9DF0011124E35CFC4F8481882303
:1024000009F440C0D09EE001D19ED00D1124FE0100
:10241000E35CFC4F918180917603981333C09081E7
:102420008091750398132EC0858181112BC0E280A5
:10243000F3808091770390917803E81AF90A60E0BD
:1024400085E793E00E94740B65E773E00E943D0905
:10245000E816F906B8F480917B038F708061809351
:102460007B03CD5BDC4F88818F708061888385E73B
:1024700093E00E948E0F0E948D11CDB7DEB7E7E08A
:102480000C94DE33F8013196E770ACCFADE0B0E0EC
:10249000ECE4F2E10C94BA338C0186E0F801DE0141
:1024A000189601900D928A95E1F7F801F480E58085
:1024B00085E7882E83E0982E80917903811126C0CC
:1024C000F11007C0FF24F3948F2D2D96EFE00C94AC
:1024D000D633EE20B9F0C8010E94F80FF82E8823F9
:1024E00089F087E0F801A5E7B3E001900D928A95A5
:1024F000E1F785E793E00E94BF0C0E94DE110E9485
:10250000AF11E2CFC8010E948E0FDCCF5080A180B6
:10251000C280D380B0907A03809177039091780342
:102520003601681A790A60E085E793E0BB2009F478
:10253000EAC00E94740B65E773E00E943D096816CB
:10254000790608F0ABC0FF2009F4BCCF80917B0373
:10255000382F307F20917603F801918131115AC0D4
:10256000FE2C291316C0209175039081291311C0E8
:10257000E11049C08F70806180937B030E94AF118E
:1025800085E793E00E948E0F80917B03F80186839C
:102590009BCFE11038C06A2D852D0E94C0116A2D95
:1025A000852D0E94C011E82E81118ECF5886A986F4
:1025B000888599850E945711292F22952F70903474
:1025C00058F49F70223088F0992399F0F801968191
:1025D000907F79F4FE2C78CF2A5F2F70223068F03C
:1025E000C8010E948E0FEB2CF5CF992311F08823A0
:1025F00089F3805E883070F3F3CF803F58F3815FBA
:10260000833040F3EDCF80917B03816080937B0327
:10261000F12C5ACF291317C02091750390812913EB
:1026200012C0E11010C08683C8010E948E0F87E09F
:10263000F801A5E7B3E001900D928A95E1F70E94B9
:10264000AF11FB2C41CFC8010E94F80F882309F479
:1026500059CFEE2009F456CF80917B03803288F069
:1026600020917503309176033A832983DC82CB82F3
:10267000909179039D831E828F83CE0101960E94E3
:102680008E0F87E0F801A5E7B3E001900D928A95DF
:10269000E1F70E94DE110E94AF1114CF80917B03FD
:1026A000982F907FB1F46C2DDB86CA86452D5A2D6C
:1026B0007B858F2D9E2D0E94051085E793E00E945B
:1026C0008E0F87E0F40111928A95E9F70E94AF110D
:1026D0009FCFFF2009F4F6CE20917603F801918177
:1026E0002913B1CF2091750390812913ACCFE1104C
:1026F000AACF8683C8010E948E0F87E0F401119251
:102700008A95E9F79ECF0E94740B65E773E00E94FB
:102710003D096816790608F050C0FF2009F4D2CEB2
:10272000FE2CEE2009F4EECE90917603F801818123
:10273000981335C0909175038081981330C08091B3
:10274000770390917803C81AD90AFFE6CF16D1040F
:10275000E8F480917B0380FD19C0982F907FB1F041
:10276000F8018683903F31F0982F907F905F8F70B3
:10277000892B8683C8010E948E0F87E0F801A5E7A8
:10278000B3E001900D928A95E1F7B9CE87E0F801A8
:10279000A5E7B3E001900D928A95E1F795CEC801C7
:1027A0000E94F80F81116DCF80917B03816080932F
:1027B0007B03C8010E948E0F87CE6C2DDB86CA86F4
:1027C000452D5A2D7B858F2D9E2D0E94051079CF8A
:1027D000AEE0B0E0EEEEF3E10C94C6332887398723
:1027E0004A875B876C877D878E87CE0108960E941B
:1027F00046128823B1F06C85662341F0288539851F
:102800004A855B857D858E850E940F1017E080913B
:102810003B0390913C0389133EC02E96E3E00C9459
:10282000E23387E0FE013896DE01119601900D92A9
:102830008A95E1F74C85442349F320913C0330E02D
:10284000C90101968770992750913B0358171906C3
:10285000A1F04D8397E0929FD001939FB00D11247A
:10286000A35CBC4FFE01319601900D929A95E1F761
:1028700080933C030E948D11C9CF0E94D50F109206
:102880003C0310923B0387E0E5E7F3E0DF011D9294
:102890008A95E9F7BBCF819FC0011124835C9C4FCF
:1028A0000E944612882309F4B8CFE0913B031E9F93
:1028B000F0011124E35CFC4F20813181428153817E
:1028C0006481758186810E940F1080913B0390E0A6
:1028D00001968770992780933B0399CF8091A40339
:1028E00086958695869508958091A40387700895AE
:1028F0009091A403977081E009F480E0089580919D
:10290000D00308959091D003982B9093D00308950D
:10291000982F90958091D00389238093D0030895B8
:102920001092D00308959091CF03982B9093CF03EA
:102930000895982F90958091CF0389238093CF039A
:1029400008951092CF03089508950E94A414089545
:102950009091A503292F282331F080958923809316
:10296000A5030E94A514089508950E94B414089523
:102970009091A603292F2823281729F0982B9093AC
:10298000A6030E94B51408959091A603292F282329
:1029900031F0809589238093A6030E94B514089591
:1029A0008091A603882329F01092A60380E00E945C
:1029B000B5140895CF93C091D0038091CF03C82B55
:1029C0008091A603882331F0C82B0E9478278111BB
:1029D0000E94D0148C2FCF910895CF93DF93C09194
:1029E000B501D091B6010E94DA148883C091B50177
:1029F000D091B60148E050E06CE973E0CE010E944E
:102A0000EE33892B59F088E0FE01ACE9B3E0019088
:102A10000D928A95E1F7CE010E940327DF91CF91B5
:102A20000895CF93DF93C091B301D091B4010E9478
:102A3000DA148983C091B301D091B40140E250E02F
:102A40006CE773E0CE010E94EE33892B59F080E2EF
:102A5000FE01ACE7B3E001900D928A95E1F7CE015B
:102A60000E940E27DF91CF9108958091CF01882396
:102A700039F080913E0487FF03C00E94111508952C
:102A80000E94ED14089508950E94431508959091B1
:102A90003F0492FF11C098E0899F90011124622B9E
:102AA0006093A4030E945E108091A403869586958E
:102AB00086950E94441508950E945E100895109214
:102AC000A40380E00E94441508959091A40380958A
:102AD00089238093A403282F277069F4891759F05C
:102AE00090913F0492FF07C08695869586950E9437
:102AF0006E100E945F15089590913F0492FB22276B
:102B000020F9281769F080FB92F990933F04809197
:102B10003E0490913F040E94C41582E00E94651516
:102B2000089580913F0482FB882780F991E08927EE
:102B30000E947C15089581E00E947C15089580E034
:102B40000E947C1508956FEF7FEF90E080E00E9477
:102B50005034089590E080E00E941C349C0181E094
:102B6000263E3E4F09F080E0089582E090E00E940A
:102B70001434089583E090E00E941434089584E0B2
:102B800090E00E941C340895BC0184E090E00E9413
:102B900050340895AB01BC018FE090E00E944434B2
:102BA0000895AB01BC0183E190E00E944434089594
:102BB00060E070E0CB010E94D115089560E070E004
:102BC000CB010E94CA150E94D8150895A8E0B0E074
:102BD000ECEEF5E10C94C73366EE7EEF90E080E01A
:102BE0000E94503460E082E090E00E94323481E044
:102BF00090E090933A038093390361E083E090E0A2
:102C00000E94323460E074E184E090E00E9450342D
:102C100060E086E090E00E94323460E087E090E07F
:102C20000E94323440E050E0BA0188E090E00E9417
:102C3000443460E084E290E00E94323460E087E156
:102C400090E00E94323460E08CE090E00E943234E8
:102C500060E08DE090E00E94323419821A821B827B
:102C60001C821D821E821F82188648E050E068E1A7
:102C700070E0CE0101960E94223440E050E0BA019B
:102C800080E290E00E9444340E94DE152896E2E043
:102C90000C94E3330E94E6150895682F8EE090E0CF
:102CA0000E9432340895A6E0B0E0E9E5F6E10C9424
:102CB000C5330E9440298C018091D1039091D203A9
:102CC0008017910781F019821A820E944029682F8B
:102CD00049815A81792F80E090E00E948F0C1093F7
:102CE000D2030093D1032696E4E00C94E1330E94D2
:102CF0004C296093DF037093E0038093E10390938A
:102D0000E2036093DB037093DC038093DD03909315
:102D1000DE030895089508950E948A1608950E947A
:102D20004808089586E799E10E94DD1A0E948B16F3
:102D30000E948C16089581E008950E949B160895C4
:102D40000E949B160895089508950E94A3160E945C
:102D5000A41608950E94AA15811102C00E944A1665
:102D60000E94B5158093E3030E94BF1590933F0422
:102D700080933E040E948F210E94BA1590E00E9429
:102D8000251080913703909138030E9443100895D5
:102D90000E9437290E942E1A0E94AA160E94630CD4
:102DA0000E94131FEEE3F4E08081806880838091AD
:102DB0003E0490913F040E94C4150E948F1608950E
:102DC000A6E0B0E0E6EEF6E10C94BB330E949D165F
:102DD00081110CC00E9453160E94441E0E943E2482
:102DE0000E94760C2696EEE00C94D7330E94441A8B
:102DF00023ED822E23E0922E640110E0F601E19093
:102E0000F1906F01812F0E947F191F5F143009F428
:102E10004EC0E816F90691F38091E30381FD0E940C
:102E200088190E94A016782E10E0812F0E947F1929
:102E30007C01F401A190B1904F018A159B0589F1A5
:102E4000A826BF2400E0CC24C394D12CC5018C213A
:102E50009D21892BE9F066246394C7018C219D2173
:102E6000892B09F4612C772071F009831A830E9461
:102E70004029682F8B839C8349815A81792F81E077
:102E8000962D0E948F0C462D602F812F0E948C1C46
:102E90000F5FCC0CDD1C0C30C9F6F4013297F182C7
:102EA000E0821F5F143009F60E94771695CFE8166E
:102EB000F90609F0B1CF8ECF1F93CF93DF930E9415
:102EC0008518EC018115924508F05FC0C11580E5B9
:102ED000D80708F0DDC0C03ED10538F5CD3CD1059E
:102EE00008F0AEC0C83AD10580F4C53AD10508F063
:102EF000A4C0C130D10509F443C0CE010497813A82
:102F00009105F0F1D0E0C0E03BC0CE01885A9109B4
:102F10004B97C0F7C85AD0E0CC0FDD1FC65EDD4F1F
:102F20000990D881C02DD4642BC0C11590E4D90775
:102F3000F0F4C11520E2D20708F0C4C0C83ED105A4
:102F4000F8F0CE019A9581159F41E0F68D2F0E94F1
:102F50002719182FCE0199270E948518C12FD0E07C
:102F6000DC2FCC27CC27DF71C82BD92B09C0CE0191
:102F700099270E948518CC27DF70C82BD92BD06ADF
:102F8000CE01DF91CF911F910895C03882E5D80717
:102F9000B8F5C03692E5D90708F05BC0C03422E529
:102FA000D207C8F4C03282E5D80708F04BC02C2FF6
:102FB0002695269590E2299F900111248C2F8370ED
:102FC000C1E0D0E002C0CC0FDD1F8A95E2F7C22B32
:102FD000D32BDD68D5CF2C2F26952695277080E240
:102FE000289F900111248C2F8370C1E0D0E002C093
:102FF000CC0FDD1F8A95E2F7C22BD32BDC68C0CF44
:10300000C03C92E5D90760F48C2F8F71C03AD2454D
:10301000A8F5C82FD0E0DC2FCC27C46FD06AB0CF82
:10302000CE01805C9245809708F06CCFDC2FCC27D6
:10303000CC27DF71C06FD06AA3CFA497D064A0CF94
:10304000D0659ECFCF71D0E0DC2FCC27C16FD06A86
:1030500097CF2C2F26952695277080E2289F9001E8
:1030600011248C2F8370C1E0D0E002C0CC0FDD1F93
:103070008A95E2F7C22BD32BDA6882CF0E942719F8
:10308000C82FD0E0DC2FCC27CC27DF71D06278CFDF
:103090008C2F8F710E94271955E0D695C7955A95A8
:1030A000E1F7CF70D0E0DC2FCC27282F30E084FF71
:1030B00005C044E0220F331F4A95E1F7C22BD32B02
:1030C000D0695ECF8D2F8F710E942719182FCE01E6
:1030D00099270E948518C12FD0E0DC2FCC27CC2760
:1030E000DF71C82BD92BD2CF462F672F743028F42D
:1030F0004C3018F40E94AA0A089580E090E00895E8
:103100000E9474180E945C170895803E9105C1F1D9
:10311000C8F48133910509F47DC048F489329105E2
:1031200009F46DC08A32910509F47BC00895893392
:103130009105D1F082389105B9F08533910509F4F4
:1031400059C00895843E9105C1F138F4823E91053D
:1031500021F1833E910531F10895863E9105C1F13B
:10316000873E9105E1F1089520913E04237009F016
:1031700065C020913F0423FF14C089E290E00895C8
:1031800020913E0420FD43C030913F0430FF09C030
:1031900024FF4EC090E080E0089520913E0422FD7F
:1031A000F7CF089520913E0422FD45C030913F04A1
:1031B00030FD44C024FFF5CFEDCF20913F0421FF27
:1031C000F0CF80913E0484FDE5CF87EE90E0089536
:1031D00020913E0423FFE5CF24FDDCCFF6CF2091E4
:1031E0003E0423FD2EC030913F0431FFE3CF84EE37
:1031F00090E0089520913E0425FFD3CFBECF2091CB
:103200003E0425FD21C020913F0423FFCACF89E35E
:1032100090E0C7CF20913E0426FFC3CF8AE290E022
:10322000089520913E0426FFBCCF81E390E00895ED
:1032300083EE90E0089582EE90E0089580EE90E0B5
:10324000089586EE90E0089585E390E008959091CA
:103250003E0492FF10C041E0282F2471243009F071
:1032600040E031E0282F2871283009F030E0431782
:1032700011F02CE0822793FF10C041E0282F247129
:10328000243109F040E031E0282F2871283109F07D
:1032900030E0431711F02CE0822730913F0430FFDB
:1032A00010C051E0282F2171213009F050E041E099
:1032B000282F2871283009F040E0541711F029E038
:1032C000822731FF10C041E0282F2171213109F000
:1032D00040E031E0282F2871283109F030E0431711
:1032E00011F029E0822794FD877E089580E00895FB
:1032F00008950E94781908950E94E0080895E82F23
:10330000F0E0EE0FFF1FE85BFB4F80819181089595
:10331000089580EA8A95F1F7089500C008950E9403
:1033200089190895F894E82FE295EF70F0E041A133
:103330008F7021E030E0B90102C0660F771F8A95D7
:10334000E2F7CB01962F9095942391A392A1892B1C
:1033500082A378940895CF93DF9385E90E94921910
:1033600086E60E94921986E30E94921986EC0E94DA
:103370009219C0E5D2E089918F3F11F00E94921915
:1033800082E0CC35D807B9F7DF91CF910895B0E04E
:10339000A0E0EDECF9E10C94C033EC01B62E062F61
:1033A00010E0C801845A9D4F7C01FC0120812F3F11
:1033B00009F44CC0F894E22FE295EF70F0E031A1EF
:1033C0002F7081E090E001C0880F2A95EAF7932FD3
:1033D000982B91A392A18095892382A378940E942F
:1033E0008D19E0E5F2E041E050E0D12CC12C2191B3
:1033F0002F3F89F1A22FA295AF70B0E090968C91EB
:1034000090E02F7002C0959587952A95E2F780FD90
:1034100022C0CA01C82AD92A440F551F82E0EC35C0
:10342000F80729F7F70180818F3F11F00E94921968
:1034300061E0C114D10409F460E08B2D0E948F1962
:10344000000F111FC00FD11FD982C882CDB7DEB7C0
:10345000E9E00C94DC3390E080E0DCCF0E94AB1913
:1034600088E0E8E4F4E0DF01982F1D929A95E9F7EF
:10347000E0E4F4E0DF011D928A95E9F784E00E9420
:10348000801A0E9479190895A8E0B0E0EAE4FAE110
:103490000C94C4338E010F5F1F4F88E0F801119226
:1034A0008A95E9F7F12C6F2DC8010E94C719F39492
:1034B000F4E0FF12F8CF48E050E0B80180E494E077
:1034C0000E94EE33AC0121E0892B09F420E0452B6A
:1034D00041F088E0F801A0E4B4E001900D928A95F3
:1034E000E1F744E068E474E080E494E00E94811A2B
:1034F000182F0E947C19812F2896E5E00C94E03368
:103500000895B0E0A0E0E7E8FAE10C94C133D82ECA
:10351000E92EF62ED72F042FC22F222379F081E037
:103520008093E6030E9440299093E5038093E4038F
:1035300080E0CDB7DEB7E8E00C94DD33C090E60361
:10354000CC20B1F38091E4039091E5030E946929B6
:10355000059770F310E0000F111FA8016D2D7E2D4F
:103560008F2D9D2F0E94EE33892B41F0A8016D2DE8
:103570007E2D8F2D9D2F0E94FB33CC2D1092E603C4
:103580008C2FD7CF0E944E2B0E94C8160E945B2B17
:1035900008950E94602B0E94E0160E947A2B0895E5
:1035A0000E94D9280E94342B0E9492160E94C21AAF
:1035B0000E94C91A0E94A516FBCF909369028093BE
:1035C00068020895B0E0A0E0E8EEFAE10C94C1339F
:1035D000D62FC72F982F71110FC0442329F0E82F41
:1035E000F0E0E457FD4F9491692F792F892FCDB7E3
:1035F000DEB7E8E00C94DD33272F30E0E82FF0E071
:10360000442321F0E457FD4FE491F0E086E0D89F99
:10361000700111240FEF10E0C701B8010E94483378
:103620008D2F90E0880F991FA5E5A69FA001A79F69
:10363000500D1124841B950BD82EDD0CD80EC8011B
:10364000821B930B8E9FA0018F9F500D9E9F500D4C
:103650001124952FDC9EE0011124CD2FDD27D80108
:10366000AC1BBD0BED01CE9FD001CF9FB00DDE9FF7
:10367000B00D11248B2FE801CD19D1096E01C29E26
:10368000E001C39ED00DD29ED00D1124CD2FDD2799
:103690000C1B1D0B0E9FE0010F9FD00D1E9FD00D28
:1036A00011242E2F63307105D9F03CEFE31633E07F
:1036B000F30668F461307105B9F062307105C1F04C
:1036C000AFEFEA16F10448F4852F9D2F06C0643051
:1036D000710589F066307105B9F3692F722F87CFB4
:1036E0009B2F8E2F252FF9CF9E2F2B2F852FF5CF98
:1036F0008D2F9E2FF7CF8E2F2D2FEFCF41E00E94E1
:10370000E21A08959C0190E080E0269F812D369F6B
:10371000800D911D11240895A6E0B0E0E2E9FBE1DF
:103720000C94C2337B01D82ECA01B0E0A0E089839B
:103730009A83AB83BC83BA01CD010E94843120E01F
:1037400030E04FE753E469837A838B839C836981FC
:103750007A818B819C810E94E3308B018E839D83D3
:103760009B01AC0169831A838B839C8369817A8175
:103770008B819C810E94DB3298014E815D8169833F
:103780007A838B839C8369817A818B819C810E945F
:10379000DB3298014E815D8169837A838B839C83C0
:1037A00069817A818B819C810E94DB328B018E83BF
:1037B0009D832DEC3CEC4CE45DE369831A838B83A1
:1037C0009C8369817A818B819C810E94DE3087FD98
:1037D0003FC023E333E343E75FE369817A818B8171
:1037E0009C810E94D632181634F400E010E0B0E854
:1037F000BE833FE33D8320E030E04FE753E409839D
:103800001A838E818B839D819C8369817A818B81D0
:103810009C810E94DB329B01AC0160E070E08FE78D
:1038200093E40E94713069837A838B839C836981DE
:103830007A818B819C810E945531262F3D2D239FBB
:10384000212D1124B701822F2696E7E00C94DE3358
:1038500000E010E01E821D82CECF0E948C1B80955E
:1038600008959091E703982B9093E703089548E01B
:1038700050E068E170E080E594E00E94223410920C
:10388000E70308950E947E1B0895E0E5F4E085E0DB
:1038900080838091D0019091D101A091D201818348
:1038A0009283A3838FE784838FEF85830E94371CE5
:1038B000089580E008950F931F93CF93DF93C82F4F
:1038C000D62F8A010E94591C9CE0C99F90011124A7
:1038D0002E5F3E4F2D0F311DF90190819F3F29F042
:1038E000F801E80FF11D90838F5FDF91CF911F9159
:1038F0000F910895E0916602F0916702099508958D
:10390000E0916202F091630209950895E0916402EA
:10391000F091650209950895CF92DF92FF920F937F
:103920001F93CF93DF93CDB7DEB728970FB6F894E8
:10393000DEBF0FBECDBF182F062FF42E0E949B16A0
:10394000882309F44CC0FF2009F457C0AE014F5F33
:103950005F4F602F812F0E945B1CF82E0F2D10E00F
:103960008091E803800F912F911D09976CF188E0F9
:1039700090E06C01C01AD10AB80167517C4FA601D2
:1039800089EE93E00E94FB33B8016F507C4FA60193
:1039900081EF93E00E94FB33A601440F551FB8014D
:1039A000660F771F6F5F7B4F81E094E00E94FB33CF
:1039B000B80167507C4FA60189EF93E00E94FB336A
:1039C00088E08F198093E8031091E803DE011196D7
:1039D00040E0242F210FF41212C02093E803289610
:1039E0000FB6F894DEBF0FBECDBFDF91CF911F9110
:1039F0000F91FF90DF90CF900895F12CAFCF5D91A4
:103A0000852F90E030E0B90168517C4FFC01EE0F4A
:103A1000FF1FEE5CFE4F0081FB010183880F991FA1
:103A2000FC01EE5FFE4F81A9FB018187518B220FC4
:103A3000331FF901E851FC4F128E118E4F5FC9CF31
:103A40000E942707089599E0899F802D1124980FDF
:103A50009B3208F09AE20895AF92BF92DF92EF9204
:103A6000FF920F931F93CF93DF938C017B01FC0197
:103A700080810E94231DC82FD92E2091540431E04B
:103A8000230F08F42FEF30E050E040E06FEF7FEFBE
:103A900080E090E00E9492335901D0E02C2FCD15A8
:103AA00078F081E0F9E2FD1508F480E0DF91CF9134
:103AB0001F910F91FF90EF90DF90BF90AF9008950E
:103AC000FE01EA57FE4F8081F8019181892311F1AF
:103AD00040915C044150042E000C550B47FF1CC064
:103AE000C5016091540421E0620F08F46FEF0E9459
:103AF000821BAC0160915104709152048091530477
:103B0000F70109950E94421C462F672F282FCE01EE
:103B10000E94801C2196C2CFFA01E45AFB4F818992
:103B200082130AC0FA01EE0FFF1FE45AFB4F818D8A
:103B3000928D8A159B05A8F241505109CFCFB0E074
:103B4000A0E0E5EAFDE10C94C1337C01FC01808139
:103B50000E94231DC82F192F6091510470915204A7
:103B6000809153040E94421C062FD72EC82ED0E00D
:103B7000C11748F081E01A3208F080E0CDB7DEB717
:103B8000E8E00C94DD33FE01EA57FE4F8081F70137
:103B90009181892331F02C2D402F6D2DCE010E9473
:103BA000801C2196E5CFCF93C82F8091BB018C1349
:103BB00038C09091500493702091BC0130E081E0B6
:103BC0009217130609F480E081708093BA01809106
:103BD00055049091B901981739F08093B90140E0EC
:103BE00060E080E00E94861CC230A9F1E0F4CC23A2
:103BF00019F1C13059F180E09091B8019F5F909325
:103C0000B80181110CC082E08093B7018091BA01A4
:103C1000811105C0C11103C083E08093B701CF912A
:103C2000089581E0D1CFC33031F78091B8010E946F
:103C3000231D6DE27CE115C08091BA018823E1F279
:103C400040E060E080E00E94861CD5CF88EB91E0E8
:103C50000E949F1DD1CF8091B8010E94231D6CE866
:103C60007BE188EB91E00E942C1DC6CF81E0089596
:103C70000E94361E0895FC01808181500E94231D00
:103C8000692F0E94381E08954F925F926F927F9223
:103C90008F929F92AF92BF92CF92DF92EF92FF925C
:103CA000CF93DF9300D000D0CDB7DEB78091110461
:103CB00090911204A0911304B091140489839A8303
:103CC000AB83BC83BC01CD010E9478296B017C01D0
:103CD0000E944C2960931104709312048093130482
:103CE00090931404A091E803E8EEF3E02A2F30E06B
:103CF00088248A94982CA12CB12C8C189D08AE088D
:103D0000BF08A3132FC02093E803209115042111AD
:103D10003CC020915004A22FA370A983AA2319F0BC
:103D20002695269529832091B701223009F455C0A4
:103D300070F5211141C01092B8016093580470933E
:103D4000590480935A0490935B0489E2E8EEF3E00F
:103D5000ACE5B4E001900D928A95E1F781E08093A3
:103D6000B70117C0418D528D2A01712C612C84142A
:103D70009504A604B70420F421503F5F3296C1CFCA
:103D80004C0D5D1D528F418FF8CF1982CCCF23305F
:103D900081F10F900F900F900F90DF91CF91FF90D6
:103DA000EF90DF90CF90BF90AF909F908F907F90DB
:103DB0006F905F904F90089589810E94D31DB981C3
:103DC000BB2339F38091B701823011F40E94201D8A
:103DD00088EB91E00E943B1EDCCF39813093BB0120
:103DE0008091500483708093BC010E947A1C83E010
:103DF000B6CF8091E70381110E94371C809158044F
:103E000090915904A0915A04B0915B04BC01CD017A
:103E10000E947829603171058105910508F4B9CFB8
:103E20001092B701B6CFE0916002F091610209955E
:103E300010925C048FEF9FEF90937604809375044B
:103E4000909378048093770490937A048093790414
:103E500090937C0480937B0490937E0480937D04F4
:103E60009093800480937F049093820480938104D4
:103E700090938404809383041092E8039093020447
:103E800080930104909304048093030490930604A8
:103E900080930504909308048093070490930A0488
:103EA0008093090490930C0480930B0490930E0468
:103EB00080930D049093100480930F0481E080930D
:103EC000E70348E050E068E170E080E594E00E949C
:103ED00004341092E703809150048C7F11F40E9407
:103EE000451C0895CF93C82F882391F08091150425
:103EF00081110EC00E94D31D1092BB01809150040D
:103F000083708093BC010E947A1C83E08093B70188
:103F1000C0931504CF910895E0E5F4E0908121E08D
:103F2000922790831092B7010E94311C089581E07E
:103F30000E948C1F089580915004837011F4109298
:103F4000B701809150048C7F816080935004089564
:103F50000E949B1F81E00E94311C089580915004B3
:103F6000837011F01092B701809150048C7F809380
:103F7000500408950E94AE1F81E00E94311C0895F4
:103F8000282F862F90915004937049F0211108C07A
:103F90009460909350041092B7010E94311C0895D0
:103FA000243010F09C60F5CF220F220F922BF1CF1E
:103FB00061E00E94C01F0895682F8091500486958B
:103FC00086958F5F843008F081E00E94C01F0895BD
:103FD00081E00E94DC1F0895682F9091500496950F
:103FE00096958FEF890F913009F483E00E94C01FEE
:103FF000089581E00E94EC1F0895982F822F209150
:104000005004237041F09093510460935204409304
:1040100053040E94311C089520E00E94FD1F089562
:10402000282FE0E5F4E09181892F90E043816281BF
:1040300008960E94FD1F089581E00E9410200895B7
:10404000282FE0E5F4E08181438162818850990B5B
:104050000E94FD1F089581E00E9420200895282FCE
:10406000E0E5F4E0628130E1630F08F46FEF8181F5
:10407000438190E00E94FD1F089581E00E942F205F
:104080000895282FE0E5F4E0628130E1631B08F435
:1040900060E08181438190E00E94FD1F089581E0EE
:1040A0000E9441200895282FE0E5F4E0438130E1AB
:1040B000430F08F44FEF8181628190E00E94FD1F61
:1040C000089581E00E9453200895282FE0E5F4E050
:1040D000438130E1431B08F440E08181628190E03C
:1040E0000E94FD1F089581E00E946520089580933D
:1040F000540481E00E94311C0895E0E5F4E024813D
:1041000030E1230F08F42FEF24830E94311C08951F
:1041100081E00E947D200895E0E5F4E0248130E113
:10412000231B08F420E024830E94311C089581E0C1
:104130000E948C200895109216040895CF93DF9367
:10414000DC01FC01EE0FFF1FEF01CA0FDB1FCB5795
:10415000DB4F8981861306C08881841303C08A815E
:10416000821751F081E080931604EA0FFB1FEB5792
:10417000FB4F618340832283DF91CF910895FF92AB
:104180000F931F93CF93DF93182F062FF42ED0E0B9
:10419000C0E02F2D402F612FCE010E949E2021963E
:1041A000CA32D105B1F7CDB7DEB7E5E00C94E03304
:1041B00080911604882341F06AE270E085E894E07B
:1041C0000E944321109216040895FA01882311F0E9
:1041D00009950895FB01FCCF1F93CF93DF93EC016A
:1041E000FB011581111110C00E947F148272FE0123
:1041F000E052F847E531F10508F043C0EC59FB4CBB
:104200000C94B1330E94971F812FDF91CF911F91A2
:10421000089549EF5FE168EE7FE10E94E520F4CF69
:1042200048EE5FE169EF7FE1F8CF4BE250E26CE1ED
:1042300070E2F3CF4CE150E26BE270E2EECF4FE47C
:1042400050E26DE370E2E9CF4DE350E26FE470E2DB
:10425000E4CF43E750E261E670E2DFCF41E650E2AF
:1042600063E770E2DACF47E950E268E870E2D5CF61
:1042700048E850E267E970E2D0CF81E00E94D81FA1
:10428000C3CF11E0C1CF9C01AB01239A65B1677F19
:1042900075B17860EFB7F894CA01880F991F840F41
:1042A000951F820F931F8217930741F4EFBF8FE58D
:1042B00094E00197F1F700C000000895D9014D91F5
:1042C0009D0158E075B9000000C047FF65B9440F73
:1042D000000000C000C000C065B900C05A9591F749
:1042E000E2CF0E94A315089580E00E947F1981709B
:1042F00008950E94441A2FEF86E791E021508040F4
:104300009040E1F700C000000E94441A0E9474210E
:10431000882321F00E9471210E94BC2908950E94E7
:1043200079210895CF93DF93EB0186319C4711F5F6
:104330000E947F149D81992399F08A7A91E009F473
:1043400090E090931704811109C089E20E9425280A
:104350000E94351580E0DF91CF91089585E3F6CF77
:1043600080911704811104C089E20E943C28F0CF9B
:1043700085E3FBCF81E0EFCFCF93DF93EC01FB012F
:104380008581882309F4D2C09E013057233231053C
:1043900008F0B2C00E94BF1590933F0480933E0482
:1043A000FE01E150F047E232F10520F4E758FB4C02
:1043B0000C94B13380913E04816080933E0493C09D
:1043C00080913F04886080933F048DC080913E04BB
:1043D0008260F3CF80913E048460EFCF80913E04F1
:1043E0008860EBCF80913F048160EDCF80913F04E6
:1043F0008260E9CF80913E048061DFCF80913E04EE
:104400008062DBCF80913E048064D7CF0E94D50FBD
:1044100080913E048068D1CF80913E048C60CDCFE6
:1044200080913F048360CFCF80913E048E7FC5CFC3
:1044300080913F04877FC7CF80913E048D7FBDCFA1
:1044400080913E048B7FB9CF80913E04877FB5CFAA
:1044500080913F048E7FB7CF80913F048D7FB3CF93
:1044600080913E048F7EA9CF80913E048F7DA5CFA1
:1044700080913E048F7BA1CF0E94D50F80913E0496
:104480008F779BCF80913E04837F97CF80913F04AD
:104490008C7F99CF80913E0482FB992790F921E08F
:1044A000922790FB82F990FB83F987CF80913F049C
:1044B000982F909591708E7F892B90FB81F983CFF7
:1044C00090913E04892F8F7B96FF806476CF0E9467
:1044D000D50F90913E04892F97FB87F980586DCFB7
:1044E00081E00E944D1680913E0490913F040E940D
:1044F000C4150E94D50F80E0DF91CF91089580E030
:10450000F0CF90913E04892F8F7E94FF806155CF2C
:1045100090913E04892F8E7F90FF81604ECF9091C5
:104520003F04892F877F93FF88604DCF81E0E4CFE0
:10453000282F35EB2303C001112497FF04C08058B6
:104540009109892F089580589F4FFBCF80911E04B9
:1045500080FF0DC06091C20170E0660F771F603868
:10456000710570F56115710569F1862F089581FF58
:1045700007C06091C20184E0689FB0011124EFCFB1
:104580006091C20182FD0AC080911D048823A9F0B8
:104590002091C1016091C201821710F088E0ECCF38
:1045A000869FC001112433E0880F991F3A95E1F7E7
:1045B000622F70E00E945C33D2CF68E070E0D5CF0C
:1045C0008FE7089581E0089580911E0480FF0CC05C
:1045D0006091BE0170E07595679575956795611559
:1045E000710549F1862F089581FF06C06091BE01D3
:1045F00070E075956795F3CF6091BE0182FD0BC0A9
:1046000090911C049923A1F06091BD018091BE019D
:10461000961738F0682F70E06038710500F38FE767
:104620000895899FC001112470E00E945C33F4CF8B
:1046300061E070E0D7CF81E008959091210420914E
:104640002204922B20912404922B20912304922B5C
:1046500031F098E090931D0491E090931C048D3C00
:1046600031F40E94A62281958093220408958E3C05
:1046700019F40E94A622F8CF8F3C31F40E94A622A2
:104680008195809321040895803D19F40E94A6220B
:10469000F8CF893D29F40E94E422809323040895F1
:1046A0008A3D21F40E94E4228195F7CF8B3D31F4BD
:1046B0000E94E42281958093240408958C3D19F48E
:1046C0000E94E422F8CF9FE2980F983070F4815D49
:1046D000990B21E030E001C0220F8A95EAF7809122
:1046E0002004822B8093200408958D3D31F4809125
:1046F0001E04816080931E0408958E3D21F48091F4
:104700001E048260F7CF8F3DB9F780911E0484604C
:10471000F1CF409121048D3C59F48091220487FF10
:104720000DC01092220441110BC010921D0408C04C
:104730008E3C81F48091220418169CF3442381F06E
:104740008091230490912404892B09F05AC010927F
:104750001C0408958F3C49F447FFF0CF10922104C8
:10476000809122048111ECCFE0CF803D19F4141622
:10477000ACF3E4CF90912304893D29F41916F4F6A3
:1047800010922304DBCF8A3D19F497FFD7CFF8CFDF
:10479000909124048B3D29F497FFD0CF10922404EC
:1047A000CDCF8C3D19F41916CCF3C8CF9FE2980FEA
:1047B000983090F4815D990B21E030E0B90102C09E
:1047C000660F771F8A95E2F7CB01809590912004C0
:1047D000892380932004B2CF8D3D31F480911E0453
:1047E0008E7F80931E04AACF8E3D21F480911E04FB
:1047F0008D7FF7CF8F3D09F0A1CF80911E048B7F75
:10480000F0CF08950E944029209121043091220484
:10481000232B21F080931A0490931B0420912304EE
:1048200030912404232B21F08093180490931904D1
:104830008FE194E00E941D27089586E0EFE1F4E007
:10484000DF011D928A95E9F710921D0410921C0455
:1048500010921E040895FC01828181110DC0838194
:1048600081110AC08481811107C081E09581911175
:1048700001C080E08170089581E0FCCFA6E0B0E047
:10488000E4E4F4E20C94C63386E0EFE1F4E0DE0108
:10489000119601900D928A95E1F7109221041092E1
:1048A000220410922304109224048B819C81892B72
:1048B00089F080911A0490911B040E9469299C013F
:1048C00080911D048823C9F19091C30192171306AA
:1048D00008F440C08D819E81892B91F0809118044D
:1048E000909119040E9469299C0180911C048823DD
:1048F00009F46AC09091BF019217130608F472C0C0
:10490000BE016F5F7F4F8FE194E00E946D2881119F
:1049100005C08FE194E00E942B2481110E940224A3
:1049200086E0FE013196AFE1B4E001900D928A95E8
:10493000E1F72696E3E00C94E2334091C4019AE05B
:10494000499FA00111244217530720F68F5F8093DF
:104950001D0402C08F3FD1F71B81112359F00E9423
:10496000A6229FEF11160CF491E0899F802D11244F
:10497000809321041C81112359F00E94A6229FEFED
:1049800011160CF491E0899F802D1124809322044C
:1049900080912104882309F49DCF109122041123D2
:1049A00009F498CF0E949822882351F08093210423
:1049B000812F0E949822882329F0809322048ACF95
:1049C00081E0F4CF81E0F9CF4091C0019AE0499FA6
:1049D000A00111244217530708F092CF8F5F8093F4
:1049E0001C0402C08F3FD1F71D81112359F00E9492
:1049F000E4229FEF11160CF491E0899F802D112481
:104A0000809323041E81112359F00E94E4229FEF1A
:104A100011160CF491E0899F802D112480932404B9
:104A200080912304882309F46BCF1091240411236F
:104A300009F466CF0E949822882351F080932304C2
:104A4000812F0E949822882329F08093240458CF34
:104A500081E0F4CF81E0F9CFB0E0A0E0E2E3F5E25D
:104A60000C94C033E82FF0E0E457FC4FB490282FAB
:104A700026952695269530E0F901E45DFB4F0491DB
:104A8000877010E0082E02C0159507950A94E2F78A
:104A900001701127F901E45EFB4FE490F12C082E20
:104AA00002C0F594E7940A94E2F791E0E922FF242A
:104AB000F901E45FFB4FC491D0E002C0D595C795E2
:104AC0008A95E2F7C170DD27C62ED12C011511059C
:104AD00049F5E114F10431F086EE0E94D20CC601D2
:104AE000009771F5B6018B2D0E944D0DC601009700
:104AF00079F5E114F104A1F50115110531F081EE0C
:104B00000E941A0DC6010097C9F5CD2B31F08CE239
:104B10000E94650DC114D104C9F5CDB7DEB7E9E037
:104B20000C94DC3381EE0E94D20CC601009789F20E
:104B3000EFE9FFE03197F1F700C000000197F6CFF1
:104B4000EFE9FFE03197F1F700C000000197C8CF0F
:104B5000EFE9FFE03197F1F700C000000197C7CF00
:104B600086EE0E941A0DC601009731F2EFE9FFE0D0
:104B70003197F1F700C000000197F6CFEFE9FFE0B1
:104B80003197F1F700C000000197BDCF8FE99FE09A
:104B90000197F1F700C0000091E0C91AD108BACF1F
:104BA000EF92FF920F931F93CF93DF93EC01162F99
:104BB0000AE08881882309F459C0813009F052C085
:104BC0008981813071F47E0182E0E80EF11C8A81D6
:104BD0000E94650DE701812F90E00097D9F521969D
:104BE000E8CF823041F47E01E2E0EE0EF11C8A81D2
:104BF0000E94D20CEFCF833041F47E01F2E0EF0E41
:104C0000F11C8A810E941A0DE5CF843011F02196A3
:104C1000E2CF2A81229690E080E0AE014F5F5F4FA5
:104C20002053330B2A30310550F00097A1F2EFE901
:104C3000FFE03197F1F700C000000197F6CF089F21
:104C4000B001099F700D1124C901860F971F29819A
:104C5000EA01E3CFEFE9FFE03197F1F700C0000090
:104C60000197BBCF612F0E942C25B9CFCDB7DEB7FE
:104C7000E6E00C94DF3360E00E94D0250895B0E0B8
:104C8000A0E0E5E4F6E20C94BF337C015B01C42FA5
:104C9000D22FFC0185818823C9F0409327040E940C
:104CA0004029909326048093250480E28C0F88305D
:104CB00040F4C77081E001C0880FCA95EAF70E94EE
:104CC0006E0DCDB7DEB7EAE00C94DB33109127040C
:104CD000141338C080912504909126040E946929FC
:104CE0006C01B701C5010E943D09C816D90650F5EF
:104CF000C0E2CD0F1D17C1F080E2810F883048F46B
:104D0000177081E0012E01C0880F0A94EAF70E9413
:104D1000750DC83048F481E09D2F977001C0880F51
:104D20009A95EAF70E946E0D802F0E94650DC8309B
:104D300040F6D77081E001C0880FDA95EAF70E944B
:104D4000750DBFCF80E28C0F883008F0BACFC770E6
:104D500081E001C0880FCA95EAF7F1CF0F93FC01FB
:104D6000CB01E851FC47E730F10590F5E556FB4CE7
:104D70000C94B13306E221EE41EE6AE17CE70E9439
:104D80003F2680E00F91089507E225EE45EE6BE1A6
:104D90007CE7F5CF06E221EE40EE68E17CE7EFCF5D
:104DA00007E225EE44EE69E17CE7E9CF06E221EE79
:104DB00042EE6CE17CE7E3CF07E225EE46EE6DE1E3
:104DC0007CE7DDCF08E221E045EE6EE17CE7D7CF5E
:104DD000FB018581882319F010922704D3CF81E04D
:104DE000D1CF90932D0480932C040895E0912C044E
:104DF000F0912D04309729F00190F081E02D099574
:104E0000089580E00895E0912C04F0912D043097EE
:104E100021F00280F381E02D09950895DC01E091F5
:104E20002C04F0912D04309739F086E08C930480A7
:104E3000F581E02DCD0109950895DC01E0912C0468
:104E4000F0912D04309739F082E08C930680F78141
:104E5000E02DCD0109950895A3E0B0E0E2E3F7E28B
:104E60000C94C7339C0180912A0490912B048217E3
:104E70009307A1F030932B0420932A04E0912C0493
:104E8000F0912D04309751F083E089833B832A838E
:104E90000084F185E02DCE01019609952396E2E08C
:104EA0000C94E333A3E0B0E0E8E5F7E20C94C733F9
:104EB0009C01809128049091290482179307A1F006
:104EC0003093290420932804E0912C04F0912D04C0
:104ED000309751F084E089833B832A830084F185F5
:104EE000E02DCE01019609952396E2E00C94E33380
:104EF0002091B5013091B6012E5F3F4F8091CF01D7
:104F0000882379F080913E0487FF0BC02091B30184
:104F10003091B4012E5F3F4F9EE180E0915018F434
:104F2000089596E0FACFF90141919F014423B1F32E
:104F30008F5FF4CF882321F19091CF01992311F154
:104F400090913E0497FF1EC0E82FE695E695E69502
:104F5000803FB0F42091B3013091B401E20FF32F00
:104F6000F11D228130E0877041E050E002C0440F23
:104F7000551F8A95E2F72423352381E0232B91F4F2
:104F800080E008952091B5013091B601F901329683
:104F9000285F3F4F9191981721F0E217F307D1F75F
:104FA000EFCF81E008959C01FC0132968FEF90E0F5
:104FB0004191461751F08F3F19F4411101C0892FDB
:104FC0009F5F9630A9F78F3F09F40895280F311D90
:104FD00087FD3A95F901628308959C01FC013296A0
:104FE000285F3F4F8191861303C0DF0111971C9208
:104FF000E217F307B9F70895E62FE695E695E695EB
:10500000603F68F4E80FF92FF11D677021E030E090
:1050100001C0220F6A95EAF78281822B828308956C
:10502000E62FE695E695E695603F70F4E80FF92FD8
:10503000F11D677081E090E001C0880F6A95EAF782
:1050400080959281892382830895682F8091CF0172
:10505000882359F080913E0487FF07C08091B301F7
:105060009091B4010E94FC2708958091B501909120
:10507000B6010E94D3270895682F8091CF0188231D
:1050800059F080913E0487FF07C08091B301909151
:10509000B4010E94102808958091B5019091B60145
:1050A0000E94ED2708958091CF01882379F08091A7
:1050B0003E0487FF0BC0E091B301F091B40132963A
:1050C0008EE1DF011D928A95E9F70895E091B5011F
:1050D000F091B601329686E0F4CFDC01FB01119627
:1050E0009C9111978181981322C012968C911297EE
:1050F000882319F0928189131AC013968C91139703
:10510000882319F09381891312C015968C911597F5
:10511000882319F0958189130AC014969C919923CC
:1051200021F081E02481291303C080E001C081E0E7
:105130008170089508950E949A280895811106C0EB
:1051400081E080932E040E949B28089582E0F9CF8D
:1051500083E080932E040E949B2808950E949E283D
:10516000089581E080932E040E949B2808950E9458
:10517000B1280895089508950E94BB2808950895C0
:1051800008950E94BA280895CF930E94BF280E94D4
:10519000441A0E94C028C0E08C2F0E947F19892BDE
:1051A00031F4CF5FC430C1F780E0CF91089581E042
:1051B000FCCF85B7806885BF85B7806885BF0895B7
:1051C0001F921FB61F9211248F939F93AF93BF938B
:1051D00080912F04811113C08091030590910405E3
:1051E000A0910505B09106054196A11DB11D8093C2
:1051F000030590930405A0930505B0930605BF91A0
:10520000AF919F918F911F901FBE1F901895809115
:105210000B05843031F10E941A0C10922F0488E1A2
:1052200090E020E40FB6F894A895809360000FBE3C
:105230002093600083B7817F846083BF83B78160E0
:1052400083BF7894889583B78E7F83BF0FB6F89419
:10525000A895809160008861809360001092600042
:105260000FBE08950E94D50F0E94240C089582E07D
:1052700084BD93E095BD9AEF97BD80936E0008952D
:105280002FB7F8948091030590910405A09105052E
:10529000B09106052FBF0895A4E0B0E0E2E5F9E281
:1052A0000C94C7338FB7F89420910305309104050F
:1052B000409105055091060529833A834B835C8311
:1052C0008FBF69817A818B819C812496E2E00C9466
:1052D000E3339C014FB7F894809103059091040546
:1052E000A0910505B09106054FBF821B930B089551
:1052F000A4E0B0E0EEE7F9E20C94C533462F572F57
:10530000BC012FB7F8948091030590910405A091FA
:105310000505B09106052FBF8C019D01041B150BDF
:10532000260B370BC901B8012496E4E00C94E13355
:1053300078941F921FB61F9211248F939F93AF935F
:10534000BF938091030590910405A0910505B0914C
:1053500006050196A11DB11D8093030590930405D8
:10536000A0930505B0930605BF91AF919F918F91D2
:105370001F901FBE1F90189581E08093E00080E28F
:105380008093D8001092C9008FE19EE40197F1F755
:1053900000C0000087E090EBDC018093140590933F
:1053A0001505A0931605B093170588E19CE00FB68C
:1053B000F894A895809360000FBE90936000FFCF93
:1053C00088E19CE00FB6F894A895809360000FBE2A
:1053D00090936000FFCF809138040895282FCB016F
:1053E000BA0130910B053430E1F42F702093E900BD
:1053F0002FEF3091E800215035FD06C035ED3A958C
:10540000F1F700002111F5CF2091E80025FF09C038
:1054100050E040E00E94F32B8091E8008E7780936B
:10542000E8000895BC0143E050E082E00E94EE29CC
:105430000895BC0146E050E082E00E94EE29089504
:10544000BC0140E250E082E00E94EE290895CF9333
:10545000DF93D82FC92F48E050E0682F792F81E0E3
:105460000E94EE2988E0ED2FFC2FA0E3B4E001902C
:105470000D928A95E1F7DF91CF91089580910A0509
:10548000811109C00E947B2D0E94D82D8091E200DD
:1054900084608093E200089510920A0508950E94A6
:1054A000B12808956091070581E0611101C080E095
:1054B0000E94A828089590910B0581E0943009F08E
:1054C00080E0609107050E94AE28089542E061ECFB
:1054D00081E00E94F72C42E261EC82E00E94F72C0E
:1054E00090910B0581E0943009F080E06091070510
:1054F0000E949E28089580910D05893089F148F415
:10550000823009F4A0C0833009F45AC0813041F0E0
:1055100008958A3009F487C08B3009F46CC008956F
:1055200080910C05813A09F04AC08091E800877F9C
:105530008093E8008091100590911105892B61F40A
:1055400068E080E394E070E00E94422C8091E800E3
:105550008B778093E800089560E090E080E0F3CFDF
:1055600080910C05813259F58091100590911105BB
:10557000029728F58091E800877F8093E80080916A
:10558000E80082FF18C09091F3008091F20002972A
:1055900031F48091F100813011F0863021F4809156
:1055A000F100809338048091E8008B778093E800C5
:1055B0000E942B2D04C080910B058111E0CF08952E
:1055C00080910C05813AD9F78091100590911105D1
:1055D000892BA9F78091E800877F8093E80080916C
:1055E000E80080FFFCCF8091CF018093F100809193
:1055F000E8008E77DBCF80910C05813201F7809136
:10560000100590911105892BD1F68091E800877FD4
:105610008093E8000E942B2D80910E058093CF018E
:105620000E94D50F089580910C05813241F680913A
:10563000E800877F8093E8000E942B2D80910F0562
:1056400080933904089580910C05813A09F0B7CF11
:105650008091E800877F8093E8008091E80080FFD8
:10566000FCCF80913904C1CF84B7877F84BF0FB648
:10567000F894A895809160008861809360001092F2
:1056800060000FBE80E890E00FB6F8948093610050
:10569000909361000FBE0E94B72808950E947B2D51
:1056A0000E94D82DE2EEF0E08081846080837894BF
:1056B0000E945630089585EC91E00E94F1260895ED
:1056C00080910B05853031F480910B05853019F000
:1056D0000E94322908950E94072980910905882394
:1056E00099F30E94C428882379F30E94DD2B0E943D
:1056F000D50FEACF08959A014091120550911305F4
:105700000E94832B0895AC01CB01D901252F3327AB
:1057100023303105D1F070F42130310509F43EC059
:105720002230310569F48BE390E022E634E02D93DA
:105730003C93089521323105E9F02232310521F1FF
:1057400090E080E030E020E0F2CFCA0199274130BC
:1057500059F08230910559F0EEE5F4E0892B81F79C
:10576000849190E09F01E3CFEAE4F4E0F9CFECE329
:10577000F4E0F6CF892BB9F06130710509F789E0C3
:1057800090E02DE834E0D3CF892B91F061307105A2
:10579000B9F686EB90E02FEA34E0C9CF82E190E0E1
:1057A0002DE934E0C4CF89E090E024E734E0BFCFB6
:1057B00084E490E025E635E0BACF80E189BD82E15E
:1057C00089BD09B400FEFDCF8091D8008F7D809304
:1057D000D8008091E00082608093E0008091E0003A
:1057E00081FDFCCF0895AF92BF92CF92DF92FF92DE
:1057F0000F931F93CF93DF936C01EB018A010E94FB
:105800004A2DF82E811123C00115110539F0F80138
:1058100080819181C81BD90BC80ED91EB12CA12C37
:105820002097A9F08091E80085FD22C08091E800D2
:105830008E778093E80001151105A1F0F8018081B1
:105840009181A80EB91EB182A08285E0F82E8F2D1D
:10585000DF91CF911F910F91FF90DF90CF90BF907C
:10586000AF9008950E944A2D8823D1F2F82EEFCFF1
:10587000F60181916F018093F1002197FFEFAF1A3C
:10588000BF0ACECFFC01CB01209112053091130548
:105890002617370790F0009729F42091E8002E771B
:1058A0002093E80040E0009751F4411108C0809136
:1058B000E80082FF31C080E00895C901F3CF209154
:1058C0000B052223A9F12530A9F12091E80023FD41
:1058D0002DC02091E80022FDEACF2091E80020FFB2
:1058E000E2CF3091F3002091F200009719F02830B8
:1058F000310558F041E02830310509F040E02091B1
:10590000E8002E772093E800CECF41914093F1003C
:1059100001972F5F3F4FE9CF80910B05882341F01E
:10592000853041F08091E80083FFC1CF81E0089588
:1059300082E0089583E00895FC01CB0120911205D7
:10594000309113052617370790F0009729F420911E
:10595000E8002E772093E80040E0009751F44111D1
:1059600008C08091E80082FF32C080E00895C9013C
:10597000F3CF20910B052223B1F12530B1F1209115
:10598000E80023FD2EC02091E80022FDEACF2091FF
:10599000E80020FFE2CF3091F3002091F200009761
:1059A00019F02830310558F041E02830310509F070
:1059B00040E02091E8002E772093E800CECF44917C
:1059C0004093F100319601972F5F3F4FE8CF8091D0
:1059D0000B05882341F0853041F08091E80083FF7A
:1059E000C0CF81E0089582E0089583E00895982F64
:1059F000973028F08F708093E90081E008959093AC
:105A0000E900242F762F50E0981731F07091EC00C8
:105A10002091ED005091F00021FD02C09F5FE8CF82
:105A20003091EB003E7F3093EB003091ED003D7FF5
:105A30003093ED003091EB0031603093EB007093C8
:105A4000EC002093ED005093F0002091EE0027FD34
:105A5000E5CF80E0089580910C0587FF13C0809109
:105A6000E80082FF06C08091E8008B778093E80011
:105A700004C080910B058111F2CF089580910B0530
:105A80008823D9F38091E80080FFF8CF8091E80067
:105A90008E77ECCF2091E4003091E50095E6A901E6
:105AA0002091EC00822F817020FF06C08091E800D9
:105AB00080FF06C080E008952091E80022FD1AC012
:105AC00080910B05882389F0853089F08091EB0067
:105AD00085FD0FC02091E4003091E5004217530787
