:100000000C94B4040C94EC040C94EC040C94EC04E8
:100010000C94EC040C94EC040C94EC040C94EC04A0
:100020000C94EC040C94EC040C94DC2F0C94B03085
:100030000C940A2A0C94EC040C94EC040C94EC043C
:100040000C94EC040C94EC040C94EC040C94EC0470
:100050000C94EC040C94AD2A0C94EC040C94EC0479
:100060000C94EC040C94EC040C94EC040C94EC0450
:100070000C94EC040C94EC040C94EC040C94EC0440
:100080000C94EC040C94EC040C94EC040C94EC0430
:100090000C94EC040C94EC040C94EC040C94EC0420
:1000A0000C94EC040C94EC040C94EC0473686966F6
:1000B000742061667465723A2025730A006E6F724F
:1000C0006D616C206B63203078253034580A0073E2
:1000D00068696674206265666F72653A2025730AE6
:1000E000002D2D2D2D2D2D2D2D2D2D2D2D2D2D2D6D
:1000F0002D2D2D2D2D2D2D2D2D2D2D2D2D2D0A0080
:1001000073686966742061667465723A2025730AA3
:1001100000637573746F6D206B6320307825303405
:10012000580A00290014001A000800150017001CC6
:100130000018000C00120013002E002B0004001603
:1001400000070009000A000B000D000E000F000060
:10015000002800E1001D001B000600190005001129
:100160000010003600000037004C00E000E300E221
:10017000002C41000000002C420000000038002D3F
:10018000002D0201004A0052004D002F00300001F6
:1001900000010024023102057E01000100500051DF
:1001A000004F002602270201000100330034000046
:1001B000002A0001001D011B0106011901010001B7
:1001C0000001000100000001000100010001000128
:1001D000000100000000002C4300000000010001AD
:1001E00000010001001E001F00200021002200234A
:1001F00000240025002600270001002700210022FE
:100200000023000100010001000100330034000060
:10021000002A000100240025002600010001000141
:1002200000010001000000010001000100010001C7
:10023000002C43000000000100000000000100014C
:10024000000100007ED100CD00D2003A003B003C0E
:100250000001000100010001000100017ECF00CE7D
:1002600000D0003D003E003F000100010001000001
:1002700000067E027ED900D300DA00400041004231
:100280000043004400000045000100207801000107
:10029000000100000000000100000000000100015A
:1002A00000007C44454255473A2064697361626CA2
:1002B00065642E0A0044454255473A20656E6162E6
:1002C0006C65642E0A000A0025303258006C6564A3
:1002D0005F7461736B3A20004F6E6573686F743A98
:1002E000206163746976653A2025640A000A002556
:1002F00030313662003A200025303258000A722F21
:100300006320303132333435363738394142434453
:1003100045460A00290A002575002F002575005D55
:1003200028002564002000256400200025640020AA
:10033000002564007C0025303258006D6F757365B0
:100340006B6579205B62746E7C78207920762068FA
:100350005D287265702F61636C293A205B007267BB
:1003600062206D61747269782073657420737065A2
:100370006564205B25735D3A2025750A007267620B
:10038000206D6174726978207365742068737620BB
:100390005B25735D3A2025752C25752C25750A0083
:1003A000726762206D6174726978206D6F64652078
:1003B0005B25735D3A2025750A00726762206D61C6
:1003C0007472697820746F67676C65205B25735D54
:1003D0003A207267625F6D61747269785F636F6EF5
:1003E0006669672E656E61626C65203D2025750A21
:1003F000007267625F6D61747269785F696E6974BB
:100400005F64726976657273207267625F6D617492
:100410007269785F636F6E6669672E6D6F646520C1
:100420003D20302E205772697465206465666175C1
:100430006C742076616C75657320746F204545502F
:10044000524F4D2E0A007267625F6D617472697857
:100450005F696E69745F6472697665727320656541
:10046000636F6E666967206973206E6F7420656EB6
:1004700061626C65642E0A007267625F6D617472FE
:1004800069785F636F6E6669672E666C616773205B
:100490003D2025640A007267625F6D61747269783D
:1004A0005F636F6E6669672E7370656564203D20BB
:1004B00025640A007267625F6D61747269785F63B8
:1004C0006F6E6669672E6873762E76203D202564F0
:1004D0000A007267625F6D61747269785F636F6E44
:1004E0006669672E6873762E73203D2025640A00A6
:1004F0007267625F6D61747269785F636F6E66695F
:10050000672E6873762E68203D2025640A00726786
:10051000625F6D61747269785F636F6E6669672E82
:100520006D6F6465203D2025640A007267625F6D0F
:1005300061747269785F636F6E6669672E656E615C
:10054000626C65203D2025640A007267625F6D6100
:10055000747269785F636F6E6669672045455052B3
:100560004F4D0A006565636F6E6669675F757064FD
:100570006174655F7267625F6D61747269785F64F0
:10058000656661756C740A000001010101010101D9
:100590000101020202020202020202030303030338
:1005A0000303030404040404040405050505050607
:1005B00006060606070707070708080808090909C5
:1005C000090A0A0A0B0B0B0C0C0C0D0D0D0E0E0E6E
:1005D0000F0F0F10101111111212131314141515FF
:1005E00016161717181819191A1A1B1B1C1D1D1E71
:1005F0001E1F2020212222232424252626272829C5
:10060000292A2B2C2D2D2E2F3031323233343536F2
:100610003738393A3B3C3D3E3F40414243444546F2
:100620004748494A4C4D4E4F5051535455565859CE
:100630005A5B5D5E5F616264656668696B6C6D6F75
:100640007072737577787A7B7D7E808283858788E8
:100650008A8C8E8F91939596989A9C9EA0A2A3A522
:10066000A7A9ABADAFB1B3B5B7BABCBEC0C2C4C623
:10067000C9CBCDCFD1D4D6D8DBDDDFE2E4E7E9EBDF
:10068000EEF0F3F5F8FAFDFF0000000000000000B6
:100690002A2B2800000000000000000000000000DD
:1006A00000000029000000002C1E342021222434E8
:1006B0002627252E362D3738271E1F2021222324BA
:1006C00025263333362E37381F0405060708090A56
:1006D0000B0C0D0E0F101112131415161718191AF2
:1006E0001B1C1D2F3130232D350405060708090A70
:1006F0000B0C0D0E0F101112131415161718191AD2
:100700001B1C1D2F3130354C000000000000000084
:1007100000000000000000000000000000000000D9
:100720000000000000000000000000007E0F00D468
:10073000FFFFFFC7000000780A0025303258200074
:100740006B6579626F6172645F7265706F72743A23
:10075000200064656C5F6B65795F6269743A206341
:10076000616E27742064656C3A20253032580A0087
:100770006164645F6B65795F6269743A2063616E7E
:100780002774206164643A20253032580A0073755A
:100790007370656E64696E67206B6579626F6172F4
:1007A000640D0A005B575D005B535D005B525D00AA
:1007B0005B445D005B435D000C0346006500620026
:1007C0003400300000001203660065006200720011
:1007D000650065007A006500000004030904090251
:1007E0005B00030100A0FA090400000103010100FD
:1007F00009211101000122440007058103080001BD
:100800000904010001030000000921110100012277
:10081000B60007058203200001090402000203005C
:100820000000092111010001222200070583032095
:10083000000107050303200001120100020000006F
:1008400008646942000001010200010631FF0974D9
:10085000A1010975150026FF009520750881020980
:1008600076150026FF00952075089102C005010944
:1008700002A10185020901A1000509190129081534
:10088000002501950875018102050109300931151E
:1008900081257F95027508810609381581257F9588
:1008A0000175088106050C0A38021581257F95011E
:1008B00075088106C0C005010980A10185031901E1
:1008C0002AB700150126B700950175108100C005F3
:1008D0000C0901A101850419012AA002150126A015
:1008E00002950175108100C005010906A101850668
:1008F000050719E029E71500250195087501810212
:100900000507190029EF1500250195F075018102F1
:1009100005081901290595057501910295017503D1
:100920009101C005010906A101050719E029E71594
:100930000025019508750181029501750881010561
:1009400007190029FF150026FF009506750881008C
:100950000508190129051500250195057501910264
:10096000950175039101C00011241FBECFEFDAE09D
:10097000DEBFCDBF04B603FE18C0809190049091F5
:100980009104A0919204B09193048730904BA740BA
:10099000B04B59F41092900410929104109292046A
:1009A00010929304E0E0F8E3099512E0A0E0B1E0D2
:1009B000EAECFDE602C005900D92A238B107D9F726
:1009C00024E0A2E8B2E001C01D92A039B207E1F72D
:1009D0000E94FE1A0C948F360C940000FF93EF9344
:1009E000E0918202F0918302309709F00995EF912E
:1009F000FF910895FC018591803011F0EFDFFBCF6E
:100A00000895FF27E0E230E247FF0CC0419597FFD1
:100A100009C0EDE26095709580959095611D711DFE
:100A2000811D911D27FF02C0219530E350E2AA27C6
:100A3000660F771F881F991FAA1FA41710F0A41B09
:100A400063955A95A9F7AA3008F0A95FA05DAF9306
:100A5000F395611571058105910541F7ED3211F4AA
:100A6000EF93F395F21718F43F93F395FBCF8F9123
:100A7000B5DFFA95E1F70895E991F9918591803014
:100A800021F0853219F0AADFF9CF089520E0E8942B
:100A900055915532C1F3503311F4689455915A333E
:100AA00048F4505390F3220F022E220F220F200DF4
:100AB000250FF4CF0EF4219589919991533619F3AE
:100AC000533729F1533559F1BC0188279927E89408
:100AD0005C3621F48991999168945591543639F492
:100AE00046EF7EF077FF0DC08FEF9FEF0AC05537BE
:100AF0004AE039F0583540E121F0523642E009F041
:100B00000895FF93EF937DDFEF91FF91B7CFFF93B0
:100B1000EF93FC0181918030B9F360DFFBCFFF934D
:100B2000EF9368DFF1CFDF93CF93CDB7DEB7259694
:100B3000A3DFCF91DF9108954F925F926F927F92E2
:100B40008F929F92AF92BF92CF92DF92EF92FF92DD
:100B5000CF93DF93CDB7DEB728970FB6F894DEBFFB
:100B60000FBECDBFE62EF42E682F70E090E080E03F
:100B70000E946B3320E030E04FE753E40E94C8321C
:100B80004B015C016E2D70E090E080E00E946B33C1
:100B900020E030E04FE753E40E94C8322B013C01D3
:100BA0006F2D70E090E080E00E946B3320E030E039
:100BB0004FE753E40E94C8326D837E838F8398870A
:100BC0009B01AC01C301B2010E94A6339B01AC01A1
:100BD000C501B4010E94A6336B017C012D813E81C9
:100BE0004F815885C301B2010E94C5339B01AC01FE
:100BF000C501B4010E94C5339B01AC01C701B60118
:100C00000E94563269837A838B839C8320E030E094
:100C1000A9010E94C332882309F4B3C0A701960139
:100C2000C501B4010E94C33281116FC02D813E8184
:100C30004F815885C301B2010E94563229813A8101
:100C40004B815C810E94C83220E030E040EC50E4EF
:100C50000E94EF3320E030E040E752E40E94BB34D2
:100C60004B015C0120E030E0A901C701B6010E9400
:100C7000C332412C512C3201882351F0A701960137
:100C800069817A818B819C810E94C8322B013C0151
:100C900020E030E04FE753E4C501B4010E94BB34CB
:100CA00020E030E044EB53E40E94C8320E943A3323
:100CB000A62E20E030E04FE753E4C301B2010E94CA
:100CC000BB340E943A33B62E20E030E04FE753E4C5
:100CD000C701B6010E94BB340E943A33862FB5018A
:100CE00028960FB6F894DEBF0FBECDBFDF91CF912F
:100CF000FF90EF90DF90CF90BF90AF909F908F903C
:100D00007F906F905F904F900895A7019601C30167
:100D1000B2010E94C332811115C0A50194016D81F9
:100D20007E818F8198850E94563229813A814B813C
:100D30005C810E94C83220E030E040E050E40E9434
:100D4000573288CFA70196016D817E818F8198856A
:100D50000E94C332811111C0A3019201C501B401E7
:100D60000E94563229813A814B815C810E94C832AF
:100D700020E030E040E850E4E2CF60E070E0CB01FA
:100D800069CF812C912C54016DCF80938C0260939C
:100D90008B0240938A020E949C05962F672F482F52
:100DA000892F90E00E94E82308958AE20E9483241C
:100DB0000E944E230E943C2380918D02882351F093
:100DC00083E00E948C2380E00E94FA0F83E00E945F
:100DD000FA0F089582E0F5CF8091AE01882389F063
:100DE00080918D0220E040E060E0811106C02091FA
:100DF0008A0240918B0260918C0288E190E00E940F
:100E0000EA1F81E00895823071F0833041F0813033
:100E100071F44FEF6BE385E00E94C506089540E052
:100E20006FE68FEFF9CF4AE46FEF83E0F5CF809163
:100E30008702909188024FEF019711F46FEFF1CF85
:100E400060E088E8E9CF0F931F93CF938C010E9455
:100E5000900BC82F809189028C1729F08C2F0E944B
:100E60000307C0938902C801CF911F910F91089584
:100E700080E00E9403070E94D50680E00E94FA0FDE
:100E80000895CF93FB01C581CC2389F09C012150AB
:100E90003E4722303105A8F481309E4759F48091B5
:100EA0008D0291E0892780938D020E94D5068C2FB8
:100EB000CF9108958091AE0191E089278093AE0192
:100EC000F4CFC0E0F4CFFC0181E0309729F091E04D
:100ED0008081811190E0892F81700895CF930E94C5
:100EE0005414C82F0E946A14C82B0E947D148C2BA6
:100EF000CF9108950E9467148FEF0E9473148FEFB3
:100F00000E94A0148FEF0E945D140895982F917194
:100F100061E009F460E071E0982F947409F470E0E6
:100F200031E0982F987809F430E0827291E009F46A
:100F300090E0832F089581159E47A9F4FB018581D8
:100F4000882389F0809187029091880201968230EF
:100F5000910528F490938802809387020895109257
:100F600088021092870208950F931F93CF93DF9307
:100F7000EC018B010E945414F8019581992379F0BA
:100F8000AB9741F48D7D31F081E00E94FA0F81E052
:100F900080938602DF91CF911F910F9108958091E8
:100FA00086028823B9F39E012B7F81E0223E310522
:100FB00009F080E08170233E310531F480E00E9429
:100FC000FA0F10928602E6CF8111F8CFC03ED1050C
:100FD00009F7F4CFEF92FF920F931F93CF93DF9314
:100FE0007C01CB01D42FF901C581C11107C0C0E03C
:100FF0008C2FCDB7DEB7E6E00C9418360E94FA09C4
:101000008C010E9463078111F2CFC7010E94810AFF
:101010000E947A07C8010E9415278D2F0E94641430
:10102000E7CF1F93CF93DF93FC01EB01142F905276
:101030008115904330F4D90116969C91907F09F464
:1010400047C0209709F444C0CF010E94810A0E9442
:101050007A07CE010E946B0AD0938502C093840266
:10106000812F0E94641482E20E94731482E20E9423
:10107000A01482E20E945D148091480380FD05C0A7
:1010800081E0DF91CF911F910895DF93CF9381E1AC
:1010900091E09F938F930E949305809148030F9056
:1010A0000F900F900F9080FFEBCF127280ED91E0C8
:1010B00011F08BEC91E09F938F9380E091E09F93F0
:1010C0008F930E9493050F900F900F900F90D8CFA1
:1010D00080E0D7CF8091840290918502009741F003
:1010E0000E94810A109285021092840281E0089584
:1010F00080E00895809148038160809348030E94B6
:1011000038070895B0E0A0E0E8E8F8E00C94F23584
:10111000EC017B018091480380FF08C081EE90E0E4
:101120009F938F930E9493050F900F90F701A580D6
:101130000E946E07182F0E9486072B013C01B70101
:10114000CE010E944107882331F080E0CDB7DEB7A1
:10115000E0E10C940E36B701CE010E949B07B70167
:10116000CE010E94B4078091480380FF12C0812FF6
:10117000827209F041C080ED91E09F938F938FECD4
:1011800090E09F938F930E9493050F900F900F9084
:101190000F90B301A201CE010E943F096C01B82E4D
:1011A0000D2D892B11F4BC2E0D2F2091870230912B
:1011B0008802B301A2018B2D902F0E94E8094C01F7
:1011C000009711F0B82E092D9701412F6B2D702F2C
:1011D000CE010E94EA078111B8CFC828D928C114CE
:1011E000D10469F40E946A088111AFCF809148034D
:1011F00080FD11C081E0AACF8BEC91E0BECFAA2088
:1012000089F39701412F6B2D702FCE010E94110899
:10121000882341F39ACFDF93CF938DEB90E09F9398
:101220008F930E949305809148030F900F900F9029
:101230000F9080FFDFCF127280ED91E011F08BEC08
:1012400091E09F938F938CEA90E09F938F930E94FD
:1012500093050F900F900F900F90CCCF8C3222E41B
:10126000920751F08C3223E4920731F08C32914492
:1012700019F088EC90E008958DE790E008958932A8
:10128000910541F451119EC0772309F49EC085E376
:1012900090E008958832910531F4772309F495C0E0
:1012A0008AE290E008958433910529F471118FC08A
:1012B00084E392E008958D3222E0920721F47723AF
:1012C00009F483C008958E32910521F4772309F43F
:1012D0007CC008958F32910531F4772309F475C0ED
:1012E00086E392E008958033910531F4772309F481
:1012F0006CC087E392E00895863222E0920731F4D1
:10130000772309F462C08FE292E00895873222E0E9
:10131000920731F4772309F458C080E392E00895EE
:10132000843222E0920731F4772309F44EC084E03E
:101330009EE70895813322E0920731F4772309F480
:1013400044C083E09EE708958633910529F477230E
:10135000E1F18EE192E008958733910529F4772336
:10136000A1F188E392E008958833910529F4772369
:1013700061F181E390E008958A34910529F44423D2
:1013800021F18BE490E008958D34910529F44423F4
:10139000E1F08EE490E008958632910529F47723F8
:1013A000A1F085E392E008958D32910529F4772329
:1013B00061F087E590E0089586309E4731F488E239
:1013C00092E108958BE290E0089590E080E0089526
:1013D0002130310561F4833E910531F0823E910563
:1013E00031F48EE690E008958DE690E0089590E067
:1013F00080E0089583302EE7920751F084302EE785
:10140000920749F085309E4749F48CED91E00895AC
:1014100086ED91E0089589ED91E008958BED91E0DE
:1014200008958430B8F46430A8F44C3098F450E057
:101430009CE0699F400D511D1124FA0190E3899FA2
:10144000E00DF11D1124EE0FFF1FED5DFE4F8591A4
:101450009491089581E090E008950E94110A089502
:101460009C013A9521153F4150F5FC01EE27F170A2
:10147000BC0166277270AC01442754709C0122277E
:10148000387094FF0EC080E1EF2B09F480E0672BE9
:1014900009F08062452B09F08064232B89F0806875
:1014A000089581E0EF2B09F480E0672B09F082605A
:1014B000452B09F08460232B19F08860089580E0A3
:1014C0000895CF93DF93EB010E94300AFE01099546
:1014D000DF91CF910895CF93DF93EC01805E910966
:1014E000089720F06CE57FE0209711F46EE17DE035
:1014F000CE010E94610A8C2F0E947D0CDF91CF915A
:101500000895CF93DF93EC010E94CA0CCE01805E58
:101510009109089720F063E67FE0209711F465E2D7
:101520007DE0CE010E94610ADF91CF91089581E0B4
:1015300008950E94970A089581E008950E94820804
:10154000089508950E94A10A0895A6E0B0E0EBEA8C
:10155000FAE00C94FF3549835A839E8330919302BD
:1015600089819A8131111AC03E81332399F0222357
:1015700089F00E94CC10182F682F89819A810E94CF
:10158000A81069817A81812F0E9424182696E3E0B1
:101590000C941B360E94BA10182FF3CF0E94CC1067
:1015A00069817A81F1CFFC01262F408151816281CE
:1015B0007381848195810E94A50A0895CF93DF935A
:1015C000EC0161E00E94D30ABE010E94990ADF91FA
:1015D000CF910895CF93DF93EC0160E00E94D30A8E
:1015E000BE010E94A20ADF91CF91089508950E9442
:1015F000800F0E94F60A2FEF84E39CE02150804088
:101600009040E1F700C0000008950E94F70A0E9490
:10161000D12A08950E94F70A0E94F52A08950F938F
:101620001F93CF93DF938C0161E00E94D30AEC01FA
:10163000B8010E949E0A811106C080E0DF91CF911F
:101640001F910F910895B801CE010E94B2278823FF
:10165000A1F3B801CE010E947625882371F3B80169
:10166000CE010E941927882341F3B801CE010E94C0
:10167000F324882311F3F8018581882369F0C330AE
:10168000FCE7DF0781F160F4C130ECE7DE0769F1C8
:10169000C0F4C115DC4791F0C8010E949C0ACECF6E
:1016A000CB35ECE7DE0739F1CC35FCE7DF0701F19C
:1016B000CA35DC4789F70E946215EECF0E94050B00
:1016C000BCCF90914803892F8E7F90FF81608093DB
:1016D000480380FF05C085EB92E00E94FA04ADCF7D
:1016E00083EA92E0FACF0E946A150E940A0BA5CF06
:1016F0000E945815D1CF0E946615CECF0E94E629D0
:101700000E94A8210E94F60B81E00E94E522089524
:101710000E94FA0B80E00E94E5220E94EB290895C6
:10172000292F332740E02115310511F0C90148E088
:101730009C0164E0369527956A95E1F721153105FE
:1017400011F04C5FC9019C01369527953695279578
:101750002115310511F04E5FC90196958795892BAA
:1017600009F04F5F842F0895829590E09C01220F2D
:10177000331F220F331F2C7C959587959595879560
:101780008373282B30E0C901880F991F8A7A359519
:1017900027952575822B0895CF93DF93D92F0E942B
:1017A000B40BC82F8D2F0E94B40B9C2FDF91CF91CB
:1017B0000895089581E008950895CF93DF93D82F79
:1017C0000E94DA0BC82F882319F08D2F0E94DC0BA2
:1017D0008C2FDF91CF9108950895CF93C82F0E9449
:1017E000D90B8C2F0E94DD0BCF91089580E00E94D1
:1017F000ED0B08950E94FB270E94ED0B0895CF93F7
:101800000E94FB27C82F80918E028C1789F1C0930C
:101810008E020E94762A60938F02709390028093CA
:101820009102909392028091480382FF1EC080FF34
:101830001CC08DEC92E00E94FA048091480380FF66
:1018400014C01F92CF9388EC92E09F938F930E94D5
:101850009305809148030F900F900F900F9080FF99
:1018600004C086EC92E00E94FA048C2F0E94ED0BDB
:10187000CF910895ADE0B0E0E0E4FCE00C940036D8
:10188000488759876A877B878C879D8791110E943B
:101890007A141F8286E0FE013896DE0111960190CF
:1018A0000D928A95E1F78D8181110DC029813A81D0
:1018B0004B815C816D817E818F810E94A7132D9663
:1018C000E2E00C941C36CE0101960E94DE0A8111E2
:1018D000EDCFF5CFFC012481213021F4808191816D
:1018E0000E94FE100895662329F00E94951B0E9415
:1018F000681C08950E94EF1BFACFCF93C82F88234E
:10190000B9F08CEF8C0F813AA8F46C2F8091AF0165
:101910009091B0010E94C728882329F08C2F0E9443
:1019200034140E94B6148C2F0E942C140E94B614FA
:10193000CF91089580E28C0F883048F4C77081E021
:1019400001C0880FCA95EAF70E945714EFCFEBE564
:10195000EC0FE33040F4F0E0EB5EFD4F808190E06F
:101960000E946928E5CFE8E5EC0FEB3150F4F0E098
:10197000EE0FFF1FE152FE4F808191810E948E2861
:10198000D7CF83E38C0F833198F661E08C2F0E94D0
:10199000730CCECF882381F19CEF980F913A28F4F5
:1019A0000E9434140E94B614089590E2980F983063
:1019B00050F4877091E001C0990F8A95EAF7892F5A
:1019C0000E945D14EFCF9BE5980F933028F490E0D0
:1019D00080E00E946928089598E5980F9B3128F4CB
:1019E00090E080E00E948E28089593E3980F933151
:1019F00018F460E00E94730C08951F93CF93DF9357
:101A0000182FEB010E947D0C209739F4812F0E9442
:101A1000CA0CDF91CF911F9108958FE99FE0019744
:101A2000F1F700C000002197EFCF70E060E089334C
:101A300011F460E570E00E94FD0C0895882321F008
:101A40000E9457140E94B6140895882321F00E9422
:101A50005D140E94B6140895B0E0A0E0E2E3FDE05A
:101A60000C94F9356C01D62FC72FFC011581068126
:101A700002950F700E944D14E82E8823E9F0E12EA4
:101A80001123D1F08C2F807F803451F080E28D0FB4
:101A90008830F8F0011104C08C2F807E8032C9F0AC
:101AA0008091BB0382FF15C082E00E9419150E943D
:101AB0004D1491E0E82EE926BC2EB2949FE0B922A5
:101AC000FBE0FB15B8F1EB2DF0E0EF56F94C0C9470
:101AD000EA35E12CF1CF0C2F0F70C07F11F0029589
:101AE000007F112399F0002359F080E28D0F883098
:101AF00010F0D11107C0802F0E9457140E94B61415
:101B00008D2F5AC0802F0E946D14F8CF8D2F0E9408
:101B1000CA0C002379F080E28D0F883010F0D111CB
:101B200004C0802F0E945D1403C0802F0E94731494
:101B30000E94B614EB2DE850FF0B349720F40E945E
:101B4000FB270E94ED0BEE2089F00E94491480FDD6
:101B50000DC0F60115820E9443140E940610C601B2
:101B60000E94390F0E9443140E941610CDB7DEB7B1
:101B7000E9E00C9415362C2F2F70F22EC07FC03266
:101B800019F0F29480EFF822DD2341F0D130D1F149
:101B9000112309F444C00023F1F0B2CF8091BB03BC
:101BA00082FD15C0112359F0FF2029F08F2D0E94CE
:101BB00057140E94B61480E00E947D0CBBCF80E0D9
:101BC0000E94CA0CFF2009F4B5CF8F2DABCF112393
:101BD00069F0011104C08F2D0E941E0DABCF0130A2
:101BE00009F0A8CF8F2D0E949414A4CF0111A2CF89
:101BF0008F2D0E94250D8F2D0E94A0148F2D0E94E5
:101C0000841498CF112321F0063008F093CFE3CF4E
:101C1000053008F08FCF8F2D0E94250D8BCF00232C
:101C2000D1F3D93349F43FEF87EE93E03150804050
:101C30009040E1F700C000008D2F0E94CA0C7ACFBF
:101C40008C2F86958695837069F0813009F072CF6C
:101C50008D2F9C2F9370111102C080E090E00E94A4
:101C60008E2868CF8D2F9C2F9370111102C080E0B9
:101C700090E00E9469285ECF612F8D2F0E94730C27
:101C800059CF8C2F8370A1F5111154CF4D2F429550
:101C900046954770440F440F2D2F2F7030E0042ECF
:101CA00002C0220F331F0A94E2F790E080E0D4FFD5
:101CB00009C08FE090E002C0880F991F4A95E2F7B3
:101CC00080959095C695C695C370822B932BC23094
:101CD00049F058F4C13019F00E94D90F2BCF0E945F
:101CE000D00F28CF0E94E20F25CF0E94CD0F22CF28
:101CF0008695112311F08C2F8170882309F41ACF57
:101D00004D2F429546954770440F440F2D2F2F704D
:101D100030E0042E02C0220F331F0A94E2F790E055
:101D200080E0D4FF09C08FE090E002C0880F991FC7
:101D30004A95E2F780959095C695C695C370822B1B
:101D4000932BC23049F058F4C13019F00E94411071
:101D5000F1CE0E943810EECE0E944A10EBCE0E94C7
:101D6000EE0FE8CECF70112329F08C2F0E940610C1
:101D70008D2F32CF8D2F0E94250D8C2F0E94161093
:101D8000D9CED23F41F160F4D03FB9F0D13F81F0DC
:101D9000112309F446C00111B3CE8C2F8F711FC0DF
:101DA000D33F01F1D43FA1F78091BB0382FD24C052
:101DB0008C2F8F71112311F312C0112341F00530C4
:101DC00008F0B8CE8C2F8F710E942810B3CE063049
:101DD00008F0B0CEF7CF8C2F8F711111CFCF0E94AA
:101DE0000610A8CE112329F08C2F8F710E94FA0FB4
:101DF000A1CE0E94F50F9ECE112349F0CF718C2FFA
:101E00000E94061063E08C2F0E94FB1493CE81E0A9
:101E10000E941915023008F48DCE82E00E94191537
:101E200089CE002359F0D93309F006CFEFEFF7EE52
:101E300023E0E150F0402040E1F7FCCE8C2F8F7181
:101E40009DCF0F931F93CF93DF93EC01688179812E
:101E50008D810E9409118C010E9453100E94CC0FA9
:101E6000B801CE010E942C0DDF91CF911F910F91EF
:101E70000895CF93DF93EC018C81882399F0CE01F4
:101E80000E940F0B811111C00E944D14882351F044
:101E90008D81882339F08091BB0382FF03C082E0EB
:101EA0000E941915DF91CF910895CE010E94210F54
:101EB000CE010E94EA0AF6CF882321F00E946D1419
:101EC0000E94B6140895882321F00E9473140E9482
:101ED000B614089590E080E00E94692890E080E0C8
:101EE0000E948E280E947A140E94B6140E94061D39
:101EF0000E94681C08950E943C140E946A0F089575
:101F00000E9467140E947B0F089592959F709630EF
:101F100091F058F4925F9F70923058F4803F19F01E
:101F200030F4883E30F481E008959A5FF4CF843F26
:101F3000D1F380E00895883EB0F3813FD1F7F3CF2D
:101F4000FC012481222339F0808191810E94FE10BE
:101F50000E94850F089580E00895A6E0B0E0E3EBCD
:101F6000FFE00C9400362696E2E00C941C36A7E0C5
:101F7000B0E0EDEBFFE00C9400362796E2E00C9425
:101F80001C3608950E94C10F08950E94C20F9093BD
:101F9000AF028093AE02089508950E94C50F089580
:101FA0002091AE023091AF02822B932B0E94C50F7D
:101FB00008952091AE023091AF02822393230E94B4
:101FC000C50F08952091AE023091AF02822793276A
:101FD0000E94C50F08950E94230708950E94EB0FE9
:101FE0009093AD028093AC02089590E080E00E944F
:101FF000EE0F089521E030E0A90102C0440F551F03
:102000008A95E2F7CA010E94EE0F089521E030E0C0
:1020100002C0220F331F8A95E2F78091AC029091A3
:10202000AD02822B932B0E94EE0F089521E030E049
:1020300002C0220F331F8A95E2F7209530958091D8
:10204000AC029091AD02822393230E94EE0F08957B
:1020500021E030E002C0220F331F8A95E2F7809121
:10206000AC029091AD02822793270E94EE0F089553
:102070002091AC023091AD02822B932B0E94EE0F87
:1020800008952091AC023091AD02822393230E94E7
:10209000EE0F08952091AC023091AD028227932774
:1020A0000E94EE0F08950895262F277091E001C039
:1020B000990F2A95EAF723E0769567952A95E1F737
:1020C000660F771F660F771FFA01E60FF71F50E0C4
:1020D00040E0682F70E08191DF0111979B01042E91
:1020E00002C0369527950A94E2F72170219528279A
:1020F000292328272C934F5F5F4F4430510559F710
:102100000895A82FA77023E0969587952A95E1F763
:10211000880F991F880F991FFB01E80FF91F50E0E6
:1021200040E080E0219130E00A2E02C036952795EC
:102130000A94E2F721703327042E01C0220F0A947B
:10214000EAF7822B4F5F5F4F4430510559F70895EE
:10215000262F943070F48C3060F4682F70E08CE09F
:10216000989F600D711D112444E952E0822F0E9456
:1021700054100895292F943068F48C3058F490E06E
:1021800064E972E03CE0239F800D911D11240E94C0
:102190008110089580E00895B0E0A0E0E2EDF0E164
:1021A0000C94F9357C010091AC021091AD02809144
:1021B000AE029091AF02082B192BCFE0D0E0CC24D7
:1021C000C394D12CBC2EC6010C2E02C0880F991FBF
:1021D0000A94E2F780239123892B49F4219790F701
:1021E000B12C8B2DCDB7DEB7E9E00C941536B701D5
:1021F0008C2F0E943018019789F3F3CFCF93DF9390
:10220000EC010E94CC10BE010E943018DF91CF91EA
:1022100008951F93CF93DF93EB019091930299233D
:1022200039F0CB010E94FE10DF91CF911F910895EC
:10223000882369F0CB010E94CC10182F682FCE01A3
:102240000E94A810BE01812F0E943018EDCFCB0153
:102250000E94BA10182FF6CF1F93CF93DF93C0912F
:10226000B00217E08091B1028C1304C0DF91CF91CE
:102270001F910895D0E01C9FF0011D9FF00D1124C7
:10228000EE54FD4F208131814281538164817581FB
:1022900086810E94B70F2196C770E4CF2091EA0291
:1022A0003091EB024091EC025091ED026091EE0210
:1022B0007091EF028091F0020E94B70F0895482FAD
:1022C0002091B0029091B10257E0291302C080E042
:1022D000089530E0529FF001539FF00D1124EE5409
:1022E000FD4F8181681306C08081481303C085813A
:1022F0008111EECF2F5F3F4F2770E7CFB0E0A0E016
:10230000E4E8F1E10C94FB358091F002807F09F064
:1023100054C08091EF02882309F44FC0E091B002CD
:1023200087E0D82E8091B1028E1709F446C00E2F97
:1023300010E0ED9DF0011124EE54FD4F84818823BF
:1023400009F440C0D09EE001D19ED00D1124FE01C1
:10235000EE54FD4F91818091EB02981333C0908130
:102360008091EA0298132EC0858181112BC0E280F2
:10237000F3808091EC029091ED02E81AF90A60E096
:102380008AEE92E00E94D30A6AEE72E00E942E0961
:10239000E816F906B8F48091F0028F70806180939E
:1023A000F002C854DD4F88818F70806188838AEE87
:1023B00092E00E94390F0E942C11CDB7DEB7E7E002
:1023C0000C941736F8013196E770ACCFA4E1B0E079
:1023D000ECEEF1E10C94F3358C0186E0F801DE01BE
:1023E0001F9601900D928A95E1F7F801F480E5803F
:1023F0008AEE882E82E0982E8091EE02811126C00E
:10240000F11007C0FF24F3948F2D6496EFE00C9435
:102410000F36EE20B9F0C8010E94A00FF82E8823D5
:1024200089F087E0F801AAEEB2E001900D928A955A
:10243000E1F78AEE92E00E946A0C0E947E110E94EF
:102440004E11E2CFC8010E94390FDCCF5080A1802D
:10245000C280D380B090EF028091EC029091ED02A7
:102460003601681A790A60E08AEE92E0BB2009F42E
:1024700008C10E94D30A6AEE72E00E942E09681613
:10248000790608F0ABC0FF2009F4BCCF8091F002C0
:10249000382F307F2091EB02F801918131115AC021
:1024A000FE2C291316C02091EA029081291311C035
:1024B000E11049C08F7080618093F0020E944E113C
:1024C0008AEE92E00E94390F8091F002F801868333
:1024D0009BCFE11038C06A2D852D0E945F116A2DB7
:1024E000852D0E945F11E82E81118ECF5F86A88A0C
:1024F0008F8598890E94FE10292F22952F702430F5
:1025000058F49F70223088F0992399F0F801968151
:10251000907F79F4FE2C78CF2A5F2F70223068F0FC
:10252000C8010E94390FEB2CF5CF992311F08823B5
:1025300089F3805E883070F3F3CF803F58F3815F7A
:10254000833070F7E7CF8091F00281608093F002D2
:10255000F12C5ACF291317C02091EA029081291338
:1025600012C0E11010C08683C8010E94390F87E0B5
:10257000F801AAEEB2E001900D928A95E1F70E946F
:102580004E11FB2C41CFC8010E94A00F882309F4F3
:1025900059CFEE2009F456CF8091F002803288F0B6
:1025A0002091EA023091EB0239872887DB86CA86C0
:1025B0009091EE029C871D868E87CE0108960E9420
:1025C000390F87E0F801AAEEB2E001900D928A95EA
:1025D000E1F70E947E110E944E1114CF8091F0020B
:1025E000982F907FB1F46C2DDA8AC98A452D5A2D27
:1025F0007A898F2D9E2D0E94AD0F8AEE92E00E9467
:10260000390F87E0F40111928A95E9F70E944E1183
:102610009FCFFF2009F4F6CE2091EB02F8019181C3
:10262000291311C02091EA02908129130CC0E110F6
:102630000AC08683C8010E94390F87E0F401119215
:102640008A95E9F79ECFC8010E94A00F882309F45C
:10265000F9CEEE2009F4F6CE8091F002803208F433
:10266000B0CF2091EA023091EB023A832983DC82D9
:10267000CB829091EE029D831E828F83CE010196C4
:102680009ECF0E94D30A6AEE72E00E942E0968165D
:10269000790608F051C0FF2009F4B4CEFE2CEE20DC
:1026A00009F4D0CE9091EB02F8018181981336C0E5
:1026B0009091EA028081981331C08091EC02909150
:1026C000ED02C81AD90AF8ECCF16D104F0F49091B3
:1026D000F00290FD1AC0907FC1F08091F002F801E5
:1026E0008683903F31F0982F907F905F8F70892B79
:1026F0008683C8010E94390F87E0F801AAEEB2E094
:1027000001900D928A95E1F79ACE87E0F801AAEE42
:10271000B2E001900D928A95E1F776CEC8010E9451
:10272000A00F81114ECF8091F00281608093F00262
:10273000C8010E94390F68CE6C2DDA8AC98A452DEE
:102740005A2D7A898F2D9E2D0E94AD0F5ACFAEE063
:10275000B0E0EDEAF3E10C94FF35288739874A872A
:102760005B876C877D878E87CE0108960E94E61175
:102770008823B1F06C85662341F0288539854A8528
:102780005B857D858E850E94B70F17E08091B00232
:102790009091B10289133DC02E96E3E00C941B3654
:1027A00087E0FE013896DE01119601900D928A9520
:1027B000E1F78C85882349F32091B10230E0C9010B
:1027C0000196877099274091B0024817190699F031
:1027D00097E0929FD001939FB00D1124AE54BD4F4E
:1027E000FE01319601900D929A95E1F78093B10226
:1027F0000E942C11CACF0E94800F1092B102109239
:10280000B00287E0EAEEF2E0DF011D928A95E9F777
:10281000BCCF819FC00111248E549D4F0E94E611B0
:10282000882309F4B9CFE091B0021E9FF001112472
:10283000EE54FD4F20813181428153816481758145
:1028400086810E94B70F8091B00290E00196877058
:1028500099278093B0029ACF682F8091AF01909111
:10286000B0010E9469290895682F8091AF0190916D
:10287000B0010E94772908958091AF019091B00135
:102880000E948529089580911103869586958695E5
:1028900008958091110387700895909111039770A6
:1028A00081E009F480E008958091350308959091C6
:1028B0003503892B809335030895809590913503D6
:1028C00098239093350308958093350308951092CB
:1028D0003503089580913403089590913403892B32
:1028E00080933403089580959091340398239093B6
:1028F00034030895109234030895809113030895CA
:1029000008950E948014089590911203292F28237E
:1029100031F080958923809312030E9481140895D9
:1029200008950E949014089590911303292F28234D
:10293000281729F0982B909313030E94911408955F
:1029400090911303292F282331F0809589238093B8
:1029500013030E949114089580911303882329F092
:102960001092130380E00E9491140895CF93DF9397
:10297000E091AF01F091B001809135038083E09147
:10298000AF01F091B001808190913403892B808355
:1029900090911303992381F0E091AF01F091B00180
:1029A0008081892B80838091AF019091B0010E943A
:1029B000B32881110E94AC14C091AF01D091B00135
:1029C00040E250E061EF72E0CE010E942736892B91
:1029D00059F080E2FE01A1EFB2E001900D928A95DC
:1029E000E1F7CE010E940828DF91CF910895089564
:1029F0000E94F71408959091BB0392FF11C098E0D4
:102A0000899F90011124622B609311030E9406108C
:102A1000809111038695869586950E94F8140895F5
:102A20000E94061008951092110380E00E94F8148D
:102A30000895909111038095892380931103282F85
:102A4000277069F4891759F09091BB0392FF07C072
:102A50008695869586950E9416100E9413150895F6
:102A6000CF93C82F8091BB0382FB992790F99C17C5
:102A7000E9F0C0FB82F98093BB038091BA03909187
:102A8000BB030E948B1582E00E94191580914803B8
:102A900080FF0CC01F92CF9388ED92E09F938F939D
:102AA0000E9493050F900F900F900F90CF91089573
:102AB0008091BB0382FB882780F991E089270E94DF
:102AC0003015089581E00E943015089580E00E943D
:102AD000301508956FEF7FEF90E080E00E94893617
:102AE000089590E080E00E94553621E0863E9E4F9A
:102AF00009F020E0822F089582E090E00E944D3698
:102B0000089583E090E00E944D36089584E090E0BF
:102B10000E9455360895BC0184E090E00E948936F9
:102B20000895AB01BC018FE090E00E947D360895CE
:102B3000AB01BC0183E190E00E947D36089560E026
:102B400070E0CB010E949815089560E070E0CB0121
:102B50000E9491150E949F150895A8E0B0E0E3EB54
:102B6000F5E10C94003666EE7EEF90E080E00E9486
:102B7000893660E082E090E00E946B3660E083E09E
:102B800090E00E946B361092AF021092AE0260E0AD
:102B900074E184E090E00E94893660E086E090E095
:102BA0000E946B366FEF87E090E00E946B3640E04A
:102BB00050E0BA0188E090E00E947D3660E084E257
:102BC00090E00E946B3660E087E190E00E946B36F7
:102BD00060E08CE090E00E946B3660E08DE090E079
:102BE0000E946B3619821A821B821C821D821E82F1
:102BF0001F82188648E050E068E170E0CE0101963F
:102C00000E945B3640E050E0BA0180E290E00E9412
:102C10007D360E94A5152896E2E00C941C360E9491
:102C2000AD150895682F8EE090E00E946B360895F0
:102C3000A6E0B0E0EEE1F6E10C94FE350E946A2ACF
:102C40008C0180913603909137038017910781F0B2
:102C500019821A820E946A2A682F49815A81792F23
:102C600080E090E00E943A0C109337030093360303
:102C70002696E4E00C941A360E94762A6093440368
:102C800070934503809346039093470360934003FA
:102C900070934103809342039093430308950895F2
:102CA00008950E944F1608950E947A0808958AEAAE
:102CB0009CE20E940B1B0E9450160E945116089520
:102CC00081E008950E94601608950E94601608959C
:102CD000089508950E9468160E94691608950E943A
:102CE00043190E94EC0B0E94642208950E94612AFD
:102CF0000E945F1A0E946F16EAEBF3E08081806801
:102D000080838091BA039091BB030E948B150E942F
:102D100054160895A6E0B0E0E0E9F6E10C94F4352D
:102D20000E94621681110CC00E9418160E94A821F0
:102D30000E94281D0E94FF0B2696EEE00C94103690
:102D40000E94751A28E3822E23E0922E640110E07F
:102D5000F601E190F1906F01812F0E9469191F5FC8
:102D6000143009F44EC0E816F90691F38091480337
:102D700081FD0E9472190E946516682E10E0812F55
:102D80000E9469197C01F401A190B1904F018A154C
:102D90009B0589F1A826BF2400E0CC24C394D12C44
:102DA000C5018C219D21892BE9F077247394C701FB
:102DB0008C219D21892B09F4712C662071F00983E7
:102DC0001A830E946A2A682F8B839C8349815A81C7
:102DD000792F81E0972D0E943A0C472D602F812F8B
:102DE0000E94A4200F5FCC0CDD1C0C30C9F6F4014E
:102DF0003297F182E0821F5F143009F60E943C1680
:102E000095CFE816F90609F0B1CF8ECF1F93CF9377
:102E1000DF930E943518EC01C11580E5D807F0F565
:102E2000C11580E4D80708F09CC0C03ED10520F54C
:102E3000CD3CD10508F082C0C83AD10578F4C53A36
:102E4000D10508F073C0C130D10519F1209709F1FF
:102E5000C430D105F0F4D0E0C0E01BC0C33CD105C4
:102E6000D0F7C85AD0E0CC0FDD1FC85EDD4F099007
:102E7000D881C02DD4640DC0C11580E2D80708F0F8
:102E8000D1C0C11581E0D80708F05AC0C83ED105AD
:102E900010F7CE01DF91CF911F910895C03682E5E2
:102EA000D80718F5C03482E5D80708F06BC0C032E7
:102EB00082E5D80708F05FC0C11582E5D80708F49D
:102EC00097C02C2F2695269580E2289F90011124EB
:102ED0008C2F8370C1E0D0E002C0CC0FDD1F8A953B
:102EE000E2F7C22BD32BDD68D4CFC03A82E5D807F6
:102EF00060F4C03882E5D80708F459C0CF71D0E03B
:102F0000DC2FCC27C46FD06AC4CFC03C82E5D80781
:102F100008F462C0C03E82E5D80708F09CCFDC2FE1
:102F2000CC27CC27DF71C06FD06AB3CFC55AD0E0B1
:102F3000C25BDD4FC881D0E0D064ABCFD065A9CFF4
:102F40008D2F0E94D718182FCE0199270E9435186F
:102F5000C12FD0E0DC2FCC27CC27DF71C82BD92B99
:102F600098CFCE0199270E943518CC27DF70C82B47
:102F7000D92BD06A8ECFCF71D0E0DC2FCC27C16F98
:102F8000D06A87CF2C2F26952695277080E2289F20
:102F9000900111248C2F8370C1E0D0E002C0CC0FCF
:102FA000DD1F8A95E2F7C22BD32BDC6872CF2C2F62
:102FB00026952695277080E2289F900111248C2F5A
:102FC0008370C1E0D0E002C0CC0FDD1F8A95E2F72C
:102FD000C22BD32BDA685DCF8C2F8F710E94D7184C
:102FE000C82FD0E0DC2FCC27CC27DF71D06251CFA7
:102FF0008C2F8F710E94D71855E0D695C7955A959A
:10300000E1F7CF70D0E0DC2FCC27282F30E084FF11
:1030100005C044E0220F331F4A95E1F7C22BD32BA2
:10302000D06937CF8D2F8F710E94D718182FCE01FE
:1030300099270E943518C12FD0E0DC2FCC27CC2750
:10304000DF71C82BD92BD2CF462F743030F46C30BF
:1030500020F4672F0E942D0A089590E080E00895E3
:103060000E9424180E940617089582389105B9F12C
:10307000B0F48133910509F47DC048F4893291059B
:1030800009F46DC08A32910509F47BC00895853337
:10309000910509F45FC08933910509F10895833ED4
:1030A0009105D9F138F4803E910529F1823E9105D0
:1030B00079F10895863E9105D9F1873E910509F48D
:1030C0003EC0843E910541F52091BB0321FF24C001
:1030D0008091BA0384FD19C087EE90E00895209195
:1030E000BA03237009F05AC02091BB0323FF14C018
:1030F00089E290E008952091BA0320FD38C0309114
:10310000BB0330FF09C024FF43C090E080E0089576
:103110002091BA0322FDF7CF08952091BA0322FD32
:103120003AC03091BB0330FD39C024FFF5CFEDCF5D
:103130002091BA0323FFF0CF24FDE7CFCDCF20911C
:10314000BA0323FD2EC03091BB0331FFEECF84EED6
:1031500090E008952091BA0325FFDECFC9CF2091DA
:10316000BA0325FD21C02091BB0323FFD5CF89E3FE
:1031700090E0D2CF2091BA0326FFCECF8AE290E032
:1031800008952091BA0326FFC7CF81E390E0089508
:1031900083EE90E0089582EE90E0089580EE90E056
:1031A000089586EE90E0089585E390E0089590916B
:1031B000BA0392FF10C041E0282F2471243009F097
:1031C00040E031E0282F2871283009F030E0431723
:1031D00011F02CE0822793FF10C041E0282F2471CA
:1031E000243109F040E031E0282F2871283109F01E
:1031F00030E0431711F02CE082273091BB0330FF01
:1032000010C051E0282F2171213009F050E041E039
:10321000282F2871283009F040E0541711F029E0D8
:10322000822731FF10C041E0282F2171213109F0A0
:1032300040E031E0282F2871283109F030E04317B1
:1032400011F029E0822794FD877E08950E946A1577
:1032500008950E94751A2FEF86E791E02150804073
:103260009040E1F700C000000E94751A80E00E94C3
:10327000691980FF04C00E9426190E94D12A08956E
:103280000E94291908950E947115811102C00E949F
:103290000F160E947C15809348030E948615909318
:1032A000BB038093BA030E9440190E94811590E0ED
:1032B0000E94CD0F8091AC029091AD020E94EB0F65
:1032C000089508950E946119089508950E9465194E
:1032D0000895E82FF0E0EE0FFF1FEC53FC4F8081C4
:1032E00091810895B0E0A0E0E8E7F9E10C94FA35A7
:1032F0008DEF92E00E94FA0484ECE82E83E0F82E31
:10330000D0E0C0E098EFC92E92E0D92E0FEE12E087
:10331000DF93CF93DF92CF920E94930585EF92E0E7
:103320000E94FA04F701819191917F010E94CC0BD8
:103330009F938F931F930F930E9493058DEE92E0BE
:103340000E94FA0421968DB79EB708960FB6F8949E
:103350009EBF0FBE8DBFC430D105D1F6CDB7DEB74D
:10336000E8E00C94163680EA8A95F1F7089500C0DB
:1033700008950E94B3190895F894E82FE295EF702C
:10338000F0E031A1282F2F7081E090E001C0880F7C
:103390002A95EAF7982F9095932391A392A1892BD0
:1033A00082A378940895CF93DF9385E90E94BC1996
:1033B00086E60E94BC1986E30E94BC1986EC0E9436
:1033C000BC19C1E5D2E089918F3F11F00E94BC1970
:1033D00082E0CD35D807B9F7DF91CF910895AF924C
:1033E000BF92DF92EF92FF920F931F93CF93DF93E1
:1033F0008C01D62EC62FD0E0CE01835A9D4F7C0182
:10340000FC0120812F3F09F44DC0F894E22FE29592
:10341000EF70F0E031A12F7081E090E001C0880FE3
:103420002A95EAF7932F982B91A392A1809589234F
:1034300082A378940E94B719E1E5F2E04DE552E0ED
:1034400021E030E0B12CA12C61916F3FA9F1A62FB2
:10345000A295AF70B0E090968C9190E06F7002C032
:10346000959587956A95E2F780FD26C0C901A82A3F
:10347000B92A220F331F4E175F0731F7F7018081FA
:103480008F3F11F00E94BC1961E0A114B10409F44E
:1034900060E08D2D0E94B919CC0FDD1FC00FD11F28
:1034A000B982A882DF91CF911F910F91FF90EF9089
:1034B000DF90BF90AF90089590E080E0D8CF0E9459
:1034C000D31988E0E4ECF3E0DF01982F1D929A9580
:1034D000E9F7ECEBF3E0DF011D928A95E9F784E070
:1034E0000E94B01A0E9462190895A8E0B0E0EBE7CC
:1034F000FAE10C94FD358E010F5F1F4F88E0F80153
:1035000011928A95E9F7F12C6F2DC8010E94EF19ED
:10351000F394F4E0FF12F8CF48E050E0B8018CEBF0
:1035200093E00E94273621E0009709F420E0892BE0
:1035300041F088E0F801ACEBB3E001900D928A9580
:10354000E1F744E064EC73E08CEB93E00E94B11A85
:10355000182F0E946619812F2896E5E00C941936E1
:103560000895CF92DF92EF92FF921F93CF93DF9354
:103570006C017B01C42F222349F081E080934B032F
:103580000E946A2A90934A038093490310914B0347
:1035900011110AC010E0812FDF91CF911F91FF9090
:1035A000EF90DF90CF9008958091490390914A0366
:1035B0000E94822A059770F3D0E0CC0FDD1FAE0188
:1035C000B601C7010E942736892B41F0AE01B60132
:1035D000C7010E94343610924B03DDCF10E0FBCFC1
:1035E0000E94262D0E9476160E94332D08950E9477
:1035F000382D0E948A160E945A2D08950E94032A8F
:103600000E940C2D0E9457160E94F01A0E94F71A71
:103610000E946A16FBCF90938302809382020895E2
:10362000282F35EB2303C001112497FF04C08058D5
:103630009109892F089580589F4FFBCF80915203A5
:1036400080FF0DC06091B60170E0660F771F603893
:10365000710570F56115710569F1862F089581FF77
:1036600007C06091B60184E0689FB0011124EFCFDC
:103670006091B60182FD0AC0809151038823A9F0B0
:103680002091B5016091B601821710F088E0ECCF6F
:10369000869FC001112433E0880F991F3A95E1F706
:1036A000622F70E00E949535D2CF68E070E0D5CFF0
:1036B0008FE7089581E008958091520380FF0CC048
:1036C0006091B20170E07595679575956795611584
:1036D000710549F1862F089581FF06C06091B201FE
:1036E00070E075956795F3CF6091B20182FD0BC0D4
:1036F000909150039923A1F06091B1018091B201A2
:10370000961738F0682F70E06038710500F38FE786
:103710000895899FC001112470E00E949535F4CF6F
:1037200061E070E0D7CF81E008958D3C31F40E94D4
:103730001E1B81958093560308958E3C19F40E94B8
:103740001E1BF8CF8F3C31F40E941E1B8195809385
:1037500055030895803D19F40E941E1BF8CF893D42
:1037600029F40E945C1B8093570308958A3D21F43D
:103770000E945C1B8195F7CF8B3D31F40E945C1B4E
:1037800081958093580308958C3D19F40E945C1B29
:10379000F8CF9FE2980F983070F4815D990B21E08B
:1037A00030E001C0220F8A95EAF780915403822B02
:1037B0008093540308958D3D31F4809152038160CC
:1037C0008093520308958E3D21F4809152038260CC
:1037D000F7CF8F3DB9F7809152038460F1CF4091CC
:1037E00055038D3C59F48091560387FF0DC010920C
:1037F000560341110BC01092510308C08E3C81F456
:103800008091560318169CF3442381F0809157034E
:1038100090915803892B09F05AC0109250030895D3
:103820008F3C49F447FFF0CF109255038091560327
:103830008111ECCFE0CF803D19F41416ACF3E4CF46
:1038400090915703893D29F41916F4F61092570305
:10385000DBCF8A3D19F497FFD7CFF8CF909158036B
:103860008B3D29F497FFD0CF10925803CDCF8C3DDC
:1038700019F41916CCF3C8CF9FE2980F983090F442
:10388000815D990B21E030E0B90102C0660F771F1E
:103890008A95E2F7CB018095909154038923809318
:1038A0005403B2CF8D3D31F4809152038E7F8093CB
:1038B0005203AACF8E3D21F4809152038D7FF7CF22
:1038C0008F3D09F0A1CF809152038B7FF0CF0895F7
:1038D0008091480383FF7EC08BE393E00E94FA044B
:1038E000809154031F928F9386E393E09F938F936D
:1038F0000E94930584E393E00E94FA0480915503AB
:10390000282F082E000C330B3F938F9381E393E015
:103910009F938F930E9493058FE293E00E94FA0495
:1039200080915603282F082E000C330B3F938F9362
:103930008CE293E09F938F930E9493058AE293E039
:103940000E94FA0480915703282F082E000C330B95
:103950003F938F9387E293E09F938F930E94930509
:1039600085E293E00E94FA0480915803282F082EE4
:10397000000C330B3F938F9382E293E09F938F93DE
:103980000E9493058FE193E00E94FA048091510315
:103990001F928F938CE193E09F938F930E949305E6
:1039A0008AE193E00E94FA04809152031F928F9360
:1039B00087E193E09F938F930E94930584E193E0C6
:1039C0000E94FA048DB79EB74C960FB6F8949EBF2E
:1039D0000FBE8DBF0E946A2A9C0190915503809171
:1039E0005603982B21F030934F0320934E03909170
:1039F000570380915803982B21F030934D03209367
:103A00004C0383E593E00E945B28089586E0E3E59C
:103A1000F3E0DF011D928A95E9F7109251031092AD
:103A20005003109252030895FC01828181110EC04F
:103A3000838181110BC08481811108C091E085814F
:103A4000811101C090E0892F8170089581E0FCCF41
:103A5000A6E0B0E0EEE2FDE10C94FF3586E0E3E5A0
:103A6000F3E0DE01119601900D928A95E1F7109234
:103A700055031092560310925703109258038B81EE
:103A80009C81892B89F080914E0390914F030E9475
:103A9000822AAC01909151039923C9F18091B70119
:103AA0008417150608F440C08D819E81892B91F002
:103AB00080914C0390914D030E94822AAC01909119
:103AC0005003992309F46AC08091B3018417150645
:103AD00008F472C0BE016F5F7F4F83E593E00E94E0
:103AE0009729811105C083E593E00E94141D81117F
:103AF0000E94681C86E0FE013196A3E5B3E00190C8
:103B00000D928A95E1F72696E3E00C941B362091FE
:103B1000B8018AE0289F900111242417350720F668
:103B20009F5F9093510302C09F3FD1F71B811123E8
:103B300059F00E941E1B9FEF11160CF491E0899F13
:103B4000802D1124809355031C81112359F00E946C
:103B50001E1B9FEF11160CF491E0899F802D1124FC
:103B60008093560380915503882309F49DCF1091CB
:103B70005603112309F498CF0E94101B882351F09B
:103B800080935503812F0E94101B882329F0809376
:103B900056038ACF81E0F4CF81E0F9CF2091B401C0
:103BA0008AE0289F900111242417350708F092CF4E
:103BB0009F5F9093500302C09F3FD1F71D81112357
:103BC00059F00E945C1B9FEF11160CF491E0899F45
:103BD000802D1124809357031E81112359F00E94D8
:103BE0005C1B9FEF11160CF491E0899F802D11242E
:103BF0008093580380915703882309F46BCF109169
:103C00005803112309F466CF0E94101B882351F03A
:103C100080935703812F0E94101B882329F08093E3
:103C2000580358CF81E0F4CF81E0F9CFEF92FF92B3
:103C30000F931F93CF93DF93EB01E82FD1110EC0A9
:103C4000442321F0F0E0E857FA4FE4916E2F7E2FE5
:103C50008E2FCDB7DEB7E6E00C9418360D2F10E0AE
:103C6000282F30E0442329F028573A4FF9012491B6
:103C700030E0F6E0CF9FC0011124EFEFF0E0BF018C
:103C80000E948135AB018C2F90E0880F991FA5E52C
:103C9000A49FB001A59F700D1124861B970B982F30
:103CA000990F980FBF01601B710B629FD001639F3A
:103CB000B00D729FB00D11248B2F9D9FB001112468
:103CC000672F7727EF01C61BD70BBE01629FE0016C
:103CD000639FD00D729FD00D11247F01E91AF10866
:103CE000E09EB001E19E700DF09E700D1124672FD3
:103CF0007727E61BF70BE29F8001E39F100DF29FF1
:103D0000100D1124E12F722F4230510599F048F423
:103D10004115510569F04130510581F0EB2F8D2F90
:103D200007C04430510569F080F046305105B1F7C5
:103D30006E2F8FCFE22F7B2F812FFACFE22F7D2F97
:103D4000F7CFEB2F822F712FF3CF7B2F822FED2F09
:103D5000EFCF41E00E94161E089530E020E0869FDC
:103D6000212D969F200D311D1124C9010895909198
:103D70005903892B8093590308951F93CF93DF93A1
:103D8000D62FC72F182FBA0190E080E00E94693328
:103D900020E030E04FE753E40E94C8329B01AC01C1
:103DA0000E94BB349B01AC0160E070E080E89FE3BF
:103DB0000E9456320E942E359B01AC0160E070E0FB
:103DC00080E89FE30E94563220E030E04FE753E462
:103DD0000E94BB349B01AC0160E070E08FE793E48C
:103DE0000E9456320E943A33262F219F212D112402
:103DF000822F6D2F7C2FDF91CF911F9108950E940C
:103E0000BD1E8095089548E050E068E170E08CECBC
:103E100093E00E945B361092590308950E94A91EF8
:103E200008958091480380FF08C084E695E09F9341
:103E30008F930E9493050F900F9085E08093CC03A1
:103E40008091C8019091C901A091CA018093CD03CE
:103E50009093CE03A093CF038FE78093D0038FEF8F
:103E60008093D1030E94031F08958091480380FF2F
:103E700089C08AE495E09F938F930E949305809177
:103E800048030F900F9080FF7DC08091CC0383701A
:103E90001F928F938BE295E09F938F930E949305DF
:103EA000809148030F900F900F900F9080FF6AC091
:103EB0008091CC03869586951F928F938EE095E036
:103EC0009F938F930E949305809148030F900F90CA
:103ED0000F900F9080FF56C08091CD031F928F935B
:103EE00080EF94E09F938F930E9493058091480305
:103EF0000F900F900F900F9080FF44C08091CE03E1
:103F00001F928F9382ED94E09F938F930E9493056D
:103F1000809148030F900F900F900F9080FF32C058
:103F20008091CF031F928F9384EB94E09F938F93A4
:103F30000E949305809148030F900F900F900F906F
:103F400080FF20C08091D0031F928F9386E994E078
:103F50009F938F930E949305809148030F900F9039
:103F60000F900F9080FF0EC08091D1031F928F930E
:103F700088E794E09F938F930E9493050F900F9092
:103F80000F900F90089580E008950F931F93CF93A3
:103F9000DF93C82FD62F8A010E94C31F9CE0C99FC0
:103FA000B001112460507F4F6D0F711DFB01908196
:103FB0009F3F29F0F801E80FF11D90838F5FDF919B
:103FC000CF911F910F910895E0917002F0917102CD
:103FD00009950895E0916C02F0916D02099508959C
:103FE000B0E0A0E0E6EFFFE10C94F8358C017B0136
:103FF000FC01C08189E0C89FC02D112429E0B22EA8
:10400000BC0EAB2CFAE2FB1510F49AE2A92E20911B
:10401000D00331E0230F08F42FEF30E050E040E010
:104020006FEF7FEF80E090E00E94CB356901D0E038
:104030002C2FCA1550F081E0F9E2FB1508F480E05E
:10404000CDB7DEB7EAE00C941436FE01EC57FE4F14
:104050008081F8019181892311F14091D803415069
:10406000042E000C550B47FF1CC0C6016091D00305
:1040700021E0620F08F46FEF0E94AD1EAC01609169
:10408000CD037091CE038091CF03F70109950E9473
:104090000E1F462F282F672FCE010E94EA1F219660
:1040A000C7CFFA01E852FC4F818982130AC0FA0196
:1040B000EE0FFF1FE852FC4F818D928D8C159D05F0
:1040C000A8F241505109CFCFB0E0A0E0EAE6F0E21B
:1040D0000C94F9357C01FC01C08189E0C89FC02D9A
:1040E000112419E01C0F012F1B3208F00AE2609125
:1040F000CD037091CE038091CF030E940E1FD62E68
:10410000C72EB82ED0E0C01748F081E01A3208F070
:1041100080E0CDB7DEB7E9E00C941536FE01EC5730
:10412000FE4F8081F7019181892331F02B2D4D2D98
:104130006C2DCE010E94EA1F2196E5CFE0916E0220
:10414000F0916F0209950895CF92DF92FF920F933D
:104150001F93CF93DF93CDB7DEB728970FB6F894B0
:10416000DEBF0FBECDBF182F062FF42E0E946016A3
:10417000882309F44CC0FF2009F457C0AE014F5FFB
:104180005F4F602F812F0E94C51FF82E0F2D10E06A
:1041900080915A03800F912F911D09976CF188E04F
:1041A00090E06C01C01AD10AB801655A7C4FA60193
:1041B0008BE593E00E943436B8016D597C4FA6011F
:1041C00083E693E00E943436A601440F551FB801E0
:1041D000660F771F6D587C4F83E793E00E9434365B
:1041E000B80165597C4FA6018BE693E00E943436F6
:1041F00088E08F1980935A0310915A03DE011196BB
:1042000040E0842F810FF41212C080935A03289645
:104210000FB6F894DEBF0FBECDBFDF91CF911F91D7
:104220000F91FF90DF90CF900895F12CAFCF5D916B
:10423000252F30E090E0BC01665A7C4FF901EE0F6B
:10424000FF1FE05DFE4F0081FB010183220F331F42
:10425000F901E050FF4F21A9FB012187518B880F05
:10426000991FFC01E65AFC4F128E118E4F5FC9CF89
:10427000CF93C82F8091BD018C1339C09091CC038E
:1042800093702091BE0130E081E09217130609F48B
:1042900080E081708093BC018091D1039091BB013B
:1042A000981739F08093BB0140E060E080E00E9405
:1042B0009E20C13041F1CC23E1F0C23049F1C3303E
:1042C00071F180E09091BA019F5F9093BA018111E2
:1042D0000CC082E08093B9018091BC01811105C0BE
:1042E000C11103C083E08093B901CF91089581E0AB
:1042F000D0CF8091BC01882329F340E060E080E0CA
:104300000E949E20DECF8AEB91E00E946420DACFEB
:104310006DEB7EE18AEB91E00E94F01FD3CF6FEF4F
:104320007EE1F8CF0E94EC06089581E008950E9496
:1043300095210895FC01808199E0899F802D1124A9
:10434000682F8B3208F06AE289500E949721089505
:104350004F925F926F927F928F929F92AF92BF9295
:10436000CF92DF92EF92FF92CF936091830370918F
:10437000840380918503909186030E94912A6B01AA
:104380007C010E94762A4B015C018092830390920B
:104390008403A0928503B0928603A0915A03EAE5B4
:1043A000F3E08A2F90E04FEF5FEF60E070E04C1990
:1043B0005D096E097F09A9132AC080935A03809171
:1043C0008703C0E0811108C08091CC03C82FC3705F
:1043D00019F0C82FC695C6958091B901813009F4AE
:1043E00040C0882339F1823009F44BC0833009F48E
:1043F00053C0CF91FF90EF90DF90CF90BF90AF90E0
:104400009F908F907F906F905F904F900895218D37
:10441000328D2901712C612C4415550566057705EF
:1044200020F481509F5F3296C6CF2C0D3D1D328FF8
:10443000218FF8CF1092BA018092D4039092D503C5
:10444000A092D603B092D70389E2EAE5F3E0A8EDA3
:10445000B3E001900D928A95E1F781E08093B90174
:10446000C8CF8C2F0E943821CC2319F28091BA0139
:10447000853011F40E9492218AEB91E00E949A21EA
:10448000B8CFC093BD018091CC0383708093BE01EF
:104490000E94E41F83E0E2CF8091590381110E94C2
:1044A000031F6091D4037091D5038091D60390913E
:1044B000D7030E94912A603171058105910508F4A6
:1044C00098CF1092B90195CFE0916A02F0916B02FA
:1044D00009951092D8038FEF9FEF9093F20380938A
:1044E000F1039093F4038093F3039093F603809386
:1044F000F5039093F8038093F7039093FA03809366
:10450000F9039093FC038093FB039093FE03809345
:10451000FD03909300048093FF0310925A0390933D
:104520007403809373039093760380937503909341
:1045300078038093770390937A0380937903909321
:104540007C0380937B0390937E0380937D03909301
:10455000800380937F0390938203809381030E9462
:104560007115811110C08091480380FF08C086E456
:1045700094E09F938F930E9493050F900F900E9459
:104580000F160E94111F81E08093590348E050E00C
:1045900068E170E08CEC93E00E943D361092590384
:1045A0008091CC038C7F71F48091480380FF08C018
:1045B00081EF93E09F938F930E9493050F900F904C
:1045C0000E94111F0E94351F0895CF93C82F882382
:1045D00091F08091870381110EC00E9438211092C2
:1045E000BD018091CC0383708093BE010E94E41FC3
:1045F00083E08093B901C0938703CF910895CF934F
:10460000C82F8091CC0391E089278093CC0310922E
:10461000B9018C2F0E94B71E8091480380FF19C0FA
:104620002091CC03237081E692E0CC2311F083E645
:1046300092E01F922F939F938F938AEB93E09F9327
:104640008F930E9493050F900F900F900F900F90F3
:104650000F90CF91089581E00E94FF2208958091EC
:10466000CC03837011F41092B9018091CC038C7F3C
:1046700081608093CC0308950E942F2381E00E94E3
:10468000B71E08958091CC03837011F01092B90188
:104690008091CC038C7F8093CC0308950E944223A9
:1046A00081E00E94B71E0895CF93C62F9091CC034E
:1046B000937041F1811128C094609093CC031092C3
:1046C000B9018C2F0E94B71E8091480380FF1AC049
:1046D0002091CC032695269581E692E0CC2311F01B
:1046E00083E692E01F922F939F938F9380EA93E04B
:1046F0009F938F930E9493050F900F900F900F90B0
:104700000F900F90CF910895843010F09C60D5CF1A
:10471000880F880F982BD1CF61E00E945423089511
:10472000682F9091CC039695969581E0890F8430FF
:1047300008F081E00E945423089581E00E949023B4
:104740000895682F9091CC03969596958FEF890FD9
:1047500009F483E00E945423089581E00E94A1237C
:104760000895CF93C22F9091CC03937079F18093E9
:10477000CD036093CE034093CF03822F0E94B71ED8
:104780008091480380FF22C04091CF033091CE0337
:104790002091CD0381E692E0CC2311F083E692E0F4
:1047A0001F924F931F923F931F922F939F938F932C
:1047B0008DE793E09F938F930E9493058DB79EB7EB
:1047C0000A960FB6F8949EBF0FBE8DBFCF91089585
:1047D00020E00E94B1230895ACECB3E01196EC9177
:1047E0001197F0E0282F13964C91139712966C9125
:1047F000CF0108960E94B123089581E00E94EC2326
:104800000895ECECF3E09181282F43816281E92F38
:10481000E850FF0BCF010E94B123089581E00E9470
:1048200001240895ECECF3E0628120E1620F08F4CA
:104830006FEF9181282F4381892F90E00E94B1234F
:10484000089581E00E9412240895ECECF3E0628167
:1048500020E1621B08F460E09181282F4381892FB9
:1048600090E00E94B123089581E00E9425240895DC
:10487000ECECF3E0438120E1420F08F44FEF91812B
:10488000282F6281892F90E00E94B123089581E052
:104890000E9438240895ECECF3E0438120E1421BB0
:1048A00008F440E09181282F6281892F90E00E94D6
:1048B000B123089581E00E944B240895CF93C62F21
:1048C0008093D003862F0E94B71E8091480380FFFB
:1048D00018C02091D00381E692E0CC2311F083E64A
:1048E00092E01F922F939F938F938EE593E09F9377
:1048F0008F930E9493050F900F900F900F900F9041
:104900000F90CF91089561E00E945E240895209158
:10491000D00330E1230F08F42FEF682F822F0E947D
:104920005E24089581E00E94872408952091D00399
:1049300030E1231B08F420E0682F822F0E945E24C0
:10494000089581E00E9496240895109288030895A6
:10495000FC01EE0FFF1FDF01A80FB91FAF5FBB4FB8
:1049600011963C911197361307C03C91341304C043
:1049700012963C91321751F031E030938803E80FE2
:10498000F91FEF5FFB4F6183408322830895FF92FD
:104990000F931F93CF93DF93182F062FF42ED0E0A1
:1049A000C0E02F2D402F612FCE010E94A824219618
:1049B000CA32D105B1F7CDB7DEB7E5E00C941936B0
:1049C00080918803882341F06AE270E081E094E0FE
:1049D0000E944A25109288030895FA01811101C0AE
:1049E000FB01099508951F93CF93DF93EC01FB0121
:1049F0001581111110C00E9454148272FE01E05200
:104A0000F847E531F10508F043C0E356F94C0C9442
:104A1000EA350E942B23812FDF91CF911F910895BA
:104A20004DEA53E26DE973E20E94ED24F4CF4DE9C3
:104A300053E26DEA73E2F8CF4EE054E26DEF73E2B9
:104A4000F3CF4DEF53E26EE074E2EECF44E354E275
:104A500061E274E2E9CF41E254E264E374E2E4CF5C
:104A60004AE554E267E474E2DFCF47E454E26AE5E2
:104A700074E2DACF41EA54E262E974E2D5CF42E966
:104A800054E261EA74E2D0CF81E00E948C23C3CF6C
:104A900011E0C1CF239A45B1477F55B15860EFB7B8
:104AA000F8949B01220F331F260F371F280F391F41
:104AB0002817390741F4EFBF8FE594E00197F1F72C
:104AC00000C000000895DC016D91CD0178E055B97A
:104AD000000000C067FF45B9660F000000C000C0BD
:104AE00000C045B900C07A9591F7E2CFCF93DF932C
:104AF000EC01FB018581882309F4D2C09E01305767
:104B00002332310508F0B2C00E9486159093BB0392
:104B10008093BA03FE01E150F047E232F10520F440
:104B2000EE54F94C0C94EA358091BA03816080937D
:104B3000BA0393C08091BB0388608093BB038DC090
:104B40008091BA038260F3CF8091BA038460EFCF83
:104B50008091BA038860EBCF8091BB038160EDCF79
:104B60008091BB038260E9CF8091BA038061DFCF7F
:104B70008091BA038062DBCF8091BA038064D7CF83
:104B80000E94800F8091BA038068D1CF8091BA03D0
:104B90008C60CDCF8091BB038360CFCF8091BA036F
:104BA0008E7FC5CF8091BB03877FC7CF8091BA032B
:104BB0008D7FBDCF8091BA038B7FB9CF8091BA032F
:104BC000877FB5CF8091BB038E7FB7CF8091BB032A
:104BD0008D7FB3CF8091BA038F7EA9CF8091BA0326
:104BE0008F7DA5CF8091BA038F7BA1CF0E94800FCC
:104BF0008091BA038F779BCF8091BA03837F97CF41
:104C00008091BB038C7F99CF8091BA0382FB992757
:104C100090F921E0922790FB82F990FB83F987CFEE
:104C20008091BB03982F909591708E7F892B90FB7C
:104C300081F983CF9091BA03892F8F7B96FF80648F
:104C400076CF0E94800F9091BA03892F97FB87F946
:104C500080586DCF81E00E9412168091BA03909126
:104C6000BB030E948B150E94800F80E0DF91CF91E3
:104C7000089580E0F0CF9091BA03892F8F7E94FF42
:104C8000806155CF9091BA03892F8E7F90FF81600C
:104C90004ECF9091BB03892F877F93FF88604DCFC4
:104CA00081E0E4CFB0E0A0E0E8E5F6E20C94FB356B
:104CB000E82FF0E0E857F94FD490282F2695269555
:104CC000269530E0F901E85DF84F0491877010E017
:104CD000082E02C0159507950A94E2F70170112776
:104CE000F901E85EF84FE490F12C082E02C0F5942B
:104CF000E7940A94E2F791E0E922FF24F901E85FE2
:104D0000F84FC491D0E002C0D595C7958A95E2F7D7
:104D1000C170DD270115110519F081EE0E947D0C8F
:104D2000E114F10419F086EE0E947D0C8D2D0E9495
:104D3000150DE114F10419F086EE0E94CA0C01155C
:104D4000110519F081EE0E94CA0CCD2B19F08CE2EE
:104D50000E94150DCDB7DEB7E7E00C941736EF9241
:104D6000FF920F931F93CF93DF93EC01162F0AE06E
:104D70008881882309F454C0813009F04EC08981AC
:104D8000813099F47E0122E0E20EF11C8A810E94BA
:104D9000150DE7012196812F815050F3EFE9FFE0D7
:104DA0003197F1F700C00000F7CF823041F47E0167
:104DB00082E0E80EF11C8A810E947D0CEACF8330EC
:104DC00041F47E01E2E0EE0EF11C8A810E94CA0CE1
:104DD000E0CF843011F02196DDCF2A81229690E039
:104DE00080E0AE014F5F5F4F2053330B2A30310517
:104DF00048F0019778F2EFE9FFE03197F1F700C052
:104E00000000F7CF089FB001099F700D1124C90160
:104E1000860F971F2981EA01E4CF0E945226BACF5C
:104E2000CDB7DEB7E6E00C94183660E00E94AF26FE
:104E30000895CF93DF93EB0186319C4711F50E94D3
:104E400054149D81992399F08A7A91E009F490E0B5
:104E500090938903811109C089E20E942C140E9459
:104E6000B61480E0DF91CF91089585E3F6CF80916D
:104E70008903811104C089E20E943414F0CF85E3D4
:104E8000FBCF81E0EFCFB0E0A0E0E9E4F7E20C94E3
:104E9000F8357C015B01C42FD22FFC01858188236A
:104EA000C9F040938C030E946A2A90938B038093ED
:104EB0008A0380E28C0F883040F4C77081E001C023
:104EC000880FCA95EAF70E941E0DCDB7DEB7EAE05B
:104ED0000C94143610918C03141338C080918A03FB
:104EE00090918B030E94822A6C01B701C5010E9438
:104EF0002E09C816D90650F5C0E2CD0F1D17C1F016
:104F000080E2810F883048F4177081E0012E01C0E3
:104F1000880F0A94EAF70E94250DC83048F481E012
:104F20009D2F977001C0880F9A95EAF70E941E0D79
:104F3000802F0E94150DC83040F6D77081E001C067
:104F4000880FDA95EAF70E94250DBFCF80E28C0F1B
:104F5000883008F0BACFC77081E001C0880FCA95C9
:104F6000EAF7F1CF0F93DB0188519C478730910519
:104F7000A0F5FC01EC52F94C0C94EA3506E221EE66
:104F800041EE6AE17CE7CD010E94432780E00F916A
:104F9000089507E225EE45EE6BE17CE7F4CF06E2EB
:104FA00021EE40EE68E17CE7EECF07E225EE44EE2D
:104FB00069E17CE7E8CF06E221EE42EE6CE17CE7B6
:104FC000E2CF07E225EE46EE6DE17CE7DCCF08E2BA
:104FD00021E045EE6EE17CE7D6CF15968C918823D3
:104FE00019F010928C03D3CF81E0D1CF909392032C
:104FF000809391030895E0919103F091920330978B
:1050000029F00190F081E02D0995089580E0089540
:10501000EF92FF920F931F93CF93DF93EC01E091F8
:105020009103F0919203309709F440C08091C70139
:10503000882341F08091BA0387FF04C08881898367
:1050400086E088830280F381E02DCE01099580916E
:10505000480382FF2BC080FF04C080E497E00E94D9
:10506000FA0410E000E08AE3E82E87E0F82E809151
:10507000480380FF0EC0FE01E00FF11F80811F92E8
:105080008F93FF92EF920E9493050F900F900F90D5
:105090000F900F5F1F4F0830110549F780914803AB
:1050A00080FF04C088E397E00E94FA04CDB7DEB722
:1050B000E6E00C941836E0919103F091920330975A
:1050C00039F022E0DC012C930480F581E02D099574
:1050D0000895A3E0B0E0EFE6F8E20C9400362091EA
:1050E0008F033091900328173907A1F09093900314
:1050F00080938F03E0919103F0919203309751F0E8
:1051000023E029839B838A830680F781E02DCE01EB
:10511000019609952396E2E00C941C36A3E0B0E0DA
:10512000E4E9F8E20C94003620918D0330918E036F
:1051300028173907A1F090938E0380938D03E09197
:105140009103F0919203309751F024E029839B83DF
:105150008A830680F781E02DCE010196099523967A
:10516000E2E00C941C36FC0132968091C701882342
:1051700021F08091BA039EE187FF96E080E0915094
:1051800008F4089521912223D1F38F5FF8CF66238D
:1051900001F12091C7012223F1F02091BA0327FFEA
:1051A0001AC0462F4695469546954E3190F4677045
:1051B00021E030E002C0220F331F6A95E2F7840F2E
:1051C000911DFC01828190E02823392381E0232B6B
:1051D00069F480E00895FC01329608962191261723
:1051E00021F0E817F907D1F7F4CF81E008959C0189
:1051F000FC0132969FEF80E04191461751F09F3FAE
:1052000019F4411101C0982F8F5F8630A9F79F3F95
:1052100009F40895290F311D97FD3A95F90162832C
:105220000895FC01329608962191261303C0DF01F0
:1052300011971C92E817F907B9F70895E62FE6953C
:10524000E695E695EE3170F4E80FF92FF11D6770E1
:1052500021E030E001C0220F6A95EAF78281822BBB
:10526000828308958091480380FF0CC01F926F9342
:1052700080E797E09F938F930E9493050F900F9084
:105280000F900F900895E62FE695E695E695EE319E
:1052900078F4E80FF92FF11D677021E030E001C0CC
:1052A000220F6A95EAF720958281282322830895A8
:1052B0008091480380FF0CC01F926F9382E597E0B6
:1052C0009F938F930E9493050F900F900F900F90D4
:1052D00008952091C701222339F02091BA0327FFB6
:1052E00003C00E941E2908950E94F7280895209166
:1052F000C701222339F02091BA0327FF03C00E947F
:10530000432908950E9411290895FC013296809145
:10531000C701882351F08091BA0387FF06C08EE150
:10532000DF011D928A95E9F7089586E0F9CFDC0147
:10533000FB0111969C9111978181981322C01296BE
:105340008C911297882319F0928189131AC01396B1
:105350008C911397882319F09381891312C01596A5
:105360008C911597882319F0958189130AC014969A
:105370009C91992321F081E02481291303C080E0CE
:1053800001C081E08170089508950E94C4290895A4
:10539000811106C081E0809393030E94C52908957E
:1053A00082E0F9CF83E0809393030E94C52908959A
:1053B0000E94C829089581E0809393030E94C52923
:1053C00008950E94DB290895089508950E94E52913
:1053D0000895089508950E94E4290895CF930E94A6
:1053E000E9290E94751A0E94EA29C0E08C2F0E94C8
:1053F0006919892B31F4CF5FC430C1F780E0CF91B8
:10540000089581E0FCCF85B7806885BF85B7806847
:1054100085BF08951F921FB61F9211248F939F93EB
:10542000AF93BF9380919403811113C080917F0447
:1054300090918004A0918104B09182044196A11DB5
:10544000B11D80937F0490938004A0938104B09356
:105450008204BF91AF919F918F911F901FBE1F90AB
:10546000189580918704843031F10E947E0B109250
:10547000940388E190E020E40FB6F894A895809317
:1054800060000FBE2093600083B7817F846083BF7C
:1054900083B7816083BF7894889583B78E7F83BFFD
:1054A0000FB6F894A89580916000886180936000A1
:1054B000109260000FBE08950E94800F0E94880B1A
:1054C000089582E084BD93E095BD9AEF97BD8093E7
:1054D0006E0008952FB7F89480917F049091800416
:1054E000A0918104B09182042FBF08952FB7F89442
:1054F00060917F0470918004809181049091820476
:105500002FBF08959C014FB7F89480917F0490912C
:105510008004A0918104B09182044FBF821B930B41
:105520000895CF92DF92EF92FF922FB7F894C09038
:105530007F04D0908004E0908104F09082042FBF1B
:10554000A7019601261B370B480B590BCA01B9015D
:10555000FF90EF90DF90CF90089578941F921FB640
:105560001F9211248F939F93AF93BF9380917F04D9
:1055700090918004A0918104B09182040196A11DB4
:10558000B11D80937F0490938004A0938104B09315
:105590008204BF91AF919F918F911F901FBE1F906A
:1055A000189581E08093E00080E28093D80010920B
:1055B000C9008FE19EE40197F1F700C0000087E089
:1055C00090EBDC018093900490939104A09392045B
:1055D000B093930488E19CE00FB6F894A89580936B
:1055E00060000FBE90936000FFCF88E19CE00FB693
:1055F000F894A895809360000FBE90936000FFCF51
:105600008091B80308959B01BA019091870494306A
:10561000E9F48F708093E9009FEF8091E80091504A
:1056200085FD06C085ED8A95F1F700009111F5CF53
:105630008091E80085FF0AC050E040E0C9010E9467
:10564000D02D8091E8008E778093E800089543E0A4
:1056500050E0BC0182E00E94032B089546E050E038
:10566000BC0182E00E94032B0895CF93DF93EC01ED
:105670008091C701811111C048E050E0BE0181E076
:105680000E94032B80E2FE01A8E9B3E001900D9295
:105690008A95E1F7DF91CF9108958091BA0387FF52
:1056A00005C040E282E050E0BE01EACF48E081E080
:1056B000FACF84EB97E00E94FA048091860481116E
:1056C00009C00E94602F0E94BD2F8091E20084607B
:1056D0008093E200089580EB97E00E94FA04109214
:1056E000860408958CEA97E00E94FA040E94DB2960
:1056F000089588EA97E00E94FA046091830481E0AB
:10570000611101C080E00E94D229089584EA97E0E7
:105710000E94FA049091870481E0943009F080E0BF
:10572000609183040E94D8290895209196032F5FE9
:10573000822F62E30E947535992319F02093960316
:10574000089510929603809197038823F1F0809139
:1057500087048430C1F49091E9009F702091EC009F
:10576000822F817020FD80E8892B93E09093E900DF
:105770009091EB0090FF04C09091EE0097FD08C05F
:105780008F708093E9001092970308951092F100B2
:105790009091E80095FDFACF9091E80090FFF0CF4E
:1057A0009091E8009E779093E800EACF42E061ECA8
:1057B00081E00E94DC2E42E261EC82E00E94DC2E5D
:1057C00042E261EC83E00E94DC2E9091870481E04C
:1057D000943009F080E0609183040E94C829089504
:1057E00080918904833009F461C030F48130D1F1B3
:1057F000823009F49EC008958A3009F48AC08B3043
:1058000009F46FC0893009F050C08091880481325A
:1058100009F04BC080918C0490918D04029708F0A0
:1058200044C08091E800877F8093E8008091E80081
:1058300082FF37C09091F3008091F200029731F41B
:105840008091F100813011F0863021F48091F100D7
:105850008093B8038091E8008B778093E8000E94E2
:10586000102F23C080918804813AF9F48091E800D8
:10587000877F8093E80080918C0490918D04892B20
:1058800061F460E288E993E070E00E941F2E80914D
:10589000E8008B778093E800089560E090E080E076
:1058A000F3CF809187048111C1CF0895809188043E
:1058B000813AD9F780918C0490918D04892BA9F7B6
:1058C0008091E800877F8093E8008091E80080FF66
:1058D000FCCF8091C7018093F1008091E8008E7722
:1058E000BCCF80918804813201F780918C04909123
:1058F0008D04892BD1F68091E800877F8093E800A2
:105900000E94102F80918A048093C7010E94800F0B
:10591000089580918804813241F68091E800877F64
:105920008093E8000E94102F80918B048093B9032C
:10593000089580918804813A09F0B7CF8091E800FA
:10594000877F8093E8008091E80080FFFCCF809102
:10595000B903C1CF9FB7F894109297039FBF90915E
:105960008704943009F048C02091E9002F703091ED
:10597000EC00932F917030FD90E8922B23E0209360
:10598000E9002091EB0020FF34C02091EE0027FFBA
:1059900030C020919503222321F02091E80025FFBB
:1059A00028C01092950326E03091E80035FF14C01E
:1059B0008093F1008091E80085FD27C08091E80088
:1059C00080FFFCCF8091E8008E778093E8009F7085
:1059D0009093E90080E0089530918704343049F4D1
:1059E0003091EB0035FD05C0215041F481E08093FA
:1059F00095039F709093E9008FEF0895EFE9FFE022
:105A00003197F1F700C00000CFCF8FB7F89421E0B5
:105A1000209397038FBFDBCF84B7877F84BF0FB6F8
:105A2000F894A8958091600088618093600010923E
:105A300060000FBE80E890E00FB6F894809361009C
:105A4000909361000FBE0E94E12908950E94602F8B
:105A50000E94BD2FE2EEF0E0808184608083789424
:105A60000E943B3208958FEB91E00E94F627089543
:105A700080918704853071F48091480380FF04C0D1
:105A80008EE897E00E94FA0480918704853019F02F
:105A90000E945C2A08950E94312A809185048823FF
:105AA00099F30E94EE29882379F30E94BA2D0E946F
:105AB000800FEACF08959A0140918E0450918F048F
:105AC0000E94632D0895492F55274330510521F138
:105AD00068F44130510509F443C04230510509F4DE
