:100000000C94D5020C940D030C940D030C940D0369
:100010000C940D030C940D030C940D030C940D0320
:100020000C940D030C940D030C94E12E0C94B42F3E
:100030000C94CA290C940D030C940D030C940D031D
:100040000C940D030C940D030C940D030C940D03F0
:100050000C940D030C94822A0C940D030C940D0344
:100060000C940D030C940D030C940D030C940D03D0
:100070000C940D030C940D030C940D030C940D03C0
:100080000C940D030C940D030C940D030C940D03B0
:100090000C940D030C940D030C940D030C940D03A0
:1000A0000C940D030C940D030C940D032900140003
:1000B0001A000800150017001C0018000C001200A0
:1000C00013002E002B0004001600070009000A0090
:1000D0000B000D000E000F0000002800067E1D0022
:1000E0001B0006001900050011001000360000007A
:1000F00037004C00E000E300E2002C41000000006B
:100100002C420000000038002D002D0201004A00A2
:1001100052004D002F003000010001002402310286
:10012000417E01000100500051004F0026022702CD
:10013000010001003300340000002A000100027EAB
:10014000037E047E057E010001000100E200000044
:100150000100010001000100010001000000000099
:100160002C430000000001000100010001001E00FE
:100170001F0020002100220023002400250026006B
:1001800027000100270021002200230001000100B8
:10019000010001003300340000002A0001002400A7
:1001A00025002600010001000100010001000000FF
:1001B000010001000100010001002C4300000000CB
:1001C0000100000000000100010001005F7ED1007D
:1001D000CD00D2003A003B003C00010001000100CC
:1001E0000100007C0100CF00CE00D0003D003E00A9
:1001F0003F000100010001000000007E0100D90065
:10020000D300DA00400041004200430004520000E5
:100210004500010001000100010001000000000094
:10022000010000000000597E5A7E20781E00060062
:100230001A000800150017003C0000000000000034
:10024000000029001F0004001600070009000A0032
:100250003E0000000000000000002800E100140043
:1002600021001B00050005003A00000000520000BC
:100270005200E100E000E20020002C00000000003D
:10028000017E00000000500051004F0000010101FC
:100290000101010101010202020202020202020343
:1002A0000303030303030304040404040404050513
:1002B00005050506060606060707070707080808D6
:1002C00008090909090A0A0A0B0B0B0C0C0C0D0D85
:1002D0000D0E0E0E0F0F0F1010111111121213131D
:1002E0001414151516161717181819191A1A1B1B96
:1002F0001C1D1D1E1E1F20202122222324242526F2
:1003000026272829292A2B2C2D2D2E2F3031323229
:10031000333435363738393A3B3C3D3E3F40414235
:10032000434445464748494A4C4D4E4F505153541B
:10033000555658595A5B5D5E5F61626465666869CF
:100340006B6C6D6F7072737577787A7B7D7E80824F
:10035000838587888A8C8E8F91939596989A9C9E98
:10036000A0A2A3A5A7A9ABADAFB1B3B5B7BABCBEA8
:10037000C0C2C4C6C9CBCDCFD1D4D6D8DBDDDFE275
:10038000E4E7E9EBEEF0F3F5F8FAFDFF000000001A
:10039000000000002A2B28000000000000000000E0
:1003A0000000000000000029000000002C1E342086
:1003B000212224342627252E362D3738271E1F20AC
:1003C0002122232425263333362E37381F040506F1
:1003D0000708090A0B0C0D0E0F1011121314151635
:1003E0001718191A1B1C1D2F3130232D3504050633
:1003F0000708090A0B0C0D0E0F1011121314151615
:100400001718191A1B1C1D2F3130354C0000000025
:1004100000000000000000000000000000000000DC
:1004200000000000000000000000000000000000CC
:100430007E0F00D4FFFFFFC7000000780C034600CA
:1004400065006200340030000000120366006500A1
:1004500062007200650065007A0065000000040318
:10046000090409023B00020100A0FA09040000018E
:100470000301010009211101000122440007058147
:100480000308000109040100010300000009211113
:1004900001000122B60007058203200001120100BD
:1004A0000200000008646942000001010200010529
:1004B000010902A10185020901A10005091901290B
:1004C000081500250195087501810205010930090B
:1004D000311581257F95027508810609381581251A
:1004E0007F950175088106050C0A38021581257F64
:1004F000950175088106C0C005010980A101850329
:1005000019012AB700150126B70095017510810061
:10051000C0050C0901A101850419012AA0021501D9
:1005200026A002950175108100C005010906A101F0
:100530008506050719E029E71500250195087501CD
:1005400081020507190029EF1500250195F07501B5
:10055000810205081901290595057501910295018A
:1005600075039101C005010906A101050719E029DC
:10057000E71500250195087501810295017508812F
:10058000010507190029FF150026FF0095067508CB
:10059000810005081901290515002501950575013A
:1005A0009102950175039101C00011241FBECFEF88
:1005B000DAE0DEBFCDBF04B603FE18C080912C0583
:1005C00090912D05A0912E05B0912F058730904B6D
:1005D000A740B04B59F410922C0510922D051092A3
:1005E0002E0510922F05E0E0F8E3099512E0A0E057
:1005F000B1E0ECE2FBE602C005900D92AA37B1072C
:10060000D9F725E0AAE7B2E001C01D92AC32B207EB
:10061000E1F70E94BA1B0C9440350C940000CF9374
:10062000DF93EC010E94691591E0811190E09883BD
:1006300021E0982F917109F420E02983982F91707F
:100640009A8384FB992790F99B8321E0982F9474D7
:1006500009F420E02C8382FB992790F99D8386FB87
:10066000992790F99E8321E0982F987809F420E04B
:100670002F8383FB992790F99887982F991F9927A3
:10068000991F998721E0982F927209F420E02A8718
:1006900081FB992790F99B8785FB882780F98C87B8
:1006A000CE01DF91CF9108959C01803E910551F4D8
:1006B00060930E0360930D03263E3105D9F46093D9
:1006C00012030EC0843E910571F0833E910571F0D6
:1006D000873E9105B9F0823E910571F76093110351
:1006E00060931003089560930F03E4CF60931403A5
:1006F00060931303213E310549F46093170360931F
:10070000160308956093150360931303253E310586
:1007100009F0089560931803F2CF982F862F99233C
:1007200019F00E946C1508950E9472150895CF93D8
:10073000DF93CCE0D3E061E08A810E948D0360E129
:100740008B810E948D0368E088850E948D0360E89C
:1007500089850E948D0364E08D810E948D0360E491
:100760008E810E948D0362E08B850E948D0360E282
:100770008C850E948D03DF91CF910895CF93FB016B
:10078000C0E08F359E4759F5C581CC2341F18FE5F7
:100790009EE70E94E80B80EE90E00E94E80B84EE5A
:1007A00090E00E94E80B83EE90E00E94E80B87EE59
:1007B00090E00E94E80B82EE90E00E94E80B86EE4B
:1007C00090E00E94E80B90911A039F5F892F817837
:1007D00097FF03C081508E6F8F5F80931A038C2F19
:1007E000CF910895CF92DF92FF920F931F93CF93F3
:1007F000DF93F82E092F6B01809100019091010188
:100800000E94600BEC01892BE9F088818823D1F0EC
:10081000F6011581112369F08F2D902F0E94E80BAE
:1008200080910001909101010E94E80BCE010E948D
:100830002527812FDF91CF911F910F91FF90DF909E
:10084000CF90089510E0F5CFFF920F931F93CF93B1
:10085000DF93F82E092FFB012181C0818C2F90E0BE
:10086000EC01CC0FDD1FC80FD91F84E2289FC00DFB
:10087000D11D1124C458DD4F18818581882331F1A1
:10088000111131C0109119031123D1F081E0888337
:1008900080910001909101019A83898360E08F2DFE
:1008A000902F0E94540361E089819A810E94540331
:1008B0008F2D902F0E94E80B89819A810E94D20B84
:1008C000812FCDB7DEB7E5E00C94CA341123C1F314
:1008D000188289819A810E94E80B60E089819A815F
:1008E0000E945403EDCF10E0EBCFADE0B0E0EBE7BA
:1008F000F4E00C94A1343C012B010E94BE03182F9C
:100900008111A6C0C30190528115904328F4F201D1
:100910008681807F09F48BC01092190370920101C7
:1009200060920001CE0101960E940F038DE0FE014E
:100930003196ACE0B3E001900D928A95E1F78FEF2C
:100940000E947215F201858161E0811101C060E0B1
:10095000C3010E945403A0900C03B0900D03C090FB
:100960000E03D0900F03E0901003F090110300915C
:100970001203109113032091140330911503409139
:100980001603509117036091180380910001909114
:1009900001010E942A0A1C018F3F980721F09093C1
:1009A00001018093000180901A03082C000C990823
:1009B000A0900C03B0900D03C0900E03D0900F03D5
:1009C000E0901003F09011030091120310911303B3
:1009D0002091140330911503409116035091170391
:1009E0006091180380910001909101010E94E00A3A
:1009F0009C012F3F320721F0309301012093000129
:100A00002222332281E09FEF2916390609F480E083
:100A100080931903EFEF2E163E0671F080910001CE
:100A200090910101892B41F411E00E949703812FDD
:100A30002D96E2E10C94BD34B201C3010E94F20391
:100A40008111F2CFB201C3010E942404182FEDCF0F
:100A500010E0EDCF80910001909101010895ABE08D
:100A6000B0E0E5E3F5E00C94A13469874D83282FCD
:100A700030E050E040E029833A834B835C83CA0135
:100A8000B9010E94703220E030E04FE753E46983FF
:100A90007A838B839C8369817A818B819C810E947C
:100AA000CD315B016C019985892F90E0B0E0A0E029
:100AB00089839A83AB83BC83BC01CD010E947032D1
:100AC00020E030E04FE753E469837A838B839C8393
:100AD00069817A818B819C810E94CD313B014C01DF
:100AE0003D81232F30E050E040E029833A834B835F
:100AF0005C83CA01B9010E94703220E030E04FE708
:100B000053E469837A838B839C8369817A818B81A7
:100B10009C810E94CD311B012C019B01AC0169829B
:100B20007A828B829C8269817A818B819C810E94EE
:100B3000AB329B01AC01A982BA82CB82DC82698193
:100B40007A818B819C810E94AB328B018B879A8743
:100B50009101A20169827A828B829C8269817A8169
:100B60008B819C810E94CA329B01AC01A982BA820E
:100B7000CB82DC8269817A818B819C810E94CA321E
:100B80009B01AC0109831A838B858B839A859C8397
:100B900069817A818B819C810E945B317B01898391
:100BA000998720E030E0A9016D83FE828F839887CA
:100BB0006D817E818F8198850E94C831882309F4D8
:100BC00033C198014B855A85AD82BE82CF82D886CB
:100BD0006D817E818F8198850E94C8318111BBC053
:100BE0009101A2016D827E828F8298866D817E81C5
:100BF0008F8198850E945B319701498159856D836A
:100C00007E838F8398876D817E818F8198850E94F6
:100C1000CD3120E030E040EC50E46D837E838F8363
:100C200098876D817E818F8198850E94F43220E0C3
:100C300030E040E752E46D837E838F8398876D8137
:100C40007E818F8198850E94C5335B016C0120E015
:100C500030E0A9010D831E83AB85AF83BA85B887C9
:100C60006D817E818F8198850E94C831882309F427
:100C7000E0C098014B855A85ED82FE8289818F8381
:100C8000998598876D817E818F8198850E94CD316D
:100C90004B017C0120E030E04FE753E4A982BA82A7
:100CA000CB82DC8269817A818B819C810E94C533F1
:100CB00020E030E044EB53E469837A838B839C83A8
:100CC00069817A818B819C810E94CD3169837A838D
:100CD0008B839C8369817A818B819C810E943F32C6
:100CE000D62E20E030E04FE753E489829A82EB82EF
:100CF000FC8269817A818B819C810E94C5336983E2
:100D00007A838B839C8369817A818B819C810E9409
:100D10003F32F62E20E030E04FE753E409831A8398
:100D2000AB85AB83BA85BC8369817A818B819C81D9
:100D30000E94C53369837A838B839C8369817A811E
:100D40008B819C810E943F32862F6D2D7F2D2B96AB
:100D5000E2E10C94BD3498014B855A856D827E8208
:100D60008F8298866D817E818F8198850E94C8319F
:100D7000811128C09501A6012D823E824F8258869E
:100D80006D817E818F8198850E945B3197014981B9
:100D900059856D837E838F8398876D817E818F8156
:100DA00098850E94CD3120E030E040E050E46D8332
:100DB0007E838F8398876D817E818F8198850E9445
:100DC0005C3135CF98014B855A852D823E824F820A
:100DD00058866D817E818F8198850E94C8318111EE
:100DE0001EC09301A401AD82BE82CF82D8866D81E0
:100DF0007E818F8198850E945B3197014981598559
:100E00006D837E838F8398876D817E818F819885A6
:100E10000E94CD3120E030E040E850E4C8CF60E0EF
:100E200070E080E090E003CFA12CB12CC12CD12C3C
:100E30000ECF812C912CE12CF12C2CCF80931E0312
:100E400060931D0340931C030E942F05962F672F6C
:100E5000482F892F90E00E94F620089580E40E9498
:100E600061210E94A4200E94922080911F03882368
:100E700051F083E00E94C22080E00E943C1183E098
:100E80000E943C11089582E0F5CF8091B001882343
:100E9000B9F180914D0390914E030E94160D84305C
:100EA00089F520E040E060E088E190E00E946A1D62
:100EB00020911C0340911D0360911E0387E290E086
:100EC0000E946A1D20911C0340911D0360911E0326
:100ED0008CE190E00E946A1D20911C0340911D034B
:100EE00060911E038BE190E00E946A1D20911C031B
:100EF00040911D0360911E038AE190E00E946A1DEB
:100F000081E0089580911F0390911A03913001F5BB
:100F1000882369F020E040E060E087E190E00E94F3
:100F20006A1D20E040E060E089E190E0E7CF209199
:100F30001C0340911D0360911E0387E190E00E9415
:100F40006A1D20911C0340911D0360911E03ECCF8C
:100F500020E040E060E0811106C020911C03409138
:100F60001D0360911E0388E190E0C8CF833089F0B3
:100F700040F4813089F0823099F04FEF60E088E8EA
:100F800005C045E06BE38430C1F78FEF0E941E0778
:100F9000089540E06FE6F9CF4AE46FEF83E0F6CFC3
:100FA0004FEF6BE385E0F2CF1F93CF93DF93182FC2
:100FB000D92F0E94160DC82F80911B038C1729F082
:100FC0008C2F0E94B607C0931B03812F9D2FDF91AA
:100FD000CF911F91089580E00E94B6070E942E07CE
:100FE00080E00E943C110895CF939C01FB01C581D4
:100FF000CC2379F089559E470297A8F429353E47BE
:1010000059F480911F0391E0892780931F030E9468
:101010002E078C2FCF9108958091B00191E0892700
:101020008093B001F4CFC0E0F4CF0E94EB070895A5
:101030009C019D7F8C32914451F02C3282E4380720
:1010400031F081E021153C4719F080E0089581E0FE
:1010500008950F931F93CF93DF938C01FB01809131
:101060002903882371F00A31110581F0043011053C
:1010700001F10631110501F1C3E0D0E0073011059F
:1010800039F0DF91CF911F910F910895D0E0C0E02A
:101090002581CC0FDD1FCC0FDD1F222381F0C8017D
:1010A0000E94E80BCB52DE4F8A819B810E94D20BBB
:1010B000E8CFC1E0D0E0ECCFC2E0D0E0E9CFCB5246
:1010C000DE4F8A819B810E94E80BC801EFCFFB01B4
:1010D0004581803E910509F045C040932A03509117
:1010E0001A03252F052E000C330B6091B30170916C
:1010F000B4012617370709F442C03093B401209396
:10110000B3011092290310922A0310922B0310921C
:101110002C0320912C03217020932D035130D1F505
:1011200041113AC0211113C0803E910521F0825E29
:101130009109029760F480EE90E00E94E80B83EE44
:1011400090E00E94E80B82EE90E00E94E80B809114
:101150002903882331F080912D03811102C0109260
:1011600029030895833E910539F0823E910509F0E7
:10117000B6CF40932C03B3CF40932B03B0CF209135
:101180002A03211104C020912B03222311F221E014
:1011900030E0C1CF4423D9F2222319F3209129034F
:1011A000222321F0BF010E94290808958B97C9F6D8
:1011B00081E0809329035130A1F680912B0388238D
:1011C00041F083EE90E00E94E80B80EE90E00E94F8
:1011D000D20B80912C03882321F282EE90E00E94B2
:1011E000E80B83EE90E00E94D20B0895FB01C997B3
:1011F00039F48581811104C089E390E00E94180CC4
:101200000895CF93FB0181309E4721F0C0E08C2FE1
:10121000CF910895C581C0932603CC23B9F381E013
:101220008093240380915004909151040E94532A8A
:1012300090935304809352040E942A2A909351045D
:101240008093500410922803109227032091520497
:10125000309153048091B1019091B2012817390760
:10126000B0F681E090E09093280380932703CFCFDE
:10127000809124038823E9F180912503909126032E
:10128000911119C08823A9F1109224038BE290E0F8
:101290000E94E80B89E390E00E94E80B8091230311
:1012A000882331F089E390E00E94180C1092230308
:1012B00010922503089581111CC0809127039091FD
:1012C0002803892B31F48BE290E00E94D20B10921C
:1012D00023038091270390912803019739F489E330
:1012E00090E00E94D20B81E08093230381E0809301
:1012F00025030895CF93DF93EB0186309E47C1F419
:101300000E942A2A90935504809354048D818093DF
:101310002203882379F020912003309121032F5F4D
:101320003F4F3093210320932003DF91CF91089505
:1013300080E0FBCF81E0F9CF809154049091550477
:101340000E94532A9C0180912203811119C0253BE0
:10135000310560F080912003909121031816190641
:101360002CF40197909321038093200381EE90E069
:101370000E94E80B089581EE90E00E94D20B089540
:1013800080912003909121030297A9F78CE29FE0BE
:101390000E94180C109221031092200308950E94BD
:1013A00038090E949C090895EF92FF920F931F93B2
:1013B000CF93DF93F82E092FD62FC72F0E9418083E
:1013C000182F81112FC06D2F7C2F8F2D902F0E94F1
:1013D0007504E82E0E942A05F82E092F6D2F7C2F08
:1013E0000E94F40781111EC06D2F7C2F8F2D902F2E
:1013F0000E940109811116C06D2F7C2F8F2D902F17
:101400000E947A0981110EC011E01E256D2F7C2FDC
:101410008F2D902F0E9467086D2F7C2F8F2D902F7E
:101420000E94F608812FCDB7DEB7E6E00C94C934F0
:101430009C012C3281E4380751F02C3282E43807C9
:1014400031F02C32334419F084EB90E008958EE6AD
:1014500090E00895ADE0B0E0E0E3FAE00C94A93448
:10146000A982BA828932910539F4E110A3C04423DC
:1014700091F085E390E01AC08832910539F48AE250
:1014800090E0411113C08FEF9FEF10C081152EE740
:10149000920709F492C02A818433910559F44111CD
:1014A00005C08981882379F384E392E02D96EAE0F0
:1014B0000C94C5348D3232E0930719F4442319F3A8
:1014C000F5CF8E329105D1F38F32910529F486E361
:1014D00092E04423C1F2EACF8033910529F487E3F7
:1014E00092E0442381F2E2CF863232E0930729F47E
:1014F0008FE292E0442339F2D9CF873232E093076A
:1015000031F480E392E0442309F4BDCFCFCF84329D
:1015100032E0930731F480E49EE7442309F4B3CF2B
:10152000C5CF813332E0930731F48FE19EE7442346
:1015300009F4A9CFBBCF8633910531F48EE192E057
:10154000442309F4A0CFB2CF8733910531F488E367
:1015500092E0442309F497CFA9CF8833910531F461
:1015600081E390E0442309F48ECFA0CF8A34910523
:1015700031F48BE490E0222309F485CF97CF8D34AA
:10158000910531F48EE490E0222309F47CCF8ECFD4
:101590008632910531F485E392E0442309F473CF58
:1015A00085CF8D9709F06FCF87E590E0442309F44C
:1015B0006ACF7CCF8BE290E079CF88E292E176CF60
:1015C000ADE0B0E0E6EEFAE00C94A7349C01BA82FC
:1015D00081E08816910409F056C0203E310509F4D7
:1015E00060C0D8F42D34310509F447C048F42A31DD
:1015F000310589F12A343105D9F18FEF9FEF1DC0F4
:101600002F34310571F120353105B9F71123A9F3D4
:10161000411153C080E594E010C023308EE73807B5
:1016200009F442C070F480EE90E0233E310529F0C9
:1016300022303E4711F78DE198E02D96ECE00C94B6
:10164000C33424308EE7380791F125303E47A9F6A0
:1016500089E198E0F2CF8A81882379F28AE198E0E3
:10166000ECCF112351F2411125C08FE494E0E5CF76
:10167000112319F28BE490E0E0CF112309F4BDCFE0
:101680008EE490E0DACF22503E472430310508F056
:10169000B4CF220F331FF901E251FE4F80819181B7
:1016A000CCCF83EE90E0C9CF8BE198E0C6CF86E047
:1016B00098E0C3CF8FE496E0C0CF80E596E0BDCF41
:1016C0009C012F318EE7380751F020348EE7380720
:1016D00049F021343E4749F48BEE91E0089585EEC0
:1016E00091E0089588EE91E008958AEE91E00895E2
:1016F0008530B8F46430A8F44C3098F4E42FF0E06E
:101700009CE0699FE00DF11D112490E3899FE00D9D
:10171000F11D1124EE0FFF1FE455FF4F85919491A9
:10172000089581E090E008950E94780B08959C014F
:101730009A9581159F4150F5D901AA27B170F901F9
:10174000EE27F270B90166277470A901442758701A
:1017500034FF0EC080E1AB2B09F480E0EF2B09F0E1
:101760008062672B09F08064452B89F080680895BA
:1017700081E0AB2B09F480E0EF2B09F08260672B4E
:1017800009F08460452B19F08860089580E0089581
:10179000CF93DF93EB010E94970BFE010995DF9138
:1017A000CF910895CF93DF93EC01805E9109089764
:1017B00020F06BE970E1209711F468E57EE0CE013E
:1017C0000E94C80B8C2F0E94BC0DDF91CF91089511
:1017D000CF93DF93EC010E94040ECE01805E91094D
:1017E000089720F062EA70E1209711F46FE57EE03F
:1017F000CE010E94C80BDF91CF9108950F931F93E4
:10180000CF93DF938C01EB010E94D20B209741F420
:10181000C8010E94E80BDF91CF911F910F910895AD
:101820008FE99FE00197F1F700C000002197EECF0C
:1018300070E060E08933910511F460E570E00E948A
:10184000FE0B089581E008950E94220C089581E026
:1018500008950E94D409089508950E942C0C0895BB
:10186000A6E0B0E0E6E3FCE00C94B03449835A8390
:101870009E833091340389819A8131111AC03E814F
:10188000332399F0222389F00E940F12182F682F1A
:1018900089819A810E94EB1169817A81812F0E944E
:1018A0005E192696E3E00C94CC340E94FD11182FAB
:1018B000F3CF0E940F1269817A81F1CFFC01262FAC
:1018C0004081518162817381848195810E94300CB5
:1018D0000895CF93DF93D82FC92F61E00E945E0C4B
:1018E0006D2F7C2F0E94240CDF91CF910895CF9310
:1018F000DF93D82FC92F60E00E945E0C6D2F7C2FE4
:101900000E942D0CDF91CF91089581E008950E94EF
:10191000850C0895CF93C82F0E94BF108C2F0E9472
:10192000870C2FEF84E39CE0215080409040E1F74A
:1019300000C00000CF91089581E00E948A0C0E94AF
:10194000A62A089580E00E948A0C0E94CA2A08955F
:101950000F931F93CF93DF938C0161E00E945E0C85
:10196000EC01B8010E94290C811106C080E0DF91D2
:10197000CF911F910F910895B801CE010E94982731
:101980008823A1F3B801CE010E94A622882371F317
:10199000B801CE010E947C22882341F3B801CE0118
:1019A0000E94D621882311F3F8018581882381F0D4
:1019B000CA35FCE7DF0711F178F4C130ECE7DE0748
:1019C000D1F0C330FCE7DF07A1F0C115DC4771F0AF
:1019D000C8010E94270CCBCFCB35ECE7DE0789F09E
:1019E000CC35DC47A9F70E947B16F2CF0E949C0CF5
:1019F000BDCF0E948D160E94A20CB8CF0E94851602
:101A0000E7CF0E948916E4CF0E94A6290E942E1FCC
:101A10000E94570D81E00E945C2008950E945B0D9A
:101A200080E00E945C200E94AB2908959C01892FD0
:101A300099270097E9F09C0188E0A90174E0569588
:101A400047957A95E1F74115510511F08C5F9A01A0
:101A5000A90156954795569547954115510511F0A1
:101A60008E5F9A0136952795232B09F08F5F089595
:101A700080E0E3CF089581E008950895CF93DF9348
:101A8000D82F0E943B0DC82F882319F08D2F0E945C
:101A90003D0D8C2FDF91CF9108950895CF93C82FDE
:101AA0000E943A0D8C2F0E943E0DCF91089580E048
:101AB0000E944E0D08950E94E0270E944E0D089549
:101AC000CF930E94E027C82F80912F038C1779F0C5
:101AD000C0932F030E94362A609330037093310322
:101AE00080933203909333038C2F0E944E0DCF913D
:101AF0000895ADE0B0E0EFE7FDE00C94B134488725
:101B000059876A877B878C879D8791110E948B15E7
:101B10001F8286E0FE013896DE01119601900D923B
:101B20008A95E1F78D8181110DC029813A814B8120
:101B30005C816D817E818F810E94D2142D96E2E0BE
:101B40000C94CD34CE0101960E94690C8111EDCF29
:101B5000F5CFFC018481813021F4808191810E9444
:101B600041120895662329F00E9407240E94EC2464
:101B700008950E947324FACFCF93C82F882399F039
:101B80008CEF8C0F813A88F48C2F0E948428882354
:101B900029F08C2F0E9426290E941F168C2F0E944C
:101BA0000F290E941F16CF91089580E28C0F883074
:101BB00048F4C77081E001C0880FCA95EAF70E9417
:101BC0006C15EFCF8BE58C0F833038F42C2F24521B
:101BD000330BC9010E941628E6CFE8E5EC0FEB3184
:101BE00050F4F0E0EE0FFF1FEA50FE4F808191812C
:101BF0000E943C28D8CF83E38C0F8331A0F661E0AC
:101C00008C2F0E94B20DCFCF882381F19CEF980FCB
:101C1000913A28F40E9426290E941F16089590E206
:101C2000980F983050F4877091E001C0990F8A9511
:101C3000EAF7892F0E947215EFCF9BE5980F93303A
:101C400028F490E080E00E941628089598E5980F07
:101C50009B3128F490E080E00E943C28089593E3B3
:101C6000980F933118F460E00E94B20D08951F930D
:101C7000CF93DF93182FEB010E94BC0D209739F40E
:101C8000812F0E94040EDF91CF911F9108958FE95B
:101C90009FE00197F1F700C000002197EFCF70E0BF
:101CA00060E0893311F460E570E00E94370E08951A
:101CB000882321F00E946C150E941F160895882326
:101CC00021F00E9472150E941F160895B0E0A0E056
:101CD000ECE6FEE00C94A9346C01D62FC72FFC0172
:101CE0001581068102950F700E946215E82E8823E7
:101CF000F9F0E12E1123E1F08C2F807F803461F028
:101D000080E28D0F883000F18C2F807E803221F4AC
:101D1000D230D0F00023C1F08091570482FF14C06C
:101D200082E00E944F160E94621591E0E82EE9269B
:101D30008C2F82958F70A82EB12C8C30B0F5F501C8
:101D4000EE5BFA4C0C949B34E12CF2CF0C2F0F700D
:101D5000C07F11F00295007F112399F0002359F004
:101D600080E28D0F883010F0D11107C0802F0E94C3
:101D70006C150E941F168D2F5CC0802F0E947D1550
:101D8000F8CF8D2F0E94040E002379F080E28D0F92
:101D9000883010F0D11104C0802F0E94721503C04A
:101DA000802F0E9483150E941F1688E0A81AB10890
:101DB00094E0A916B10420F40E94E0270E944E0D81
:101DC000EE2089F00E945E1580FD0DC0F60115829F
:101DD0000E9458150E944811C6010E9478100E9466
:101DE00058150E945811CDB7DEB7EAE00C94C534FF
:101DF000FC2FFF70FF2EC07FC03219F0F29480EFED
:101E0000F822DD2341F0D130D1F1112309F444C08F
:101E10000023F1F0B0CF8091570482FD15C011234B
:101E200059F0FF2029F08F2D0E946C150E941F167B
:101E300080E00E94BC0DB9CF80E00E94040EFF201C
:101E400009F4B3CF8F2DA9CF112369F0011104C07C
:101E50008F2D0E94580EA9CF013009F0A6CF8F2DEB
:101E60000E94A215A2CF0111A0CF8F2D0E945F0E5C
:101E70008F2D0E94AE158F2D0E94921596CF1123A3
:101E800021F0063008F091CFE3CF053008F08DCF78
:101E90008F2D0E945F0E89CF0023D1F3D93349F4EF
:101EA0002FEF87EE93E0215080409040E1F700C093
:101EB00000008D2F0E94040E78CF8C2F869586957A
:101EC000837069F0813009F070CF8D2F9C2F937053
:101ED000111102C080E090E00E943C2866CF8D2F57
:101EE0009C2F9370111102C080E090E00E94162890
:101EF0005CCF612F8D2F0E94B20D57CF8C2F837036
:101F0000A9F5111152CF4D2F429546954770440FB8
:101F1000440F2D2F2F7030E0042E02C0220F331FEC
:101F20000A94E2F790E080E0D4FF09C08FE090E0EF
:101F300002C0880F991F4A95E2F780959095C69543
:101F4000C695C370822B932BC23051F0C33059F029
:101F5000C13019F00E941B1128CF0E94121125CF09
:101F60000E94241122CF0E940F111FCF86951123AA
:101F700011F08C2F8170882309F417CF4D2F4295D3
:101F800046954770440F440F2D2F2F7030E0042EDC
:101F900002C0220F331F0A94E2F790E080E0D4FFE2
:101FA00009C08FE090E002C0880F991F4A95E2F7C0
:101FB00080959095C695C695C370822B932BC230A1
:101FC00051F0C33059F0C13019F00E948311EDCEA9
:101FD0000E947A11EACE0E948C11E7CE0E94301145
:101FE000E4CECF70112329F08C2F0E9448118D2F41
:101FF00030CF8D2F0E945F0E8C2F0E945811D5CEAE
:10200000D23F41F160F4D03FB9F0D13F81F01123CC
:1020100009F446C00111AFCE8C2F8F711FC0D33F82
:1020200001F1D43FA1F78091570482FD24C08C2F89
:102030008F71112311F312C0112341F0053008F004
:10204000B4CE8C2F8F710E946A11AFCE063008F08B
:10205000ACCEF7CF8C2F8F711111CFCF0E944811CA
:10206000A4CE112329F08C2F8F710E943C119DCE9C
:102070000E9437119ACE112349F0CF718C2F0E9404
:10208000481163E08C2F0E9431168FCE81E00E94B0
:102090004F16023008F489CE82E00E944F1685CE9A
:1020A000002359F0D93309F004CFEFEFF7EE23E026
:1020B000E150F0402040E1F7FACE8C2F8F719DCF98
:1020C0000F931F93CF93DF93EC01688179818D810A
:1020D0000E944E128C010E9495110E940E11B801AF
:1020E000CE010E94660EDF91CF911F910F9108954E
:1020F000CF93DF93EC018C81882399F0CE010E946D
:10210000A80C811111C00E946215882351F08D81A5
:10211000882339F08091570482FF03C082E00E9437
:102120004F16DF91CF910895CE010E946010CE012D
:102130000E94770CF6CF882321F00E947D150E9423
:102140001F160895882321F00E9483150E941F16F0
:10215000089590E080E00E94162890E080E00E94C0
:102160003C280E948B150E941F160E9407250E9482
:10217000EC2408950E943D290E94A91008950E9410
:102180007A150E94BA100895282F92959F70963064
:1021900091F060F4925F9F70923030F481E0203FC4
:1021A00081F030F4283E30F080E008959A5FF3CF5C
:1021B000243FD1F7089581E0283EE0F3213FA1F7C5
:1021C000F9CF0895FC018481882339F080819181C1
:1021D0000E9441120E94C410089580E00895A6E074
:1021E000B0E0E5EFF0E10C94B1342696E2E00C9417
:1021F000CD34A7E0B0E0EFEFF0E10C94B1342796D6
:10220000E2E00C94CD3408950E94031108950E94D9
:1022100004119093500380934F03089508950E94F2
:102220000711089520914F0330915003822B932B77
:102230000E940711089520914F033091500382238B
:1022400093230E940711089520914F03309150036A
:10225000822793270E94071108950E94D4070895AA
:102260000E942D1190934E0380934D03089590E0AA
:1022700080E00E943011089521E030E0A90102C001
:10228000440F551F8A95E2F7CA010E943011089544
:1022900021E030E002C0220F331F8A95E2F78091DF
:1022A0004D0390914E03822B932B0E943011089581
:1022B00021E030E002C0220F331F8A95E2F720951B
:1022C000309580914D0390914E03822393230E9479
:1022D0003011089521E030E002C0220F331F8A95AB
:1022E000E2F780914D0390914E03822793270E943D
:1022F0003011089520914D0330914E03822B932B82
:102300000E943011089520914D0330914E03822395
:1023100093230E943011089520914D0330914E0374
:10232000822793270E943011089508959B016770BA
:1023300091E001C0990F6A95EAF763E03695279519
:102340006A95E1F7220F331F220F331FFA01E20FC4
:10235000F31F50E040E0682F70E08191DF0111979A
:102360009B01042E02C0369527950A94E2F721704E
:1023700021952827292328272C934F5F5F4F44302E
:10238000510559F708959C01982F977083E0369571
:1023900027958A95E1F7220F331F220F331FFB0188
:1023A000E20FF31F50E040E080E0219130E0092E81
:1023B00002C0369527950A94E2F721703327042E40
:1023C00001C0220F0A94EAF7822B4F5F5F4F44301F
:1023D000510559F70895282F862F943068F42C3032
:1023E00058F4622F70E02CE0929F600D711D112453
:1023F00045E353E00E9496110895292F943068F424
:102400008C3058F490E065E373E03CE0239F800D4E
:10241000911D11240E94C311089580E00895B0E039
:10242000A0E0E5E1F2E10C94AA348C01E0904D03C8
:10243000F0904E0380914F0390915003E82AF92ABF
:10244000CFE0D0E0CC24C394D12CBC2EC6010C2EFE
:1024500002C0880F991F0A94E2F78E219F21892BD1
:1024600049F4219790F7B12C8B2DCDB7DEB7E9E079
:102470000C94C634B8018C2F0E946A19019789F315
:10248000F3CFCF93DF93D82FC92F0E940F126D2F58
:102490007C2F0E946A19DF91CF9108951F93CF93EB
:1024A000DF93162FD72F90913403992341F0862F75
:1024B000972F0E944112DF91CF911F910895882399
:1024C00081F0862F972F0E940F12C82F682F812F1F
:1024D0009D2F0E94EB11612F7D2F8C2F0E946A1976
:1024E000EACF862F972F0E94FD11C82FF4CF1F939C
:1024F000CF93DF93E091510317E0809152038E1345
:1025000004C0DF91CF911F910895CE2FD0E01E9F80
:10251000F0011124ED5AFC4F208131814281538119
:102520006481758186810E94F910FE013196E77001
:10253000E4CF20918B0330918C0340918D03509117
:102540008E0360918F0370919003809191030E949C
:10255000F9100895982FE09151034091520357E0EC
:10256000E41302C080E008952E2F30E05E9FF0015A
:102570001124ED5AFC4F8181681306C080819813A5
:1025800003C085818111EFCFF9013196E770E8CF63
:10259000B0E0A0E0EEECF2E10C94AC348091910359
:1025A000807F09F054C080919003882309F44FC0C4
:1025B000E091510387E0D82E809152038E1709F4E1
:1025C00046C00E2F10E0ED9DF0011124ED5AFC4F96
:1025D0008481882309F440C0D09EE001D19ED00DB3
:1025E0001124FE01ED5AFC4F918180918C039813C8
:1025F00033C0908180918B0398132EC08581811107
:102600002BC0E280F38080918D0390918E03E81AB5
:10261000F90A60E08BE893E00E945E0C6BE873E0DF
:102620000E94180AE816F906B8F4809191038F7099
:10263000806180939103C75ADC4F88818F708061DD
:1026400088838BE893E00E9478100E947712CDB7C0
:10265000DEB7E7E00C94C834F8013196E770ACCFF0
:10266000ADE0B0E0E6E3F3E10C94A4348C0186E045
:10267000F801DE01189601900D928A95E1F7F801B4
:10268000F480E5808BE8882E83E0982E80918F037C
:10269000811126C0F11007C0FF24F3948F2D2D96D1
:1026A000EFE00C94C034EE20B9F0C8010E94E210B3
:1026B000F82E882389F087E0F801ABE8B3E00190B9
:1026C0000D928A95E1F78BE893E00E94A90D0E9494
:1026D000C8120E949912E2CFC8010E947810DCCF84
:1026E0005080A180C280D380B090900380918D03F0
:1026F00090918E033601681A790A60E08BE893E0C6
:10270000BB2009F4EAC00E945E0C6BE873E00E94F3
:10271000180A6816790608F0ABC0FF2009F4BCCF90
:1027200080919103382F307F20918C03F8019181A3
:1027300031115AC0FE2C291316C020918B039081B1
:10274000291311C0E11049C08F70806180939103FB
:102750000E9499128BE893E00E9478108091910377
:10276000F80186839BCFE11038C06A2D852D0E9429
:10277000AA126A2D852D0E94AA12E82E81118ECFF1
:102780005886A986888599850E944112292F22950D
:102790002F70903458F49F70223088F0992399F06C
:1027A000F8019681907F79F4FE2C78CF2A5F2F7004
:1027B000223068F0C8010E947810EB2CF5CF9923E5
:1027C00011F0882389F3805E883070F3F3CF803F67
:1027D00058F3815F833040F3EDCF809191038160A6
:1027E00080939103F12C5ACF291317C020918B03AA
:1027F0009081291312C0E11010C08683C8010E9485
:10280000781087E0F801ABE8B3E001900D928A956B
:10281000E1F70E949912FB2C41CFC8010E94E210FF
:10282000882309F459CFEE2009F456CF8091910303
:10283000803288F020918B0330918C033A83298376
:10284000DC82CB8290918F039D831E828F83CE0189
:1028500001960E94781087E0F801ABE8B3E00190A0
:102860000D928A95E1F70E94C8120E94991214CF26
:1028700080919103982F907FB1F46C2DDB86CA86EE
:10288000452D5A2D7B858F2D9E2D0E94EF108BE8B4
:1028900093E00E94781087E0F40111928A95E9F79D
:1028A0000E9499129FCFFF2009F4F6CE20918C034D
:1028B000F80191812913B1CF20918B0390812913C5
:1028C000ACCFE110AACF8683C8010E94781087E0C0
:1028D000F40111928A95E9F79ECF0E945E0C6BE895
:1028E00073E00E94180A6816790608F050C0FF20AD
:1028F00009F4D2CEFE2CEE2009F4EECE90918C039A
:10290000F8018181981335C090918B0380819813D1
:1029100030C080918D0390918E03C81AD90AFEE6CB
:10292000CF16D104E8F48091910380FD19C0982F4F
:10293000907FB1F0F8018683903F31F0982F907F1F
:10294000905F8F70892B8683C8010E94781087E082
:10295000F801ABE8B3E001900D928A95E1F7B9CEAA
:1029600087E0F801ABE8B3E001900D928A95E1F7BA
:1029700095CEC8010E94E21081116DCF8091910324
:10298000816080939103C8010E94781087CE6C2DDE
:10299000DB86CA86452D5A2D7B858F2D9E2D0E9464
:1029A000EF1079CFAEE0B0E0E8EDF4E10C94B03494
:1029B000288739874A875B876C877D878E87CE011A
:1029C00008960E9430138823B1F06C85662341F08D
:1029D000288539854A855B857D858E850E94F9101D
:1029E00017E0809151039091520389133EC02E96B7
:1029F000E3E00C94CC3487E0FE013896DE011196BA
:102A000001900D928A95E1F74C85442349F320917A
:102A1000520330E0C9010196877099275091510304
:102A200058171906A1F04D8397E0929FD001939F0C
:102A3000B00D1124AD5ABC4FFE01319601900D929C
:102A40009A95E1F7809352030E947712C9CF0E94B2
:102A5000BF10109252031092510387E0EBE8F3E0AD
:102A6000DF011D928A95E9F7BBCF819FC001112438
:102A70008D5A9C4F0E943013882309F4B8CFE091FF
:102A800051031E9FF0011124ED5AFC4F208131812A
:102A9000428153816481758186810E94F910809101
:102AA000510390E00196877099278093510399CF45
:102AB0008091BA0386958695869508958091BA038C
:102AC000877008959091BA03977081E009F480E0CF
:102AD00008958091E60308959091E603982B9093D2
:102AE000E6030895982F90958091E60389238093BB
:102AF000E60308951092E60308959091E503982B5C
:102B00009093E5030895982F90958091E50389238C
:102B10008093E50308951092E503089508950E94B7
:102B20008E1508959091BB03292F282331F08095AD
:102B300089238093BB030E948F15089508950E94F6
:102B40009E1508959091BC03292F2823281729F05A
:102B5000982B9093BC030E949F1508959091BC03FD
:102B6000292F282331F0809589238093BC030E946C
:102B70009F1508958091BC03882329F01092BC030F
:102B800080E00E949F150895CF93C091E603809145
:102B9000E503C82B8091BC03882331F0C82B0E9429
:102BA000622881110E94BA158C2FCF910895CF937E
:102BB000DF93C091B701D091B8010E94C4158883FA
:102BC000C091B701D091B80148E050E062EB73E0EA
:102BD000CE010E94D834892B59F088E0FE01A2EB87
:102BE000B3E001900D928A95E1F7CE010E94ED27A6
:102BF000DF91CF910895CF93DF93C091B501D0912C
:102C0000B6010E94C4158983C091B501D091B60167
:102C100040E250E062E973E0CE010E94D834892B93
:102C200059F080E2FE01A2E9B3E001900D928A958D
:102C3000E1F7CE010E94F827DF91CF9108958091AE
:102C4000D101882339F08091560487FF03C00E9488
:102C5000FB1508950E94D715089508950E942D161A
:102C600008959091570492FF11C098E0899F9001B8
:102C70001124622B6093BA030E9448118091BA0319
:102C80008695869586950E942E1608950E94481175
:102C900008951092BA0380E00E942E160895909134
:102CA000BA03809589238093BA03282F277069F48B
:102CB000891759F09091570492FF07C08695869521
:102CC00086950E9458110E944916089590915704C4
:102CD00092FB222720F9281769F080FB92F9909344
:102CE000570480915604909157040E94AE1682E0DA
:102CF0000E944F1608958091570482FB882780F91F
:102D000091E089270E946616089581E00E94661668
:102D1000089580E00E94661608956FEF7FEF90E0BF
:102D200080E00E943A35089590E080E00E940635E8
:102D30009C0181E0263E3E4F09F080E0089582E04C
:102D400090E00E94FE34089583E090E00E94FE34FB
:102D5000089584E090E00E9406350895BC0184E067
:102D600090E00E943A350895AB01BC018FE090E0FD
:102D70000E942E350895AB01BC0183E190E00E94D2
:102D80002E35089560E070E0CB010E94BB160895D7
:102D900060E070E0CB010E94B4160E94C216089554
:102DA000A8E0B0E0E6EDF6E10C94B13466EE7EEF1B
:102DB00090E080E00E943A3560E082E090E00E947E
:102DC0001C3581E090E09093500380934F0361E0C5
:102DD00083E090E00E941C3560E074E184E090E0C4
:102DE0000E943A3560E086E090E00E941C3560E089
:102DF00087E090E00E941C3540E050E0BA0188E096
:102E000090E00E942E3560E084E290E00E941C3544
:102E100060E087E190E00E941C3560E08CE090E08B
:102E20000E941C3560E08DE090E00E941C35198204
:102E30001A821B821C821D821E821F82188648E015
:102E400050E068E170E0CE0101960E940C3540E050
:102E500050E0BA0180E290E00E942E350E94C81630
:102E60002896E2E00C94CD340E94D0160895682F85
:102E70008EE090E00E941C350895A6E0B0E0E3E407
:102E8000F7E10C94AF340E942A2A8C018091E70369
:102E90009091E8038017910781F019821A820E94AD
:102EA0002A2A682F49815A81792F80E090E00E9478
:102EB000790D1093E8030093E7032696E4E00C9461
:102EC000CB340E94362A6093F5037093F603809307
:102ED000F7039093F8036093F1037093F2038093E8
:102EE000F3039093F4030895089508950E947417CE
:102EF00008950E941508089580E69AE10E94C71B74
:102F00000E9475170E947617089581E008950E9427
:102F1000851708950E9485170895089508950E94C1
:102F20008D170E948E1708950E949416811102C079
:102F30000E9434170E949F168093F9030E94A916DD
:102F400090935704809356040E9479220E94A416FD
:102F500090E00E940F1180914D0390914E030E94CA
:102F60002D1108950E94212A0E94181B0E94941777
:102F70000E944D0D0E94FD1FE6E5F4E0808180680F
:102F8000808380915604909157040E94AE160E944F
:102F900079170895A6E0B0E0E0EDF7E10C94A534D0
:102FA0000E94871781110CC00E943D170E942E1F9E
:102FB0000E9428250E94600D2696EEE00C94C134F4
:102FC0000E942E1B29EE822E23E0922E640110E037
:102FD000F601E190F1906F01812F0E94691A1F5F45
:102FE000143009F44EC0E816F90691F38091F90304
:102FF00081FD0E94721A0E948A17782E10E0812F9C
:103000000E94691A7C01F401A190B1904F018A15C8
:103010009B0589F1A826BF2400E0CC24C394D12CC1
:10302000C5018C219D21892BE9F066246394C70199
:103030008C219D21892B09F4612C772071F0098363
:103040001A830E942A2A682F8B839C8349815A8184
:10305000792F81E0962D0E94790D462D602F812FCA
:103060000E94761D0F5FCC0CDD1C0C30C9F6F401FC
:103070003297F182E0821F5F143009F60E946117D7
:1030800095CFE816F90609F0B1CF8ECF1F93CF93F5
:10309000DF930E946F19EC018115924508F05FC023
:1030A000C11580E5D80708F0DDC0C03ED10538F570
:1030B000CD3CD10508F0AEC0C83AD10580F4C53A80
:1030C000D10508F0A4C0C130D10509F443C0CE0138
:1030D0000497813A9105F0F1D0E0C0E03BC0CE0109
:1030E000885A91094B97C0F7C85AD0E0CC0FDD1F22
:1030F000C45DDD4F0990D881C02DD4642BC0C115AB
:1031000090E4D907F0F4C11520E2D20708F0C4C05A
:10311000C83ED105F8F0CE019A9581159F41E0F6A1
:103120008D2F0E94111A182FCE0199270E946F1916
:10313000C12FD0E0DC2FCC27CC27DF71C82BD92BB7
:1031400009C0CE0199270E946F19CC27DF70C82BC8
:10315000D92BD06ACE01DF91CF911F910895C0384D
:1031600082E5D807B8F5C03692E5D90708F05BC00C
:10317000C03422E5D207C8F4C03282E5D80708F08F
:103180004BC02C2F2695269590E2299F9001112463
:103190008C2F8370C1E0D0E002C0CC0FDD1F8A9578
:1031A000E2F7C22BD32BDD68D5CF2C2F26952695A1
:1031B000277080E2289F900111248C2F8370C1E03A
:1031C000D0E002C0CC0FDD1F8A95E2F7C22BD32BD3
:1031D000DC68C0CFC03C92E5D90760F48C2F8F71BA
:1031E000C03AD245A8F5C82FD0E0DC2FCC27C46F59
:1031F000D06AB0CFCE01805C9245809708F06CCF4A
:10320000DC2FCC27CC27DF71C06FD06AA3CFA49767
:10321000D064A0CFD0659ECFCF71D0E0DC2FCC277B
:10322000C16FD06A97CF2C2F26952695277080E204
:10323000289F900111248C2F8370C1E0D0E002C040
:10324000CC0FDD1F8A95E2F7C22BD32BDA6882CF31
:103250000E94111AC82FD0E0DC2FCC27CC27DF71B9
:10326000D06278CF8C2F8F710E94111A55E0D695BD
:10327000C7955A95E1F7CF70D0E0DC2FCC27282FE7
:1032800030E084FF05C044E0220F331F4A95E1F788
:10329000C22BD32BD0695ECF8D2F8F710E94111A54
:1032A000182FCE0199270E946F19C12FD0E0DC2F73
:1032B000CC27CC27DF71C82BD92BD2CF462F672F35
:1032C000743028F44C3018F40E94940B089580E078
:1032D00090E008950E945E190E9446180895803E6D
:1032E0009105C1F1C8F48133910509F47DC048F41A
:1032F0008932910509F46DC08A32910509F47BC0C9
:10330000089589339105D1F082389105B9F085335C
:10331000910509F459C00895843E9105C1F138F42E
:10332000823E910521F1833E910531F10895863E5B
:103330009105C1F1873E9105E1F108952091560470
:10334000237009F065C02091570423FF14C089E25F
:1033500090E008952091560420FD43C03091570419
:1033600030FF09C024FF4EC090E080E00895209116
:10337000560422FDF7CF08952091560422FD45C042
:103380003091570430FD44C024FFF5CFEDCF20919C
:10339000570421FFF0CF8091560484FDE5CF87EEDE
:1033A00090E008952091560423FFE5CF24FDDCCF63
:1033B000F6CF2091560423FD2EC03091570431FFE3
:1033C000E3CF84EE90E008952091560425FFD3CFFB
:1033D000BECF2091560425FD21C02091570423FF24
:1033E000CACF89E390E0C7CF2091560426FFC3CF10
:1033F0008AE290E008952091560426FFBCCF81E335
:1034000090E0089583EE90E0089582EE90E00895B4
:1034100080EE90E0089586EE90E0089585E390E0D8
:1034200008959091560492FF10C041E0282F247116
:10343000243009F040E031E0282F2871283009F0CD
:1034400030E0431711F02CE0822793FF10C041E0D9
:10345000282F2471243109F040E031E0282F287111
:10346000283109F030E0431711F02CE08227309129
:10347000570430FF10C051E0282F2171213009F08E
:1034800050E041E0282F2871283009F040E054171F
:1034900011F029E0822731FF10C041E0282F21716F
:1034A000213109F040E031E0282F2871283109F05E
:1034B00030E0431711F029E0822794FD877E0895BC
:1034C00080E0089508950E94621A08950E94CF092D
:1034D0000895E82FF0E0EE0FFF1FE05AFB4F8081C8
:1034E00091810895089580EA8A95F1F7089500C0C2
:1034F00008950E94731A0895F894E82FE295EF70EA
:10350000F0E041A18F7021E030E0B90102C0660F08
:10351000771F8A95E2F7CB01962F9095942391A37C
:1035200092A1892B82A378940895CF93DF9385E9A4
:103530000E947C1A86E60E947C1A86E30E947C1A0E
:1035400086EC0E947C1AC2E6D2E089918F3F11F08E
:103550000E947C1A82E0CE36D807B9F7DF91CF916E
:103560000895B0E0A0E0E7EBFAE10C94AA34EC0196
:10357000B62E062F10E0C80182599D4F7C01FC0138
:1035800020812F3F09F44CC0F894E22FE295EF70B0
:10359000F0E031A12F7081E090E001C0880F2A9502
:1035A000EAF7932F982B91A392A18095892382A368
:1035B00078940E94771AE2E6F2E041E050E0D12CE4
:1035C000C12C21912F3F89F1A22FA295AF70B0E0BD
:1035D00090968C9190E02F7002C0959587952A95D2
:1035E000E2F780FD22C0CA01C82AD92A440F551F1C
:1035F00082E0EE36F80729F7F70180818F3F11F05E
:103600000E947C1A61E0C114D10409F460E08B2DA2
:103610000E94791A000F111FC00FD11FD982C882D2
:10362000CDB7DEB7E9E00C94C63490E080E0DCCFA3
:103630000E94951A88E0E0E6F4E0DF01982F1D92E1
:103640009A95E9F7E8E5F4E0DF011D928A95E9F73C
:1036500084E00E946A1B0E94631A0895A8E0B0E00B
:10366000E4E3FBE10C94AE348E010F5F1F4F88E062
:10367000F80111928A95E9F7F12C6F2DC8010E948B
:10368000B11AF394F4E0FF12F8CF48E050E0B8012B
:1036900088E594E00E94D834AC0121E0892B09F43C
:1036A00020E0452B41F088E0F801A8E5B4E0019066
:1036B0000D928A95E1F744E060E674E088E594E0D5
:1036C0000E946B1B182F0E94661A812F2896E5E036
:1036D0000C94CA340895B0E0A0E0E1E7FBE10C945B
:1036E000AB34D82EE92EF62ED72F042FC22F22234B
:1036F00079F081E08093FC030E942A2A9093FB03D7
:103700008093FA0380E0CDB7DEB7E8E00C94C734CD
:10371000C090FC03CC20B1F38091FA039091FB039D
:103720000E94532A059770F310E0000F111FA801A3
:103730006D2D7E2D8F2D9D2F0E94D834892B41F029
:10374000A8016D2D7E2D8F2D9D2F0E94E534CC2D4F
:103750001092FC038C2FD7CF0E94382C0E94B217F6
:103760000E94452C08950E944A2C0E94CA170E946C
:10377000642C08950E94C3290E941E2C0E947C176D
:103780000E94AC1B0E94B31B0E948F17FBCF90932B
:103790007B0280937A020895B0E0A0E0E2EDFBE1C5
:1037A0000C94AB34D62FC72F982F71110FC0442320
:1037B00029F0E82FF0E0E457FD4F9491692F792F1D
:1037C000892FCDB7DEB7E8E00C94C734272F30E05F
:1037D000E82FF0E0442321F0E457FD4FE491F0E0BE
:1037E00086E0D89F700111240FEF10E0C701B801E7
:1037F0000E9432348D2F90E0880F991FA5E5A69F77
:10380000A001A79F500D1124841B950BD82EDD0C11
:10381000D80EC801821B930B8E9FA0018F9F500D65
:103820009E9F500D1124952FDC9EE0011124CD2F79
:10383000DD27D801AC1BBD0BED01CE9FD001CF9F82
:10384000B00DDE9FB00D11248B2FE801CD19D109E9
:103850006E01C29EE001C39ED00DD29ED00D1124F8
:10386000CD2FDD270C1B1D0B0E9FE0010F9FD00DF0
:103870001E9FD00D11242E2F63307105D9F03CEF1F
:10388000E31633E0F30668F461307105B9F0623095
:103890007105C1F0AFEFEA16F10448F4852F9D2FB2
:1038A00006C06430710589F066307105B9F3692F7F
:1038B000722F87CF9B2F8E2F252FF9CF9E2F2B2F47
:1038C000852FF5CF8D2F9E2FF7CF8E2F2D2FEFCF5A
:1038D00041E00E94CC1B08959C0190E080E0269F6F
:1038E000812D369F800D911D11240895A6E0B0E032
:1038F000ECE7FCE10C94AC347B01D82ECA01B0E0BB
:10390000A0E089839A83AB83BC83BA01CD010E9476
:103910006E3220E030E04FE753E469837A838B8393
:103920009C8369817A818B819C810E94CD318B013E
:103930008E839D839B01AC0169831A838B839C8357
:1039400069817A818B819C810E94C53398014E8167
:103950005D8169837A838B839C8369817A818B8182
:103960009C810E94C53398014E815D8169837A8371
:103970008B839C8369817A818B819C810E94C53372
:103980008B018E839D832DEC3CEC4CE45DE36983DD
:103990001A838B839C8369817A818B819C810E94AD
:1039A000C83187FD3FC023E333E343E75FE3698129
:1039B0007A818B819C810E94C033181634F400E018
:1039C00010E0B0E8BE833FE33D8320E030E04FE706
:1039D00053E409831A838E818B839D819C83698143
:1039E0007A818B819C810E94C5339B01AC0160E090
:1039F00070E08FE793E40E945B3169837A838B8365
:103A00009C8369817A818B819C810E943F32262F21
:103A10003D2D239F212D1124B701822F2696E7E00B
:103A20000C94C83400E010E01E821D82CECF0E94AC
:103A3000761C809508959091FD03982B9093FD033B
:103A4000089548E050E068E170E088E694E00E9464
:103A50000C351092FD0308950E94681C0895E8E655
:103A6000F4E085E080838091D2019091D301A09110
:103A7000D40181839283A3838FE784838FEF85832F
:103A80000E94211D089580E008950F931F93CF9306
:103A9000DF93C82FD62F8A010E94431D9CE0C99F47
:103AA000900111242E5F3E4F2D0F311DF9019081A1
:103AB0009F3F29F0F801E80FF11D90838F5FDF91A0
:103AC000CF911F910F910895E0917802F0917902C2
:103AD00009950895E0917402F09175020995089591
:103AE000E0917602F091770209950895CF92DF92E6
:103AF000FF920F931F93CF93DF93CDB7DEB7289735
:103B00000FB6F894DEBF0FBECDBF182F062FF42ED0
:103B10000E948517882309F44CC0FF2009F457C080
:103B2000AE014F5F5F4F602F812F0E94451DF82E21
:103B30000F2D10E08091FE03800F912F911D0997AA
:103B40006CF188E090E06C01C01AD10AB8016150B4
:103B50007C4FA6018FEF93E00E94E534B801695FC6
:103B60007B4FA60187E094E00E94E534A601440F54
:103B7000551FB801660F771F695E7B4F87E194E0A0
:103B80000E94E534B801615F7B4FA6018FE094E0AD
:103B90000E94E53488E08F198093FE031091FE03A4
:103BA000DE01119640E0242F210FF41212C0209361
:103BB000FE0328960FB6F894DEBF0FBECDBFDF918F
:103BC000CF911F910F91FF90DF90CF900895F12C2E
:103BD000AFCF5D91852F90E030E0B90162507C4F0E
:103BE000FC01EE0FFF1FEE5CFE4F0081FB01018325
:103BF000880F991FFC01EE5FFE4F81A9FB018187B1
:103C0000518B220F331FF901E250FC4F128E118E9F
:103C10004F5FC9CF0E944507089599E0899F802D85
:103C20001124980F9B3208F09AE20895AF92BF9248
:103C3000DF92EF92FF920F931F93CF93DF938C014C
:103C40007B01FC0180810E940D1EC82FD92E20917E
:103C50006C0431E0230F08F42FEF30E050E040E037
:103C60006FEF7FEF80E090E00E947C345901D0E05C
:103C70002C2FCD1578F081E0F9E2FD1508F480E0F5
:103C8000DF91CF911F910F91FF90EF90DF90BF9048
:103C9000AF900895FE01EA57FE4F8081F8019181AF
:103CA000892311F1409174044150042E000C550BEE
:103CB00047FF1CC0C50160916C0421E0620F08F44D
:103CC0006FEF0E946C1CAC016091690470916A04F2
:103CD00080916B04F70109950E942C1D462F672FD8
:103CE000282FCE010E946A1D2196C2CFFA01EC58FE
:103CF000FB4F818982130AC0FA01EE0FFF1FEC58B7
:103D0000FB4F818D928D8A159B05A8F24150510978
:103D1000CFCFB0E0A0E0EFE8FEE10C94AB347C0143
:103D2000FC0180810E940D1EC82F192F609169042B
:103D300070916A0480916B040E942C1D062FD72E6F
:103D4000C82ED0E0C11748F081E01A3208F080E0B8
:103D5000CDB7DEB7E8E00C94C734FE01EA57FE4F5A
:103D60008081F7019181892331F02C2D402F6D2D19
:103D7000CE010E946A1D2196E5CFCF93C82F809176
:103D8000BD018C1338C09091680493702091BE01DE
:103D900030E081E09217130609F480E0817080938F
:103DA000BC0180916D049091BB01981739F080930C
:103DB000BB0140E060E080E00E94701DC230A9F1CC
:103DC000E0F4CC2319F1C13059F180E09091BA01AF
:103DD0009F5F9093BA0181110CC082E08093B9017A
:103DE0008091BC01811105C0C11103C083E08093A3
:103DF000B901CF91089581E0D1CFC33031F78091DF
:103E0000BA010E940D1E67E17DE115C08091BC01E1
:103E10008823E1F240E060E080E00E94701DD5CF91
:103E20008AEB91E00E94891ED1CF8091BA010E9455
:103E30000D1E66E77CE18AEB91E00E94161EC6CF5C
:103E400081E008950E94201F0895FC018081815027
:103E50000E940D1E692F0E94221F08954F925F92AB
:103E60006F927F928F929F92AF92BF92CF92DF928A
:103E7000EF92FF92CF93DF9300D000D0CDB7DEB7A3
:103E80008091270490912804A0912904B0912A04DC
:103E900089839A83AB83BC83BC01CD010E94622AD3
:103EA0006B017C010E94362A6093270470932804DA
:103EB0008093290490932A04A091FE03EEEFF3E08F
:103EC0002A2F30E088248A94982CA12CB12C8C18AD
:103ED0009D08AE08BF08A3132FC02093FE032091B6
:103EE0002B0421113CC020916804A22FA370A98348
:103EF000AA2319F02695269529832091B90122300D
:103F000009F455C070F5211141C01092BA016093B7
:103F1000700470937104809372049093730489E227
:103F2000EEEFF3E0A4E7B4E001900D928A95E1F79B
:103F300081E08093B90117C0418D528D2A01712C07
:103F4000612C84149504A604B70420F421503F5F2B
:103F50003296C1CF4C0D5D1D528F418FF8CF198223
:103F6000CCCF233081F10F900F900F900F90DF9105
:103F7000CF91FF90EF90DF90CF90BF90AF909F9048
:103F80008F907F906F905F904F90089589810E94ED
:103F9000BD1EB981BB2339F38091B901823011F480
:103FA0000E940A1E8AEB91E00E94251FDCCF398116
:103FB0003093BD018091680483708093BE010E949C
:103FC000641D83E0B6CF8091FD0381110E94211D05
:103FD0008091700490917104A0917204B091730467
:103FE000BC01CD010E94622A6031710581059105F5
:103FF00008F4B9CF1092B901B6CFE0917202F091F6
:1040000073020995109274048FEF9FEF90938E04C2
:1040100080938D049093900480938F0490939204E6
:1040200080939104909394048093930490939604C6
:1040300080939504909398048093970490939A04A6
:104040008093990490939C0480939B041092FE03A8
:10405000909318048093170490931A048093190482
:1040600090931C0480931B0490931E0480931D0462
:104070009093200480931F04909322048093210442
:104080009093240480932304909326048093250422
:1040900081E08093FD0348E050E068E170E088E64D
:1040A00094E00E94EE341092FD03809168048C7FAE
:1040B00011F40E942F1D0895CF93C82F882391F0EB
:1040C00080912B0481110EC00E94BD1E1092BD0173
:1040D0008091680483708093BE010E94641D83E018
:1040E0008093B901C0932B04CF910895E8E6F4E0E2
:1040F000908121E0922790831092B9010E941B1DAC
:10410000089581E00E94762008958091680483706C
:1041100011F41092B901809168048C7F81608093C2
:10412000680408950E94852081E00E941B1D089567
:1041300080916804837011F01092B9018091680435
:104140008C7F8093680408950E94982081E00E94EB
:104150001B1D0895282F862F90916804937049F0B5
:10416000211108C09460909368041092B9010E94D4
:104170001B1D0895243010F09C60F5CF220F220FF4
:10418000922BF1CF61E00E94AA200895682F8091C0
:104190006804869586958F5F843008F081E00E94E0
:1041A000AA20089581E00E94C6200895682F90916A
:1041B0006804969596958FEF890F913009F483E006
:1041C0000E94AA20089581E00E94D6200895982F89
:1041D000822F20916804237041F0909369046093CA
:1041E0006A0440936B040E941B1D089520E00E9406
:1041F000E7200895282FE8E6F4E09181892F90E0E8
:104200004381628108960E94E720089581E00E9420
:10421000FA200895282FE8E6F4E081814381628145
:104220008850990B0E94E720089581E00E940A219E
:104230000895282FE8E6F4E0628130E1630F08F486
:104240006FEF8181438190E00E94E720089581E033
:104250000E9419210895282FE8E6F4E0628130E1F8
:10426000631B08F460E08181438190E00E94E720B5
:10427000089581E00E942B210895282FE8E6F4E0BC
:10428000438130E1430F08F44FEF8181628190E078
:104290000E94E720089581E00E943D210895282F83
:1042A000E8E6F4E0438130E1431B08F440E081811B
:1042B000628190E00E94E720089581E00E944F21F2
:1042C000089580936C0481E00E941B1D0895E8E628
:1042D000F4E0248130E1230F08F42FEF24830E94BF
:1042E0001B1D089581E00E9467210895E8E6F4E02F
:1042F000248130E1231B08F420E024830E941B1D4D
:10430000089581E00E947621089510922C0408956A
:10431000CF93DF93DC01FC01EE0FFF1FEF01CA0F0B
:10432000DB1FC356DB4F8981861306C08881841347
:1043300003C08A81821751F081E080932C04EA0F38
:10434000FB1FE356FB4F618340832283DF91CF91B4
:104350000895FF920F931F93CF93DF93182F062F8B
:10436000F42ED0E0C0E02F2D402F612FCE010E940F
:1043700088212196CA32D105B1F7CDB7DEB7E5E085
:104380000C94CA3480912C04882341F06AE270E0D6
:104390008DE994E00E942D2210922C040895FA01D8
:1043A000882311F009950895FB01FCCF1F93CF934B
:1043B000DF93EC01FB011581111110C00E946915FA
:1043C0008272FE01E052F847E531F10508F043C082
:1043D000E25BFA4C0C949B340E948120812FDF9188
:1043E000CF911F91089543EE50E262ED70E20E947A
:1043F000CF21F4CF42ED50E263EE70E2F8CF45E119
:1044000051E266E071E2F3CF46E051E265E171E22C
:10441000EECF49E351E267E271E2E9CF47E251E2D0
:1044200069E371E2E4CF4DE551E26BE471E2DFCF85
:104430004BE451E26DE571E2DACF41E851E262E727
:1044400071E2D5CF42E751E261E871E2D0CF81E07D
:104450000E94C220C3CF11E0C1CF9C01AB01239ABF
:1044600065B1677F75B17860EFB7F894CA01880FBE
:10447000991F840F951F820F931F8217930741F492
:10448000EFBF8FE594E00197F1F700C000000895B9
:10449000D9014D919D0158E075B9000000C047FF5A
:1044A00065B9440F000000C000C000C065B900C07D
:1044B0005A9591F7E2CF0E948D16089580E00E94F0
:1044C000691A817008950E942E1B2FEF86E791E0F4
:1044D000215080409040E1F700C000000E942E1B58
:1044E0000E945E22882321F00E945B220E94A62A5D
:1044F00008950E9463220895CF93DF93EB018631E4
:104500009C4711F50E9469159D81992399F08A7A3B
:1045100091E009F490E090932D04811109C089E2A3
:104520000E940F290E941F1680E0DF91CF9108950D
:1045300085E3F6CF80912D04811104C089E20E94A9
:104540002629F0CF85E3FBCF81E0EFCFCF93DF9338
:10455000EC01FB018581882309F4D2C09E0130570C
:104560002332310508F0B2C00E94A9169093570477
:1045700080935604FE01E150F047E232F10520F449
:10458000ED59FA4C0C949B348091560481608093D1
:10459000560493C0809157048860809357048DC05F
:1045A000809156048260F3CF809156048460EFCFEF
:1045B000809156048860EBCF809157048160EDCFE5
:1045C000809157048260E9CF809156048061DFCFEB
:1045D000809156048062DBCF809156048064D7CFEF
:1045E0000E94BF10809156048068D1CF80915604FC
:1045F0008C60CDCF809157048360CFCF80915604DB
:104600008E7FC5CF80915704877FC7CF8091560496
:104610008D7FBDCF809156048B7FB9CF809156049A
:10462000877FB5CF809157048E7FB7CF8091570495
:104630008D7FB3CF809156048F7EA9CF8091560491
:104640008F7DA5CF809156048F7BA1CF0E94BF1094
:10465000809156048F779BCF80915604837F97CFAC
:10466000809157048C7F99CF8091560482FB9927C3
:1046700090F921E0922790FB82F990FB83F987CF94
:1046800080915704982F909591708E7F892B90FB85
:1046900081F983CF90915604892F8F7B96FF806498
:1046A00076CF0E94BF1090915604892F97FB87F90F
:1046B00080586DCF81E00E94371780915604909109
:1046C00057040E94AE160E94BF1080E0DF91CF9188
:1046D000089580E0F0CF90915604892F8F7E94FF4B
:1046E000806155CF90915604892F8E7F90FF816015
:1046F0004ECF90915704892F877F93FF88604DCFCD
:1047000081E0E4CF282F35EB2303C001112497FF6C
:1047100004C080589109892F089580589F4FFBCF7E
:104720008091340480FF0DC06091C40170E0660F79
:10473000771F6038710570F56115710569F1862F75
:10474000089581FF07C06091C40184E0689FB001B3
:104750001124EFCF6091C40182FD0AC0809133041F
:104760008823A9F02091C3016091C401821710F041
:1047700088E0ECCF869FC001112433E0880F991F99
:104780003A95E1F7622F70E00E944634D2CF68E09C
:1047900070E0D5CF8FE7089581E0089580913404CB
:1047A00080FF0CC06091C00170E0759567957595AC
:1047B00067956115710549F1862F089581FF06C03F
:1047C0006091C00170E075956795F3CF6091C0016D
:1047D00082FD0BC0909132049923A1F06091BF013A
:1047E0008091C001961738F0682F70E0603871052D
:1047F00000F38FE70895899FC001112470E00E94A3
:104800004634F4CF61E070E0D7CF81E00895909115
:10481000370420913804922B20913A04922B209156
:104820003904922B31F098E09093330491E0909307
:1048300032048D3C31F40E9490238195809338049A
:1048400008958E3C19F40E949023F8CF8F3C31F4E8
:104850000E9490238195809337040895803D19F438
:104860000E949023F8CF893D29F40E94CE238093A3
:10487000390408958A3D21F40E94CE238195F7CF13
:104880008B3D31F40E94CE23819580933A040895A4
:104890008C3D19F40E94CE23F8CF9FE2980F9830F8
:1048A00070F4815D990B21E030E001C0220F8A9500
:1048B000EAF780913604822B8093360408958D3D6B
:1048C00031F48091340481608093340408958E3DE6
:1048D00021F4809134048260F7CF8F3DB9F7809145
:1048E00034048460F1CF409137048D3C59F48091B9
:1048F000380487FF0DC01092380441110BC010928C
:10490000330408C08E3C81F48091380418169CF35F
:10491000442381F08091390490913A04892B09F065
:104920005AC01092320408958F3C49F447FFF0CFEB
:1049300010923704809138048111ECCFE0CF803D94
:1049400019F41416ACF3E4CF90913904893D29F49D
:104950001916F4F610923904DBCF8A3D19F497FF4B
:10496000D7CFF8CF90913A048B3D29F497FFD0CF61
:1049700010923A04CDCF8C3D19F41916CCF3C8CF60
:104980009FE2980F983090F4815D990B21E030E020
:10499000B90102C0660F771F8A95E2F7CB018095B7
:1049A00090913604892380933604B2CF8D3D31F443
:1049B000809134048E7F80933404AACF8E3D21F4FD
:1049C000809134048D7FF7CF8F3D09F0A1CF809186
:1049D00034048B7FF0CF08950E942A2A2091370457
:1049E00030913804232B21F08093300490933104CC
:1049F0002091390430913A04232B21F080932E0426
:104A000090932F0485E394E00E940728089586E0A0
:104A1000E5E3F4E0DF011D928A95E9F71092330493
:104A200010923204109234040895FC0182818111A5
:104A30000DC0838181110AC08481811107C081E08A
:104A40009581911101C080E08170089581E0FCCFD3
:104A5000A6E0B0E0EEE2F5E20C94B03486E0E5E3E7
:104A6000F4E0DE01119601900D928A95E1F7109223
:104A70003704109238041092390410923A048B8152
:104A80009C81892B89F080913004909131040E949F
:104A9000532A9C01809133048823C9F19091C50168
:104AA0009217130608F440C08D819E81892B91F0E6
:104AB00080912E0490912F040E94532A9C01809192
:104AC0003204882309F46AC09091C1019217130639
:104AD00008F472C0BE016F5F7F4F85E394E00E94CF
:104AE0005729811105C085E394E00E9415258111A5
:104AF0000E94EC2486E0FE013196A5E3B4E001902B
:104B00000D928A95E1F72696E3E00C94CC3440911F
:104B1000C6019AE0499FA00111244217530720F6CD
:104B20008F5F8093330402C08F3FD1F71B81112325
:104B300059F00E9490239FEF11160CF491E0899F89
:104B4000802D1124809337041C81112359F00E9479
:104B500090239FEF11160CF491E0899F802D112472
:104B60008093380480913704882309F49DCF1091F5
:104B70003804112309F498CF0E948223882351F02E
:104B800080933704812F0E948223882329F0809309
:104B900038048ACF81E0F4CF81E0F9CF4091C2019F
:104BA0009AE0499FA00111244217530708F092CFC1
:104BB0008F5F8093320402C08F3FD1F71D81112394
:104BC00059F00E94CE239FEF11160CF491E0899FBB
:104BD000802D1124809339041E81112359F00E94E5
:104BE000CE239FEF11160CF491E0899F802D1124A4
:104BF00080933A0480913904882309F46BCF109193
:104C00003A04112309F466CF0E948223882351F0CD
:104C100080933904812F0E948223882329F0809376
:104C20003A0458CF81E0F4CF81E0F9CFB0E0A0E0C2
:104C3000ECE1F6E20C94AA34E82FF0E0E457FC4FE4
:104C4000B490282F26952695269530E0F901E45D4D
:104C5000FB4F0491877010E0082E02C01595079550
:104C60000A94E2F701701127F901E45EFB4FE4902A
:104C7000F12C082E02C0F594E7940A94E2F791E033
:104C8000E922FF24F901E45FFB4FC491D0E002C0A8
:104C9000D595C7958A95E2F7C170DD27C62ED12C30
:104CA0000115110549F5E114F10431F086EE0E9479
:104CB000BC0DC601009771F5B6018B2D0E94370E11
:104CC000C601009779F5E114F104A1F5011511056C
:104CD00031F081EE0E94040EC6010097C9F5CD2B7C
:104CE00031F08CE20E944F0EC114D104C9F5CDB74A
:104CF000DEB7E9E00C94C63481EE0E94BC0DC6011B
:104D0000009789F2EFE9FFE03197F1F700C000006A
:104D10000197F6CFEFE9FFE03197F1F700C000000F
:104D20000197C8CFEFE9FFE03197F1F700C000002D
:104D30000197C7CF86EE0E94040EC601009731F29C
:104D4000EFE9FFE03197F1F700C000000197F6CFDF
:104D5000EFE9FFE03197F1F700C000000197BDCF08
:104D60008FE99FE00197F1F700C0000091E0C91AB8
:104D7000D108BACFEF92FF920F931F93CF93DF9397
:104D8000EC01162F0AE08881882309F459C081308C
:104D900009F052C08981813071F47E0182E0E80E11
:104DA000F11C8A810E944F0EE701812F90E000974D
:104DB000D9F52196E8CF823041F47E01E2E0EE0E93
:104DC000F11C8A810E94BC0DEFCF833041F47E013B
:104DD000F2E0EF0EF11C8A810E94040EE5CF8430D0
:104DE00011F02196E2CF2A81229690E080E0AE0178
:104DF0004F5F5F4F2053330B2A30310550F000973F
:104E0000A1F2EFE9FFE03197F1F700C00000019750
:104E1000F6CF089FB001099F700D1124C901860FBC
:104E2000971F2981EA01E3CFEFE9FFE03197F1F71E
:104E300000C000000197BBCF612F0E941626B9CF9A
:104E4000CDB7DEB7E6E00C94C93460E00E94BA2624
:104E50000895B0E0A0E0EFE2F7E20C94A9347C0101
:104E60005B01C42FD22FFC0185818823C9F04093B8
:104E70003D040E942A2A90933C0480933B0480E2E4
:104E80008C0F883040F4C77081E001C0880FCA954C
:104E9000EAF70E94580ECDB7DEB7EAE00C94C534AD
:104EA00010913D04141338C080913B0490913C0450
:104EB0000E94532A6C01B701C5010E94180AC81646
:104EC000D90650F5C0E2CD0F1D17C1F080E2810F69
:104ED000883048F4177081E0012E01C0880F0A94D1
:104EE000EAF70E945F0EC83048F481E09D2F97706A
:104EF00001C0880F9A95EAF70E94580E802F0E94F1
:104F00004F0EC83040F6D77081E001C0880FDA95A7
:104F1000EAF70E945F0EBFCF80E28C0F883008F066
:104F2000BACFC77081E001C0880FCA95EAF7F1CF08
:104F30000F93FC01CB01E851FC47E730F10590F5F8
:104F4000EB57FA4C0C949B3406E221EE41EE6AE1F9
:104F50007CE70E94292780E00F91089507E225EE63
:104F600045EE6BE17CE7F5CF06E221EE40EE68E12D
:104F70007CE7EFCF07E225EE44EE69E17CE7E9CF7D
:104F800006E221EE42EE6CE17CE7E3CF07E225EE9C
:104F900046EE6DE17CE7DDCF08E221E045EE6EE113
:104FA0007CE7D7CFFB018581882319F010923D045F
:104FB000D3CF81E0D1CF90934304809342040895EE
:104FC000E0914204F0914304309729F00190F08180
:104FD000E02D0995089580E00895E0914204F09154
:104FE0004304309721F00280F381E02D0995089564
:104FF000DC01E0914204F0914304309739F086E0FF
:105000008C930480F581E02DCD0109950895DC0194
:10501000E0914204F0914304309739F082E08C93A0
:105020000680F781E02DCD0109950895A3E0B0E059
:10503000ECE1F8E20C94B1349C0180914004909131
:10504000410482179307A1F0309341042093400458
:10505000E0914204F0914304309751F083E089835A
:105060003B832A830084F185E02DCE0101960995CA
:105070002396E2E00C94CD34A3E0B0E0E2E4F8E261
:105080000C94B1349C0180913E0490913F048217AE
:105090009307A1F030933F0420933E04E091420433
:1050A000F0914304309751F084E089833B832A8355
:1050B0000084F185E02DCE01019609952396E2E06A
:1050C0000C94CD342091B7013091B8012E5F3F4F41
:1050D0008091D101882379F08091560487FF0BC01D
:1050E0002091B5013091B6012E5F3F4F9EE180E0E7
:1050F000915018F4089596E0FACFF90141919F017B
:105100004423B1F38F5FF4CF882321F19091D10133
:10511000992311F19091560497FF1EC0E82FE69550
:10512000E695E695803FB0F42091B5013091B60147
:10513000E20FF32FF11D228130E0877041E050E053
:1051400002C0440F551F8A95E2F72423352381E0DE
:10515000232B91F480E008952091B7013091B8019C
:10516000F9013296285F3F4F9191981721F0E2178D
:10517000F307D1F7EFCF81E008959C01FC0132964F
:105180008FEF90E04191461751F08F3F19F4411194
:1051900001C0892F9F5F9630A9F78F3F09F40895CA
:1051A000280F311D87FD3A95F901628308959C010E
:1051B000FC013296285F3F4F8191861303C0DF01C7
:1051C00011971C92E217F307B9F70895E62FE695B9
:1051D000E695E695603F68F4E80FF92FF11D6770DA
:1051E00021E030E001C0220F6A95EAF78281822B2C
:1051F00082830895E62FE695E695E695603F70F484
:10520000E80FF92FF11D677081E090E001C0880F71
:105210006A95EAF780959281892382830895682FA1
:105220008091D101882359F08091560487FF07C0EF
:105230008091B5019091B6010E94E6280895809171
:10524000B7019091B8010E94BD280895682F809100
:10525000D101882359F08091560487FF07C08091BF
:10526000B5019091B6010E94FA2808958091B70186
:105270009091B8010E94D72808958091D101882388
:1052800079F08091560487FF0BC0E091B501F09151
:10529000B60132968EE1DF011D928A95E9F70895F5
:1052A000E091B701F091B801329686E0F4CFDC01CD
:1052B000FB0111969C9111978181981322C012963F
:1052C0008C911297882319F0928189131AC0139632
:1052D0008C911397882319F09381891312C0159626
:1052E0008C911597882319F0958189130AC014961B
:1052F0009C91992321F081E02481291303C080E04F
:1053000001C081E08170089508950E948429089564
:10531000811106C081E0809344040E94852908958C
:1053200082E0F9CF83E0809344040E9485290895A8
:105330000E948829089581E0809344040E94852971
:1053400008950E949B290895089508950E94A52913
:105350000895089508950E94A4290895CF930E9466
:10536000A9290E942E1B0E94AA29C0E08C2F0E940E
:10537000691A892B31F4CF5FC430C1F780E0CF9137
:10538000089581E0FCCF85B7806885BF85B78068C8
:1053900085BF08951F921FB61F9211248F939F936C
:1053A000AF93BF9380914504811113C080911B0579
:1053B00090911C05A0911D05B0911E054196A11D5F
:1053C000B11D80931B0590931C05A0931D05B09300
:1053D0001E05BF91AF919F918F911F901FBE1F908F
:1053E000189580912305843031F10E94040D1092AC
:1053F000450488E190E020E40FB6F894A8958093E6
:1054000060000FBE2093600083B7817F846083BFFC
:1054100083B7816083BF7894889583B78E7F83BF7D
:105420000FB6F894A8958091600088618093600021
:10543000109260000FBE08950E94BF100E940E0DD2
:10544000089582E084BD93E095BD9AEF97BD809367
:105450006E0008952FB7F89480911B0590911C055C
:10546000A0911D05B0911E052FBF0895A4E0B0E0E6
:10547000ECE3FAE20C94B1348FB7F89420911B0559
:1054800030911C0540911D0550911E0529833A83DA
:105490004B835C838FBF69817A818B819C81249649
:1054A000E2E00C94CD349C014FB7F89480911B0539
:1054B00090911C05A0911D05B0911E054FBF821B48
:1054C000930B0895A4E0B0E0E8E6FAE20C94AF3460
:1054D000462F572FBC012FB7F89480911B05909150
:1054E0001C05A0911D05B0911E052FBF8C019D01CB
:1054F000041B150B260B370BC901B8012496E4E0F9
:105500000C94CB3478941F921FB61F9211248F9362
:105510009F93AF93BF9380911B0590911C05A09121
:105520001D05B0911E050196A11DB11D80931B059F
:1055300090931C05A0931D05B0931E05BF91AF91DC
:105540009F918F911F901FBE1F90189581E08093AF
:10555000E00080E28093D8001092C9008FE19EE4C1
:105560000197F1F700C0000087E090EBDC01809329
:105570002C0590932D05A0932E05B0932F0588E15F
:105580009CE00FB6F894A895809360000FBE9093AE
:105590006000FFCF88E19CE00FB6F894A895809357
:1055A00060000FBE90936000FFCF80914E0408957D
:1055B000282FCB01BA01309123053430E1F42F704C
:1055C0002093E9002FEF3091E800215035FD06C00F
:1055D00035ED3A95F1F700002111F5CF2091E80063
:1055E00025FF09C050E040E00E94DD2C8091E800DA
:1055F0008E778093E8000895BC0143E050E082E09C
:105600000E94D82A0895BC0146E050E082E00E9442
:10561000D82A0895BC0140E250E082E00E94D82AD6
:105620000895CF93DF93D82FC92F48E050E0682F1B
:10563000792F81E00E94D82A88E0ED2FFC2FA6E484
:10564000B4E001900D928A95E1F7DF91CF91089532
:1056500080912205811109C00E94652E0E94C22EF0
:105660008091E20084608093E20008951092220508
:1056700008950E949B29089560911F0581E06111A2
:1056800001C080E00E94922908959091230581E055
:10569000943009F080E060911F050E9498290895D8
:1056A00042E061EC81E00E94E12D42E261EC82E0A7
:1056B0000E94E12D9091230581E0943009F080E073
:1056C00060911F050E9488290895809125058930E1
:1056D00089F148F4823009F4A0C0833009F45AC03B
:1056E000813041F008958A3009F487C08B3009F485
:1056F0006CC0089580912405813A09F04AC08091D8
:10570000E800877F8093E800809128059091290523
:10571000892B61F468E086E494E070E00E942C2D0F
:105720008091E8008B778093E800089560E090E036
:1057300080E0F3CF80912405813259F580912805CE
:1057400090912905029728F58091E800877F809342
:10575000E8008091E80082FF18C09091F3008091EA
:10576000F200029731F48091F100813011F086301F
:1057700021F48091F10080934E048091E8008B77B2
:105780008093E8000E94152E04C0809123058111AA
:10579000E0CF089580912405813AD9F780912805BA
:1057A00090912905892BA9F78091E800877F809344
:1057B000E8008091E80080FFFCCF8091D1018093C8
:1057C000F1008091E8008E77DBCF80912405813253
:1057D00001F78091280590912905892BD1F68091B8
:1057E000E800877F8093E8000E94152E80912605AF
:1057F0008093D1010E94BF100895809124058132C9
:1058000041F68091E800877F8093E8000E94152E82
:105810008091270580934F04089580912405813A53
:1058200009F0B7CF8091E800877F8093E8008091EE
:10583000E80080FFFCCF80914F04C1CF84B7877F01
:1058400084BF0FB6F894A89580916000886180931A
:105850006000109260000FBE80E890E00FB6F894F0
:1058600080936100909361000FBE0E94A12908956A
:105870000E94652E0E94C22EE2EEF0E080818460DC
:10588000808378940E944031089587EC91E00E94D3
:10589000DB27089580912305853031F4809123051D
:1058A000853019F00E941C2A08950E94F1298091E8
:1058B0002105882399F30E94AE29882379F30E9459
:1058C000C72C0E94BF10EACF08959A0140912A0583
:1058D00050912B050E946D2C0895AC01CB01D9018C
:1058E000252F332723303105D1F070F421303105D5
:1058F00009F43EC02230310569F48BE390E022E6E2
:1059000034E02D933C93089521323105E9F02232A1
:10591000310521F190E080E030E020E0F2CFCA01D3
:105920009927413059F08230910559F0EEE5F4E0C5
:10593000892B81F7849190E09F01E3CFEAE4F4E0C2
:10594000F9CFECE3F4E0F6CF892BB9F061307105C3
:1059500009F789E090E02DE834E0D3CF892B91F06E
:1059600061307105B9F686EB90E02FEA34E0C9CFDB
:1059700082E190E02DE934E0C4CF89E090E024E7B3
:1059800034E0BFCF84E490E025E635E0BACF80E193
:1059900089BD82E189BD09B400FEFDCF8091D800A8
:1059A0008F7D8093D8008091E00082608093E0003A
:1059B0008091E00081FDFCCF0895AF92BF92CF921D
:1059C000DF92FF920F931F93CF93DF936C01EB0154
:1059D0008A010E94342EF82E811123C00115110571
:1059E00039F0F80180819181C81BD90BC80ED91EEE
:1059F000B12CA12C2097A9F08091E80085FD22C050
:105A00008091E8008E778093E80001151105A1F0E0
:105A1000F80180819181A80EB91EB182A08285E033
:105A2000F82E8F2DDF91CF911F910F91FF90DF9076
:105A3000CF90BF90AF9008950E94342E8823D1F26A
:105A4000F82EEFCFF60181916F018093F10021973D
:105A5000FFEFAF1ABF0ACECFFC01CB0120912A0580
:105A600030912B052617370790F0009729F42091E5
:105A7000E8002E772093E80040E0009751F44111B0
:105A800008C08091E80082FF31C080E00895C9011C
:105A9000F3CF209123052223A9F12530A9F12091EC
:105AA000E80023FD2DC02091E80022FDEACF2091DF
:105AB000E80020FFE2CF3091F3002091F200009740
:105AC00019F02830310558F041E02830310509F04F
:105AD00040E02091E8002E772093E800CECF41915E
