:100000000C94F9020C9431030C9431030C943103D9
:100010000C9431030C9431030C9431030C94310390
:100020000C9431030C9431030C947E2A0C94502BC5
:100030000C946A250C9431030C9431030C94310315
:100040000C9431030C9431030C9431030C94310360
:100050000C9431030C940F260C9431030C9431034F
:100060000C9431030C9431030C9431030C94310340
:100070000C9431030C9431030C9431030C94310330
:100080000C9431030C9431030C9431030C94310320
:100090000C9431030C9431030C9431030C94310310
:1000A0000C9431030C9431030C943103EB0AEB0AEA
:1000B000170B170B780B960B850C850C9B0B110CF3
:1000C000220C220CA620A920AE20B520BA20BF20E9
:1000D000C420C920CE20D320D820DD20E020E0207D
:1000E000E020E020E020E020E020E020E020662189
:1000F000D8216E2138213C2172213F217521802198
:100100004A21CE214E21842152218821B22156211B
:100110008C21BC215C2192219C2143217921462103
:100120007C2161219721A821C821CA2134216A217B
:10013000E1217D2383237123772389238F23952333
:10014000B82BDF2BD72CDF2BD72C2B2C4E2CD72CDE
:10015000A52CB42C290014001A0008001500170063
:100160001C0018000C00120013002E002B000400CD
:100170001600070009000A000B000D000E000F001A
:1001800000002800E1001D001B000600190005000A
:10019000110010003600000037004C00E000E300C2
:1001A000E2002C41000000002C420000000038005A
:1001B0002D002D0201004A0052004D002F0030009A
:1001C0000100010024023102417E010001005000C3
:1001D00051004F00260227020100010033003400C5
:1001E00000002A0001001D011B0106011901010088
:1001F00001000100010000000100010001000100F8
:1002000001000100000000002C430000000001007C
:100210000100010001001E001F002000210022003B
:1002200023002400250026002700010027002100CC
:10023000220023000100010001000100330034000E
:1002400000002A0001002400250026000100010012
:100250000100010001000000010001000100010097
:1002600001002C430000000001000000000001001C
:10027000010001005F7ED100CD00D2003A003B00BA
:100280003C000100010028782778007C0100CF00A5
:10029000CE00D0003D003E003F00010024782378CE
:1002A0000000007E0100D900D300DA0040004100C8
:1002B000420043004400000045000100010001002D
:1002C0000100010000000000010000000000597E54
:1002D0005A7E2078000101010101010101010202A1
:1002E00002020202020202030303030303030304E4
:1002F00004040404040405050505050606060606AF
:10030000070707070708080808090909090A0A0A68
:100310000B0B0B0C0C0C0D0D0D0E0E0E0F0F0F100A
:100320001011111112121313141415151616171794
:10033000181819191A1A1B1B1C1D1D1E1E1F202000
:10034000212222232424252626272829292A2B2C4A
:100350002D2D2E2F30313232333435363738393A6D
:100360003B3C3D3E3F404142434445464748494A65
:100370004C4D4E4F50515354555658595A5B5D5E33
:100380005F616264656668696B6C6D6F70727375CE
:1003900077787A7B7D7E8082838587888A8C8E8F32
:1003A00091939596989A9C9EA0A2A3A5A7A9ABAD60
:1003B000AFB1B3B5B7BABCBEC0C2C4C6C9CBCDCF4E
:1003C000D1D4D6D8DBDDDFE2E4E7E9EBEEF0F3F5FC
:1003D000F8FAFDFF00000000000000002A2B2800B2
:1003E00000000000000000000000000000000029E4
:1003F000000000002C1E3420212224342627252E24
:10040000362D3738271E1F2021222324252633335B
:10041000362E37381F0405060708090A0B0C0D0E87
:100420000F101112131415161718191A1B1C1D2F53
:100430003130232D350405060708090A0B0C0D0E73
:100440000F101112131415161718191A1B1C1D2F33
:100450003130354C000000000000000000000000BA
:10046000000000000000000000000000000000008C
:1004700000000000000000007E0F00D4FFFFFFC757
:10048000000000780C034600650062003400300074
:1004900000001203660065006200720065006500DE
:1004A0007A00650000000403090409023B00020110
:1004B00000A0FA0904000001030101000921110153
:1004C000000122440007058103080001090401001E
:1004D000010300000009211101000122B6000705F7
:1004E000820320000112010002000000086469423A
:1004F0000000010102000105010902A101850209B4
:1005000001A10005091901290815002501950875A3
:100510000181020501093009311581257F95027598
:1005200008810609381581257F9501750881060522
:100530000C0A38021581257F950175088106C0C017
:1005400005010980A101850319012AB700150126BB
:10055000B700950175108100C0050C0901A1018546
:100560000419012AA002150126A002950175108127
:1005700000C005010906A1018506050719E029E764
:10058000150025019508750181020507190029EF5D
:100590001500250195F0750181020508190129054D
:1005A000950575019102950175039101C005010939
:1005B00006A101050719E029E71500250195087531
:1005C0000181029501750881010507190029FF15B0
:1005D0000026FF0095067508810005081901290508
:1005E000150025019505750191029501750391018D
:1005F000C00011241FBECFEFDAE0DEBFCDBF04B6CE
:1006000003FE18C08091FC049091FD04A091FE04AB
:10061000B091FF048730904BA740B04B59F4109233
:10062000FC041092FD041092FE041092FF04E0E01E
:10063000F8E3099512E0A0E0B1E0E8EDF1E602C0D0
:1006400005900D92AE35B107D9F724E0AEE5B2E0E2
:1006500001C01D92AC3FB207E1F70E9425180C942F
:10066000EA300C940000CF930E94CD11C82F0E9455
:10067000E311C82B0E94F6118C2BCF910895CF93D4
:10068000C82F0E94EC118C2F0E940C128C2F0E94FC
:10069000D611CF910895A5E0B0E0E1E5F3E00C9428
:1006A0005B3091E0811190E0998321E0982F917166
:1006B00009F420E02A8321E0982F947409F420E0C3
:1006C0002B8321E0982F987809F420E02C83827204
:1006D00061E009F460E029813A814B815C8170E03E
:1006E00080E090E02596E2E00C9477308F359E47CD
:1006F00079F4FB018581882361F09091F3029F5F7B
:10070000923018F49093F30208951092F302089532
:1007100080E00895A0E0B0E0E0E9F3E00C9455300B
:100720002091F0023091F1022115310511F4C0E061
:1007300023C06A01D62F7C01C9010E94BE078C012B
:100740000097A9F3FC018081882389F3F601C58114
:10075000CC2369F38FEF0E943F03C7010E94410839
:100760008091F0029091F1020E944108C8010E941C
:10077000BE228D2F0E94DD118C2FCDB7DEB7E8E0B1
:100780000C9471300F931F93CF93DF93A091F002DD
:10079000B091F102109709F445C0FA01062F41818A
:1007A00050E0208130E0E581B901660F771F260F08
:1007B000371FEE2319F164E2649FE001659FD00DBD
:1007C00011242C0F3D1FE901C05ADD4F2881211152
:1007D00029C01091F202112331F121E02883BA835C
:1007E000A9830E9441088FEF0E943F0389819A816B
:1007F0000E942A08802F0E94DD1115C084E2849F88
:10080000F001859FF00D11242E0F3F1FF901E05AD2
:10081000FD4F1081112339F01082818192810E9455
:10082000410801C010E0812FDF91CF911F910F91FE
:1008300008958F929F92BF92CF92DF92EF92FF9294
:100840000F931F93CF93DF9300D000D01F92CDB7AB
:10085000DEB77C016B010E947603811157C09701BE
:1008600030522115304328F4F6019681907F09F427
:100870004EC01092F202F092F102E092F0020E9459
:100880003303B82E0E944B0329833A834B835C8346
:100890006D838091F0029091F1020E94E2064C017A
:1008A000009721F09093F1028093F0020091F302FF
:1008B000002E000C110B29813A814B815C816D81E6
:1008C0008091F0029091F1020E94A3079C01009791
:1008D00021F09093F1028093F002892831F491E0A5
:1008E000232B09F490E0892F01C081E0817080936F
:1008F000F202A6016B2DC7010E948A03811107C075
:10090000A6016B2DC7010E94C20301C080E00F90B9
:100910000F900F900F900F90DF91CF911F910F913B
:10092000FF90EF90DF90CF90BF909F908F900895B1
:100930004F925F926F927F928F929F92AF92BF92EF
:10094000CF92DF92EF92FF92CF93DF93CDB7DEB7D6
:1009500028970FB6F894DEBF0FBECDBFE62EF42E5B
:10096000682F70E080E090E00E941A2E20E030E0D6
:100970004FE753E40E94772D4B015C016E2D70E030
:1009800080E090E00E941A2E20E030E04FE753E430
:100990000E94772D2B013C016F2D70E080E090E0EC
:1009A0000E941A2E20E030E04FE753E40E94772D9A
:1009B0006D837E838F8398879B01AC01C301B20155
:1009C0000E94552E9B01AC01C501B4010E94552E19
:1009D0006B017C012D813E814F815885C301B2019D
:1009E0000E94742E9B01AC01C501B4010E94742EBB
:1009F0009B01AC01C701B6010E94052D69837A8372
:100A00008B839C8320E030E0A9010E94722D882313
:100A100009F461C0A7019601C501B4010E94722DBD
:100A2000811115C02D813E814F815885C301B201CE
:100A30000E94052D29813A814B815C810E94772D8E
:100A400020E030E040EC50E40E949E2E3BC0A70125
:100A50009601C301B2010E94722D811113C0A5013C
:100A600094016D817E818F8198850E94052D298159
:100A70003A814B815C810E94772D20E030E040E09C
:100A800050E41AC0A70196016D817E818F819885FF
:100A90000E94722D811113C0A3019201C501B401FE
:100AA0000E94052D29813A814B815C810E94772D1E
:100AB00020E030E040E850E40E94062D03C060E0F2
:100AC00070E0CB0120E030E040E752E40E946F2F5D
:100AD0004B015C0103C0812C912C540120E030E0DB
:100AE000A901C701B6010E94722D882359F0A70100
:100AF000960169817A818B819C810E94772D2B01DF
:100B00003C0103C0412C512C320120E030E04FE782
:100B100053E4C501B4010E946F2F20E030E044EBA4
:100B200053E40E94772D0E94E92DA62E20E030E0AC
:100B30004FE753E4C301B2010E946F2F0E94E92DD9
:100B4000B62E20E030E04FE753E4C701B6010E9423
:100B50006F2F0E94E92D862FB50128960FB6F894C5
:100B6000DEBF0FBECDBFDF91CF91FF90EF90DF9042
:100B7000CF90BF90AF909F908F907F906F905F903D
:100B80004F9008958093F7026093F6024093F50228
:100B90000E949804962F672F482F892F90E00E947B
:100BA000A11F089580E40E941B200E944F1F0E94F5
:100BB0003D1F8091F802882311F083E001C082E09C
:100BC0000E946C1F80E00E94850D83E00E94850DCD
:100BD00008958091AE01882391F08091F8028823D6
:100BE00021F020E040E060E006C02091F502409155
:100BF000F6026091F70288E190E00E94131C81E008
:100C00000895823059F0833031F0813059F44AE44C
:100C10006FEF83E011C040E06FE60AC04FEF6BE377
:100C200085E00AC08091F3024FEF813019F46FEF35
:100C30008FEF02C060E088E80E94C20508950F931C
:100C40001F93CF938C010E944309C82F8091F40217
:100C5000C81729F08C2F0E940106C093F402C80126
:100C6000CF911F910F91089580E00E9401060E948C
:100C7000D20580E00E94850D0895CF93FB01C581C8
:100C8000CC23D9F09C0129553E472230310560F430
:100C900089359E4759F49091F80281E08927809325
:100CA000F8020E94D20509C0C0E007C09091AE01D1
:100CB00081E089278093AE01F4CF8C2FCF910895E6
:100CC000FB012581AC014B7F823E910519F42093F5
:100CD000F90205C0433E510511F42093FA02403E4B
:100CE000510511F42093FB023091F902222399F06F
:100CF00031112AC02091FA02211126C02091FB0255
:100D00008B9721F5222311F181E00E94850D81E06E
:100D10008093FC020895311109C08091FA0281117B
:100D200005C09091FB0281E0892702C080E090E03D
:100D30002091FC02222351F080FF08C080E00E9435
:100D4000850D1092FC0208958B97F1F208950E9490
:100D5000340608950F931F93CF93DF939C013D7F3B
:100D60002C323144C9F08C3222E49207A9F081156B
:100D70004CE7940789F08B01EC010E946006B801F2
:100D8000CE010E943D06811109C0B801CE010E942A
:100D9000190491E0892703C081E001C080E0DF9160
:100DA000CF911F910F9108958C3222E4920739F070
:100DB0009D7F8C32914419F088EC90E008958DE786
:100DC00090E00895A5E0B0E0E8EEF6E00C945B302A
:100DD00029833A838932910541F44111A5C06623E4
:100DE00009F4ABC085E390E0AAC08832910531F4E4
:100DF000662309F4A2C08AE290E0A1C081152EE723
:100E0000920709F494C02A818433910549F4611151
:100E100091C08981882309F490C084E392E08FC057
:100E20008D3232E0930731F4662309F486C08DE2F7
:100E300092E085C08E32910531F4662309F47DC0BD
:100E40008EE290E07CC08F32910531F4662309F484
:100E500074C086E392E073C08033910531F4662359
:100E600009F46BC087E392E06AC0863232E09307F0
:100E700031F4662309F461C08FE292E060C08732EA
:100E800032E0930731F4662309F457C080E392E01F
:100E900056C0843232E0930731F4662309F44DC022
:100EA00080E49EE74CC0813332E0930731F466233F
:100EB00009F443C08FE19EE742C08633910529F4CF
:100EC0006623D9F18EE192E03AC08733910529F487
:100ED000662399F188E392E032C08833910529F4C2
:100EE000662359F181E390E02AC08A34910529F400
:100EF000222319F18BE490E022C08D34910529F46E
:100F00002223D9F08EE490E01AC08632910529F4AC
:100F1000662399F085E392E012C08D9771F4662301
:100F200061F087E590E00BC08BE290E008C088E2BA
:100F300092E105C084E390E002C080E090E0259655
:100F4000E2E00C947730A5E0B0E0E9EAF7E00C9439
:100F500059300130110561F4833E910531F0823E34
:100F6000910531F48EE690E005C08DE690E002C078
:100F700080E090E02596E4E00C9475308F312EE708
:100F8000920751F080342EE7920749F081349E4752
:100F900049F080ED91E008958BEC91E008958EEC9E
:100FA00091E0089581ED91E008958430B0F46430CB
:100FB000A0F44C3090F490E3899FF00111248CE070
:100FC000689FE00DF11D1124E40FF11DEE0FFF1FCE
:100FD000EC5AFE4F85919491089581E090E0089538
:100FE0000E94D50708959C013A9521153F4130F59F
:100FF000BC0166277270AC01442754709C01222703
:10100000387094FF0FC090FF02C080E101C080E003
:10101000672B09F08062452B09F08064232B79F05F
:1010200080680895892F8170672B09F08260452BB5
:1010300009F08460232B19F08860089580E00895FA
:10104000CF93DF93EB010E94F307FE010995DF9137
:10105000CF910895CF93DF93EC01805E91090897BB
:1010600010F0209719F46EE97AE002C060EE7CE09F
:10107000CE010E9420088C2F0E94EE09DF91CF91B3
:101080000895CF93DF93EC010E94440ACE01805E65
:101090009109089710F0209719F465EA7AE002C0E8
:1010A00067EE7CE0CE010E942008DF91CF91089589
:1010B00081E0089581E008950E945A0808950E94F1
:1010C0005C0808950E94AA06089508950E94650884
:1010D0000895A6E0B0E0EFE6F8E00C945A304983BA
:1010E0005A839E833091020389819A81311115C000
:1010F0003E81332359F0222349F00E94550E182FC8
:10110000682F89819A810E94310E03C00E94430E8C
:10111000182F69817A81812F04C00E94550E698140
:101120007A810E9493152696E3E00C947630FC01B8
:10113000262F4081518162817381848195810E9433
:1011400069080895CF93DF93EC0161E00E9497084E
:10115000BE010E945F08DF91CF910895CF93DF9386
:10116000EC0160E00E949708BE010E946608DF91D2
:10117000CF91089508950E94080D0E94BA082FEF9C
:1011800084E39CE0215080409040E1F700C00000E3
:1011900008950E94BB080E94352608950E94BB084E
:1011A0000E94592608950F931F93CF93DF938C01CC
:1011B00061E00E949708EC01B8010E946208882350
:1011C00009F449C0B801CE010E946523882309F4BF
:1011D00042C0B801CE010E9410218823E1F1B8017C
:1011E000CE010E94C2228823B1F1B801CE010E9433
:1011F0008F20882381F1F8018581882341F1C33054
:101200008CE7D807D1F040F4C115FCE7DF0791F077
:10121000C130DC47A1F01BC0CB35ECE7DE07A9F0FD
:10122000CC35FCE7DF0771F0CA35DC4781F40E945A
:10123000CC120DC00E94C9080EC00E94D4120E9498
:10124000CE0809C00E94C21202C00E94D012C8017A
:101250000E94580801C080E0DF91CF911F910F914B
:1012600008950E9442250E940E1E0E94860981E078
:101270000E94071F08950E948A0980E00E94071FAC
:101280000E944B250895292F33272115310519F088
:10129000C90148E001C040E09C0164E03695279513
:1012A0006A95E1F72115310511F04C5FC9019C01E8
:1012B00036952795369527952115310511F04E5F06
:1012C000C9019C0136952795232B09F04F5F842F88
:1012D0000895089581E008950895CF93DF93D82F5E
:1012E0000E946A09C82F882319F08D2F0E946C096B
:1012F0008C2FDF91CF9108950895CF93C82F0E942E
:1013000069098C2F0E946D09CF91089580E00E9499
:101310007D0908950E94AD230E947D090895CF9311
:101320000E94AD23C82F8091FD02C81779F0C093A9
:10133000FD020E94D8256093FE027093FF02809305
:101340000003909301038C2F0E947D09CF91089593
:10135000ADE0B0E0EEEAF9E00C945B3048875987E5
:101360006A877B878C879D8791110E94F311CE013C
:10137000019627E0FC0111922A95E9F726E0FE018B
:101380003896DC0101900D922A95E1F72D8121110B
:101390000AC029813A814B815C816D817E818F8178
:1013A0000E94371104C00E94A2088111F2CF2D962D
:1013B000E2E00C947730FC012481213021F480811B
:1013C00091810E94870E0895662319F00E94BD182E
:1013D00002C00E9418190E948F190895CF93882384
:1013E00009F450C0C82F8CEF8C0F813AD0F46C2FC9
:1013F0008091AF019091B0010E944224882349F06E
:101400006C2F8091AF019091B0010E94D0240E9476
:1014100022126C2F8091AF019091B0010E94C224E2
:101420000CC080E28C0F883058F4C77081E001C096
:10143000880FCA95EAF70E94D0110E94221222C09A
:10144000EBE5EC0FE33040F4F0E0E65FFD4F808128
:1014500090E00E94E22316C0E8E5EC0FEB3150F477
:10146000F0E0EE0FFF1FEC52FE4F808191810E9451
:10147000072408C083E38C0F833120F461E08C2FB4
:101480000E94E409CF9108958823A9F19CEF980F59
:10149000913A40F4682F8091AF019091B0010E9481
:1014A000D0240DC090E2980F983060F4877091E0DE
:1014B00001C0990F8A95EAF7892F0E94D6110E94E0
:1014C000221208959BE5980F933028F480E090E075
:1014D0000E94E223089598E5980F9B3128F480E05C
:1014E00090E00E940724089593E3980F933118F435
:1014F00060E00E94E40908951F93CF93DF93182FB3
:10150000EB010E94EE09209741F08FE99FE00197DF
:10151000F1F700C000002197F6CF812F0E94440A06
:10152000DF91CF911F910895893319F060E070E049
:1015300002C060E570E00E947C0A0895882321F0D3
:101540000E94D0110E9422120895882321F00E9447
:10155000D6110E9422120895A0E0B0E0E2EBFAE07A
:101560000C9455307C01162FC72FFC01D5810681C4
:1015700002950F700E94C6118823E9F0DD23D9F08F
:101580008C2F807F803451F080E2810F883098F07A
:10159000011104C08C2F807E803269F08091270475
:1015A00082FF09C082E00E9496120E94C61191E05B
:1015B000D82ED92601C0D12CCC2EC2948FE0C822BF
:1015C0008C2D90E08C30910508F09FC1FC01EA5A07
:1015D000FF4F0C9445308C2F807FCF70882311F003
:1015E000C295C07FDD2399F0CC2309F47AC180E253
:1015F000810F883010F0111104C08C2F0E94D0117F
:1016000003C08C2F0E94E6110E9422126AC1812F12
:101610000E94440ACC2309F478C180E2810F88300B
:1016200038F1112329F18C2F0E94EC1124C08C2F4A
:10163000807FCF70803211F0C295C07F112319F0E6
:10164000113099F13CC08091270482FD17C0DD2341
:1016500049F0CC2329F08C2F0E94D0110E94221235
:1016600080E040C180E00E94440ACC2309F44DC1CF
:101670008C2F0E94D6110E94221247C1DD2349F00F
:10168000002309F1013009F040C18C2F0E940012A3
:101690003CC101113AC18C2F0E94A50A8C2F0E94D7
:1016A0000C128C2F0E94691230C1DD2321F006300C
:1016B00008F02BC108C0053008F027C115C0DD2394
:1016C00031F001110EC18C2F0E949E0A1EC1002311
:1016D00059F0193309F016C1FFEF27EE83E0F150FE
:1016E00020408040E1F70CC18C2F0E94A50A0DC15B
:1016F0008C2F86958695837019F0813061F005C135
:10170000DD2321F0812F9C2F937002C080E090E0B8
:101710000E94E22302C1DD2321F0812F9C2F9370D0
:1017200002C080E090E00E940724F7C06D2F812F57
:101730000E94E409F2C08C2F8370B1F5D111E9C089
:10174000412F429546954770440F440F812F8F706B
:1017500090E09C01042E02C0220F331F0A94E2F78E
:1017600014FF0AC08FE090E002C0880F991F4A95CD
:10177000E2F78095909502C080E090E0C695C6950E
:10178000C370822B932BC23049F058F4C13019F04A
:101790000E94640DBEC00E945B0DBBC00E946D0D17
:1017A000B8C00E94580DB5C0DD2319F08C2F817090
:1017B00001C08695882309F4ACC0412F4295469517
:1017C0004770440F440F812F8F7090E09C01042ECE
:1017D00002C0220F331F0A94E2F714FF0AC08FE001
:1017E00090E002C0880F991F4A95E2F78095909586
:1017F00002C080E090E0C695C695C370822B932B03
:10180000C23049F058F4C13019F00E94CC0D81C0AB
:101810000E94C30D7EC00E94D50D7BC00E94790D31
:1018200078C0CF70DD2339F08C2F0E94910D812F6D
:101830000E949E0A6EC0812F0E94A50A8C2F0E94D2
:10184000A10D67C0123F21F128F4103F41F0113F74
:10185000C1F043C0133F19F1143F79F03EC0DD23BE
:1018600041F0053008F051C08C2F8F710E94B30DEC
:101870004CC0063008F049C0F7CF8091270482FDA4
:1018800018C0DD2339F08C2F8F710E94910D3DC05F
:10189000DD23C9F38C2F8F710E94A10D36C0DD238B
:1018A00029F08C2F8F710E94850D2FC00E94800D12
:1018B0002CC0DD2349F0CF718C2F0E94910D63E085
:1018C0008C2F0E94781221C081E00E949612023073
:1018D000E0F082E00E94961218C0DD2331F0002370
:1018E00091F2812F0E94EE0910C0002399F2193362
:1018F00049F49FEFE7EEF3E09150E040F040E1F76C
:1019000000C00000812F0E94440A88EF8C0D8430B3
:1019100020F40E94AD230E947D09DD2089F00E9401
:10192000C21180FD0DC0F70115820E94BC110E94FA
:10193000910DC7010E94BD0C0E94BC110E94A10D17
:10194000CDB7DEB7E8E00C9471300F931F93CF93BF
:10195000DF93EC01688179818D810E94920E8C0168
:101960000E94DE0D0E94490DB801CE010E94AC0A12
:10197000DF91CF911F910F910895CF93DF93FC01D9
:1019800024812223D1F0EC010E94D30881110FC0E1
:101990000E94C611882389F08D81882371F080917F
:1019A000270482FF0AC082E00E94961206C0CE0180
:1019B0000E94A50CCE010E94AE08DF91CF91089540
:1019C000882321F00E94E6110E94221208958823A4
:1019D00021F00E94EC110E942212089580E090E014
:1019E0000E94E22380E090E00E9407240E94F3110D
:1019F0000E9422120E94AE190E948F1908958091B0
:101A0000AF019091B0010E94DE240E94EE0C089577
:101A10000E94E0110E94FF0C089592959F709630ED
:101A200079F010F4925001C09A50923068F4803FDF
:101A300069F018F4883E40F409C0843F29F406C0D8
:101A4000883E20F0813F11F080E0089581E0089504
:101A5000FC012481222339F0808191810E94870E2C
:101A60000E940D0D089580E00895A6E0B0E0EBE33C
:101A7000FDE00C945B302696E2E00C947730A7E012
:101A8000B0E0E5E4FDE00C945B302796E2E00C94D6
:101A90007730089508950E944A0D08950E944B0DD5
:101AA00008950E944E0D90931E0380931D03089588
:101AB0000E94510D089520911D0330911E03822B29
:101AC000932B0E94510D089520911D0330911E0308
:101AD000822393230E94510D089520911D0330917C
:101AE0001E03822793270E94510D08950E941F060E
:101AF00008950E94760D90931C0380931B03089514
:101B000080E090E00E94790D089521E030E0A90185
:101B100002C0440F551F8A95E2F7CA010E94790D51
:101B2000089521E030E002C0220F331F8A95E2F7CA
:101B300080911B0390911C03822B932B0E94790DA3
:101B4000089521E030E002C0220F331F8A95E2F7AA
:101B50002095309580911B0390911C038223932341
:101B60000E94790D089521E030E002C0220F331F5A
:101B70008A95E2F780911B0390911C03822793279B
:101B80000E94790D089520911B0330911C03822B34
:101B9000932B0E94790D089520911B0330911C0313
:101BA000822393230E94790D089520911B03309185
:101BB0001C03822793270E94790D08950895962F7C
:101BC0009770A1E001C0AA0F9A95EAF793E0769585
:101BD00067959A95E1F7660F771F660F771FFA01F1
:101BE000E60FF71F40E050E0682F70E090819B0106
:101BF000042E02C0369527950A94E2F721702195AC
:101C000029272A23292721934F5F5F4F443051050D
:101C100069F70895FB01782F777023E096958795F3
:101C20002A95E1F7880F991F880F991FE80FF91F70
:101C300040E050E080E0219130E0072E02C0369570
:101C400027950A94E2F721703327042E01C0220F52
:101C50000A94EAF7822B4F5F5F4F4430510559F7E2
:101C60000895282F943070F48C3060F4862F622F02
:101C700070E02CE0929F600D711D112443E053E051
:101C80000E94DF0D0895943070F48C3060F4292F99
:101C900090E063E073E03CE0239F800D911D1124F0
:101CA0000E940A0E089580E00895A0E0B0E0EBE500
:101CB000FEE00C9454307C0100911B0310911C0336
:101CC00080911D0390911E03082B192BCFE0D0E0CB
:101CD000CC24C394D12CC6010C2E02C0880F991FAE
:101CE0000A94E2F780239123892B21F4219798F716
:101CF000B12C07C0BC2EB7018C2F0E949F150197F5
:101D0000A9F38B2DCDB7DEB7E9E00C947030CF93FB
:101D1000DF93EC010E94550EBE010E949F15DF91DA
:101D2000CF9108951F93CF93DF93EB01909102031E
:101D3000992321F0CB010E94870E13C0882349F01C
:101D4000CB010E94550E182F682FCE010E94310E34
:101D500004C0CB010E94430E182FBE01812F0E94A8
:101D60009F15DF91CF911F9108951F93CF93DF931C
:101D7000C0911F0317E080912003C817A1F0D0E0A5
:101D80001C9FF0011D9FF00D1124EF5DFC4F208181
:101D90003181428153816481758186810E943F0D2A
:101DA0002196C770E8CFDF91CF911F9108952091C0
:101DB000590330915A0340915B0350915C03609149
:101DC0005D0370915E0380915F030E943F0D089553
:101DD00020911F039091200357E02917A9F030E0CC
:101DE000529FF001539FF00D1124EF5DFC4F718164
:101DF000761306C07081781303C07581741306C012
:101E00002F5F3F4F2770E9CF80E0089581E008956C
:101E1000A0E0B0E0EEE0FFE00C94563080915F036C
:101E200082958F7009F052C080915E03882309F477
:101E30004DC0C0911F0387E0D82E80912003C817A2
:101E400009F444C0D0E0DC9E8001DD9E100D112419
:101E5000F801EF5DFC4F84818823A9F19181809185
:101E60005A03981330C090818091590398132BC066
:101E70008581811128C0E280F38080915B0390917D
:101E80005C03E81AF90A60E089E593E00E9497088C
:101E900069E573E00E94D406E816F906A0F4809183
:101EA0005F038F70806180935F03F801E95DFC4FF1
:101EB00080818F708061808389E593E00E94BD0CF2
:101EC0000E94B50E03C02196C770B7CFCDB7DEB75D
:101ED000E7E00C947230A4E1B0E0E1E7FFE00C949D
:101EE0004E308C0186E0F801DE011F9601900D92C4
:101EF0008A95E1F7F8017480E58089E5A82E83E0F2
:101F0000B82E80915D0381111CC0772009F44EC06A
:101F1000EE2009F448C0C8010E94280DF82E88233D
:101F200009F441C087E0F801A9E5B3E001900D9202
:101F30008A95E1F789E593E00E94DB090E94080F8A
:101F40008DC1F80150806180C280D380F0905E0323
:101F500080915B0390915C034601881A990A60E0C6
:101F600089E593E0FF2009F407C10E94970869E51D
:101F700073E00E94D4068816990608F0A6C0772060
:101F8000A9F080915F03382F307F20915A03F80128
:101F90009181332371F0291709F465C0C8010E94AB
:101FA000280D811169C0C8010E94BD0CFF24F39463
:101FB00059C1291316C0209159039081291311C0CA
:101FC000E1100FC08F70806180935F030E94D70E75
:101FD00089E593E00E94BD0C80915F03F801868340
:101FE00040C1E1103AC040E0662D852D0E94E80E08
:101FF00040E0662D852D0E94E80EE82E811131C14A
:102000005F86688A8F8598890E94870E292F22957E
:102010002F70243020F49F70223028F009C02A50FD
:10202000223080F014C0992349F0811107C013C0F9
:10203000992321F0F8019681907F69F0805E8830C5
:1020400030F409C0803F38F0815F833020F0C80150
:102050000E94BD0CEF2CFE2C05C180915F038160B6
:1020600080935F03FEC020915903F80190812913EA
:1020700095CFE11093CFBFC0EE2009F494CF20910B
:102080005F03822F82958F7090E002978CF0809191
:10209000590390915A0399878887DB86CA86809175
:1020A0005D038C871D862E87CE0108960E94BD0C8D
:1020B00087E0F801A9E5B3E001900D928A95E1F778
:1020C0000E94080F0E94D70E71CF80915F03982F56
:1020D000907FB1F46C2DDA8AC98A452D562D7A8904
:1020E000872D9E2D0E94350D89E593E00E94BD0C41
:1020F00087E0F50111928A95E9F70E94D70EB1C0E9
:10210000772009F453CF20915A03F80191812913C4
:1021100011C020915903908129130CC0E1100AC00D
:102120008683C8010E94BD0C87E0F50111928A9553
:10213000E9F798C0C8010E94280D882309F433CF1D
:10214000EE2009F430CF20915F03822F82958F70AB
:1021500090E002970CF4ACCF8091590390915A0310
:102160009A838983DC82CB8280915D038D831E827A
:102170002F83CE0101969ACF0E94970869E573E0FC
:102180000E94D4068816990608F059C0772009F4F1
:102190000DCFFE2CEE2009F406CF90915A03F801E2
:1021A000818198133EC0909159038081981339C062
:1021B00080915B0390915C03C81AD90AF8ECCF16A2
:1021C000D10430F580915F0380FD22C082958F702D
:1021D000482F50E041155105D9F020915F03F801D7
:1021E00026834F30510541F08F5F982F9295907F55
:1021F000822F8F70892B8683C8010E94BD0C87E0D7
:10220000F801A9E5B3E001900D928A95E1F726C0A7
:1022100087E0F801A9E5B3E001900D928A95E1F716
:1022200021C0C8010E94280D811142CF80915F0317
:10223000816080935F03C8010E94BD0C13C06C2DA8
:10224000DA8AC98A452D562D7A89872D9E2D0E94BE
:10225000350D87E0F50111928A95E9F70E94D70EB6
:1022600001C0F12C8F2D6496EFE00C946A30AEE043
:10227000B0E0EDE3F1E10C945A30288739874A87C2
:102280005B876C877D878E87CE0108960E946B0FD7
:10229000882361F06C856623A9F1288539854A85F4
:1022A0005B857D858E850E943F0D2CC087E0FE01F9
:1022B0003896DE01119601900D928A95E1F76C85B2
:1022C000662301F12091200330E0C9010196877057
:1022D000992740911F0350E084179507E1F16D8322
:1022E00097E0929FD001939FB00D1124AF5DBC4F3A
:1022F000FE01319601900D929A95E1F780932003AB
:102300000E94B50E17E080911F039091200389175A
:1023100079F1189FC00111248F5D9C4F0E946B0FB3
:10232000882331F1E0911F031E9FF0011124EF5D1E
:10233000FC4F208131814281538164817581868186
:102340000E943F0D80911F0390E0019687709927AE
:1023500080931F03D8CF0E94080D10922003109283
:102360001F03E9E5F3E087E0DF011D928A95E9F7B5
:102370002E96E3E00C9476308091800386958695C6
:1023800086950895809180038770089590918003C9
:10239000977081E009F480E008958091A403089586
:1023A0009091A403892B8093A40308958095909124
:1023B000A40389238093A40308958093A40308951C
:1023C0001092A40308958091A30308959091A3030C
:1023D000892B8093A303089580959091A30389236B
:1023E0008093A30308951092A3030895809182031C
:1023F000089508950E94F91108950E94FA11089510
:1024000090918203292F2823821729F0982B9093EB
:1024100082030E94FD11089590918203292F2823A1
:1024200031F080958923809382030E94FD110895E5
:1024300080918203882329F01092820380E00E9419
:10244000FD110895CF93DF93E091AF01F091B001BA
:102450008091A4038083E091AF01F091B00190815D
:102460008091A303892B808380918203882381F04C
:10247000E091AF01F091B0019081892B8083809130
:10248000AF019091B0010E942C2481110E9418127A
:10249000C091AF01D091B00140E250E060E673E03E
:1024A000CE010E948230892B59F080E2FE01A0E625
:1024B000B3E001900D928A95E1F7CE010E94BA2314
:1024C000DF91CF9108950E94F91108950E9463123F
:1024D000089590918103292F282331F08095892335
:1024E000809381030E94661208950E94F911089555
:1024F0009091270492FF11C098E0899F90011124C8
:10250000262B209380030E94910D80918003869555
:10251000869586950E94751208950E94910D0895E2
:102520001092800380E00E947512089590918003BC
:102530008095892380938003282F277069F498174A
:1025400059F09091270492FF07C08695869586954D
:102550000E94A10D0E94901208959091270492FB71
:10256000222720F9281769F080FB92F9909327041D
:1025700080912604909127040E94F51282E00E9427
:10258000961208958091270482FB882780F991E0B4
:1025900089270E94AD12089581E00E94AD1208952E
:1025A00080E00E94AD1208956FEF7FEF80E090E031
:1025B0000E94E430089580E090E00E94B03021E075
:1025C000863E9E4F09F020E0822F089582E090E041
:1025D0000E94A830089583E090E00E94A8300895FA
:1025E00084E090E00E94B0300895BC0184E090E067
:1025F0000E94E4300895AB01BC018FE090E00E949E
:10260000D8300895AB01BC0183E190E00E94D8303E
:10261000089560E070E0CB010E940213089560E02D
:1026200070E0CB010E94FB120E9409130895A8E0FC
:10263000B0E0EDE1F3E10C945B3066EE7EEF80E01C
:1026400090E00E94E43060E082E090E00E94C630BA
:1026500060E083E090E00E94C63010921E0310926A
:102660001D0360E074E184E090E00E94E43060E0EB
:1026700086E090E00E94C6306FEF87E090E00E9415
:10268000C63040E050E0BA0188E090E00E94D830C7
:1026900060E084E290E00E94C63060E087E190E074
:1026A0000E94C63060E08CE090E00E94C63060E09E
:1026B0008DE090E00E94C63019821A821B821C8233
:1026C0001D821E821F82188648E050E068E170E09B
:1026D000CE0101960E94B63040E050E0BA0180E29F
:1026E00090E00E94D8300E940F132896E2E00C94EC
:1026F00077300E9417130895682F8EE090E00E94B3
:10270000C6300895A6E0B0E0E8E8F3E10C94593053
:102710000E94CC258C018091A5039091A6030817F7
:10272000190781F019821A820E94CC25682F4981ED
:102730005A81792F80E090E00E94A8091093A603A7
:102740000093A5032696E4E00C9475300E94D825EA
:102750006093B3037093B4038093B5039093B6036F
:102760006093AF037093B0038093B1039093B2036F
:10277000089581E0089581E008950E94BB130895B3
:1027800008950E94C01308950E94A70608950E940C
:10279000C01308950E94C71308950E94C01308959E
:1027A0008FE896E10E9432180E94CD130E94CA134E
:1027B00008950E94C1130E94C01308950E94AE168E
:1027C0000E947C090E94CE1E08950E94C3250E948B
:1027D0008A170E94DE13E6E2F4E08081806880833D
:1027E00080912604909127040E94F5120E94C41340
:1027F0000895A6E0B0E0EFEFF3E10C944F300E94B3
:10280000B913811103C00E94821366C00E94A017F1
:1028100027EAE22E23E0F22E5701D12CF501019197
:1028200011915F018D2D0E94CC1680279127D394A2
:10283000F4E0DF1619F0892B89F302C0892B19F314
:102840008091B70381FD0E94D5160E94BD13682EAA
:1028500010E0812F0E94CC164C01F701A080B180BE
:10286000A826B926A114B10471F100E0CC24C394C8
:10287000D12CC5018C219D21892BE9F077247394FB
:10288000C4018C219D21892B09F4712C662071F0E3
:1028900009831A830E94CC25682F8B839C834981EE
:1028A0005A81792F81E0972D0E94A809472D602F2A
:1028B000812F0E94CA1C0F5FCC0CDD1C0C30C9F6A6
:1028C000F701918280821F5FF2E0EF0EF11C14305D
:1028D00009F0BFCF0E94A6130E940E1E0E94D019BD
:1028E0000E948F092696EEE00C946B301F93CF93D5
:1028F000DF930E94A415EC01C11580E5D807E8F527
:10290000C11590E4D90708F0A8C0C03ED10530F544
:10291000CD3CD10508F094C0C83AD10578F4C53A49
:10292000D10508F083C0C130D10509F47CC008F49A
:10293000F2C0C430D10508F0F1C0EDC0C33CD105F0
:1029400008F0E9C0C85AD0E0CC0FDD1FC35FDD4FEF
:102950000990D881C02DCE019464E1C0C11580E2F8
:10296000D80708F0CBC0C11591E0D90708F06BC0BB
:10297000C83ED10508F4D2C0CEC0C03682E5D80723
:1029800028F5C03492E5D90708F079C0C03282E555
:10299000D80708F06CC0C11592E5D90708F481C0CA
:1029A0004C2F4695469580E2489FA0011124C370A4
:1029B00021E030E0C90102C0880F991FCA95E2F7F3
:1029C000EA01C82BD92BCE019D68A9C0C03A82E587
:1029D000D807B8F48C2F8F71C03892E5D90708F06A
:1029E0007BC08695869590E2899F90011124C370E3
:1029F00081E090E002C0880F991FCA95E2F79A68BB
:102A000068C0C03C82E5D80708F46DC0C03E92E5BE
:102A1000D90708F080C0CF71DD27DC2FCC27CE018D
:102A2000806F906A7CC081E090E079C0C55AD0E0A8
:102A3000CD5BDD4F8881C82FD0E0CE0190646FC0A0
:102A4000CE0190656CC08D2F0E944016182FCE01CC
:102A500099270E94A4151F715CC0CE0199270E947E
:102A6000A415CC27DF70D06A8C2B9D2B58C0CF715A
:102A7000D0E0DC2FCC27CE01816F906A50C08C2F24
:102A80008F718695869590E2899F90011124C3707D
:102A900081E090E002C0880F991FCA95E2F79C6818
:102AA00018C08C2F8F710E94401695E0D695C7955F
:102AB0009A95E1F7CF70D0E0DC2FCC27282F30E0BB
:102AC00084FF05C084E0220F331F8A95E1F7D069A7
:102AD000CE01822B932B23C090E0D82FCC27CE01A0
:102AE000846F906A1CC08C2F8F710E9440168F716A
:102AF00090E0D82FCC27CE01906211C08D2F8F711E
:102B00000E944016182FCE0199270E94A4151F710C
:102B10009062912B04C080E090E001C0CE01DF9173
:102B2000CF911F910895743038F46C3028F4462FFB
:102B3000672F0E94F007089580E090E008950E94BA
:102B400093150E94761408958238910569F1B0F4C6
:102B50008133910509F475C048F48932910509F46F
:102B600067C08A32910509F471C0089585339105D3
:102B700009F459C089339105B9F00895833E910550
:102B800089F138F4803E9105D1F0823E910529F11A
:102B90000895863E9105C9F1873E9105D9F1843E9D
:102BA000910509F06CC027C02091260420FD57C074
:102BB00021FD55C02091270423FD5BC0089580911D
:102BC000260480FD48C08091270480FF48C0809182
:102BD000260484FD46C083EE51C08091260482FF06
:102BE0003CC0F5CF8091260482FD37C08091270438
:102BF00080FD35C0ECCF8091270481FF36C08091E5
:102C0000260484FD2EC087EE39C08091260483FF00
:102C10002AC0F5CF8091260483FD25C0809127042A
:102C200081FD23C0ECCF8091260485FD22C01FC00A
:102C30008091260485FD1BC08091270483FF19C065
:102C40000AC08091260486FD16C017C08091260414
:102C500086FD13C010C089E311C082EE0FC080EE64
:102C60000DC080E00BC086EE09C084EE07C085E38E
:102C700005C089E203C08AE201C081E390E00895C3
:102C80009091260492FF10C041E0282F2471243037
:102C900009F040E031E0282F2871283009F030E0B9
:102CA000431711F02CE0822793FF10C041E0282F3A
:102CB0002471243109F040E031E0282F28712831B7
:102CC00009F030E0431711F02CE0822730912704FF
:102CD00030FF10C051E0282F2171213009F050E061
:102CE00041E0282F2871283009F040E0541711F0F6
:102CF00029E0822731FF10C041E0282F21712131C6
:102D000009F040E031E0282F2871283109F030E047
:102D1000431711F029E0822794FD877E089580E013
:102D200008950E94D41208950E94A0172FEF86E7FD
:102D300091E0215080409040E1F700C000000E94E7
:102D4000A01780E00E94CC1680FF04C00E9491165C
:102D50000E94352608950E94941608950E94DB1261
:102D6000811102C00E9479130E94E6128093B7037A
:102D70000E94F01290932704809326040E94AB16C1
:102D80000E94EB1290E00E94580D80911B039091DD
:102D90001C030E94760D0895E82FF0E0EE0FFF1F50
:102DA000E05DFB4F808191810895089580EA8A95C6
:102DB000F1F7089500C008950E94D6160895089569
:102DC0000E94DF1608950E94E01608950E94DF1603
:102DD00008950E94E6160895F894E82FE295EF70A2
:102DE000F0E031A1282F2F7081E090E001C0880F22
:102DF0002A95EAF7982F9095932391A392A1892B76
:102E000082A3789408950F931F93CF93DF93C2E525
:102E1000D2E089918F3F11F00E94EC1682E0C63516
:102E2000D807B9F7C6E4D2E002E512E089918F3FF6
:102E300011F00E94EC160C171D07C1F7DF91CF911E
:102E40001F910F910895A0E0B0E0E9E2F7E10C9442
:102E500054308C01C62FD0E0CE018E5A9D4F6C01AC
:102E6000FC0190819F3F09F450C0B62EF894E92FE1
:102E7000E295EF70F0E081A19F7021E030E001C0A9
:102E8000220F9A95EAF7822B81A382A1209528230D
:102E900022A378940E94DA16E6E4F2E042E552E0DA
:102EA00021E030E0E12CF12C61916F3F89F0A62FF9
:102EB000A295AF70B0E090968C9190E06F7002C0D8
:102EC000959587956A95E2F780FD02C0C90102C019
:102ED00080E090E0E82AF92A220F331F4E175F079F
:102EE00019F7F60180818F3F11F00E94EC1661E026
:102EF000E114F10409F460E08B2D0E94DC16CC0F84
:102F0000DD1FC00FD11FF982E882CDB7DEB7E9E03F
:102F10000C9470300E94031788E0E0E3F4E0DF01D6
:102F2000982F1D929A95E9F7E8E2F4E0DF011D92EF
:102F30008A95E9F784E00E94DB170E94E91608955C
:102F4000A8E0B0E0E6EAF7E10C9458308E010F5F9C
:102F50001F4F88E0F80111928A95E9F7F12C6F2D47
:102F6000C8010E942317F394F4E0FF12F8CF48E061
:102F700050E0B80188E294E00E94823021E000979E
:102F800009F420E0892B41F088E0F801A8E2B4E0E0
:102F900001900D928A95E1F744E060E374E088E2E5
:102FA00094E00E94DC17182F0E94E316812F2896C8
:102FB000E5E00C9474300895EF92FF920F931F9305
:102FC000CF93DF937C018B01C42F222349F081E052
:102FD0008093BA030E94CC259093B9038093B803E1
:102FE0008091BA03811102C080E01CC08091B803B7
:102FF0009091B9030E94E4250597B0F3D0E0CC0F7F
:10300000DD1FAE01B701C8010E948230892B39F063
:10301000AE01B701C8010E948F3081E001C080E09D
:103020001092BA03CDB7DEB7E6E00C9473300E947D
:10303000D3270E94E5130E94E02708950E94E52708
:103040000E94F9130E94FF2708950E9463250E94A1
:10305000B9270E94D0130E9417180E941E180E94C0
:10306000D913FBCF90935F0280935E020895282FBF
:1030700035EB2303C001112497FF03C08058910949
:1030800002C080589F4F892F08958091C10380FF0F
:1030900006C06091B60170E0660F771F26C081FF01
:1030A00004C06091B60184E005C082FF07C0609152
:1030B000B60188E0689FB001112417C09091C00349
:1030C0009923D1F06091B501961788F72091B60148
:1030D00088E0289F90011124929FA001939F500D9A
:1030E000112470E0CA010E94F02F6038710540F48D
:1030F0006115710519F406C068E070E0862F089527
:103100008FE7089581E008958091C10380FF08C092
:103110006091B20170E0759567957595679521C0CE
:1031200081FF06C06091B20170E07595679519C086
:1031300082FF04C06091B20170E010C09091BF03A3
:10314000992399F06091B1019617A0F78091B2018F
:10315000899FC001112470E00E94F02F6038710532
:1031600040F46115710519F406C061E070E0862F26
:1031700008958FE7089581E008958D3C21F40E9421
:103180004518819504C08E3C29F40E94451880930F
:10319000C50308958F3C21F40E944518819504C011
:1031A000803D29F40E9445188093C4030895893D09
:1031B00019F40E94841805C08A3D31F40E948418D5
:1031C00081958093C60308958B3D21F40E94841855
:1031D000819504C08C3D29F40E9484188093C70314
:1031E00008959FE2980F983078F421E030E0A9012B
:1031F00002C0440F551F9A95E2F7CA019091C3038C
:10320000892B8093C30308958D3D21F48091C103E0
:1032100081600BC08E3D21F48091C103826005C0A6
:103220008F3D29F48091C10384608093C103089588
:103230008D3C39F49091C50397FF35C01092C503BA
:1032400059C08E3C29F49091C5031916BCF32BC0CC
:103250009091C4038F3C29F497FF25C01092C403BA
:1032600049C0803D19F41916CCF31DC09091C603D6
:10327000893D29F41916BCF41092C6033BC08A3D5F
:1032800019F497FF10C0F8CF8B3D39F49091C70324
:1032900097FF09C01092C7032DC08C3D21F4909177
:1032A000C7031916BCF39FE2980F983080F421E011
:1032B00030E0A90102C0440F551F9A95E2F7CA01F8
:1032C00080959091C30389238093C30313C08D3DE0
:1032D00021F48091C1038E7F0BC08E3D21F480913B
:1032E000C1038D7F05C08F3D29F48091C1038B7F81
:1032F0008093C1038091C403811106C08091C503EE
:10330000811102C01092C0038091C603811106C0D2
:103310008091C703811102C01092BF0308950E94DB
:10332000CC252091C403211104C02091C503222380
:1033300021F09093BE038093BD032091C603211119
:1033400004C02091C703222321F09093BC038093F3
:10335000BB0382EC93E00E94D4230895E2ECF3E0F7
:1033600086E0DF011D928A95E9F71092C003109262
:10337000BF031092C1030895FC01828181110DC029
:10338000838181110AC08481811107C091E0858108
:10339000811101C090E0892F01C081E08170089502
:1033A000A6E0B0E0E6EDF9E10C945A3086E0E2ECFC
:1033B000F3E0DE01119601900D928A95E1F71092EB
:1033C000C4031092C5031092C6031092C7038B81E9
:1033D000811104C08C81882309F456C08091BD03FB
:1033E0009091BE030E94E425AC019091C003992303
:1033F00039F02091B70130E02417350758F044C068
:103400002091B8018AE0289F9001112424173507E4
:1034100018F03AC09F3F19F09F5F9093C0031B8143
:10342000112361F00E944518111614F09FEF01C09E
:1034300091E0989F902D11249093C4031C81112337
:1034400061F00E944518111614F09FEF01C091E041
:10345000989F902D11249093C5038091C4038823D5
:1034600099F01091C503112379F00E94371881114A
:1034700001C081E08093C403812F0E94371881111D
:1034800001C081E08093C5038D81811104C08E81CC
:10349000882309F456C08091BB039091BC030E941D
:1034A000E425AC019091BF03992339F02091B30139
:1034B00030E02417350758F044C02091B4018AE069
:1034C000289F900111242417350718F03AC09F3F18
:1034D00019F09F5F9093BF031D81112361F00E943B
:1034E0008418111614F09FEF01C091E0989F902D61
:1034F00011249093C6031E81112361F00E94841849
:10350000111614F09FEF01C091E0989F902D1124A7
:103510009093C7038091C603882399F01091C70345
:10352000112379F00E943718811101C081E0809346
:10353000C603812F0E943718811101C081E080935A
:10354000C703BE016F5F7F4F82EC93E00E94F024BF
:10355000811105C082EC93E00E94BC1981110E9488
:103560008F1986E0FE013196A2ECB3E001900D9236
:103570008A95E1F72696E3E00C947630EF92FF927D
:103580000F931F93CF93DF938B01682F11110AC004
:10359000442329F0E82FF0E0EC52FD4F6491762FA0
:1035A000862F75C0212F30E0E82FF0E0442321F072
:1035B000EC52FD4FE491F0E046E0049FC00111247D
:1035C000CFEFD0E0BE010E94DC2F4BEA4603C001E2
:1035D000479F900D1124800F911D800F911D982FF2
:1035E000990F890FAE01421B530B4E9FD0014F9F85
:1035F000B00D5E9FB00D11249B2F189FA0011124C8
:10360000452F55278E01041B150B0E9FA0010F9F00
:10361000500D1E9F500D11247E01E81AF108E29E04
:103620008001E39E100DF29E100D1124212F3327EF
:10363000C21BD30BCE9F9001CF9F300DDE9F300D6C
:10364000112462307105A9F048F46115710569F023
:1036500061307105C9F48B2F752F0DC06430710571
:1036600081F058F06630710579F47E2F8B2F932FFF
:103670000DC0832F7B2F9E2F09C08E2F7B2F952F60
:1036800005C08E2F732F02C07E2F852F692FCDB7D7
:10369000DEB7E6E00C94733041E00E94BE1A089554
:1036A00020E030E0869F212D969F200D311D1124B2
:1036B000C90108958F929F92AF92BF92DF92EF92CD
:1036C000FF920F931F93CF93DF937B01D82EBA0104
:1036D00080E090E00E94182E20E030E04FE753E4B5
:1036E0000E94772D4B015C019B01AC010E946F2F62
:1036F000A50194010E946F2FA50194010E946F2FD4
:103700008B01D82FC92F2DEC3CEC4CE45DE30E94DB
:10371000722D87FD10C023E333E343E75FE3B80175
:103720008D2F9C2F0E946A2F18164CF400E010E099
:10373000D0E8CFE304C000E010E0D0E0C0E020E03B
:1037400030E04FE753E4B8018D2F9C2F0E946F2F7C
:103750009B01AC0160E070E08FE793E40E94052DCF
:103760000E94E92D262F3D2D239F212D1124822FEC
:10377000B701DF91CF911F910F91FF90EF90DF90F4
:10378000BF90AF909F908F9008950E945A1B809594
:1037900008959091C803892B8093C80308950E94CF
:1037A0004C1B0895E8E3F4E085E080838091C80134
:1037B0009091C901A091CA0181839283A3838FE76D
:1037C00084838FEF858348E050E068E170E0CF01AB
:1037D0000E94B6301092C803089580E008950F93B8
:1037E0001F93CF93DF93C82FD62F8A010E94ED1B22
:1037F0009CE0C99FF0011124E050FF4FED0FF11D37
:1038000090819F3F29F0F801E80FF11D90838F5FB1
:10381000DF91CF911F910F910895E0915C02F0919B
:103820005D0209950895E0915802F09159020995B9
:103830000895A0E0B0E0EFE1FCE10C9453308C017E
:103840007B01FC01C08189E0C89FC02D1124D9E013
:10385000DC0FDB3208F0DAE220913C0431E0230F88
:1038600008F42FEF30E040E050E06FEF7FEF80E0B2
:1038700090E00E9426306901CD1708F041C0AC2EBF
:10388000B12CF501EC57FE4F9081F801818189231D
:10389000A9F190914404915097FD15C0292F092E4C
:1038A000000C330BF901EC5BFB4F8189C813F3CF9C
:1038B000220F331FF901EC5BFB4F218D328D2C154C
:1038C0003D0548F701C0960160913C0441E0640F5A
:1038D00008F46FEFC9010E94501BAC0160913904DC
:1038E00070913A0480913B04F70109950E94CF1B27
:1038F000462F282F672FC5010E94131CCF5FBCCF16
:1039000081E0DA3208F080E0CDB7DEB7EAE00C946F
:103910006F30A0E0B0E0EFE8FCE10C9456308C0191
:10392000DC018C91C9E08C9FC02D1124D9E0DC0F03
:10393000DB3208F0DAE26091390470913A04809148
:103940003B040E94CF1BF62EE72ED82ECD1798F4FD
:10395000EC2FF0E0DF01AC57BE4F8C91D8011196EF
:103960009C91982331F02D2D4F2D6E2DCF010E946B
:10397000131CCF5FEBCF81E0DA3208F080E0CDB7E7
:10398000DEB7E7E00C947230E0915A02F0915B02EE
:1039900009950895CF92DF92FF920F931F93CF93D3
:1039A000DF93CDB7DEB728970FB6F894DEBF0FBE12
:1039B000CDBF182F062FF42E0E94BB13882309F4C5
:1039C0006FC0FF2049F0AE014F5F5F4F602F812F26
:1039D0000E94EF1BF82E01C0F12C0F2D10E08091FA
:1039E000C9039801280F311D293031056CF188E099
:1039F00090E06C01C01AD10AB80166537C4FA60151
:103A00008AEC93E00E948F30B8016E527C4FA60181
:103A100082ED93E00E948F30A601440F551FB8013C
:103A2000660F771F6E517C4F82EE93E00E948F30BD
:103A3000B80166527C4FA6018AED93E00E948F3058
:103A400088E08F198093C9031091C903DE01119694
:103A500040E0842F810FF41609F190E05D91252F4D
:103A600030E0BC0167537C4FF901EE0FFF1FE05DB2
:103A7000FE4F0081FB010183220F331FF901E0504B
:103A8000FF4F21A9FB012187518B880F991FFC0152
:103A9000E753FC4F128E118E4F5FDBCF8093C9032B
:103AA00028960FB6F894DEBF0FBECDBFDF91CF9141
:103AB0001F910F91FF90DF90CF9008958091400467
:103AC00090914104A0914204B091430488279C70D6
:103AD000AA27BB272AE0B695A795979587952A959B
:103AE000D1F782309105A105B10571F083309105C0
:103AF000A105B10569F040E00197A105B10511F0FC
:103B000060E008C064E102C044E160E080E003C01E
:103B100044E164E184E10E94C41C0895CF93C82F5E
:103B20008091BD018C130DC020913804237030E0CA
:103B30004091BE0150E081E02417350719F480E080
:103B400001C081E081708093BC0180913D0490911F
:103B5000BB01981739F08093BB0140E060E080E042
:103B60000E94C41CC23019F46AE57BE106C0C33070
:103B700048F0C330A1F565EC7BE18AEB91E00E944F
:103B8000191C08C0CC23D1F0C13019F58AEB91E0A3
:103B90000E94891C9091BA019F5F9093BA01811194
:103BA00024C082E08093B9018091BC0181111DC0C5
:103BB000C1111BC083E08093B90117C08091BC0183
:103BC000882329F040E060E080E00E94C41C80E08F
:103BD000E1CF8091BA018F5F8093BA01E2CFCF3FEE
:103BE000C1F70E945E1D82E0E6CFCF9108950E944A
:103BF000E905089581E008950E94FA1D0895FC01E9
:103C00008081815099E0899F802D112469E0680F9F
:103C10006B3208F06AE20E94FC1D08954F925F9299
:103C20006F927F928F929F92AF92BF92CF92DF92CC
:103C3000EF92FF92CF936091F2037091F303809122
:103C4000F4039091F5030E94F3256B017C010E941F
:103C5000D8254B015C016093F2037093F3038093CA
:103C6000F4039093F503A091C903E9ECF3E08A2FE4
:103C700090E04FEF5FEF60E070E04C195D096E0976
:103C80007F09A91799F0218D328D2901612C712CA2
:103C9000441555056605770510F4815004C02C0DB8
:103CA0003D1D328F218F9F5F3296EBCF8093C903EA
:103CB0008091F603811108C0C09138048C2F837065
:103CC00019F0C695C69501C0C0E08091B901813058
:103CD000D9F028F0823041F1833099F151C010922F
:103CE000BA018092400490924104A0924204B092A2
:103CF000430489E2E9ECF3E0A4E4B4E001900D921E
:103D00008A95E1F781E01AC08C2F0E948E1DCC238A
:103D1000B9F18091BA01853011F40E94F71D8AEB48
:103D200091E00E94FF1D2CC0C093BD01809138041A
:103D300083708093BE010E940D1C83E08093B901C3
:103D40001FC08091C803882351F048E050E068E12B
:103D500070E088E394E00E94B6301092C80360914E
:103D600040047091410480914204909143040E9468
:103D7000F325603171058105910510F01092B901AC
:103D8000CF91FF90EF90DF90CF90BF90AF909F903A
:103D90008F907F906F905F904F900895E0915602C2
:103DA000F0915702099510924404EDE5F4E08FEF8D
:103DB0009FEF8193919324E0ED36F207D1F71092B3
:103DC000C903E2EEF3E08FEF9FEF8193919323E03D
:103DD000E23FF207D1F70E94DB12811104C00E947A
:103DE00079130E94D21B81E08093C80348E050E021
:103DF00068E170E088E394E00E9498301092C80374
:103E0000809138048C7F11F40E94D21B0895CF93C7
:103E1000C82F882391F08091F60381110EC00E9473
:103E20008E1D1092BD018091380483708093BE0175
:103E30000E940D1C83E08093B901C093F603CF91DB
:103E40000895E8E3F4E0208191E0922790831092B6
:103E5000B9010E94C91B089581E00E94211F0895A5
:103E600080913804837011F41092B9018091380464
:103E70008C7F81608093380408950E94301F81E018
:103E80000E94C91B089580913804837011F010922C
:103E9000B901809138048C7F8093380408950E9482
:103EA000431F81E00E94C91B0895909138049370CC
:103EB00091F0811102C0946007C0843010F09C60C2
:103EC00003C0880F880F982B90933804862F109288
:103ED000B9010E94C91B089561E00E94551F089511
:103EE000682F90913804969596959F5F943010F4C2
:103EF000892F01C081E00E94551F089581E00E9432
:103F0000701F0895682F909138049695969591505A
:103F100011F0892F01C083E00E94551F089581E0B0
:103F20000E94821F089590913804937049F0809305
:103F3000390460933A0440933B04822F0E94C91BCA
:103F4000089520E00E94931F0895A8E3B4E011961D
:103F5000EC911197F0E0282F13964C91139712963D
:103F60006C91CF0108960E94931F089581E00E94F2
:103F7000A51F0895A8E3B4E01196EC911197F0E025
:103F8000282F13964C91139712966C91CF01089796
:103F90000E94931F089581E00E94BA1F0895E8E3EC
:103FA000F4E0628120E1620F08F46FEF9181282F25
:103FB0004381892F90E00E94931F089581E00E9421
:103FC000CF1F0895E8E3F4E0628120E1621B08F46A
:103FD00060E09181282F4381892F90E00E94931FF8
:103FE000089581E00E94E21F0895E8E3F4E0438130
:103FF00020E1420F08F44FEF9181282F6281892F31
:1040000090E00E94931F089581E00E94F51F08959B
:10401000E8E3F4E0438120E1421B08F440E09181B1
:10402000282F6281892F90E00E94931F089581E0DC
:104030000E940820089580933C0481E00E94C91BDF
:104040000895E8E3F4E0248130E1230F08F42FEF32
:1040500024830E94C91B089581E00E9421200895B5
:10406000E8E3F4E0248130E1231B08F420E024831A
:104070000E94C91B089581E00E943020089510928B
:10408000F7030895FC01EE0FFF1FDF01A80FB91F12
:10409000A359BB4F11963C911197361307C03C9121
:1040A000341304C012963C91321759F031E030932A
:1040B000F7038E0F9F1FFC01E359FB4F6183408381
:1040C00022830895FF920F931F93CF93DF93182FAE
:1040D000062FF42EC0E0D0E02F2D402F612FCE010F
:1040E0000E9442202196CA32D105B1F7CDB7DEB782
:1040F000E5E00C9474308091F703882341F06AE284
:1041000070E08DE694E00E94E5201092F703089598
:10411000882311F0FA0101C0FB01099508951F934E
:10412000CF93DF93FB01158111114AC0EC010E946E
:10413000CD118272FE01E052F847E531F10520F41D
:10414000EE59FF4F0C94453011E03AC00E942C1FED
:1041500037C04FE85FE16EE77FE104C04EE75FE103
:104160006FE87FE10E9488202BC04BEC5FE166EB9B
:104170007FE1F8CF46EB5FE16BEC7FE1F3CF41EFFE
:104180005FE16EED7FE1EECF4EED5FE161EF7FE14C
:10419000E9CF47E150E264E070E2E4CF44E050E26E
:1041A00067E170E2DFCF4BE350E26CE270E2DACF1E
:1041B0004CE250E26BE370E2D5CF81E00E946C1FCD
:1041C000812FDF91CF911F910895239A25B1277FE9
:1041D00035B138604FB7F894FC01CB01880F991FB7
:1041E000680F791F6E0F7F1FE617F70789F081911F
:1041F00098E035B9000000C087FF25B9880F00009E
:1042000000C000C000C025B900C09A9591F7ECCF5E
:104210004FBF8FE594E00197F1F700C000000895CB
:10422000CF93DF93FC01DB0115968C91882309F471
:10423000DDC09F0130572332310508F0D8C0EF01AF
:104240000E94F0129093270480932604FE01E1500F
:10425000F047E232F10520F4E958FF4F0C94453065
:10426000809126048160AAC0809127048860B2C032
:10427000809126048260A2C08091260420C0809193
:10428000260488609BC0809127041EC0809127046B
:104290008260A0C080912604806190C08091260435
:1042A00080628CC080912604806488C00E94080DC2
:1042B00080912604806882C0809126048860846092
:1042C0007DC0809127048260816084C08091260433
:1042D0008E7F74C080912704877F7CC080912604E4
:1042E0008D7F6CC08091260420C080912604877F3A
:1042F00065C0809127041EC0809127048D7F6AC00D
:10430000809126048F7E5AC0809126048F7D56C0EE
:10431000809126048F7B52C00E94080D8091260454
:104320008F774CC080912604877F8B7F47C0809118
:1043300027048D7F8E7F4EC08091260482FB22272A
:1043400020F991E0922790FB82F990FB83F936C027
:1043500080912704982F909591708E7F892B90FBE8
:1043600081F938C08091260486FB222720F991E04C
:10437000922790FB86F922C00E94080D80912604A6
:1043800087FB222720F991E0922790FB87F916C03E
:1043900081E001C080E00E947C131EC08091260451
:1043A00084FB222720F991E0922790FB84F906C034
:1043B00080912604982F909590FB80F98093260495
:1043C0000BC08091270483FB222720F991E09227DC
:1043D00090FB83F980932704809126049091270411
:1043E0000E94F5120E94080D80E001C081E0DF917B
:1043F000CF910895A0E0B0E0E0E0F2E20C945630F6
:10440000E82FF0E0EC52FC4FD490282F269526950B
:10441000269530E0F901EC58FB4F0491877010E0CD
:10442000082E02C0159507950A94E2F7017011272E
:10443000F901EC59FB4FE490F12C082E02C0F594E1
:10444000E7940A94E2F791E0E922FF24F901EC5A9B
:10445000FB4FC491D0E002C0D595C7958A95E2F78D
:10446000C170DD270115110519F081EE0E94EE09DA
:10447000E114F10419F086EE0E94EE098D2D0E94E0
:10448000940AE114F10419F086EE0E94440A011521
:10449000110519F081EE0E94440ACD2B19F08CE22F
:1044A0000E94940ACDB7DEB7E7E00C947230EF9229
:1044B000FF920F931F93CF93DF93EC01162F0AE027
:1044C0008881882309F455C0813009F043C089816F
:1044D000813041F47E0182E0E80EF11C8A810E9465
:1044E000940A09C0823049F47E01E2E0EE0EF11C2C
:1044F0008A810E94EE09E7012FC0833041F47E01DA
:10450000F2E0EF0EF11C8A810E94440AF4CF84305D
:1045100011F0219621C02A81229680E090E030E0BF
:10452000205331092A30310558F4089FA001099F12
:10453000500D1124C901840F951F21962881EFCFBA
:10454000009751F0EFE9FFE03197F1F700C000006C
:104550000197F6CF0E94FA212196812F882309F432
:10456000AFCFEFE9FFE03197F1F700C000008150D5
:10457000F5CFCDB7DEB7E6E00C94733060E00E9473
:1045800057220895CF93DF9386319C4741F5EB0185
:104590000E94CD11982F8D812091AF013091B001F3
:1045A000882379F09A7A81E009F480E08093F80317
:1045B000911102C069E201C065E3C9010E94C224F1
:1045C0000AC08091F803811102C069E201C065E36D
:1045D000C9010E94D0240E94221280E001C081E023
:1045E000DF91CF910895A0E0B0E0E9EFF2E20C9402
:1045F00053307C015B01C42FD22FFC0185818823BD
:10460000B1F04093FB030E94CC259093FA03809372
:10461000F90380E28C0F883008F052C0C77081E047
:1046200001C0880FCA95EAF70E949E0A49C080918E
:10463000FB03481335C08091F9039091FA030E945F
:10464000E4256C01B701C5010E94D406C816D9063D
:1046500038F510E21D0FCD17B9F080E28C0F8830CD
:1046600040F4C77081E001C0880FCA95EAF70E9444
:10467000A50A183010F581E09D2F977001C0880FB2
:104680009A95EAF70E949E0A802F0E94940A183099
:10469000B8F4D77081E001C0880FDA95EAF70AC054
:1046A00080E28C0F883060F4C77081E001C0880F11
:1046B000CA95EAF70E94A50A03C0802F0E94940AB7
:1046C000CDB7DEB7EAE00C946F300F93FC01E851F0
:1046D000FC47E730F10590F5CB01E756FF4F0C940E
:1046E000453006E221EE41EE6AE17CE723C007E2B5
:1046F00025EE45EE6BE17CE71DC006E221EE40EEC3
:1047000068E17CE717C007E225EE44EE69E17CE74B
:1047100011C006E221EE42EE6CE17CE70BC007E23D
:1047200025EE46EE6DE17CE705C008E221E045EEAE
:104730006EE17CE70E94F32280E008C0FB018581E6
:10474000882319F01092FB0301C081E00F910895B6
:1047500090930104809300040895E0910004F09187
:104760000104309729F00190F081E02D099508951A
:1047700080E00895FC01A0910004B091010410971D
:1047800091F08091C701882341F08091260487FF32
:1047900004C08081818386E08083CF011296ED91F1
:1047A000FC91139709950895E0910004F09101049C
:1047B000309739F022E0DC012C930480F581E02D64
:1047C00009950895A3E0B0E0E8EEF3E20C945B30C5
:1047D0002091FE033091FF0328173907A1F0909331
:1047E000FF038093FE03E0910004F09101043097F1
:1047F00051F023E029839B838A830680F781E02D93
:10480000CE01019609952396E2E00C947730A3E05F
:10481000B0E0EDE0F4E20C945B302091FC033091C9
:10482000FD0328173907A1F09093FD038093FC0343
:10483000E0910004F0910104309751F024E02983C5
:104840009B838A830680F781E02DCE01019609952E
:104850002396E2E00C947730FC0132968091C701F8
:10486000882331F08091260487FF02C09EE101C0B9
:1048700096E080E0915028F021912223D9F38F5FB8
:10488000F9CF0895662351F12091C7012223E9F061
:104890002091260427FF19C0462F46954695469538
:1048A0004E31E0F4677021E030E002C0220F331F88
:1048B0006A95E2F7FC01E40FF11D828190E0282364
:1048C000392381E0232B69F409C0FC013296089654
:1048D0002191621729F0E817F907D1F780E00895D0
:1048E00081E008959C01FC0132969FEF80E04191A8
:1048F000461789F09F3F19F4411101C0982F8F5F2F
:104900008630A9F79F3F39F0F901E90FF11D97FDB6
:10491000FA956283089508959C012A5F3F4FFC0138
:104920004281461301C01282019682179307B9F79C
:104930000895262F2695269526952E3168F4FC019C
:10494000E20FF11D677021E030E001C0220F6A958F
:10495000EAF78281282B22830895262F2695269513
:1049600026952E3170F4FC01E20FF11D677021E0F5
:1049700030E001C0220F6A95EAF720958281282352
:10498000228308952091C701222339F02091260423
:1049900027FF03C00E94992408950E94722408955D
:1049A0002091C701222339F02091260427FF03C05C
:1049B0000E94AD2408950E948C2408952091C7017F
:1049C000FC013296222331F08091260487FF02C039
:1049D0008EE101C086E0DF011D928A95E9F7089516
:1049E000DC01FB0111969C9111978181981321C0E4
:1049F00012968C911297882319F09281891319C00D
:104A000013968C911397882319F09381891311C001
:104A100015968C911597882319F09581891309C0F3
:104A200014969C91992339F081E02481291304C0C4
:104A300002C081E001C080E08170089508950E9465
:104A40001E25089583E0809302040E941F25089587
:104A5000811102C081E001C082E0809302040E94C3
:104A60001F2508950E942825089581E0809302045F
:104A70000E941F2508950E943525089508950E94DB
:104A80003E2508950E943F2508950E943E250895E1
:104A90000E943E2508950E943E250895CF930E94CE
:104AA00048250E94A0170E944525C0E08C2F0E9437
:104AB000CC16892B29F4CF5FC430C1F780E001C048
:104AC00081E0CF91089585B7806885BF85B78068FC
:104AD00085BF08951F920F920FB60F9211248F93E6
:104AE0009F93AF93BF9380910304811113C0809172
:104AF000EB049091EC04A091ED04B091EE0441968A
:104B0000A11DB11D8093EB049093EC04A093ED04E0
:104B1000B093EE04BF91AF919F918F910F900FBE14
:104B20000F901F9018958091F304843031F10E940A
:104B300031091092030420E488E190E00FB6F89464
:104B4000A895809360000FBE2093600083B7817F9B
:104B5000846083BF83B7816083BF7894889583B76F
:104B60008E7F83BF0FB6F894A8958091600088610E
:104B700080936000109260000FBE08950E94080D9F
:104B80000E943B09089582E084BD93E095BD9AEFB1
:104B900097BD80936E0008952FB7F8948091EB0431
:104BA0009091EC04A091ED04B091EE042FBF089514
:104BB0002FB7F8946091EB047091EC048091ED04B0
:104BC0009091EE042FBF08959C014FB7F894809107
:104BD000EB049091EC04A091ED04B091EE044FBF72
:104BE000821B930B0895CF92DF92EF92FF922FB723
:104BF000F894C090EB04D090EC04E090ED04F090B9
:104C0000EE042FBFA7019601261B370B480B590B4B
:104C1000CA01B901FF90EF90DF90CF90089578948A
:104C20001F920F920FB60F9211248F939F93AF9301
:104C3000BF938091EB049091EC04A091ED04B091AE
:104C4000EE040196A11DB11D8093EB049093EC043A
:104C5000A093ED04B093EE04BF91AF919F918F911B
:104C60000F900FBE0F901F90189581E08093E00089
:104C700080E28093D8001092C9008FE19EE40197F2
:104C8000F1F700C0000087E090EBDC018093FC04AA
:104C90009093FD04A093FE04B093FF049CE088E190
:104CA0000FB6F894A895809360000FBE90936000B3
:104CB000FFCF9CE088E10FB6F894A8958093600040
:104CC0000FBE90936000FFCF8091240408959B0154
:104CD0009091F3049430F1F48F708093E9008FEF9A
:104CE0009091E800815095FD06C095ED9A95F1F7F9
:104CF00000008111F5CF8091E80085FF0BC0BA015B
:104D0000C90140E050E00E9477288091E8008E774A
:104D10008093E800089543E050E0BC0182E00E94E7
:104D20006726089546E050E0BC0182E00E946726B5
:104D30000895CF93DF93EC018091C701811105C0E5
:104D400048E050E0BE0181E00BC08091260487FF5F
:104D500003C040E282E002C048E081E050E0BE01D2
:104D60000E94672680E2FE01A4E0B4E001900D926B
:104D70008A95E1F7DF91CF9108958091F204811136
:104D800009C00E94022A0E945F2A8091E20084608A
:104D90008093E20008951092F20408950E943B254A
:104DA00008956091EF0481E0611101C080E00E94EC
:104DB000222508959091F30481E0943009F080E079
:104DC0006091EF040E942825089542E061EC81E0A3
:104DD0000E947B2942E261EC82E00E947B29909153
:104DE000F30481E0943009F080E06091EF040E94C8
:104DF000322508958091F504833009F461C030F4C0
:104E0000813071F0823009F49BC008958A3009F432
:104E100087C08B3009F46CC0893009F0A9C020C06C
:104E20008091F404813A09F0A3C08091E800877F63
:104E30008093E8008091F8049091F904892B21F483
:104E400060E284E094E003C060E080E090E070E025
:104E50000E94BC288091E8008B778093E800089539
:104E60008091F404813209F083C08091F80490911C
:104E7000F904029708F07CC08091E800877F809356
:104E8000E8008091E80082FD05C08091F304811163
:104E9000F8CF6EC02091F3008091F20090E0922B49
:104EA000029731F48091F100813011F0863021F4C5
:104EB0008091F100809324048091E8008B7754C0A6
:104EC0008091F404813A09F053C08091F8049091E4
:104ED000F904892B09F04CC08091E800877F80930A
:104EE000E8008091E80080FFFCCF8091C70137C0C7
:104EF0008091F4048132E1F58091F8049091F904F5
:104F0000892BB1F58091E800877F8093E8000E94AB
:104F1000B0298091F6048093C7010E94080D08957E
:104F20008091F404813221F58091E800877F80939D
:104F3000E8000E94B0298091F70480932504089529
:104F40008091F404813AA1F48091E800877F8093F6
:104F5000E8008091E80080FFFCCF809125048093D9
:104F6000F1008091E8008E778093E8000E94B029DC
:104F7000089584B7877F84BF0FB6F894A895809171
:104F80006000886180936000109260000FBE90E026
:104F900080E80FB6F89480936100909361000FBE93
:104FA0000E94352508950E94022A0E945F2AE2EE9F
:104FB000F0E080818460808378940E94EA2C0895D8
:104FC0008FEB91E00E94A82308958091F30485302F
:104FD000A9F48091F304853079F40E94932580919F
:104FE000F1048823B1F30E944E25882391F30E9497
:104FF00061280E94080DEDCF0E94BE2508950895F6
:105000009A014091FA045091FB040E9408280895E7
:10501000492F552743305105C9F060F441305105FF
:1050200081F04230510509F044C08BE390E04AEA38
:1050300054E043C041325105E1F04232510549F19B
:1050400038C082E190E045EE54E037C099278130C6
:10505000910549F028F0029761F5E4E8F4E005C015
:10506000E6EAF4E002C0E2E9F4E0849190E0AF0106
:1050700024C06115710541F061307105D1F489E0FA
:1050800090E045ED54E019C089E090E04CEB54E02D
:1050900014C06115710541F06130710551F486EB62
:1050A00090E047EF54E009C084E490E04DEA55E019
:1050B00004C080E090E040E050E0F901518340837B
:1050C000089580E189BD82E189BD09B400FEFDCF6C
:1050D0008091D8008F7D8093D8008091E00082601D
:1050E0008093E0008091E00081FDFCCF0895A0E076
:1050F000B0E0EDE7F8E20C945530EC018B017A0159
:105100000E94CF29811133C0E114F10439F0F70175
:1051100080819181081B190BC80FD91FC12CD12C7C
:105120000115110519F18091E80085FD16C08091E7
:10513000E8008E778093E800E114F10449F0F7016C
:1051400080819181C80ED91ED182C08285E00FC0B6
:105150000E94CF29882321F30AC089918093F1000E
:1051600001501109FFEFCF1ADF0ADACF80E0CDB787
:10517000DEB7E8E00C9471302091FA043091FB0422
:105180002617370748F06115710539F42091E800BA
:105190002E772093E80001C0B901FC0120E06115E1
:1051A000710579F18091F3048823F1F18530F1F1F3
:1051B0008091E80083FD3CC08091E80082FD2EC014
:1051C0008091E80080FFEBCF2091F3008091F20006
:1051D00090E0922B6115710551F08830910538F4FB
:1051E00021912093F100615071090196F3CF21E0E4
:1051F000089709F020E08091E8008E778093E8001E
:10520000CECF2111CFCF0AC08091F304882361F063
:10521000853061F08091E80083FD0AC08091E8004C
:1052200082FFF2CF80E0089582E0089583E0089540
:1052300081E008952091FA043091FB042617370786
:1052400048F06115710539F42091E8002E7720931C
:10525000E80001C0B901FC0120E06115710591F180
:105260008091F304882309F440C0853009F43FC0DD
:105270008091E80083FD3DC08091E80082FD2FC051
:105280008091E80080FFE9CF2091F3008091F20047
:1052900090E0922B6115710559F08830910540F42A
:1052A00024912093F1003196615071090196F2CF5B
:1052B00021E0089709F020E08091E8008E77809344
:1052C000E800CBCF2111CCCF0AC08091F304882312
:1052D00061F0853061F08091E80083FD0AC0809123
:1052E000E80082FFF2CF80E0089582E0089583E035
:1052F000089581E00895982F973068F59093E9001C
:10530000981739F07091EC002091ED005091F00069
:1053100003C0242F762F50E021FD02C09F5FECCF09
:105320003091EB003E7F3093EB003091ED003D7FFC
:105330003093ED003091EB0031603093EB007093CF
:10534000EC002093ED005093F0002091EE0027FD3B
:10535000E5CF80E008958F708093E90081E00895A3
:105360008091F40487FF11C08091E80082FD05C0A0
:105370008091F3048111F8CF11C08091E8008B7700
:105380000BC08091F304882349F08091E80080FFEE
:10539000F8CF8091E8008E778093E80008952091FF
:1053A000E4003091E50095E64091EC00842F817097
:1053B00040FF23C08091E80080FD1DC08091F30470
:1053C000882399F0853099F08091EB0085FD11C01C
:1053D0004091E4005091E5002417350729F39150DE
:1053E00011F09A01E1CF84E0089582E0089583E00E
:1053F000089581E0089580E008954091E80042FF1B
:10540000DDCF08950E94712A0E94792AE0EEF0E033
:10541000808181608083E8EDF0E080818F778083F8
:1054200019BCA7EDB0E08C918E7F8C9380818F7E2C
:1054300080831092F20408950F931F93CF93DF930C
:105440000E94712A0E94792AC8EDD0E088818F7766
:10545000888388818068888388818F7D888319BC50
:105460001092F3041092EF041092F1041092F004E1
:1054700000EE10E0F80180818B7F8083888181605D
:10548000888342E060E080E00E947B29E1EEF0E06A
:1054900080818E7F8083E2EEF0E080818160808376
:1054A000808188608083F80180818E7F80838881FD
:1054B00080618883DF91CF911F910F910895E8ED6E
:1054C000F0E080818F7E8083E7EDF0E08081816075
:1054D000808384E082BF81E08093F2040E941C2AD2
:1054E0000895E8EDF0E080818E7F80831092E200E5
:1054F00008951092DA001092E10008951F920F9221
:105500000FB60F9211242F933F934F935F936F9396
:105510007F938F939F93AF93BF93EF93FF9380916C
:10552000E10082FF0BC08091E20082FF07C0809102
:10553000E1008B7F8093E1000E94E92C8091DA00EA
:1055400080FF1FC08091D80080FF1BC08091DA00CF
:105550008E7F8093DA008091D90080FF0DC080E1BA
:1055600089BD82E189BD09B400FEFDCF81E0809351
:10557000F3040E94BD2605C019BC1092F3040E94DA
:10558000CB268091E10080FF19C08091E20080FF6E
:1055900015C08091E2008E7F8093E2008091E2004E
:1055A00080618093E2008091D80080628093D8006F
:1055B00019BC85E08093F3040E94D1268091E1001C
:1055C00084FF30C08091E20084FF2CC080E189BD5F
:1055D00082E189BD09B400FEFDCF8091D8008F7DA6
:1055E0008093D8008091E1008F7E8093E1008091CC
:1055F000E2008F7E8093E2008091E20081608093E0
:10560000E2008091EF04882311F084E007C08091CC
:10561000E30087FD02C081E001C083E08093F304D2
:105620000E94DA268091E10083FF29C08091E20088
:1056300083FF25C08091E100877F8093E10082E0B5
:105640008093F3041092EF048091E1008E7F8093A9
:10565000E1008091E2008E7F8093E2008091E20081
:1056600080618093E20042E060E080E00E947B295C
:105670008091F00088608093F0000E94CE26FF9118
:10568000EF91BF91AF919F918F917F916F915F91BA
:105690004F913F912F910F900FBE0F901F90189533
:1056A0001F920F920FB60F9211242F933F934F9397
:1056B0005F936F937F938F939F93AF93BF93CF939A
:1056C000DF93EF93FF93C091E900CF708091EC00DE
:1056D000D82FD17080FDD0E81092E9008091F000C1
:1056E000877F8093F00078940E94942B1092E900B9
:1056F0008091F00088608093F000CD2BCF70C09334
:10570000E900FF91EF91DF91CF91BF91AF919F9110
:105710008F917F916F915F914F913F912F910F905A
:105720000FBE0F901F901895AAE2B0E0EAE9FBE2E5
:105730000C945A30E4EFF4E08091F100819324E07E
:10574000EC3FF207C9F70E94FA268091E80083FF38
:105750002EC18091F4049091F504492F50E04A3015
:10576000510508F024C1FA01E056FF4F0C94453072
:10577000803821F0823809F01AC108C08091F00405
:105780009091F104992389F082600FC08091F80410
:105790008F70873008F00BC18093E9008091EB0097
:1057A00085FB882780F91092E9009091E800977FA7
:1057B0009093E8008093F1001092F100D1C0282F5F
:1057C0002D7F09F0F4C0882319F0823061F0EFC01A
:1057D0008091F604813009F0EAC0933009F080E04E
:1057E0008093F1042EC08091F60481112AC080912B
:1057F000F8048F702FEF280F263008F0D8C0809360
:10580000E9002091EB0020FF1CC0933021F480912F
:10581000EB00806214C09091EB0090619093EB00DC
:1058200021E030E0A90102C0440F551F8A95E2F73C
:105830004093EA001092EA008091EB008860809328
:10584000EB001092E9008091E800877F8093E800E8
:105850000E94B029ACC08111AAC01091F6041F7734
:105860008091E3008078812B8093E3008091E800B1
:10587000877F8093E8000E94B0298091E80080FF34
:10588000FCCF8091E30080688093E300111102C097
:1058900082E001C083E08093F30489C080588230A5
:1058A00008F085C08091F6049091F7048C3D53E098
:1058B000950779F583E08A838AE289834FB7F89464
:1058C000DE01139620E03EE051E2E32FF0E050933A
:1058D0005700E49120FF03C0E295EF703F5FEF7047
:1058E0008E2F90E0EA3010F0C79601C0C0968D93DD
:1058F0009D932F5F243149F74FBF8091E800877F48
:105900008093E8006AE270E0CE0101960E94BC2814
:1059100016C06091F8047091F904AE014F5F5F4FBB
:105920000E940028BC01892B09F441C09091E80035
:10593000977F9093E80089819A810E941A2980912B
:10594000E8008B778093E80032C0803881F5809141
:10595000E800877F8093E8008091EF048093F10056
:105960008091E8008E7772CF811121C08091F6047A
:105970009091F70499270297D4F48091E800877FEB
:105980008093E8008091F6048093EF040E94B02990
:105990008091EF04811106C08091E30087FD02C071
:1059A00081E001C084E08093F3040E94E5268091A9
:1059B000E80083FF0AC08091E800877F8093E800B9
:1059C0008091EB0080628093EB00AA96E3E00C9458
:1059D00076300895CF938091F3048823A1F0C0918D
:1059E000E900CF709091EC00892F817090FD80E8E4
:1059F000C82B1092E9008091E80083FD0E94942B4F
:105A0000CF70C093E900CF9108955058BB27AA27C3
:105A10000E941D2D0C94302F0E94222F38F00E94DE
:105A2000292F20F039F49F3F19F426F40C941F2FEE
:105A30000EF4E095E7FB0C940B2FE92F0E94412F09
:105A400058F3BA17620773078407950720F079F4B3
:105A5000A6F50C94632F0EF4E0950B2EBA2FA02D13
:105A60000B01B90190010C01CA01A0011124FF270B
:105A7000591B99F0593F50F4503E68F11A16F04006
:105A8000A22F232F342F4427585FF3CF4695379505
:105A90002795A795F0405395C9F77EF41F16BA0BCA
:105AA000620B730B840BBAF09150A1F0FF0FBB1F78
:105AB000661F771F881FC2F70EC0BA0F621F731FC1
:105AC000841F48F4879577956795B795F7959E3F1E
:105AD00008F0B0CF9395880F08F09927EE0F9795AF
