:100000000C94A5020C94DD020C94DD020C94DD022C
:100010000C94DD020C94DD020C94DD020C94DD02E4
:100020000C94DD020C94DD020C94F3280C94C72987
:100030000C94E4230C94DD020C94DD020C94DD029C
:100040000C94DD020C94DD020C94DD020C94DD02B4
:100050000C94DD020C9487240C94DD020C94DD02D8
:100060000C94DD020C94DD020C94DD020C94DD0294
:100070000C94DD020C94DD020C94DD020C94DD0284
:100080000C94DD020C94DD020C94DD020C94DD0274
:100090000C94DD020C94DD020C94DD020C94DD0264
:1000A0000C94DD020C94DD020C94DD022900140096
:1000B0001A000800150017001C0018000C001200A0
:1000C00013002E002B0004001600070009000A0090
:1000D0000B000D000E000F0000002800E1001D00C5
:1000E0001B0006001900050011001000360000007A
:1000F00037004C00E000E300E2002C41000000006B
:100100002C420000000038002D002D0201004A00A2
:1001100052004D002F003000010001002402310286
:10012000047E01000100500051004F00260227020A
:10013000010001003300340000002A0001001D010D
:100140001B0106011901010001000100010000006E
:100150000100010001000100010001000000000099
:100160002C430000000001000100010001001E00FE
:100170001F0020002100220023002400250026006B
:1001800027000100270021002200230001000100B8
:10019000010001003300340000002A0001002400A7
:1001A00025002600010001000100010001000000FF
:1001B000010001000100010001002C4300000000CB
:1001C000010000000000010001000100007ED100DC
:1001D000CD00D2003A003B003C00010001000100CC
:1001E00001000100017ECF00CE00D0003D003E00A6
:1001F0003F000100010001000000057E0100D90060
:10020000D300DA00400041004200430044000000F7
:100210004500010001000100010001000000000094
:1002200001000000000001000100007C000101014C
:1002300001010101010102020202020202020203A3
:100240000303030303030304040404040404050573
:100250000505050606060606070707070708080836
:1002600008090909090A0A0A0B0B0B0C0C0C0D0DE5
:100270000D0E0E0E0F0F0F1010111111121213137D
:100280001414151516161717181819191A1A1B1BF6
:100290001C1D1D1E1E1F2020212222232424252652
:1002A00026272829292A2B2C2D2D2E2F303132328A
:1002B000333435363738393A3B3C3D3E3F40414296
:1002C000434445464748494A4C4D4E4F505153547C
:1002D000555658595A5B5D5E5F6162646566686930
:1002E0006B6C6D6F7072737577787A7B7D7E8082B0
:1002F000838587888A8C8E8F91939596989A9C9EF9
:10030000A0A2A3A5A7A9ABADAFB1B3B5B7BABCBE08
:10031000C0C2C4C6C9CBCDCFD1D4D6D8DBDDDFE2D5
:10032000E4E7E9EBEEF0F3F5F8FAFDFF000000007A
:10033000000000002A2B2800000000000000000040
:100340000000000000000029000000002C1E3420E6
:10035000212224342627252E362D3738271E1F200C
:100360002122232425263333362E37381F04050651
:100370000708090A0B0C0D0E0F1011121314151695
:100380001718191A1B1C1D2F3130232D3504050693
:100390000708090A0B0C0D0E0F1011121314151675
:1003A0001718191A1B1C1D2F3130354C0000000086
:1003B000000000000000000000000000000000003D
:1003C000000000000000000000000000000000002D
:1003D0007E0F00D4FFFFFFC7000000780C0346002B
:1003E0006500620034003000000012036600650002
:1003F00062007200650065007A0065000000040379
:10040000090409023B00020100A0FA0904000001EE
:1004100003010100092111010001224400070581A7
:100420000308000109040100010300000009211173
:1004300001000122B600070582032000011201001D
:100440000200000008646942000001010200010589
:10045000010902A10185020901A10005091901296B
:10046000081500250195087501810205010930096B
:10047000311581257F95027508810609381581257A
:100480007F950175088106050C0A38021581257FC4
:10049000950175088106C0C005010980A101850389
:1004A00019012AB700150126B700950175108100C2
:1004B000C0050C0901A101850419012AA00215013A
:1004C00026A002950175108100C005010906A10151
:1004D0008506050719E029E715002501950875012E
:1004E00081020507190029EF1500250195F0750116
:1004F00081020508190129059505750191029501EB
:1005000075039101C005010906A101050719E0293C
:10051000E71500250195087501810295017508818F
:10052000010507190029FF150026FF00950675082B
:10053000810005081901290515002501950575019A
:100540009102950175039101C00011241FBECFEFE8
:10055000DAE0DEBFCDBF04B603FE18C080916C04A4
:1005600090916D04A0916E04B0916F048730904B10
:10057000A740B04B59F410926C0410926D04109285
:100580006E0410926F04E0E0F8E3099512E0A0E039
:10059000B1E0E8E4FFE502C005900D92A236B10794
:1005A000D9F724E0A2E6B2E001C01D92AC36B20752
:1005B000E1F70E943B170C944E2F0C9400004F92D1
:1005C0005F926F927F928F929F92AF92BF92CF92E3
:1005D000DF92EF92FF92CF93DF93CDB7DEB72897EC
:1005E0000FB6F894DEBF0FBECDBFE62EF42E682FF7
:1005F00070E090E080E00E94832C20E030E04FE744
:1006000053E40E94E02B4B015C016E2D70E090E002
:1006100080E00E94832C20E030E04FE753E40E940A
:10062000E02B2B013C016F2D70E090E080E00E94F8
:10063000832C20E030E04FE753E40E94E02B6D83F1
:100640007E838F8398879B01AC01C301B2010E9416
:10065000BE2C9B01AC01C501B4010E94BE2C6B01F4
:100660007C012D813E814F815885C301B2010E94DA
:10067000DD2C9B01AC01C501B4010E94DD2C9B0166
:10068000AC01C701B6010E946E2B69837A838B830C
:100690009C8320E030E0A9010E94DB2B882309F431
:1006A000B3C0A7019601C501B4010E94DB2B8111E3
:1006B0006FC02D813E814F815885C301B2010E94D8
:1006C0006E2B29813A814B815C810E94E02B20E0D6
:1006D00030E040EC50E40E94072D20E030E040E79D
:1006E00052E40E94D32D4B015C0120E030E0A901CF
:1006F000C701B6010E94DB2B412C512C320188230B
:1007000051F0A701960169817A818B819C810E94B9
:10071000E02B2B013C0120E030E04FE753E4C50122
:10072000B4010E94D32D20E030E044EB53E40E945A
:10073000E02B0E94522CA62E20E030E04FE753E43D
:10074000C301B2010E94D32D0E94522CB62E20E08C
:1007500030E04FE753E4C701B6010E94D32D0E9459
:10076000522C862FB50128960FB6F894DEBF0FBE27
:10077000CDBFDF91CF91FF90EF90DF90CF90BF90F2
:10078000AF909F908F907F906F905F904F90089563
:10079000A7019601C301B2010E94DB2B811115C094
:1007A000A50194016D817E818F8198850E946E2BB9
:1007B00029813A814B815C810E94E02B20E030E06E
:1007C00040E050E40E946F2B88CFA70196016D8115
:1007D0007E818F8198850E94DB2B811111C0A3013E
:1007E0009201C501B4010E946E2B29813A814B818F
:1007F0005C810E94E02B20E030E040E850E4E2CF52
:1008000060E070E0CB0169CF812C912C54016DCF59
:1008100080936C0260936B0240936A022091B00156
:100820003091B101232B19F440E060E080E00E9498
:10083000DF02962F672F482F892F90E00E94401EDD
:10084000089580E20E94B61E0E94EF1D8091B001C3
:100850009091B10181309105B1F082309105C9F0DC
:10086000892B51F40E94DD1D80E00E940D1E40E0A6
:1008700060E080E00E94811B80E00E94880C83E0A1
:100880000E94880C08950E94DD1D82E00E940D1ECA
:10089000F3CF0E94DD1D81E0F9CFCF93C0E081301E
:1008A0009E47A9F4FB01C581CC23D1F08091B00112
:1008B0009091B1012091AE013091AF018217930761
:1008C00049F41092B1011092B0010E9421048C2FC2
:1008D000CF91089501969093B1018093B001F5CF27
:1008E000C1E0F5CF20916A0240916B0260916C02E9
:1008F00088E190E00E94C81A81E00895823071F08A
:10090000833041F0813071F44FEF6BE385E00E945A
:100910000804089540E06FE68FEFF9CF4AE46FEFE7
:1009200083E0F5CF80916702909168024FEF0197C5
:1009300011F46FEFF1CF60E088E8E9CF0F931F93D8
:10094000CF938C010E946508C82F809169028C1793
:1009500029F08C2F0E947E04C0936902C801CF91B8
:100960001F910F91089580E00E947E040E9421044F
:1009700080E00E94880C0895FC0181E0309729F006
:1009800091E08081811190E0892F81700895CF934B
:100990000E94E210C82F0E94F810C82B0E940B1171
:1009A0008C2BCF9108950E94F5108FEF0E940111BA
:1009B0008FEF0E942E118FEF0E94EB100895982F59
:1009C000917161E009F460E071E0982F947409F48A
:1009D00070E031E0982F987809F430E0827291E06D
:1009E00009F490E0832F089581159E47A9F4FB0137
:1009F0008581882389F08091670290916802019631
:100A00008230910528F490936802809367020895DC
:100A1000109268021092670208950F931F93CF936C
:100A2000DF93EC018B010E94E210F801958199237C
:100A300079F0AB9741F48D7D31F081E00E94880C14
:100A400081E080936602DF91CF911F910F9108950D
:100A5000809166028823B9F39E012B7F81E0223EBC
:100A6000310509F080E08170233E310531F480E0EA
:100A70000E94880C10926602E6CF8111F8CFC03E2A
:100A8000D10509F7F4CFEF92FF920F931F93CF9305
:100A9000DF937C01CB01D42FF901C581C11107C0BF
:100AA000C0E08C2FCDB7DEB7E6E00C94D72E0E94C5
:100AB000E2068C010E94BC048111F2CFC7010E94A2
:100AC00069070E94D304C8010E944A218D2F0E9409
:100AD000F210E7CFFF920F931F93CF93DF938C0118
:100AE000EB01F42E90528115904320F4F901868198
:100AF000807FB9F02097A9F00E94D304C8010E941A
:100B00006907CE010E945307D0936502C093640227
:100B10008F2D0E94F21080E0CDB7DEB7E5E00C9497
:100B2000D82E81E0F9CF8091640290916502009700
:100B300041F00E946907109265021092640280E001
:100B4000089581E008950E94B30408954F925F9242
:100B50006F927F929F92AF92BF92CF92DF92EF926D
:100B6000FF920F931F93CF93DF93D82FC92F8B0141
:100B70000E944D04882389F080E0DF91CF911F917E
:100B80000F91FF90EF90DF90CF90BF90AF909F902C
:100B90007F906F905F904F9008950E94C704982EA9
:100BA000B8018D2F9C2F0E94F404B8018D2F9C2F2B
:100BB0000E940D05892D0E94DF042B013C01BC0120
:100BC000A2018D2F9C2F0E9427067C016C01892B8E
:100BD00011F4CD2EDC2E2091670230916802B30112
:100BE000A201C6010E94D0065C01009709F06C01C9
:100BF0009801492DB6018D2F9C2F0E94430581112C
:100C0000BBCFEA28FB2881E0EF2809F4B6CFF80132
:100C10008581882341F09801492DB6018D2F9C2FA5
:100C20000E946A05AACF0E949305A7CF8C3222E4C6
:100C3000920751F08C3223E4920731F08C329144C8
:100C400019F088EC90E008958DE790E008958932DE
:100C5000910541F451119EC0772309F49EC085E3AC
:100C600090E008958832910531F4772309F495C016
:100C70008AE290E008958433910529F471118FC0C0
:100C800084E392E008958D3222E0920721F47723E5
:100C900009F483C008958E32910521F4772309F475
:100CA0007CC008958F32910531F4772309F475C023
:100CB00086E392E008958033910531F4772309F4B7
:100CC0006CC087E392E00895863222E0920731F407
:100CD000772309F462C08FE292E00895873222E020
:100CE000920731F4772309F458C080E392E0089525
:100CF000843222E0920731F4772309F44EC083E076
:100D00009EE70895813322E0920731F4772309F4B6
:100D100044C082E09EE708958633910529F4772345
:100D2000E1F18EE192E008958733910529F477236C
:100D3000A1F188E392E008958833910529F477239F
:100D400061F181E390E008958A34910529F4442308
:100D500021F18BE490E008958D34910529F444232A
:100D6000E1F08EE490E008958632910529F477232E
:100D7000A1F085E392E008958D32910529F477235F
:100D800061F087E590E0089585309E4731F488E270
:100D900092E108958BE290E0089590E080E008955C
:100DA0002130310561F4833E910531F0823E910599
:100DB00031F48EE690E008958DE690E0089590E09D
:100DC00080E0089582302EE7920751F083302EE7BD
:100DD000920749F084309E4749F484ED91E00895EC
:100DE0008EEC91E0089581ED91E0089583ED91E01E
:100DF00008958430B8F46430A8F44C3098F450E08E
:100E00009CE0699F400D511D1124FA0190E3899FD8
:100E1000E00DF11D1124EE0FFF1FE455FF4F8591EA
:100E20009491089581E090E008950E94F906089554
:100E30009C013A9521153F4150F5FC01EE27F170D8
:100E4000BC0166277270AC01442754709C012227B4
:100E5000387094FF0EC080E1EF2B09F480E0672B1F
:100E600009F08062452B09F08064232B89F08068AB
:100E7000089581E0EF2B09F480E0672B09F0826090
:100E8000452B09F08460232B19F08860089580E0D9
:100E90000895CF93DF93EB010E941807FE01099597
:100EA000DF91CF910895CF93DF93EC01805E91099C
:100EB000089720F06AEE7BE0209711F46CEA79E065
:100EC000CE010E9449078C2F0E940B09DF91CF9120
:100ED0000895CF93DF93EC010E945809CE01805E04
:100EE0009109089720F061EF7BE0209711F463EB04
:100EF00079E0CE010E944907DF91CF91089581E00A
:100F000008950E947F07089581E008950E94A60534
:100F1000089508950E9489070895A6E0B0E0E3E9E6
:100F2000F7E00C94BE2E49835A839E83309172025F
:100F300089819A8131111AC03E81332399F022238D
:100F400089F00E945A0D182F682F89819A810E947A
:100F5000360D69817A81812F0E949F142696E3E0E5
:100F60000C94DA2E0E94480D182FF3CF0E945A0DD0
:100F700069817A81F1CFFC01262F40815181628104
:100F80007381848195810E948D070895CF93DF93AB
:100F9000EC0161E00E94BB07BE010E948107DF9166
:100FA000CF910895CF93DF93EC0160E00E94BB07DF
:100FB000BE010E948A07DF91CF91089508950E9493
:100FC0000E0C0E94DE072FEF84E39CE0215080404E
:100FD0009040E1F700C0000008950E94DF070E94E2
:100FE000AB2408950E94DF070E94CF2408950F9339
:100FF0001F93CF93DF938C0161E00E94BB07EC014C
:10100000B8010E948607811106C080E0DF91CF9170
:101010001F910F910895B801CE010E94E721882306
:10102000A1F3B801CE010E94AB1F882371F3B80170
:10103000CE010E944E21882341F3B801CE010E94C7
:10104000281F882311F3F8018581882361F0C330BC
:10105000FCE7DF07E9F058F4C115ECE7DE07A9F07B
:10106000C130DC47B9F0C8010E948407CFCFCB352F
:101070008CE7D807A9F0CC35ECE7DE0771F0CA356C
:10108000DC4789F70E94DD11EECF0E94ED07BDCF4E
:101090000E94E5110E94F207B8CF0E94D311E3CF5E
:1010A0000E94E111E0CF0E94C0230E94841C0E9494
:1010B000A60881E00E94A71D08950E94AA0880E06A
:1010C0000E94A71D0E94C5230895292F332740E0C1
:1010D0002115310511F0C90148E09C0164E0369505
:1010E00027956A95E1F72115310511F04C5FC9018B
:1010F0009C0136952795369527952115310511F0D8
:101100004E5FC90196958795892B09F04F5F842F13
:101110000895089581E008950895CF93DF93D82F1F
:101120000E948A08C82F882319F08D2F0E948C08EE
:101130008C2FDF91CF9108950895CF93C82F0E94EF
:1011400089088C2F0E948D08CF91089580E00E941D
:101150009D0808950E9430220E949D080895CF9313
:101160000E943022C82F80916D028C1779F0C093B5
:101170006D020E94502460936E0270936F02809300
:101180007002909371028C2F0E949D08CF91089558
:10119000ADE0B0E0EEECF8E00C94BF2E4887598744
:1011A0006A877B878C879D8791110E9408111F8217
:1011B00086E0FE013896DE01119601900D928A9527
:1011C000E1F78D8181110DC029813A814B815C81CC
:1011D0006D817E818F810E9435102D96E2E00C9406
:1011E000DB2ECE0101960E94C6078111EDCFF5CF0F
:1011F000FC012481213021F4808191810E948C0D99
:101200000895662329F00E94D2170E94A518089518
:101210000E942C18FACFCF93C82F8823B9F08CEFF7
:101220008C0F813AA8F46C2F8091B2019091B30198
:101230000E94C322882329F08C2F0E94C2100E9492
:1012400044118C2F0E94BA100E944411CF9108952E
:1012500080E28C0F883048F4C77081E001C0880FAD
:10126000CA95EAF70E94E510EFCFEBE5EC0FE3300B
:1012700040F4F0E0E35FFD4F808190E00E94652242
:10128000E5CFE8E5EC0FEB3150F4F0E0EE0FFF1F97
:10129000E952FE4F808191810E948A22D7CF83E359
:1012A0008C0F833198F661E08C2F0E940109CECF1C
:1012B000882381F19CEF980F913A28F40E94C21084
:1012C0000E944411089590E2980F983050F487706E
:1012D00091E001C0990F8A95EAF7892F0E94EB10DF
:1012E000EFCF9BE5980F933028F490E080E00E94C8
:1012F0006522089598E5980F9B3128F490E080E0EE
:101300000E948A22089593E3980F933118F460E0C5
:101310000E94010908951F93CF93DF93182FEB01CB
:101320000E940B09209739F4812F0E945809DF9100
:10133000CF911F9108958FE99FE00197F1F700C0C9
:1013400000002197EFCF70E060E0893311F460E591
:1013500070E00E948B090895882321F00E94E51017
:101360000E9444110895882321F00E94EB100E94EE
:1013700044110895B0E0A0E0E0ECF9E00C94B82E40
:101380006C01D62FC72FFC011581068102950F70C5
:101390000E94DB10E82E8823E9F0E12E1123D1F022
:1013A0008C2F807F803451F080E28D0F8830F8F0F0
:1013B000011104C08C2F807E8032C9F08091970388
:1013C00082FF15C082E00E94A7110E94DB1091E00D
:1013D000E82EE926BC2EB2949FE0B922FBE0FB1573
:1013E000B8F1EB2DF0E0E05BF04D0C94A92EE12C70
:1013F000F1CF0C2F0F70C07F11F00295007F1123E9
:1014000099F0002359F080E28D0F883010F0D1114F
:1014100007C0802F0E94E5100E9444118D2F5AC0F2
:10142000802F0E94FB10F8CF8D2F0E9458090023B7
:1014300079F080E28D0F883010F0D11104C0802F38
:101440000E94EB1003C0802F0E9401110E944411E2
:10145000EB2DE850FF0B349720F40E9430220E94BD
:101460009D08EE2089F00E94D71080FD0DC0F60186
:1014700015820E94D1100E94940CC6010E94C70BD5
:101480000E94D1100E94A40CCDB7DEB7E9E00C9405
:10149000D42E2C2F2F70F22EC07FC03219F0F29470
:1014A00080EFF822DD2341F0D130D1F1112309F48E
:1014B00044C00023F1F0B2CF8091970382FD15C0A4
:1014C000112359F0FF2029F08F2D0E94E5100E9472
:1014D000441180E00E940B09BBCF80E00E945809B4
:1014E000FF2009F4B5CF8F2DABCF112369F0011187
:1014F00004C08F2D0E94AC09ABCF013009F0A8CFFA
:101500008F2D0E942211A4CF0111A2CF8F2D0E94F6
:10151000B3098F2D0E942E118F2D0E94121198CF8A
:10152000112321F0063008F093CFE3CF053008F007
:101530008FCF8F2D0E94B3098BCF0023D1F3D933E6
:1015400049F43FEF87EE93E0315080409040E1F75F
:1015500000C000008D2F0E9458097ACF8C2F8695ED
:101560008695837069F0813009F072CF8D2F9C2FA2
:101570009370111102C080E090E00E948A2268CF2F
:101580008D2F9C2F9370111102C080E090E00E947B
:1015900065225ECF612F8D2F0E94010959CF8C2FBC
:1015A0008370A1F5111154CF4D2F42954695477088
:1015B000440F440F2D2F2F7030E0042E02C0220F55
:1015C000331F0A94E2F790E080E0D4FF09C08FE077
:1015D00090E002C0880F991F4A95E2F78095909598
:1015E000C695C695C370822B932BC23049F058F430
:1015F000C13019F00E94670C2BCF0E945E0C28CFDF
:101600000E94700C25CF0E945B0C22CF869511237F
:1016100011F08C2F8170882309F41ACF4D2F429539
:1016200046954770440F440F2D2F2F7030E0042E45
:1016300002C0220F331F0A94E2F790E080E0D4FF4B
:1016400009C08FE090E002C0880F991F4A95E2F729
:1016500080959095C695C695C370822B932BC2300A
:1016600049F058F4C13019F00E94CF0CF1CE0E941D
:10167000C60CEECE0E94D80CEBCE0E947C0CE8CEBD
:10168000CF70112329F08C2F0E94940C8D2F32CF14
:101690008D2F0E94B3098C2F0E94A40CD9CED23F6B
:1016A00041F160F4D03FB9F0D13F81F0112309F44A
:1016B00046C00111B3CE8C2F8F711FC0D33F01F1F3
:1016C000D43FA1F78091970382FD24C08C2F8F71A6
:1016D000112311F312C0112341F0053008F0B8CEE8
:1016E0008C2F8F710E94B60CB3CE063008F0B0CEAE
:1016F000F7CF8C2F8F711111CFCF0E94940CA8CEF1
:10170000112329F08C2F8F710E94880CA1CE0E948A
:10171000830C9ECE112349F0CF718C2F0E94940C24
:1017200063E08C2F0E94891193CE81E00E94A71163
:10173000023008F48DCE82E00E94A71189CE0023EA
:1017400059F0D93309F006CFEFEFF7EE23E0E1507F
:10175000F0402040E1F7FCCE8C2F8F719DCF0F938E
:101760001F93CF93DF93EC01688179818D810E9473
:10177000970D8C010E94E10C0E945A0CB801CE0119
:101780000E94BA09DF91CF911F910F910895CF93D5
:10179000DF93EC018C81882399F0CE010E94F7073A
:1017A000811111C00E94DB10882351F08D818823A4
:1017B00039F08091970382FF03C082E00E94A71155
:1017C000DF91CF910895CE010E94AF0BCE010E9410
:1017D000D207F6CF882321F00E94FB100E9444110B
:1017E0000895882321F00E9401110E944411089558
:1017F00090E080E00E94652290E080E00E948A22D2
:101800000E9408110E9444110E94C1180E94A5184C
:1018100008950E94CA100E94F80B08950E94F510C6
:101820000E94090C089592959F70963091F058F49B
:10183000925F9F70923058F4803F19F030F4883EE8
:1018400030F481E008959A5FF4CF843FD1F380E0D3
:101850000895883EB0F3813FD1F7F3CFFC01248196
:10186000222339F0808191810E948C0D0E94130CFB
:10187000089580E00895A6E0B0E0E1E4FCE00C9477
:10188000BF2E2696E2E00C94DB2EA7E0B0E0EBE45E
:10189000FCE00C94BF2E2796E2E00C94DB2E08951A
:1018A0000E944F0C08950E94500C90938E028093DA
:1018B0008D02089508950E94530C089520918D0281
:1018C00030918E02822B932B0E94530C089520910D
:1018D0008D0230918E02822393230E94530C08952F
:1018E00020918D0230918E02822793270E94530C03
:1018F00008950E949E0408950E94790C90938C0292
:1019000080938B02089590E080E00E947C0C089503
:1019100021E030E0A90102C0440F551F8A95E2F78B
:10192000CA010E947C0C089521E030E002C0220F21
:10193000331F8A95E2F780918B0290918C02822B63
:10194000932B0E947C0C089521E030E002C0220F0E
:10195000331F8A95E2F72095309580918B02909104
:101960008C02822393230E947C0C089521E030E0B6
:1019700002C0220F331F8A95E2F780918B0290916B
:101980008C02822793270E947C0C089520918B0261
:1019900030918C02822B932B0E947C0C0895209115
:1019A0008B0230918C02822393230E947C0C089539
:1019B00020918B0230918C02822793270E947C0C0D
:1019C00008950895262F277091E001C0990F2A9558
:1019D000EAF723E0769567952A95E1F7660F771F7A
:1019E000660F771FFA01E60FF71F50E040E0682FFF
:1019F00070E08191DF0111979B01042E02C03695A2
:101A000027950A94E2F72170219528272923282772
:101A10002C934F5F5F4F4430510559F70895A82F1D
:101A2000A77023E0969587952A95E1F7880F991F6F
:101A3000880F991FFB01E80FF91F50E040E080E09C
:101A4000219130E00A2E02C0369527950A94E2F7DC
:101A500021703327042E01C0220F0A94EAF7822B4B
:101A60004F5F5F4F4430510559F70895262F94304A
:101A700070F48C3060F4682F70E08CE0989F600DFB
:101A8000711D112443E752E0822F0E94E20C089559
:101A9000292F943068F48C3058F490E063E772E0BA
:101AA0003CE0239F800D911D11240E940F0D08958D
:101AB00080E00895B0E0A0E0E0E6FDE00C94B82EF0
:101AC0007C0100918B0210918C0280918D0290918B
:101AD0008E02082B192BCFE0D0E0CC24C394D12C5C
:101AE000BC2EC6010C2E02C0880F991F0A94E2F783
:101AF00080239123892B49F4219790F7B12C8B2DCA
:101B0000CDB7DEB7E9E00C94D42EB7018C2F0E943C
:101B1000AB14019789F3F3CFCF93DF93EC010E94CD
:101B20005A0DBE010E94AB14DF91CF9108951F930F
:101B3000CF93DF93EB0190917202992339F0CB019F
:101B40000E948C0DDF91CF911F910895882369F039
:101B5000CB010E945A0D182F682FCE010E94360D1E
:101B6000BE01812F0E94AB14EDCFCB010E94480D26
:101B7000182FF6CF1F93CF93DF93C0918F0217E0FA
:101B8000809190028C1304C0DF91CF911F91089532
:101B9000D0E01C9FF0011D9FF00D1124EF56FD4F6A
:101BA00020813181428153816481758186810E94C7
:101BB000450C2196C770E4CF2091C9023091CA022A
:101BC0004091CB025091CC026091CD027091CE0237
:101BD0008091CF020E94450C0895482F20918F02DA
:101BE0009091900257E0291302C080E0089530E000
:101BF000529FF001539FF00D1124EF56FD4F81814C
:101C0000681306C08081481303C085818111EECF1F
:101C10002F5F3F4F2770E7CFB0E0A0E0E2E1FEE0AA
:101C20000C94BA2E8091CF02807F09F054C080912D
:101C3000CE02882309F44FC0E0918F0287E0D82EAE
:101C4000809190028E1709F446C00E2F10E0ED9D92
:101C5000F0011124EF56FD4F8481882309F440C020
:101C6000D09EE001D19ED00D1124FE01EF56FD4F14
:101C700091818091CA02981333C090818091C902EA
:101C800098132EC0858181112BC0E280F380809152
:101C9000CB029091CC02E81AF90A60E089EC92E05C
:101CA0000E94BB0769EC72E00E941606E816F9066E
:101CB000B8F48091CF028F7080618093CF02C956B3
:101CC000DD4F88818F708061888389EC92E00E946B
:101CD000C70B0E94BA0DCDB7DEB7E7E00C94D62E45
:101CE000F8013196E770ACCFA4E1B0E0EAE7FEE09E
:101CF0000C94B22E8C0186E0F801DE011F96019053
:101D00000D928A95E1F7F801F480E58089EC882E40
:101D100082E0982E8091CD02811126C0F11007C07B
:101D2000FF24F3948F2D6496EFE00C94CE2EEE20DA
:101D3000B9F0C8010E942E0CF82E882389F087E0A4
:101D4000F801A9ECB2E001900D928A95E1F789ECD7
:101D500092E00E94F8080E940C0E0E94DC0DE2CF77
:101D6000C8010E94C70BDCCF5080A180C280D38005
:101D7000B090CE028091CB029091CC023601681ACD
:101D8000790A60E089EC92E0BB2009F408C10E9466
:101D9000BB0769EC72E00E9416066816790608F027
:101DA000ABC0FF2009F4BCCF8091CF02382F307F29
:101DB0002091CA02F801918131115AC0FE2C2913D9
:101DC00016C02091C9029081291311C0E11049C0A9
:101DD0008F7080618093CF020E94DC0D89EC92E0CD
:101DE0000E94C70B8091CF02F80186839BCFE11040
:101DF00038C06A2D852D0E94ED0D6A2D852D0E941B
:101E0000ED0DE82E81118ECF5F86A88A8F85988987
:101E10000E948C0D292F22952F70243058F49F702A
:101E2000223088F0992399F0F8019681907F79F417
:101E3000FE2C78CF2A5F2F70223068F0C8010E94F4
:101E4000C70BEB2CF5CF992311F0882389F3805E23
:101E5000883070F3F3CF803F58F3815F833070F7A1
:101E6000E7CF8091CF0281608093CF02F12C5ACFCF
:101E7000291317C02091C9029081291312C0E110C3
:101E800010C08683C8010E94C70B87E0F801A9EC47
:101E9000B2E001900D928A95E1F70E94DC0DFB2CD7
:101EA00041CFC8010E942E0C882309F459CFEE209F
:101EB00009F456CF8091CF02803288F02091C90278
:101EC0003091CA0239872887DB86CA869091CD0275
:101ED0009C871D868E87CE0108960E94C70B87E0DF
:101EE000F801A9ECB2E001900D928A95E1F70E9409
:101EF0000C0E0E94DC0D14CF8091CF02982F907FA2
:101F0000B1F46C2DDA8AC98A452D5A2D7A898F2D24
:101F10009E2D0E943B0C89EC92E00E94C70B87E04B
:101F2000F40111928A95E9F70E94DC0D9FCFFF2002
:101F300009F4F6CE2091CA02F8019181291311C04B
:101F40002091C902908129130CC0E1100AC0868338
:101F5000C8010E94C70B87E0F40111928A95E9F746
:101F60009ECFC8010E942E0C882309F4F9CEEE20E2
:101F700009F4F6CE8091CF02803208F4B0CF2091E0
:101F8000C9023091CA023A832983DC82CB829091C4
:101F9000CD029D831E828F83CE0101969ECF0E942B
:101FA000BB0769EC72E00E9416066816790608F015
:101FB00051C0FF2009F4B4CEFE2CEE2009F4D0CE9F
:101FC0009091CA02F8018181981336C09091C9029C
:101FD0008081981331C08091CB029091CC02C81AB5
:101FE000D90AF8ECCF16D104F0F49091CF0290FD0D
:101FF0001AC0907FC1F08091CF02F8018683903F94
:1020000031F0982F907F905F8F70892B8683C80165
:102010000E94C70B87E0F801A9ECB2E001900D9295
:102020008A95E1F79ACE87E0F801A9ECB2E0019039
:102030000D928A95E1F776CEC8010E942E0C81118F
:102040004ECF8091CF0281608093CF02C8010E9461
:10205000C70B68CE6C2DDA8AC98A452D5A2D7A892C
:102060008F2D9E2D0E943B0C5ACFAEE0B0E0EBE3EB
:10207000F0E10C94BE2E288739874A875B876C87EE
:102080007D878E87CE0108960E94740E8823B1F05A
:102090006C85662341F0288539854A855B857D8579
:1020A0008E850E94450C17E080918F0290919002DE
:1020B00089133DC02E96E3E00C94DA2E87E0FE01F2
:1020C0003896DE01119601900D928A95E1F78C8584
:1020D000882349F32091900230E0C901019687706E
:1020E000992740918F024817190699F097E0929F1F
:1020F000D001939FB00D1124AF56BD4FFE01319614
:1021000001900D929A95E1F7809390020E94BA0D8A
:10211000CACF0E940E0C1092900210928F0287E09C
:10212000E9ECF2E0DF011D928A95E9F7BCCF819FCF
:10213000C00111248F569D4F0E94740E882309F40C
:10214000B9CFE0918F021E9FF0011124EF56FD4F91
:1021500020813181428153816481758186810E9411
:10216000450C80918F0290E00196877099278093AB
:102170008F029ACF682F8091B2019091B3010E9493
:1021800043230895682F8091B2019091B3010E947A
:10219000512308958091B2019091B3010E945F2371
:1021A00008958091F0028695869586950895809190
:1021B000F002877008959091F002977081E009F421
:1021C00080E0089580911403089590911403892B61
:1021D000809314030895809590911403982390930D
:1021E000140308958093140308951092140308951E
:1021F00080911303089590911303892B8093130307
:102200000895809590911303982390931303089554
:102210001092130308958091F202089508950E9488
:102220000E1108959091F102292F282331F0809505
:1022300089238093F1020E940F11089508950E944E
:102240001E1108959091F202292F2823281729F0B2
:10225000982B9093F2020E941F1108959091F20220
:10226000292F282331F0809589238093F2020E9440
:102270001F1108958091F202882329F01092F20232
:1022800080E00E941F110895CF93DF93E091B20187
:10229000F091B301809114038083E091B201F09139
:1022A000B301808190911303892B80839091F20276
:1022B000992381F0E091B201F091B3018081892BE3
:1022C00080838091B2019091B3010E94AF2281116D
:1022D0000E943A11C091B201D091B30140E250E0A6
:1022E00060ED72E0CE010E94E62E892B59F080E26B
:1022F000FE01A0EDB2E001900D928A95E1F7CE01CA
:102300000E943D22DF91CF91089508950E9485118A
:1023100008959091970392FF11C098E0899F9001D2
:102320001124622B6093F0020E94940C8091F002C1
:102330008695869586950E94861108950E94940C34
:1023400008951092F00280E00E9486110895909105
:10235000F002809589238093F002282F277069F47A
:10236000891759F09091970392FF07C0869586953B
:1023700086950E94A40C0E94A11108959091970344
:1023800092FB222720F9281769F080FB92F990939D
:10239000970380919603909197030E94061282E022
:1023A0000E94A71108958091970382FB882780F9E6
:1023B00091E089270E94BE11089581E00E94BE111C
:1023C000089580E00E94BE1108956FEF7FEF90E0C6
:1023D00080E00E94482F089590E080E00E94142F32
:1023E00021E0863E9E4F09F020E0822F089582E092
:1023F00090E00E940C2F089583E090E00E940C2F43
:10240000089584E090E00E94142F0895BC0184E0B8
:1024100090E00E94482F0895AB01BC018FE090E04E
:102420000E943C2F0895AB01BC0183E190E00E9423
:102430003C2F089560E070E0CB010E9413120895D4
:1024400060E070E0CB010E940C120E941A12089505
:10245000A8E0B0E0EEE2F2E10C94BF2E66EE7EEF73
:1024600090E080E00E94482F60E082E090E00E94CF
:102470002A2F60E083E090E00E942A2F10928E02C3
:1024800010928D0260E074E184E090E00E94482F99
:1024900060E086E090E00E942A2F6FEF87E090E0F6
:1024A0000E942A2F40E050E0BA0188E090E00E94AC
:1024B0003C2F60E084E290E00E942A2F60E087E1F8
:1024C00090E00E942A2F60E08CE090E00E942A2F8A
:1024D00060E08DE090E00E942A2F19821A821B8210
:1024E0001C821D821E821F82188648E050E068E12F
:1024F00070E0CE0101960E941A2F40E050E0BA0130
:1025000080E290E00E943C2F0E9420122896E2E098
:102510000C94DB2E0E9428120895682F8EE090E024
:102520000E942A2F0895A6E0B0E0E9E9F2E10C94B8
:10253000BD2E0E9444248C018091150390911603B6
:102540008017910781F019821A820E944424682F13
:1025500049815A81792F80E090E00E94C808109349
:102560001603009315032696E4E00C94D92E0E94DE
:102570005024609323037093240380932503909346
:10258000260360931F03709320038093210390938D
:1025900022030895089508950E94CA1208950E9482
:1025A000A305089581EA95E10E9448170E94CB1285
:1025B0000E94CC12089581E008950E94DB120895D4
:1025C0000E94DB120895089508950E94E3120E946C
:1025D000E41208950E94C0150E949C080E94401DAC
:1025E00008950E943B240E949C160E94EA12E6E98C
:1025F000F3E08081806880838091960390919703B7
:102600000E9406120E94CF120895A6E0B0E0EBE00F
:10261000F3E10C94B32E0E94DD1281110CC00E94D4
:1026200093120E94841C0E94E3180E94AF08269611
:10263000EEE00C94CF2E0E94B21627E1822E23E00A
:10264000922E640110E0F601E190F1906F01812F6C
:102650000E94E6151F5F143009F44EC0E816F90613
:1026600091F38091270381FD0E94EF150E94E012F3
:10267000682E10E0812F0E94E6157C01F401A190E4
:10268000B1904F018A159B0589F1A826BF2400E06F
:10269000CC24C394D12CC5018C219D21892BE9F038
:1026A00077247394C7018C219D21892B09F4712C07
:1026B000662071F009831A830E944424682F8B835B
:1026C0009C8349815A81792F81E0972D0E94C80807
:1026D000472D602F812F0E94871B0F5FCC0CDD1CC4
:1026E0000C30C9F6F4013297F182E0821F5F14309A
:1026F00009F60E94B71295CFE816F90609F0B1CF96
:102700008ECF1F93CF93DF930E94B014EC01C115BD
:1027100080E5D807F0F5C11580E4D80708F09CC023
:10272000C03ED10520F5CD3CD10508F082C0C83AA5
:10273000D10578F4C53AD10508F073C0C130D10590
:1027400019F1209709F1C430D105F0F4D0E0C0E0D0
:102750001BC0C33CD105D0F7C85AD0E0CC0FDD1F59
:10276000C05FDD4F0990D881C02DD4640DC0C11564
:1027700080E2D80708F0D1C0C11581E0D80708F081
:102780005AC0C83ED10510F7CE01DF91CF911F91FD
:102790000895C03682E5D80718F5C03482E5D80719
:1027A00008F06BC0C03282E5D80708F05FC0C115E1
:1027B00082E5D80708F497C02C2F2695269580E24D
:1027C000289F900111248C2F8370C1E0D0E002C0BB
:1027D000CC0FDD1F8A95E2F7C22BD32BDD68D4CF57
:1027E000C03A82E5D80760F4C03882E5D80708F41B
:1027F00059C0CF71D0E0DC2FCC27C46FD06AC4CFD2
:10280000C03C82E5D80708F462C0C03E82E5D80724
:1028100008F09CCFDC2FCC27CC27DF71C06FD06AAB
:10282000B3CFC55AD0E0CA5BDD4FC881D0E0D064D9
:10283000ABCFD065A9CF8D2F0E945215182FCE0196
:1028400099270E94B014C12FD0E0DC2FCC27CC27D1
:10285000DF71C82BD92B98CFCE0199270E94B014D5
:10286000CC27DF70C82BD92BD06A8ECFCF71D0E0A8
:10287000DC2FCC27C16FD06A87CF2C2F26952695C9
:10288000277080E2289F900111248C2F8370C1E073
:10289000D0E002C0CC0FDD1F8A95E2F7C22BD32B0C
:1028A000DC6872CF2C2F26952695277080E2289F12
:1028B000900111248C2F8370C1E0D0E002C0CC0FB6
:1028C000DD1F8A95E2F7C22BD32BDA685DCF8C2F00
:1028D0008F710E945215C82FD0E0DC2FCC27CC2757
:1028E000DF71D06251CF8C2F8F710E94521555E04D
:1028F000D695C7955A95E1F7CF70D0E0DC2FCC275D
:10290000282F30E084FF05C044E0220F331F4A9592
:10291000E1F7C22BD32BD06937CF8D2F8F710E9457
:102920005215182FCE0199270E94B014C12FD0E064
:10293000DC2FCC27CC27DF71C82BD92BD2CF462F49
:10294000743030F46C3020F4672F0E94150708951E
:1029500090E080E008950E949F140E9481130895E2
:1029600082389105B9F1B0F48133910509F47DC045
:1029700048F48932910509F46DC08A32910509F451
:102980007BC008958533910509F45FC089339105B3
:1029900009F10895833E9105D9F138F4803E9105FF
:1029A00029F1823E910579F10895863E9105D9F18C
:1029B000873E910509F43EC0843E910541F5209182
:1029C000970321FF24C08091960384FD19C087EEF0
:1029D00090E0089520919603237009F05AC0209149
:1029E000970323FF14C089E290E008952091960395
:1029F00020FD38C03091970330FF09C024FF43C049
:102A000090E080E008952091960322FDF7CF08958D
:102A10002091960322FD3AC03091970330FD39C0D2
:102A200024FFF5CFEDCF2091960323FFF0CF24FDB7
:102A3000E7CFCDCF2091960323FD2EC03091970391
:102A400031FFEECF84EE90E008952091960325FFAC
:102A5000DECFC9CF2091960325FD21C02091970399
:102A600023FFD5CF89E390E0D2CF2091960326FFB4
:102A7000CECF8AE290E008952091960326FFC7CF3B
:102A800081E390E0089583EE90E0089582EE90E077
:102A9000089580EE90E0089586EE90E0089585E335
:102AA00090E008959091960392FF10C041E0282F86
:102AB0002471243009F040E031E0282F28712830BB
:102AC00009F030E0431711F02CE0822793FF10C08B
:102AD00041E0282F2471243109F040E031E0282F13
:102AE0002871283109F030E0431711F02CE08227DB
:102AF0003091970330FF10C051E0282F2171213011
:102B000009F050E041E0282F2871283009F040E01A
:102B1000541711F029E0822731FF10C041E0282F1F
:102B20002171213109F040E031E0282F287128314E
:102B300009F030E0431711F029E0822794FD877EE9
:102B4000089580E008950E94E51108950E94B2164C
:102B50002FEF86E791E0215080409040E1F700C0E0
:102B600000000E94B21680E00E94E61580FF04C0BB
:102B70000E94A3150E94AB2408950E94A6150895F3
:102B80000E94EC11811102C00E948A120E94F7116A
:102B9000809327030E9401129093970380939603DA
:102BA0000E94BD150E94FC1190E00E945B0C809178
:102BB0008B0290918C020E94790C089508950E94D6
:102BC000DE15089508950E94E2150895E82FF0E0BB
:102BD000EE0FFF1FE056FC4F80819181089508950C
:102BE00080EA8A95F1F7089500C008950E94F015D3
:102BF0000895F894E82FE295EF70F0E031A1282FC6
:102C00002F7081E090E001C0880F2A95EAF7982F95
:102C10009095932391A392A1892B82A378940895F0
:102C2000CF93DF9385E90E94F91586E60E94F91596
:102C300086E30E94F91586EC0E94F915C9E4D2E0FA
:102C400089918F3F11F00E94F91582E0C535D807B0
:102C5000B9F7DF91CF910895AF92BF92DF92EF92D3
:102C6000FF920F931F93CF93DF938C01D62EC62F25
:102C7000D0E0CE018B5A9D4F7C01FC0120812F3F7B
:102C800009F44DC0F894E22FE295EF70F0E031A125
:102C90002F7081E090E001C0880F2A95EAF7932F0A
:102CA000982B91A392A18095892382A378940E9466
:102CB000F415E9E4F2E045E552E021E030E0B12C22
:102CC000A12C61916F3FA9F1A62FA295AF70B0E042
:102CD00090968C9190E06F7002C0959587956A955B
:102CE000E2F780FD26C0C901A82AB92A220F331FA6
:102CF0004E175F0731F7F70180818F3F11F00E9477
:102D0000F91561E0A114B10409F460E08D2D0E9471
:102D1000F615CC0FDD1FC00FD11FB982A882DF913D
:102D2000CF911F910F91FF90EF90DF90BF90AF90E8
:102D3000089590E080E0D8CF0E94101688E0E0EA85
:102D4000F3E0DF01982F1D929A95E9F7E8E9F3E0A7
:102D5000DF011D928A95E9F784E00E94ED160E943A
:102D6000DF150895A8E0B0E0E8EBF6E10C94BC2E86
:102D70008E010F5F1F4F88E0F80111928A95E9F7E5
:102D8000F12C6F2DC8010E942C16F394F4E0FF1271
:102D9000F8CF48E050E0B80188E993E00E94E62EC1
:102DA00021E0009709F420E0892B41F088E0F80148
:102DB000A8E9B3E001900D928A95E1F744E060EA5A
:102DC00073E088E993E00E94EE16182F0E94E31545
:102DD000812F2896E5E00C94D82E0895CF92DF92AB
:102DE000EF92FF921F93CF93DF936C017B01C42F6F
:102DF000222349F081E080932A030E944424909387
:102E000029038093280310912A0311110AC010E0AE
:102E1000812FDF91CF911F91FF90EF90DF90CF90A6
:102E2000089580912803909129030E945C240597BE
:102E300070F3D0E0CC0FDD1FAE01B601C7010E94D8
:102E4000E62E892B41F0AE01B601C7010E94F32E98
:102E500010922A03DDCF10E0FBCF0E9444260E948F
:102E6000F1120E94512608950E9456260E940513D1
:102E70000E94702608950E94DD230E942A260E9447
:102E8000D2120E942D170E9434170E94E512FBCF28
:102E900090936302809362020895282F35EB2303F9
:102EA000C001112497FF04C080589109892F08950B
:102EB00080589F4FFBCF8091310380FF0DC0609100
:102EC000B90170E0660F771F6038710570F5611504
:102ED000710569F1862F089581FF07C06091B901DE
:102EE00084E0689FB0011124EFCF6091B90182FDA9
:102EF0000AC0809130038823A9F02091B801609125
:102F0000B901821710F088E0ECCF869FC001112430
:102F100033E0880F991F3A95E1F7622F70E00E9425
:102F2000542ED2CF68E070E0D5CF8FE7089581E0CE
:102F300008958091310380FF0CC06091B50170E06D
:102F400075956795759567956115710549F1862F9A
:102F5000089581FF06C06091B50170E07595679591
:102F6000F3CF6091B50182FD0BC090912F0399239F
:102F7000A1F06091B4018091B501961738F0682FE7
:102F800070E06038710500F38FE70895899FC001F4
:102F9000112470E00E94542EF4CF61E070E0D7CF8E
:102FA00081E008958D3C31F40E945B1781958093F8
:102FB000350308958E3C19F40E945B17F8CF8F3CBF
:102FC00031F40E945B178195809334030895803D0E
:102FD00019F40E945B17F8CF893D29F40E949917D4
:102FE0008093360308958A3D21F40E9499178195B4
:102FF000F7CF8B3D31F40E94991781958093370369
:1030000008958C3D19F40E949917F8CF9FE2980F0C
:10301000983070F4815D990B21E030E001C0220FFF
:103020008A95EAF780913303822B809333030895C6
:103030008D3D31F480913103816080933103089597
:103040008E3D21F4809131038260F7CF8F3DB9F737
:10305000809131038460F1CF409134038D3C59F469
:103060008091350387FF0DC01092350341110BC0CD
:103070001092300308C08E3C81F4809135031816FD
:103080009CF3442381F08091360390913703892B80
:1030900009F05AC010922F0308958F3C49F447FF5E
:1030A000F0CF10923403809135038111ECCFE0CF43
:1030B000803D19F41416ACF3E4CF90913603893DAA
:1030C00029F41916F4F610923603DBCF8A3D19F471
:1030D00097FFD7CFF8CF909137038B3D29F497FF17
:1030E000D0CF10923703CDCF8C3D19F41916CCF305
:1030F000C8CF9FE2980F983090F4815D990B21E042
:1031000030E0B90102C0660F771F8A95E2F7CB0164
:10311000809590913303892380933303B2CF8D3D03
:1031200031F4809131038E7F80933103AACF8E3D9D
:1031300021F4809131038D7FF7CF8F3D09F0A1CF2E
:10314000809131038B7FF0CF08950E9444249C012D
:103150009091340380913503982B21F030932E0306
:1031600020932D039091360380913703982B21F003
:1031700030932C0320932B0382E393E00E94572289
:10318000089586E0E2E3F3E0DF011D928A95E9F716
:103190001092300310922F03109231030895FC0116
:1031A000828181110EC0838181110BC084818111C4
:1031B00008C091E08581811101C090E0892F817064
:1031C000089581E0FCCFA6E0B0E0E9EEF8E10C94D0
:1031D000BE2E86E0E2E3F3E0DE01119601900D924F
:1031E0008A95E1F71092340310923503109236035A
:1031F000109237038B819C81892B89F080912D035C
:1032000090912E030E945C24AC019091300399238D
:10321000C9F18091BA018417150608F440C08D8168
:103220009E81892B91F080912B0390912C030E9419
:103230005C24AC0190912F03992309F46AC080911A
:10324000B6018417150608F472C0BE016F5F7F4F88
:1032500082E393E00E947123811105C082E393E031
:103260000E94CF1881110E94A51886E0FE013196B8
:10327000A2E3B3E001900D928A95E1F72696E3E090
:103280000C94DA2E2091BB018AE0289F9001112432
:103290002417350720F69F5F9093300302C09F3FAD
:1032A000D1F71B81112359F00E945B179FEF111674
:1032B0000CF491E0899F802D1124809334031C81AC
:1032C000112359F00E945B179FEF11160CF491E047
:1032D000899F802D112480933503809134038823A6
:1032E00009F49DCF10913503112309F498CF0E9462
:1032F0004D17882351F080933403812F0E944D177E
:10330000882329F0809335038ACF81E0F4CF81E0D0
:10331000F9CF2091B7018AE0289F9001112424174A
:10332000350708F092CF9F5F90932F0302C09F3F15
:10333000D1F71D81112359F00E9499179FEF1116A3
:103340000CF491E0899F802D1124809336031E8117
:10335000112359F00E9499179FEF11160CF491E078
:10336000899F802D11248093370380913603882311
:1033700009F46BCF10913703112309F466CF0E9433
:103380004D17882351F080933603812F0E944D17EB
:10339000882329F08093370358CF81E0F4CF81E070
:1033A000F9CFEF92FF920F931F93CF93DF93EB012F
:1033B000E82FD1110EC0442321F0F0E0E45DFD4F71
:1033C000E4916E2F7E2F8E2FCDB7DEB7E6E00C9402
:1033D000D72E0D2F10E0282F30E0442329F0245D54
:1033E0003D4FF901249130E0F6E0CF9FC001112458
:1033F000EFEFF0E0BF010E94402EAB018C2F90E078
:10340000880F991FA5E5A49FB001A59F700D1124F9
:10341000861B970B982F990F980FBF01601B710B9C
:10342000629FD001639FB00D729FB00D11248B2F4E
:103430009D9FB0011124672F7727EF01C61BD70B83
:10344000BE01629FE001639FD00D729FD00D1124D9
:103450007F01E91AF108E09EB001E19E700DF09E37
:10346000700D1124672F7727E61BF70BE29F800171
:10347000E39F100DF29F100D1124E12F722F4230A7
:10348000510599F048F44115510569F04130510555
:1034900081F0EB2F8D2F07C04430510569F080F08B
:1034A00046305105B1F76E2F8FCFE22F7B2F812F42
:1034B000FACFE22F7D2FF7CFEB2F822F712FF3CF93
:1034C0007B2F822FED2FEFCF41E00E94D11908957D
:1034D00030E020E0869F212D969F200D311D112484
:1034E000C90108954095282F429F412D1124842F12
:1034F000089590913803892B80933803089548E00C
:1035000050E068E170E088EA93E00E941A2F109280
:10351000380308950E94641A0895E8EAF3E085E00C
:1035200080838091CB019091CC01A091CD018183CA
:103530009283A3838FE784838FEF85830E947F1A12
:10354000089580E008950F931F93CF93DF93C82FC2
:10355000D62F8A010E94A11A9CE0C99FB0011124B4
:1035600060507F4F6D0F711DFB0190819F3F29F0CF
:10357000F801E80FF11D90838F5FDF91CF911F91CC
:103580000F910895E0915F02F0916002099508950E
:10359000E0915B02F0915C0209950895B0E0A0E033
:1035A000E4EDFAE10C94B72E8C017B01FC01C081A3
:1035B00089E0C89FC02D112429E0B22EBC0EAB2C8F
:1035C000FAE2FB1510F49AE2A92E2091AC0331E047
:1035D000230F08F42FEF30E050E040E06FEF7FEF73
:1035E00080E090E00E948A2E6901D0E02C2FCA155D
:1035F00050F081E0F9E2FB1508F480E0CDB7DEB7CA
:10360000EAE00C94D32EFE01EC57FE4F8081F801C6
:103610009181892311F14091B4034150042E000C93
:10362000550B47FF1CC0C6016091AC0321E0620F3F
:1036300008F46FEF0E94681AAC016091A9037091C1
:10364000AA038091AB03F70109950E948A1A462FBD
:10365000282F672FCE010E94C81A2196C7CFFA01E2
:10366000EC54FC4F818982130AC0FA01EE0FFF1F50
:10367000EC54FC4F818D928D8C159D05A8F2415024
:103680005109CFCF62E77AE10E94CE1A0895B0E0E7
:10369000A0E0EDE4FBE10C94B82E7C01FC01C081BC
:1036A00089E0C89FC02D112419E01C0F012F1B3287
:1036B00008F00AE26091A9037091AA038091AB031C
:1036C0000E948A1AD62EC72EB82ED0E0C01748F016
:1036D00081E01A3208F080E0CDB7DEB7E9E00C9463
:1036E000D42EFE01EC57FE4F8081F7019181892392
:1036F00031F02B2D4D2D6C2DCE010E94C81A219634
:10370000E5CFE0915D02F0915E0209950895CF92B8
:10371000DF92FF920F931F93CF93DF93CDB7DEB766
:1037200028970FB6F894DEBF0FBECDBF182F062F17
:10373000F42E0E94DB12882309F44CC0FF2009F408
:1037400057C0AE014F5F5F4F602F812F0E94A31AB9
:10375000F82E0F2D10E080913903800F912F911DCD
:1037600009976CF188E090E06C01C01AD10AB801A9
:10377000665C7C4FA6018AE393E00E94F32EB801B9
:103780006E5B7C4FA60182E493E00E94F32EA601BB
:10379000440F551FB801660F771F6E5A7C4F82E5A4
:1037A00093E00E94F32EB801665B7C4FA6018AE489
:1037B00093E00E94F32E88E08F19809339031091D3
:1037C0003903DE01119640E0842F810FF41212C0FC
:1037D0008093390328960FB6F894DEBF0FBECDBF95
:1037E000DF91CF911F910F91FF90DF90CF900895BF
:1037F000F12CAFCF5D91252F30E090E0BC01675CEC
:103800007C4FF901EE0FFF1FE05DFE4F0081FB01D1
:103810000183220F331FF901E050FF4F21A9FB0163
:103820002187518B880F991FFC01E75CFC4F128E9A
:10383000118E4F5FC9CFCF93C82F8091C0018C13D9
:1038400037C09091A80393702091C10130E081E0CE
:103850009217130609F480E081708093BF01809174
:10386000AD039091BE01981739F08093BE0140E0FE
:1038700060E080E00E94811BC13031F1CC23D1F0A7
:10388000C23039F180E09091BD019F5F9093BD01FE
:1038900081110CC082E08093BC018091BF01811135
:1038A00005C0C11103C083E08093BC01CF9108958E
:1038B00081E0D2CF8091BF01882329F340E060E00E
:1038C00080E00E94811BDECF8DEB91E00E94471BC0
:1038D000DACF8DEB91E00E94421BD5CF0E9472049B
:1038E000089581E008950E94711C0895FC01808173
:1038F00099E0899F802D1124682F8B3208F06AE2AD
:1039000089500E94731C08954F925F926F927F922C
:103910008F929F92AF92BF92CF92DF92EF92FF92DF
:10392000CF936091620370916303809164039091DF
:1039300065030E946B246B017C010E9450244B01A3
:103940005C018092620390926303A0926403B09240
:103950006503A0913903E9E3F3E08A2F90E04FEF8C
:103960005FEF60E070E04C195D096E097F09A913F3
:103970002AC08093390380916603C0E0811108C09A
:103980008091A803C82FC37019F0C82FC695C6959B
:103990008091BC01813009F440C0882339F1823024
:1039A00009F44BC0833009F453C0CF91FF90EF90DE
:1039B000DF90CF90BF90AF909F908F907F906F904F
:1039C0005F904F900895218D328D2901712C612CCB
:1039D000441555056605770520F481509F5F3296A2
:1039E000C6CF2C0D3D1D328F218FF8CF1092BD0117
:1039F0008092B0039092B103A092B203B092B3034D
:103A000089E2E9E3F3E0A4EBB3E001900D928A953B
:103A1000E1F781E08093BC01C8CF8C2F0E941B1C72
:103A2000CC2319F28091BD01853011F40E946E1CE7
:103A30008DEB91E00E94761CB8CFC093C0018091BD
:103A4000A80383708093C1010E94C21A83E0E2CF71
:103A50008091380381110E947F1A6091B0037091A8
:103A6000B1038091B2039091B3030E946B24603143
:103A700071058105910508F498CF1092BC0195CF8E
:103A8000E0915902F0915A0209951092B4038FEF18
:103A90009FEF9093CE038093CD039093D0038093B8
:103AA000CF039093D2038093D1039093D403809358
:103AB000D3039093D6038093D5039093D803809338
:103AC000D7039093DA038093D9039093DC03809318
:103AD000DB03109239039093530380935203909326
:103AE0005503809354039093570380935603909308
:103AF00059038093580390935B0380935A039093E8
:103B00005D0380935C0390935F0380935E039093C7
:103B10006103809360030E94EC11811104C00E9434
:103B20008A120E948D1A81E08093380348E050E0A9
:103B300068E170E088EA93E00E94FC2E109238035E
:103B40008091A8038C7F11F40E948D1A0895CF9361
:103B5000C82F882391F08091660381110EC00E94C6
:103B60001B1C1092C0018091A80383708093C10137
:103B70000E94C21A83E08093BC01C0936603CF9178
:103B80000895E8EAF3E0908121E092279083109273
:103B9000BC010E94791A089581E00E94C11D089518
:103BA0008091A803837011F41092BC018091A80346
:103BB0008C7F81608093A80308950E94D01D81E0CE
:103BC0000E94791A08958091A803837011F01092D1
:103BD000BC018091A8038C7F8093A80308950E9464
:103BE000E31D81E00E94791A08959091A8039370D3
:103BF00051F0811109C094609093A8031092BC0108
:103C0000862F0E94791A0895833010F09860F4CFBF
:103C1000282F220F220F922BEFCF61E00E94F51D7B
:103C20000895682F9091A8039695969581E0890F45
:103C3000833008F081E00E94F51D089581E00E9424
:103C4000111E0895682F9091A803969596958FEF71
:103C5000890F09F482E00E94F51D089581E00E9419
:103C6000221E08959091A803937049F08093A903B0
:103C70006093AA034093AB03822F0E94791A0895A0
:103C800020E00E94321E0895A8EAB3E01196EC915C
:103C90001197F0E0282F13964C91139712966C9180
:103CA000CF0108960E94321E089581E00E94441EB2
:103CB0000895E8EAF3E09181282F43816281E92F9A
:103CC000E850FF0BCF010E94321E089581E00E9450
:103CD000591E0895E8EAF3E0628120E1620F08F4DA
:103CE0006FEF9181282F4381892F90E00E94321E2F
:103CF000089581E00E946A1E0895E8EAF3E0628177
:103D000020E1621B08F460E09181282F4381892F14
:103D100090E00E94321E089581E00E947D1E089569
:103D2000E8EAF3E0438120E1420F08F44FEF91818C
:103D3000282F6281892F90E00E94321E089581E031
:103D40000E94901E0895E8EAF3E0438120E1421BBF
:103D500008F440E09181282F6281892F90E00E9431
:103D6000321E089581E00E94A31E08958093AC0343
:103D700081E00E94791A0895E8EAF3E0248130E1B5
:103D8000230F08F42FEF24830E94791A089581E00D
:103D90000E94BC1E0895E8EAF3E0248130E1231B71
:103DA00008F420E024830E94791A089581E00E949B
:103DB000CB1E0895109267030895FC01EE0FFF1FBC
:103DC000DF01A80FB91FA352BC4F11963C91119768
:103DD000361307C03C91341304C012963C9132173D
:103DE00051F031E030936703E80FF91FE352FC4FC5
:103DF0006183408322830895FF920F931F93CF9393
:103E0000DF93182F062FF42ED0E0C0E02F2D402F87
:103E1000612FCE010E94DD1E2196CA32D105B1F775
:103E2000CDB7DEB7E5E00C94D82E809167038823E8
:103E300041F06AE270E08DED93E00E947F1F1092E6
:103E400067030895FA01811101C0FB0109950895E6
:103E50001F93CF93DF93EC01FB011581111110C06B
:103E60000E94E2108272FE01E052F847E531F1054E
:103E700008F043C0E45AF04D0C94A92E0E94CC1DCA
:103E8000812FDF91CF911F9108954EE25EE16EE1A7
:103E90007EE10E94221FF4CF4EE15EE16EE27EE100
:103EA000F8CF46E65EE165E57EE1F3CF45E55EE10C
:103EB00066E67EE1EECF4CE85EE169E77EE1E9CFC0
:103EC00049E75EE16CE87EE1E4CF42EB5EE16FE959
:103ED0007EE1DFCF4FE95EE162EB7EE1DACF46EDD6
:103EE0005EE167EC7EE1D5CF47EC5EE166ED7EE119
:103EF000D0CF81E00E940D1EC3CF11E0C1CF239A25
:103F000045B1477F55B15860EFB7F8949B01220F38
:103F1000331F260F371F280F391F2817390741F481
:103F2000EFBF8FE594E00197F1F700C0000008951E
:103F3000DC016D91CD0178E055B9000000C067FF4C
:103F400045B9660F000000C000C000C045B900C000
:103F50007A9591F7E2CFCF93DF93EC01FB01858156
:103F6000882309F4D2C09E0130572332310508F06E
:103F7000B2C00E9401129093970380939603FE01B2
:103F8000E150F047E232F10520F4EF58F04D0C9487
:103F9000A92E8091960381608093960393C08091AF
:103FA00097038860809397038DC080919603826009
:103FB000F3CF809196038460EFCF80919603886061
:103FC000EBCF809197038160EDCF80919703826062
:103FD000E9CF809196038061DFCF80919603806264
:103FE000DBCF809196038064D7CF0E940E0C809126
:103FF00096038068D1CF809196038C60CDCF80915D
:1040000097038360CFCF809196038E7FC5CF809139
:104010009703877FC7CF809196038D7FBDCF809117
:1040200096038B7FB9CF80919603877FB5CF809120
:1040300097038E7FB7CF809197038D7FB3CF809109
:1040400096038F7EA9CF809196038F7DA5CF809117
:1040500096038F7BA1CF0E940E0C809196038F77E1
:104060009BCF80919603837F97CF809197038C7F1E
:1040700099CF8091960382FB992790F921E09227AE
:1040800090FB82F990FB83F987CF80919703982F5B
:10409000909591708E7F892B90FB81F983CF9091C1
:1040A0009603892F8F7B96FF806476CF0E940E0C3B
:1040B00090919603892F97FB87F980586DCF81E007
:1040C0000E948D1280919603909197030E94061290
:1040D0000E940E0C80E0DF91CF91089580E0F0CF38
:1040E00090919603892F8F7E94FF806155CF909198
:1040F0009603892F8E7F90FF81604ECF909197031A
:10410000892F877F93FF88604DCF81E0E4CFB0E0B7
:10411000A0E0EDE8F0E20C94BA2EE82FF0E0E45DC8
:10412000FC4FD490282F26952695269530E0F9014E
:10413000E453FC4F0491877010E0082E02C01595DF
:1041400007950A94E2F701701127F901E454FC4F36
:10415000E490F12C082E02C0F594E7940A94E2F75B
:1041600091E0E922FF24F901E455FC4FC491D0E02D
:1041700002C0D595C7958A95E2F7C170DD27011574
:10418000110519F081EE0E940B09E114F10419F0F8
:1041900086EE0E940B098D2D0E94A309E114F10403
:1041A00019F086EE0E9458090115110519F081EEEB
:1041B0000E945809CD2B19F08CE20E94A309CDB7BB
:1041C000DEB7E7E00C94D62EEF92FF920F931F9389
:1041D000CF93DF93EC01162F0AE08881882309F43E
:1041E00054C0813009F04EC08981813099F47E013C
:1041F00022E0E20EF11C8A810E94A309E7012196C8
:10420000812F815050F3EFE9FFE03197F1F700C0C3
:104210000000F7CF823041F47E0182E0E80EF11C0D
:104220008A810E940B09EACF833041F47E01E2E0EB
:10423000EE0EF11C8A810E945809E0CF843011F003
:104240002196DDCF2A81229690E080E0AE014F5F7B
:104250005F4F2053330B2A30310548F0019778F235
:10426000EFE9FFE03197F1F700C00000F7CF089FBA
:10427000B001099F700D1124C901860F971F298174
:10428000EA01E4CF0E948720BACFCDB7DEB7E6E0DF
:104290000C94D72E60E00E94E4200895CF93DF9322
:1042A000EB0186319C4711F50E94E2109D81992314
:1042B00099F08A7A91E009F490E090936803811173
:1042C00009C089E20E94BA100E94441180E0DF9187
:1042D000CF91089585E3F6CF80916803811104C0E2
:1042E00089E20E94C210F0CF85E3FBCF81E0EFCFDF
:1042F000B0E0A0E0EEE7F1E20C94B72E7C015B01A8
:10430000C42FD22FFC0185818823C9F040936B0311
:104310000E94442490936A038093690380E28C0F87
:10432000883040F4C77081E001C0880FCA95EAF771
:104330000E94AC09CDB7DEB7EAE00C94D32E109101
:104340006B03141338C08091690390916A030E9433
:104350005C246C01B701C5010E941606C816D90677
:1043600050F5C0E2CD0F1D17C1F080E2810F8830FB
:1043700048F4177081E0012E01C0880F0A94EAF713
:104380000E94B309C83048F481E09D2F977001C0A6
:10439000880F9A95EAF70E94AC09802F0E94A30922
:1043A000C83040F6D77081E001C0880FDA95EAF78F
:1043B0000E94B309BFCF80E28C0F883008F0BACFDB
:1043C000C77081E001C0880FCA95EAF7F1CF0F935B
:1043D000DB0188519C4787309105A0F5FC01ED5623
:1043E000F04D0C94A92E06E221EE41EE6AE17CE745
:1043F000CD010E94782180E00F91089507E225EE1B
:1044000045EE6BE17CE7F4CF06E221EE40EE68E199
:104410007CE7EECF07E225EE44EE69E17CE7E8CFEA
:1044200006E221EE42EE6CE17CE7E2CF07E225EE08
:1044300046EE6DE17CE7DCCF08E221E045EE6EE17F
:104440007CE7D6CF15968C91882319F010926B03D8
:10445000D3CF81E0D1CF90937103809370030895FF
:10446000E0917003F0917103309729F00190F08191
:10447000E02D0995089580E00895E0917003F09192
:104480007103309799F02091CA01222359F02091AD
:10449000960327FF07C0DC012C9111962C931197EE
:1044A00026E02C930280F381E02D09950895E09198
:1044B0007003F0917103309739F022E0DC012C9306
:1044C0000480F581E02D09950895A3E0B0E0EBE6C6
:1044D000F2E20C94BF2E20916E0330916F032817E7
:1044E0003907A1F090936F0380936E03E0917003FE
:1044F000F0917103309751F023E029839B838A83E5
:104500000680F781E02DCE01019609952396E2E021
:104510000C94DB2EA3E0B0E0E0E9F2E20C94BF2EB5
:1045200020916C0330916D0328173907A1F0909307
:104530006D0380936C03E0917003F09171033097E9
:1045400051F024E029839B838A830680F781E02D44
:10455000CE01019609952396E2E00C94DB2EFC0136
:1045600032968091CA01882321F0809196039EE1C2
:1045700087FF96E080E0915008F40895219122236E
:10458000D1F38F5FF8CF662301F12091CA01222376
:10459000F1F02091960327FF1AC0462F46954695C5
:1045A00046954E3190F4677021E030E002C0220F52
:1045B000331F6A95E2F7840F911DFC01828190E020
:1045C0002823392381E0232B69F480E00895FC013E
:1045D000329608962191261721F0E817F907D1F7AE
:1045E000F4CF81E008959C01FC0132969FEF80E0BA
:1045F0004191461751F09F3F19F4411101C0982F86
:104600008F5F8630A9F79F3F09F40895290F311D68
:1046100097FD3A95F90162830895FC013296089658
:104620002191261303C0DF0111971C92E817F907A7
:10463000B9F70895E62FE695E695E695EE3168F42C
:10464000E80FF92FF11D677021E030E001C0220F63
:104650006A95EAF78281822B82830895E62FE69598
:10466000E695E695EE3170F4E80FF92FF11D6770CD
:1046700021E030E001C0220F6A95EAF7209582819F
:104680002823228308952091CA01222339F0209102
:10469000960327FF03C00E941A2308950E94F32265
:1046A00008952091CA01222339F02091960327FF13
:1046B00003C00E942E2308950E940D230895FC013B
:1046C00032968091CA01882351F08091960387FF2A
:1046D00006C08EE1DF011D928A95E9F7089586E014
:1046E000F9CFDC01FB0111969C9111978181981300
:1046F00022C012968C911297882319F09281891307
:104700001AC013968C911397882319F093818913FB
:1047100012C015968C911597882319F095818913ED
:104720000AC014969C91992321F081E024812913D9
:1047300003C080E001C081E08170089508950E9467
:104740009E230895811106C081E0809372030E9428
:104750009F23089582E0F9CF83E0809372030E9443
:104760009F2308950E94A223089581E080937203FD
:104770000E949F2308950E94B523089508950895E7
:104780000E94BF230895089508950E94BE230895AE
:10479000CF930E94C3230E94B2160E94C423C0E09C
:1047A0008C2F0E94E615892B31F4CF5FC430C1F7FE
:1047B00080E0CF91089581E0FCCF85B7806885BF08
:1047C00085B7806885BF08951F921FB61F92112478
:1047D0008F939F93AF93BF9380917303811113C005
:1047E00080915B0490915C04A0915D04B0915E04A3
:1047F0004196A11DB11D80935B0490935C04A0932E
:104800005D04B0935E04BF91AF919F918F911F9013
:104810001FBE1F90189580916304843031F10E946F
:1048200053081092730388E190E020E40FB6F894E7
:10483000A895809360000FBE2093600083B7817FAE
:10484000846083BF83B7816083BF7894889583B782
:104850008E7F83BF0FB6F894A89580916000886121
:1048600080936000109260000FBE08950E940E0CAD
:104870000E945D08089582E084BD93E095BD9AEFA3
:1048800097BD80936E0008952FB7F89480915B04D4
:1048900090915C04A0915D04B0915E042FBF0895D7
:1048A0002FB7F89460915B0470915C0480915D0473
:1048B00090915E042FBF08959C014FB7F8948091AA
:1048C0005B0490915C04A0915D04B0915E044FBFC5
:1048D000821B930B0895CF92DF92EF92FF922FB736
:1048E000F894C0905B04D0905C04E0905D04F0907C
:1048F0005E042FBFA7019601261B370B480B590BEF
:10490000CA01B901FF90EF90DF90CF90089578949D
:104910001F921FB61F9211248F939F93AF93BF9343
:1049200080915B0490915C04A0915D04B0915E0461
:104930000196A11DB11D80935B0490935C04A0932C
:104940005D04B0935E04BF91AF919F918F911F90D2
:104950001FBE1F90189581E08093E00080E2809355
:10496000D8001092C9008FE19EE40197F1F700C0D2
:10497000000087E090EBDC0180936C0490936D0461
:10498000A0936E04B0936F0488E19CE00FB6F89496
:10499000A895809360000FBE90936000FFCF88E1E0
:1049A0009CE00FB6F894A895809360000FBE90939A
:1049B0006000FFCF8091940308959B01BA0190910C
:1049C00063049430E9F48F708093E9009FEF809145
:1049D000E800915085FD06C085ED8A95F1F700004D
:1049E0009111F5CF8091E80085FF0AC050E040E0CA
:1049F000C9010E94E7268091E8008E778093E80045
:104A0000089543E050E0BC0182E00E94DD24089557
:104A100046E050E0BC0182E00E94DD240895CF937F
:104A2000DF93EC018091CA01811111C048E050E090
:104A3000BE0181E00E94DD2480E2FE01A4E7B3E034
:104A400001900D928A95E1F7DF91CF9108958091C1
:104A5000960387FF05C040E282E050E0BE01EACF46
:104A600048E081E0FACF80916204811109C00E9480
:104A700077280E94D4288091E20084608093E2002D
:104A800008951092620408950E94B52308956091DC
:104A90005F0481E0611101C080E00E94AC230895B1
:104AA0009091630481E0943009F080E060915F04AC
:104AB0000E94B223089542E061EC81E00E94F32756
:104AC00042E261EC82E00E94F3279091630481E06E
:104AD000943009F080E060915F040E94A223089561
:104AE00080916504833009F461C030F48130D1F1E4
:104AF000823009F49EC008958A3009F48AC08B3050
:104B000009F46FC0893009F050C08091640481328B
:104B100009F04BC08091680490916904029708F0F5
:104B200044C08091E800877F8093E8008091E8008E
:104B300082FF37C09091F3008091F200029731F428
:104B40008091F100813011F0863021F48091F100E4
:104B5000809394038091E8008B778093E8000E9413
:104B6000272823C080916404813AF9F48091E800F9
:104B7000877F8093E8008091680490916904892B75
:104B800061F460E284E793E070E00E943627809150
:104B9000E8008B778093E800089560E090E080E083
:104BA000F3CF809163048111C1CF08958091640493
:104BB000813AD9F78091680490916904892BA9F70B
:104BC0008091E800877F8093E8008091E80080FF73
:104BD000FCCF8091CA018093F1008091E8008E772C
:104BE000BCCF80916404813201F780916804909178
:104BF0006904892BD1F68091E800877F8093E800D3
:104C00000E942728809166048093CA010E940E0C9E
:104C1000089580916404813241F68091E800877F95
:104C20008093E8000E942728809167048093950371
:104C3000089580916404813A09F0B7CF8091E8002B
:104C4000877F8093E8008091E80080FFFCCF80910F
:104C50009503C1CF84B7877F84BF0FB6F894A8951A
:104C600080916000886180936000109260000FBEA8
:104C700080E890E00FB6F894809361009093610013
:104C80000FBE0E94BB2308950E9477280E94D4285B
:104C9000E2EEF0E080818460808378940E94532B60
:104CA000089582EC91E00E942B2208958091630484
:104CB000853031F480916304853019F00E943624E8
:104CC00008950E940B2480916104882399F30E9427
:104CD000C823882379F30E94D1260E940E0CEACFC4
:104CE00008959A0140916A0450916B040E947926BC
:104CF0000895492F55274330510519F168F4413083
:104D0000510509F444C04230510509F445C090E012
:104D100080E050E040E025C04132510549F1423287
:104D20005105A9F784E490E045E055E0611571056F
:104D3000C1F086EB90E04FE454E06130710589F0FA
:104D4000E6CF99278130910581F0009729F00297ED
:104D5000F1F6ECEDF3E002C0EEEFF3E0849190E0C9
:104D6000AF01F901518340830895EAEEF3E0F6CFF5
:104D700089E090E044E154E06115710591F389E028
:104D800090E04DE254E06130710559F3C0CF82E10B
:104D900090E04DE354E0E5CF8BE390E042E054E057
:104DA000E0CF80E189BD82E189BD09B400FEFDCF7D
:104DB0008091D8008F7D8093D8008091E000826040
:104DC0008093E0008091E00081FDFCCF0895AF92D8
:104DD000BF92CF92DF92FF920F931F93CF93DF93F7
:104DE0006C01EB018A010E944628F82E811123C034
:104DF0000115110539F0F80180819181C81BD90B8B
:104E0000C80ED91EB12CA12C2097A9F08091E800E2
:104E100085FD22C08091E8008E778093E80001151F
:104E20001105A1F0F80180819181A80EB91EB1820F
:104E3000A08285E0F82E8F2DDF91CF911F910F91E9
:104E4000FF90DF90CF90BF90AF9008950E944628CA
:104E50008823D1F2F82EEFCFF60181916F01809374
:104E6000F1002197FFEFAF1ABF0ACECFFC0180916E
:104E70006A0490916B0486179707A0F0611571057D
:104E800029F49091E8009E779093E80090E06115F6
:104E9000710551F4911108C08091E80082FF34C07F
:104EA00080E00895BC01F2CF809163048823C1F1B2
:104EB0008530C1F18091E80083FD30C08091E80029
:104EC00082FDEACF8091E80080FFE1CF8091F3007E
:104ED0002091F200382F6115710519F02830310545
:104EE00058F091E02830310509F090E02091E80079
:104EF0002E772093E800CBCF81918093F100615011
:104F000071092F5F3F4FE7CF80916304882341F001
:104F1000853041F08091E80083FFBECF81E00895A5
:104F200082E0089583E00895FC0180916A049091E5
:104F30006B0486179707A0F06115710529F480911D
:104F4000E8008E778093E80090E06115710551F4D8
:104F5000911108C08091E80082FF35C080E008957B
:104F6000BC01F2CF809163048823C9F18530C9F177
:104F70008091E80083FD31C08091E80082FDEACF96
:104F80008091E80080FFE1CF8091F3002091F20052
:104F9000382F6115710519F02830310558F091E06E
:104FA0002830310509F090E08091E8008E778093F9
:104FB000E800CBCF84918093F10031966150710964
:104FC0002F5F3F4FE6CF80916304882341F0853007
:104FD00041F08091E80083FFBDCF81E0089582E039
:104FE000089583E00895982F973028F08F7080936C
:104FF000E90081E008959093E900242F762F50E096
:10500000981731F07091EC002091ED005091F00074
:1050100021FD02C09F5FE8CF3091EB003E7F3093CF
:10502000EB003091ED003D7F3093ED003091EB00CF
:1050300031603093EB007093EC002093ED005093BF
:10504000F0002091EE0027FDE5CF80E008958091EB
:10505000640487FF13C08091E80082FF06C080913E
:10506000E8008B778093E80004C08091630481118D
:10507000F2CF0895809163048823D9F38091E800EA
:1050800080FFF8CF8091E8008E77ECCF2091E4008C
:105090003091E50095E6A9012091EC00822F817006
:1050A00020FF06C08091E80080FF06C080E00895E0
:1050B0002091E80022FD1AC080916304882389F0C2
:1050C000853089F08091EB0085FD0FC02091E400D0
:1050D0003091E50042175307F9F29150E1F684E070
:1050E000089582E0089583E0089581E008950E9484
:1050F000E6280E94EE28E0EEF0E080818160808367
:10510000E8EDF0E080818F77808319BCA7EDB0E0F7
:105110008C918E7F8C9380818F7E8083109262042D
:1051200008950F931F93CF93DF930E94E6280E9468
:10513000EE28C8EDD0E088818F77888388818068E9
:10514000888388818F7D888319BC109263041092B4
:105150005F04109261041092600400EE10E0F80108
:1051600080818B7F808388818160888342E060E0DA
:1051700080E00E94F327E1EEF0E080818E7F808363
:10518000E2EEF0E0808181608083808188608083AE
:10519000F80180818E7F8083888180618883DF91A0
:1051A000CF911F910F910895E8EDF0E080818F7EFF
:1051B0008083E7EDF0E080818160808384E082BFBE
:1051C00081E0809362040E9491280895E8EDF0E068
:1051D00080818E7F80831092E20008951092DA0021
:1051E0001092E10008951F920F920FB60F921124B2
:1051F0002F933F934F935F936F937F938F939F93DF
:10520000AF93BF93EF93FF938091E10082FF0BC0B8
:105210008091E20082FF07C08091E1008B7F809344
:10522000E1000E94522B8091DA0080FF19C080912A
:10523000D80080FF15C08091DA008E7F8093DA005D
:105240008091D90080FF96C080E189BD82E189BD4F
:1052500009B400FEFDCF81E0809363040E943325F2
:105260008091E10080FF19C08091E20080FF15C0AD
:105270008091E2008E7F8093E2008091E200806165
:105280008093E2008091D80080628093D80019BC9E
:1052900085E0809363040E9447258091E10084FFAC
:1052A0002BC08091E20084FF27C080E189BD82E1AC
:1052B00089BD89B5982F917080FFFBCF8091D80070
:1052C0008F7D8093D8008091E1008F7E8093E100F4
:1052D0008091E2008F7E8093E2008091E200816005
:1052E0008093E20080915F04882309F449C084E040
:1052F000809363040E9450258091E10083FF29C0C0
:105300008091E20083FF25C08091E100877F809338
:10531000E10082E08093630410925F048091E100D9
:105320008E7F8093E1008091E2008E7F8093E20087
:105330008091E20080618093E20042E060E080E0E2
:105340000E94F3278091F00088608093F0000E9413
:105350004425FF91EF91BF91AF919F918F917F91E4
:105360006F915F914F913F912F910F900FBE0F90D2
:105370001F90189519BC109263040E94412570CFAC
:105380008091E30087FD93E090936304B3CF1F9275
:105390000F920FB60F9211242F933F934F935F9369
:1053A0006F937F938F939F93AF93BF93CF93DF932D
:1053B000EF93FF93D091E900DF708091EC00C82F4C
:1053C000C17080FDC0E81092E9008091F000877FF5
:1053D0008093F00078940E940B2A1092E90080914B
:1053E000F00088608093F000CD2BCF70C093E9006F
:1053F000FF91EF91DF91CF91BF91AF919F918F91ED
:105400007F916F915F914F913F912F910F900FBEC0
:105410000F901F901895AAE2B0E0E1E1FAE20C9437
:10542000BE2E84E694E02091F100FC012193CF018F
:10543000F4E08C369F07B9F70E9470258091E80050
:1054400083FF1EC180916404909165049A3008F036
:1054500017C1E92FF0E0E656F04D0C94A92E8038E4
:1054600099F0823809F00CC1809168048F70873000
:1054700008F006C18093E9008091EB0085FB882746
:1054800080F91092E90006C0809160049091610457
:10549000911182609091E800977F9093E80080934B
:1054A000F1001092F1008091E8008E77E5C088232A
:1054B00009F4D3C0823009F0E3C080916604811101
:1054C000D6C0809168048F702FEF280F263008F027
:1054D000D7C08093E9002091EB0020FFC8C0933033
:1054E00031F48091EB0080628093EB00C0C090911A
:1054F000EB0090619093EB0021E030E001C0220FBF
:105500008A95EAF72093EA001092EA008091EB0076
:105510008860EACF8111B4C0109166041F77809132
:10552000E3008078812B8093E3008091E800877FFF
:105530008093E8000E9427288091E80080FFFCCF3C
:105540008091E30080688093E30082E0111183E0A2
:105550008093630495C08058823008F091C0809198
:105560006604909167048C3D23E09207A1F583E0E7
:105570008A838AE289834FB7F894DE01139620E08C
:105580003EE051E2E32FF0E050935700E49120FF1A
:1055900003C0E295EF703F5FEF708E2F90E0EA302E
:1055A000C0F0C7968D939D932F5F243159F74FBF5D
:1055B0008091E800877F8093E8006AE270E0CE0186
:1055C00001960E9436278091E8008B778093E8004F
:1055D00057C0C096E7CF6091680470916904AE012E
:1055E0004F5F5F4F0E947126BC01892B09F448C0B0
:1055F0009091E800977F9093E80089819A810E94BA
:105600009427E1CF8038E1F58091E800877F80938F
:10561000E80080915F048093F10045CF811130C094
:1056200090916604923060F58091E800877F8093C6
:10563000E80090935F040E94272880915F048823EC
:1056400011F084E005C08091E30087FDFACF81E08E
:10565000809363040E945B2513C0809166048130AF
:1056600079F481E0933009F080E080936104109236
:10567000E9008091E800877F8093E8000E94272856
:105680008091E80083FF0AC08091E800877F8093C3
:10569000E8008091EB0080628093EB00AA96E3E043
:1056A0000C94DA2E0895CF93809163048823A1F09F
:1056B000C091E900CF709091EC00892F817090FD2E
:1056C00080E8C82B1092E9008091E80083FD0E94D9
:1056D0000B2ACF70C093E900CF9108955058BB2793
:1056E000AA270E94862B0C94992D0E948B2D38F0AE
:1056F0000E94922D20F039F49F3F19F426F40C9467
:10570000882D0EF4E095E7FB0C94742DE92F0E9490
:10571000AA2D58F3BA17620773078407950720F07C
:1057200079F4A6F50C94CC2D0EF4E0950B2EBA2F3F
:10573000A02D0B01B90190010C01CA01A001112497
:10574000FF27591B99F0593F50F4503E68F11A1643
:10575000F040A22F232F342F4427585FF3CF4695D4
:1057600037952795A795F0405395C9F77EF41F16F6
:10577000BA0B620B730B840BBAF09150A1F0FF0FC0
:10578000BB1F661F771F881FC2F70EC0BA0F621FAC
:10579000731F841F48F4879577956795B795F7959C
:1057A0009E3F08F0B0CF9395880F08F09927EE0F31
:1057B0009795879508950E94502D08F481E00895EB
:1057C0000E94F42B0C94992D0E94922D58F00E9467
:1057D0008B2D40F029F45F3F29F00C94742D51116A
:1057E0000C94CD2D0C94882D0E94AA2D68F399233A
:1057F000B1F3552391F3951B550BBB27AA276217CD
:105800007307840738F09F5F5F4F220F331F441FD9
:10581000AA1FA9F335D00E2E3AF0E0E832D091500D
:105820005040E695001CCAF72BD0FE2F29D0660FFA
:10583000771F881FBB1F261737074807AB07B0E83D
:1058400009F0BB0B802DBF01FF2793585F4F3AF043
:105850009E3F510578F00C94742D0C94CD2D5F3F34
:10586000E4F3983ED4F3869577956795B795F795C9
:105870009F5FC9F7880F911D9695879597F90895B1
:10588000E1E0660F771F881FBB1F6217730784074D
:10589000BA0720F0621B730B840BBA0BEE1F88F75C
:1058A000E09508950E94B22D88F09F5798F0B92F87
:1058B0009927B751B0F0E1F0660F771F881F991F45
:1058C0001AF0BA95C9F714C0B13091F00E94CC2DEE
:1058D000B1E008950C94CC2D672F782F8827B85FFE
:1058E00039F0B93FCCF3869577956795B395D9F79D
:1058F0003EF490958095709561957F4F8F4F9F4FA7
:105900000895E89409C097FB3EF4909580957095B2
:1059100061957F4F8F4F9F4F9923A9F0F92F96E9FB
:10592000BB279395F695879577956795B795F11170
:10593000F8CFFAF4BB0F11F460FF1BC06F5F7F4F0D
:105940008F4F9F4F16C0882311F096E911C077231F
:1059500021F09EE8872F762F05C0662371F096E828
:10596000862F70E060E02AF09A95660F771F881FF7
:10597000DAF7880F9695879597F90895990FBB0BDD
:10598000550FAA0BE0E8FEEF16161706E807F90711
:1059900070F012161306E407F50760F0BA173CF032
:1059A00049F46217730784079507A7951BF4B9019B
:1059B000CA01BA2FB69597950895990FBB0B550F4D
:1059C000AA0BE0E8FEEF16161706E807F90770F0D5
:1059D00012161306E407F50760F0BA1754F031F415
:1059E0002617370748075907A7951BF4B901CA01BD
:1059F000BA2FB695979508950E948B2D20F019F037
:105A00000E94922D50F40C94882D0C94CD2DE92FEA
:105A10000E94AA2D88F35523B1F3E7FB62177307A1
:105A200084079507A8F189F3E92FFF2788232AF037
:105A30003197660F771F881FDAF7952F5527442374
:105A400032F091505040220F331F441FD2F7BB2732
:105A5000E91BF50B621B730B840BB109B1F222F445
:105A6000620F731F841FB11D31972AF0660F771FD5
:105A7000881FBB1FEFCF9150504062F041F0882348
:105A800032F0660F771F881F91505040C1F79395F1
:105A90000C947A2D8695779567959F5FD9F7F7CF08
:105AA000990F0008550FAA0BE0E8FEEF161617062F
:105AB000E807F907C0F012161306E407F50798F097
:105AC000621B730B840B950B39F40A2661F0232BB0
:105AD000242B252B21F408950A2609F4A140A6952C
