:100000000C94F9020C9431030C9431030C943103D9
:100010000C9431030C9431030C9431030C94310390
:100020000C9431030C9431030C94FC2A0C94CE2BC9
:100030000C94E8250C9431030C9431030C94310397
:100040000C9431030C9431030C9431030C94310360
:100050000C9431030C948D260C9431030C943103D1
:100060000C9431030C9431030C9431030C94310340
:100070000C9431030C9431030C9431030C94310330
:100080000C9431030C9431030C9431030C94310320
:100090000C9431030C9431030C9431030C94310310
:1000A0000C9431030C9431030C943103690B690BEC
:1000B000950B950BF60B140C030D030D190C8F0CFF
:1000C000A00CA00C242127212C21332138213D21F3
:1000D000422147214C21512156215B215E215E2185
:1000E0005E215E215E215E215E215E215E21E42192
:1000F0005622EC21B621BA21F021BD21F321FE21A7
:10010000C8214C22CC210222D02106223022D42127
:100110000A223A22DA2110221A22C121F721C4210F
:10012000FA21DF211522262246224822B221E82187
:100130005F22FB230124EF23F52307240D2413243E
:10014000362C5D2C552D5D2C552DA92CCC2C552DE8
:10015000232D322D290014001A0008001500170065
:100160001C0018000C00120013002E002B000400CD
:100170001600070009000A000B000D000E000F001A
:1001800000002800E1001D001B000600190005000A
:10019000110010003600000037004C00E000E300C2
:1001A000E2002C41000000002C420000000038005A
:1001B0002D002D0201004A0052004D002F0030009A
:1001C0000100010024023102417E010001005000C3
:1001D00051004F00260227020100010033003400C5
:1001E00000002A0001001D011B0106011901010088
:1001F00001000100E2000000010001000100010017
:1002000001000100000000002C430000000001007C
:100210000100010001001E001F002000210022003B
:1002200023002400250026002700010027002100CC
:10023000220023000100010001000100330034000E
:1002400000002A0001002400250026000100010012
:100250000100010001000000010001000100010097
:1002600001002C430000000001000000000001001C
:10027000010001005F7ED100CD00D2003A003B00BA
:100280003C000100010001000100007C0100CF00E2
:10029000CE00D0003D003E003F0001000100010003
:1002A0000000007E0100D900D300DA0040004100C8
:1002B000420043004400000045000100010001002D
:1002C0000100010000000000010000000000597E54
:1002D0005A7E2078000101010101010101010202A1
:1002E00002020202020202030303030303030304E4
:1002F00004040404040405050505050606060606AF
:10030000070707070708080808090909090A0A0A68
:100310000B0B0B0C0C0C0D0D0D0E0E0E0F0F0F100A
:100320001011111112121313141415151616171794
:10033000181819191A1A1B1B1C1D1D1E1E1F202000
:10034000212222232424252626272829292A2B2C4A
:100350002D2D2E2F30313232333435363738393A6D
:100360003B3C3D3E3F404142434445464748494A65
:100370004C4D4E4F50515354555658595A5B5D5E33
:100380005F616264656668696B6C6D6F70727375CE
:1003900077787A7B7D7E8082838587888A8C8E8F32
:1003A00091939596989A9C9EA0A2A3A5A7A9ABAD60
:1003B000AFB1B3B5B7BABCBEC0C2C4C6C9CBCDCF4E
:1003C000D1D4D6D8DBDDDFE2E4E7E9EBEEF0F3F5FC
:1003D000F8FAFDFF00000000000000002A2B2800B2
:1003E00000000000000000000000000000000029E4
:1003F000000000002C1E3420212224342627252E24
:10040000362D3738271E1F2021222324252633335B
:10041000362E37381F0405060708090A0B0C0D0E87
:100420000F101112131415161718191A1B1C1D2F53
:100430003130232D350405060708090A0B0C0D0E73
:100440000F101112131415161718191A1B1C1D2F33
:100450003130354C000000000000000000000000BA
:10046000000000000000000000000000000000008C
:1004700000000000000000007E0F00D4FFFFFFC757
:10048000000000780C034600650062003400300074
:1004900000001203660065006200720065006500DE
:1004A0007A00650000000403090409023B00020110
:1004B00000A0FA0904000001030101000921110153
:1004C000000122440007058103080001090401001E
:1004D000010300000009211101000122B6000705F7
:1004E000820320000112010002000000086469423A
:1004F0000000010102000105010902A101850209B4
:1005000001A10005091901290815002501950875A3
:100510000181020501093009311581257F95027598
:1005200008810609381581257F9501750881060522
:100530000C0A38021581257F950175088106C0C017
:1005400005010980A101850319012AB700150126BB
:10055000B700950175108100C0050C0901A1018546
:100560000419012AA002150126A002950175108127
:1005700000C005010906A1018506050719E029E764
:10058000150025019508750181020507190029EF5D
:100590001500250195F0750181020508190129054D
:1005A000950575019102950175039101C005010939
:1005B00006A101050719E029E71500250195087531
:1005C0000181029501750881010507190029FF15B0
:1005D0000026FF0095067508810005081901290508
:1005E000150025019505750191029501750391018D
:1005F000C00011241FBECFEFDAE0DEBFCDBF04B6CE
:1006000003FE18C080912D0590912E05A0912F0515
:10061000B09130058730904BA740B04B59F4109201
:100620002D0510922E0510922F0510923005E0E056
:10063000F8E3099512E0A0E0B1E0E4EDF2E602C0D3
:1006400005900D92A036B107D9F725E0A0E6B2E0FB
:1006500001C01D92AD32B207E1F70E94A3180C94BD
:1006600068310C940000CF930E944B12C82F0E9457
:100670006112C82B0E9474128C2BCF910895CF93D6
:10068000C82F0E946A128C2F0E948A128C2F0E94FF
:100690005412CF910895CF93DF93EC010E9433035E
:1006A00091E0811190E0988321E0982F917109F4F5
:1006B00020E02983982F91709A8384FB992790F9E1
:1006C0009B8321E0982F947409F420E02C8382FB13
:1006D000992790F99D8386FB992790F99E8321E0C5
:1006E000982F987809F420E02F8383FB992790F9BD
:1006F0009887982F991F9927991F998721E0982FFC
:10070000927209F420E02A8781FB992790F99B8750
:1007100085FB882780F98C87CE01DF91CF910895E2
:100720008F359E4781F4FB018581882369F0909184
:1007300024039F5F917897FF03C091509E6F9F5F46
:1007400090932403089580E00895A0E0B0E0EBEAE0
:10075000F3E00C94D3307C01D62F6A018091000124
:10076000909101010E943C088C010097D9F0FC0196
:1007700080818823B9F0F601C581CC23A1F08FEFE9
:100780000E943F03C7010E94BF0880910001909121
:1007900001010E94BF08C8010E943C238D2F0E94C6
:1007A0005B1201C0C0E08C2FCDB7DEB7E8E00C943F
:1007B000EF309C01805E91098530910548F00697E5
:1007C000029730F081E0253E310519F080E0089570
:1007D00081E00895A0E0B0E0E0EFF3E00C94D130C8
:1007E0008C01D62EFA01E180F12CC081D0E0858108
:1007F000882309F45CC08CE08E9DF0018F9DF00D84
:100800001124EC0FFD1FEE0FFF1FEE0FFF1FED5920
:10081000FD4F8081811165C0C0902303CC2009F475
:1008200061C081E08083A0900001B0900101B2829C
:10083000A182C5010E94D903882351F087E0A82234
:10084000BB2481E00A2C01C0880F0A94EAF701C09A
:1008500080E09CE09E9D90019F9D300D1124C20F71
:10086000D31FCC0FDD1FCC0FDD1FCD59DD4F8B8388
:1008700098012770332781E001C0880F2A95EAF795
:1008800080936202C8010E94BF088FEF0E943F035D
:1008900089819A810E94A8088D2D0E945B128B810C
:1008A0000E941C0B809162020E943F031BC02CE03F
:1008B0002E9DC0012F9D900D1124C80FD91FCC0F64
:1008C000DD1FCC0FDD1FCD59DD4FC880CC2051F08E
:1008D000188289819A810E94BF088B810E94230B14
:1008E00001C0C12C8C2DCDB7DEB7EAE00C94ED3001
:1008F000809162020E943F03109262020895ADE06F
:10090000B0E0E5E8F4E00C94C9303C012B010E9412
:100910009003811177C0930130522115304328F4A0
:10092000F2019681907F09F46EC0109223037092B9
:10093000010160920001CE0101960E944B03A98043
:10094000BA80CB80DC80ED80FE800F811885298500
:100950003A854B855C856D85809100019091010100
:100960000E945F071C018F3FFFEF9F0721F09093CC
:1009700001018093000180902403082C000C990849
:10098000A980BA80CB80DC80ED80FE800F81188545
:1009900029853A854B855C856D8580910001909114
:1009A00001010E9420089C012F3F8FEF380721F0A2
:1009B000309301012093000181E09FEF2916390651
:1009C00021F42F3F3F4F09F480E08170809323038F
:1009D000882341F08091000190910101892B11F44D
:1009E00081E011C00E943303982EA201682FC30139
:1009F0000E94A5038111F4CFA201692DC3010E94B9
:100A0000EA0301C080E02D96E2E10C94E5304F92BC
:100A10005F926F927F928F929F92AF92BF92CF928E
:100A2000DF92EF92FF92CF93DF93CDB7DEB7289797
:100A30000FB6F894DEBF0FBECDBFE62EF42E682FA2
:100A400070E080E090E00E94982E20E030E04FE7D8
:100A500053E40E94F52D4B015C016E2D70E080E0A7
:100A600090E00E94982E20E030E04FE753E40E948F
:100A7000F52D2B013C016F2D70E080E090E00E948D
:100A8000982E20E030E04FE753E40E94F52D6D836F
:100A90007E838F8398879B01AC01C301B2010E94C2
:100AA000D32E9B01AC01C501B4010E94D32E6B0172
:100AB0007C012D813E814F815885C301B2010E9486
:100AC000F22E9B01AC01C501B4010E94F22E9B01E4
:100AD000AC01C701B6010E94832D69837A838B83A1
:100AE0009C8320E030E0A9010E94F02D882309F4C6
:100AF00061C0A7019601C501B4010E94F02D8111CA
:100B000015C02D813E814F815885C301B2010E94DD
:100B1000832D29813A814B815C810E94F52D20E053
:100B200030E040EC50E40E941C2F3BC0A70196012E
:100B3000C301B2010E94F02D811113C0A5019401DF
:100B40006D817E818F8198850E94832D29813A81D4
:100B50004B815C810E94F52D20E030E040E050E4C4
:100B60001AC0A70196016D817E818F8198850E94B0
:100B7000F02D811113C0A3019201C501B4010E949F
:100B8000832D29813A814B815C810E94F52D20E0E3
:100B900030E040E850E40E94842D03C060E070E043
:100BA000CB0120E030E040E752E40E94ED2F4B0102
:100BB0005C0103C0812C912C540120E030E0A9019C
:100BC000C701B6010E94F02D882359F0A7019601B4
:100BD00069817A818B819C810E94F52D2B013C01DA
:100BE00003C0412C512C320120E030E04FE753E4A8
:100BF000C501B4010E94ED2F20E030E044EB53E446
:100C00000E94F52D0E94672EA62E20E030E04FE7CF
:100C100053E4C301B2010E94ED2F0E94672EB62E4D
:100C200020E030E04FE753E4C701B6010E94ED2F0A
:100C30000E94672E862FB50128960FB6F894DEBF66
:100C40000FBECDBFDF91CF91FF90EF90DF90CF909F
:100C5000BF90AF909F908F907F906F905F904F90DC
:100C600008958093280360932703409326030E94EE
:100C70000705962F672F482F892F90E00E941F208D
:100C8000089580E40E9499200E94CD1F0E94BB1FFE
:100C900080912903882311F083E001C082E00E9443
:100CA000EA1F80E00E94030E83E00E94030E089575
:100CB0008091B001882391F080912903882321F04D
:100CC00020E040E060E006C0209126034091270329
:100CD0006091280388E190E00E94911C81E00895D2
:100CE000823059F0833031F0813059F44AE46FEFAB
:100CF00083E011C040E06FE60AC04FEF6BE385E090
:100D00000AC0809124034FEF813019F46FEF8FEF09
:100D100002C060E088E80E94310608950F931F9397
:100D2000CF938C010E94C109C82F80912503C81759
:100D300029F08C2F0E947006C0932503C801CF9123
:100D40001F910F91089580E00E9470060E94410655
:100D500080E00E94030E0895CF93FB01C581CC2350
:100D6000D9F09C0129553E472230310560F4893580
:100D70009E4759F49091290381E0892780932903A4
:100D80000E94410609C0C0E007C09091B00181E017
:100D900089278093B001F4CF8C2FCF910895FB0168
:100DA0002581AC014B7F823E910519F420932A03E3
:100DB00005C0433E510511F420932B03403E5105DD
:100DC00011F420932C0330912A03222399F031113E
:100DD0002AC020912B03211126C020912C038B9730
:100DE00021F5222311F181E00E94030E81E080931E
:100DF0002D030895311109C080912B03811105C085
:100E000090912C0381E0892702C080E090E020913E
:100E10002D03222351F080FF08C080E00E94030EC2
:100E200010922D0308958B97F1F208950E94A30666
:100E300008959C019D7F8C32914451F02C3282E4C4
:100E4000380731F081E021153C4719F080E0089522
:100E500081E00895EF92FF920F931F93CF938C013F
:100E60007B010E941907C82F811114C0B701C80166
:100E70000E947804B701C8010E94CF06B701C801DB
:100E80000E94AC06811106C0B701C8010E947F0410
:100E9000C1E0C8278C2FCF911F910F91FF90EF9049
:100EA00008958C3222E4920739F09D7F8C32914470
:100EB00019F088EC90E008958DE790E00895ADE09A
:100EC000B0E0E5E6F7E00C94D130A982BA8289322D
:100ED000910541F4E110A5C0442309F4ABC085E3BA
:100EE00090E0AAC08832910531F4442309F4A2C0ED
:100EF0008AE290E0A1C081152EE7920709F494C020
:100F00002A818433910549F4411191C08981882354
:100F100009F490C084E392E08FC08D3232E09307F1
:100F200031F4442309F486C08DE292E085C08E320C
:100F3000910531F4442309F47DC08EE290E07CC039
:100F40008F32910531F4442309F474C086E392E0B2
:100F500073C08033910531F4442309F46BC087E3F7
:100F600092E06AC0863232E0930731F4442309F4F8
:100F700061C08FE292E060C0873232E0930731F4C3
:100F8000442309F457C080E392E056C0843232E033
:100F9000930731F4442309F44DC080E49EE74CC02C
:100FA000813332E0930731F4442309F443C08FE1E5
:100FB0009EE742C08633910529F44423D9F18EE19E
:100FC00092E03AC08733910529F4442399F188E3EC
:100FD00092E032C08833910529F4442359F181E32A
:100FE00090E02AC08A34910529F4222319F18BE478
:100FF00090E022C08D34910529F42223D9F08EE4AB
:1010000090E01AC08632910529F4442399F085E3D3
:1010100092E012C08D9771F4442361F087E590E06F
:101020000BC08BE290E008C088E292E105C084E347
:1010300090E002C08FEF9FEF2D96EAE00C94ED3028
:10104000ADE0B0E0E6E2F8E00C94CF3021E08216AB
:10105000910461F4833E910531F0823E910531F4B3
:101060008EE690E005C08DE690E002C08FEF9FEF26
:101070002D96ECE00C94EB308F312EE7920751F077
:1010800080342EE7920749F081349E4749F082ED83
:1010900091E008958DEC91E0089580ED91E0089540
:1010A00083ED91E008958430B0F46430A0F44C30C6
:1010B00090F490E3899FF00111248CE0689FE00D8B
:1010C000F11D1124E40FF11DEE0FFF1FEC5AFE4F2E
:1010D00085919491089581E090E008950E945308CD
:1010E00008959C013A9521153F4130F5BC016627D2
:1010F0007270AC01442754709C012227387094FF11
:101100000FC090FF02C080E101C080E0672B09F0B2
:101110008062452B09F08064232B79F08068089564
:10112000892F8170672B09F08260452B09F084605C
:10113000232B19F08860089580E00895CF93DF9302
:10114000EB010E947108FE010995DF91CF9108958E
:10115000CF93DF93EC01805E9109089710F0209700
:1011600019F46CE17BE002C06EE57DE0CE010E94E7
:101170009E088C2F0E946C0ADF91CF910895CF9327
:10118000DF93EC010E94C20ACE01805E91090897AC
:1011900010F0209719F463E27BE002C065E67DE081
:1011A000CE010E949E08DF91CF91089581E00895BD
:1011B00081E008950E94D80808950E94DA080895F1
:1011C0000E942A07089508950E94E3080895A6E062
:1011D000B0E0EDEEF8E00C94D83049835A839E835A
:1011E0003091330389819A81311115C03E813323B7
:1011F00059F0222349F00E94D30E182F682F8981BD
:101200009A810E94AF0E03C00E94C10E182F6981FF
:101210007A81812F04C00E94D30E69817A810E9455
:1012200011162696E3E00C94F430FC01262F408141
:10123000518162817381848195810E94E7080895BC
:10124000CF93DF93EC0161E00E941509BE010E947B
:10125000DD08DF91CF910895CF93DF93EC0160E03B
:101260000E941509BE010E94E408DF91CF91089504
:1012700008950E94860D0E9438092FEF84E39CE0B8
:10128000215080409040E1F700C0000008950E9486
:1012900039090E94B32608950E9439090E94D72671
:1012A00008950F931F93CF93DF938C0161E00E9409
:1012B0001509EC01B8010E94E008882309F449C02F
:1012C000B801CE010E94E323882309F442C0B8018B
:1012D000CE010E948E218823E1F1B801CE010E9447
:1012E00040238823B1F1B801CE010E940D2188234B
:1012F00081F1F8018581882341F1C3308CE7D8075B
:10130000D1F040F4C115FCE7DF0791F0C130DC47B4
:10131000A1F01BC0CB35ECE7DE07A9F0CC35FCE72C
:10132000DF0771F0CA35DC4781F40E944A130DC013
:101330000E9447090EC00E9452130E944C0909C026
:101340000E94401302C00E944E13C8010E94D6089A
:1013500001C080E0DF91CF911F910F9108950E940D
:10136000C0250E948C1E0E94040A81E00E94851FF5
:1013700008950E94080A80E00E94851F0E94C925E6
:101380000895292F33272115310519F0C90148E0A7
:1013900001C040E09C0164E0369527956A95E1F72D
:1013A0002115310511F04C5FC9019C013695279537
:1013B000369527952115310511F04E5FC9019C0125
:1013C00036952795232B09F04F5F842F08950895B4
:1013D00081E008950895CF93DF93D82F0E94E80904
:1013E000C82F882319F08D2F0E94EA098C2FDF91D6
:1013F000CF9108950895CF93C82F0E94E7098C2FAD
:101400000E94EB09CF91089580E00E94FB090895A6
:101410000E942B240E94FB090895CF930E942B2445
:10142000C82F80912E03C81779F0C0932E030E9415
:10143000562660932F03709330038093310390936B
:1014400032038C2F0E94FB09CF910895ADE0B0E0EC
:10145000ECE2FAE00C94D930488759876A877B8799
:101460008C879D8791110E947112CE01019627E011
:10147000FC0111922A95E9F726E0FE013896DC017D
:1014800001900D922A95E1F72D8121110AC0298141
:101490003A814B815C816D817E818F810E94B51183
:1014A00004C00E9420098111F2CF2D96E2E00C9435
:1014B000F530FC012481213021F4808191810E944A
:1014C000050F0895662319F00E943B1902C00E947F
:1014D00096190E940D1A0895CF93882309F450C0DD
:1014E000C82F8CEF8C0F813AD0F46C2F8091B10112
:1014F0009091B2010E94C024882349F06C2F809102
:10150000B1019091B2010E944E250E94A0126C2F51
:101510008091B1019091B2010E9440250CC080E2FF
:101520008C0F883058F4C77081E001C0880FCA95CD
:10153000EAF70E944E120E94A01222C0EBE5EC0FC7
:10154000E33040F4F0E0E45FFD4F808190E00E94E2
:10155000602416C0E8E5EC0FEB3150F4F0E0EE0F3C
:10156000FF1FEA52FE4F808191810E94852408C0AE
:1015700083E38C0F833120F461E08C2F0E94620A98
:10158000CF9108958823A9F19CEF980F913A40F4E8
:10159000682F8091B1019091B2010E944E250DC03B
:1015A00090E2980F983060F4877091E001C0990F35
:1015B0008A95EAF7892F0E9454120E94A01208957A
:1015C0009BE5980F933028F480E090E00E9460241F
:1015D000089598E5980F9B3128F480E090E00E94F0
:1015E0008524089593E3980F933118F460E00E94E6
:1015F000620A08951F93CF93DF93182FEB010E9487
:101600006C0A209741F08FE99FE00197F1F700C045
:1016100000002197F6CF812F0E94C20ADF91CF915F
:101620001F910895893319F060E070E002C060E511
:1016300070E00E94FA0A0895882321F00E944E1259
:101640000E94A0120895882321F00E9454120E9443
:10165000A0120895A0E0B0E0E0E3FBE00C94D330EA
:101660007C01162FC72FFC01D581068102950F70D2
:101670000E9444128823E9F0DD23D9F08C2F807F6B
:10168000803451F080E2810F883098F0011104C05D
:101690008C2F807E803269F08091580482FF09C0CF
:1016A00082E00E9414130E94441291E0D82ED926A1
:1016B00001C0D12CCC2EC2948FE0C8228C2D90E09A
:1016C0008C30910508F09FC1FC01EA5AFF4F0C9441
:1016D000C3308C2F807FCF70882311F0C295C07FDC
:1016E000DD2399F0CC2309F47AC180E2810F8830A0
:1016F00010F0111104C08C2F0E944E1203C08C2FC9
:101700000E9464120E94A0126AC1812F0E94C20A24
:10171000CC2309F478C180E2810F883038F111239D
:1017200029F18C2F0E946A1224C08C2F807FCF70E9
:10173000803211F0C295C07F112319F0113099F158
:101740003CC08091580482FD17C0DD2349F0CC23B2
:1017500029F08C2F0E944E120E94A01280E040C1FE
:1017600080E00E94C20ACC2309F44DC18C2F0E9454
:1017700054120E94A01247C1DD2349F0002309F151
:10178000013009F040C18C2F0E947E123CC1011132
:101790003AC18C2F0E94230B8C2F0E948A128C2F0F
:1017A0000E94E71230C1DD2321F0063008F02BC182
:1017B00008C0053008F027C115C0DD2331F0011144
:1017C0000EC18C2F0E941C0B1EC1002359F019332F
:1017D00009F016C1FFEF27EE83E0F1502040804072
:1017E000E1F70CC18C2F0E94230B0DC18C2F869525
:1017F0008695837019F0813061F005C1DD2321F0F9
:10180000812F9C2F937002C080E090E00E946024A2
:1018100002C1DD2321F0812F9C2F937002C080E054
:1018200090E00E948524F7C06D2F812F0E94620AEC
:10183000F2C08C2F8370B1F5D111E9C0412F4295D0
:1018400046954770440F440F812F8F7090E09C01A4
:10185000042E02C0220F331F0A94E2F714FF0AC0BD
:101860008FE090E002C0880F991F4A95E2F78095BB
:10187000909502C080E090E0C695C695C370822B1B
:10188000932BC23049F058F4C13019F00E94E20D98
:10189000BEC00E94D90DBBC00E94EB0DB8C00E9413
:1018A000D60DB5C0DD2319F08C2F817001C086954F
:1018B000882309F4ACC0412F429546954770440FE8
:1018C000440F812F8F7090E09C01042E02C0220FE4
:1018D000331F0A94E2F714FF0AC08FE090E002C0C1
:1018E000880F991F4A95E2F78095909502C080E095
:1018F00090E0C695C695C370822B932BC23049F0F9
:1019000058F4C13019F00E944A0E81C00E94410E65
:101910007EC00E94530E7BC00E94F70D78C0CF702E
:10192000DD2339F08C2F0E940F0E812F0E941C0B9B
:101930006EC0812F0E94230B8C2F0E941F0E67C048
:10194000123F21F128F4103F41F0113FC1F043C094
:10195000133F19F1143F79F03EC0DD2341F005300B
:1019600008F051C08C2F8F710E94310E4CC0063090
:1019700008F049C0F7CF8091580482FD18C0DD23DC
:1019800039F08C2F8F710E940F0E3DC0DD23C9F3FB
:101990008C2F8F710E941F0E36C0DD2329F08C2FF3
:1019A0008F710E94030E2FC00E94FE0D2CC0DD23FC
:1019B00049F0CF718C2F0E940F0E63E08C2F0E9494
:1019C000F61221C081E00E9414130230E0F082E0A0
:1019D0000E94141318C0DD2331F0002391F2812FEF
:1019E0000E946C0A10C0002399F2193349F49FEF4A
:1019F000E7EEF3E09150E040F040E1F700C0000076
:101A0000812F0E94C20A88EF8C0D843020F40E943E
:101A10002B240E94FB09DD2089F00E94401280FDEA
:101A20000DC0F70115820E943A120E940F0EC701E5
:101A30000E943B0D0E943A120E941F0ECDB7DEB7E6
:101A4000E8E00C94EF300F931F93CF93DF93EC01FA
:101A5000688179818D810E94100F8C010E945C0E3B
:101A60000E94C70DB801CE010E942A0BDF91CF91D1
:101A70001F910F910895CF93DF93FC0124812223BE
:101A8000D1F0EC010E94510981110FC00E94441253
:101A9000882389F08D81882371F08091580482FF1A
:101AA0000AC082E00E94141306C0CE010E94230DDA
:101AB000CE010E942C09DF91CF910895882321F057
:101AC0000E9464120E94A0120895882321F00E94AF
:101AD0006A120E94A012089580E090E00E946024A3
:101AE00080E090E00E9485240E9471120E94A01262
:101AF0000E942C1A0E940D1A08958091B1019091B4
:101B0000B2010E945C250E946C0D08950E945E1235
:101B10000E947D0D089592959F70963079F010F493
:101B2000925001C09A50923068F4803F69F018F4E6
:101B3000883E40F409C0843F29F406C0883E20F066
:101B4000813F11F080E0089581E00895FC01248137
:101B5000222339F0808191810E94050F0E948B0D14
:101B6000089580E00895A6E0B0E0E9EBFDE00C9474
:101B7000D9302696E2E00C94F530A7E0B0E0E3EC33
:101B8000FDE00C94D9302796E2E00C94F5300895EE
:101B900008950E94C80D08950E94C90D08950E94DD
:101BA000CC0D90934F0380934E0308950E94CF0D68
:101BB000089520914E0330914F03822B932B0E9466
:101BC000CF0D089520914E0330914F03822393232C
:101BD0000E94CF0D089520914E0330914F0382272C
:101BE00093270E94CF0D08950E948E0608950E94AB
:101BF000F40D90934D0380934C03089580E090E0A2
:101C00000E94F70D089521E030E0A90102C0440FC1
:101C1000551F8A95E2F7CA010E94F70D089521E049
:101C200030E002C0220F331F8A95E2F780914C0307
:101C300090914D03822B932B0E94F70D089521E084
:101C400030E002C0220F331F8A95E2F720953095CD
:101C500080914C0390914D03822393230E94F70DB2
:101C6000089521E030E002C0220F331F8A95E2F789
:101C700080914C0390914D03822793270E94F70D8A
:101C8000089520914C0330914D03822B932B0E9499
:101C9000F70D089520914C0330914D038223932337
:101CA0000E94F70D089520914C0330914D03822737
:101CB00093270E94F70D08950895962F9770A1E03D
:101CC00001C0AA0F9A95EAF793E0769567959A95E1
:101CD000E1F7660F771F660F771FFA01E60FF71F10
:101CE00040E050E0682F70E090819B01042E02C01C
:101CF000369527950A94E2F72170219529272A2302
:101D0000292721934F5F5F4F4430510569F70895AC
:101D1000FB01782F777023E0969587952A95E1F758
:101D2000880F991F880F991FE80FF91F40E050E0B6
:101D300080E0219130E0072E02C0369527950A9465
:101D4000E2F721703327042E01C0220F0A94EAF72C
:101D5000822B4F5F5F4F4430510559F70895282F6C
:101D6000943070F48C3060F4862F622F70E02CE099
:101D7000929F600D711D112444E353E00E945D0E9B
:101D80000895943070F48C3060F4292F90E064E36F
:101D900073E03CE0239F800D911D11240E94880E6A
:101DA000089580E00895A0E0B0E0E9EDFEE00C9435
:101DB000D2307C0100914C0310914D0380914E0371
:101DC00090914F03082B192BCFE0D0E0CC24C39483
:101DD000D12CC6010C2E02C0880F991F0A94E2F77D
:101DE00080239123892B21F4219798F7B12C07C0E8
:101DF000BC2EB7018C2F0E941D160197A9F38B2DC5
:101E0000CDB7DEB7E9E00C94EE30CF93DF93EC0171
:101E10000E94D30EBE010E941D16DF91CF9108953E
:101E20001F93CF93DF93EB0190913303992321F01C
:101E3000CB010E94050F13C0882349F0CB010E94FB
:101E4000D30E182F682FCE010E94AF0E04C0CB0115
:101E50000E94C10E182FBE01812F0E941D16DF9116
:101E6000CF911F9108951F93CF93DF93C09150039B
:101E700017E080915103C817A1F0D0E01C9FF0013A
:101E80001D9FF00D1124EE5AFC4F208131814281BB
:101E900053816481758186810E94BD0D2196C77032
:101EA000E8CFDF91CF911F91089520918A0330915F
:101EB0008B0340918C0350918D0360918E03709140
:101EC0008F03809190030E94BD0D089520915003CF
:101ED0009091510357E02917A9F030E0529FF0018B
:101EE000539FF00D1124EE5AFC4F7181761306C0FA
:101EF0007081781303C07581741306C02F5F3F4F44
:101F00002770E9CF80E0089581E00895A0E0B0E077
:101F1000ECE8FFE00C94D4308091900382958F70B0
:101F200009F052C080918F03882309F44DC0C091FD
:101F3000500387E0D82E80915103C81709F444C09C
:101F4000D0E0DC9E8001DD9E100D1124F801EE5AD8
:101F5000FC4F84818823A9F1918180918B03981390
:101F600030C0908180918A0398132BC085818111A4
:101F700028C0E280F38080918C0390918D03E81A51
:101F8000F90A60E08AE893E00E9415096AE873E0C4
:101F90000E945107E816F906A0F4809190038F7013
:101FA000806180939003F801E85AFC4F80818F7024
:101FB000806180838AE893E00E943B0D0E94330F8A
:101FC00003C02196C770B7CFCDB7DEB7E7E00C945A
:101FD000F030A4E1B0E0EFEEFFE00C94CC308C01E7
:101FE00086E0F801DE011F9601900D928A95E1F7D7
:101FF000F8017480E5808AE8A82E83E0B82E8091ED
:102000008E0381111CC0772009F44EC0EE2009F424
:1020100048C0C8010E94A60DF82E882309F441C0CB
:1020200087E0F801AAE8B3E001900D928A95E1F704
:102030008AE893E00E94590A0E94860F8DC1F80138
:1020400050806180C280D380F0908F0380918C0398
:1020500090918D034601881A990A60E08AE893E01E
:10206000FF2009F407C10E9415096AE873E00E9485
:1020700051078816990608F0A6C07720A9F080912C
:102080009003382F307F20918B03F8019181332307
:1020900071F0291709F465C0C8010E94A60D8111CD
:1020A00069C0C8010E943B0DFF24F39459C1291354
:1020B00016C020918A039081291311C0E1100FC02E
:1020C0008F708061809390030E94550F8AE893E09F
:1020D0000E943B0D80919003F801868340C1E1107E
:1020E0003AC040E0662D852D0E94660F40E0662DC7
:1020F000852D0E94660FE82E811131C15F86688AA6
:102100008F8598890E94050F292F22952F702430E2
:1021100020F49F70223028F009C02A50223080F02D
:1021200014C0992349F0811107C013C0992321F0ED
:10213000F8019681907F69F0805E883030F409C0A4
:10214000803F38F0815F833020F0C8010E943B0D52
:10215000EF2CFE2C05C18091900381608093900349
:10216000FEC020918A03F8019081291395CFE110D8
:1021700093CFBFC0EE2009F494CF20919003822F1B
:1021800082958F7090E002978CF080918A039091F5
:102190008B0399878887DB86CA8680918E038C871C
:1021A0001D862E87CE0108960E943B0D87E0F80120
:1021B000AAE8B3E001900D928A95E1F70E94860F9C
:1021C0000E94550F71CF80919003982F907FB1F4AA
:1021D0006C2DDA8AC98A452D562D7A89872D9E2D38
:1021E0000E94B30D8AE893E00E943B0D87E0F50161
:1021F00011928A95E9F70E94550FB1C0772009F432
:1022000053CF20918B03F8019181291311C02091A4
:102210008A03908129130CC0E1100AC08683C8018B
:102220000E943B0D87E0F50111928A95E9F798C06D
:10223000C8010E94A60D882309F433CFEE2009F4CB
:1022400030CF20919003822F82958F7090E002977B
:102250000CF4ACCF80918A0390918B039A8389838D
:10226000DC82CB8280918E038D831E822F83CE01F0
:1022700001969ACF0E9415096AE873E00E945107FF
:102280008816990608F059C0772009F40DCFFE2C66
:10229000EE2009F406CF90918B03F8018181981309
:1022A0003EC090918A038081981339C080918C033D
:1022B00090918D03C81AD90AF8ECCF16D10430F5E5
:1022C0008091900380FD22C082958F70482F50E04E
:1022D00041155105D9F020919003F80126834F3024
:1022E000510541F08F5F982F9295907F822F8F70CC
:1022F000892B8683C8010E943B0D87E0F801AAE87C
:10230000B3E001900D928A95E1F726C087E0F801CD
:10231000AAE8B3E001900D928A95E1F721C0C801C7
:102320000E94A60D811142CF80919003816080931D
:102330009003C8010E943B0D13C06C2DDA8AC98A34
:10234000452D562D7A89872D9E2D0E94B30D87E04D
:10235000F50111928A95E9F70E94550F01C0F12C01
:102360008F2D6496EFE00C94E830AEE0B0E0EBEB3C
:10237000F1E10C94D830288739874A875B876C87CE
:102380007D878E87CE0108960E94E90F882361F031
:102390006C856623A9F1288539854A855B857D850D
:1023A0008E850E94BD0D2CC087E0FE013896DE01AF
:1023B000119601900D928A95E1F76C85662301F1E3
:1023C0002091510330E0C90101968770992740910F
:1023D000500350E084179507E1F16D8397E0929FD9
:1023E000D001939FB00D1124AE5ABC4FFE0131961F
:1023F00001900D929A95E1F7809351030E94330F5B
:1024000017E08091500390915103891779F1189F3B
:10241000C00111248E5A9C4F0E94E90F882331F18C
:10242000E09150031E9FF0011124EE5AFC4F2081D1
:102430003181428153816481758186810E94BD0D05
:102440008091500390E00196877099278093500304
:10245000D8CF0E94860D1092510310925003EAE8E3
:10246000F3E087E0DF011D928A95E9F72E96E3E01D
:102470000C94F4308091B1038695869586950895E5
:102480008091B103877008959091B103977081E0B6
:1024900009F480E008958091D50308959091D503C3
:1024A000892B8093D503089580959091D503892336
:1024B0008093D50308958093D50308951092D50392
:1024C00008958091D40308959091D403892B80932B
:1024D000D403089580959091D40389238093D403E5
:1024E00008951092D40308958091B3030895089538
:1024F0000E94771208950E94781208959091B30374
:10250000292F2823821729F0982B9093B3030E9438
:102510007B1208959091B303292F282331F08095E1
:1025200089238093B3030E947B1208958091B303A3
:10253000882329F01092B30380E00E947B12089553
:10254000CF93DF93E091B101F091B2018091D50377
:102550008083E091B101F091B20190818091D40328
:10256000892B80838091B303882381F0E091B101AE
:10257000F091B2019081892B80838091B10190917B
:10258000B2010E94AA2481110E949612C091B10149
:10259000D091B20140E250E061E973E0CE010E94C7
:1025A0000031892B59F080E2FE01A1E9B3E00190EE
:1025B0000D928A95E1F7CE010E943824DF91CF91E8
:1025C00008950E94771208950E94E1120895909153
:1025D000B203292F282331F0809589238093B203F9
:1025E0000E94E41208950E94771208959091580471
:1025F00092FF11C098E0899F90011124262B20930F
:10260000B1030E940F0E8091B10386958695869541
:102610000E94F31208950E940F0E08951092B103C4
:1026200080E00E94F31208959091B1038095892370
:102630008093B103282F277069F4981759F090916F
:10264000580492FF07C08695869586950E941F0EB6
:102650000E940E1308959091580492FB222720F9AE
:10266000281769F080FB92F99093580480915704E1
:10267000909158040E94731382E00E9414130895ED
:102680008091580482FB882780F991E089270E9475
:102690002B13089581E00E942B13089580E00E947F
:1026A0002B1308956FEF7FEF80E090E00E9462317E
:1026B000089580E090E00E942E3121E0863E9E4FFA
:1026C00009F020E0822F089582E090E00E942631F8
:1026D000089583E090E00E942631089584E090E020
:1026E0000E942E310895BC0184E090E00E94623186
:1026F0000895AB01BC018FE090E00E94563108952F
:10270000AB01BC0183E190E00E945631089560E086
:1027100070E0CB010E948013089560E070E0CB016F
:102720000E9479130E9487130895A8E0B0E0EBE9B6
:10273000F3E10C94D93066EE7EEF80E090E00E94E9
:10274000623160E082E090E00E94443160E083E02A
:1027500090E00E94443110924F0310924E0360E0CB
:1027600074E184E090E00E94623160E086E090E0F5
:102770000E9444316FEF87E090E00E94443140E0D6
:1027800050E0BA0188E090E00E94563160E084E2B7
:1027900090E00E94443160E087E190E00E94443183
:1027A00060E08CE090E00E94443160E08DE090E0D9
:1027B0000E94443119821A821B821C821D821E8251
:1027C0001F82188648E050E068E170E0CE01019673
:1027D0000E94343140E050E0BA0180E290E00E9473
:1027E00056310E948D132896E2E00C94F5300E9439
:1027F00095130895682F8EE090E00E94443108956B
:10280000A6E0B0E0E6E0F4E10C94D7300E944A265E
:102810008C018091D6039091D7030817190781F096
:1028200019821A820E944A26682F49815A81792F7B
:1028300080E090E00E94260A1093D7030093D6030D
:102840002696E4E00C94F3300E9456266093E4034D
:102850007093E5038093E6039093E7036093E003AE
:102860007093E1038093E2039093E303089581E082
:10287000089581E008950E943914089508950E94F2
:102880003E1408950E94160708950E943E1408956C
:102890000E94451408950E943E1408958DE097E12A
:1028A0000E94B0180E944B140E94481408950E9480
:1028B0003F140E943E1408950E942C170E94FA09AA
:1028C0000E944C1F08950E9441260E9408180E94F1
:1028D0005C14E7E5F4E08081806880838091570490
:1028E000909158040E9473130E9442140895A6E028
:1028F000B0E0EDE7F4E10C94CD300E943714811183
:1029000003C00E94001466C00E941E1828EDE22E2B
:1029100023E0F22E5701D12CF501019111915F01B5
:102920008D2D0E944A1780279127D394F4E0DF165B
:1029300019F0892B89F302C0892B19F38091E803E0
:1029400081FD0E9453170E943B14682E10E0812FD6
:102950000E944A174C01F701A080B180A826B92631
:10296000A114B10471F100E0CC24C394D12CC501B1
:102970008C219D21892BE9F077247394C4018C214B
:102980009D21892B09F4712C662071F009831A832B
:102990000E944A26682F8B839C8349815A81792F14
:1029A00081E0972D0E94260A472D602F812F0E94DB
:1029B000481D0F5FCC0CDD1C0C30C9F6F70191826D
:1029C00080821F5FF2E0EF0EF11C143009F0BFCFE0
:1029D0000E9424140E948C1E0E944E1A0E940D0A0E
:1029E0002696EEE00C94E9301F93CF93DF930E947C
:1029F0002216EC01C11580E5D807E8F5C11590E471
:102A0000D90708F0A8C0C03ED10530F5CD3CD105AE
:102A100008F094C0C83AD10578F4C53AD10508F059
:102A200083C0C130D10509F47CC008F4F2C0C430C1
:102A3000D10508F0F1C0EDC0C33CD10508F0E9C0F4
:102A4000C85AD0E0CC0FDD1FC15FDD4F0990D8819F
:102A5000C02DCE019464E1C0C11580E2D80708F012
:102A6000CBC0C11591E0D90708F06BC0C83ED105B5
:102A700008F4D2C0CEC0C03682E5D80728F5C034ED
:102A800092E5D90708F079C0C03282E5D80708F08E
:102A90006CC0C11592E5D90708F481C04C2F46954A
:102AA000469580E2489FA0011124C37021E030E0E8
:102AB000C90102C0880F991FCA95E2F7EA01C82B25
:102AC000D92BCE019D68A9C0C03A82E5D807B8F4D9
:102AD0008C2F8F71C03892E5D90708F07BC086959E
:102AE000869590E2899F90011124C37081E090E067
:102AF00002C0880F991FCA95E2F79A6868C0C03C67
:102B000082E5D80708F46DC0C03E92E5D90708F009
:102B100080C0CF71DD27DC2FCC27CE01806F906A7B
:102B20007CC081E090E079C0C55AD0E0CB5BDD4F3E
:102B30008881C82FD0E0CE0190646FC0CE0190652F
:102B40006CC08D2F0E94BE16182FCE0199270E94AF
:102B500022161F715CC0CE0199270E942216CC2735
:102B6000DF70D06A8C2B9D2B58C0CF71D0E0DC2F4A
:102B7000CC27CE01816F906A50C08C2F8F718695C3
:102B8000869590E2899F90011124C37081E090E0C6
:102B900002C0880F991FCA95E2F79C6818C08C2F55
:102BA0008F710E94BE1695E0D695C7959A95E1F76C
:102BB000CF70D0E0DC2FCC27282F30E084FF05C079
:102BC00084E0220F331F8A95E1F7D069CE01822B72
:102BD000932B23C090E0D82FCC27CE01846F906A2E
:102BE0001CC08C2F8F710E94BE168F7190E0D82F61
:102BF000CC27CE01906211C08D2F8F710E94BE161E
:102C0000182FCE0199270E9422161F719062912BD6
:102C100004C080E090E001C0CE01DF91CF911F9110
:102C20000895743038F46C3028F4462F672F0E94D2
:102C30006E08089580E090E008950E9411160E94A9
:102C4000F41408958238910569F1B0F48133910547
:102C500009F475C048F48932910509F467C08A32D5
:102C6000910509F471C008958533910509F459C09F
:102C700089339105B9F00895833E910589F138F4BF
:102C8000803E9105D1F0823E910529F10895863E5E
:102C90009105C9F1873E9105D9F1843E910509F06E
:102CA0006CC027C02091570420FD57C021FD55C09E
:102CB0002091580423FD5BC008958091570480FD46
:102CC00048C08091580480FF48C08091570484FD1B
:102CD00046C083EE51C08091570482FF3CC0F5CFBF
:102CE0008091570482FD37C08091580480FD35C023
:102CF000ECCF8091580481FF36C08091570484FD49
:102D00002EC087EE39C08091570483FF2AC0F5CFCB
:102D10008091570483FD25C08091580481FD23C014
:102D2000ECCF8091570485FD22C01FC080915704CD
:102D300085FD1BC08091580483FF19C00AC0809193
:102D4000570486FD16C017C08091570486FD13C036
:102D500010C089E311C082EE0FC080EE0DC080E08C
:102D60000BC086EE09C084EE07C085E305C089E28A
:102D700003C08AE201C081E390E008959091570476
:102D800092FF10C041E0282F2471243009F040E068
:102D900031E0282F2871283009F030E0431711F076
:102DA0002CE0822793FF10C041E0282F24712431AA
:102DB00009F040E031E0282F2871283109F030E097
:102DC000431711F02CE082273091580430FF10C0D7
:102DD00051E0282F2171213009F050E041E0282FE7
:102DE0002871283009F040E0541711F029E08227BB
:102DF00031FF10C041E0282F2171213109F040E05E
:102E000031E0282F2871283109F030E0431711F004
:102E100029E0822794FD877E089580E008950E942E
:102E2000521308950E941E182FEF86E791E021505B
:102E300080409040E1F700C000000E941E1880E032
:102E40000E944A1780FF04C00E940F170E94B326F9
:102E500008950E94121708950E945913811102C00B
:102E60000E94F7130E9464138093E8030E946E137C
:102E700090935804809357040E9429170E94691365
:102E800090E00E94D60D80914C0390914D030E94DA
:102E9000F40D0895E82FF0E0EE0FFF1FEF59FB4F00
:102EA000808191810895089580EA8A95F1F70895C7
:102EB00000C008950E945417089508950E945D1758
:102EC00008950E945E1708950E945D1708950E945C
:102ED00064170895F894E82FE295EF70F0E031A1BF
:102EE000282F2F7081E090E001C0880F2A95EAF723
:102EF000982F9095932391A392A1892B82A37894E4
:102F000008950F931F93CF93DF93C4E5D2E0899187
:102F10008F3F11F00E946A1782E0C835D807B9F7D1
:102F2000C8E4D2E004E512E089918F3F11F00E94DD
:102F30006A170C171D07C1F7DF91CF911F910F91F1
:102F40000895A0E0B0E0E7EAF7E10C94D2308C01FC
:102F5000C62FD0E0CE018C5A9D4F6C01FC019081B0
:102F60009F3F09F450C0B62EF894E92FE295EF7018
:102F7000F0E081A19F7021E030E001C0220F9A951E
:102F8000EAF7822B81A382A12095282322A378949B
:102F90000E945817E8E4F2E044E552E021E030E016
:102FA000E12CF12C61916F3F89F0A62FA295AF70B3
:102FB000B0E090968C9190E06F7002C095958795E7
:102FC0006A95E2F780FD02C0C90102C080E090E08E
:102FD000E82AF92A220F331F4E175F0719F7F60167
:102FE00080818F3F11F00E946A1761E0E114F104C3
:102FF00009F460E08B2D0E945A17CC0FDD1FC00F23
:10300000D11FF982E882CDB7DEB7E9E00C94EE304B
:103010000E94811788E0E1E6F4E0DF01982F1D921D
:103020009A95E9F7E9E5F4E0DF011D928A95E9F761
:1030300084E00E9459180E9467170895A8E0B0E044
:10304000E4E2F8E10C94D6308E010F5F1F4F88E068
:10305000F80111928A95E9F7F12C6F2DC8010E94B1
:10306000A117F394F4E0FF12F8CF48E050E0B80164
:1030700089E594E00E94003121E0009709F420E006
:10308000892B41F088E0F801A9E5B4E001900D92A8
:103090008A95E1F744E061E674E089E594E00E94F6
:1030A0005A18182F0E946117812F2896E5E00C947A
:1030B000F2300895EF92FF920F931F93CF93DF9317
:1030C0007C018B01C42F222349F081E08093EB0324
:1030D0000E944A269093EA038093E9038091EB03D0
:1030E000811102C080E01CC08091E9039091EA0345
:1030F0000E9462260597B0F3D0E0CC0FDD1FAE0131
:10310000B701C8010E940031892B39F0AE01B70127
:10311000C8010E940D3181E001C080E01092EB03F4
:10312000CDB7DEB7E6E00C94F1300E9451280E9442
:1031300063140E945E2808950E9463280E947714F9
:103140000E947D2808950E94E1250E9437280E9450
:103150004E140E9495180E949C180E945714FBCF91
:1031600090936102809360020895282F35EB23032A
:10317000C001112497FF03C08058910902C08058F4
:103180009F4F892F08958091F20380FF06C06091C0
:10319000B80170E0660F771F26C081FF04C0609100
:1031A000B80184E005C082FF07C06091B80188E0E3
:1031B000689FB001112417C09091F1039923D1F0B9
:1031C0006091B701961788F72091B80188E0289F91
:1031D00090011124929FA001939F500D112470E043
:1031E000CA010E946E306038710540F461157105A6
:1031F00019F406C068E070E0862F08958FE70895FF
:1032000081E008958091F20380FF08C06091B401CD
:1032100070E0759567957595679521C081FF06C02B
:103220006091B40170E07595679519C082FF04C084
:103230006091B40170E010C09091F003992399F06F
:103240006091B3019617A0F78091B401899FC001E6
:10325000112470E00E946E306038710540F46115F1
:10326000710519F406C061E070E0862F08958FE7BC
:10327000089581E008958D3C21F40E94C318819542
:1032800004C08E3C29F40E94C3188093F60308956D
:103290008F3C21F40E94C318819504C0803D29F41D
:1032A0000E94C3188093F5030895893D19F40E9484
:1032B000021905C08A3D31F40E940219819580935C
:1032C000F70308958B3D21F40E940219819504C0F3
:1032D0008C3D29F40E9402198093F80308959FE21F
:1032E000980F983078F421E030E0A90102C0440F33
:1032F000551F9A95E2F7CA019091F403892B8093A8
:10330000F40308958D3D21F48091F20381600BC098
:103310008E3D21F48091F203826005C08F3D29F437
:103320008091F20384608093F20308958D3C39F418
:103330009091F60397FF35C01092F60359C08E3C6A
:1033400029F49091F6031916BCF32BC09091F50364
:103350008F3C29F497FF25C01092F50349C0803DAA
:1033600019F41916CCF31DC09091F703893D29F487
:103370001916BCF41092F7033BC08A3D19F497FF6D
:1033800010C0F8CF8B3D39F49091F80397FF09C036
:103390001092F8032DC08C3D21F49091F80319167A
:1033A000BCF39FE2980F983080F421E030E0A9014F
:1033B00002C0440F551F9A95E2F7CA01809590917B
:1033C000F40389238093F40313C08D3D21F480918D
:1033D000F2038E7F0BC08E3D21F48091F2038D7F2E
:1033E00005C08F3D29F48091F2038B7F8093F20317
:1033F0008091F503811106C08091F603811102C00E
:103400001092F1038091F703811106C08091F803B7
:10341000811102C01092F00308950E944A26209163
:10342000F503211104C02091F603222321F090938B
:10343000EF038093EE032091F703211104C0209144
:10344000F803222321F09093ED038093EC0383EFA4
:1034500093E00E9452240895E3EFF3E086E0DF0159
:103460001D928A95E9F71092F1031092F0031092E1
:10347000F2030895FC01828181110DC083818111C5
:103480000AC08481811107C091E08581811101C04A
:1034900090E0892F01C081E081700895A6E0B0E03E
:1034A000E4E5FAE10C94D83086E0E3EFF3E0DE01E6
:1034B000119601900D928A95E1F71092F503109202
:1034C000F6031092F7031092F8038B81811104C068
:1034D0008C81882309F456C08091EE039091EF030C
:1034E0000E946226AC019091F103992339F020915A
:1034F000B90130E02417350758F044C02091BA01D3
:103500008AE0289F900111242417350718F03AC04B
:103510009F3F19F09F5F9093F1031B81112361F08E
:103520000E94C318111614F09FEF01C091E0989FFC
:10353000902D11249093F5031C81112361F00E94BA
:10354000C318111614F09FEF01C091E0989F902DC1
:1035500011249093F6038091F503882399F010913C
:10356000F603112379F00E94B518811101C081E0A2
:103570008093F503812F0E94B518811101C081E06D
:103580008093F6038D81811104C08E81882309F414
:1035900056C08091EC039091ED030E946226AC012D
:1035A0009091F003992339F02091B50130E0241770
:1035B000350758F044C02091B6018AE0289F900159
:1035C00011242417350718F03AC09F3F19F09F5F68
:1035D0009093F0031D81112361F00E9402191116CE
:1035E00014F09FEF01C091E0989F902D11249093CB
:1035F000F7031E81112361F00E940219111614F0C5
:103600009FEF01C091E0989F902D11249093F803B3
:103610008091F703882399F01091F803112379F032
:103620000E94B518811101C081E08093F703812FBA
:103630000E94B518811101C081E08093F803BE019A
:103640006F5F7F4F83EF93E00E946E25811105C06D
:1036500083EF93E00E943A1A81110E940D1A86E0CE
:10366000FE013196A3EFB3E001900D928A95E1F748
:103670002696E3E00C94F430EF92FF920F931F93A1
:10368000CF93DF938B01682F11110AC0442329F0D7
:10369000E82FF0E0EC52FD4F6491762F862F75C035
:1036A000212F30E0E82FF0E0442321F0EC52FD4FD1
:1036B000E491F0E046E0049FC0011124CFEFD0E098
:1036C000BE010E945A304BEA4603C001479F900D4D
:1036D0001124800F911D800F911D982F990F890F34
:1036E000AE01421B530B4E9FD0014F9FB00D5E9F0A
:1036F000B00D11249B2F189FA0011124452F552791
:103700008E01041B150B0E9FA0010F9F500D1E9FD5
:10371000500D11247E01E81AF108E29E8001E39E1B
:10372000100DF29E100D1124212F3327C21BD30B35
:10373000CE9F9001CF9F300DDE9F300D112462305F
:103740007105A9F048F46115710569F061307105E2
:10375000C9F48B2F752F0DC06430710581F058F0BE
:103760006630710579F47E2F8B2F932F0DC0832F38
:103770007B2F9E2F09C08E2F7B2F952F05C08E2F5C
:10378000732F02C07E2F852F692FCDB7DEB7E6E0FD
:103790000C94F13041E00E943C1B089520E030E0A1
:1037A000869F212D969F200D311D1124C90108955A
:1037B0008F929F92AF92BF92DF92EF92FF920F9300
:1037C0001F93CF93DF937B01D82EBA0180E090E066
:1037D0000E94962E20E030E04FE753E40E94F52D42
:1037E0004B015C019B01AC010E94ED2FA5019401EE
:1037F0000E94ED2FA50194010E94ED2F8B01D82F7F
:10380000C92F2DEC3CEC4CE45DE30E94F02D87FDCC
:1038100010C023E333E343E75FE3B8018D2F9C2F10
:103820000E94E82F18164CF400E010E0D0E8CFE337
:1038300004C000E010E0D0E0C0E020E030E04FE75E
:1038400053E4B8018D2F9C2F0E94ED2F9B01AC01FA
:1038500060E070E08FE793E40E94832D0E94672E62
:10386000262F3D2D239F212D1124822FB701DF917B
:10387000CF911F910F91FF90EF90DF90BF90AF908D
:103880009F908F9008950E94D81B809508959091E5
:10389000F903892B8093F90308950E94CA1B0895A8
:1038A000E9E6F4E085E080838091CA019091CB0144
:1038B000A091CC0181839283A3838FE784838FEFD0
:1038C000858348E050E068E170E0CF010E94343128
:1038D0001092F903089580E008950F931F93CF93FA
:1038E000DF93C82FD62F8A010E946B1C9CE0C99FD2
:1038F000F0011124EE5FFE4FED0FF11D90819F3F0F
:1039000029F0F801E80FF11D90838F5FDF91CF91CF
:103910001F910F910895E0915E02F0915F02099569
:103920000895E0915A02F0915B0209950895A0E094
:10393000B0E0EDE9FCE10C94D1308C017B01FC019D
:10394000C08189E0C89FC02D1124D9E0DC0FDB3293
:1039500008F0DAE220916D0431E0230F08F42FEF34
:1039600030E040E050E06FEF7FEF80E090E00E94B9
:10397000A4306901CD1708F041C0AC2EB12CF5017F
:10398000EA57FE4F9081F80181818923A9F1909136
:103990007504915097FD15C0292F092E000C330B8B
:1039A000F901EB58FB4F8189C813F3CF220F331F66
:1039B000F901EB58FB4F218D328D2C153D0548F751
:1039C00001C0960160916D0441E0640F08F46FEF4F
:1039D000C9010E94CE1BAC0160916A0470916B0416
:1039E00080916C04F70109950E944D1C462F282FE9
:1039F000672FC5010E94911CCF5FBCCF81E0DA32F6
:103A000008F080E0CDB7DEB7EAE00C94ED30A0E03E
:103A1000B0E0EDE0FDE10C94D4308C01DC018C9140
:103A2000C9E08C9FC02D1124D9E0DC0FDB3208F0F7
:103A3000DAE260916A0470916B0480916C040E94D8
:103A40004D1CF62EE72ED82ECD1798F4EC2FF0E073
:103A5000DF01AA57BE4F8C91D80111969C919823F3
:103A600031F02D2D4F2D6E2DCF010E94911CCF5F77
:103A7000EBCF81E0DA3208F080E0CDB7DEB7E7E0E7
:103A80000C94F030E0915C02F0915D02099508958C
:103A9000CF92DF92FF920F931F93CF93DF93CDB717
:103AA000DEB728970FB6F894DEBF0FBECDBF182F34
:103AB000062FF42E0E943914882309F46FC0FF20CA
:103AC00049F0AE014F5F5F4F602F812F0E946D1C48
:103AD000F82E01C0F12C0F2D10E08091FA0398010F
:103AE000280F311D293031056CF188E090E06C0120
:103AF000C01AD10AB80165507C4FA6018BEF93E044
:103B00000E940D31B8016D5F7B4FA60183E094E008
:103B10000E940D31A601440F551FB801660F771F93
:103B20006D5E7B4F83E194E00E940D31B801655FCB
:103B30007B4FA6018BE094E00E940D3188E08F1945
:103B40008093FA031091FA03DE01119640E0842F6E
:103B5000810FF41609F190E05D91252F30E0BC0152
:103B600066507C4FF901EE0FFF1FEE5CFE4F0081A7
:103B7000FB010183220F331FF901EE5FFE4F21A9E4
:103B8000FB012187518B880F991FFC01E650FC4FE8
:103B9000128E118E4F5FDBCF8093FA0328960FB6FB
:103BA000F894DEBF0FBECDBFDF91CF911F910F9173
:103BB000FF90DF90CF9008958091710490917204EE
:103BC000A0917304B091740488279C70AA27BB2726
:103BD0002AE0B695A795979587952A95D1F78230D3
:103BE0009105A105B10571F083309105A105B105DD
:103BF00069F040E00197A105B10511F060E008C04F
:103C000064E102C044E160E080E003C044E164E1BB
:103C100084E10E94421D0895CF93C82F8091BF0177
:103C20008C130DC020916904237030E04091C001D5
:103C300050E081E02417350719F480E001C081E0ED
:103C400081708093BE0180916E049091BD019817A0
:103C500039F08093BD0140E060E080E00E94421DA9
:103C6000C23019F468ED7BE106C0C33048F0C330C0
:103C7000A1F563E47CE18CEB91E00E94971C08C005
:103C8000CC23D1F0C13019F58CEB91E00E94071DD7
:103C90009091BC019F5F9093BC01811124C082E090
:103CA0008093BB018091BE0181111DC0C1111BC059
:103CB00083E08093BB0117C08091BE01882329F067
:103CC00040E060E080E00E94421D80E0E1CF809112
:103CD000BC018F5F8093BC01E2CFCF3FC1F70E9450
:103CE000DC1D82E0E6CFCF9108950E94580608952A
:103CF00081E008950E94781E0895FC018081815022
:103D000099E0899F802D112469E0680F6B3208F0DB
:103D10006AE20E947A1E08954F925F926F927F929C
:103D20008F929F92AF92BF92CF92DF92EF92FF92CB
:103D3000CF93609123047091240480912504909185
:103D400026040E9471266B017C010E9456264B01BD
:103D50005C01609323047093240480932504909362
:103D60002604A091FA03EAEFF3E08A2F90E04FEFE8
:103D70005FEF60E070E04C195D096E097F09A917DB
:103D800099F0218D328D2901612C712C4415550536
:103D90006605770510F4815004C02C0D3D1D328F4F
:103DA000218F9F5F3296EBCF8093FA038091270497
:103DB000811108C0C09169048C2F837019F0C695D9
:103DC000C69501C0C0E08091BB018130D9F028F0D8
:103DD000823041F1833099F151C01092BC01809240
:103DE000710490927204A0927304B092740489E2F8
:103DF000EAEFF3E0A5E7B4E001900D928A95E1F7D0
:103E000081E01AC08C2F0E940C1ECC23B9F1809146
:103E1000BC01853011F40E94751E8CEB91E00E946C
:103E20007D1E2CC0C093BF01809169048370809374
:103E3000C0010E948B1C83E08093BB011FC0809156
:103E4000F903882351F048E050E068E170E089E62A
:103E500094E00E9434311092F903609171047091E2
:103E6000720480917304909174040E9471266031F1
:103E700071058105910510F01092BB01CF91FF9063
:103E8000EF90DF90CF90BF90AF909F908F907F90FA
:103E90006F905F904F900895E0915802F091590211
:103EA000099510927504EEE8F4E08FEF9FEF81938F
:103EB000919324E0EE39F207D1F71092FA03E3E18F
:103EC000F4E08FEF9FEF8193919324E0E332F207C8
:103ED000D1F70E945913811104C00E94F7130E9468
:103EE000501C81E08093F90348E050E068E170E005
:103EF00089E694E00E9416311092F90380916904DA
:103F00008C7F11F40E94501C0895CF93C82F8823F2
:103F100091F08091270481110EC00E940C1E109216
:103F2000BF018091690483708093C0010E948B1C43
:103F300083E08093BB01C0932704CF910895E9E605
:103F4000F4E0208191E0922790831092BB010E94BF
:103F5000471C089581E00E949F1F08958091690485
:103F6000837011F41092BB01809169048C7F816091
:103F70008093690408950E94AE1F81E00E94471C4F
:103F8000089580916904837011F01092BB018091B3
:103F900069048C7F8093690408950E94C11F81E0A9
:103FA0000E94471C089590916904937091F08111CB
:103FB00002C0946007C0843010F09C6003C0880F7A
:103FC000880F982B90936904862F1092BB010E9452
:103FD000471C089561E00E94D31F0895682F9091B7
:103FE0006904969596959F5F943010F4892F01C0CF
:103FF00081E00E94D31F089581E00E94EE1F089582
:10400000682F9091690496959695915011F0892F9B
:1040100001C083E00E94D31F089581E00E94002028
:10402000089590916904937049F080936A046093B5
:104030006B0440936C04822F0E94471C089520E07B
:104040000E9411200895A9E6B4E01196EC91119711
:10405000F0E0282F13964C91139712966C91CF0194
:1040600008960E941120089581E00E94232008955F
:10407000A9E6B4E01196EC911197F0E0282F139681
:104080004C91139712966C91CF0108970E941120C2
:10409000089581E00E9438200895E9E6F4E0628105
:1040A00020E1620F08F46FEF9181282F4381892F5F
:1040B00090E00E941120089581E00E944D20089513
:1040C000E9E6F4E0628120E1621B08F460E091819E
:1040D000282F4381892F90E00E941120089581E0CC
:1040E0000E9460200895E9E6F4E0438120E1420F58
:1040F00008F44FEF9181282F6281892F90E00E9470
:104100001120089581E00E9473200895E9E6F4E00B
:10411000438120E1421B08F440E09181282F628115
:10412000892F90E00E941120089581E00E9486204E
:10413000089580936D0481E00E94471C0895E9E68C
:10414000F4E0248130E1230F08F42FEF24830E9450
:10415000471C089581E00E949F200895E9E6F4E05D
:10416000248130E1231B08F420E024830E94471CB3
:10417000089581E00E94AE200895109228040895C9
:10418000FC01EE0FFF1FDF01A80FB91FA256BB4FA6
:1041900011963C911197361307C03C91341304C01B
:1041A00012963C91321759F031E0309328048E0F6B
:1041B0009F1FFC01E256FB4F6183408322830895D9
:1041C000FF920F931F93CF93DF93182F062FF42E98
:1041D000C0E0D0E02F2D402F612FCE010E94C020E3
:1041E0002196CA32D105B1F7CDB7DEB7E5E00C9420
:1041F000F23080912804882341F06AE270E08EE971
:1042000094E00E946321109228040895882311F0FD
:10421000FA0101C0FB01099508951F93CF93DF9325
:10422000FB01158111114AC0EC010E944B128272F0
:10423000FE01E052F847E531F10520F4EE59FF4F59
:104240000C94C33011E03AC00E94AA1F37C04DE061
:1042500050E26CEF7FE104C04CEF5FE16DE070E293
:104260000E9406212BC049E450E264E370E2F8CFDB
:1042700044E350E269E470E2F3CF4FE650E26CE5CC
:1042800070E2EECF4CE550E26FE670E2E9CF45E92F
:1042900050E262E870E2E4CF42E850E265E970E2A1
:1042A000DFCF49EB50E26AEA70E2DACF4AEA50E245
:1042B00069EB70E2D5CF81E00E94EA1F812FDF9188
:1042C000CF911F910895239A25B1277F35B138608A
:1042D0004FB7F894FC01CB01880F991F680F791F25
:1042E0006E0F7F1FE617F70789F0819198E035B9C7
:1042F000000000C087FF25B9880F000000C000C083
:1043000000C025B900C09A9591F7ECCF4FBF8FE55B
:1043100094E00197F1F700C000000895CF93DF9378
:10432000FC01DB0115968C91882309F4DDC09F0107
:1043300030572332310508F0D8C0EF010E946E13C8
:104340009093580480935704FE01E150F047E23205
:10435000F10520F4E958FF4F0C94C33080915704C5
:104360008160AAC0809158048860B2C080915704CF
:104370008260A2C08091570420C080915704886059
:104380009BC0809158041EC0809158048260A0C0D8
:1043900080915704806190C08091570480628CC0E6
:1043A00080915704806488C00E94860D80915704D4
:1043B000806882C080915704886084607DC080914D
:1043C00058048260816084C0809157048E7F74C0DD
:1043D00080915804877F7CC0809157048D7F6CC08A
:1043E0008091570420C080915704877F65C08091D9
:1043F00058041EC0809158048D7F6AC08091570474
:104400008F7E5AC0809157048F7D56C0809157048B
:104410008F7B52C00E94860D809157048F774CC0CD
:1044200080915704877F8B7F47C0809158048D7F90
:104430008E7F4EC08091570482FB222720F991E0A5
:10444000922790FB82F990FB83F936C08091580443
:10445000982F909591708E7F892B90FB81F938C0B1
:104460008091570486FB222720F991E0922790FB48
:1044700086F922C00E94860D8091570487FB22276F
:1044800020F991E0922790FB87F916C081E001C0E6
:1044900080E00E94FA131EC08091570484FB2227FB
:1044A00020F991E0922790FB84F906C0809157048F
:1044B000982F909590FB80F9809357040BC08091C2
:1044C000580483FB222720F991E0922790FB83F97F
:1044D0008093580480915704909158040E9473135C
:1044E0000E94860D80E001C081E0DF91CF910895A8
:1044F000A0E0B0E0EEE7F2E20C94D430E82FF0E078
:10450000EC52FC4FD490282F26952695269530E026
:10451000F901EC58FB4F0491877010E0082E02C09F
:10452000159507950A94E2F701701127F901EC59E6
:10453000FB4FE490F12C082E02C0F594E7940A9406
:10454000E2F791E0E922FF24F901EC5AFB4FC49114
:10455000D0E002C0D595C7958A95E2F7C170DD27F6
:104560000115110519F081EE0E946C0AE114F104A5
:1045700019F086EE0E946C0A8D2D0E94120BE11438
:10458000F10419F086EE0E94C20A0115110519F016
:1045900081EE0E94C20ACD2B19F08CE20E94120B10
:1045A000CDB7DEB7E7E00C94F030EF92FF920F93B7
:1045B0001F93CF93DF93EC01162F0AE088818823A5
:1045C00009F455C0813009F043C08981813041F43C
:1045D0007E0182E0E80EF11C8A810E94120B09C064
:1045E000823049F47E01E2E0EE0EF11C8A810E94E5
:1045F0006C0AE7012FC0833041F47E01F2E0EF0E38
:10460000F11C8A810E94C20AF4CF843011F02196F5
:1046100021C02A81229680E090E030E020533109C9
:104620002A30310558F4089FA001099F500D11242C
:10463000C901840F951F21962881EFCF009751F073
:10464000EFE9FFE03197F1F700C000000197F6CFE6
:104650000E9478222196812F882309F4AFCFEFE9B9
:10466000FFE03197F1F700C000008150F5CFCDB7E2
:10467000DEB7E6E00C94F13060E00E94D5220895A8
:10468000CF93DF9386319C4741F5EB010E944B129B
:10469000982F8D812091B1013091B201882379F05A
:1046A0009A7A81E009F480E080932904911102C094
:1046B00069E201C065E3C9010E9440250AC08091FA
:1046C0002904811102C069E201C065E3C9010E94A9
:1046D0004E250E94A01280E001C081E0DF91CF91C1
:1046E0000895A0E0B0E0E7E7F3E20C94D1307C015C
:1046F0005B01C42FD22FFC0185818823B1F0409348
:104700002C040E944A2690932B0480932A0480E272
:104710008C0F883008F052C0C77081E001C0880F4C
:10472000CA95EAF70E941C0B49C080912C044813DB
:1047300035C080912A0490912B040E9462266C015E
:10474000B701C5010E945107C816D90638F510E215
:104750001D0FCD17B9F080E28C0F883040F4C77080
:1047600081E001C0880FCA95EAF70E94230B183038
:1047700010F581E09D2F977001C0880F9A95EAF798
:104780000E941C0B802F0E94120B1830B8F4D770B7
:1047900081E001C0880FDA95EAF70AC080E28C0F49
:1047A000883060F4C77081E001C0880FCA95EAF7CD
:1047B0000E94230B03C0802F0E94120BCDB7DEB7DF
:1047C000EAE00C94ED300F93FC01E851FC47E73030
:1047D000F10590F5CB01E756FF4F0C94C33006E28C
:1047E00021EE41EE6AE17CE723C007E225EE45EECB
:1047F0006BE17CE71DC006E221EE40EE68E17CE75C
:1048000017C007E225EE44EE69E17CE711C006E23D
:1048100021EE42EE6CE17CE70BC007E225EE46EEAE
:104820006DE17CE705C008E221E045EE6EE17CE742
:104830000E94712380E008C0FB018581882319F064
:1048400010922C0401C081E00F91089590933204DE
:10485000809331040895E0913104F091320430974F
:1048600029F00190F081E02D0995089580E00895E8
:10487000FC01A0913104B0913204109791F0809125
:10488000C901882341F08091570487FF04C08081CB
:10489000818386E08083CF011296ED91FC9113977E
:1048A00009950895E0913104F0913204309739F080
:1048B00022E0DC012C930480F581E02D0995089518
:1048C000A3E0B0E0E6E6F4E20C94D93020912F04A6
:1048D0003091300428173907A1F090933004809369
:1048E0002F04E0913104F0913204309751F023E02D
:1048F00029839B838A830680F781E02DCE01019670
:1049000009952396E2E00C94F530A3E0B0E0EBE8E3
:10491000F4E20C94D93020912D0430912E04281704
:104920003907A1F090932E0480932D04E091310477
:10493000F0913204309751F024E029839B838A83DD
:104940000680F781E02DCE01019609952396E2E0DD
:104950000C94F530FC0132968091C901882331F026
:104960008091570487FF02C09EE101C096E080E07D
:10497000915028F021912223D9F38F5FF9CF089528
:10498000662351F12091C9012223E9F020915704B7
:1049900027FF19C0462F4695469546954E31E0F4BF
:1049A000677021E030E002C0220F331F6A95E2F702
:1049B000FC01E40FF11D828190E02823392381E07E
:1049C000232B69F409C0FC013296089621916217E5
:1049D00029F0E817F907D1F780E0089581E00895FC
:1049E0009C01FC0132969FEF80E04191461789F0CF
:1049F0009F3F19F4411101C0982F8F5F8630A9F7AE
:104A00009F3F39F0F901E90FF11D97FDFA95628397
:104A1000089508959C012A5F3F4FFC01428146138F
:104A200001C01282019682179307B9F70895262FC5
:104A30002695269526952E3168F4FC01E20FF11D8E
:104A4000677021E030E001C0220F6A95EAF78281A9
:104A5000282B22830895262F2695269526952E31DC
:104A600070F4FC01E20FF11D677021E030E001C03D
:104A7000220F6A95EAF720958281282322830895E0
:104A80002091C901222339F02091570427FF03C048
:104A90000E94172508950E94F02408952091C901CD
:104AA000222339F02091570427FF03C00E942B25B1
:104AB00008950E940A2508952091C901FC013296AB
:104AC000222331F08091570487FF02C08EE101C09C
:104AD00086E0DF011D928A95E9F70895DC01FB016C
:104AE00011969C9111978181981321C012968C91F7
:104AF0001297882319F09281891319C013968C910B
:104B00001397882319F09381891311C015968C91FE
:104B10001597882319F09581891309C014969C91E3
:104B2000992339F081E02481291304C002C081E077
:104B300001C080E08170089508950E949C25089529
:104B400083E0809333040E949D250895811102C063
:104B500081E001C082E0809333040E949D25089586
:104B60000E94A625089581E0809333040E949D252C
:104B700008950E94B325089508950E94BC250895C4
:104B80000E94BD2508950E94BC2508950E94BC2561
:104B900008950E94BC250895CF930E94C6250E94C7
:104BA0001E180E94C325C0E08C2F0E944A17892B33
:104BB00029F4CF5FC430C1F780E001C081E0CF911C
:104BC000089585B7806885BF85B7806885BF0895DB
:104BD0001F920F920FB60F9211248F939F93AF9352
:104BE000BF9380913404811113C080911C05909172
:104BF0001D05A0911E05B0911F054196A11DB11D77
:104C000080931C0590931D05A0931E05B0931F056E
:104C1000BF91AF919F918F910F900FBE0F901F90FA
:104C2000189580912405843031F10E94AF091092CB
:104C3000340420E488E190E00FB6F894A8958093BE
:104C400060000FBE2093600083B7817F846083BFC4
:104C500083B7816083BF7894889583B78E7F83BF45
:104C60000FB6F894A89580916000886180936000E9
:104C7000109260000FBE08950E94860D0E94B9092F
:104C8000089582E084BD93E095BD9AEF97BD80932F
:104C90006E0008952FB7F89480911C0590911D0522
:104CA000A0911E05B0911F052FBF08952FB7F8944E
:104CB00060911C0570911D0580911E0590911F0546
:104CC0002FBF08959C014FB7F89480911C059091D7
:104CD0001D05A0911E05B0911F054FBF821B930BB0
:104CE0000895CF92DF92EF92FF922FB7F894C09081
:104CF0001C05D0901D05E0901E05F0901F052FBFEC
:104D0000A7019601261B370B480B590BCA01B901A5
:104D1000FF90EF90DF90CF90089578941F920F92BC
:104D20000FB60F9211248F939F93AF93BF938091EF
:104D30001C0590911D05A0911E05B0911F050196BF
:104D4000A11DB11D80931C0590931D05A0931E0508
:104D5000B0931F05BF91AF919F918F910F900FBEA0
:104D60000F901F90189581E08093E00080E280937F
:104D7000D8001092C9008FE19EE40197F1F700C0BE
:104D8000000087E090EBDC0180932D0590932E05C9
:104D9000A0932F05B09330059CE088E10FB6F894FE
:104DA000A895809360000FBE90936000FFCF9CE0B9
:104DB00088E10FB6F894A895809360000FBE909399
:104DC0006000FFCF8091550408959B0190912405C8
:104DD0009430F1F48F708093E9008FEF9091E800A8
:104DE000815095FD06C095ED9A95F1F7000081116F
:104DF000F5CF8091E80085FF0BC0BA01C90140E002
:104E000050E00E94F5288091E8008E778093E800BA
:104E1000089543E050E0BC0182E00E94E526089539
:104E200046E050E0BC0182E00E94E5260895CF9361
:104E3000DF93EC018091C901811105C048E050E089
:104E4000BE0181E00BC08091570487FF03C040E2A0
:104E500082E002C048E081E050E0BE010E94E52609
:104E600080E2FE01A5E3B4E001900D928A95E1F79E
:104E7000DF91CF91089580912305811109C00E948F
:104E8000802A0E94DD2A8091E20084608093E20003
:104E900008951092230508950E94B9250895609100
:104EA000200581E0611101C080E00E94A0250895E5
:104EB0009091240581E0943009F080E06091200514
:104EC0000E94A625089542E061EC81E00E94F92944
:104ED00042E261EC82E00E94F9299091240581E090
:104EE000943009F080E0609120050E94B02508957B
:104EF00080912605833009F461C030F4813071F06F
:104F0000823009F49BC008958A3009F487C08B3041
:104F100009F46CC0893009F0A9C020C08091250532
:104F2000813A09F0A3C08091E800877F8093E80070
:104F30008091290590912A05892B21F460E285E36F
:104F400094E003C060E080E090E070E00E943A29C5
:104F50008091E8008B778093E80008958091250583
:104F6000813209F083C08091290590912A0502972A
:104F700008F07CC08091E800877F8093E8008091F2
:104F8000E80082FD05C0809124058111F8CF6EC034
:104F90002091F3008091F20090E0922B029731F47F
:104FA0008091F100813011F0863021F48091F10080
:104FB000809355048091E8008B7754C0809125053B
:104FC000813A09F053C08091290590912A05892BD7
:104FD00009F04CC08091E800877F8093E8008091C1
:104FE000E80080FFFCCF8091C90137C08091250582
:104FF0008132E1F58091290590912A05892BB1F53F
:105000008091E800877F8093E8000E942E2A80919B
:1050100027058093C9010E94860D0895809125057A
:10502000813221F58091E800877F8093E8000E941B
:105030002E2A809128058093560408958091250595
:10504000813AA1F48091E800877F8093E800809105
:10505000E80080FFFCCF809156048093F10080919E
:10506000E8008E778093E8000E942E2A089584B786
:10507000877F84BF0FB6F894A895809160008861FF
:1050800080936000109260000FBE90E080E80FB641
:10509000F89480936100909361000FBE0E94B32545
:1050A00008950E94802A0E94DD2AE2EEF0E08081CD
:1050B0008460808378940E94682D089581EC91E04B
:1050C0000E9426240895809124058530A9F48091BA
:1050D0002405853079F40E941126809122058823C9
:1050E000B1F30E94CC25882391F30E94DF280E940F
:1050F000860DEDCF0E943C26089508959A014091B7
:105100002B0550912C050E9486280895492F55277C
:1051100043305105C9F060F44130510581F042300F
:10512000510509F044C08BE390E04AEA54E043C0E3
:1051300041325105E1F04232510549F138C082E176
:1051400090E045EE54E037C099278130910549F051
:1051500028F0029761F5E4E8F4E005C0E6EAF4E03F
:1051600002C0E2E9F4E0849190E0AF0124C061154F
:10517000710541F061307105D1F489E090E045EDB1
:1051800054E019C089E090E04CEB54E014C0611584
:10519000710541F06130710551F486EB90E047EF05
:1051A00054E009C084E490E04DEA55E004C080E09A
:1051B00090E040E050E0F90151834083089580E1A0
:1051C00089BD82E189BD09B400FEFDCF8091D80080
:1051D0008F7D8093D8008091E00082608093E00012
:1051E0008091E00081FDFCCF0895A0E0B0E0EBEFFE
:1051F000F8E20C94D330EC018B017A010E944D2A25
:10520000811133C0E114F10439F0F70180819181FB
:10521000081B190BC80FD91FC12CD12C0115110562
:1052200019F18091E80085FD16C08091E8008E7725
:105230008093E800E114F10449F0F7018081918145
:10524000C80ED91ED182C08285E00FC00E944D2AAF
:10525000882321F30AC089918093F100015011093C
:10526000FFEFCF1ADF0ADACF80E0CDB7DEB7E8E094
:105270000C94EF3020912B0530912C052617370721
:1052800048F06115710539F42091E8002E772093DC
:10529000E80001C0B901FC0120E06115710579F158
:1052A000809124058823F1F18530F1F18091E800A7
:1052B00083FD3CC08091E80082FD2EC08091E80013
:1052C00080FFEBCF2091F3008091F20090E0922BD1
:1052D0006115710551F08830910538F421912093C2
:1052E000F100615071090196F3CF21E0089709F0B0
:1052F00020E08091E8008E778093E800CECF2111E6
:10530000CFCF0AC080912405882361F0853061F0F9
:105310008091E80083FD0AC08091E80082FFF2CF0F
:1053200080E0089582E0089583E0089581E0089583
:1053300020912B0530912C052617370748F0611571
:10534000710539F42091E8002E772093E80001C020
:10535000B901FC0120E06115710591F180912405EE
:10536000882309F440C0853009F43FC08091E800EB
:1053700083FD3DC08091E80082FD2FC08091E80050
:1053800080FFE9CF2091F3008091F20090E0922B12
:105390006115710559F08830910540F424912093EE
:1053A000F1003196615071090196F2CF21E0089722
:1053B00009F020E08091E8008E778093E800CBCF61
:1053C0002111CCCF0AC080912405882361F085305B
:1053D00061F08091E80083FD0AC08091E80082FFBF
:1053E000F2CF80E0089582E0089583E0089581E09F
:1053F0000895982F973068F59093E900981739F041
:105400007091EC002091ED005091F00003C0242F2A
:10541000762F50E021FD02C09F5FECCF3091EB0072
:105420003E7F3093EB003091ED003D7F3093ED00F7
:105430003091EB0031603093EB007093EC002093DF
:10544000ED005093F0002091EE0027FDE5CF80E0C5
:1054500008958F708093E90081E00895809125057B
:1054600087FF11C08091E80082FD05C0809124056E
:105470008111F8CF11C08091E8008B770BC080912B
:105480002405882349F08091E80080FFF8CF8091BF
:10549000E8008E778093E80008952091E400309131
:1054A000E50095E64091EC00842F817040FF23C019
:1054B0008091E80080FD1DC080912405882399F02B
:1054C000853099F08091EB0085FD11C04091E4009A
:1054D0005091E5002417350729F3915011F09A01F6
:1054E000E1CF84E0089582E0089583E0089581E0AB
:1054F000089580E008954091E80042FFDDCF0895CF
:105500000E94EF2A0E94F72AE0EEF0E0808181609D
:105510008083E8EDF0E080818F77808319BCA7ED70
:10552000B0E08C918E7F8C9380818F7E80831092EF
:10553000230508950F931F93CF93DF930E94EF2AC3
:105540000E94F72AC8EDD0E088818F778883888110
:105550008068888388818F7D888319BC1092240598
:1055600010922005109222051092210500EE10E005
:10557000F80180818B7F808388818160888342E00D
:1055800060E080E00E94F929E1EEF0E080818E7F0A
:105590008083E2EEF0E0808181608083808188609A
:1055A0008083F80180818E7F8083888180618883F9
:1055B000DF91CF911F910F910895E8EDF0E0808188
:1055C0008F7E8083E7EDF0E080818160808384E0DE
:1055D00082BF81E0809323050E949A2A0895E8ED16
:1055E000F0E080818E7F80831092E2000895109217
:1055F000DA001092E10008951F920F920FB60F92F9
:1056000011242F933F934F935F936F937F938F93C7
:105610009F93AF93BF93EF93FF938091E10082FF3D
:105620000BC08091E20082FF07C08091E1008B7F78
:105630008093E1000E94672D8091DA0080FF1FC0F7
:105640008091D80080FF1BC08091DA008E7F80930C
:10565000DA008091D90080FF0DC080E189BD82E130
:1056600089BD09B400FEFDCF81E0809324050E942E
:105670003B2705C019BC109224050E944927809140
:10568000E10080FF19C08091E20080FF15C0809189
:10569000E2008E7F8093E2008091E200806180933F
:1056A000E2008091D80080628093D80019BC85E028
:1056B000809324050E944F278091E10084FF30C031
:1056C0008091E20084FF2CC080E189BD82E189BD28
:1056D00009B400FEFDCF8091D8008F7D8093D80063
:1056E0008091E1008F7E8093E1008091E2008F7EC7
:1056F0008093E2008091E20081608093E2008091DB
:105700002005882311F084E007C08091E30087FD25
:1057100002C081E001C083E0809324050E945827E5
:105720008091E10083FF29C08091E20083FF25C0C2
:105730008091E100877F8093E10082E080932405DF
:10574000109220058091E1008E7F8093E10080918E
:10575000E2008E7F8093E2008091E200806180937E
:10576000E20042E060E080E00E94F9298091F000D0
:1057700088608093F0000E944C27FF91EF91BF91C9
:10578000AF919F918F917F916F915F914F913F91D9
:105790002F910F900FBE0F901F9018951F920F9290
:1057A0000FB60F9211242F933F934F935F936F93F4
:1057B0007F938F939F93AF93BF93CF93DF93EF9399
:1057C000FF93C091E900CF708091EC00D82FD17089
:1057D00080FDD0E81092E9008091F000877F8093EF
:1057E000F00078940E94122C1092E9008091F00051
:1057F00088608093F000CD2BCF70C093E900FF91BB
:10580000EF91DF91CF91BF91AF919F918F917F9158
:105810006F915F914F913F912F910F900FBE0F901D
:105820001F901895AAE2B0E0E8E1FCE20C94D830B1
:10583000E5E2F5E08091F100819325E0ED32F20799
:10584000C9F70E9478278091E80083FF2EC18091DC
:10585000250590912605492F50E04A30510508F062
:1058600024C1FA01E056FF4F0C94C330803821F078
:10587000823809F01AC108C0809121059091220553
:10588000992389F082600FC0809129058F7087303D
:1058900008F00BC18093E9008091EB0085FB88271D
:1058A00080F91092E9009091E800977F9093E800CA
:1058B0008093F1001092F100D1C0282F2D7F09F0C4
:1058C000F4C0882319F0823061F0EFC08091270581
:1058D000813009F0EAC0933009F080E0809322051E
:1058E0002EC08091270581112AC0809129058F70D3
:1058F0002FEF280F263008F0D8C08093E9002091C0
:10590000EB0020FF1CC0933021F48091EB008062FB
:1059100014C09091EB0090619093EB0021E030E097
:10592000A90102C0440F551F8A95E2F74093EA008F
:105930001092EA008091EB0088608093EB00109257
:10594000E9008091E800877F8093E8000E942E2A7A
:10595000ACC08111AAC0109127051F778091E30088
:105960008078812B8093E3008091E800877F80938B
:10597000E8000E942E2A8091E80080FFFCCF8091F1
:10598000E30080688093E300111102C082E001C04F
:1059900083E08093240589C08058823008F085C058
:1059A00080912705909128058C3D53E0950779F566
:1059B00083E08A838AE289834FB7F894DE011396E5
:1059C00020E03EE051E2E32FF0E050935700E491F5
:1059D00020FF03C0E295EF703F5FEF708E2F90E0E5
:1059E000EA3010F0C79601C0C0968D939D932F5F4B
:1059F000243149F74FBF8091E800877F8093E8000A
:105A00006AE270E0CE0101960E943A2916C06091C8
:105A1000290570912A05AE014F5F5F4F0E947E28D5
:105A2000BC01892B09F441C09091E800977F9093C5
:105A3000E80089819A810E9498298091E8008B77FB
:105A40008093E80032C0803881F58091E800877F3C
:105A50008093E800809120058093F1008091E80018
:105A60008E7772CF811121C08091270590912805F2
:105A700099270297D4F48091E800877F8093E8000B
:105A800080912705809320050E942E2A8091200571
:105A9000811106C08091E30087FD02C081E001C052
:105AA00084E0809324050E9463278091E80083FFAF
:105AB0000AC08091E800877F8093E8008091EB0026
:105AC00080628093EB00AA96E3E00C94F430089592
:105AD000CF93809124058823A1F0C091E900CF7075
