:100000000C94D5020C940D030C940D030C940D0369
:100010000C940D030C940D030C940D030C940D0320
:100020000C940D030C940D030C94462E0C94192F74
:100030000C9430290C940D030C940D030C940D03B7
:100040000C940D030C940D030C940D030C940D03F0
:100050000C940D030C94E8290C940D030C940D03DF
:100060000C940D030C940D030C940D030C940D03D0
:100070000C940D030C940D030C940D030C940D03C0
:100080000C940D030C940D030C940D030C940D03B0
:100090000C940D030C940D030C940D030C940D03A0
:1000A0000C940D030C940D030C940D032900140003
:1000B0001A000800150017001C0018000C001200A0
:1000C00013002E002B0004001600070009000A0090
:1000D0000B000D000E000F0000002800067E1D0022
:1000E0001B0006001900050011001000360000007A
:1000F00037004C00E000E300E2002C41000000006B
:100100002C420000000038002D002D0201004A00A2
:1001100052004D002F003000010001002402310286
:10012000417E01000100500051004F0026022702CD
:10013000010001003300340000002A000100027EAB
:10014000037E047E057E010001000100E200000044
:100150000100010001000100010001000000000099
:100160002C430000000001000100010001001E00FE
:100170001F0020000100010001000100010001003A
:1001800001000100270021002200230001000100DE
:10019000010001003300340000002A0001002400A7
:1001A00025002600010001000100010001000000FF
:1001B000010001000100010001002C4300000000CB
:1001C0000100000000000100010001005F7ED1007D
:1001D000CD00D2003A003B003C00010001000100CC
:1001E0000100007C0100CF00CE00D0003D003E00A9
:1001F0003F000100010001000000007E0100D90065
:10020000D300DA00400041004200430004520000E5
:100210004500010001000100010001000000000094
:10022000010000000000597E5A7E20781E00060062
:100230001A000800150017003E003D003C003B007E
:100240003A0029001F0004001600070009000A00F8
:10025000000000000000000000002800E100140081
:1002600021001B00050005000000000000520000F6
:100270005200E100E000E20020002C00000000003D
:10028000017E00000000500051004F0000010101FC
:100290000101010101010202020202020202020343
:1002A0000303030303030304040404040404050513
:1002B00005050506060606060707070707080808D6
:1002C00008090909090A0A0A0B0B0B0C0C0C0D0D85
:1002D0000D0E0E0E0F0F0F1010111111121213131D
:1002E0001414151516161717181819191A1A1B1B96
:1002F0001C1D1D1E1E1F20202122222324242526F2
:1003000026272829292A2B2C2D2D2E2F3031323229
:10031000333435363738393A3B3C3D3E3F40414235
:10032000434445464748494A4C4D4E4F505153541B
:10033000555658595A5B5D5E5F61626465666869CF
:100340006B6C6D6F7072737577787A7B7D7E80824F
:10035000838587888A8C8E8F91939596989A9C9E98
:10036000A0A2A3A5A7A9ABADAFB1B3B5B7BABCBEA8
:10037000C0C2C4C6C9CBCDCFD1D4D6D8DBDDDFE275
:10038000E4E7E9EBEEF0F3F5F8FAFDFF000000001A
:10039000000000002A2B28000000000000000000E0
:1003A0000000000000000029000000002C1E342086
:1003B000212224342627252E362D3738271E1F20AC
:1003C0002122232425263333362E37381F040506F1
:1003D0000708090A0B0C0D0E0F1011121314151635
:1003E0001718191A1B1C1D2F3130232D3504050633
:1003F0000708090A0B0C0D0E0F1011121314151615
:100400001718191A1B1C1D2F3130354C0000000025
:1004100000000000000000000000000000000000DC
:1004200000000000000000000000000000000000CC
:100430007E0F00D4FFFFFFC7000000780C034600CA
:1004400065006200340030000000120366006500A1
:1004500062007200650065007A0065000000040318
:10046000090409023B00020100A0FA09040000018E
:100470000301010009211101000122440007058147
:100480000308000109040100010300000009211113
:1004900001000122B60007058203200001120100BD
:1004A0000200000008646942000001010200010529
:1004B000010902A10185020901A10005091901290B
:1004C000081500250195087501810205010930090B
:1004D000311581257F95027508810609381581251A
:1004E0007F950175088106050C0A38021581257F64
:1004F000950175088106C0C005010980A101850329
:1005000019012AB700150126B70095017510810061
:10051000C0050C0901A101850419012AA0021501D9
:1005200026A002950175108100C005010906A101F0
:100530008506050719E029E71500250195087501CD
:1005400081020507190029EF1500250195F07501B5
:10055000810205081901290595057501910295018A
:1005600075039101C005010906A101050719E029DC
:10057000E71500250195087501810295017508812F
:10058000010507190029FF150026FF0095067508CB
:10059000810005081901290515002501950575013A
:1005A0009102950175039101C00011241FBECFEF88
:1005B000DAE0DEBFCDBF04B603FE18C0809110059F
:1005C00090911105A0911205B09113058730904BC1
:1005D000A740B04B59F410921005109211051092DB
:1005E000120510921305E0E0F8E3099513E0A0E08E
:1005F000B1E0E0E4FAE602C005900D92A031B10747
:10060000D9F725E0A0E1B3E001C01D92A031B20707
:10061000E1F70E94971B0C94B0340C940000ABE0FF
:10062000B0E0E5E1F3E00C940A3469874D83282FAC
:1006300030E040E050E029833A834B835C83CA0179
:10064000B9010E94D93120E030E04FE753E46983DB
:100650007A838B839C8369817A818B819C810E94C0
:1006600036315B016C019985892F90E0A0E0B0E004
:1006700089839A83AB83BC83BC01CD010E94D931AD
:1006800020E030E04FE753E469837A838B839C83D7
:1006900069817A818B819C810E9436313B014C01BA
:1006A0003D81232F30E040E050E029833A834B83A3
:1006B0005C83CA01B9010E94D93120E030E04FE7E4
:1006C00053E469837A838B839C8369817A818B81EC
:1006D0009C810E9436311B012C019B01AC01698277
:1006E0007A828B829C8269817A818B819C810E9433
:1006F00014329501A60169837A838B839C83698177
:100700007A818B819C810E9414328B018B879A871E
:100710009101A20169827A828B829C8269817A81AD
:100720008B819C810E9433329501A60169837A8373
:100730008B839C8369817A818B819C810E94333277
:100740009B01AC0109831A838B858B839A859C83DB
:1007500069817A818B819C810E94C4307B0189836D
:10076000998720E030E0A9016D83FE828F8398870E
:100770006D817E818F8198850E943131882309F4B3
:1007800033C198014B855A85AD82BE82CF82D8860F
:100790006D817E818F8198850E9431318111BBC02E
:1007A0009101A2016D827E828F8298866D817E8109
:1007B0008F8198850E94C4309701498159856D8346
:1007C0007E838F8398876D817E818F8198850E943B
:1007D000363120E030E040EC50E46D837E838F833F
:1007E00098876D817E818F8198850E945D3220E09F
:1007F00030E040E752E46D837E838F8398876D817C
:100800007E818F8198850E942E335B016C0120E0F0
:1008100030E0A9010D831E83AB85AF83BA85B8870D
:100820006D817E818F8198850E943131882309F402
:10083000E0C098014B855A85ED82FE8289818F83C5
:10084000998598876D817E818F8198850E94363148
:100850004B017C0120E030E04FE753E4A982BA82EB
:10086000CB82DC8269817A818B819C810E942E33CC
:1008700020E030E044EB53E469837A838B839C83EC
:1008800069817A818B819C810E94363169837A8368
:100890008B839C8369817A818B819C810E94A831A2
:1008A000D62E20E030E04FE753E489829A82EB8233
:1008B000FC8269817A818B819C810E942E336983BD
:1008C0007A838B839C8369817A818B819C810E944E
:1008D000A831F62E20E030E04FE753E409831A8375
:1008E000AB85AB83BA85BC8369817A818B819C811E
:1008F0000E942E3369837A838B839C8369817A81FA
:100900008B819C810E94A831862F6D2D7F2D2B9687
:10091000E2E10C94263498014B855A856D827E82E3
:100920008F8298866D817E818F8198850E9431317A
:10093000811128C09501A6012D823E824F825886E2
:100940006D817E818F8198850E94C4309701498195
:1009500059856D837E838F8398876D817E818F819A
:1009600098850E94363120E030E040E050E46D830D
:100970007E838F8398876D817E818F8198850E9489
:10098000C53035CF98014B855A852D823E824F82E6
:1009900058866D817E818F8198850E9431318111C9
:1009A0001EC09301A401AD82BE82CF82D8866D8124
:1009B0007E818F8198850E94C43097014981598535
:1009C0006D837E838F8398876D817E818F819885EB
:1009D0000E94363120E030E040E850E4C8CF60E0CB
:1009E00070E080E090E003CFA12CB12CC12CD12C81
:1009F0000ECF812C912CE12CF12C2CCF8093150360
:100A000060931403409313030E940F03962F672FE4
:100A1000482F892F90E00E94B620089580E40E941C
:100A200021210E945E200E944C2080911603882381
:100A300051F083E00E94812080E00E941E1183E03B
:100A40000E941E11089582E0F5CF8091AE018823A7
:100A5000B9F180913703909138030E94F20C8430F1
:100A600089F520E040E060E088E190E00E94401DD0
:100A700020911303409114036091150387E290E0E5
:100A80000E94401D209113034091140360911503AF
:100A90008CE190E00E94401D2091130340911403CB
:100AA000609115038BE190E00E94401D209113039B
:100AB00040911403609115038AE190E00E94401D6B
:100AC00081E008958091160320E040E060E081110C
:100AD00017C0209113034091140360911503809176
:100AE0001803813069F487E190E00E94401D209155
:100AF0001303409114036091150389E190E0DECF68
:100B000088E190E0DBCF833089F040F4813089F0D8
:100B1000823099F04FEF60E088E805C045E06BE374
:100B20008430C1F78FEF0E94FE04089540E06FE625
:100B3000F9CF4AE46FEF83E0F6CF4FEF6BE385E048
:100B4000F2CF1F93CF93DF93182FD92F0E94F20C6F
:100B5000C82F809112038C1729F08C2F0E948305D7
:100B6000C0931203812F9D2FDF91CF911F91089584
:100B700080E00E9483050E940E0580E00E941E1105
:100B80000895CF939C01FB01C581CC2379F0895551
:100B90009E470297A8F429353E4759F08091AE014F
:100BA00091E089278093AE010E940E058C2FCF9192
:100BB00008958091160391E0892780931603F4CF5E
:100BC000C0E0F4CF0E942115282F482F817191E0B9
:100BD000811101C090E0990F81E0211180E0982BF4
:100BE000822F880F880F8470982B44FB882780F908
:100BF000880F880F880F982B81E0322F34743111C1
:100C000001C080E08295807F982B42FB882780F985
:100C10008295880F807E982B46FB882780F98295E5
:100C2000880F880F807C982B81E0322F3878311123
:100C300001C080E0879588278795982B9093B30112
:100C4000822F881F8827881F880F43FB992790F9D8
:100C5000892B227291E0211101C090E0990F990F28
:100C6000892B41FB992790F9990F990F990F892B9F
:100C700045FB442740F94295407F842B8F7190912A
:100C8000B401907E892B8093B4018091B30190913F
:100C9000B4010895FC01E05EF109E830F105B0F51A
:100CA000EE54FB4C0C9404348091B30160FB82F948
:100CB00060FB81F98093B30108958091B30160FBDB
:100CC00083F9F6CF8091B40160FB80F98093B40181
:100CD0008091B30160FB87F9EDCF8091B40160FB97
:100CE00081F9F4CF8091B30160FB85F960FB84F951
:100CF000E1CF8091B30160FB86F9F8CF8091B40118
:100D000060FB83F960FB82F98093B40108958091C0
:100D1000B40160FB84F9F6CF982F862F992319F040
:100D20000E94241508950E942A1508950F931F9379
:100D3000CF93DF9303EB11E0F801808161E082FB48
:100D4000882780F90E948C06F801808160E183FB8E
:100D5000882780F90E948C06C4EBD1E0888168E086
:100D600081700E948C06888160E8869581700E945F
:100D70008C06F801808164E085FB882780F90E9459
:100D80008C06F801808160E486FB882780F90E9448
:100D90008C06888162E083FB882780F90E948C069C
:100DA000888160E2829581700E948C06DF91CF91EC
:100DB0001F910F910895FB018F359E4789F425817E
:100DC000222361F080911803082E000C990B0196E4
:100DD00062E070E00E94AF3380931803822F089581
:100DE00020E0FCCFCF92DF92FF920F931F93CF931F
:100DF000DF93F82E092F6B018091AF019091B00124
:100E00000E943D0BEC01892BE9F088818823D1F009
:100E1000F6011581112369F08F2D902F0E94C50BCB
:100E20008091AF019091B0010E94C50BCE010E944C
:100E30008526812FDF91CF911F910F91FF90DF9039
:100E4000CF90089510E0F5CF0F931F93CF93DF93CA
:100E50008C01FB012181808190E0EC01CC0FDD1F32
:100E6000C80FD91F84E2289FC00DD11D1124CF5473
:100E7000DE4F8E899581992321F181112FC08091B8
:100E800017038823C9F081E08E8B8091AF01909188
:100E9000B001988F8F8B60E0C8010E944A0661E024
:100EA0008F89988D0E944A06C8010E94C50B8F89C0
:100EB000988D0E94AF0B81E0DF91CF911F910F9130
:100EC00008958823C9F31E8A8F89988D0E94C50BC7
:100ED00060E08F89988D0E944A06EDCF80E0ECCFCC
:100EE000EF92FF920F931F93CF93DF938C017B01BF
:100EF0000E94DB06C82F811169C0C801905281157C
:100F0000904328F4F7018681803108F459C010928B
:100F100017031093B0010093AF010E94E205909374
:100F2000B4018093B3018FEF0E942A15F701658108
:100F3000C8010E944A066091B3017091B40180918A
:100F4000AF019091B0010E941D0AEC018F3F9807FC
:100F500021F09093B0018093AF0140911803042ECB
:100F6000000C550B6091B3017091B4018091AF01F9
:100F70009091B0010E94C10A9C012F3F320781F479
:100F8000219691F410921703B701C8010E94F2064E
:100F9000811113C0B701C8010E942407C82F0EC0D9
:100FA0003093B0012093AF0181E0809317038091CB
:100FB000AF019091B001892B39F7C1E00E949606EC
:100FC0008C2FCDB7DEB7E6E00C943234C0E0F8CF1A
:100FD0009C018091B101843009F457C04091B20165
:100FE0008091B50140FB81F9203E310571F080917F
:100FF000B50140FB83F9233E310539F0223E31052E
:1010000031F48091B50140FB82F98093B501909154
:10101000B5019E7051E0911101C050E08091B50181
:1010200050FB84F98093B50140FF30C02B3231056D
:1010300061F580FD2AC0992341F190911803913008
:10104000E1F482FF0BC082EE90E00E94C50B84E0C9
:101050000E942A1583EE90E00E94AF0B8091B501AB
:1010600083FF0BC083EE90E00E94C50B88E00E94D6
:101070002A1580EE90E00E94AF0B81E00E941E11C5
:101080008091B50181608093B501089580FFFDCF07
:1010900080911803813061F4223E3105F9F483EE2A
:1010A00090E00E94C50B8091B5018B7F8093B501C4
:1010B0008091B5018E7091E0811101C090E0809126
:1010C000B50190FB84F98093B50184FDDECF80E00B
:1010D0000E941E118091B5018E7FD5CF233E310530
:1010E00039F780EE90E00E94C50B8091B501877FB3
:1010F000DDCF9C012C3283E4380779F050F42C3298
:1011000081E4380751F081E02C32324439F080E03C
:10111000089581E021153C47F9CF81E00895CF93F0
:1011200081309E4721F0C0E08C2FCF910895C0916F
:10113000B201C1708091BD01C0FB80F98093BD01F7
:10114000CC2389F384608093BD018091B901909193
:10115000BA010E94B9299093BC018093BB010E94FF
:1011600090299093BA018093B9011092B601209111
:10117000BB013091BC018091B7019091B801281753
:10118000390790F681E08093B601CECF8091BD0102
:1011900082FF21C080FD20C081FF1DC08B7F809316
:1011A000BD018BE290E00E94C50B89E390E00E94B4
:1011B000C50B8091BD0183FF09C089E390E00E94C7
:1011C000F50B8091BD01877F8093BD018091BD01AA
:1011D0008D7F8093BD01089581FDFDCF8091B60183
:1011E000811109C08BE290E00E94AF0B8091BD019C
:1011F000877F8093BD018091B601813049F489E3F6
:1012000090E00E94AF0B8091BD0188608093BD018A
:101210008091BD018260DDCF0F931F93CF93DF9349
:10122000EC018091B101843041F4C430D10539F032
:1012300004E010E0C730D10521F080E021C007E0D4
:1012400010E08091BE019091BF012091B20120FF7A
:101250001CC0C817D90799F0009711F00E94C50B60
:101260008091BE019091BF019093C1018093C00114
:10127000D093BF01C093BE01CE010E94AF0B81E0AD
:10128000DF91CF911F910F910895C817D907D1F41D
:10129000CE010E94C50B8091C0019091C1018017C1
:1012A000910719F4C8010E94AF0B8091C001909181
:1012B000C1019093BF018093BE011092C1011092B1
:1012C000C001DDCF8091C0019091C1018C179D07B5
:1012D000B1F6F3CF86309E4701F50E949029909396
:1012E000C6018093C5019091B2018091C20190FB2B
:1012F00080F98093C20180FF0BC08091C30190915F
:10130000C40101969093C4018093C30181E00895C4
:1013100081EE90E00E94C50BF9CF80E008958091A6
:10132000C5019091C6010E94B9294091C20140FDBA
:1013300011C0853B910560F08091C3019091C4017B
:10134000181619062CF401979093C4018093C301D9
:1013500040FF13C08091C3019091C401029749F4EA
:1013600080E19FE00E94F50B1092C4011092C3012E
:10137000089581EE90E00E94AF0B08950E94B80599
:1013800008950E94C6080E948F090895EF92FF9267
:101390000F931F93CF93DF938C017B0180913703D1
:1013A000909138030E94F20C8093B1018091B201B8
:1013B000F701958190FB80F98093B201C8010E94EA
:1013C0007908C82F811124C0B701C8010E94700795
:1013D000D82F0091AF011091B001C8010E940C09F3
:1013E000811116C0C8010E948F08811111C0C80167
:1013F0000E946A0981110CC0B701C8010E94C10591
:10140000811106C081E0CD2FC827C8010E94E807DE
:101410008C2FCDB7DEB7E6E00C9432349C012C3231
:1014200082E4380739F03D7F2C32314419F084EBE7
:1014300090E008958EE690E008958932910539F4A0
:1014400064FD96C072FF9AC085E390E008958832EB
:10145000910529F472FF92C08AE290E00895811507
:101460002EE7920709F487C08433910539F472FDA1
:1014700087C060FF83C084E392E008958D3222E04C
:10148000920719F472FF7AC008958E32910529F4FB
:1014900072FF74C082E49EE708958F32910529F4AB
:1014A00072FF6CC086E392E008958033910529F4C1
:1014B00072FF64C087E392E00895863222E09207CB
:1014C00029F472FF5BC08FE292E00895873222E038
:1014D000920729F472FF52C080E392E008958432AB
:1014E00022E0920729F472FF49C080E49EE7089544
:1014F000813322E0920729F472FF40C08FE19EE71A
:1015000008958633910529F472FF38C08EE192E088
:1015100008958733910529F472FF30C088E392E083
:1015200008958833910529F472FF28C081E390E083
:1015300008958A34910529F461FF20C08BE490E07E
:1015400008958D34910529F461FF18C08EE490E070
:1015500008958632910529F472FF10C085E392E068
:1015600008958D9759F472FF09C087E590E00895BA
:101570008BE290E0089588E292E108958FEF9FEF6B
:1015800008959C014130510509F057C0833E9105F3
:1015900009F461C0B8F48F34910559F150F48A34DC
:1015A0009105E9F18D34910509F442C08FEF9FEF69
:1015B00008958035910541F1803E9105B9F783EE9C
:1015C00090E0089524308EE7380709F447C058F4B6
:1015D00022308EE7380709F444C023303E4731F704
:1015E0008BE198E0089525303E4701F789E198E0C6
:1015F00008958091B50180FDD9CF67FFD7CF72FFE5
:1016000033C08FE496E008958091B50180FDCECF80
:1016100067FFCCCF72FF2BC080E596E008958091E4
:10162000B50180FD27C067FFC1CF8BE490E008952E
:1016300067FFBCCF8EE490E0089522503E472430EF
:10164000310508F0B3CF220F331FF901ED57FD4FDD
:1016500080819181089580EE90E0089586E098E081
:1016600008958DE198E008958FE494E0089580E571
:1016700094E0089584E198E008959C012F318EE76D
:10168000380771F020348EE7380769F021348EE78F
:10169000380761F022343E4761F08CE792E008950C
:1016A00087E792E008958AE792E008958DE792E057
:1016B000089580E892E008958530B8F46430A8F485
:1016C0004C3098F4E42FF0E09CE0699FE00DF11DB0
:1016D000112490E3899FE00DF11D1124EE0FFF1FEF
:1016E000E455FF4F85919491089581E090E008952D
:1016F0000E945C0B08959C019A9581159F4118F5F5
:10170000F901EE27F270832F8170B901662774709A
:10171000A9014427587034FF0CC08295807FEF2BBD
:1017200009F08062672B09F08064452B69F08068BE
:101730000895EF2B09F08260672B09F08460452B38
:1017400019F08860089580E00895CF93DF93EB014E
:101750000E947B0BFE010995DF91CF910895CF93F5
:10176000DF93EC01805E9109089720F06EE770E14D
:10177000209711F464E37EE0CE010E94A50B8C2F2C
:101780000E94980DDF91CF910895CF93DF93EC01E4
:101790000E94E00DCE01805E9109089720F065E877
:1017A00070E1209711F46BE37EE0CE010E94A50B5F
:1017B000DF91CF9108950F931F93CF93DF938C0107
:1017C000EB010E94AF0B209741F4C8010E94C50BAA
:1017D000DF91CF911F910F9108958FE99FE00197BD
:1017E000F1F700C000002197EECF60E070E0893390
:1017F000910511F460E570E00E94DB0B089581E033
:1018000008950E94FF0B089581E008950E94C60983
:10181000089508950E94090C0895A6E0B0E0E3E160
:10182000FCE00C94193449835A839E8330911E0343
:1018300089819A8131111AC03E81332399F0222384
:1018400089F00E94F111182F682F89819A810E94D6
:10185000CD1169817A81812F0E94FD182696E3E0DF
:101860000C9435340E94DF11182FF3CF0E94F11130
:1018700069817A81F1CFFC01262F408151816281FB
:101880007381848195810E940D0C0895CF93DF931D
:10189000D82FC92F61E00E943B0C6D2F7C2F0E9436
:1018A000010CDF91CF910895CF93DF93D82FC92FEB
:1018B00060E00E943B0C6D2F7C2F0E940A0CDF9190
:1018C000CF91089581E008950E94620C0895CF930E
:1018D000C82F0E94A2108C2F0E94640C2FEF84E36B
:1018E0009CE0215080409040E1F700C00000CF9183
:1018F000089581E00E94670C0E940C2A089580E000
:101900000E94670C0E94302A08950F931F93CF9373
:10191000DF938C0161E00E943B0CEC01B8010E9456
:10192000060C8823E1F1B801CE010E94022788232A
:10193000B1F1B801CE010E944622882381F1B8019D
:10194000CE010E941B22882351F1B801CE010E94D2
:101950009621882321F1F8018581882381F0CA35F9
:10196000FCE7DF0739F178F4C130ECE7DE07F9F086
:10197000C330FCE7DF07C9F0C115DC4771F0C801CF
:101980000E94040C0DC0CB35ECE7DE07B1F0CC357E
:10199000DC47A9F70E943816F2CF0E94790C80E04C
:1019A000DF91CF911F910F9108950E944A160E94D6
:1019B0007F0CF5CF0E944216E2CF0E944616DFCF81
:1019C0000E940C290E940D1F0E94330D81E00E948D
:1019D000152008950E94370D80E00E9415200E9476
:1019E000112908959C01892F99270097E9F09C01FE
:1019F00088E0A90174E0569547957A95E1F741157D
:101A0000510511F08C5F9A01A9015695479556959D
:101A100047954115510511F08E5F9A01369527952E
:101A2000232B09F08F5F089580E0E3CF089581E0D4
:101A300008950895CF93DF93D82F0E94170DC82FD4
:101A4000882319F08D2F0E94190D8C2FDF91CF91D3
:101A500008950895CF93C82F0E94160D8C2F0E94D1
:101A60001A0DCF91089580E00E942A0D08950E94DA
:101A700048270E942A0D0895CF930E944827C82F17
:101A8000809119038C1779F0C09319030E949C2947
:101A900060931A0370931B0380931C0390931D03A0
:101AA0008C2F0E942A0DCF910895ADE0B0E0EBE5B8
:101AB000FDE00C941A34488759876A877B878C87A6
:101AC0009D8791110E9443151F8286E0FE01389682
:101AD000DE01119601900D928A95E1F78D818111B9
:101AE0000DC029813A814B815C816D817E818F811E
:101AF0000E9489142D96E2E00C943634CE010196B2
:101B00000E94460C8111EDCFF5CFFC01848181301C
:101B100021F4808191810E9423120895662329F087
:101B20000E94B4230E948A2408950E941224FACFAE
:101B3000CF93C82F882399F08CEF8C0F813A88F4CB
:101B40008C2F0E94EB27882329F08C2F0E9490284D
:101B50000E94DB158C2F0E9479280E94DB15CF9103
:101B6000089580E28C0F883048F4C77081E001C08E
:101B7000880FCA95EAF70E942415EFCF8BE58C0FEA
:101B8000833038F42C2F2452330BC9010E947E2756
:101B9000E6CFE8E5EC0FEB3150F4F0E0EE0FFF1F7D
:101BA000E557FD4F808191810E94A427D8CF83E320
:101BB0008C0F8331A0F661E08C2F0E948E0DCFCF69
:101BC000882381F19CEF980F913A28F40E94902885
:101BD0000E94DB15089590E2980F983050F48770BA
:101BE00091E001C0990F8A95EAF7892F0E942A1582
:101BF000EFCF9BE5980F933028F480E090E00E94AF
:101C00007E27089598E5980F9B3128F480E090E0B6
:101C10000E94A427089593E3980F933118F460E08D
:101C20000E948E0D08951F93CF93DF93182FEB0121
:101C30000E94980D209739F4812F0E94E00DDF91CA
:101C4000CF911F9108958FE99FE00197F1F700C0B0
:101C500000002197EFCF60E070E0893311F460E578
:101C600070E00E94130E0895882321F00E9424152D
:101C70000E94DB150895882321F00E942A150E94F6
:101C8000DB150895A0E0B0E0E8E4FEE00C94143425
:101C90006C01D62FC72FFC011581068102950F70AC
:101CA0000E941915E82E8823F9F0E12E1123E1F0A6
:101CB0008C2F807F803461F080E28D0F8830F0F0CF
:101CC0008C2F807E803221F4D230C0F00023B1F01E
:101CD00080913B0482FF12C082E00E940B160E949A
:101CE000191591E0E82EE926EC2FE295EF70C03C43
:101CF000B0F5F0E0E654FB4C0C940434E12CF4CF46
:101D00000C2F0F70C03110F00295007F112399F055
:101D1000002359F080E28D0F883010F0D11107C0F8
:101D2000802F0E9424150E94DB158D2F51C0802F1B
:101D30000E943515F8CF8D2F0E94E00D002379F019
:101D400080E28D0F883010F0D11104C0802F0E94E6
:101D50002A1503C0802F0E943B150E94DB15EE2040
:101D600089F00E94151580FD0DC0F60115820E94B4
:101D70000F150E942A11C6010E945B100E940F15C8
:101D80000E943A11CDB7DEB7E8E00C943034FC2F56
:101D9000FF70FF2EC07FC03219F0F29480EFF8225E
:101DA000DD2341F0D130D1F1112309F444C00023E7
:101DB000F1F0BBCF80913B0482FD15C0112359F097
:101DC000FF2029F08F2D0E9424150E94DB1580E052
:101DD0000E94980DC4CF80E00E94E00DFF2009F41E
:101DE000BECF8F2DB4CF112369F0011104C08F2D08
:101DF0000E94340EB4CF013009F0B1CF8F2D0E9474
:101E00005B15ADCF0111ABCF8F2D0E943B0E8F2DF7
:101E10000E9467158F2D0E944A15A1CF112321F032
:101E2000063008F09CCFE3CF053008F098CF8F2D17
:101E30000E943B0E94CF0023D1F3D93349F42FEF06
:101E400087EE93E0215080409040E1F700C0000011
:101E50008D2F0E94E00D83CF8C2F86958695837001
:101E6000882369F0813009F07ACF8D2F9C2F9370F1
:101E7000111102C080E090E00E94A42770CF8D2F46
:101E80009C2F9370111102C080E090E00E947E2789
:101E900066CF612F8D2F0E948E0D61CF8C2F8370A6
:101EA000811139C0111129C04D2F429546954770B7
:101EB000440F440F2D2F2F7030E0042E02C0220F4C
:101EC000331F0A94E2F780E090E0D4FF09C08FE06E
:101ED00090E002C0880F991F4A95E2F7809590958F
:101EE000C695C695C370822B932BC23071F0C33058
:101EF00079F0C13039F00E94FD100E9448270E94FD
:101F00002A0D2DCF0E94F410F8CF0E940611F5CFB4
:101F10000E94F110F2CF112361F1C0FFEECF4D2FDF
:101F2000429546954770440F440F2D2F2F7030E097
:101F3000042E02C0220F331F0A94E2F780E090E0E3
:101F4000D4FF09C08FE090E002C0880F991F4A9526
:101F5000E2F780959095C695C695C370822B932B1A
:101F6000C23069F0C33071F0C13031F00E946511A8
:101F7000C4CF823010F2D3CF0E945C11BECF0E943A
:101F80006E11BBCF0E941211B8CFCF70112339F060
:101F90008C2F0E942A118D2F0E94340EAECF8D2FD0
:101FA0000E943B0E8C2F0E943A11A7CFD23F31F1F5
:101FB00070F4D03FB9F0D13FB1F1112309F451C011
:101FC000002309F44BC08D2F0E94980D96CFD33F6C
:101FD000E1F0D43F21F11111F3CF011150C08C2F4A
:101FE0008F71E1CF112341F0053008F086CF8C2F9F
:101FF0008F710E944C1181CF0530F7CF8C2F8F71DC
:102000001111D1CF0E942A1178CF112329F08C2FE2
:102010008F710E941E1171CF0E9419116ECF809195
:102020003B0482FD06C08C2F8F71112309F4BBCFB6
:10203000E9CF112349F0CF718C2F0E942A1163E060
:102040008C2F0E94ED1559CF81E00E940B160230B3
:1020500008F453CF82E00E940B164FCF8C2F8F7164
:10206000D1CF002309F4BBCFD93349F4EFEFF7EE1A
:1020700023E0E150F0402040E1F700C000008D2F48
:102080000E94E00D3ACF0F931F93CF93DF93EC01A3
:10209000688179818D810E9430128C010E947711B4
:1020A0000E94F010B801CE010E94420EDF91CF9144
:1020B0001F910F910895CF93DF93EC018C818823BA
:1020C00099F0CE010E94850C811111C00E94191552
:1020D000882351F08D81882339F080913B0482FF61
:1020E00003C082E00E940B16DF91CF910895CE01CC
:1020F0000E944310CE010E94540CF6CF882321F099
:102100000E9435150E94DB150895882321F00E9456
:102110003B150E94DB15089580E090E00E947E2729
:1021200080E090E00E94A4270E9443150E94DB15E6
:102130000E94A7240E948A2408950E94A7280E9432
:102140008C1008950E9432150E949D100895282F2A
:1021500092959F70963091F060F4925F9F709230EC
:1021600030F481E0203F79F030F4283E30F080E018
:1021700008959A5FF3CF243FD1F7089581E0283E78
:10218000E0F3213FF9CF0895FC018481882339F0E1
:10219000808191810E9423120E94A710089580E0FF
:1021A0000895A6E0B0E0E7EDF0E10C941A3426962D
:1021B000E2E00C943634A7E0B0E0E1EEF0E10C94FC
:1021C0001A342796E2E00C94363408950E94E51004
:1021D00008950E94E61090933A038093390308957E
:1021E00008950E94E91008952091390330913A032F
:1021F000822B932B0E94E91008952091390330918E
:102200003A03822393230E94E91008952091390311
:1022100030913A03822793270E94E91008950E9483
:10222000A10508950E940F119093380380933703FE
:10223000089580E090E00E941211089521E030E0BE
:10224000A90102C0440F551F8A95E2F7CA010E94F6
:102250001211089521E030E002C0220F331F8A9549
:10226000E2F78091370390913803822B932B0E94E1
:102270001211089521E030E002C0220F331F8A9529
:10228000E2F72095309580913703909138038223AF
:1022900093230E941211089521E030E002C0220F22
:1022A000331F8A95E2F78091370390913803822794
:1022B00093270E941211089520913703309138031B
:1022C000822B932B0E941211089520913703309195
:1022D0003803822393230E9412110895209137031B
:1022E00030913803822793270E9412110895089590
:1022F0009B01677091E001C0990F6A95EAF763E06E
:10230000369527956A95E1F7220F331F220F331F69
:10231000FA01E20FF31F40E050E0682F70E0819176
:10232000DF0111979B01042E02C0369527950A9470
:10233000E2F7217021952827292328272C934F5F26
:102340005F4F4430510559F708959C01982F9770BD
:1023500083E0369527958A95E1F7220F331F220FE8
:10236000331FFB01E20FF31F40E050E080E02191BA
:1023700030E0092E02C0369527950A94E2F72170C5
:102380003327042E01C0220F0A94EAF7822B4F5FF5
:102390005F4F4430510559F70895282F862F943008
:1023A00068F42C3058F4622F70E02CE0929F600D9E
:1023B000711D11244FE153E00E9478110895292FD7
:1023C000943068F48C3058F490E06FE173E03CE0B6
:1023D000239F800D911D11240E94A511089580E076
:1023E0000895A0E0B0E0E7EFF1E10C9413348C0124
:1023F000E0903703F09038038091390390913A03CD
:10240000E82AF92ACFE0D0E0CC24C394D12CC6012D
:102410000C2E02C0880F991F0A94E2F78E219F218B
:10242000892B49F4219798F7B12C8B2DCDB7DEB7C6
:10243000E9E00C942F34BC2EB8018C2F0E940919AE
:10244000019781F3F2CFCF93DF93D82FC92F0E944A
:10245000F1116D2F7C2F0E940919DF91CF91089502
:102460001F93CF93DF93162FD72F90911E0399239D
:1024700041F0862F972F0E942312DF91CF911F9159
:102480000895882381F0862F972F0E94F111C82F7D
:10249000682F812F9D2F0E94CD11612F7D2F8C2FB2
:1024A0000E940919EACF862F972F0E94DF11C82FAB
:1024B000F4CF0F931F93CF93E0913B03C7E080913C
:1024C0003C038E1304C0CF911F910F9108950E2FDE
:1024D00010E0CE9FF0011124E35CFC4F208131819C
:1024E000428153816481758186810E94DB10F801ED
:1024F0003196E770E4CF20917503309176034091D7
:102500007703509178036091790370917A038091F9
:102510007B030E94DB100895E0913B0390913C0304
:1025200027E0E91302C080E00895AE2FB0E02E9FAF
:10253000F0011124E35CFC4F3181361306C0308179
:10254000381303C03581341304C0FD013196E770A0
:10255000E8CF81E00895A0E0B0E0E1EBF2E10C9477
:10256000153480917B03803108F04BC080917A0351
:10257000882309F446C0C0913B0387E0D82E8091A0
:102580003C038C17F1F1EC2EF12CDC9EE0011124C0
:10259000FE01E35CFC4F84818823C1F1918180912D
:1025A0007603981333C090818091750398132EC0E1
:1025B000858181112BC002811381809177039091D5
:1025C0007803081B190B60E085E793E00E943B0C41
:1025D00065E773E00E940E0A08171907B8F48091A6
:1025E0007B038F70806180937B03CD5BDC4F8881A0
:1025F0008F708061888385E793E00E945B100E9462
:102600005912CDB7DEB7E7E00C943134E7012196DB
:10261000C770B5CFADE0B0E0E0E1F3E10C940D346C
:102620008C0186E0F801DE01189601900D928A95E2
:10263000E1F7F80160805180F580C280D38074801A
:1026400085E7A82E83E0B82E8091790381111BC005
:10265000772009F405C1FF2009F44EC1C8010E948A
:10266000C410882309F448C187E0F801D50101901E
:102670000D928A95E1F7C5010E94850D0E94AB126B
:102680000E947B12EDC0E0907A03809177039091D5
:1026900078034601881A990A60E085E793E0EE2006
:1026A00009F4E1C00E943B0C65E773E00E940E0A4A
:1026B0008816990608F0A4C0772009F4D1C080914B
:1026C0007B0320917603F8019181803108F05BC093
:1026D00029131BC0209175039081291316C0F11096
:1026E0004CC08F70806180937B030E947B1285E7D2
:1026F00093E00E945B1080917B03F8018683F12CAC
:102700008F2D2D96EFE00C942934F11036C040E067
:10271000652D862D0E948C1240E0652D862D0E942D
:102720008C12F82E8111EBCF888599850E94231297
:10273000292F22952F70903450F49F70223080F012
:10274000992391F0F8019681903170F4D9CF2A5FE6
:102750002F70223068F0C8010E945B10FE2CD0CF91
:10276000992311F0882361F2805E883048F2F3CF1C
:10277000803F30F2815F8230F9CF80917B038160AE
:1027800080937B03BCCF291314C0209175039081E3
:1027900029130FC0F1100DC08683C8010E945B1081
:1027A00087E0F801A5E7B3E001900D928A95E1F783
:1027B00067CFC8010E94C410882309F49DC0FF2080
:1027C00009F49AC080917B03803288F020917503D0
:1027D000309176033A832983DC82CB82909179030E
:1027E0009D831E828F83CE0101960E945B1087E03D
:1027F000F801A5E7B3E001900D928A95E1F73ECF8D
:1028000080917B038031A0F4488559856A857B855A
:102810008C859D850E94D11085E793E00E945B1016
:1028200087E0F50111928A95E9F70E947B1267CF44
:102830007720B1F020917603F80191812913B9CF67
:102840002091750390812913B4CFF110B2CF868304
:10285000C8010E945B1087E0F50111928A95E9F7A3
:10286000FF24F3944DCF0E943B0C65E773E00E9478
:102870000E0A8816990608F043C0772089F3FF20D6
:10288000D9F190917603F801818198132BC0909132
:1028900075038081981326C0809177039091780307
:1028A000C81AD90AFEE6CF16D10498F480917B03AA
:1028B00080FD0FC0803168F0F8018683982F907FEB
:1028C000903F09F46ACF982F907F905F8F70892B8B
:1028D00063CF87E0F801A5E7B3E001900D928A95F8
:1028E000E1F7BECFC8010E94C410811180CF809152
:1028F0007B03816080937B03C8010E945B10B0CF93
:10290000488559856A857B858C859D850E94D11077
:1029100087CFAEE0B0E0EFE8F4E10C9419342887FB
:1029200039874A875B876C877D878E87CE010896BB
:102930000E940A138823B1F06C85662341F0288534
:1029400039854A855B857D858E850E94DB1017E081
:1029500080913B0390913C0389133EC02E96E3E0A7
:102960000C94353487E0FE013896DE011196019013
:102970000D928A95E1F720913C0340913B038C85B1
:10298000882329F330E0C90101968770992750E028
:102990008417950799F097E0929FD001939FB00D0F
:1029A0001124A35CBC4FFE01319601900D929A95C3
:1029B000E1F780933C030E945912C9CF0E94A210F4
:1029C00010923C0310923B0387E0E5E7F3E0DF0160
:1029D0001D928A95E9F7BBCF189FC0011124835C33
:1029E0009C4F0E940A13882309F4B8CFE0913B035F
:1029F0001E9FF0011124E35CFC4F20813181428154
:102A000053816481758186810E94DB1080913B0334
:102A100090E001968770992780933B0399CF80912E
:102A2000A40386958695869508958091A403877062
:102A300008959091A403977081E0911101C080E006
:102A400008958091D00308959091D003982B90938E
:102A5000D0030895982F90958091D0038923809377
:102A6000D00308951092D00308959091CF03982B2E
:102A70009093CF030895982F90958091CF03892349
:102A80008093CF0308951092CF03089508950E9474
:102A9000461508959091A503292F2823222331F06C
:102AA000809589238093A5030E9447150895089572
:102AB0000E94571508959091A603292F28232817BF
:102AC00029F0982B9093A6030E9458150895909191
:102AD000A603292F2823222331F080958923809370
:102AE000A6030E94581508958091A603882329F013
:102AF0001092A60380E00E9458150895CF93DF93AB
:102B0000C091D0038091CF03C82BD091A603DD23C1
:102B100031F00E94CA2781110E947415CD2B8C2F91
:102B2000DF91CF910895CF93DF93C0915902D09157
:102B30005A020E947E158883C0915902D0915A0290
:102B400048E050E06CE973E0CE010E944134892BEB
:102B500059F088E0FE01ACE9B3E001900D928A954E
:102B6000E1F7CE010E945527DF91CF910895CF93D1
:102B7000DF93C0915702D09158020E947E1589833D
:102B8000C0915702D091580240E250E06CE773E0E8
:102B9000CE010E944134892B59F080E2FE01ACE75E
:102BA000B3E001900D928A95E1F7CE010E94602773
:102BB000DF91CF91089580917302882339F080913D
:102BC0003A0487FF03C00E94B71508950E94931529
:102BD000089508950E94E915089590913B0492FF8D
:102BE00011C098E0899F90011124622B6093A40387
:102BF0000E942A118091A4038695869586950E944D
:102C0000EA1508950E942A1108951092A40380E005
:102C10000E94EA1508959091A403809589238093DA
:102C2000A403282F277021110DC0891759F0909106
:102C30003B0492FF07C08695869586950E943A11BF
:102C40000E940516089590913B0492FB222720F9DB
:102C5000281769F080FB92F990933B0480913A0425
:102C600090913B040E946B1682E00E940B1608951F
:102C700080913B0482FB882780F991E089270E949C
:102C80002316089581E00E942316089580E00E9493
:102C9000231608956FEF7FEF80E090E00E94AA3442
:102CA000089580E090E00E9476349C0181E0263E09
:102CB0003E4F09F080E0089582E090E00E946E347B
:102CC000089583E090E00E946E34089584E090E0DF
:102CD0000E9476340895BC0184E090E00E94AA34FA
:102CE0000895AB01BC018FE090E00E949E340895EE
:102CF000AB01BC0183E190E00E949E34089560E046
:102D000070E0CB010E947816089560E070E0CB017E
:102D10000E9471160E947F160895A8E0B0E0E3E9D2
:102D2000F6E10C941A3466EE7EEF80E090E00E94AB
:102D3000AA3460E082E090E00E948C3481E090E070
:102D400090933A038093390361E083E090E00E941E
:102D50008C3460E074E184E090E00E94AA3460E08A
:102D600086E090E00E948C346FEF87E090E00E9454
:102D70008C3440E050E0BA0188E090E00E949E343C
:102D800060E084E290E00E948C3460E087E190E0B3
:102D90000E948C3460E08CE090E00E948C3460E013
:102DA0008DE090E00E948C3419821A821B821C8272
:102DB0001D821E821F82188648E050E068E170E0A4
:102DC000CE0101960E947C3440E050E0BA0180E2DE
:102DD00090E00E949E340E9485162896E2E00C94B2
:102DE00036340E948D160895682F8EE090E00E9480
:102DF0008C340895A6E0B0E0E0E0F7E10C941834DC
:102E00000E9490298C018091D1039091D203801768
:102E1000910779F019821A820E949029BC01498198
:102E20005A8180E090E00E94550D1093D2030093E8
:102E3000D1032696E4E00C9434340E949C296093DC
:102E4000DF037093E0038093E1039093E2036093C8
:102E5000DB037093DC038093DD039093DE0308951E
:102E6000089508950E94301708950E94BE0908959C
:102E700081E09AE10E94A41B0E9431170E94321740
:102E8000089581E008950E94411708950E94411716
:102E90000895089508950E9449170E944A170895B9
:102EA0000E94201A0E94290D0E94E01F08950E948E
:102EB00087290E94F41A0E945017EAE3F4E0808107
:102EC0008068808380913A0490913B040E946B1645
:102ED0000E9435170895A6E0B0E0E1E7F7E10C9411
:102EE0000E340E94431781110CC00E94FA160E94F2
:102EF0000D1F0E94C8240E943C0D2696EEE00C9403
:102F00002A340E940A1B23ED822E23E0922E6401B4
:102F100010E0F601E190F1906F01812F0E94451AB7
:102F20001F5F143009F44BC0E816F90691F3809145
:102F3000E30381FD0E944E1A0E944617782E10E08E
:102F4000812F0E94451A7C01F401A190B1904F019C
:102F50008A159B0571F1A826B92600E0CC24C394FC
:102F6000D12CC5018C219D21892BD1F0662463943D
:102F7000C7018C219D21892B09F4612C772059F000
:102F800009831A830E949029BC0149815A8181E0FA
:102F9000962D0E94550D462D602F812F0E944C1DAD
:102FA0000F5FCC0CDD1C0C30E1F6F4013297F1829E
:102FB000E0821F5F143021F60E941D1798CFE8169B
:102FC000F90609F0B4CF91CF1F93CF93DF930E94FE
:102FD0000E19EC01811522E5920708F053C0811506
:102FE00040E5940708F0DDC0803E9105F8F48D3C83
:102FF000910508F0AEC0883A910580F4853A9105B4
:1030000008F099C08130910521F00497813A91052B
:1030100050F4CE01DF91CF911F910895885A910904
:103020004B9708F48BC0C0E0D0E0F3CF811550E49B
:103030009507F8F4C11580E2D80708F0CBC0C83E68
:10304000D10538F3CE019A9581159F4160F78D2FF8
:103050000E94B219182FCE0199270E940E19212F14
:1030600030E0322F2227E901CC27DF71C82BD92B82
:10307000D0CF99270E940E19CC27DF70C82BD92BEF
:10308000D06AC7CF803842E59407C8F5803652E54C
:10309000950708F067C0C03482E5D807B0F08C2FE0
:1030A00086958695877020E2829FC0011124C370A7
:1030B00021E030E0A90102C0440F551FCA95E2F794
:1030C000EA01C82BD92BDC68A4CFC03252E5D50762
:1030D00008F041C08C2F8695869520E2829FC00122
:1030E0001124C37021E030E0A90102C0440F551F34
:1030F000CA95E2F7EA01C82BD92BDD688ACF803C5C
:1031000052E5950760F48F71C03AD24508F03FC090
:1031100090E0982F8827EC01C46FD06A7ACF805C4A
:103120009245809708F07FCFDC2FCC27CC27DF712A
:10313000C06FD06A6ECFA497D0646BCFC85AD0E06E
:10314000CC0FDD1FCF53DD4F0990D881C02DD46443
:1031500060CFD0655ECFCF71D0E0DC2FCC27C16FC0
:10316000D06A57CF86958695877020E2829FC001EE
:103170001124C37021E030E0A90102C0440F551FA3
:10318000CA95E2F7EA01C82BD92BDA6842CF0E9430
:10319000B219C82FD0E0DC2FCC27CC27DF71D0624A
:1031A00038CF8F710E94B21965E0D695C7956A95A0
:1031B000E1F7CF70D0E0DC2FCC27282F30E084FF60
:1031C00005C054E0220F331F5A95E1F7C22BD32BD1
:1031D000D0691FCF8D2F8F710E94B219182FCE0189
:1031E00099270E940E19212F30E0322F2227222703
:1031F0003F71282B392BE901D2CF462F672F74302E
:1032000028F44C3018F40E94780B089580E090E088
:1032100008950E94FD180E94E4170895803E9105CC
:10322000D1F1C8F48133910509F47FC048F48932A3
:10323000910509F46FC08A32910509F47DC00895A3
:1032400089339105E1F082389105C9F08533910504
:1032500009F45BC00895843E9105D1F148F4823EA3
:10326000910531F1833E910541F181EE90E00895A1
:10327000863E9105C1F1873E9105E1F108952091C7
:103280003A042370211165C020913B0423FF14C030
:1032900089E290E0089520913A0420FD43C03091E6
:1032A0003B0430FF09C024FF4EC080E090E0089549
:1032B00020913A0422FDF7CF089520913A0422FD8F
:1032C00045C030913B0430FD44C024FFF5CFEDCF25
:1032D00020913B0421FFF0CF80913A0484FDE5CF9B
:1032E00087EE90E0089520913A0423FFE5CF24FD76
:1032F000DCCFF6CF20913A0423FD2EC030913B0461
:1033000031FFE3CF84EE90E0089520913A0425FF49
:10331000D3CFBECF20913A0425FD21C020913B049C
:1033200023FFCACF89E390E0089520913A0426FF55
:10333000C3CF8AE290E0089520913A0426FFBCCFE3
:1033400081E390E0089583EE90E0089582EE90E0AE
:10335000089580EE90E0089586EE90E0089585E36C
:1033600090E0AACF90913A0492FF10C041E0282F3C
:103370002471243009F040E031E0282F28712830F2
:1033800009F030E0431711F02CE0822793FF10C0C2
:1033900041E0282F2471243109F040E031E0282F4A
:1033A0002871283109F030E0431711F02CE0822712
:1033B00030913B0430FF10C051E0282F21712130A3
:1033C00009F050E041E0282F2871283009F040E052
:1033D000541711F029E0822731FF10C041E0282F57
:1033E0002171213109F040E031E0282F2871283186
:1033F00009F030E0431711F029E0822794FD877E21
:10340000089580E008950E944A1608950E940A1BBC
:103410002FEF86E791E0215080409040E1F700C017
:1034200000000E940A1B80E00E94451A80FF04C031
:103430000E94031A0E940C2A08950E94061A0895F9
:103440000E945116811102C00E94F1160E945C1662
:103450008093E3030E94661690933B0480933A04A2
:103460000E941D1A0E94611690E00E94F110809146
:103470003703909138030E940F11089508950E9418
:103480003E1A08950E94C1090895E82FF0E0EE0F5A
:10349000FF1FEC5BFB4F808191810895089580EAC6
:1034A0008A95F1F7089500C008950E944F1A089573
:1034B000F894E82FE295EF70F0E041A18F7021E0E1
:1034C00030E0B90102C0660F771F8A95E2F7CB01A1
:1034D000962F9095942391A392A1892B82A37894FF
:1034E0000895CF93DF9385E90E94581A86E60E94DB
:1034F000581A86E30E94581A86EC0E94581AC7EFA1
:10350000D2E089918F3F11F00E94581A83E0C330B6
:10351000D807B9F7DF91CF910895A0E0B0E0E3E9D3
:10352000FAE10C941334EC01B62E062F10E0C8011A
:103530008D5F9C4F7C01FC0180818F3F09F44FC05F
:10354000F894E82FE295EF70F0E091A18F7021E000
:1035500030E001C0220F8A95EAF7892F822B81A3E0
:1035600082A12095282322A378940E94531AE7EF82
:10357000F2E041E050E0C12CD12C21912F3F89F0A5
:10358000A22FA295AF70A05EB0E08C9190E02F705A
:1035900002C0959587952A95E2F781709A01882354
:1035A00011F020E030E0C22AD32A440F551F83E0F7
:1035B000E330F80711F7F70180818F3F11F00E9487
:1035C000581A61E0C114D10409F460E08B2D0E9407
:1035D000551A000F111FC00FD11FD982C882CDB755
:1035E000DEB7E9E00C942F340E94711A88E0E4E41D
:1035F000F4E0DF01982F1D929A95E9F7ECE3F4E0EF
:10360000DF011D928A95E9F784E00E94471B0E9422
:103610003F1A0895A8E0B0E0E0E1FBE10C94173414
:10362000FE01319688E0DF011D928A95E9F710E0EE
:10363000FE2E0F2F612F8F2D902F0E948D1A1F5F4E
:103640001430C1F748E050E06F2D702F8CE394E008
:103650000E94413421E0892B81F420E044E064E4BD
:1036600074E08CE394E00E94481B182F0E94421AD9
:10367000812F2896E5E00C94333488E0EF2DF02F6D
:10368000ACE3B4E001900D928A95E1F7E7CF08959D
:10369000A0E0B0E0EEE4FBE10C941434D82EE92E67
:1036A000F62ED72F042FC22F222379F081E08093AA
:1036B000E6030E9490299093E5038093E40380E061
:1036C000CDB7DEB7E8E00C943034C090E603CC20F0
:1036D000B1F38091E4039091E5030E94B929059725
:1036E00070F310E0000F111FA8016D2D7E2D8F2D9E
:1036F0009D2F0E944134892B41F0A8016D2D7E2D14
:103700008F2D9D2F0E944E34CC2D1092E6038C2FCE
:10371000D7CF0E949E2B0E9457170E94AB2B089573
:103720000E94B02B0E946B170E94CA2B08950E9422
:1037300029290E94842B0E9438170E94891B0E940D
:10374000901B0E944B17FBCF9093110380931003A3
:103750000895A0E0B0E0EFEAFBE10C941234E82F0A
:1037600071110DC0442321F0F0E0E457FD4F849126
:10377000682F782FCDB7DEB7EAE00C942E34262FD1
:1037800030E0C72FD0E0F0E0442321F0E457FD4FB4
:10379000E491F0E086E0829F7001839FF00C112499
:1037A0000FEF10E0C701B8010E949B33AB01220F5D
:1037B000331F65E5649FC001659F900D1124281B90
:1037C000390BC22ECC0CC20EC8018C1B9D0B8E9FD8
:1037D00090018F9F300D9E9F300D1124832FCC9E22
:1037E000B001CD9E700D1124672F77275801A61ABE
:1037F000B70AAE9ED001AF9EB00DBE9EB00D112493
:103800007B2F5801AC18B1086501CC9E5001CD9EAC
:10381000B00CDC9EB00C1124AB2CBB240A191B0984
:103820000E9FE0010F9FD00D1E9FD00D11246E2F13
:1038300043305105C9F09CEFE91693E0F90650F4C6
:103840004130510509F496CF4230510589F07E2F61
:103850006D2F90CF4430510571F046305105B9F3CA
:10386000632F8B2F7E2F86CF6B2F732F8E2F82CFC0
:10387000732F8D2F7FCF7D2F632FF8CF41E00E94D4
:10388000A91B08959C0180E090E0269F812D369F22
:10389000800D911D11240895A6E0B0E0E2E5FCE161
:1038A0000C9415347B01D82ECA01A0E0B0E08983C6
:1038B0009A83AB83BC83BC01CD010E94D73120E049
:1038C00030E04FE753E469837A838B839C8369817B
:1038D0007A818B819C810E9436318B018E839D83FE
:1038E0009B01AC0169831A838B839C8369817A81F4
:1038F0008B819C810E942E3398014E815D8169836A
:103900007A838B839C8369817A818B819C810E94DD
:103910002E3398014E815D8169837A838B839C83EA
:1039200069817A818B819C810E942E338B018E83E9
:103930009D832DEC3CEC4CE45DE369831A838B831F
:103940009C8369817A818B819C810E94313187FDC2
:1039500013C023E333E343E75FE369817A818B811B
:103960009C810E94293318165CF400E010E0B0E856
:10397000BE833FE33D8304C000E010E01E821D8251
:1039800020E030E04FE753E409831A838E818B8374
:103990009D819C8369817A818B819C810E942E33D9
:1039A0009B01AC0160E070E08FE793E40E94C430BB
:1039B00069837A838B839C8369817A818B819C81E3
:1039C0000E94A831262F3D2D239F212D1124B701C0
:1039D000822F2696E7E00C9431340E944C1C80958F
:1039E00008959091E703982B9093E703089548E09A
:1039F00050E068E170E08CE494E00E947C34109226
:103A0000E70308950E943E1C0895ECE4F4E085E08D
:103A100080838091740290917502A09176028183D7
:103A20009283A3838FE784838FEF85830E94F71CA3
:103A3000089580E008950F931F93CF93DF93C82FCD
:103A4000D62F8A010E94191D9CE0C99F9001112464
:103A500020503F4FF901ED0FF11D90819F3F29F05C
:103A6000F801E80FF11D90838F5FDF91CF911F91D7
:103A70000F910895E0910D03F0910E0309950895BB
:103A8000E0910903F0910A0309950895E0910B0371
:103A9000F0910C0309950895CF92DF92FF920F9356
:103AA0001F93CF93DF93CDB7DEB728970FB6F89467
:103AB000DEBF0FBECDBF182F062FF42E0E94411778
:103AC000882309F44CC0FF2009F457C0AE014F5FB2
:103AD0005F4F602F812F0E941B1DF82E0F2D10E0CD
:103AE0008091E803800F912F911D09976CF188E078
:103AF00090E06C01C01AD10AB80167517C4FA60151
:103B000089EE93E00E944E34B8016F507C4FA601BD
:103B100081EF93E00E944E34A601440F551FB80177
:103B2000660F771F6F5F7B4F81E094E00E944E34F9
:103B3000B80167507C4FA60189EF93E00E944E3494
:103B400088E08F198093E8031091E803DE01119655
:103B500040E0242F210FF41212C02093E80328968E
:103B60000FB6F894DEBF0FBECDBFDF91CF911F918E
:103B70000F91FF90DF90CF900895F12CAFCF5D9122
:103B8000852F90E030E0B90168517C4FFC01EE0FC9
:103B9000FF1FE05DFE4F0081FB010183880F991F2D
:103BA000FC01E050FF4F81A9FB018187518BF90196
:103BB000EE0FFF1FE851FC4F128E118E4F5FC9CFE1
:103BC0000E942505089599E0899F802D1124980F62
:103BD0009B3208F09AE20895A0E0B0E0E2EFFDE148
:103BE0000C9411348C017B01FC0180810E94E31D47
:103BF000C82FB92E2091500431E0230F08F42FEF85
:103C000030E040E050E06FEF7FEF80E090E00E9416
:103C1000E5336901D0E0A22E9D2C2C2FCB1550F05E
:103C200081E0F9E2FB1508F480E0CDB7DEB7EBE008
:103C30000C942D34FE01EC57FE4F8081F8019181E8
:103C40008923882319F1409158044150042E000C17
:103C5000550B47FF1DC08A2D992D6091500421E01E
:103C6000620F08F46FEF0E94421CAC0160914D049A
:103C700070914E0480914F04F70109950E94021D36
:103C8000462F672F282FCE010E94401D2196C5CFB9
:103C9000FA01E85AFB4F818982130AC0FA01EE0F3C
:103CA000FF1FE85AFB4F818D928D8C159D05A8F260
:103CB00041505109CECFA0E0B0E0E1E6FEE10C9426
:103CC00014347C01FC0180810E94E31DC82F192F50
:103CD00060914D0470914E0480914F040E94021D2A
:103CE000062FD72EC82ED0E0C11748F081E01A3237
:103CF00008F080E0CDB7DEB7E8E00C943034FE0188
:103D0000EC57FE4F8081F70191818923882331F0A0
:103D10002C2D402F6D2DCE010E94401D2196E4CF09
:103D2000CF93C82F80915F028C1338C020914C0430
:103D3000237030E04091600250E081E024173507A5
:103D400009F480E0817080935E028091510490912B
:103D50005D02981739F080935D0240E060E080E0FA
:103D60000E94461DC230E9F1D8F4C11126C08091ED
:103D70005E028823E9F140E060E080E00E94461D99
:103D800080915C028F5F80935C0282E080935B0293
:103D900080915E02882389F1CF91089581E0D2CF8E
:103DA0006DEE7CE1C330F9F080915C028F5F80930F
:103DB0005C0282E080935B02EFCF8CE592E00E9490
:103DC0005B1E90915C029F5F90935C028111E4CF37
:103DD00082E080935B0280915E028111DDCFCC2373
:103DE000DACF6CE47CE18CE592E00E94EC1DE9CF37
:103DF00080915C028F5F80935C0283E0DBCF81E087
:103E000008950E94FF1E0895FC01808181500E9448
:103E1000E31D692F0E94011F08954F925F926F92D8
:103E20007F928F929F92AF92BF92CF92DF92EF924A
:103E3000FF92CF93DF9300D000D0CDB7DEB7809153
:103E4000110490911204A0911304B0911404898379
:103E50009A83AB83BC83BC01CD010E94C8296B014E
:103E60007C010E949C29609311047093120480933A
:103E7000130490931404A091E803E8EEF3E02A2FD2
:103E800030E088248A94982CA12CB12C8C189D08A1
:103E9000AE08BF08A3132FC02093E8032091150498
:103EA00021113CC020914C04A22FA370A983AA2306
:103EB00019F026952695298320915B02223009F47A
:103EC00055C070F5211141C010925C0260935404FA
:103ED00070935504809356049093570489E2E8EE5A
:103EE000F3E0A8E5B4E001900D928A95E1F781E056
:103EF00080935B0217C0418D528D2A01612C712C79
:103F000084149504A604B70420F421503F5F329630
:103F1000C1CF4C0D5D1D528F418FF8CF1982CCCF90
:103F2000233081F10F900F900F900F90DF91CF9180
:103F3000FF90EF90DF90CF90BF90AF909F908F90C9
:103F40007F906F905F904F90089589810E94901E9E
:103F5000B981BB2339F380915B02823011F40E9456
:103F6000E01D8CE592E00E94041FDCCF3981309384
:103F70005F0280914C048370809360020E943A1D1E
:103F800083E0B6CF8091E70381110E94F71C8091F6
:103F9000540490915504A0915604B0915704BC016B
:103FA000CD010E94C82969837A838B839C83603109
:103FB00071058105910508F4B5CF10925B02B2CF6F
:103FC000E0910703F091080309951092580440E12D
:103FD00050E06FEF70E081E794E00E945734109258
:103FE000E80340E150E06FEF70E081E094E00E9470
:103FF00057340E945116811104C00E94F1160E948C
:10400000051D81E08093E70348E050E068E170E03F
:104010008CE494E00E945E341092E70380914C049B
:10402000843010F40E94051D0895CF93C82F882373
:1040300091F08091150481110EC00E94901E109283
:104040005F0280914C048370809360020E943A1D4D
:1040500083E080935B02C0931504CF910895ECE454
:10406000F4E0908121E09227908310925B020E94FD
:10407000F11C089581E00E942F20089580914C0446
:104080008370811102C010925B0280914C048C7F7E
:10409000816080934C0408950E943E2081E00E943C
:1040A000F11C089580914C048370811110925B0281
:1040B00080914C048C7F80934C0408950E94522080
:1040C00081E00E94F11C0895982F862F20914C04C6
:1040D0002370222389F0992381F0943080F49F7318
:1040E000990F990F20914C042370922B90934C04BC
:1040F00010925B020E94F11C089591E0F1CF93E0D1
:10410000EFCF61E00E9464200895682F80914C04F5
:10411000869586958F5F843008F081E00E94642048
:10412000089581E00E9485200895682F90914C04A5
:10413000969596958FEF890F913009F483E00E9450
:104140006420089581E00E9495200895982F822F81
:1041500020914C042370222341F090934D046093EE
:104160004E0440934F040E94F11C089520E00E94E9
:10417000A6200895282FECE4F4E09181892F90E0A7
:104180004381628108960E94A620089581E00E94E2
:10419000BA200895282FECE4F4E081814381628104
:1041A0008850990B0E94A620089581E00E94CA20A1
:1041B0000895282FECE4F4E0628130E1630F08F405
:1041C0006FEF8181438190E00E94A620089581E0F5
:1041D0000E94D9200895282FECE4F4E0628130E1B8
:1041E000631B08F460E08181438190E00E94A62077
:1041F000089581E00E94EB200895282FECE4F4E07C
:10420000438130E1430F08F44FEF8181628190E0F8
:104210000E94A620089581E00E94FD200895282F85
:10422000ECE4F4E0438130E1431B08F440E0818199
:10423000628190E00E94A620089581E00E940F21F3
:1042400008958093500481E00E94F11C0895ECE4ED
:10425000F4E0248130E1230F08F42FEF24830E943F
:10426000F11C089581E00E9427210895ECE4F4E018
:10427000248130E1231B08F420E024830E94F11CF8
:10428000089581E00E943621089510921604089541
:10429000CF93DF93DC01FC01EE0FFF1FEF01CA0F8C
:1042A000DB1FCF57DB4F8981861306C088818413BB
:1042B00003C08A81821751F081E080931604EA0FCF
:1042C000FB1FEF57FB4F618340832283DF91CF9128
:1042D0000895FF920F931F93CF93DF93182F062F0C
:1042E000F42EC0E0D0E02F2D402F612FCE010E9490
:1042F00048212196CA32D105B1F7CDB7DEB7E5E046
:104300000C94333480911604882341F06AE270E003
:1043100081E894E00E94ED21109216040895FA01BC
:10432000882311F009950895FB01FCCF1F93CF93CB
:10433000DF93EC01FB01158111114DC00E94211585
:104340008272FE01E052F847E531F10508F043C002
:10435000EA53FB4C0C9404340E943A20812FDF91E5
:10436000CF911F91089542EA50E261E970E20E9404
:104370008F21F4CF41E950E262EA70E2F8CF45EDD7
:1043800050E266EC70E2F3CF46EC50E265ED70E28D
:10439000EECF49EF50E267EE70E2E9CF47EE50E230
:1043A00069EF70E2E4CF4DE151E26BE071E2DFCF03
:1043B0004BE051E26DE171E2DACF41E451E262E3B8
:1043C00071E2D5CF42E351E261E471E2D0CF81E006
:1043D0000E948120C3CF11E0C1CF9C01AB01239A81
:1043E00065B1677F75B17860EFB7F894CA01880F3F
:1043F000991F840F951F820F931F8217930741F413
:10440000EFBF8FE594E00197F1F700C00000089539
:10441000D9014D919D0158E075B9000000C047FFDA
:1044200065B9440F000000C000C000C065B900C0FD
:104430005A9591F7E2CFCF93DF93EB0186319C47FA
:1044400019F50E9421159D819923A1F08A7A91E0A6
:10445000811101C090E090931704882349F085E30F
:104460000E9479280E94DB1580E0DF91CF910895AA
:1044700089E2F6CF80911704882321F085E30E941A
:104480009028F0CF89E2FBCF81E0EFCFCF93DF938D
:10449000EC01FB018581882309F4D2C09E013057CD
:1044A0002332310508F0B2C00E94661690933B0497
:1044B00080933A04FE01E150F047E232F10520F426
:1044C000E552FB4C0C94043480913A048160809353
:1044D0003A0493C080913B04886080933B048DC074
:1044E00080913A048260F3CF80913A048460EFCFE8
:1044F00080913A048860EBCF80913B048160EDCFDE
:1045000080913B048260E9CF80913A048061DFCFE3
:1045100080913A048062DBCF80913A048064D7CFE7
:104520000E94A21080913A048068D1CF80913A0411
:104530008C60CDCF80913B048360CFCF80913A04D3
:104540008E7FC5CF80913B04877FC7CF80913A048F
:104550008D7FBDCF80913A048B7FB9CF80913A0493
:10456000877FB5CF80913B048E7FB7CF80913B048E
:104570008D7FB3CF80913A048F7EA9CF80913A048A
:104580008F7DA5CF80913A048F7BA1CF0E94A2108E
:1045900080913A048F779BCF80913A04837F97CFA5
:1045A00080913B048C7F99CF80913A0482FB9927BC
:1045B00090F921E0922790FB82F990FB83F987CF55
:1045C00080913B04982F909591708E7F892B90FB62
:1045D00081F983CF90913A04892F8F7B96FF806475
:1045E00076CF0E94A21090913A04892F97FB87F909
:1045F00080586DCF81E00E94F41680913A0490912A
:104600003B040E946B160E94A21080E0DF91CF91C4
:10461000089580E0F0CF90913A04892F8F7E94FF27
:10462000806155CF90913A04892F8E7F90FF8160F1
:104630004ECF90913B04892F877F93FF88604DCFA9
:1046400081E0E4CF282F35EB2303C001112497FF2D
:1046500004C080589109892F089580589F4FFBCF3F
:1046600080911E0480FF0DC06091660270E0660FAD
:10467000771F60387105C0F561157105B9F1862F96
:10468000089581FF07C06091660284E0689FB001D1
:104690001124EFCF82FF04C06091660288E0F6CF5C
:1046A00080911D048823E9F0909165026091660273
:1046B00070E0891730F093E0660F771F9A95E1F765
:1046C000D8CF869F9001879F300D112483E0220F61
:1046D000331F8A95E1F7692F70E0C9010E94AF335B
:1046E000C8CF68E070E0CBCF8FE7089581E00895F0
:1046F00080911E0480FF0CC06091620270E075958D
:104700006795759567956115710561F1862F089517
:1047100081FF06C06091620270E075956795F3CFE6
:104720006091620270E082FD15C020911C0422237A
:10473000B1F0909161026091620270E0291750F42B
:10474000269FA001279F500D1124692F70E0CA01F8
:104750000E94AF3360387105B0F28FE7089561E0D1
:1047600070E0D4CF81E0089590912104209122043B
:10477000922B20912404922B20912304922B992395
:1047800031F098E090931D0491E090931C048D3CCF
:1047900031F40E9430238195809322040895E2E34E
:1047A000E80FE231B0F5F0E0E350FB4C0C94043438
:1047B0000E943023F1CF0E94302381958093210401
:1047C00008950E943023FACF0E9478238093230417
:1047D00008950E9478238195F9CF0E9478238195CE
:1047E0008093240408950E947823FACF815D990B69
:1047F00021E030E001C0220F8A95EAF78091200481
:10480000822B80932004089580911E048160809300
:104810001E04089580911E048260F9CF80911E04C9
:104820008460F5CF409121048D3C59F4809122049D
:1048300087FF0DC010922204442359F410921D04E6
:1048400008C08E3C81F48091220418169CF3442306
:1048500081F08091230490912404892B811159C007
:1048600010921C0408958F3C41F447FFF0CF109242
:104870002104809122048823E0CF803D19F414168E
:10488000B4F3E5CF90912304893D29F41916FCF681
:1048900010922304DCCF8A3D19F497FFD8CFF8CFCC
:1048A000909124048B3D29F497FFD1CF10922404DA
:1048B000CECF8C3D19F41916CCF3C9CF9FE2980FD7
:1048C000983090F4815D990B21E030E0B90102C08D
:1048D000660F771F8A95E2F7CB01809590912004AF
:1048E000892380932004B3CF8D3D31F480911E0441
:1048F0008E7F80931E04ABCF8E3D21F480911E04E9
:104900008D7FF7CF8F3D09F0A2CF80911E048B7F62
:10491000F0CF08950E949029209121043091220423
:10492000232B222321F080931A0490931B042091BF
:10493000230430912404232B222321F08093180494
:10494000909319048FE194E00E946F27089586E008
:10495000EFE1F4E0DF011D928A95E9F710921D0462
:1049600010921C0410921E040895FC018281811192
:104970000DC0838181110AC08481811107C081E04B
:104980009581911101C080E08170089581E0FCCF94
:10499000A6E0B0E0EEECF4E20C94173486E0EFE130
:1049A000F4E09E012F5F3F4FD90101900D928A954F
:1049B000E1F7109221041092220410922304109225
:1049C00024048B819C81892B8901882391F080911B
:1049D0001A0490911B040E94B9299C0180911D0426
:1049E0008823C9F14091670250E04217530708F449
:1049F0003FC08D819E81892B882399F08091180476
:104A0000909119040E94B9299C0180911C0488236B
:104A100009F467C04091630250E04217530708F45D
:104A20006EC0B8018FE194E00E94C128811105C0D9
:104A30008FE194E00E94B52481110E948A2486E0CF
:104A4000F801AFE1B4E001900D928A95E1F7269666
:104A5000E5E00C943334409168029AE0499FA0014C
:104A600011244217530728F68F5F80931D0402C05C
:104A70008F3FD1F7FB80FF2059F00E94302391E057
:104A80001F140CF09FEF899F802D11248093210427
:104A9000FC80FF2059F00E94302391E01F140CF09D
:104AA0009FEF899F802D11248093220480912104FF
:104AB000882309F49ECFF0902204FF2009F499CFB7
:104AC0000E942223811101C081E0809321048F2D57
:104AD0000E942223882319F0809322048ACF81E048
:104AE000FBCF409164029AE0499FA0011124421734
:104AF000530708F096CF8F5F80931C0402C08F3F4E
:104B0000D1F7FD80FF2059F00E94782391E01F1417
:104B10000CF09FEF899F802D112480932304FE8049
:104B2000FF2059F00E94782391E01F140CF09FEFB2
:104B3000899F802D1124809324048091230488234D
:104B400009F46FCFF0902404FF2009F46ACF0E948B
:104B50002223811101C081E0809323048F2D0E94C4
:104B60002223882319F0809324045BCF81E0FBCFBC
:104B7000FF920F931F93CF93DF93E82FF0E0E4575A
:104B8000FC4FF490282F26952695269530E0F901C4
:104B9000E45DFB4F94918770F901E45EFB4F049153
:104BA00010E0082E02C0159507950A94E2F70170EF
:104BB0001127F901E45FFB4FC491D0E0082E02C039
:104BC000D595C7950A94E2F7C170DD27E92FF0E08B
:104BD00002C0F595E7958A95E2F7E0FD10C0011552
:104BE0001105C1F48F2D0E942B0ECD2B19F08CE2F4
:104BF0000E942B0ECDB7DEB7E5E00C94333481EE86
:104C00000E94980D0115110579F48F2D0E942B0E2D
:104C100081EE07C086EE0E94980D8F2D0E942B0E0C
:104C200086EE0E94E00DE1CF86EE0E94980D8F2D5A
:104C30000E942B0E86EE0E94E00DEACFEF92FF92CB
:104C40001F93CF93DF93EC01162F8881882309F4FB
:104C500056C0813009F050C089818130A1F47E01B5
:104C600022E0E20EF11C8A810E942B0EE7012196C0
:104C7000812F882351F3EFE9FFE03197F1F700C06E
:104C800000008150F6CF823041F47E0182E0E80ED0
:104C9000F11C8A810E94980DE9CF833041F47E0196
:104CA000E2E0EE0EF11C8A810E94E00DDFCF84303D
:104CB00011F02196DCCF2A81229680E090E06AE014
:104CC000AE014F5F5F4F2053330B2A30310548F060
:104CD000019768F2EFE9FFE03197F1F700C00000BB
:104CE000F7CF689FF001699FF00D1124C9018E0F65
:104CF0009F1F2981EA01E4CF0E94B825B8CFDF9138
:104D0000CF911F91FF90EF90089560E00E941E26C2
:104D10000895A0E0B0E0EFE8F6E20C9412347C01D4
:104D20005B01C42FD22FFC0185818823C9F04093F9
:104D300027040E949029909326048093250480E202
:104D40008C0F883040F4C77081E001C0880FCA958D
:104D5000EAF70E94340ECDB7DEB7EAE00C942E34A9
:104D600010912704141342C08091250490912604C9
:104D70000E94B9296C01B701C5010E940E0AC8162C
:104D8000D906A0F5C0E2CD0F1D1749F180E2810FD1
:104D9000883048F4177081E0012E01C0880F0A9412
:104DA000EAF70E943B0EC83020F0802F0E942B0EA5
:104DB000D2CF91E08D2F877001C0990F8A95EAF7C5
:104DC000892F0E94340E802F0E942B0ED77081E015
:104DD00001C0880FDA95EAF70E943B0EBCCF802F06
:104DE0000E942B0EC83008F0B6CFF0CF80E28C0FB7
:104DF000883008F0B0CFC77081E001C0880FCA9535
:104E0000EAF7EACF0F93FC01CB01E851FC47E7300A
:104E1000F10590F5E15FFA4C0C94043406E221EEC2
:104E200041EE6AE17CE70E94892680E00F910895B7
:104E300007E225EE45EE6BE17CE7F5CF06E221EED9
:104E400040EE68E17CE7EFCF07E225EE44EE69E152
:104E50007CE7E9CF06E221EE42EE6CE17CE7E3CFAE
:104E600007E225EE46EE6DE17CE7DDCF08E221E0CA
:104E700045EE6EE17CE7D7CFFB0185818111109271
:104E8000270481E0D3CF90932D0480932C040895C0
:104E9000E0912C04F0912D04309729F00190F081DD
:104EA000E02D0995089580E00895E0912C04F0919B
:104EB0002D04309721F00280F381E02D09950895AB
:104EC000DC01E0912C04F0912D04309739F086E05C
:104ED0008C930480F581E02DCD0109950895DC01C6
:104EE000E0912C04F0912D04309739F082E08C93FE
:104EF0000680F781E02DCD0109950895A3E0B0E08B
:104F0000E4E8F7E20C941A349C0180912A04909111
:104F10002B0482179307A1F030932B0420932A04CB
:104F2000E0912C04F0912D04309751F083E08983B7
:104F30003B832A830084F185E02DCE0101960995FB
:104F40002396E2E00C943634A3E0B0E0EAEAF7E21C
:104F50000C941A349C0180912804909129048217A2
:104F60009307A1F03093290420932804E0912C04A6
:104F7000F0912D04309751F084E089833B832A839C
:104F80000084F185E02DCE01019609952396E2E09B
:104F90000C9436342091590230915A022E5F3F4FC3
:104FA000809173028823A9F080913A0487FF11C091
:104FB00020915702309158022E5F3F4F9DE180E0D3
:104FC000F90140812F5F3F4F41118F5F9150C0F732
:104FD000089595E0F4CF882321F1909173029923ED
:104FE00011F190913A0497FF1EC0982F96959695CF
:104FF0009695803FB0F4E0915702F0915802E90F86
:10500000F11D228130E0877041E050E0BA0102C01A
:10501000660F771F8A95E2F72623372381E0232B3B
:1050200091F480E008952091590230915A02F901DB
:105030003296285F3F4F9191981721F0E217F307BE
:10504000D1F7EFCF81E008959C01FC0132968FEFFC
:1050500090E04191461751F08F3F19F4411101C082
:10506000892F9F5F9630A9F78F3F09F40895280F85
:10507000311D87FD3A95F901628308959C01FC0179
:105080003296285F3F4F8191861303C0DF0111974D
:105090001C92E217F307B9F70895FC01862F869555
:1050A00086958695603F60F4E80FF11D677021E0FA
:1050B00030E001C0220F6A95EAF78281822B828359
:1050C0000895FC01862F869586958695603F80F42D
:1050D000E80FF11D677081E090E09C0102C0220F93
:1050E000331F6A95E2F7B901609582816823628374
:1050F0000895682F80917302882359F080913A04B3
:1051000087FF07C080915702909158020E944D2856
:1051100008958091590290915A020E94242808957E
:10512000682F80917302882359F080913A0487FF99
:1051300007C080915702909158020E9461280895FB
:105140008091590290915A020E943E2808958091C0
:105150007302882379F080913A0487FF0BC0E091B5
:105160005702F091580232968EE1DF011D928A9526
:10517000E9F70895E0915902F0915A02329686E0DB
:10518000F4CFDC01FB0111969C911197818198135A
:1051900022C012968C911297882319F0928189135C
:1051A0001AC013968C911397882319F09381891351
:1051B00012C015968C911597882319F09581891343
:1051C0000AC014969C91992321F081E0248129132F
:1051D00003C080E001C081E08170089508950E94BD
:1051E000EE2808958F5F80932E040E94EF28089583
:1051F00083E080932E040E94EF2808950E94F228F5
:10520000089581E080932E040E94EF2808950E9463
:1052100001290895089508950E940B29089508957D
:1052200008950E940A290895CF930E940F290E9491
:105230000A1B0E941029C0E08C2F0E94451A892B5E
:1052400031F4CF5FC430C1F780E0CF91089581E0A1
:10525000FCCF85B7806885BF85B7806885BF089516
:105260001F921FB61F9211248F939F93AF93BF93EA
:1052700080912F04811113C08091FF04909100054B
:10528000A0910105B09102054196A11DB11D809329
:10529000FF0490930005A0930105B0930205BF9110
:1052A000AF919F918F911F901FBE1F901895809175
:1052B0000705843031F10E94E00C10922F0488E140
:1052C00090E020E40FB6F894A895809360000FBE9C
:1052D0002093600083B7817F846083BF83B7816040
:1052E00083BF7894889583B78E7F83BF0FB6F89479
:1052F000A8958091600088618093600010926000A2
:105300000FBE08950E94A2100E94EA0C089582E048
:1053100084BD93E095BD9AEF97BD80936E0008958C
:105320002FB7F8948091FF0490910005A09101059A
:10533000B09102052FBF0895A4E0B0E0E2EAF9E2DF
:105340000C941A348FB7F8942091FF043091000523
:10535000409101055091020529833A834B835C8378
:105360008FBF69817A818B819C812496E2E00C94C5
:1053700036349C014FB7F8948091FF04909100055A
:10538000A0910105B09102054FBF821B930B0895B8
:10539000A4E0B0E0EEECF9E20C941834462F572F5D
:1053A000BC012FB7F8948091FF0490910005A09163
:1053B0000105B09102052FBF8C019D01041B150B47
:1053C000260B370BC901B8012496E4E00C94343461
:1053D00078941F921FB61F9211248F939F93AF93BF
:1053E000BF938091FF0490910005A0910105B091B9
:1053F00002050196A11DB11D8093FF049093000545
:10540000A0930105B0930205BF91AF919F918F9139
:105410001F901FBE1F90189581E08093E00080E2EE
:105420008093D8001092C9008FE19EE40197F1F7B4
:1054300000C0000087E090EBDC01809310059093A2
:105440001105A0931205B093130588E19CE00FB6F7
:10545000F894A895809360000FBE90936000FFCFF2
:1054600088E19CE00FB6F894A895809360000FBE89
:1054700090936000FFCF809138040895282FCB01CE
:10548000BA01309107053430E1F42F702093E90020
:105490002FEF3091E80035FD07C035ED3A95F1F773
:1054A000000021502111F5CF2091E80025FF09C00F
:1054B00040E050E00E94422C8091E8008E7780937B
:1054C000E8000895BC0143E050E082E00E943E2ADB
:1054D0000895BC0146E050E082E00E943E2A089513
:1054E000BC0140E250E082E00E943E2A0895CF9342
:1054F000DF93D82FC92F48E050E0682F792F81E043
:105500000E943E2A88E0ED2FFC2FA0E3B4E001903A
:105510000D928A95E1F7DF91CF910895809106056C
:10552000811109C00E94CA2D0E94272E8091E2009D
:1055300084608093E20008951092060508950E9409
:10554000012908956091030581E0611101C080E0A7
:105550000E94F82808959091070581E0943009F0A1
:1055600080E0609103050E94FE28089542E061EC0E
:1055700081E00E94462D42E261EC82E00E94462DCD
:105580009091070581E0943009F080E06091030577
:105590000E94F228089580910905893089F148F424
:1055A000823009F4A0C0833009F45AC0813041F040
:1055B00008958A3009F487C08B3009F46CC00895CF
:1055C00080910805813A09F04AC08091E800877F00
:1055D0008093E80080910C0590910D05892B61F076
:1055E00060E080E090E070E00E94912C8091E80003
:1055F0008B778093E800089568E080E394E0F3CF30
:1056000080910805813259F580910C0590910D0526
:10561000029728F58091E800877F8093E8008091C9
:10562000E80082FF18C09091F3008091F200029789
:1056300031F48091F100813011F0863021F48091B5
:10564000F100809338048091E8008B778093E80024
:105650000E947A2D04C0809107058111E0CF089542
:1056600080910805813AD9F780910C0590910D053C
:10567000892BA9F78091E800877F8093E8008091CB
:10568000E80080FFFCCF809173028093F10080914D
:10569000E8008E77DBCF80910805813201F7809199
:1056A0000C0590910D05892BD1F68091E800877F3C
:1056B0008093E8000E947A2D80910A0580937302FE
:1056C0000E94A210089580910805813241F68091D0
:1056D000E800877F8093E8000E947A2D80910B0577
:1056E00080933904089580910805813A09F0B7CF75
:1056F0008091E800877F8093E8008091E80080FF38
:10570000FCCF80913904C1CF84B7877F84BF0FB6A7
:10571000F894A89580916000886180936000109251
:1057200060000FBE80E890E00FB6F89480936100AF
:10573000909361000FBE0E94072908950E94CA2D10
:105740000E94272EE2EEF0E08081846080837894CE
:105750000E94AA30089589E692E00E9443270895A6
:1057600080910705853031F480910705853019F067
:105770000E94822908950E94572980910505882357
:1057800099F30E941429882379F30E942C2C0E94FB
:10579000A210EACF08959A0140910E0550910F058D
:1057A0000E94D32B0895AC01CB01D901252F3327BB
:1057B00023303105E1F058F421303105C9F12230B0
:1057C0003105D9F180E090E020E030E01EC02132C8
:1057D000310521F122323105A9F7892BC1F1613060
:1057E000710581F786EB90E02FEA34E00EC0CA0124
:1057F0009927413069F08230910569F0EEE5F4E0D7
:10580000892B01F7849190E09F012D933C9308959B
:10581000EAE4F4E0F7CFECE3F4E0F4CF892B91F085
:105820006130710579F689E090E02DE834E0EDCF44
:1058300082E190E02DE934E0E8CF8BE390E022E6CE
:1058400034E0E3CF89E090E024E734E0DECF84E485
:1058500090E025E635E0D9CF80E189BD82E189BDC0
:1058600009B400FEFDCF8091D8008F7D8093D800D1
:105870008091E00082608093E0008091E00081FDF3
:10588000FCCF0895AF92BF92CF92DF92FF920F9319
:105890001F93CF93DF936C01EB018A010E94992D36
:1058A000F82E811123C00115110539F0F80180810E
:1058B0009181C81BD90BC80ED91EA12CB12C2097E1
:1058C000A9F08091E80085FD22C08091E8008E77E4
:1058D0008093E80001151105A1F0F8018081918104
:1058E0008A0D9B1D9183808385E0F82E8F2DDF919B
:1058F000CF911F910F91FF90DF90CF90BF90AF900D
:1059000008950E94992D8823E1F2F82EEFCFF60139
:1059100081916F018093F1002197FFEFAF1ABF0AC9
:10592000CECFFC019B0180910E0590910F0586174B
:10593000970718F0672B61F0C90140E0009771F4F8
:1059400041110CC08091E80082FF35C080E00895CD
:105950008091E8008E778093E800EECF20910705D4
:105960002223A9F12530A9F12091E80023FD2DC0C3
:105970002091E80022FDE6CF2091E80020FFDECF55
:105980003091F3002091F200009719F02830310592
:1059900058F041E02830310509F040E02091E8005E
:1059A0002E772093E800CACF41914093F1000197F0
:1059B0002F5F3F4FE9CF80910705882341F0853065
:1059C00041F08091E80083FFBDCF81E0089582E03F
:1059D000089583E00895FC019B0180910E0590914C
:1059E0000F058617970718F0672B61F0C90140E093
:1059F000009771F441110CC08091E80082FF36C01D
:105A000080E008958091E8008E778093E800EECFE3
:105A1000209107052223B1F12530B1F12091E80052
:105A200023FD2EC02091E80022FDE6CF2091E80062
:105A300020FFDECF3091F3002091F200009719F0A3
:105A40002830310558F041E02830310509F040E0B8
:105A50002091E8002E772093E800CACF449140932C
:105A6000F100319601972F5F3F4FE8CF80910705F6
:105A7000882341F0853041F08091E80083FFBCCF5E
:105A800081E0089582E0089583E00895982F97308B
:105A900028F08F708093E90081E008959093E900E9
:105AA000242F762F50E0981731F07091EC00209160
:105AB000ED005091F00021FD02C09F5FE8CF3091D2
:105AC000EB003E7F3093EB003091ED003D7F309353
:105AD000ED003091EB0031603093EB007093EC00FF
