:100000000C94D5020C940D030C940D030C940D0369
:100010000C940D030C940D030C940D030C940D0320
:100020000C940D030C940D030C94FD2D0C94D02E08
:100030000C94E7280C940D030C940D030C940D0301
:100040000C940D030C940D030C940D030C940D03F0
:100050000C940D030C949F290C940D030C940D0328
:100060000C940D030C940D030C940D030C940D03D0
:100070000C940D030C940D030C940D030C940D03C0
:100080000C940D030C940D030C940D030C940D03B0
:100090000C940D030C940D030C940D030C940D03A0
:1000A0000C940D030C940D030C940D032900140003
:1000B0001A000800150017001C0018000C001200A0
:1000C00013002E002B0004001600070009000A0090
:1000D0000B000D000E000F0000002800067E1D0022
:1000E0001B0006001900050011001000360000007A
:1000F00037004C00E000E300E2002C41000000006B
:100100002C420000000038002D002D0201004A00A2
:1001100052004D002F003000010001002402310286
:10012000417E01000100500051004F0026022702CD
:10013000010001003300340000002A000100027EAB
:10014000037E047E057E010001000100E200000044
:100150000100010001000100010001000000000099
:100160002C430000000001000100010001001E00FE
:100170001F0020002100220023002400250026006B
:1001800027000100270021002200230001000100B8
:10019000010001003300340000002A0001002400A7
:1001A00025002600010001000100010001000000FF
:1001B000010001000100010001002C4300000000CB
:1001C0000100000000000100010001005F7ED1007D
:1001D000CD00D2003A003B003C00010001000100CC
:1001E0000100007C0100CF00CE00D0003D003E00A9
:1001F0003F000100010001000000007E0100D90065
:10020000D300DA00400041004200430004520000E5
:100210004500010001000100010001000000000094
:10022000010000000000597E5A7E20781E00060062
:100230001A000800150017003C0000000000000034
:10024000000029001F0004001600070009000A0032
:100250003E0000000000000000002800E100140043
:1002600021001B00050005003A00000000520000BC
:100270005200E100E000E20020002C00000000003D
:10028000017E00000000500051004F0000010101FC
:100290000101010101010202020202020202020343
:1002A0000303030303030304040404040404050513
:1002B00005050506060606060707070707080808D6
:1002C00008090909090A0A0A0B0B0B0C0C0C0D0D85
:1002D0000D0E0E0E0F0F0F1010111111121213131D
:1002E0001414151516161717181819191A1A1B1B96
:1002F0001C1D1D1E1E1F20202122222324242526F2
:1003000026272829292A2B2C2D2D2E2F3031323229
:10031000333435363738393A3B3C3D3E3F40414235
:10032000434445464748494A4C4D4E4F505153541B
:10033000555658595A5B5D5E5F61626465666869CF
:100340006B6C6D6F7072737577787A7B7D7E80824F
:10035000838587888A8C8E8F91939596989A9C9E98
:10036000A0A2A3A5A7A9ABADAFB1B3B5B7BABCBEA8
:10037000C0C2C4C6C9CBCDCFD1D4D6D8DBDDDFE275
:10038000E4E7E9EBEEF0F3F5F8FAFDFF000000001A
:10039000000000002A2B28000000000000000000E0
:1003A0000000000000000029000000002C1E342086
:1003B000212224342627252E362D3738271E1F20AC
:1003C0002122232425263333362E37381F040506F1
:1003D0000708090A0B0C0D0E0F1011121314151635
:1003E0001718191A1B1C1D2F3130232D3504050633
:1003F0000708090A0B0C0D0E0F1011121314151615
:100400001718191A1B1C1D2F3130354C0000000025
:1004100000000000000000000000000000000000DC
:1004200000000000000000000000000000000000CC
:100430007E0F00D4FFFFFFC7000000780C034600CA
:1004400065006200340030000000120366006500A1
:1004500062007200650065007A0065000000040318
:10046000090409023B00020100A0FA09040000018E
:100470000301010009211101000122440007058147
:100480000308000109040100010300000009211113
:1004900001000122B60007058203200001120100BD
:1004A0000200000008646942000001010200010529
:1004B000010902A10185020901A10005091901290B
:1004C000081500250195087501810205010930090B
:1004D000311581257F95027508810609381581251A
:1004E0007F950175088106050C0A38021581257F64
:1004F000950175088106C0C005010980A101850329
:1005000019012AB700150126B70095017510810061
:10051000C0050C0901A101850419012AA0021501D9
:1005200026A002950175108100C005010906A101F0
:100530008506050719E029E71500250195087501CD
:1005400081020507190029EF1500250195F07501B5
:10055000810205081901290595057501910295018A
:1005600075039101C005010906A101050719E029DC
:10057000E71500250195087501810295017508812F
:10058000010507190029FF150026FF0095067508CB
:10059000810005081901290515002501950575013A
:1005A0009102950175039101C00011241FBECFEF88
:1005B000DAE0DEBFCDBF04B603FE18C080910C05A3
:1005C00090910D05A0910E05B0910F058730904BCD
:1005D000A740B04B59F410920C0510920D051092E3
:1005E0000E0510920F05E0E0F8E3099512E0A0E097
:1005F000B1E0EEEAF9E602C005900D92AA37B10724
:10060000D9F725E0AAE7B2E001C01D92AC30B207ED
:10061000E1F70E944E1B0C9467340C9400000E947A
:10062000D814282F982F917181E0911101C080E09A
:10063000880F91E0211190E0892B922F990F990F4B
:100640009470892B24FB992790F9990F990F990F92
:10065000892B91E0322F3474311101C090E09295D2
:10066000907F892B22FB992790F99295990F907E84
:10067000892B922F9074892B91E0322F3878311189
:1006800001C090E0979599279795892B922F991FF4
:100690009927991F990F23FB332730F9932B31E0CA
:1006A000422F4272411101C030E0330F330F932BC0
:1006B00021FB332730F9330F330F330F932B25FBF7
:1006C000222720F92295207F922B0895FC01E05EDD
:1006D000F109E830F105B0F5E759FB4C0C94BB3358
:1006E00080910C0360FB82F960FB81F980930C031D
:1006F000089580910C0360FB83F9F6CF80910D0380
:1007000060FB80F980930D0380910C0360FB87F9F7
:10071000EDCF80910D0360FB81F9F4CF80910C0344
:1007200060FB85F960FB84F9E1CF80910C0360FBED
:1007300086F9F8CF80910D0360FB83F960FB82F9A5
:1007400080930D03089580910D0360FB84F9F6CF2B
:10075000982F862F992319F00E94DB1408950E9488
:10076000E11408950F931F93CF93DF930CE013E0F0
:10077000F801808161E082FB882780F90E94A8034C
:10078000F801808160E183FB882780F90E94A8033B
:10079000CDE0D3E0888168E081700E94A803888161
:1007A00060E8869581700E94A803F801808164E06A
:1007B00085FB882780F90E94A803F801808160E406
:1007C00086FB882780F90E94A803888162E083FB6A
:1007D000882780F90E94A803888160E28295817051
:1007E0000E94A803DF91CF911F910F910895FB0103
:1007F0008F359E4789F42581222361F080910F0374
:10080000082E000C990B019662E070E00E9466339E
:1008100080930F03822F089520E0FCCFCF92DF92C8
:10082000FF920F931F93CF93DF93F82E092F6B0145
:1008300080910001909101010E94FB0AEC01892B3B
:10084000E9F088818823D1F0F6011581112369F040
:100850008F2D902F0E947C0B8091000190910101BF
:100860000E947C0BCE010E943C26812FDF91CF910C
:100870001F910F91FF90DF90CF90089510E0F5CF7A
:100880000F931F93CF93DF938C01FB012181808114
:1008900090E0EC01CC0FDD1FC80FD91F84E2289F28
:1008A000C00DD11D1124C458DD4F88819581992335
:1008B00021F181112FC080910E038823C9F081E0BE
:1008C000888380910001909101019A83898360E07F
:1008D000C8010E94660361E089819A810E946603D3
:1008E000C8010E947C0B89819A810E94660B81E07D
:1008F000DF91CF911F910F9108958823C9F318823A
:1009000089819A810E947C0B60E089819A810E9492
:100910006603EDCF80E0ECCFEF92FF920F931F9331
:10092000CF93DF938C017B010E94F703C82F8111C5
:1009300069C0C80190528115904328F4F70186815F
:10094000803108F459C010920E03109301010093F6
:1009500000010E940F0390930D0380930C038FEF0F
:100960000E94E114F7016581C8010E94660360914D
:100970000C0370910D0380910001909101010E9480
:10098000E609EC018F3F980721F0909301018093D5
:10099000000140910F03042E000C550B60910C03D5
:1009A00070910D0380910001909101010E94880ACD
:1009B0009C012F3F320781F4219691F410920E038F
:1009C000B701C8010E940E04811113C0B701C8010C
:1009D0000E944004C82F0EC03093010120930001F3
:1009E00081E080930E038091000190910101892B99
:1009F00039F7C1E00E94B2038C2FCDB7DEB7E6E035
:100A00000C94E933C0E0F8CF80910001909101018E
:100A10000895ABE0B0E0EFE0F5E00C94C1336987F6
:100A20004D83282F30E040E050E029833A834B8308
:100A30005C83CA01B9010E94903120E030E04FE7A9
:100A400053E469837A838B839C8369817A818B8168
:100A50009C810E94ED305B016C019985892F90E0AB
:100A6000A0E0B0E089839A83AB83BC83BC01CD0155
:100A70000E94903120E030E04FE753E469837A83AD
:100A80008B839C8369817A818B819C810E94ED306C
:100A90003B014C013D81232F30E040E050E02983B1
:100AA0003A834B835C83CA01B9010E94903120E0F4
:100AB00030E04FE753E469837A838B839C836981B9
:100AC0007A818B819C810E94ED301B012C019B015E
:100AD000AC0169827A828B829C8269817A818B8166
:100AE0009C810E94CB319501A60169837A838B8317
:100AF0009C8369817A818B819C810E94CB318B019F
:100B00008B879A879101A20169827A828B829C826B
:100B100069817A818B819C810E94EA319501A601CD
:100B200069837A838B839C8369817A818B819C81A1
:100B30000E94EA319B01AC0109831A838B858B8368
:100B40009A859C8369817A818B819C810E947B300C
:100B50007B018983998720E030E0A9016D83FE82C3
:100B60008F8398876D817E818F8198850E94E83080
:100B7000882309F433C198014B855A85AD82BE8222
:100B8000CF82D8866D817E818F8198850E94E830E2
:100B90008111BBC09101A2016D827E828F829886F5
:100BA0006D817E818F8198850E947B30970149817C
:100BB00059856D837E838F8398876D817E818F8138
:100BC00098850E94ED3020E030E040EC50E46D83E9
:100BD0007E838F8398876D817E818F8198850E9427
:100BE000143220E030E040E752E46D837E838F834F
:100BF00098876D817E818F8198850E94E5325B01A7
:100C00006C0120E030E0A9010D831E83AB85AF832A
:100C1000BA85B8876D817E818F8198850E94E83082
:100C2000882309F4E0C098014B855A85ED82FE8245
:100C300089818F83998598876D817E818F81988541
:100C40000E94ED304B017C0120E030E04FE753E49F
:100C5000A982BA82CB82DC8269817A818B819C8174
:100C60000E94E53220E030E044EB53E469837A836C
:100C70008B839C8369817A818B819C810E94ED307A
:100C800069837A838B839C8369817A818B819C8140
:100C90000E945F31D62E20E030E04FE753E4898296
:100CA0009A82EB82FC8269817A818B819C810E948D
:100CB000E53269837A838B839C8369817A818B8116
:100CC0009C810E945F31F62E20E030E04FE753E434
:100CD00009831A83AB85AB83BA85BC8369817A812A
:100CE0008B819C810E94E53269837A838B839C830C
:100CF00069817A818B819C810E945F31862F6D2D65
:100D00007F2D2B96E2E10C94DD3398014B855A85BB
:100D10006D827E828F8298866D817E818F8198859B
:100D20000E94E830811128C09501A6012D823E82E3
:100D30004F8258866D817E818F8198850E947B309D
:100D40009701498159856D837E838F8398876D8153
:100D50007E818F8198850E94ED3020E030E040E078
:100D600050E46D837E838F8398876D817E818F8130
:100D700098850E947C3035CF98014B855A852D820D
:100D80003E824F8258866D817E818F8198850E9438
:100D9000E83081111EC09301A401AD82BE82CF82D2
:100DA000D8866D817E818F8198850E947B309701E6
:100DB000498159856D837E838F8398876D817E817C
:100DC0008F8198850E94ED3020E030E040E850E4CB
:100DD000C8CF60E070E080E090E003CFA12CB12CA0
:100DE000C12CD12C0ECF812C912CE12CF12C2CCFAD
:100DF0008093130360931203409311030E9409052B
:100E0000962F672F482F892F90E00E946D2008951C
:100E100080E40E94D8200E9415200E940320809127
:100E20001403882351F083E00E94382080E00E9460
:100E3000D51083E00E94D510089582E0F5CF80910F
:100E4000B0018823B9F180913303909134030E945B
:100E5000A90C843089F520E040E060E088E190E072
:100E60000E94F71C2091110340911203609113031B
:100E700087E290E00E94F71C209111034091120339
:100E8000609113038CE190E00E94F71C2091110304
:100E900040911203609113038BE190E00E94F71CD4
:100EA0002091110340911203609113038AE190E0B5
:100EB0000E94F71C81E008958091140320E040E037
:100EC00060E0811106C020911103409112036091EE
:100ED000130388E190E0ECCF833091F058F4813037
:100EE00091F08230B1F080910F034FEF8130A9F47F
:100EF0006FEF04C045E06BE38430A9F78FEF06C0C5
:100F000040E06FE6FBCF4AE46FEF83E00E94F80613
:100F100008954FEF6BE385E0F9CF60E088E8F6CF06
:100F20001F93CF93DF93182FD92F0E94A90CC82F9E
:100F3000809110038C1729F08C2F0E946C07C093AE
:100F40001003812F9D2FDF91CF911F91089580E095
:100F50000E946C070E94080780E00E94D510089547
:100F6000CF939C01FB01C581CC2379F089559E4725
:100F70000297A8F429353E4759F08091B00191E0DD
:100F800089278093B0010E9408078C2FCF91089584
:100F90008091140391E0892780931403F4CFC0E07B
:100FA000F4CF9C018091B101843089F18091B2012C
:100FB000203E310569F5482F41709091B30140FB07
:100FC00091F99093B30150910F0340FB93F9513085
:100FD00089F14091B3014E7051E0411101C050E0E0
:100FE0009091B30150FB94F99093B30180FF39C005
:100FF0002B32310561F490FD0AC0442341F081E0B9
:101000000E94D5108091B30181608093B30108954F
:10101000243E310559F0233E310579F0273E310554
:10102000D9F49091B30180FB93F904C09091B3017E
:1010300080FB91F99093B301CCCF9091B30180FBE9
:1010400093F99093B30190910F03913011F6909121
:10105000B30180FB92F9EECFA9014B7F423E5105CF
:10106000F5CF90FFD4CF94FDD2CF80E00E94D51071
:101070008091B3018E7FC9CF9C012C3283E4380765
:1010800079F050F42C3281E4380751F081E02C32B1
:10109000324439F080E0089581E021153C47F9CFD2
:1010A00081E00895CF9381309E4721F0C0E08C2FDE
:1010B000CF910895C091B201C1708091BB01C0FB76
:1010C00080F98093BB01CC2389F384608093BB01BA
:1010D0008091B7019091B8010E9470299093BA0154
:1010E0008093B9010E9447299093B8018093B7017A
:1010F0001092B4012091B9013091BA018091B501EB
:101100009091B6012817390790F681E08093B401D9
:10111000CECF8091BB0182FF21C080FD20C081FF26
:101120001DC08B7F8093BB018BE290E00E947C0B03
:1011300089E390E00E947C0B8091BB0183FF09C092
:1011400089E390E00E94AC0B8091BB01877F809384
:10115000BB018091BB018D7F8093BB01089581FD10
:10116000FDCF8091B401811109C08BE290E00E9413
:10117000660B8091BB01877F8093BB018091B40196
:10118000813049F489E390E00E94660B8091BB01B5
:1011900088608093BB018091BB018260DDCF0F939B
:1011A0001F93CF93DF93EC018091B101843041F420
:1011B000C430D10539F004E010E0C730D10521F08A
:1011C00080E021C007E010E08091BC019091BD015A
:1011D0002091B20120FF1CC0C817D90799F00097D1
:1011E00011F00E947C0B8091BC019091BD01909305
:1011F000BF018093BE01D093BD01C093BC01CE015D
:101200000E94660B81E0DF91CF911F910F910895AD
:10121000C817D907D1F4CE010E947C0B8091BE0182
:101220009091BF018017910719F4C8010E94660BC5
:101230008091BE019091BF019093BD018093BC014C
:101240001092BF011092BE01DDCF8091BE0190913E
:10125000BF018C179D07B1F6F3CF86309E4701F58D
:101260000E9447299093C4018093C3019091B201D9
:101270008091C00190FB80F98093C00180FF0BC07A
:101280008091C1019091C20101969093C201809317
:10129000C10181E0089581EE90E00E947C0BF9CFBE
:1012A00080E008958091C3019091C4010E9470294B
:1012B0004091C00140FD11C0853B910560F08091D7
:1012C000C1019091C201181619062CF40197909350
:1012D000C2018093C10140FF13C08091C101909170
:1012E000C201029749F480E19FE00E94AC0B10928A
:1012F000C2011092C101089581EE90E00E94660B38
:1013000008950E94A70708950E9489080E94520923
:101310000895EF92FF920F931F93CF93DF93D82FEF
:10132000C92F7B0180913303909134030E94A90C53
:101330008093B1018091B201F701958190FB80F912
:101340008093B2018D2F9C2F0E943C08182F811191
:1013500028C0B7018D2F9C2F0E948C04082F0E945B
:101360000405D82FC92F0E94CF0881111AC08D2FD4
:101370009C2F0E945208811114C08D2F9C2F0E9417
:101380002D0981110EC0B7018D2F9C2F0E94B0072F
:10139000811107C081E0102F18278D2F9C2F0E94EC
:1013A000D107812FCDB7DEB7E6E00C94E9339C017D
:1013B0002C3282E4380739F03D7F2C32314419F069
:1013C00084EB90E008958EE690E0089589329105CF
:1013D00039F464FD94C072FF98C085E390E00895ED
:1013E0008832910529F472FF90C08AE290E0089556
:1013F00081152EE7920709F485C08433910539F4ED
:1014000072FD85C060FF81C084E392E008958D3253
:1014100022E0920719F472FF78C008958E32910588
:1014200019F472FF72C008958F32910529F472FF8A
:101430006CC086E392E008958033910529F472FF31
:1014400064C087E392E00895863222E0920729F48F
:1014500072FF5BC08FE292E00895873222E092072C
:1014600029F472FF52C080E392E00895843222E0B2
:10147000920729F472FF49C080E49EE70895813302
:1014800022E0920729F472FF40C08FE19EE70895A1
:101490008633910529F472FF38C08EE192E00895F9
:1014A0008733910529F472FF30C088E392E00895F4
:1014B0008833910529F472FF28C081E390E00895F4
:1014C0008A34910529F461FF20C08BE490E00895EF
:1014D0008D34910529F461FF18C08EE490E00895E1
:1014E0008632910529F472FF10C085E392E00895D9
:1014F0008D9759F472FF09C087E590E008958BE25B
:1015000090E0089588E292E108958FEF9FEF0895AB
:101510009C014130510509F04EC0803E910509F40F
:1015200058C0D8F48D34910509F440C048F48A318C
:10153000910559F18A349105A1F18FEF9FEF08953C
:101540008F34910539F180359105B9F767FFF5CFF3
:1015500072FF4EC080E596E0089523308EE738078D
:10156000D9F148F4233E3105D1F122303E4729F725
:101570008DE198E0089524308EE7380799F1253001
:101580003E47D9F689E198E0089561FFD6CF8AE118
:1015900098E0089567FFD1CF72FF27C08FE496E0EF
:1015A000089567FFCACF8BE490E0089567FFC5CF29
:1015B0008EE490E0089522503E472430310508F033
:1015C000BCCF220F331FF901E251FE4F8081918180
:1015D000089583EE90E008958BE198E0089580EE01
:1015E00090E0089586E098E008958FE494E00895EF
:1015F00080E594E008959C012F318EE7380751F083
:1016000020348EE7380749F021343E4749F08AEE0E
:1016100091E0089585EE91E0089588EE91E00895B7
:101620008BEE91E008958530B8F46430A8F44C3026
:1016300098F4E42FF0E09CE0699FE00DF11D112487
:1016400090E3899FE00DF11D1124EE0FFF1FE4557B
:10165000FF4F85919491089581E090E008950E9454
:10166000130B08959C019A9581159F4118F5F90176
:10167000EE27F270832F8170B90166277470A9017B
:101680004427587034FF0CC08295807FEF2B09F0FF
:101690008062672B09F08064452B69F080680895AB
:1016A000EF2B09F08260672B09F08460452B19F05D
:1016B0008860089580E00895CF93DF93EB010E9446
:1016C000320BFE010995DF91CF910895CF93DF93FF
:1016D000EC01805E9109089720F065E370E12097A6
:1016E00011F46BEE7DE0CE010E945C0B8C2F0E940A
:1016F0004F0DDF91CF910895CF93DF93EC010E94BE
:10170000970DCE01805E9109089720F06CE370E19F
:10171000209711F462EF7DE0CE010E945C0BDF9117
:10172000CF9108950F931F93CF93DF938C01EB011B
:101730000E94660B209741F4C8010E947C0BDF9148
:10174000CF911F910F9108958FE99FE00197F1F7D5
:1017500000C000002197EECF60E070E08933910572
:1017600011F460E570E00E94920B089581E0089505
:101770000E94B60B089581E008950E94890908959A
:1017800008950E94C00B0895A6E0B0E0EAECFBE0EB
:101790000C94D03349835A839E8330911A038981F4
:1017A0009A8131111AC03E81332399F0222389F0A6
:1017B0000E94A811182F682F89819A810E94841194
:1017C00069817A81812F0E94B4182696E3E00C94F7
:1017D000EC330E949611182FF3CF0E94A811698153
:1017E0007A81F1CFFC01262F408151816281738182
:1017F000848195810E94C40B0895CF93DF93D82FE5
:10180000C92F61E00E94F20B6D2F7C2F0E94B80B54
:10181000DF91CF910895CF93DF93D82FC92F60E048
:101820000E94F20B6D2F7C2F0E94C10BDF91CF9194
:10183000089581E008950E94190C0895CF93C82F50
:101840000E9459108C2F0E941B0C2FEF84E39CE008
:10185000215080409040E1F700C00000CF910895F2
:1018600081E00E941E0C0E94C329089580E00E941E
:101870001E0C0E94E72908950F931F93CF93DF93C7
:101880008C0161E00E94F20BEC01B8010E94BD0BDB
:101890008823E1F1B801CE010E94B9268823B1F175
:1018A000B801CE010E94FD21882381F1B801CE014B
:1018B0000E94D221882351F1B801CE010E944D210E
:1018C000882321F1F8018581882381F0CA35FCE75E
:1018D000DF0739F178F4C130ECE7DE07F9F0C33007
:1018E000FCE7DF07C9F0C115DC4771F0C8010E94B1
:1018F000BB0B0DC0CB35ECE7DE07B1F0CC35DC47D8
:10190000A9F70E94EF15F2CF0E94300C80E0DF9122
:10191000CF911F910F9108950E9401160E94360CDD
:10192000F5CF0E94F915E2CF0E94FD15DFCF0E948E
:10193000C3280E94C41E0E94EA0C81E00E94CC1FB2
:1019400008950E94EE0C80E00E94CC1F0E94C828DF
:1019500008959C01892F99270097E9F09C0188E060
:10196000A90174E0569547957A95E1F7411551051F
:1019700011F08C5F9A01A9015695479556954795A8
:101980004115510511F08E5F9A0136952795232B4D
:1019900009F08F5F089580E0E3CF089581E0089516
:1019A0000895CF93DF93D82F0E94CE0CC82F8823A1
:1019B00019F08D2F0E94D00C8C2FDF91CF910895BC
:1019C0000895CF93C82F0E94CD0C8C2F0E94D10C6C
:1019D000CF91089580E00E94E10C08950E94FF26B7
:1019E0000E94E10C0895CF930E94FF26C82F80919A
:1019F00015038C1779F0C09315030E945329609347
:101A000016037093170380931803909319038C2F78
:101A10000E94E10CCF910895ADE0B0E0E2E1FDE07D
:101A20000C94D133488759876A877B878C879D8739
:101A300091110E94FA141F8286E0FE013896DE01A1
:101A4000119601900D928A95E1F78D8181110DC05B
:101A500029813A814B815C816D817E818F810E94D9
:101A600040142D96E2E00C94ED33CE0101960E94D5
:101A7000FD0B8111EDCFF5CFFC018481813021F484
:101A8000808191810E94DA110895662329F00E94D5
:101A90006B230E94412408950E94C923FACFCF935B
:101AA000C82F882399F08CEF8C0F813A88F48C2F03
:101AB0000E94A227882329F08C2F0E9447280E9489
:101AC00092158C2F0E9430280E949215CF91089574
:101AD00080E28C0F883048F4C77081E001C0880F25
:101AE000CA95EAF70E94DB14EFCF8BE58C0F8330A9
:101AF00038F42C2F2452330BC9010E943527E6CF2E
:101B0000E8E5EC0FEB3150F4F0E0EE0FFF1FEA5088
:101B1000FE4F808191810E945B27D8CF83E38C0F99
:101B20008331A0F661E08C2F0E94450DCFCF882332
:101B300081F19CEF980F913A28F40E9447280E9467
:101B40009215089590E2980F983050F4877091E0C4
:101B500001C0990F8A95EAF7892F0E94E114EFCF0F
:101B60009BE5980F933028F480E090E00E943527A1
:101B7000089598E5980F9B3128F480E090E00E944A
:101B80005B27089593E3980F933118F460E00E9467
:101B9000450D08951F93CF93DF93182FEB010E94FB
:101BA0004F0D209739F4812F0E94970DDF91CF912F
:101BB0001F9108958FE99FE00197F1F700C00000A1
:101BC0002197EFCF60E070E0893311F460E570E0B9
:101BD0000E94CA0D0895882321F00E94DB140E9400
:101BE00092150895882321F00E94E1140E94921515
:101BF0000895A0E0B0E0EFEFFDE00C94CB336C0172
:101C0000D62FC72FFC011581068102950F700E9407
:101C1000D014E82E8823F9F0E12E1123E1F08C2F67
:101C2000807F803461F080E28D0F8830F0F08C2F5F
:101C3000807E803221F4D230C0F00023B1F0809158
:101C4000370482FF12C082E00E94C2150E94D014A5
:101C500091E0E82EE926EC2FE295EF70C03CB0F55C
:101C6000F0E0EF58FB4C0C94BB33E12CF4CF0C2F7D
:101C70000F70C03110F00295007F112399F00023FE
:101C800059F080E28D0F883010F0D11107C0802FFD
:101C90000E94DB140E9492158D2F51C0802F0E944C
:101CA000EC14F8CF8D2F0E94970D002379F080E27D
:101CB0008D0F883010F0D11104C0802F0E94E114E4
:101CC00003C0802F0E94F2140E949215EE2089F02A
:101CD0000E94CC1480FD0DC0F60115820E94C6142E
:101CE0000E94E110C6010E9412100E94C6140E94B8
:101CF000F110CDB7DEB7E8E00C94E733FC2FFF70AE
:101D0000FF2EC07FC03219F0F29480EFF822DD235D
:101D100041F0D130D1F1112309F444C00023F1F096
:101D2000BBCF8091370482FD15C0112359F0FF20ED
:101D300029F08F2D0E94DB140E94921580E00E94F2
:101D40004F0DC4CF80E00E94970DFF2009F4BECF55
:101D50008F2DB4CF112369F0011104C08F2D0E9483
:101D6000EB0DB4CF013009F0B1CF8F2D0E941215C9
:101D7000ADCF0111ABCF8F2D0E94F20D8F2D0E94A0
:101D80001E158F2D0E940115A1CF112321F00630C1
:101D900008F09CCFE3CF053008F098CF8F2D0E943C
:101DA000F20D94CF0023D1F3D93349F42FEF87EE0E
:101DB00093E0215080409040E1F700C000008D2F5B
:101DC0000E94970D83CF8C2F8695869583708823EC
:101DD00069F0813009F07ACF8D2F9C2F937011110B
:101DE00002C080E090E00E945B2770CF8D2F9C2F77
:101DF0009370111102C080E090E00E94352766CFF9
:101E0000612F8D2F0E94450D61CF8C2F8370811122
:101E100039C0111129C04D2F429546954770440F86
:101E2000440F2D2F2F7030E0042E02C0220F331FDD
:101E30000A94E2F780E090E0D4FF09C08FE090E0E0
:101E400002C0880F991F4A95E2F780959095C69534
:101E5000C695C370822B932BC23071F0C33079F0DA
:101E6000C13039F00E94B4100E94FF260E94E10C9C
:101E70002DCF0E94AB10F8CF0E94BD10F5CF0E946D
:101E8000A810F2CF112361F1C0FFEECF4D2F429584
:101E900046954770440F440F2D2F2F7030E0042ECD
:101EA00002C0220F331F0A94E2F780E090E0D4FFD3
:101EB00009C08FE090E002C0880F991F4A95E2F7B1
:101EC00080959095C695C695C370822B932BC23092
:101ED00069F0C33071F0C13031F00E941C11C4CFE1
:101EE000823010F2D3CF0E941311BECF0E94251171
:101EF000BBCF0E94C910B8CFCF70112339F08C2FFF
:101F00000E94E1108D2F0E94EB0DAECF8D2F0E940D
:101F1000F20D8C2F0E94F110A7CFD23F31F170F457
:101F2000D03FB9F0D13FB1F1112309F451C00023E2
:101F300009F44BC08D2F0E944F0D96CFD33FE1F097
:101F4000D43F21F11111F3CF011150C08C2F8F71AB
:101F5000E1CF112341F0053008F086CF8C2F8F712F
:101F60000E94031181CF0530F7CF8C2F8F71111193
:101F7000D1CF0E94E11078CF112329F08C2F8F71DF
:101F80000E94D51071CF0E94D0106ECF809137047F
:101F900082FD06C08C2F8F71112309F4BBCFE9CFCE
:101FA000112349F0CF718C2F0E94E11063E08C2F38
:101FB0000E94A41559CF81E00E94C215023008F496
:101FC00053CF82E00E94C2154FCF8C2F8F71D1CF9B
:101FD000002309F4BBCFD93349F4EFEFF7EE23E048
:101FE000E150F0402040E1F700C000008D2F0E943A
:101FF000970D3ACF0F931F93CF93DF93EC01688136
:1020000079818D810E94E7118C010E942E110E941E
:10201000A710B801CE010E94F90DDF91CF911F9159
:102020000F910895CF93DF93EC018C81882399F071
:10203000CE010E943C0C811111C00E94D014882353
:1020400051F08D81882339F08091370482FF03C0DD
:1020500082E00E94C215DF91CF910895CE010E94C7
:10206000FA0FCE010E940B0CF6CF882321F00E94BC
:10207000EC140E9492150895882321F00E94F21416
:102080000E949215089580E090E00E94352780E03C
:1020900090E00E945B270E94FA140E9492150E9411
:1020A0005E240E94412408950E945E280E944310ED
:1020B00008950E94E9140E9454100895282F9295C3
:1020C0009F70963091F060F4925F9F70923030F480
:1020D00081E0203F79F030F4283E30F080E0089530
:1020E0009A5FF3CF243FD1F7089581E0283EE0F3D3
:1020F000213FF9CF0895FC018481882339F0808144
:1021000091810E94DA110E945E10089580E0089586
:10211000A6E0B0E0EEE8F0E10C94D1332696E2E0E0
:102120000C94ED33A7E0B0E0E8E9F0E10C94D13392
:102130002796E2E00C94ED3308950E949C100895D8
:102140000E949D109093360380933503089508955F
:102150000E94A01008952091350330913603822B00
:10216000932B0E94A01008952091350330913603DF
:10217000822393230E94A01008952091350330916B
:102180003603822793270E94A01008950E9490078B
:1021900008950E94C61090933403809333030895EA
:1021A00080E090E00E94C910089521E030E0A9018C
:1021B00002C0440F551F8A95E2F7CA010E94C91058
:1021C000089521E030E002C0220F331F8A95E2F724
:1021D0008091330390913403822B932B0E94C9107A
:1021E000089521E030E002C0220F331F8A95E2F704
:1021F000209530958091330390913403822393236B
:102200000E94C910089521E030E002C0220F331F60
:102210008A95E2F7809133039091340382279327C4
:102220000E94C91008952091330330913403822B0A
:10223000932B0E94C91008952091330330913403E9
:10224000822393230E94C910089520913303309173
:102250003403822793270E94C910089508959B0193
:10226000677091E001C0990F6A95EAF763E03695CF
:1022700027956A95E1F7220F331F220F331FFA01CA
:10228000E20FF31F40E050E0682F70E08191DF0122
:1022900011979B01042E02C0369527950A94E2F708
:1022A000217021952827292328272C934F5F5F4FE2
:1022B0004430510559F708959C01982F977083E099
:1022C000369527958A95E1F7220F331F220F331F8A
:1022D000FB01E20FF31F40E050E080E0219130E08D
:1022E000092E02C0369527950A94E2F7217033270C
:1022F000042E01C0220F0A94EAF7822B4F5F5F4F32
:102300004430510559F70895282F862F943068F4EA
:102310002C3058F4622F70E02CE0929F600D711DFC
:1023200011244BE153E00E942F110895292F94307E
:1023300068F48C3058F490E06BE173E03CE0239F4C
:10234000800D911D11240E945C11089580E0089574
:10235000A0E0B0E0EEEAF1E10C94CA338C01E09029
:102360003303F09034038091350390913603E82ACB
:10237000F92ACFE0D0E0CC24C394D12CC6010C2E96
:1023800002C0880F991F0A94E2F78E219F21892BA2
:1023900049F4219798F7B12C8B2DCDB7DEB7E9E042
:1023A0000C94E633BC2EB8018C2F0E94C018019704
:1023B00081F3F2CFCF93DF93D82FC92F0E94A811BA
:1023C0006D2F7C2F0E94C018DF91CF9108951F932D
:1023D000CF93DF93162FD72F90911A03992341F0B3
:1023E000862F972F0E94DA11DF91CF911F910895C8
:1023F000882381F0862F972F0E94A811C82F682F5D
:10240000812F9D2F0E948411612F7D2F8C2F0E9480
:10241000C018EACF862F972F0E949611C82FF4CFAD
:102420000F931F93CF93E0913703C7E08091380358
:102430008E1304C0CF911F910F9108950E2F10E0BD
:10244000CE9FF0011124E75CFC4F20813181428155
:1024500053816481758186810E949210F8013196C2
:10246000E770E4CF209171033091720340917303C0
:102470005091740360917503709176038091770396
:102480000E9492100895E09137039091380327E05D
:10249000E91302C080E00895AE2FB0E02E9FF00156
:1024A0001124E75CFC4F3181361306C030813813AC
:1024B00003C03581341304C0FD013196E770E8CFC5
:1024C00081E00895A0E0B0E0E8E6F2E10C94CC33BE
:1024D00080917703803108F04BC080917603882388
:1024E00009F446C0C091370387E0D82E80913803A5
:1024F0008C17F1F1EC2EF12CDC9EE0011124FE0191
:10250000E75CFC4F84818823C1F191818091720343
:10251000981333C090818091710398132EC08581E8
:1025200081112BC0028113818091730390917403F8
:10253000081B190B60E081E793E00E94F20B61E752
:1025400073E00E94D70908171907B8F48091770340
:102550008F70806180937703C15CDC4F88818F70BE
:102560008061888381E793E00E9412100E9410121C
:10257000CDB7DEB7E7E00C94E833E7012196C770EA
:10258000B5CFADE0B0E0E7ECF2E10C94C4338C01E0
:1025900086E0F801DE01189601900D928A95E1F728
:1025A000F80160805180F580C280D380748081E71B
:1025B000A82E83E0B82E8091750381111BC077206F
:1025C00009F405C1FF2009F44EC1C8010E947B1027
:1025D000882309F448C187E0F801D50101900D92E4
:1025E0008A95E1F7C5010E943C0D0E9462120E948B
:1025F0003212EDC0E09076038091730390917403E2
:102600004601881A990A60E081E793E0EE2009F418
:10261000E1C00E94F20B61E773E00E94D7098816BF
:10262000990608F0A4C0772009F4D1C080917703FF
:1026300020917203F8019181803108F05BC0291369
:102640001BC0209171039081291316C0F1104CC05A
:102650008F708061809377030E94321281E793E04C
:102660000E94121080917703F8018683F12C8F2D40
:102670002D96EFE00C94E033F11036C040E0652D6C
:10268000862D0E94431240E0652D862D0E94431244
:10269000F82E8111EBCF888599850E94DA11292FB8
:1026A00022952F70903450F49F70223080F099233F
:1026B00091F0F8019681903170F4D9CF2A5F2F7094
:1026C000223068F0C8010E941210FE2CD0CF99234E
:1026D00011F0882361F2805E883048F2F3CF803FAA
:1026E00030F2815F8230F9CF8091770381608093EF
:1026F0007703BCCF291314C0209171039081291353
:102700000FC0F1100DC08683C8010E94121087E02F
:10271000F801A1E7B3E001900D928A95E1F767CF48
:10272000C8010E947B10882309F49DC0FF2009F492
:102730009AC080917703803288F0209171033091A4
:1027400072033A832983DC82CB82909175039D8347
:102750001E828F83CE0101960E94121087E0F8013D
:10276000A1E7B3E001900D928A95E1F73ECF809109
:1027700077038031A0F4488559856A857B858C85EF
:102780009D850E94881081E793E00E94121087E0E7
:10279000F50111928A95E9F70E94321267CF7720EE
:1027A000B1F020917203F80191812913B9CF2091E2
:1027B000710390812913B4CFF110B2CF8683C80181
:1027C0000E94121087E0F50111928A95E9F7FF2423
:1027D000F3944DCF0E94F20B61E773E00E94D7099A
:1027E0008816990608F043C0772089F3FF20D9F1B5
:1027F00090917203F801818198132BC0909171031D
:102800008081981326C08091730390917403C81A35
:10281000D90AFEE6CF16D10498F48091770380FDA3
:102820000FC0803168F0F8018683982F907F903F29
:1028300009F46ACF982F907F905F8F70892B63CFB8
:1028400087E0F801A1E7B3E001900D928A95E1F7E6
:10285000BECFC8010E947B10811180CF8091770389
:10286000816080937703C8010E941210B0CF488521
:1028700059856A857B858C859D850E94881087CFC8
:10288000AEE0B0E0E6E4F4E10C94D0332887398779
:102890004A875B876C877D878E87CE0108960E946A
:1028A000C1128823B1F06C85662341F028853985F3
:1028B0004A855B857D858E850E94921017E0809108
:1028C00037039091380389133EC02E96E3E00C94B1
:1028D000EC3387E0FE013896DE01119601900D92EF
:1028E0008A95E1F720913803409137038C8588233E
:1028F00029F330E0C90101968770992750E08417C9
:10290000950799F097E0929FD001939FB00D112405
:10291000A75CBC4FFE01319601900D929A95E1F7AC
:10292000809338030E941012C9CF0E945910109250
:1029300038031092370387E0E1E7F3E0DF011D92EF
:102940008A95E9F7BBCF189FC0011124875C9C4F83
:102950000E94C112882309F4B8CFE09137031E9F6B
:10296000F0011124E75CFC4F2081318142815381C9
:102970006481758186810E9492108091370390E076
:102980000196877099278093370399CF8091A00390
:1029900086958695869508958091A0038770089501
:1029A0009091A003977081E0911101C080E008959B
:1029B0008091CC0308959091CC03982B9093CC03F5
:1029C0000895982F90958091CC0389238093CC0310
:1029D00008951092CC0308959091CB03982B909377
:1029E000CB030895982F90958091CB0389238093F2
:1029F000CB0308951092CB03089508950E94FD140F
:102A000008959091A103292F2823222331F0809546
:102A100089238093A1030E94FE14089508950E94C3
:102A20000E1508959091A203292F2823281729F025
:102A3000982B9093A2030E940F1508959091A203E2
:102A4000292F2823222331F0809589238093A20304
:102A50000E940F1508958091A203882329F01092F7
:102A6000A20380E00E940F150895CF93DF93C091D9
:102A7000CC038091CB03C82BD091A203DD2331F08E
:102A80000E94812781110E942B15CD2B8C2FDF9165
:102A9000CF910895CF93DF93C091C701D091C80122
:102AA0000E9435158883C091C701D091C80148E0C4
:102AB00050E068E973E0CE010E94F833892B59F0A9
:102AC00088E0FE01A8E9B3E001900D928A95E1F754
:102AD000CE010E940C27DF91CF910895CF93DF9311
:102AE000C091C501D091C6010E9435158983C0915E
:102AF000C501D091C60140E250E068E773E0CE0125
:102B00000E94F833892B59F080E2FE01A8E7B3E078
:102B100001900D928A95E1F7CE010E941727DF916F
:102B2000CF9108958091E101882339F08091360496
:102B300087FF03C00E946E1508950E944A150895EC
:102B400008950E94A01508959091370492FF11C036
:102B500098E0899F90011124622B6093A0030E944A
:102B6000E1108091A0038695869586950E94A11517
:102B700008950E94E11008951092A00380E00E9441
:102B8000A11508959091A003809589238093A003B7
:102B9000282F277021110DC0891759F09091370403
:102BA00092FF07C08695869586950E94F1100E9437
:102BB000BC1508959091370492FB222720F928171D
:102BC00069F080FB92F990933704809136049091DC
:102BD00037040E94221682E00E94C2150895809157
:102BE000370482FB882780F991E089270E94DA1553
:102BF000089581E00E94DA15089580E00E94DA15B8
:102C000008956FEF7FEF80E090E00E9461340895B7
:102C100080E090E00E942D349C0181E0263E3E4FF2
:102C200009F080E0089582E090E00E942534089544
:102C300083E090E00E942534089584E090E00E94B3
:102C40002D340895BC0184E090E00E946134089521
:102C5000AB01BC018FE090E00E9455340895AB01B8
:102C6000BC0183E190E00E945534089560E070E07B
:102C7000CB010E942F16089560E070E0CB010E9406
:102C800028160E9436160895A8E0B0E0EAE4F6E1BE
:102C90000C94D13366EE7EEF80E090E00E946134C8
:102CA00060E082E090E00E94433481E090E0909305
:102CB00036038093350361E083E090E00E94433463
:102CC00060E074E184E090E00E94613460E086E0BE
:102CD00090E00E9443346FEF87E090E00E9443341D
:102CE00040E050E0BA0188E090E00E94553460E096
:102CF00084E290E00E94433460E087E190E00E942B
:102D0000433460E08CE090E00E94433460E08DE06A
:102D100090E00E94433419821A821B821C821D8219
:102D20001E821F82188648E050E068E170E0CE0104
:102D300001960E94333440E050E0BA0180E290E016
:102D40000E9455340E943C162896E2E00C94ED3324
:102D50000E9444160895682F8EE090E00E9443344C
:102D60000895A6E0B0E0E7EBF6E10C94CF330E94C3
:102D700047298C018091CD039091CE038017910754
:102D800079F019821A820E944729BC0149815A812F
:102D900080E090E00E940C0D1093CE030093CD03D1
:102DA0002696E4E00C94EB330E9453296093DB03F6
:102DB0007093DC038093DD039093DE036093D7036D
:102DC0007093D8038093D9039093DA0308950895FC
:102DD00008950E94E71608950E948109089588EBDE
:102DE00099E10E945B1B0E94E8160E94E916089573
:102DF00081E008950E94F81608950E94F81608953B
:102E0000089508950E9400170E94011708950E94D6
:102E1000D7190E94E00C0E94971F08950E943E2936
:102E20000E94AB1A0E940717E6E3F4E080818068F5
:102E3000808380913604909137040E9422160E946C
:102E4000EC160895A6E0B0E0E8E2F7E10C94C53393
:102E50000E94FA1681110CC00E94B1160E94C41E75
:102E60000E947F240E94F30C2696EEE00C94E1333E
:102E70000E94C11A2FEC822E23E0922E640110E0F2
:102E8000F601E190F1906F01812F0E94FC191F5F04
:102E9000143009F44BC0E816F90691F38091DF0372
:102EA00081FD0E94051A0E94FD16782E10E0812FE8
:102EB0000E94FC197C01F401A190B1904F018A1588
:102EC0009B0571F1A826B92600E0CC24C394D12C2F
:102ED000C5018C219D21892BD1F066246394C70103
:102EE0008C219D21892B09F4612C772059F00983CD
:102EF0001A830E944729BC0149815A8181E0962D9D
:102F00000E940C0D462D602F812F0E94031D0F5F24
:102F1000CC0CDD1C0C30E1F6F4013297F182E0823A
:102F20001F5F143021F60E94D41698CFE816F906D8
:102F300009F0B4CF91CF1F93CF93DF930E94C518B0
:102F4000EC01811522E5920708F053C0811540E598
:102F5000940708F0DDC0803E9105F8F48D3C9105A2
:102F600008F0AEC0883A910580F4853A910508F0E2
:102F700099C08130910521F00497813A910550F470
:102F8000CE01DF91CF911F910895885A91094B97F7
:102F900008F48BC0C0E0D0E0F3CF811550E4950772
:102FA000F8F4C11580E2D80708F0CBC0C83ED105BF
:102FB00038F3CE019A9581159F4160F78D2F0E94BD
:102FC0006919182FCE0199270E94C518212F30E0CA
:102FD000322F2227E901CC27DF71C82BD92BD0CF84
:102FE00099270E94C518CC27DF70C82BD92BD06A2F
:102FF000C7CF803842E59407C8F5803652E595077B
:1030000008F067C0C03482E5D807B0F08C2F8695F1
:103010008695877020E2829FC0011124C37021E051
:1030200030E0A90102C0440F551FCA95E2F7EA013A
:10303000C82BD92BDC68A4CFC03252E5D50708F0E5
:1030400041C08C2F8695869520E2829FC001112475
:10305000C37021E030E0A90102C0440F551FCA959A
:10306000E2F7EA01C82BD92BDD688ACF803C52E514
:10307000950760F48F71C03AD24508F03FC090E0E8
:10308000982F8827EC01C46FD06A7ACF805C924574
:10309000809708F07FCFDC2FCC27CC27DF71C06F63
:1030A000D06A6ECFA497D0646BCFC85AD0E0CC0F53
:1030B000DD1FC45DDD4F0990D881C02DD46460CF81
:1030C000D0655ECFCF71D0E0DC2FCC27C16FD06A46
:1030D00057CF86958695877020E2829FC001112484
:1030E000C37021E030E0A90102C0440F551FCA950A
:1030F000E2F7EA01C82BD92BDA6842CF0E9469199E
:10310000C82FD0E0DC2FCC27CC27DF71D06238CF9E
:103110008F710E94691965E0D695C7956A95E1F7A8
:10312000CF70D0E0DC2FCC27282F30E084FF05C003
:1031300054E0220F331F5A95E1F7C22BD32BD069ED
:103140001FCF8D2F8F710E946919182FCE019927DB
:103150000E94C518212F30E0322F222722273F71ED
:10316000282B392BE901D2CF462F672F743028F452
:103170004C3018F40E942F0B089580E090E00895E1
:103180000E94B4180E949B170895803E9105D1F1CA
:10319000C8F48133910509F47FC048F48932910560
:1031A00009F46FC08A32910509F47DC0089589330E
:1031B0009105E1F082389105C9F08533910509F454
:1031C0005BC00895843E9105D1F148F4823E91059B
:1031D00031F1833E910541F181EE90E00895863E04
:1031E0009105C1F1873E9105E1F1089520913604E2
:1031F0002370211165C02091370423FF14C089E298
:1032000090E008952091360420FD43C030913704AA
:1032100030FF09C024FF4EC080E090E00895209167
:10322000360422FDF7CF08952091360422FD45C0D3
:103230003091370430FD44C024FFF5CFEDCF20910D
:10324000370421FFF0CF8091360484FDE5CF87EE6F
:1032500090E008952091360423FFE5CF24FDDCCFD4
:10326000F6CF2091360423FD2EC03091370431FF74
:10327000E3CF84EE90E008952091360425FFD3CF6C
:10328000BECF2091360425FD21C02091370423FFB5
:10329000CACF89E390E008952091360426FFC3CF7A
:1032A0008AE290E008952091360426FFBCCF81E3A6
:1032B00090E0089583EE90E0089582EE90E0089506
:1032C00080EE90E0089586EE90E0089585E390E02A
:1032D000AACF9091360492FF10C041E0282F2471AC
:1032E000243009F040E031E0282F2871283009F01F
:1032F00030E0431711F02CE0822793FF10C041E02B
:10330000282F2471243109F040E031E0282F287162
:10331000283109F030E0431711F02CE0822730917A
:10332000370430FF10C051E0282F2171213009F0FF
:1033300050E041E0282F2871283009F040E0541770
:1033400011F029E0822731FF10C041E0282F2171C0
:10335000213109F040E031E0282F2871283109F0AF
:1033600030E0431711F029E0822794FD877E08950D
:1033700080E008950E94011608950E94C11A2FEF5F
:1033800086E791E0215080409040E1F700C00000C6
:103390000E94C11A80E00E94FC1980FF04C00E94B4
:1033A000BA190E94C32908950E94BD1908950E9468
:1033B0000816811102C00E94A8160E94131680935D
:1033C000DF030E941D1690933704809336040E94F9
:1033D000D4190E94181690E00E94A810809133031F
:1033E000909134030E94C610089508950E94F51923
:1033F00008950E9484090895E82FF0E0EE0FFF1F62
:10340000E05CFB4F808191810895089580EA8A9560
:10341000F1F7089500C008950E94061A0895F894DF
:10342000E82FE295EF70F0E041A18F7021E030E0ED
:10343000B90102C0660F771F8A95E2F7CB01962F7C
:103440009095942391A392A1892B82A378940895B7
:10345000CF93DF9385E90E940F1A86E60E940F1A28
:1034600086E30E940F1A86EC0E940F1AC2E6D2E091
:1034700089918F3F11F00E940F1A82E0CE36D80753
:10348000B9F7DF91CF910895A0E0B0E0EAE4FAE166
:103490000C94CA33EC01B62E062F10E0C8018259F5
:1034A0009D4F7C01FC0180818F3F09F44FC0F8944F
:1034B000E82FE295EF70F0E091A18F7021E030E00D
:1034C00001C0220F8A95EAF7892F822B81A382A15E
:1034D0002095282322A378940E940A1AE2E6F2E0BB
:1034E00041E050E0C12CD12C21912F3F89F0A22F37
:1034F000A295AF70A05EB0E08C9190E02F7002C0FA
:10350000959587952A95E2F781709A01882311F0A5
:1035100020E030E0C22AD32A440F551F82E0EE3665
:10352000F80711F7F70180818F3F11F00E940F1A01
:1035300061E0C114D10409F460E08B2D0E940C1AE3
:10354000000F111FC00FD11FD982C882CDB7DEB7BF
:10355000E9E00C94E6330E94281A88E0E0E4F4E005
:10356000DF01982F1D929A95E9F7E8E3F4E0DF0177
:103570001D928A95E9F784E00E94FE1A0E94F619CE
:103580000895A8E0B0E0E7ECFAE10C94CE33FE0138
:10359000319688E0DF011D928A95E9F710E0FE2E52
:1035A0000F2F612F8F2D902F0E94441A1F5F143010
:1035B000C1F748E050E06F2D702F88E394E00E943F
:1035C000F83321E0892B81F420E044E060E474E0EA
:1035D00088E394E00E94FF1A182F0E94F919812FA6
:1035E0002896E5E00C94EA3388E0EF2DF02FA8E36D
:1035F000B4E001900D928A95E1F7E7CF0895A0E03D
:10360000B0E0E5E0FBE10C94CB33D82EE92EF62EAA
:10361000D72F042FC22F222379F081E08093E20379
:103620000E9447299093E1038093E00380E0CDB7A7
:10363000DEB7E8E00C94E733C090E203CC20B1F3AE
:103640008091E0039091E1030E947029059770F347
:1036500010E0000F111FA8016D2D7E2D8F2D9D2FC5
:103660000E94F833892B41F0A8016D2D7E2D8F2DFE
:103670009D2F0E940534CC2D1092E2038C2FD7CFC2
:103680000E94552B0E940E170E94622B08950E94E3
:10369000672B0E9422170E94812B08950E94E02828
:1036A0000E943B2B0E94EF160E94401B0E94471B6A
:1036B0000E940217FBCF90937B0280937A020895B9
:1036C000A0E0B0E0E6E6FBE10C94C933E82F71110D
:1036D0000DC0442321F0F0E0E457FD4F8491682FA2
:1036E000782FCDB7DEB7EAE00C94E533262F30E033
:1036F000C72FD0E0F0E0442321F0E457FD4FE491E0
:10370000F0E086E0829F7001839FF00C11240FEFA0
:1037100010E0C701B8010E945233AB01220F331FE2
:1037200065E5649FC001659F900D1124281B390B2E
:10373000C22ECC0CC20EC8018C1B9D0B8E9F90011B
:103740008F9F300D9E9F300D1124832FCC9EB00192
:10375000CD9E700D1124672F77275801A61AB70A3E
:10376000AE9ED001AF9EB00DBE9EB00D11247B2F3A
:103770005801AC18B1086501CC9E5001CD9EB00C2B
:10378000DC9EB00C1124AB2CBB240A191B090E9F24
:10379000E0010F9FD00D1E9FD00D11246E2F4330DE
:1037A0005105C9F09CEFE91693E0F90650F4413059
:1037B000510509F496CF4230510589F07E2F6D2FC7
:1037C00090CF4430510571F046305105B9F3632F65
:1037D0008B2F7E2F86CF6B2F732F8E2F82CF732F41
:1037E0008D2F7FCF7D2F632FF8CF41E00E94601B8C
:1037F00008959C0180E090E0269F812D369F800DEA
:10380000911D11240895A6E0B0E0E9E0FCE10C94DC
:10381000CC337B01D82ECA01A0E0B0E089839A8323
:10382000AB83BC83BC01CD010E948E3120E030E02F
:103830004FE753E469837A838B839C8369817A8120
:103840008B819C810E94ED308B018E839D839B0137
:10385000AC0169831A838B839C8369817A818B8114
:103860009C810E94E53298014E815D8169837A8353
:103870008B839C8369817A818B819C810E94E53254
:1038800098014E815D8169837A838B839C836981F2
:103890007A818B819C810E94E5328B018E839D838E
:1038A0002DEC3CEC4CE45DE369831A838B839C83B1
:1038B00069817A818B819C810E94E83087FD13C0E9
:1038C00023E333E343E75FE369817A818B819C8162
:1038D0000E94E03218165CF400E010E0B0E8BE830D
:1038E0003FE33D8304C000E010E01E821D8220E023
:1038F00030E04FE753E409831A838E818B839D81E7
:103900009C8369817A818B819C810E94E5329B0135
:10391000AC0160E070E08FE793E40E947B30698344
:103920007A838B839C8369817A818B819C810E94BD
:103930005F31262F3D2D239F212D1124B701822F8A
:103940002696E7E00C94E8330E94031C80950895C6
:103950009091E303982B9093E303089548E050E09F
:1039600068E170E088E494E00E9433341092E3034D
:1039700008950E94F51B0895E8E4F4E085E0808353
:103980008091E2019091E301A091E401818392830F
:10399000A3838FE784838FEF85830E94AE1C0895F5
:1039A00080E008950F931F93CF93DF93C82FD62FF6
:1039B0008A010E94D01C9CE0C99F900111242E5FB7
:1039C0003E4FF901ED0FF11D90819F3F29F0F80165
:1039D000E80FF11D90838F5FDF91CF911F910F91C1
:1039E0000895E0917802F091790209950895E091A7
:1039F0007402F091750209950895E0917602F091B4
:103A0000770209950895CF92DF92FF920F931F934B
:103A1000CF93DF93CDB7DEB728970FB6F894DEBF0C
:103A20000FBECDBF182F062FF42E0E94F816882344
:103A300009F44CC0FF2009F457C0AE014F5F5F4F3F
:103A4000602F812F0E94D21CF82E0F2D10E0809144
:103A5000E403800F912F911D09976CF188E090E0AD
:103A60006C01C01AD10AB8016B517C4FA60185EEDA
:103A700093E00E940534B80163517C4FA6018DEE9E
:103A800093E00E940534A601440F551FB801660F4C
:103A9000771F63507C4F8DEF93E00E940534B8018F
:103AA0006B507C4FA60185EF93E00E94053488E0BF
:103AB0008F198093E4031091E403DE01119640E036
:103AC000242F210FF41212C02093E40328960FB67E
:103AD000F894DEBF0FBECDBFDF91CF911F910F9144
:103AE000FF90DF90CF900895F12CAFCF5D91852F9F
:103AF00090E030E0B9016C517C4FFC01EE0FFF1FEC
:103B0000EE5CFE4F0081FB010183880F991FFC01D1
:103B1000EE5FFE4F81A9FB018187518BF901EE0F0A
:103B2000FF1FEC51FC4F128E118E4F5FC9CF0E94C8
:103B30001F07089599E0899F802D1124980F9B32CB
:103B400008F09AE20895A0E0B0E0E9EAFDE10C9403
:103B5000C8338C017B01FC0180810E949A1DC82F13
:103B6000B92E20914C0431E0230F08F42FEF30E000
:103B700040E050E06FEF7FEF80E090E00E949C33E8
:103B80006901D0E0A22E9D2C2C2FCB1550F081E0A6
:103B9000F9E2FB1508F480E0CDB7DEB7EBE00C945A
:103BA000E433FE01EA57FE4F8081F80191818923B9
:103BB000882319F1409154044150042E000C550BF8
:103BC00047FF1DC08A2D992D60914C0421E0620FA2
:103BD00008F46FEF0E94F91BAC01609149047091E9
:103BE0004A0480914B04F70109950E94B91C462FA5
:103BF000672F282FCE010E94F71C2196C5CFFA010E
:103C0000EC5AFB4F818982130AC0FA01EE0FFF1FA5
:103C1000EC5AFB4F818D928D8C159D05A8F2415079
:103C20005109CECFA0E0B0E0E8E1FEE10C94CB3347
:103C30007C01FC0180810E949A1DC82F192F609180
:103C4000490470914A0480914B040E94B91C062FCC
:103C5000D72EC82ED0E0C11748F081E01A3208F004
:103C600080E0CDB7DEB7E8E00C94E733FE01EA5719
:103C7000FE4F8081F70191818923882331F02C2D1B
:103C8000402F6D2DCE010E94F71C2196E4CFCF93DB
:103C9000C82F8091CD018C1338C020914804237027
:103CA00030E04091CE0150E081E02417350709F45F
:103CB00080E081708093CC0180914D049091CB0184
:103CC000981739F08093CB0140E060E080E00E94DB
:103CD000FD1CC230E9F1D8F4C11126C08091CC019D
:103CE0008823E9F140E060E080E00E94FD1C8091C3
:103CF000CA018F5F8093CA0182E08093C9018091DD
:103D0000CC01882389F1CF91089581E0D2CF64EA74
:103D10007CE1C330F9F08091CA018F5F8093CA01C2
:103D200082E08093C901EFCF8AEC91E00E94121EDD
:103D30009091CA019F5F9093CA018111E4CF82E004
:103D40008093C9018091CC018111DDCFCC23DACFE2
:103D500063E07CE18AEC91E00E94A31DE9CF8091B1
:103D6000CA018F5F8093CA0183E0DBCF81E00895B1
:103D70000E94B61E0895FC01808181500E949A1D08
:103D8000692F0E94B81E08954F925F926F927F92A2
:103D90008F929F92AF92BF92CF92DF92EF92FF925B
:103DA000CF93DF9300D000D0CDB7DEB780910D0464
:103DB00090910E04A0910F04B091100489839A830E
:103DC000AB83BC83BC01CD010E947F296B017C01C8
:103DD0000E94532960930D0470930E0480930F0486
:103DE00090931004A091E403E4EEF3E02A2F30E076
:103DF00088248A94982CA12CB12C8C189D08AE088C
:103E0000BF08A3132FC02093E403209111042111B4
:103E10003CC020914804A22FA370A983AA2319F0C3
:103E20002695269529832091C901223009F455C091
:103E300070F5211141C01092CA0160935004709333
:103E40005104809352049093530489E2E4EEF3E02A
:103E5000A4E5B4E001900D928A95E1F781E08093AA
:103E6000C90117C0418D528D2A01612C712C841417
:103E70009504A604B70420F421503F5F3296C1CFC9
:103E80004C0D5D1D528F418FF8CF1982CCCF23305E
:103E900081F10F900F900F900F90DF91CF91FF90D5
:103EA000EF90DF90CF90BF90AF909F908F907F90DA
:103EB0006F905F904F90089589810E94471EB9814D
:103EC000BB2339F38091C901823011F40E94971D00
:103ED0008AEC91E00E94BB1EDCCF39813093CD018A
:103EE0008091480483708093CE010E94F11C83E08E
:103EF000B6CF8091E30381110E94AE1C80915004E3
:103F000090915104A0915204B0915304BC01CD0191
:103F10000E947F2969837A838B839C83603171053A
:103F20008105910508F4B5CF1092C901B2CFE09197
:103F30007202F091730209951092540440E150E02E
:103F40006FEF70E08DE694E00E940E341092E4036F
:103F500040E150E06FEF70E08DEF93E00E940E348F
:103F60000E940816811104C00E94A8160E94BC1C61
:103F700081E08093E30348E050E068E170E088E48A
:103F800094E00E9415341092E30380914804843039
:103F900010F40E94BC1C0895CF93C82F882391F081
:103FA0008091110481110EC00E94471E1092CD0114
:103FB0008091480483708093CE010E94F11C83E0BD
:103FC0008093C901C0931104CF910895E8E4F4E00F
:103FD000908121E0922790831092C9010E94A81C31
:103FE000089581E00E94E61F08958091480483703F
:103FF000811102C01092C901809148048C7F8160B8
:104000008093480408950E94F51F81E00E94A81C37
:10401000089580914804837081111092C9018091A4
:1040200048048C7F8093480408950E94092081E011
:104030000E94A81C0895982F862F20914804237071
:10404000222389F0992381F0943080F49F73990F93
:10405000990F209148042370922B9093480410925A
:10406000C9010E94A81C089591E0F1CF93E0EFCF21
:1040700061E00E941B200895682F80914804869576
:1040800086958F5F843008F081E00E941B200895A0
:1040900081E00E943C200895682F909148049695F5
:1040A00096958FEF890F913009F483E00E941B20D1
:1040B000089581E00E944C200895982F822F20912E
:1040C00048042370222341F09093490460934A04EA
:1040D00040934B040E94A81C089520E00E945D209C
:1040E0000895282FE8E4F4E09181892F90E043813E
:1040F000628108960E945D20089581E00E947120EF
:104100000895282FE8E4F4E081814381628188509A
:10411000990B0E945D20089581E00E9481200895FE
:10412000282FE8E4F4E0628130E1630F08F46FEFD8
:104130008181438190E00E945D20089581E00E948A
:1041400090200895282FE8E4F4E0628130E1631BB9
:1041500008F460E08181438190E00E945D20089531
:1041600081E00E94A2200895282FE8E4F4E0438132
:1041700030E1430F08F44FEF8181628190E00E94AB
:104180005D20089581E00E94B4200895282FE8E47E
:10419000F4E0438130E1431B08F440E08181628117
:1041A00090E00E945D20089581E00E94C62008955D
:1041B00080934C0481E00E94A81C0895E8E4F4E098
:1041C000248130E1230F08F42FEF24830E94A81CE0
:1041D000089581E00E94DE200895E8E4F4E024815F
:1041E00030E1231B08F420E024830E94A81C0895DA
:1041F00081E00E94ED200895109212040895CF935B
:10420000DF93DC01FC01EE0FFF1FEF01CA0FDB1F84
:10421000C358DB4F8981861306C08881841303C08D
:104220008A81821751F081E080931204EA0FFB1F0C
:10423000E358FB4F618340832283DF91CF91089540
:10424000FF920F931F93CF93DF93182F062FF42E17
:10425000C0E0D0E02F2D402F612FCE010E94FF2023
:104260002196CA32D105B1F7CDB7DEB7E5E00C949F
:10427000EA3380911204882341F06AE270E08DE70E
:1042800094E00E94A421109212040895FA01882358
:1042900011F009950895FB01FCCF1F93CF93DF9395
:1042A000EC01FB01158111114DC00E94D8148272DE
:1042B000FE01E052F847E531F10508F043C0E3584C
:1042C000FB4C0C94BB330E94F11F812FDF91CF91E7
:1042D0001F91089549E550E268E470E20E9446218A
:1042E000F4CF48E450E269E570E2F8CF4CE850E2E0
:1042F0006DE770E2F3CF4DE750E26CE870E2EECF8D
:1043000040EB50E26EE970E2E9CF4EE950E260EB3B
:1043100070E2E4CF44ED50E262EC70E2DFCF42ECB9
:1043200050E264ED70E2DACF48EF50E269EE70E2FD
:10433000D5CF49EE50E268EF70E2D0CF81E00E9425
:104340003820C3CF11E0C1CF9C01AB01239A65B1E6
:10435000677F75B17860EFB7F894CA01880F991F2D
:10436000840F951F820F931F8217930741F4EFBFAD
:104370008FE594E00197F1F700C000000895D9019E
:104380004D919D0158E075B9000000C047FF65B927
:10439000440F000000C000C000C065B900C05A95BD
:1043A00091F7E2CFCF93DF93EB0186319C4719F56C
:1043B0000E94D8149D819923A1F08A7A91E08111FD
:1043C00001C090E090931304882349F085E30E9494
:1043D00030280E94921580E0DF91CF91089589E204
:1043E000F6CF80911304882321F085E30E944728AB
:1043F000F0CF89E2FBCF81E0EFCFCF93DF93EC01E9
:10440000FB018581882309F4D2C09E0130572332F5
:10441000310508F0B2C00E941D16909337048093B6
:104420003604FE01E150F047E232F10520F4EE5689
:10443000FB4C0C94BB33809136048160809336042E
:1044400093C0809137048860809337048DC0809139
:1044500036048260F3CF809136048460EFCF809180
:1044600036048860EBCF809137048160EDCF809176
:1044700037048260E9CF809136048061DFCF80917C
:1044800036048062DBCF809136048064D7CF0E94EF
:104490005910809136048068D1CF809136048C60A9
:1044A000CDCF809137048360CFCF809136048E7F4B
:1044B000C5CF80913704877FC7CF809136048D7F29
:1044C000BDCF809136048B7FB9CF80913604877F32
:1044D000B5CF809137048E7FB7CF809137048D7F21
:1044E000B3CF809136048F7EA9CF809136048F7D23
:1044F000A5CF809136048F7BA1CF0E945910809167
:1045000036048F779BCF80913604837F97CF80913D
:1045100037048C7F99CF8091360482FB992790F9DC
:1045200021E0922790FB82F990FB83F987CF80915D
:104530003704982F909591708E7F892B90FB81F98D
:1045400083CF90913604892F8F7B96FF806476CF3E
:104550000E94591090913604892F97FB87F9805853
:104560006DCF81E00E94AB168091360490913704A4
:104570000E9422160E94591080E0DF91CF91089589
:1045800080E0F0CF90913604892F8F7E94FF806178
:1045900055CF90913604892F8E7F90FF81604ECF4A
:1045A00090913704892F877F93FF88604DCF81E0FA
:1045B000E4CF282F35EB2303C001112497FF04C05B
:1045C00080589109892F089580589F4FFBCF809183
:1045D0001A0480FF0DC06091D40170E0660F771F50
:1045E00060387105C0F561157105B9F1862F089520
:1045F00081FF07C06091D40184E0689FB00111245D
:10460000EFCF82FF04C06091D40188E0F6CF8091A3
:1046100019048823E9F09091D3016091D40170E0EE
:10462000891730F093E0660F771F9A95E1F7D8CF9E
:10463000869F9001879F300D112483E0220F331F46
:104640008A95E1F7692F70E0C9010E946633C8CFEF
:1046500068E070E0CBCF8FE7089581E00895809106
:104660001A0480FF0CC06091D00170E075956795C9
:10467000759567956115710561F1862F089581FF24
:1046800006C06091D00170E075956795F3CF609199
:10469000D00170E082FD15C0209118042223B1F0F2
:1046A0009091CF016091D00170E0291750F4269FBE
:1046B000A001279F500D1124692F70E0CA010E94AC
:1046C000663360387105B0F28FE7089561E070E0FD
:1046D000D4CF81E0089590911D0420911E04922B67
:1046E00020912004922B20911F04922B992331F0CA
:1046F00098E09093190491E0909318048D3C31F464
:104700000E94E722819580931E040895E2E3E80F5A
:10471000E231B0F5F0E0EC54FB4C0C94BB330E945A
:10472000E722F1CF0E94E722819580931D0408952E
:104730000E94E722FACF0E942F2380931F0408953E
:104740000E942F238195F9CF0E942F23819580937A
:10475000200408950E942F23FACF815D990B21E058
:1047600030E001C0220F8A95EAF780911C04822B69
:1047700080931C04089580911A04816080931A0428
:10478000089580911A048260F9CF80911A048460A0
:10479000F5CF40911D048D3C59F480911E0487FF94
:1047A0000DC010921E04442359F41092190408C03D
:1047B0008E3C81F480911E0418169CF3442381F0F2
:1047C00080911F0490912004892B811159C010926F
:1047D000180408958F3C41F447FFF0CF10921D0458
:1047E00080911E048823E0CF803D19F41416B4F3A1
:1047F000E5CF90911F04893D29F41916FCF610921B
:104800001F04DCCF8A3D19F497FFD8CFF8CF9091E1
:1048100020048B3D29F497FFD1CF10922004CECFF6
:104820008C3D19F41916CCF3C9CF9FE2980F98303C
:1048300090F4815D990B21E030E0B90102C0660F70
:10484000771F8A95E2F7CB01809590911C0489230C
:1048500080931C04B3CF8D3D31F480911A048E7F78
:1048600080931A04ABCF8E3D21F480911A048D7F82
:10487000F7CF8F3D09F0A2CF80911A048B7FF0CF44
:1048800008950E94472920911D0430911E04232B76
:10489000222321F0809316049093170420911F0483
:1048A00030912004232B222321F080931404909331
:1048B00015048BE194E00E942627089586E0EBE141
:1048C000F4E0DF011D928A95E9F710921904109225
:1048D000180410921A040895FC01828181110DC000
:1048E000838181110AC08481811107C081E0958193
:1048F000911101C080E08170089581E0FCCFA6E0B5
:10490000B0E0E5E8F4E20C94CE3386E0EBE1F4E0CD
:104910009E012F5F3F4FD90101900D928A95E1F7DB
:1049200010921D0410921E0410921F041092200475
:104930008B819C81892B8901882391F080911604B9
:10494000909117040E9470299C018091190488237A
:10495000C9F14091D50150E04217530708F43FC018
:104960008D819E81892B882399F0809114049091E8
:1049700015040E9470299C0180911804882309F471
:1049800067C04091D10150E04217530708F46EC050
:10499000B8018BE194E00E947828811105C08BE179
:1049A00094E00E946C2481110E94412486E0F80169
:1049B000ABE1B4E001900D928A95E1F72696E5E02F
:1049C0000C94EA334091D6019AE0499FA00111244A
:1049D0004217530728F68F5F8093190402C08F3F58
:1049E000D1F7FB80FF2059F00E94E72291E01F14CD
:1049F0000CF09FEF899F802D112480931D04FC8073
:104A0000FF2059F00E94E72291E01F140CF09FEF65
:104A1000899F802D112480931E0480911D0488237A
:104A200009F49ECFF0901E04FF2009F499CF0E9454
:104A3000D922811101C081E080931D048F2D0E9435
:104A4000D922882319F080931E048ACF81E0FBCFFE
:104A50004091D2019AE0499FA001112442175307C7
:104A600008F096CF8F5F8093180402C08F3FD1F774
:104A7000FD80FF2059F00E942F2391E01F140CF0BD
:104A80009FEF899F802D112480931F04FE80FF20BB
:104A900059F00E942F2391E01F140CF09FEF899F83
:104AA000802D11248093200480911F04882309F411
:104AB0006FCFF0902004FF2009F46ACF0E94D92222
:104AC000811101C081E080931F048F2D0E94D922A3
:104AD000882319F0809320045BCF81E0FBCFFF9205
:104AE0000F931F93CF93DF93E82FF0E0E457FC4F31
:104AF000F490282F26952695269530E0F901E45D5F
:104B0000FB4F94918770F901E45EFB4F049110E034
:104B1000082E02C0159507950A94E2F70170112737
:104B2000F901E45FFB4FC491D0E0082E02C0D59597
:104B3000C7950A94E2F7C170DD27E92FF0E002C0C3
:104B4000F595E7958A95E2F7E0FD10C0011511058E
:104B5000C1F48F2D0E94E20DCD2B19F08CE20E9442
:104B6000E20DCDB7DEB7E5E00C94EA3381EE0E94AA
:104B70004F0D0115110579F48F2D0E94E20D81EE84
:104B800007C086EE0E944F0D8F2D0E94E20D86EE2B
:104B90000E94970DE1CF86EE0E944F0D8F2D0E944F
:104BA000E20D86EE0E94970DEACFEF92FF921F93DF
:104BB000CF93DF93EC01162F8881882309F456C028
:104BC000813009F050C089818130A1F47E0122E05A
:104BD000E20EF11C8A810E94E20DE7012196812FED
:104BE000882351F3EFE9FFE03197F1F700C00000AF
:104BF0008150F6CF823041F47E0182E0E80EF11C54
:104C00008A810E944F0DE9CF833041F47E01E2E0BA
:104C1000EE0EF11C8A810E94970DDFCF843011F0D7
:104C20002196DCCF2A81229680E090E06AE0AE01F6
:104C30004F5F5F4F2053330B2A30310548F0019707
:104C400068F2EFE9FFE03197F1F700C00000F7CF1D
:104C5000689FF001699FF00D1124C9018E0F9F1FFD
:104C60002981EA01E4CF0E946F25B8CFDF91CF916F
:104C70001F91FF90EF90089560E00E94D525089560
:104C8000A0E0B0E0E6E4F6E20C94C9337C015B01FD
:104C9000C42FD22FFC0185818823C9F040932304BF
:104CA0000E944729909322048093210480E28C0F74
:104CB000883040F4C77081E001C0880FCA95EAF7D8
:104CC0000E94EB0DCDB7DEB7EAE00C94E53310910E
:104CD0002304141342C080912104909122040E9465
:104CE00070296C01B701C5010E94D709C816D90601
:104CF000A0F5C0E2CD0F1D1749F180E2810F883089
:104D000048F4177081E0012E01C0880F0A94EAF779
:104D10000E94F20DC83020F0802F0E94E20DD2CF09
:104D200091E08D2F877001C0990F8A95EAF7892F3E
:104D30000E94EB0D802F0E94E20DD77081E001C030
:104D4000880FDA95EAF70E94F20DBCCF802F0E94FF
:104D5000E20DC83008F0B6CFF0CF80E28C0F88307B
:104D600008F0B0CFC77081E001C0880FCA95EAF79C
:104D7000EACF0F93FC01CB01E851FC47E730F10586
:104D800090F5EA53FB4C0C94BB3306E221EE41EE66
:104D90006AE17CE70E94402680E00F91089507E2D7
:104DA00025EE45EE6BE17CE7F5CF06E221EE40EE25
:104DB00068E17CE7EFCF07E225EE44EE69E17CE7AE
:104DC000E9CF06E221EE42EE6CE17CE7E3CF07E2B9
:104DD00025EE46EE6DE17CE7DDCF08E221E045EE11
:104DE0006EE17CE7D7CFFB0185818111109223040E
:104DF00081E0D3CF90932904809328040895E09113
:104E00002804F0912904309729F00190F081E02DD9
:104E10000995089580E00895E0912804F09129040F
:104E2000309721F00280F381E02D09950895DC018F
:104E3000E0912804F0912904309739F086E08C93B2
:104E40000480F581E02DCD0109950895DC01E09104
:104E50002804F0912904309739F082E08C93068081
:104E6000F781E02DCD0109950895A3E0B0E0EBE3D3
:104E7000F7E20C94D1339C01809126049091270491
:104E800082179307A1F03093270420932604E09122
:104E90002804F0912904309751F083E089833B8303
:104EA0002A830084F185E02DCE0101960995239691
:104EB000E2E00C94ED33A3E0B0E0E1E6F7E20C941D
:104EC000D1339C018091240490912504821793078B
:104ED000A1F03093250420932404E0912804F0915C
:104EE0002904309751F084E089833B832A8300842E
:104EF000F185E02DCE01019609952396E2E00C9410
:104F0000ED332091C7013091C8012E5F3F4F809152
:104F1000E1018823A9F08091360487FF11C0209118
:104F2000C5013091C6012E5F3F4F9DE180E0F90140
:104F300040812F5F3F4F41118F5F9150C0F708951F
:104F400095E0F4CF882321F19091E101992311F1AB
:104F50009091360497FF1EC0982F9695969596953A
:104F6000803FB0F4E091C501F091C601E90FF11D59
:104F7000228130E0877041E050E0BA0102C0660F44
:104F8000771F8A95E2F72623372381E0232B91F4BC
:104F900080E008952091C7013091C801F90132964F
:104FA000285F3F4F9191981721F0E217F307D1F74F
:104FB000EFCF81E008959C01FC0132968FEF90E0E5
:104FC0004191461751F08F3F19F4411101C0892FCB
:104FD0009F5F9630A9F78F3F09F40895280F311D80
:104FE00087FD3A95F901628308959C01FC01329690
:104FF000285F3F4F8191861303C0DF0111971C92F8
:10500000E217F307B9F70895FC01862F8695869578
:105010008695603F60F4E80FF11D677021E030E095
:1050200001C0220F6A95EAF78281822B828308955C
:10503000FC01862F869586958695603F80F4E80F63
:10504000F11D677081E090E09C0102C0220F331FC8
:105050006A95E2F7B90160958281682362830895B9
:10506000682F8091E101882359F08091360487FFF1
:1050700007C08091C5019091C6010E94042808953F
:105080008091C7019091C8010E94DB270895682F85
:105090008091E101882359F08091360487FF07C091
:1050A0008091C5019091C6010E94182808958091B1
:1050B000C7019091C8010E94F52708958091E101F0
:1050C000882379F08091360487FF0BC0E091C501F9
:1050D000F091C60132968EE1DF011D928A95E9F7C3
:1050E0000895E091C701F091C801329686E0F4CFAF
:1050F000DC01FB0111969C9111978181981322C0CC
:1051000012968C911297882319F0928189131AC0F4
:1051100013968C911397882319F09381891312C0E9
:1051200015968C911597882319F0958189130AC0DB
:1051300014969C91992321F081E02481291303C0C6
:1051400080E001C081E08170089508950E94A52843
:1051500008958F5F80932A040E94A628089583E013
:1051600080932A040E94A62808950E94A9280895E1
:1051700081E080932A040E94A62808950E94B828FE
:105180000895089508950E94C228089508950895E5
:105190000E94C1280895CF930E94C6280E94C11A78
:1051A0000E94C728C0E08C2F0E94FC19892B31F483
:1051B000CF5FC430C1F780E0CF91089581E0FCCF8C
:1051C00085B7806885BF85B7806885BF08951F92C1
:1051D0001FB61F9211248F939F93AF93BF9380911B
:1051E0002B04811113C08091FB049091FC04A091C9
:1051F000FD04B091FE044196A11DB11D8093FB04F6
:105200009093FC04A093FD04B093FE04BF91AF9172
:105210009F918F911F901FBE1F901895809103053D
:10522000843031F10E94970C10922B0488E190E0B9
:1052300020E40FB6F894A895809360000FBE2093E9
:10524000600083B7817F846083BF83B7816083BF41
:105250007894889583B78E7F83BF0FB6F894A8950E
:1052600080916000886180936000109260000FBEA2
:1052700008950E9459100E94A10C089582E084BDF7
:1052800093E095BD9AEF97BD80936E0008952FB778
:10529000F8948091FB049091FC04A091FD04B091DE
:1052A000FE042FBF0895A4E0B0E0E9E5F9E20C9414
:1052B000D1338FB7F8942091FB043091FC044091D6
:1052C000FD045091FE0429833A834B835C838FBF96
:1052D00069817A818B819C812496E2E00C94ED3384
:1052E0009C014FB7F8948091FB049091FC04A0912D
:1052F000FD04B091FE044FBF821B930B0895A4E000
:10530000B0E0E5E8F9E20C94CF33462F572FBC010B
:105310002FB7F8948091FB049091FC04A091FD04B8
:10532000B091FE042FBF8C019D01041B150B260BB1
:10533000370BC901B8012496E4E00C94EB33789460
:105340001F921FB61F9211248F939F93AF93BF9309
:105350008091FB049091FC04A091FD04B091FE04A7
:105360000196A11DB11D8093FB049093FC04A093B2
:10537000FD04B093FE04BF91AF919F918F911F9058
:105380001FBE1F90189581E08093E00080E280931B
:10539000D8001092C9008FE19EE40197F1F700C098
:1053A000000087E090EBDC0180930C0590930D05E5
:1053B000A0930E05B0930F0588E19CE00FB6F8941A
:1053C000A895809360000FBE90936000FFCF88E1A6
:1053D0009CE00FB6F894A895809360000FBE909360
:1053E0006000FFCF809134040895282FCB01BA01CB
:1053F000309103053430E1F42F702093E9002FEF52
:105400003091E80035FD07C035ED3A95F1F7000021
:1054100021502111F5CF2091E80025FF09C040E07F
:1054200050E00E94F92B8091E8008E778093E8008D
:105430000895BC0143E050E082E00E94F529089500
:10544000BC0146E050E082E00E94F5290895BC01CD
:1054500040E250E082E00E94F5290895CF93DF9367
:10546000D82FC92F48E050E0682F792F81E00E94A3
:10547000F52988E0ED2FFC2FACE2B4E001900D920D
:105480008A95E1F7DF91CF9108958091020581110E
:1054900009C00E94812D0E94DE2D8091E20084606F
:1054A0008093E20008951092020508950E94B828A2
:1054B00008956091FF0481E0611101C080E00E94C5
:1054C000AF2808959091030581E0943009F080E0C1
:1054D0006091FF040E94B528089542E061EC81E0EC
:1054E0000E94FD2C42E261EC82E00E94FD2C909132
:1054F000030581E0943009F080E06091FF040E9490
:10550000A928089580910505893089F148F48230F1
:1055100009F4A0C0833009F45AC0813041F00895E5
:105520008A3009F487C08B3009F46CC008958091EB
:105530000405813A09F04AC08091E800877F809392
:10554000E8008091080590910905892B61F060E0E1
:1055500080E090E070E00E94482C8091E8008B771A
:105560008093E800089568E08CE294E0F3CF8091A6
:105570000405813259F5809108059091090502973B
:1055800028F58091E800877F8093E8008091E8000B
:1055900082FF18C09091F3008091F200029731F4DD
:1055A0008091F100813011F0863021F48091F1007A
:1055B000809334048091E8008B778093E8000E9408
:1055C000312D04C0809103058111E0CF08958091B1
:1055D0000405813AD9F78091080590910905892B36
:1055E000A9F78091E800877F8093E8008091E80028
:1055F00080FFFCCF8091E1018093F1008091E80071
:105600008E77DBCF80910405813201F78091080508
:1056100090910905892BD1F68091E800877F8093CE
:10562000E8000E94312D809106058093E1010E94DF
:105630005910089580910405813241F68091E80067
:10564000877F8093E8000E94312D80910705809329
:105650003504089580910405813A09F0B7CF80910F
:10566000E800877F8093E8008091E80080FFFCCF0E
:1056700080913504C1CF84B7877F84BF0FB6F8947B
:10568000A89580916000886180936000109260000E
:105690000FBE80E890E00FB6F8948093610090937D
:1056A00061000FBE0E94BE2808950E94812D0E94B5
:1056B000DE2DE2EEF0E080818460808378940E94A9
:1056C0006130089587ED91E00E94FA260895809157
:1056D0000305853031F480910305853019F00E946F
:1056E000392908950E940E2980910105882399F394
:1056F0000E94CB28882379F30E94E32B0E94591043
:10570000EACF08959A0140910A0550910B050E9435
:105710008A2B0895AC01CB01D901252F33272330E3
:105720003105E1F058F421303105C9F1223031055D
:10573000D9F180E090E020E030E01EC02132310558
:1057400021F122323105A9F7892BC1F161307105B0
:1057500081F786EB90E02FEA34E00EC0CA0199276A
:10576000413069F08230910569F0EEE5F4E0892B73
:1057700001F7849190E09F012D933C930895EAE412
:10578000F4E0F7CFECE3F4E0F4CF892B91F0613053
:10579000710579F689E090E02DE834E0EDCF82E103
:1057A00090E02DE934E0E8CF8BE390E022E634E0AE
:1057B000E3CF89E090E024E734E0DECF84E490E0BA
:1057C00025E635E0D9CF80E189BD82E189BD09B404
:1057D00000FEFDCF8091D8008F7D8093D80080910E
:1057E000E00082608093E0008091E00081FDFCCFCA
:1057F0000895AF92BF92CF92DF92FF920F931F93C3
:10580000CF93DF936C01EB018A010E94502DF82E9B
:10581000811123C00115110539F0F80180819181B2
:10582000C81BD90BC80ED91EA12CB12C2097A9F0EA
:105830008091E80085FD22C08091E8008E778093FA
:10584000E80001151105A1F0F801808191818A0D10
:105850009B1D9183808385E0F82E8F2DDF91CF9162
:105860001F910F91FF90DF90CF90BF90AF90089560
:105870000E94502D8823E1F2F82EEFCFF60181919E
:105880006F018093F1002197FFEFAF1ABF0ACECFCF
:10589000FC019B0180910A0590910B0586179707E3
:1058A00018F0672B61F0C90140E0009771F44111D5
:1058B0000CC08091E80082FF35C080E0089580919F
:1058C000E8008E778093E800EECF20910305222335
:1058D000A9F12530A9F12091E80023FD2DC02091E8
:1058E000E80022FDE6CF2091E80020FFDECF3091D6
:1058F000F3002091F200009719F02830310558F09C
:1059000041E02830310509F040E02091E8002E7791
:105910002093E800CACF41914093F10001972F5F97
:105920003F4FE9CF80910305882341F0853041F056
:105930008091E80083FFBDCF81E0089582E0089563
:1059400083E00895FC019B0180910A0590910B056D
:105950008617970718F0672B61F0C90140E00097A0
:1059600071F441110CC08091E80082FF36C080E0E4
:1059700008958091E8008E778093E800EECF209123
:1059800003052223B1F12530B1F12091E80023FD78
:105990002EC02091E80022FDE6CF2091E80020FFF4
:1059A000DECF3091F3002091F200009719F02830FB
:1059B000310558F041E02830310509F040E02091F0
:1059C000E8002E772093E800CACF44914093F1007D
:1059D000319601972F5F3F4FE8CF809103058823D1
:1059E00041F0853041F08091E80083FFBCCF81E039
:1059F000089582E0089583E00895982F973028F065
:105A00008F708093E90081E008959093E900242F3E
:105A1000762F50E0981731F07091EC002091ED0056
:105A20005091F00021FD02C09F5FE8CF3091EB0064
:105A30003E7F3093EB003091ED003D7F3093ED00E1
:105A40003091EB0031603093EB007093EC002093C9
:105A5000ED005093F0002091EE0027FDE5CF80E0AF
:105A600008958091040587FF13C08091E80082FFAC
:105A700006C08091E8008B778093E80004C0809195
:105A800003058111F2CF0895809103058823D9F38E
:105A90008091E80080FFF8CF8091E8008E77ECCF0E
:105AA0002091E4003091E50095E6A9018091EC0099
:105AB0008170882331F08091E80080FF06C080E08B
:105AC00008952091E80022FD1BC0809103058823E2
:105AD00091F0853091F08091EB0085FD10C0209110
